:1000000000800020BD01000069AC000025AC0000AC
:1000100025AC000025AC000025AC000025AC00009C
:1000200025AC000025AC000025AC000069AC000048
:1000300069AC000025AC000035A1000039A100002A
:1000400069AC000069AC000069AC000069AC00005C
:1000500069AC000069AC000069AC000069AC00004C
:1000600069AC000069AC000069AC000069AC00003C
:1000700069AC000069AC000069AC000069AC00002C
:1000800069AC000069AC000069AC000069AC00001C
:100090008987000069AC000069AC000069AC000011
:1000A00069AC000069AC000069AC000069AC0000FC
:1000B00069AC0000A19D0000AD9D0000B19D000055
:1000C000BD9D0000C19D0000C59D000069AC000001
:1000D00069AC000069AC000069AC000069AC0000CC
:1000E00069AC000069AC000069AC000069AC0000BC
:1000F00069AC000069AC000069AC00008DBB000079
:1001000069AC0000B5C2000069AC000069AC000039
:1001100069AC000069AC000069AC000069AC00008B
:1001200069AC000069AC000069AC000069AC00007B
:1001300069AC000069AC000069AC000069AC00006B
:1001400069AC000069AC000069AC000069AC00005B
:1001500069AC000069AC000069AC000069AC00004B
:1001600069AC0000B5C5000069AC000069AC0000D6
:1001700069AC000069AC000069AC000069AC00002B
:1001800069AC000069AC000069AC000069AC00001B
:1001900069AC000069AC000069AC000069AC00000B
:1001A00069AC000069AC000069AC000069AC0000FB
:1001B00069AC000069AC000069AC0000574B4CF220
:1001C000205210B5DA814DF62812DA8100BF00BF47
:1001D0000AF04EFD524B4FF010621A63514A9A6377
:1001E000514ADA63514A136913F4807303D153619E
:1001F0004FF4A85313614E4B9A78110703D59A78A0
:1002000042F008029A704B4B4B482A221A704B4B13
:10021000DA1C121AC11E22F00302994288BF002282
:1002200047490AF02BFC474B4748DA1C121AC11EFB
:1002300022F00302994288BF002200210FF058FCEF
:10024000424943484FF4DE720AF018FC414B424ADF
:10025000802103F8011B9342FBD14FF0E0233C4A7D
:10026000C3F8082D3D4B8A221A70A3F5805324222F
:100270005A70A0221A709A799207FCD59A79D406FE
:10028000FCD4374B9A7902F00C02082AFAD10322E7
:100290001A7140225A719A799006FCD5304A9379A6
:1002A0005906FCD51E4B2F4959640221996420211F
:1002B0001170917901F00C010C29FAD12A4A5A6087
:1002C0004FF0E023294A5A6100229A6107221A61FD
:1002D000274AC3F8202D62B60AF0F4FD134B5B6980
:1002E000DA0705D523480AF0E1FD234B234ADA61FA
:1002F000234B1B785B0609D51F4C204BE2699A42C1
:1003000004D11C480AF0D2FD0023E3610AF0B6FCD8
:100310000FF0E4FC0AF0AAFBFEE700BF0020054056
:1003200000800440823F04000100002B00D0034005
:1003300000D0074000E007402087FF1F7091FF1F9B
:100340008475010084BFFF1F7091FF1F0000000033
:100350000082FF1F00E400E05FE400E00050064080
:100360000040064000000301C0100500FF760100B8
:10037000000020207827596400E00340A5C3945A68
:1003800000F00740FFFFFFFFFFFFFFFFFFFFFFFF42
:10039000FFFFFFFFFFFFFFFFFFFFFFFFFFFFFFFF6D
:1003A000FFFFFFFFFFFFFFFFFFFFFFFFFFFFFFFF5D
:1003B000FFFFFFFFFFFFFFFFFFFFFFFFFFFFFFFF4D
:1003C000FFFFFFFFFFFFFFFFFFFFFFFFFFFFFFFF3D
:1003D000FFFFFFFFFFFFFFFFFFFFFFFFFFFFFFFF2D
:1003E000FFFFFFFFFFFFFFFFFFFFFFFFFFFFFFFF1D
:1003F000FFFFFFFFFFFFFFFFFFFFFFFFFFFFFFFF0D
:10040000FFFFFFFFFFFFFFFFFFFFFFFFDEF9FFFF23
:100410000548064B1B1AD90F01EBA301491002D066
:10042000034B03B1184770477091FF1F7091FF1F76
:100430000000000008B5054B1BB105490548AFF3A6
:100440000080BDE80840FFF7E3BF00BF00000000E8
:100450007091FF1F847501002DE9F04F87B0784E31
:10046000109C0493002CB4BFE31D2346DB10013322
:100470005B00039303230093431C0293714F01928B
:100480004B1E804689460593019B98F800A04BB30C
:100490004AF0010528460BF039FEDDF808B0059951
:1004A00058460BF03DFE88F800502B46B9F1000F7E
:1004B00000F09780594608EB090C002058400822AC
:1004C000430010F0800F08BF400083F0070314BF03
:1004D000D8B2C0B2013AF3D1614500F0838011F87F
:1004E000013BEBE750460BF011FE059902980BF02B
:1004F00017FE554688F800A002F076FA002849D188
:10050000039888F800A00AF03BFF02F06DFA00287B
:100510003BD1049D4FF0000A02E00AF1010A0135C7
:100520000BF036FE98B1544511DD0BF045FE2870F6
:1005300002F05AFA0028F0D0297800231022304621
:1005400009F0D4FF012138460CF0FCFCE5E75445E6
:100550000DD002F049FA00286DD1009B013B0093B9
:1005600092D1504607B0BDE8F08F0BF025FE0BF09E
:100570000FFE0028F9D102F037FA10B1304809F027
:100580009DFF504607B0BDE8F08F07212E480CF0C4
:10059000D9FCBEE709212D480CF0D4FC29460023E4
:1005A0001022304609F0A2FF012138460CF0CAFCA7
:1005B000B9F1010F19DD029D08EB090B15F8011BBC
:1005C00000231022304609F091FF012138460CF03B
:1005D000B9FC5D45F2D1019B7BB9304609F06EFF55
:1005E0008EE748460BF092FD86E7019B002BF4D086
:1005F000B9F1010F18BF002117D108F1FF30002118
:10060000C8F1010510F8013F082259404B0011F0D4
:10061000800F08BF490083F0070314BFD9B2C9B2E5
:10062000013AF3D12B189945ECDC00231022304617
:1006300009F05CFFD1E7304609F040FF8DE700BFCD
:10064000F889FF1F4C690100185701000C57010081
:1006500038B5182504462A4600210FF049FA0E4BFA
:10066000A361E36123626362A362E3622A4600211D
:1006700004F130000FF03CFA00210023074A08483B
:1006800084F88410E065A364E36423656365A26570
:1006900022666366204638BD0000A0400000484343
:1006A0000000C8C20023036043608360C36003612D
:1006B0004361836403654365704700BFF0B590F8FC
:1006C000843087B00446002504265B0001278DF89E
:1006D0000C302A4604AB0096032103A88DF80D5078
:1006E0008DF80E70FFF7B8FE94F884308DF80E6028
:1006F000BB408DF80C302020072300932A4604AB22
:100700008DF80D00032103A8FFF7A6FE00962A46E8
:1007100094F884508DF80E70BD408DF80C509DF803
:10072000135025679DF8145065679DF81550A5670F
:100730009DF81650E56704AB032103A833248DF818
:100740000D40FFF789FE07B0F0BD00BF90F87400C0
:10075000704700BF90F87000704700BF90F87800B5
:10076000704700BF90F87C00704700BF00B590F85C
:10077000841087B00423490000204FF0320C00930E
:10078000012204AB8DF80C108DF80E00032103A894
:100790008DF80DC0FFF760FE02200AF0F1FD07B0F2
:1007A0005DF804FB2DE9F047054690B095F88430DC
:1007B00002205B008DF808300AF0E2FD95F88430E5
:1007C00028465B008DF80830FFF778FFE86FA96FC7
:1007D0006B6F2A6F0190009195F88410B04802F079
:1007E00033FA032430223D2003AB8DF80920214643
:1007F00001228DF80A00009402A8FFF72DFE0126C1
:10080000312332468DF80930214603AB009402A80B
:100810008DF80A40FFF720FE3420324603AB214614
:100820008DF80900009402A88DF80A60FFF714FE05
:1008300012238DF80A3016230093214602A803AB39
:1008400000228DF80960FFF707FE0128064639DD12
:100850000DF10B0303A91818002411F8013B08221D
:100860005C40630014F0800F08BF640083F007034E
:1008700014BFDCB2E4B2013AF3D18842EDD127468D
:100880009DF8211087483A4602F0DEF9162E9DF8B1
:10089000213001D1A3420AD095F8841082480097F4
:1008A000324602F0F7F9002010B0BDE8F0879DF85D
:1008B0000C3095F88420B3EB420F06D0002010B026
:1008C000BDE8F08700273C46DAE79DF80D30012BA4
:1008D000F4D19DF80E30122BF0D19DF810309DF818
:1008E0000F0003EB00200EF017F870490EF068F8C7
:1008F000696EE86404460EF01FFA00B16C66296E5A
:1009000020460EF0FBF900B12C662F1FDFF8A0A1E6
:1009100003AC05F114083E46A379607903EB00208F
:100920000DF0FAFF51460EF04BF846F8040FB1698E
:10093000814602340EF0E2F930B1A96E48460EF05D
:10094000F1F908B1C6F81890316B48460EF0F4F989
:1009500008B1C6F83090B045DED10020A86457F841
:10096000041F0DF025FFB845F9D19DF81D209DF815
:100970001E30A86403EB0223981C0DF0CDFF4D49F7
:100980000EF0D2F801464C480EF0CEF84B490DF06F
:100990000DFF4B490EF014F806460CF0DBFC044644
:1009A00030460CF0D7FC47490CF0FEFC46490646A1
:1009B00020460EF005F845490DF0FAFE444904467C
:1009C00030460DF0FDFF014620460DF0F1FE0146D8
:1009D0004FF07E500EF0A8F83E490DF0E7FE9DF86E
:1009E0001F209DF82030286503EB0223064603F103
:1009F00009000DF091FF38490EF096F801462E4897
:100A00000EF092F82D490DF0D1FE2D490DF0D8FFD2
:100A100007460CF09FFC044638460CF09BFC294925
:100A20000CF0C2FC2849074620460DF0C9FF2749B3
:100A30000DF0BEFE2649044638460DF0C1FF0146C2
:100A400020460DF0B5FE01464FF07E500EF06CF8DA
:100A500020490DF0ABFED5F8803068650446002BC8
:100A600046D1014630460EF049F9002838D0A86D2D
:100A700031460EF061F938B13346AB652146304658
:100A80000EF03CF900B93446E86D21460EF036F917
:100A900000B1EC65114802F0D7F8012004E700BF6F
:100AA0002057010054570100A05701006B57053B28
:100AB0002003C839001601470AD7E33FE17A6440B2
:100AC00000007A4400004040A40D8F395A80473A14
:100AD00046A6DB3333938843002C01477857010047
:100AE000A96D20460EF00AF90028C7D02346C4E7B6
:100AF0001333A96D55F8234020460EF0FFF8002867
:100B0000C2D0AC65C0E700BF052994BF50F82100F2
:100B1000002070472DE9F0410B4E0746051F00F1FC
:100B2000140855F8044F314620460EF0E7F8034606
:100B3000204623B1B96E0EF0FFF800B126464545B8
:100B4000EFD13046BDE8F081000020412DE9F041B1
:100B5000DFF830800027051F00F1140655F8044F18
:100B6000394620460EF0E8F80346414620461BB1C0
:100B70000EF0C4F800B12746B542EFD13846BDE8C3
:100B8000F08100BF000090402DE9F84FD0F868A038
:100B9000DFF8708006460027051F00F114094FF0AA
:100BA000000B55F8044F514620460EF0C5F8034699
:100BB000414620464BB10EF0A1F830B138462146EF
:100BC0000DF0F6FD0BF1010B07464D45E9D1D6F8C6
:100BD00088305B4511D0D6F88C30022BD6BF01335C
:100BE000C6F888B0C6F88C3058460DF095FE014620
:100BF00038460DF099FFBDE8F88F0023C6F88C3019
:100C0000F2E700BF00007042D0F88800704700BFD4
:100C100038B5D0F8803043B9456D046D294620467B
:100C20000EF06CF830B1204638BD133350F8234035
:100C3000204638BD2C46204638BD00BF38B5D0F818
:100C4000803043B9446D056D214628460EF056F8B4
:100C500030B1204638BD133350F82340204638BD0C
:100C60002C46204638BD00BF08B5D0F8803043B9C7
:100C7000416D006D0DF09CFD4FF07C510DF0A0FE1C
:100C800008BD133350F8230008BD00BF806C7047C7
:100C900001299ABF143150F821000020704700BF8D
:100CA0003E2998BF80F88410704700BF90F86C0010
:100CB000704700BFC0F88010704700BF80F86C100C
:100CC000704700BF8166704770B500F50E55064647
:100CD00000F12804183520469034FFF7B9FCAC42E7
:100CE000F9D106F1B805012428460021FFF7E6FFF7
:100CF000214628460134FFF7D3FF3F2C05F190052C
:100D0000F2D10749316106F50053002272610548AE
:100D10000549B0610022F161304683F8A02370BD1F
:100D200000007A44000048430000C8C238B500F50E
:100D30000E5500F1B804183502E09034AC420AD0E8
:100D40002046FFF7B3FF0028F7D020469034FFF786
:100D5000A9FCAC42F4D138BDF8B500F5005700232A
:100D600000F50E56C7F8A43300F1B804183602E0B7
:100D70009034B4420FD02046FFF798FF0028F7D0F8
:100D80002046D7F8A453FFF73FFF90340544B44200
:100D9000C7F8A453EFD1D7F8A403F8BD2DE9F04F5D
:100DA000804693B000F500500023012A079000927E
:100DB000C0F8A833069100F00F82DFF8F09208F136
:100DC000B80A4FF0010B07E00BF1010BBBF13F0F2D
:100DD0000AF1900A00F025815046FFF767FF0028CE
:100DE000F2D0002634460125D8F808703146504626
:100DF000FFF78AFE39460DF09FFF18B105FA06F39A
:100E00001C43E4B20136062EEED1009B012B00F00C
:100E10002D81002CD8D04FEA4B03DBB21A4642F0AA
:100E20000106019333238DF825303046069B8DF85B
:100E300024208DF826300BF069F90DF125000221F0
:100E40000BF06EF909AB04931A468DF824600596F1
:100E50003346002058400825430010F0800F08BF9B
:100E6000400083F0070314BFD8B2C0B2013DF3D1F4
:100E70000DF126039A4202D012F8013FEAE70BF087
:100E800045F901F0B1FD002840F06381019B8DF828
:100E9000243002200AF074FA01F0A6FD002840F088
:100EA00053810AAB02931F460025039400E00135ED
:100EB0000BF06EF9B0B11E2D00F0F1800BF07CF953
:100EC00007F8010B044601F08FFD0028EFD0E1B2D6
:100ED00000231022484609F009FB012174480CF058
:100EE00031F8E4E71E2D039C31D001F07DFD002890
:100EF00035D1009B012B38D0019B8DF82430304632
:100F000032238DF825308DF826400BF0FFF80DF1D7
:100F1000250002210BF004F98DF8246009AA0020B5
:100F200070400825430010F0800F08BF400083F098
:100F3000070314BFD8B2C0B2013DF3D10DF12603AF
:100F40009A4226D012F8016FEAE70BF035F90BF060
:100F50001FF90028F9D101F047FD0028C9D0484603
:100F600009F0ACFA009B012BC6D1029D2F1D15F88C
:100F7000011B00231022484609F0B8FA4D48012110
:100F80000BF0E0FFAF42F2D103214B480BF0DAFF48
:100F9000B2E70BF0BBF801F027FD002840F092808B
:100FA000019B8DF8243002200AF0EAF901F01CFDC3
:100FB000002876D1029E002500E001350BF0E8F80C
:100FC00090B31E2D15D00BF0F7F806F8010B07466D
:100FD00001F00AFD0028F0D0F9B2002310224846A3
:100FE00009F084FA012132480BF0ACFFE5E70BF081
:100FF000E3F80BF0CDF80028F9D101F0F5FCC8B901
:10100000009B012B1CD0079AD2F8A8330BF1010BDF
:101010002344BBF13F0FC2F8A8330AF1900A7FF4D2
:10102000DBAE13B0BDE8F08F1E2DE2D001F0DCFC8A
:101030000028E5D0484609F041FA009B012BE2D197
:10104000029E351D16F8011B00231022484609F0A8
:101050004DFA184801210BF075FFB542F2D1079AFD
:10106000D2F8A8332344C2F8A83314E059464846BE
:1010700009F01CFA032111480BF064FF21460023FC
:101080000222484609F032FA0B4803210BF05AFFBE
:10109000002C7FF4C0AE484609F010FA94E6039C99
:1010A00055E7072106480BF04DFF83E7F889FF1F3E
:1010B0004C690100F8570100F4570100F057010096
:1010C00018570100092146480BF03CFF2B4610221F
:1010D0000599484609F00AFA012142480BF032FF0F
:1010E0002B4610229DF82510484609F0FFF90121F2
:1010F0003C480BF027FF9DF826102B46102248464F
:1011000009F0F4F9012137480BF01CFF04990DF1A7
:10111000270011F8013B5D4008236A0015F0800F9D
:1011200008BF6D0082F0070214BFD5B2EDB2013BDB
:10113000F3D18842EDD129461022484609F0D6F96C
:10114000484609F0BBF92BE7072127480BF0FAFEC8
:10115000A7E6092122480BF0F5FE2B461022314666
:10116000484609F0C3F901211E480BF0EBFE2B465F
:1011700010229DF82510484609F0B8F901211948B8
:101180000BF0E0FE2B469DF826101022484609F091
:10119000ADF9144801210BF0D5FE09AB0DF127077D
:1011A000184610F8013B5D4008236A0015F0800FD7
:1011B00008BF6D0082F0070214BFD5B2EDB2013B4B
:1011C000F3D1B842EDD129461022484609F08EF9F4
:1011D000484609F073F959E6044809F06FF9ECE55F
:1011E0000C5701004C69010018570100F889FF1FD6
:1011F0002DE9F04F87B04FF0000B0190DFF82CA3E2
:10120000CB4FADF808B001238DF80A304FF0030939
:10121000002420460AF07AFF02210DF109000AF0AD
:101220007FFF8DF8084001F0DFFB002840F09D8033
:1012300002208DF808400AF0A3F801F0D5FB002841
:1012400040F08E800DF10C084646002500E0013587
:101250000AF09EFF002875D0042D15D00AF0ACFFCF
:1012600006F8010B044601F0BFFB0028EFD0E1B205
:1012700000231022504609F039F9012138460BF0BD
:1012800061FEE4E70AF098FF0AF082FF05460028B5
:10129000F8D101F0A9FB10B1504609F00FF99DF803
:1012A0000C30802B40F03E819DF80D40002C40F02A
:1012B00039819DF80E90B9F1010F40F033819D48BE
:1012C00001F0C2FC019B4E4603F1B80704E0013671
:1012D0003F2E07F1900793D03846FFF7E7FC002830
:1012E000F5D14FF46C520090ADF80820012066F063
:1012F0007F028DF80A200AF009FF02210DF1090092
:101300000AF00EFF009B01220DF1080A8DF808205B
:1013100018460DF10A01524680EA09004FF008090B
:10132000430010F0800F08BF400083F0070314BF94
:10133000D8B2C0B2B9F10109F2D191423DD012F850
:10134000019FE9E7042D9FD001F04EFB002840F0FB
:10135000E280B9F1010900F0E5809DF8084058E706
:10136000072175480BF0EEFD6CE7092173480BF07F
:10137000E9FD002310222146504609F0B7F801216B
:1013800038460BF0DFFD9DF809100023102250466F
:1013900009F0ACF8012138460BF0D4FD9DF80A1095
:1013A00000231022504609F0A1F8012138460BF025
:1013B000C9FD504609F082F83AE70AF0A7FE01F0AD
:1013C00013FB002862D103208DF808B009F0D8FF84
:1013D00001F00AFB002854D1DFF85091544C00E092
:1013E00001350AF0D5FE002841D00A2D16D00AF0AA
:1013F000E3FE08F8010B824601F0F6FA0028EFD070
:101400005FFA8AF100231022484609F06FF80121A3
:1014100020460BF097FDE3E70AF0CEFE0AF0B8FE97
:101420000028F9D101F0E0FA002840F08B809DF807
:101430000C30812B7FF4E2AE9DF80D303B2B7FF416
:10144000DDAE9DF80E308036B3427FF4D7AE38461D
:101450000121FFF733FC019B394803F50052D2F814
:101460009C330133C2F89C3301F0EEFBC6E60A2D33
:10147000D4D001F0B9FA002849D1022D7FF7BEAED1
:10148000D5E707212C480BF05DFDA5E709212B4886
:101490000BF058FD4B4610220121244809F026F894
:1014A000012123480BF04EFD4B4610229DF80910F8
:1014B0001E4809F01BF801211D480BF043FD9DF863
:1014C0000A101A484B46102209F010F8012118485A
:1014D0000BF038FD0DF10B011AF8012B08235440D5
:1014E000620014F0800F08BF640082F0070214BF8E
:1014F000D4B2E4B2013BF3D18A45EDD121461022AA
:101500000A4808F0F3FF094808F0D8FF5BE70748EE
:1015100008F0D4FFB1E7504608F0D0FFB9F1010957
:101520007FF41BAF07B0BDE8F08F00BFF889FF1F45
:101530004C690100FC570100185701000C570100CD
:1015400008580100014808F0B9FF70E7F889FF1F4B
:101550002DE9F04F00F5005B85B000230122DFF894
:101560007081DFF87091CBF89C33ADF804308DF8C2
:10157000062000F1B80A022700215046FFF79EFB23
:10158000FCB238468DF804400AF0C0FD02210DF18E
:1015900005000AF0C5FD8DF8044001F025FA002889
:1015A00065D114208DF8044009F0EAFE01F01CFA20
:1015B000002857D10DF10706002500E001350AF09B
:1015C000E7FD70B3082D15D00AF0F6FD06F8010FFF
:1015D000044601F009FA0028F0D0E1B200231022FD
:1015E000404608F083FF012148460BF0ABFCE5E7DD
:1015F0000AF0E2FD0AF0CCFD0028F9D101F0F4F97F
:10160000002860D19DF80830BB4216D00520023773
:1016100009F0B6FE7E2F0AF1900AADD105B0BDE803
:10162000F08F082DE6D001F0DFF9002847D1042D16
:10163000ECDD9DF80830BB42E8D19DF80930002B65
:10164000E4D19DF80A100129E0D19DF80C30002B5F
:10165000DCD05046FFF732FBDBF89C330133CBF88C
:101660009C33D3E707211C480BF06CFCA2E709214F
:101670001A480BF067FC002310223946404608F058
:1016800035FF012148460BF05DFC9DF80510002355
:101690001022404608F02AFF012148460BF052FC78
:1016A0009DF8061000231022404608F01FFF01217C
:1016B00048460BF047FC404608F000FF71E7404603
:1016C00008F0FCFEB3E7404608F0F8FE9AE700BFDA
:1016D000F889FF1F4C690100185701000C570100E1
:1016E0002DE9F04F00F50E5585B0814600F1B804A4
:1016F000183500F500570026204600219034FFF7EA
:10170000DDFAAC42C7F89C63F6D14FF0020A0DF146
:10171000060643F67E43ADF804307F20A5238DF8FE
:1017200006300AF0F3FC0DF1050002210AF0F8FC86
:1017300001AC4FF07F038DF804307F222346002058
:1017400050400825420010F0800F08BF400082F092
:10175000070214BFD0B2C0B2013DF3D19E4202D005
:1017600013F8012FECE70AF0D1FC01F03DF9002855
:101770005FD17E2364208DF8043009F001FE01F072
:1017800033F9002840F09680DFF834B1DFF8348177
:101790000DF10707002500E001350AF0F9FC58B308
:1017A000082D15D00AF008FD07F8010F044601F0D6
:1017B0001BF90028F0D0E1B200231022584608F0AF
:1017C00095FE012140460BF0BDFBE5E70AF0F4FC75
:1017D0000AF0DEFC0028F9D101F006F990B99DF875
:1017E00008307F2B15D0BAF1010F1FD14846FFF703
:1017F000FFFC05B0BDE8F08F082DE9D001F0F4F84A
:101800000028ECD02E4808F059FE9DF808307F2BB8
:10181000E9D19DF809303C2BE5D19DF80A30A52B84
:10182000E1D19DF80B30572BDDD1DFE74FF0010AF6
:101830006FE7092124480BF085FB2B4610227F21FE
:101840001F4808F053FE01211E480BF07BFB2B467E
:1018500010229DF805101A4808F048FE0121194889
:101860000BF070FB9DF8061015482B46102208F06F
:101870003DFE012113480BF065FB29460DF10700E1
:1018800014F8013B594008234A0011F0800F08BFAB
:10189000490082F0070214BFD1B2C9B2013BF3D1B3
:1018A0008442EDD11022064808F020FE044808F0DA
:1018B00005FE5EE7072105480BF044FB64E700BF27
:1018C000F889FF1F4C6901000C57010018570100EF
:1018D0002DE9F04F87B042F27F02FF23DFF8E0A24C
:1018E000B84CB94D0190ADF80C208DF80E3003279F
:1018F0004FF07F080DF10E0648F0010B58460AF034
:1019000005FC0DF10D0002210AF00AFCD9468DF804
:101910000CB003AA002001E012F801BF8BEA00001E
:101920004FF0080B430010F0800F08BF400083F019
:10193000070314BFD8B2C0B2BBF1010BF2D1B2425F
:10194000EAD10AF0E3FB01F04FF8002840F0D6811D
:1019500002208DF80C8009F013FD01F045F80028F5
:1019600040F014820DF1100B4FF0000901E009F175
:1019700001090AF00DFC002800F0B181B9F1040F53
:1019800016D00AF019FC0BF8010B804601F02CF878
:101990000028ECD05FFA88F100231022204608F0DE
:1019A000A5FD012128460BF0CDFAE0E70AF004FC82
:1019B0000AF0EEFB0028F9D101F016F810B18148C9
:1019C00008F07CFD7F270023DFF8F4A17D4C7E4DDD
:1019D0008DF80C708DF80E304FF0030847F0010BB6
:1019E00058460AF093FB0DF10D0002210AF098FB16
:1019F000D9468DF80CB003AA002001E012F801BF0F
:101A00008BEA00004FF0080B430010F0800F08BF76
:101A1000400083F0070314BFD8B2C0B2BBF1010B82
:101A2000F2D1B242EAD10AF071FB00F0DDFF0028EA
:101A300040F0508202208DF80C7009F0A1FC00F0FB
:101A4000D3FF002840F041820DF1100B4FF0000948
:101A500001E009F101090AF09BFB002800F02F8149
:101A6000B9F1040F15D00AF0A7FB0BF8010B0746DC
:101A700000F0BAFF0028ECD0F9B200231022204673
:101A800008F034FD012128460BF05CFAE1E70AF08A
:101A900093FB0AF07DFB0028F9D100F0A5FF10B1FF
:101AA000484808F00BFD42F27F13ADF80C30DFF828
:101AB0001481DFF81491FF238DF80E304FF0030AE4
:101AC0007F2545F0010B58460AF020FB0DF10D0073
:101AD00002210AF025FB5F468DF80CB003AC002014
:101AE00001E014F801BF8BEA00004FF0080B43003F
:101AF00010F0800F08BF400083F0070314BFD8B276
:101B0000C0B2BBF1010BF2D1A642EAD10AF0FEFA53
:101B100000F06AFF002840F08B8102208DF80C5005
:101B200009F02EFC00F060FF002840F0C9810DF1A3
:101B3000100B002700E001370AF02AFB002800F014
:101B4000AF80042F15D00AF037FB0BF8010B0546C8
:101B500000F04AFF0028EED0E9B2002310224046F0
:101B600008F0C4FC012148460BF0ECF9E3E70AF069
:101B700023FB0AF00DFB0028F9D100F035FF10B16E
:101B8000104808F09BFC7F270023DFF834A00D4DA0
:101B90000D4E8DF80C708DF80E304FF0030847F0A5
:101BA000010B58460AF0B2FA0DF10D0002210AF0BD
:101BB000B7FAD9468DF80CB003AA002008E000BFA0
:101BC0000C570100F889FF1F4C69010012F801BF92
:101BD0008BEA00004FF0080B430010F0800F08BFA5
:101BE000400083F0070314BFD8B2C0B2BBF1010BB1
:101BF000F2D1A242EAD10AF089FA00F0F5FE0028FB
:101C000040F0CE8002208DF80C7009F0B9FB00F096
:101C1000EBFE002840F0BF800DF1100B4FF00009E3
:101C200001E009F101090AF0B3FA58B3B9F1040F60
:101C300015D00AF0C1FA0BF8010B074600F0D4FEEC
:101C40000028EED0F9B200231022284608F04EFCFE
:101C5000012130460BF076F9E3E70AF0ADFA0AF01D
:101C600097FA0028F9D100F0BFFE10B1C54808F07E
:101C700025FC019B03F50053002283F8A02307B045
:101C8000BDE8F08FB9F1040FE9D000F0ADFE0028F7
:101C900040F06881B8F10108EBD09DF80C707EE748
:101CA000042F3FF466AF00F09FFE002840F05E81F5
:101CB000BAF1010A3FF467AF9DF80C5001E7B9F1A2
:101CC000040F3FF4E6AE00F08FFE002840F0528192
:101CD000B8F101083FF4E7AE9DF80C707EE6B9F16B
:101CE000040F3FF465AE00F07FFE002840F046810F
:101CF000013F3FF467AE9DF80C80FDE50921504699
:101D00000BF020F95B4610224946204608F0EEFB16
:101D1000012128460BF016F95B4610229DF80D10A4
:101D2000204608F0E3FB012128460BF00BF95B4647
:101D30009DF80E101022204608F0D8FB01212846FD
:101D40000BF000F903AB0DF10F0C184610F8013B36
:101D500083EA0B0B08234FEA4B021BF0800F08BFEE
:101D60004FEA4B0B82F0070214BF5FFA82FB5FFA67
:101D70008BFB013BEFD16045E8D15946102220464C
:101D800008F0B4FB204608F099FBE1E507217E4806
:101D90000BF0D8F8E6E507217B480BF0D3F83BE7DA
:101DA000092150460BF0CEF85B46102249462846E2
:101DB00008F09CFB012130460BF0C4F85B46102272
:101DC0009DF80D10284608F091FB012130460BF0DC
:101DD000B9F85B469DF80E101022284608F086FBE5
:101DE000012130460BF0AEF803AB0DF10F0C184695
:101DF00010F8013B83EA0B0B08234FEA4B021BF060
:101E0000800F08BF4FEA4B0B82F0070214BF5FFA46
:101E100082FB5FFA8BFB013BEFD16045E8D159466D
:101E20001022284608F062FB284608F047FBE9E646
:101E3000092156480BF086F85B4639461022404689
:101E400008F054FB012148460BF07CF85B46102259
:101E50009DF80D10404608F049FB012148460BF063
:101E600071F85B469DF80E101022404608F03EFBCC
:101E7000012148460BF066F803AB0DF10F07184639
:101E800010F8013B83EA0B0B08234FEA4B021BF0CF
:101E9000800F08BF4FEA4B0B82F0070214BF5FFAB6
:101EA00082FB5FFA8BFB013BEFD1B842E8D1594688
:101EB0001022404608F01AFB404608F0FFFA2CE6D4
:101EC000072131480BF03EF831E607212E480BF090
:101ED00039F8B9E5092150460BF034F85B46102279
:101EE0004946204608F002FB012128460BF02AF85B
:101EF0005B4610229DF80D10204608F0F7FA0121EC
:101F000028460BF01FF85B469DF80E101022204665
:101F100008F0ECFA012128460BF014F803AB0DF1A0
:101F20000F0C184610F8013B83EA0B0B08234FEA0D
:101F30004B021BF0800F08BF4FEA4B0B82F00702E9
:101F400014BF5FFA82FB5FFA8BFB013BEFD1844544
:101F5000E8D159461022204608F0C8FA204608F079
:101F6000ADFA67E5284608F0A9FA93E6404608F07E
:101F7000A5FA9DE6204608F0A1FAA9E6204608F059
:101F80009DFAB5E6F889FF1F185701000C570100AC
:101F900038B500F50E5500F1B804183502E090345C
:101FA000AC420AD02046FEF781FE0028F7D020463A
:101FB0009034FEF7DBFBAC42F4D138BD2DE9F04F95
:101FC0000546002345F8B83B00F50E5787B080461C
:101FD00018372C4602E09034BC420AD02046FEF767
:101FE00065FE0028F7D020469034FEF7BFFBBC42C8
:101FF000F4D108F500530493D3F89C33072B00F376
:102000000881C82009F0BCF9DFF820A2DFF820928F
:1020100005952C46012604E001363F2E04F190047C
:102020007DD02046FEF742FE0028F5D0504600F055
:102030000BFE3146484600F007FE2046FEF7B2FB95
:102040002046FEF723FE0CF097FA02460B4679482D
:1020500000F0FAFD2046FEF75DFD05462046FEF73E
:1020600075FD834628460CF087FA02460B46584613
:10207000CDE902230CF080FA8C468346CDE900BC02
:10208000DDE902236C4800F0DFFD00212046FEF769
:10209000FFFD012105462046FEF7FAFD834628464E
:1020A0000CF06AFA02460B465846CDE902230CF0C2
:1020B00063FADDE90223CDE90001604800F0C4FDC8
:1020C0002046FEF7E3FD0146D8F800000CF070FB57
:1020D000C8F800002046FEF79BFDD8F818100CF059
:1020E0000DFE002840F083802046FEF7A7FDD8F8BB
:1020F0001C100CF021FE00288ED02046FEF788FD33
:102100004F490CF019FE002886D02046FEF796FDB8
:1021100001363F2EC8F81C0004F1900481D1D8F894
:102120000400059D0CF0F8FB0146D8F800000CF007
:10213000FBFCD8F81410C8F8000004460CF0FCFDB5
:1021400008B1C8F81440D8F8101020460CF0D6FD9D
:1021500008B1C8F810400B2009F0A8F8049B93F8C8
:10216000A033002852D1002B5CD00123049A82F8BE
:10217000A0330023C8F80C302C4602E09034BC4257
:1021800015D02046FEF792FD0028F7D02046FEF736
:10219000DDFCD8F80C100CF0CFFD0028EED0204666
:1021A000FEF7D4FC9034BC42C8F80C00E9D1254BB2
:1021B000C8F8083002E09035BD4215D02846FEF739
:1021C00075FD0028F7D02846FEF7A4FCD8F80810C3
:1021D0000CF094FD0028EED02846FEF79BFC9035CD
:1021E000BD42C8F80800E9D107B0BDE8F08F20462D
:1021F000FEF70EFD12490CF09FFD00283FF474AF6E
:102200002046FEF705FDC8F818006DE72BB900233E
:10221000ACE7322009F0B4F8F6E60B4800F026FDF2
:102220000023A3E7094800F035FD9EE7945C010018
:102230001C580100585801006C58010098580100C2
:1022400000008CC20000A040EC580100B45801000E
:1022500000F50050D0F8A803704700BF80687047B1
:1022600000F50050D0F89C03704700BFC06870476D
:102270000068704741607047F8B500F50E550F468D
:10228000164600F1B804183502E09034AC420FD085
:102290002046FEF70BFD0028F7D020463946FEF712
:1022A00009FD204631469034FEF70CFDAC42EFD1DB
:1022B000F8BD00BF2DE9F8432A4A2B4BDFF8AC905C
:1022C000426200F50E558046036200F1B8041835ED
:1022D0000026002702E09034A54210D02046FEF7E9
:1022E000E5FC0028F7D02046FEF7BEFC49460CF07E
:1022F00023FD88B99034A54206F10106EED108F518
:102300000058D8F89C03801B0CF006FB01463846A9
:102310000CF00AFCBDE8F8832046FEF7A5FC014658
:1023200038460CF045FA07462046FEF787FCD8F8F9
:1023300020100CF001FD70B92046FEF769FCD8F8BA
:1023400024100CF0DBFC0028C5D02046FEF760FC12
:10235000C8F82400BFE72046FEF770FCC8F820004C
:10236000EAE700BF00C0794400C079C400008CC215
:10237000006A7047406A7047F8B500F50E56074688
:10238000002500F1B804183602E09034B4420FD0B2
:102390002046FEF78BFC0028F7D02046FEF7F4FB22
:1023A000014628460CF004FA9034B4420546EFD1B9
:1023B00007F50057D7F89C030CF0AEFA0146284603
:1023C0000CF0B2FBF8BD00BF2DE9F04F93B0804692
:1023D0009B480D9108F5005700F0DCFB984800F091
:1023E000D9FB974800F0D6FB08F1B804D7F89C2336
:1023F0000C92002308F50E55C7F8A433183526466D
:10240000A14602E09036AE420FD03046FEF74EFCB9
:102410000028F7D03046D7F8A443FEF7F5FB9036F6
:102420002044AE42C7F8A403EFD1D8F800000CF066
:10243000A3F84C46CDE90E01D7F8A4B3D8F804A010
:10244000002603E009F19009A94510D04846FEF79F
:102450002DFC0028F6D04846FEF796FB0146304694
:102460000CF0A6F909F19009A9450646EED1D7F876
:102470009C03744F0CF050FA014630460CF054FBAC
:102480000CF07AF802460B464046CDE91023D8F806
:102490000C60D8F80850FFF70DFF0CF06DF8CDE98F
:1024A0000A01294630460CF081F967490CF088FA98
:1024B0000CF062F8CDE9080130460CF05DF8CDE98A
:1024C000060128460CF058F8DDE91023CDE9022377
:1024D000DDE90E23CDE90401CDE900230C995B4829
:1024E00053465A4600F056FB554800F053FB002374
:1024F00001260C9305E001363F2E04F1900400F014
:1025000096802046FEF7D2FB0028F4D02046FEF746
:102510001DF92046FEF71EF92046FEF71FF920465A
:10252000FEF720F908214A480AF00CFD31463846EA
:1025300007F0BCFF092E7DDD02214648DFF818B107
:102540000AF000FD2046FEF7A1FB0CF015F89DF8FF
:102550003490CDF800900B460246384607F0D0FF85
:102560003E4801210AF0EEFC2346DDF830A04C463F
:10257000002599461FE0062139480AF0E3FC514640
:10258000384607F093FF022136480AF0DBFC294663
:102590004846FEF7B9FA0BF0EFFF009402460B46EF
:1025A000384607F0ADFF01352C4801210AF0CAFC7E
:1025B000062D0AD0C246BAF1090F0AF10108DADC89
:1025C000012158460AF0BEFCD5E7112126480AF041
:1025D000B9FC00214846FEF75BFB0BF0CDFF02255E
:1025E00002460B460095384607F08AFF12211F4825
:1025F0000AF0A8FC01214846FEF74AFB0BF0BCFF9D
:10260000009502460B46384607F07AFF012118482C
:102610000AF098FC0C9B3846063301364C460C9366
:1026200007F04CFF3F2E04F190047FF46AAF13B023
:10263000BDE8F08F012108480AF084FC7CE700BF68
:10264000945C0100F889FF1F00007A4414590100CE
:10265000B4590100B46A01004C690100C05901007D
:10266000C4590100605A0100CC590100E059010031
:10267000F45901002DE9F04F87B000F1B8052E465E
:102680000595109FDFF84493DFF844A3DFF844B3C7
:102690000491029203934FF001080D4607E008F100
:1026A0000108B8F13F0F06F1900600F08680304631
:1026B000FEF7FCFA0028F2D000230A2229464846F9
:1026C00007F014FF012F00F01081012150460AF09D
:1026D00039FC02980BF050FF0B4600210246009196
:1026E000484607F00DFF012150460AF02BFC0399E4
:1026F000484607F0DBFE012150460AF023FC414624
:10270000484607F0D3FE012150460AF01BFC002486
:1027100021463046FEF7F8F90BF02EFF0B4602215A
:1027200002460091484607F0EBFE012F4FF00101F1
:10273000504604BF3946584601340AF003FC082CC1
:10274000E6D100213046FEF7A3FA0BF015FF022474
:1027500002460B460094484607F0D2FE012F00F0D7
:10276000E780012150460AF0EDFB01213046FEF7DB
:102770008FFA0BF001FF009402460B46484607F023
:10278000BFFE012150460AF0DDFB02213046FEF774
:102790007FFA0BF0F1FE0B460221024600914846FB
:1027A00007F0AEFE08F10108484607F087FEB8F1D1
:1027B0003F0F06F190067FF47AAF059DDFF818828F
:1027C000DFF80C92DFF80CA2DDF810B0012605E06E
:1027D00001363F2E05F1900500F084802846FEF773
:1027E00065FA0028F4D000230A225946404607F033
:1027F0007DFE012F00F0B1800121484609F076F8F6
:1028000002980BF0B9FE0B460021024600914046AB
:1028100007F076FE0121484609F068F80399404622
:1028200007F044FE0121484609F060F83146404671
:1028300007F03CFE0121484609F058F800242146E3
:102840002846FEF761F90BF097FE0B46022102467F
:102850000091404607F054FE012F4FF00101484619
:1028600004BF39465046013409F040F8082CE6D13F
:1028700000212846FEF70CFA0BF07EFE02240246E9
:102880000B460094404607F03BFE012F00F0888085
:102890000121484609F02AF801212846FEF7F8F9F7
:1028A0000BF06AFE009402460B46404607F028FEF5
:1028B0000121484609F01AF802212846FEF7E8F9F6
:1028C0000BF05AFE0B46022102460091404607F0EB
:1028D00017FE0136404607F0F1FD3F2E05F1900549
:1028E0007FF47CAF07B0BDE8F08F394658460AF058
:1028F00029FB02980BF040FE0B4600210246009196
:10290000484607F0FDFD394658460AF01BFB03997F
:10291000484607F0CBFD394658460AF013FB4146BE
:10292000484607F0C3FD394658460AF00BFBEEE671
:10293000394658460AF006FB39463046FEF7A8F9F4
:102940000BF01AFE009402460B46484607F0D8FDED
:10295000394658460AF0F6FA17E73946504608F065
:10296000C5FF02980BF008FE0B46002102460091BD
:10297000404607F0C5FD3946504608F0B7FF0399B9
:10298000404607F093FD3946504608F0AFFF314608
:10299000404607F08BFD3946504608F0A7FF4DE74B
:1029A0003946504608F0A2FF39462846FEF770F92E
:1029B0000BF0E2FD009402460B46404607F0A0FDF6
:1029C0003946504608F092FF76E700BFF889FF1FAE
:1029D000F85901004C690100B888FF1F014B1870BD
:1029E000704700BF2488FF1F024B1878B0FA80F0B0
:1029F000400970472488FF1F0278002A00F0B88041
:102A00002DE9F0435C4FDFF874815D4E83B00346DF
:102A10000D46252A34D158785C1C002838D0A0F106
:102A20002503552B2ED8DFE803F09F2D2D2D2D2DBE
:102A30002D2D2D2D2D2D2D2D2D2D2D2D2D2D2D2DC6
:102A40002D2D2D2D2D2D2D932D2D2D2D2D2D2D2D50
:102A50002D2D2D2D2D2D2D2D2D882D2D2D7C2D2DFC
:102A60002D2D2D2D2D2D2D7439392D5E2D2D392DFA
:102A70002D392D2D2D2D2D2D493F2D2D2D562D69E7
:102A800018781C460AF0E2FA6278631C002AC0D16A
:102A90003C4803B0BDE8F04307F010BD55F8041BF7
:102AA000384807F003FDEFE755F8041B01290EBF76
:102AB0003548012130460AF045FAE5E755F8049B10
:102AC000B9F1000FE0D048460DF03AF9014648460A
:102AD0000AF038FAD8E755F8041B2A4800231022D8
:102AE00007F004FDD0E7073525F007050321F5E8D9
:102AF00002232448009107F003FDC5E7073525F0C0
:102B000007050021F5E802231E48009107F0F8FCB4
:102B1000BAE755F8041B1B480023022207F0E6FC25
:102B2000B2E7022119480AF00DFA55F8041B1548BE
:102B30000023102207F0DAFCA6E755F8043B012B2E
:102B400007BF04214046052138460AF0FBF99BE700
:102B500002210F480AF0F6F955F8041B0948002332
:102B6000022207F0C3FC8FE725200AF06FFA8BE7FB
:102B7000044807F0A3BC00BF145A01000C5A01001E
:102B8000085A0100F889FF1F045A0100FC5901008E
:102B9000005A01000FB400B583B004A951F8040B2A
:102BA0000191FFF729FF03B05DF804EB04B0704713
:102BB000F0B51C4B1C4F1B6883B004460193019B6E
:102BC0003B600D46164619460A220023174807F0B7
:102BD0008DFC032116480AF0B5F9032C07D8DFE86D
:102BE00004F01B160211134807210AF0ABF9022169
:102BF00011480AF0A7F93146284603B0BDE8F04075
:102C0000FFF7FABE05210D480AF09CF9EFE7042111
:102C10000B480AF097F9EAE705210A480AF092F909
:102C2000E5E700BF38BAFF1F8891FF1FF889FF1F33
:102C3000F05701002C5A0100605A0100345A01007B
:102C4000245A01001C5A01000FB400B5064B187835
:102C500083B020B905AA04990192FFF7A9FF03B038
:102C60005DF804EB04B070472488FF1F0FB4084BD5
:102C700000B51B78012B83B005D805AA04990192F1
:102C80000120FFF795FF03B05DF804EB04B0704737
:102C90002488FF1F0FB4084B00B51B78032B83B0AB
:102CA00005D805AA049901920320FFF781FF03B01C
:102CB0005DF804EB04B070472488FF1F30B4074D63
:102CC000074C084900232B702360036530BC436523
:102CD000836580F85C300B60704700BF9091FF1FE8
:102CE0008C91FF1F9491FF1F70B5132008F0DEFA3E
:102CF00058B9114C08F024FB2268104B801A80B29E
:102D0000188008F01DFB206070BD0C4D0A4B2C880C
:102D10001E6808F015FBA4B23444201A2A8808491A
:102D2000C0EB00139B0092B2A3F63403B3FBF2F3A3
:102D30009BB20B8070BD00BF30B7FF1F3AB6FF1FBC
:102D4000D891FF1FDDF800C0521AACEB030C1CD069
:102D5000401ABCF1000F0CFB00F002EBD27109DB52
:102D600000EB610000FB02F1002990FBF2F0184437
:102D700010DB7047A0EB610000FB02F1002990FB23
:102D8000F2F01844F5DB013070470CEBDC7C03EB10
:102D90006C0070470138704738B5044649B10846A1
:102DA0000D460CF0CDFF236802465B68294620469D
:102DB00098472046BDE8384007F080BB38B5474803
:102DC000474CFFF7E7FE474B4748DC60474C1C6128
:102DD000474C9C61474C9C62474CDC61474CDC6231
:102DE000474C1C6300249C634FF4FA749C86454C4A
:102DF000DC63454C1C64454C5C6040F201241C8142
:102E0000434C5C625524C3F8DC404FF07C54DC64D6
:102E1000404C1C65404C5C650C249C653F4C5C66DA
:102E20003F4C18624FF40575586158649C663D48E4
:102E30001D8040F61C4400220121C3F8D000C3F8D5
:102E4000D400F0256420DC660A2483F84820C3F807
:102E5000E050D96518661C67C3F88410C3F8B81031
:102E600083F8D8103049DA67C3F88820C3F8AC205B
:102E700083F8CD2083F8CE20C3F89810322244F690
:102E800020612A4CC3F8C000C3F890202848C3F83A
:102E9000A010C3F8A820FF21C3F8B0200222DFF859
:102EA00094C0C3F8C44041F20405C3F8C8004FF40D
:102EB0007A742148C3F8B410C3F8802041F28831F5
:102EC000C3F8BC205A225D67C3F89440C3F89CC085
:102ED000C3F8A400C3F88C109A6738BD3C5A0100AF
:102EE000666686403CB7FF1FCDCC4C3E000040409C
:102EF00033338340CDCCCC3DCDCC4C40000082421E
:102F0000000020C1000020420000A04020A10700D6
:102F1000333373409A9979400AD7233D2C019600A8
:102F200032002C0158028813000011448813050058
:102F30009A99993E00F0C845D606D60670B5454D1B
:102F4000454C4648E66800232B70FFF78FF9014691
:102F500030460BF0D3FE08B104232B703F48FFF737
:102F60007DF921690BF0CAFE18B12B7843F01003EC
:102F70002B703A48FFF7FCF9E16A0BF0DDFE18B15F
:102F80002B7843F040032B70002334486B70FFF71D
:102F9000F1F9216B0BF0B2FE08B101236B70002335
:102FA000EB702E48FFF762F906462C48FFF756F9FA
:102FB000014630460BF0FAFB616C0BF0BDFE08B128
:102FC0000123EB70264D254800232B70FFF74EF9A7
:102FD000A16A0646E0680BF0E9FB014630460BF0BB
:102FE000ABFE08B104232B701C48FFF737F9A16A28
:102FF000064620690BF0DCFB014630460BF07EFEF6
:1030000018B12B7843F010032B701448FFF7B0F978
:10301000216C0646E06A0BF0C9FB014630460BF016
:103020008BFE18B12B7843F040032B7000236B709C
:103030000A48FFF79FF9216C0346206B1C460BF0F2
:10304000B7FB014620460BF059FE08B101236B7017
:1030500070BD00BFE091FF1F3CB7FF1FEC91FF1F49
:103060003CB8FF1F2DE9F0417E4C2368012B82B054
:1030700047D0022B74D0032B03D02BB302B0BDE892
:10308000F081794B794E4FF47A721A60D6F8B0001D
:103090000BF042FC0546D6F8B4000BF03DFC294687
:1030A0000BF084FB72490BF08BFC71490BF03CFD7B
:1030B00029460BF07DFB0BF05FFE0146062007F072
:1030C00053FF2368002BD9D1684B6A48D3F8B0105E
:1030D000D3F8B42003686848521A002A02FB03F3AD
:1030E00064DB323380FB0320DA17C2EB6012002B63
:1030F0001144C0F2B580062002B0BDE8F04107F0EF
:1031000033BF594F38680A30B0F57A7F49DC3860F0
:103110000BF002FC59490BF053FC8046534ED6F895
:10312000B0000BF0F9FB0546D6F8B4000BF0F4FB49
:1031300029460BF03BFB41460BF042FC4C490BF09F
:10314000F3FC29460BF034FB0BF016FE014606207B
:1031500007F00AFF4A4B1B689BBB2368022B8AD1EE
:10316000414B424E00221A60D6F8B0000BF0D4FB5F
:103170000546D6F8B4000BF0CFFB29460BF016FB42
:1031800000210BF01DFC3A490BF0CEFC29460BF058
:103190000FFB0BF0F1FD0146062007F0E5FE23686A
:1031A00069E700234FF000083B60B7E7323B80FB44
:1031B0000320DA17C2EB6012002B11449BDB0131B4
:1031C00099E702212F4809F0BDFE2F4807F076F954
:1031D00006212E4809F0B6FE38680BF09DFB274902
:1031E0000BF0EEFB0BF0C8F94FF0020802460B465D
:1031F000CDF80080244807F083F90D21244809F018
:10320000A1FED6F8B0000BF087FB054638680BF03E
:1032100083FB1A490BF0D4FB0346D6F8B4001E46D4
:103220000BF07AFB29460BF0C1FA014630460BF051
:10323000C7FB0F490BF078FC29460BF0B9FA0BF0ED
:103240009BF9CDF8008002460B460F4807F058F96D
:1032500041460C4809F076FE0B4807F02FF97CE751
:10326000013948E73CB6FF1FD091FF1F3CB7FF1F55
:103270000000C8422888FF1F1F85EB51CDCCCC3DF4
:103280004888FF1FB46A0100F889FF1F5C5A0100DB
:10329000645A010030B5AA48AA4C83B007F00EF971
:1032A000A74807F00BF9A84BA548196807F0FEF8E6
:1032B000A34807F003F9A5480D2109F043FED4F80F
:1032C000AC30012B11D0A24D9D48297800230A2251
:1032D00007F00CF92B78052B4FD8DFE813F0AA0183
:1032E000AF01B401A001A5019B010921994809F092
:1032F00029FE9948FEF7B2FF21690BF0FFFC002878
:1033000040F0C4819448FEF7B1FFE1680BF014FD72
:10331000002840F0CF819048FEF7A8FF05468E4870
:10332000FEF79CFF014628460BF040FA616C0BF05B
:1033300003FD002840F0B9818748FEF7BBFFE16A32
:103340000BF0FAFC002840F0AB818348FEF7B2FF97
:10335000216B0BF0D3FC002840F09D817F4B7E4811
:103360001B68012B00F08681FEF778FF21690BF0C6
:10337000E3FC002840F06C81754D7948022109F08A
:10338000E1FD122007F092FF012800F00D811120CD
:1033900007F08CFF012800F01181724B1B68012B94
:1033A00000F0158102216E486F4C09F0CBFD6F4B88
:1033B0006348196807F07AF8614807F07FF804213C
:1033C0006B4809F0BFFD0B2007F070FF002301469A
:1033D0000A225B4807F08AF80C2007F067FF0023F9
:1033E00001460A22564807F081F8142007F05EFFD4
:1033F000002301460A22524807F078F8152007F00A
:1034000055FF0A22014600234D4807F06FF80621B8
:10341000584809F097FD2368D8074BBF01210121C7
:103420005548564809F08EFD236899074BBF012186
:1034300001215148514809F085FD23685A074BBFC7
:10344000012101214C484D4809F07CFD23681B07F0
:103450004BBF012101214848484809F073FD042170
:10346000474809F06FFD112007F020FF00230146B7
:103470000A22334807F03AF8102007F017FF00231C
:1034800001460A222E4807F031F8122007F00EFFFD
:10349000002301460A222A4807F028F8132007F0E3
:1034A00005FF0A2201460023254807F01FF81821CE
:1034B000344809F047FD344B18880BF02DFA334996
:1034C0000BF07EFA0BF058F8002402460B460094ED
:1034D0001B4807F015F81D212D4809F033FD2D4B31
:1034E00018880BF019FA29490BF06AFA0BF044F826
:1034F00000940B4602461248274C07F001F8274873
:10350000022109F01FFD2B78032B02D023889BB2E8
:103510009BB11721224809F015FD2188084889B27E
:1035200006F0C4FF1D48022109F00CFD2B78032B87
:1035300003D11C4B1B78002B4ED103B030BD00BF14
:10354000F889FF1F3CB7FF1F28B8FF1F745A0100FE
:1035500098B5FF1F845A0100EC91FF1F20B8FF1F90
:10356000B46A0100E891FF1F1CB6FF1FA0B5FF1F42
:103570007C5B0100845B01008C5B0100905B0100BF
:10358000945B01009C5B0100A4B5FF1FCDCCCC3D3A
:10359000B85B010038B6FF1FD891FF1FD85B010050
:1035A000DC5B01009C91FF1F0E214B4809F0CAFC17
:1035B000112007F07BFE01287FF4EFAE47480A2177
:1035C00009F0C0FC464B1B68012B7FF4EBAE1121C8
:1035D000444809F0B7FCE5E60B21434809F0B2FC8A
:1035E000424B4348198889B206F060FF11214148D7
:1035F00009F0A8FC404B3E48198806F057FF3F4BA6
:103600001B78002B65D13E48192103B0BDE830403E
:1036100009F098BC07213B4809F094FCADE608216D
:10362000394809F08FFCA8E60B21384809F08AFCDC
:10363000A3E60621364809F085FC9EE607213548B9
:1036400009F080FC99E60721334809F07BFC94E6F9
:103650003248334DFEF70AFEE1680BF04FFB0028BD
:103660003FF48BAE2B78052B0BD10A212D4809F0A6
:1036700069FC82E6FEF7F2FD616A0BF05DFBF0B9D2
:10368000274D2948082109F05DFC76E60F212748DF
:1036900009F058FC36E60D21254809F053FC5DE69B
:1036A0000C21244809F04EFC4FE61121224809F074
:1036B00049FC41E60E21214809F044FC2BE6162185
:1036C0001F48174D09F03EFC16480A2109F03AFC44
:1036D00053E61C481D2198E74C5B01005C5B010030
:1036E000E891FF1F685B0100F45B01003AB6FF1F21
:1036F000F889FF1F005C0100B0B5FF1FA6B5FF1FD2
:10370000145C0100445B0100385B0100245B010094
:10371000145B01001C5B0100305B0100EC91FF1F9A
:1037200098B5FF1FFC5A0100085B0100905A010088
:10373000D45A0100C45A0100B05A0100A05A010035
:10374000E45A0100305C01002DE9F047B54CD4F893
:103750008060012E8CB000F04481032E5CD0DFF835
:10376000C882B24FB24EE36FB248012B09BF316835
:10377000316801F10041316006F044FC3B68002BE8
:1037800040F01581AB4806F011FC3B68C8F800001A
:103790000546002B40F0FB80D4F88030012B00F070
:1037A000BA80A54928460BF0C7FA30B9A349284684
:1037B0000BF0A4FA002800F0E081DFF884A2DFF823
:1037C0008492DAF800300A930A98D9F800309E4FB4
:1037D000C01A0BF09DF829460BF0F2F89B490BF04C
:1037E000A3F99A490BF0A0F939680AF0E1FFDAF879
:1037F00000300993099B3860C9F80030D4F8B8004C
:103800000BF08AF829460BF0DBF80023C8F800001B
:1038100033600CB0BDE8F0878D4D8E4F2A68DFF81D
:103820000882D2F8840001230F213B6005F08AFD55
:103830003B687E4F012B3B6800F02C81002B40F051
:10384000AF812B68DFF81092D3F88400436B1E69B8
:10385000B6B2C9F8006005F0BDFAB4F8A62040F68B
:10386000E44306FB03F3B3FBF0F0801A00B20BF065
:1038700053F87A490646D4F898000BF0A1F80146AF
:1038800030460BF051F9D9F80030694E632B3060A7
:1038900000F37A81002333603B68002B3FF463AF71
:1038A00002216F4809F04EFB2B68D9F80050D3F87D
:1038B000840040F6E44303FB05F505F08BFAB5FB05
:1038C000F0F00BF025F80546B4F8A6000BF024F84C
:1038D000014628460AF06AFF0AF04EFE022502461B
:1038E0000B4600955F4806F00BFE29465C4809F040
:1038F00029FB30680AF040FE009502460B46594805
:1039000006F0FEFD2946584809F01CFB294654489C
:1039100009F018FB27E74F4B1B68012B00F075815E
:10392000022B7FF46BAFD4F8A07038460AF0F4FF96
:1039300029460BF0E3F940B978420AF0EDFF294639
:103940000BF0FAF9002800F0CE81DFF8F4A0DFF8E0
:10395000F490DAF8003007930798D9F800303A4F1E
:10396000C01A0AF0D5FF29460BF02AF837490BF0A8
:10397000DBF836490BF0D8F839680AF019FFDAF8A5
:1039800000300693069B3860C9F8003036E70AF02D
:10399000F3FD0B46022102460091324806F0B0FDCD
:1039A0003248042109F0CEFAD8F80050F4E6214854
:1039B00006F0FCFA0AF0E0FD0B46022102460091F7
:1039C000284806F09DFD0321294809F0BBFAD4F8E8
:1039D000A010244806F06AFD0321254809F0B2FA38
:1039E000D0E6DFF84480D4F8A070D8F8005038460C
:1039F0000AF092FF29460BF09FF900283AD078424E
:103A00000AF08AFF014628460BF096F990B3104D54
:103A1000104F2B683E60D3F884000F2105F092FC14
:103A200006E700BF3CB7FF1F2CB6FF1F30B6FF1FD5
:103A3000C491FF1F6CB6FF1F0000FA430000FAC3D9
:103A400038BAFF1F60B6FF1FE491FF1F00007A44E1
:103A5000DC91FF1F7488FF1F30B8FF1F9175DD36A2
:103A6000B46A0100F889FF1F8C5C0100905C0100C2
:103A7000F45701009F4FA04D02233B602B680E219D
:103A8000D3F8840005F05EFC3B689C4F012B3B683B
:103A90007FF4D4AE002B40F0E5802B68DFF8609215
:103AA000D3F88400436B1E69B6B2C9F8006005F014
:103AB00091F9B4F8A43040F6E44A0AFB06F6B6FBE6
:103AC000F0F6F01A00B20AF027FF8E490646D4F845
:103AD0009C000AF075FF014630460BF025F82B6874
:103AE000894E0246D3F88400D9F8003032600AFBD0
:103AF00003FA05F06FF9B4F8A420BAFBF0F31BB297
:103B00009B1A002BB4F8C620B8BF5B429A42C4BFD0
:103B1000002333603B68002B3FF425AE02217B4835
:103B200009F010FA2B68D9F80050D3F8840040F659
:103B3000E44303FB05F505F04DF9B4F8A410B5FB1B
:103B4000F0F52DB2691A724806F0B0FC02216F48F8
:103B500009F0F8F930680AF00FFD022502460B461D
:103B600000956B4806F0CCFC03216A4809F0EAF99D
:103B70002946664809F0E6F9F5E5674B1B680B93A3
:103B8000664B0B9A1A6039E62B68D3F8840005F06F
:103B900021F9D9F8003064389842FFF47BAE7BE617
:103BA0005B48DFF85C9106F089FC0C215C4809F069
:103BB000C9F95C480C2109F0C5F92B683A68D3F8BB
:103BC0008400436B1E69B6B2C9F80060002A3FF456
:103BD00042AE05F0FFF840F6E442002306FB02F295
:103BE000B2FBF0F10A224A4806F080FC0221474865
:103BF00009F0A8F9B4F8A610454806F057FC2B6860
:103C0000D9F80060D3F8840025E6474928460BF030
:103C100093F828B9454928460BF070F800285BD086
:103C2000DFF8F4A0DFF8F490DAF800300493049899
:103C3000D9F800303E4FC01A0AF06AFE29460AF051
:103C4000BFFE3C490AF070FF3A490AF06DFF39683F
:103C50000AF0AEFDDAF800300393039B3860C9F830
:103C60000030CBE52A48DFF8989006F027FCD4F81E
:103C70008030012B0CBF304830480B2109F062F92D
:103C800028480C2109F05EF92A683B68D2F88400C4
:103C9000426B1669B6B2C9F80060002B3FF407AF5B
:103CA00005F098F840F6E44306FB03F30A22B3FB61
:103CB000F0F10023164806F019FC0121204809F014
:103CC00041F9B4F8A410124806F0F0FB2B68D9F8BB
:103CD0000060D3F88400EAE60F4B1B6805930F4B96
:103CE000059A1A608AE50C4B1B6808930B4B089ADF
:103CF0001A6083E57488FF1FDC91FF1F30B6FF1F39
:103D000030B8FF1F9175DD36C491FF1FB46A010002
:103D1000F889FF1F785C010038BAFF1F60B6FF1FEB
:103D20007C5C0100685C01000000FA430000FAC3FB
:103D3000E491FF1F00007A44505C01005C5C0100CC
:103D40004C6901002DE9F047984A994D12682B689B
:103D5000134386B046D1974E33680393039BB3F564
:103D60007A6F04D9944C2368002B00F018813368D3
:103D70000493049A914C41F294139A4200F2088100
:103D800033680593059A41F288339A4200F2BD8068
:103D9000D4F888308A4E8B4FDFF82C82012B2AD141
:103DA0008A48FEF75BFA8A490AF00AFE0BF00AF825
:103DB000A56F236F626FE16E009580B2FEF7C2FFC0
:103DC000256ED4F85CA005FB00F00AFB00F000EBC8
:103DD000800040000AF0A0FD7E490AF0A5FE814661
:103DE00038600DE0754C764E764FDFF8DC81D4F804
:103DF0008830012BD4D0D7F80090256ED4F85CA081
:103E00000AFB05F54FF47A7005FB00F00AF084FD1B
:103E10007049054648460AF0D3FD29460AF084FE5B
:103E20006D490AF0CDFD0AF0A7FF6328306047DD39
:103E3000684928460AF078FE64233360D8F80030D9
:103E40003860002B44D0D4F88030012B43D0032BB2
:103E50004ED0022B54D00221604809F073F8604B19
:103E600018680AF089FB022402460B4600945D485C
:103E700006F046FB21465C4809F064F821465748A5
:103E800009F060F83168574806F010FB06215748E2
:103E900009F058F838684F490AF092FD0AF06CFBB7
:103EA000009402460B464F4806F02AFB0321504877
:103EB00009F048F84B4806B0BDE8F04706F0FEBAF6
:103EC0000028BCBF00233360D8F80030002BBAD1E3
:103ED00006B0BDE8F087474B1B68012B0CBF464876
:103EE00046480A2109F02EF8D4F88030032BB0D1CF
:103EF0004348102109F026F8D4F88030022BAAD1CB
:103F00000721404809F01EF8A5E706213E48DFF8E2
:103F1000B88009F017F8334806F0D0FA2B48FEF7BE
:103F20009DF92B49666F276F0AF04AFD0AF04AFF98
:103F30003246A66FE16E00963B4680B2FEF702FF66
:103F40001F4E236E306003FB00F0E36D1D4F03FB3B
:103F500000F000EB800040000AF0DEFC1D490AF092
:103F6000E3FDD8F80030386001222A60002B3FF4CE
:103F70003EAF0221194808F0E5FF1A4806F09EFA04
:103F80005921224808F0DEFF164806F097FA2EE77E
:103F9000E26C94F848100D48FEF76EF9F0E60B4815
:103FA000FDF79EFB01232360E1E600BFC891FF1FE0
:103FB000CC91FF1F38BAFF1F38B7FF1F3CB7FF1F58
:103FC0002888FF1FE491FF1F4888FF1FEC91FF1F07
:103FD00000007A44E4388E3E0000C842B46A010012
:103FE0002CB6FF1FF889FF1F8C5C0100305D0100BB
:103FF000385D01007488FF1FFC5C0100085D010052
:10400000145D0100285D0100985C0100A05C0100C6
:1040100030B5112083B007F049F9012804D01220EF
:1040200007F044F9012822D10121152007F018F9E1
:104030002B4B2C4A2C4C1B682C4D116801930222EF
:10404000D4F88C302A60019A0B44934208D8D4F8F3
:1040500094000AF061FC264B19680AF04FFED0B1BB
:1040600001210C2003B0BDE8304007F0F9B8002171
:104070000B2007F0F5F800210C2007F0F1F80021E3
:10408000152007F0EDF81B49184B0120002208709D
:104090001A6003B030BD01210B2007F0E1F894F85D
:1040A000CC300324012B2C6014D0122007F0FEF832
:1040B000012808BF0F4B4FF0110008BF1C7007F01C
:1040C000F5F8012806D000210C2003B0BDE83040EF
:1040D00007F0C6B8074B02221A700021F4E700BFB0
:1040E00038BAFF1FBC91FF1F3CB7FF1F18B6FF1F58
:1040F0002CB6FF1F98B5FF1FF0B5754E754C336891
:104100002568AB4287B02CD013F001014AD013F0E0
:1041100002015ED013F0040150D0DA070FD52268F7
:10412000D7070CD46C4D2A68002A00F0AE806B4B88
:104130001B680193019B934200F29A8033689D07AC
:1041400012D4590720D5226852070BD4644F3A681D
:10415000002A5ED0614B1B680593059B934276D87D
:104160003568A5B107B0F0BD226890073DD45D4D1C
:104170002A68002A3CD0594B1B680393039B9A4240
:1041800058D333685907DED41D46002DEAD129469D
:10419000162006F0E9FE2946172007B0BDE8F040DA
:1041A00006F0E2BE162006F0DFFE2268336802F059
:1041B000FE0213F002012260ACD10AE0052006F0F5
:1041C000D3FE2268336802F0FB022260DA07B6D51C
:1041D000A5E7172006F0C8FE2268336802F0FD024A
:1041E00013F00401226098D1E8E75B07ACD4B9E78B
:1041F0003D4B1B68002B55D1FF21172006F0B4FE64
:10420000364B3A491A680292029A09680A442A60AF
:10421000B2E7354B1B68002B4FD1FF21052006F07C
:10422000A3FE2E4B31491A680492049A09680A4485
:104230003A6090E72E4B1720D3F8901006F094FECA
:104240002368002243F0020323602A6099E7284B89
:104250000520D3F8901006F087FE23683568002209
:1042600043F0040323603A60002D7FF47BAF8EE7B8
:104270001F4B1620D3F8901006F076FE236800221C
:1042800043F0010323602A6058E7FF21162006F05F
:104290006BFE124B15491A680092009A09680A448D
:1042A0002A6045E7134806F009F90C21124808F086
:1042B00049FE104806F002F99EE70E4806F0FEF8A7
:1042C0000C210E4808F03EFE0A4806F0F7F8A4E775
:1042D00018B6FF1F1CB6FF1F20B6FF1F38BAFF1FFE
:1042E00028B6FF1F24B6FF1F4888FF1F6488FF1FE2
:1042F0003CB7FF1FF889FF1F3C5D01004C5D0100CA
:104300002DE9F84F534EDFF850A13068DFF84C919B
:10431000534D00220F2104F007FD0123CAF800309D
:10432000504800232221C9F8003008F00BFED9F8CC
:104330000030132B21DC4C4F40F6E4483368B5F8CD
:10434000A4B0D3F88400436B1C6904F043FDA4B20D
:10435000012108FB04F4B4FBF0F43846A344A5F8AB
:10436000A4B008F0EFFD642007F00AF8D9F8003097
:104370000133132BC9F80030E0DDB5F8A4303B4918
:104380003B48A1FB03215B1A01EB5301C1F30F1161
:10439000A5F8A41006F08AF81D21364808F0D2FDD1
:1043A0000221354808F0CEFD314806F087F8002399
:1043B000C9F8003033680E21D3F8840004F0C2FF3E
:1043C00002232848CAF80030222108F0BBFDD9F8A2
:1043D0000030132B22DCDFF8908040F6E44733688E
:1043E000B5F8A6A0D3F88400436B1C6904F0F2FC76
:1043F000A4B2012107FB04F4B4FBF0F44046A2444C
:10440000A5F8A6A008F09EFD642006F0B9FFD9F833
:1044100000300133132BC9F80030E0DDB5F8A630C9
:1044200012491348A1FB03215B1A01EB5301C1F3AD
:104430000F11A5F8A61006F039F81D210F4808F055
:1044400081FD0D48022108F07DFDBDE8F84F0848C8
:1044500006F034B8DC91FF1F7488FF1F40B8FF1FBF
:104460003CB7FF1F5C5D0100805D0100876118861D
:10447000F889FF1F845D0100B46A0100A45D01009A
:104480002DE9F843BE4BBF4CBF4D1B68A86D40F2F1
:10449000513108222160E271002B40F06D810AF059
:1044A0003BFAA96906460AF08BFAB8490AF088FA7D
:1044B0000AF088FCC2B22272B54AE969C0F3072348
:1044C000637213886381B34B30461B88A3810AF063
:1044D00077FAAE490AF074FA0AF074FCA949034667
:1044E000AD48E38105F080FAAC4AAB481368128806
:1044F000228103EB830308265B00A94A237340F261
:10450000553133411288216063739E4962810023D3
:10451000E381E67105F068FAD5F8BC30A148E67190
:1045200040F25632072B226004D095F8CE30012B92
:1045300040F00E81FDF79CFE94490AF041FA0AF022
:1045400041FC034697482372FDF792FE8F490AF01B
:1045500037FA0AF037FCC0F30723934A93491068EF
:1045600063720AF0E1FA0AF007FC03468D486381A2
:10457000FDF7A0FE85490AF023FA0AF0FDFB034689
:1045800088482373FDF796FE80490AF019FA0AF06D
:10459000F3FB40F3072000277A4960737E48E781E8
:1045A00005F022FA022006F0EBFE814A814B1268E8
:1045B0001B68A260082640F25A327249764822608F
:1045C000E360E67105F010FA40F25E3323607A4B47
:1045D0006C491A6870485B68A260E360E67105F098
:1045E00003FA022006F0CCFE4FF45C732360734B99
:1045F00064491A6868485B68A260E360E67105F088
:10460000F3F9022006F0BCFE40F2733365482360E4
:10461000E671FDF723FE6A490AF0D2F90AF0D2FBEF
:1046200020726048FDF71AFE65490AF0C9F90AF0E0
:10463000C9FBC0F3072060725A48FDF717FE6049B6
:104640000AF0BEF90AF0BEFBA0725648FDF70EFE56
:104650005B490AF0B5F90AF0B5FBC0F30720E07238
:104660005048FDF787FE57490AF0A2F80AF0AAFB66
:1046700020734C48FDF77EFE52490AF099F80AF083
:10468000A1FBC0F3072060734648FDF771FE4D495A
:104690000AF08EF80AF096FBA0734248FDF768FE18
:1046A00048490AF085F80AF08DFBC0F30720354928
:1046B000E073394805F098F9022006F061FE40F2F7
:1046C00079332A6E2360EB6DE67113FB02F3C3F3BB
:1046D000072223723C4B62721B68A3720B2006F008
:1046E000E5FD80460C2006F0E1FD8146142006F031
:1046F000DDFD8500152006F0D9FD45EA490545EAAE
:104700000805324B1F491B7823736DB245EAC0057B
:104710002148E5726773E78105F066F9022006F02B
:104720002FFE40F272331F482360E671FDF798FDBB
:1047300003461C482372FDF793FD40FA06F36372AB
:104740006781E7600F491448BDE8F84305F04CB9AC
:10475000FDF78EFD15490AF033F90AF033FB0346E5
:1047600010482372FDF784FD10490AF029F90AF078
:1047700029FBC0F30723F0E60AF0CEF8696A91E658
:1047800020B8FF1F94B6FF1F3CB7FF1F0000204159
:10479000A4B5FF1F38B6FF1F44B8FF1F2888FF1FAE
:1047A0002C88FF1FEC91FF1F2CB6FF1F0000C84292
:1047B000E091FF1F3CB8FF1F3888FF1F3088FF1FA4
:1047C00000007A44339388431CB6FF1F98B5FF1F3F
:1047D000F0B5D84DD84F83B008F046FB2B68386051
:1047E000042B044600F0AC80092B17D1D34E96F869
:1047F000CD30012B02D9002386F8CD30312C00F0CA
:104800003981712C40F03181002273232A603B6092
:104810002B68002B00F07F8203B0F0BD022B40F02C
:10482000D184A0F13103422B00F21F8101A252F882
:1048300023F000BF9F5200008D500000A7500000E1
:10484000C150000005510000235100003D510000FF
:10485000595100006B4A00006B4A00006B4A00008F
:104860006B4A00006B4A00006B4A00006B4A000074
:104870006B4A00006B4A00006B4A00006B4A000064
:104880006B4A00006B4A00006B4A00006B4A000054
:104890006B4A00006B4A00006B4A00006B4A000044
:1048A0006B4A00006B4A00006B4A00006B4A000034
:1048B0006B4A00006B4A00006B4A00006B4A000024
:1048C0006B4A00006B4A00006B4A00006B4A000014
:1048D0006B4A00006B4A00006B4A00006B4A000004
:1048E0006B4A00006B4A00006B4A00006B4A0000F4
:1048F0006B4A00006B4A00006B4A0000BD5100008B
:104900006B4A00006B4A00006B4A00006B4A0000D3
:104910006B4A00006B4A00006B4A00006B4A0000C3
:104920006B4A00006B4A00006B4A00006B4A0000B3
:104930006B4A0000094800006B4A0000934F0000DA
:10494000A0F13003412B00F2908001A252F823F035
:10495000EB4D0000FD4D0000134E0000CD4E000059
:10496000E94E00005F4F0000794F0000ED4E00005F
:10497000F14E0000F54E00006B4A00006B4A00004B
:104980006B4A00006B4A00006B4A00006B4A000053
:104990006B4A00006B4A00006B4A00006B4A000043
:1049A0006B4A00006B4A00006B4A00006B4A000033
:1049B0006B4A00006B4A00006B4A00006B4A000023
:1049C0006B4A00006B4A00006B4A00006B4A000013
:1049D0006B4A00006B4A00006B4A00006B4A000003
:1049E0006B4A00006B4A00006B4A00006B4A0000F3
:1049F0006B4A00006B4A00006B4A00006B4A0000E3
:104A00006B4A00006B4A00006B4A00006B4A0000D2
:104A10006B4A00006B4A00006B4A00006B4A0000C2
:104A2000274F00006B4A00006B4A00006B4A0000F1
:104A30006B4A00006B4A00006B4A00006B4A0000A2
:104A40006B4A00006B4A00006B4A00006B4A000092
:104A50006B4A00000948000008F042FA002801F300
:104A6000B6862B683C68012B0FD0732C3FF4D0AE78
:104A700003B0F0BD96F8CD30B3FA83F37824012269
:104A80005B092A6086F8CD303C60A4F15203262BE6
:104A9000EBD801A252F823F0D35200006B4A000079
:104AA0006B4A00006B4A00006B4A00006B4A000032
:104AB0006B4A00006B4A00006B4A00006B4A000022
:104AC0006B4A00006B4A00006B4A00006B4A000012
:104AD0006B4A0000516800003F680000015100006F
:104AE000454B00004B6800006B4A00006B4A000019
:104AF0006B4A0000456800006B4A000057680000E0
:104B00006B4A00006B4A00006B4A00006B4A0000D1
:104B10006B4A0000B55200006B4A00006B4A00006F
:104B20006B4A00006B4A00006B4A00006B4A0000B1
:104B3000994C000090B6FF1F54B6FF1F3CB7FF1FF3
:104B400008F092F908F0CCF90028F9D1B24805F044
:104B5000B5FCB14805F0B2FCAF4805F0AFFCAE487B
:104B600005F0ACFCAC4805F0A9FC1321AB4808F0FB
:104B7000E9F9A94805F0A2FC0F21A94808F0E2F9DB
:104B8000A54805F09BFC1021A64808F0DBF9A64BD0
:104B9000A148196805F08AFC9F4805F08FFC142194
:104BA000A24808F0CFF9A24B9B48196805F07EFC9B
:104BB000994805F083FC13219E4808F0C3F99E4BE9
:104BC0009548196805F072FC934805F077FC1221AE
:104BD0009A4808F0B7F99A4B8F48196805F066FCB7
:104BE0008D4805F06BFC0F21964808F0ABF9964B09
:104BF0008948D3F8AC1005F059FC874805F05EFCF5
:104C00001A21924808F09EF9914B8348196805F0E3
:104C10004DFC814805F052FC12218E4808F092F9B3
:104C20008D4B7D48196805F041FC7B4805F046FC3A
:104C300011218A4808F086F9894B7748196805F0F0
:104C400035FC754805F03AFC1D21864808F07AF9D4
:104C5000854B7148196805F029FC6F4805F02EFC5A
:104C60001421824808F06EF9814B1B68012B0BBFA1
:104C7000052105217F48804808F064F9664805F061
:104C80001DFC13217D4808F05DF9634805F016FC12
:104C900004233DE008F0E8F808F022F90446002873
:104CA000F8D15D4805F00AFC5B4805F007FC5A485E
:104CB00005F004FC584805F001FC574805F0FEFBE0
:104CC00015216F4808F03EF9534805F0F7FB5248AC
:104CD00005F0F4FB2C216B4808F034F94E4805F040
:104CE000EDFB2521684808F02DF957494A4891F80D
:104CF000CD1023460A2205F0F9FB474805F0DEFBFC
:104D000013215E4808F01EF9434805F0D7FB09233C
:104D10002B6003B0F0BD5D4C3F4805F0CFFB042194
:104D20005B4808F00FF93C4805F0C8FB10215948D2
:104D300008F008F9384805F0C1FB1321564808F07F
:104D400001F9564B3448196805F0B0FB324805F0BC
:104D5000B5FB1421524808F0F5F82F4805F0AEFBDA
:104D60001E21504808F0EEF82B4805F0A7FB15214E
:104D70004D4808F0E7F8284805F0A0FB1E214B48F5
:104D800008F0E0F8244805F099FB2021484808F095
:104D9000D9F8214805F092FB1921464808F0D2F8CD
:104DA0001D4805F08BFB1221434808F0CBF81A4848
:104DB00005F084FB1921414808F0C4F8164805F0B5
:104DC0007DFB0F213E4808F0BDF8134805F076FB47
:104DD0000D213C4808F0B6F80F4805F06FFB0022A3
:104DE000012322602B6003B0F0BD374A1378012104
:104DF00064244B40296013703C6046E60A4A1368FD
:104E0000B3FA83F3642401215B09296013603C60D9
:104E10003BE6074AF3E700BFF889FF1F2064010063
:104E200034640100446401009CB5FF1F5864010014
:104E300030B6FF1F7064010024B7FF1F84640100B7
:104E400058B6FF1F986401003CB7FF1FA86401001B
:104E5000A0B5FF1FC46401003CB6FF1FD864010069
:104E6000A091FF1FEC6401004C88FF1F0C6501003E
:104E700034B6FF1F246501002C650100405E01006F
:104E8000E8630100E85D0100185E01004888FF1F2B
:104E9000F0620100F86201000C6301005488FF1FFA
:104EA0002063010038630100586301007063010052
:104EB00090630100B4630100D0630100E46301006A
:104EC00000640100106401009C91FF1FA94B1A6847
:104ED0000121002A0CBF0A46002229601A6041F015
:104EE000FB8364243C60D0E5A34A88E7A34A86E7B5
:104EF000A34A84E701232B6007F0F2FF002801F3A7
:104F0000C583A04B18680428C4BF02221A602B680E
:104F10006424092B3C6018D0082B3FF47DAC072B90
:104F20003FF47AACFBE101232B6007F0D9FF0028A6
:104F300001F3B383944B18680128C4BF00221A60A0
:104F40002B686422092B3A60E6D1904B93F8CD2070
:104F5000012A7FF661AC002283F8CD205CE48B4E01
:104F6000D6F8AC30B3FA83F3642401225B092A60DB
:104F7000C6F8AC303C6088E5012385482B60FBF720
:104F8000EBFE2B68834A6424092B10603C60C3D17C
:104F9000DBE77E4ED6F8803001221344042B2A60D2
:104FA000A8BF00236322C6F880303A6001E007F012
:104FB0005BFF07F095FF0028F9D1774805F07EFAEE
:104FC000754805F07BFA744805F078FA724805F0E8
:104FD00075FA714805F072FA1F21704807F0B2FFA8
:104FE0006D4805F06BFA1E216D4807F0ABFF6A486B
:104FF00005F064FA6B481A2107F0A4FFD6F8803058
:10500000022B01F09583032B01F08983012B01F022
:1050100098836548092107F095FF5F4805F04EFA2F
:105020001521624807F08EFFF16F5B4805F03EFAEC
:10503000594805F043FA1D215D4807F083FFD6F873
:105040008810554805F032FA534805F037FA1D210B
:10505000584807F077FFD6F8B8104F4805F026FA01
:105060004D4805F02BFAD6F8803023F00202012AD1
:1050700001F09482022B01F0958313214E4807F032
:1050800061FF454805F01AFA022341E63F4ED6F883
:105090008830B3FA83F35B090122C6F888306323B2
:1050A0002A603B6085E701232B6007F019FF002889
:1050B00001F3E482354E012263232A603B6078E7E6
:1050C00001232B6007F00CFF002807DD32482F4E2C
:1050D00005F052FB09F020FCC6F89C002B68632207
:1050E000072B3A603FF498AB062B00F03A86052B6D
:1050F0003FF492AB032B01F07C81012B7FF48CAB4E
:10510000224E56E701232B6007F0EAFE0028E5DD7A
:1051100021481E4E05F030FB09F0FEFBC6F8980052
:10512000DCE701232B6007F0DBFE0028D6DD1A4800
:10513000164E05F021FBA6F8C600CFE7134ED6F8B1
:10514000843001221344052BA8BF13462A60632232
:10515000C6F884303A602CE701232B6007F0C0FECC
:105160000028A7DD0C48094E05F006FBC6F8A00094
:10517000A1E700BF24B7FF1F58B6FF1F3CB6FF1FB3
:10518000A091FF1F4C88FF1F34B6FF1F3CB7FF1FC5
:10519000EC91FF1FA0B5FF1FF889FF1F34650100C8
:1051A0005465010074650100EC650100F8650100BB
:1051B0001066010030660100405E0100FFF7A0F8B4
:1051C0002B683C68082B40F09280322C00F08880DD
:1051D000712C3FF419AB312C7FF447AC07F080FE03
:1051E000002800F3DA859E4E96F84810F26C0229EA
:1051F00084BF002186F848109A48FDF73DF8012247
:1052000069232A603B6001E007F02EFE07F068FE8C
:1052100004460028F8D1944805F050F9924805F06A
:105220004DF9914805F04AF98F4805F047F98E4845
:1052300005F044F915218D4807F084FE8A4805F0F1
:105240003DF918218A4807F07DFE23460A2296F888
:105250004810854805F04AF9834805F02FF92821C0
:10526000844807F06FFEF06C834909F0A9FB09F050
:1052700083F900940B4602467B4805F041F9022170
:105280007E4807F05FFE784805F018F913217C4846
:1052900007F058FE744805F011F9082338E5704E00
:1052A000F36FB3FA83F35B090122F36763232A6088
:1052B0003B607EE6E42200216948724C05F058FB11
:1052C0003B6800210122732B296022607FF4A4AA8D
:1052D00022E54FF0E0236C4AC3F80C2DFFF79CBA8F
:1052E00007F0FEFD002800F361852B683C68072B62
:1052F00015D1342C3FF785AA302C7FF7B6AB323C62
:10530000022C01F2FC82DFE814F097000300350163
:1053100007F0E6FD002800F358852B683C68062B53
:1053200040F03E81A4F13103402B3FF69EAB01A239
:1053300052F823F0675B00008F5B0000415B0000C8
:10534000DF5A0000C35A0000A35A0000695A000047
:105350002B5A0000095A00006B4A00006B4A0000FB
:105360006B4A00006B4A00006B4A00006B4A000069
:105370006B4A00006B4A00006B4A00006B4A000059
:105380006B4A00006B4A00006B4A00006B4A000049
:105390006B4A00006B4A00006B4A00006B4A000039
:1053A0006B4A00006B4A00006B4A00006B4A000029
:1053B0006B4A00006B4A00006B4A00006B4A000019
:1053C0006B4A00006B4A00006B4A00006B4A000009
:1053D0006B4A00006B4A00006B4A00006B4A0000F9
:1053E0006B4A00006B4A00006B4A00006B4A0000E9
:1053F0006B4A0000B558000093550000635D000043
:10540000455A00006B4A00006B4A00006B4A0000DE
:105410006B4A00006B4A00006B4A00006B4A0000B8
:105420006B4A00006B4A00006B4A00006B4A0000A8
:105430006B4A00000948000007F052FD00287FF782
:105440006CAF0948064E05F097F909F065FA0F4967
:1054500009F0B6FA01232B60612370643B6019E008
:105460003CB7FF1FEC91FF1FF889FF1FB8630100D5
:10547000545E0100705E010000007A449C5E0100F1
:10548000405E01004888FF1F0400FA056F12833A4E
:1054900007F0EAFC07F024FD04460028F8D185480F
:1054A00005F00CF8834805F009F8824805F006F885
:1054B000804805F003F87F4805F000F81F217E487A
:1054C00007F040FD7B4804F0F9FF1C217B4807F002
:1054D00039FDB06A7A4909F073FA09F04DF8009481
:1054E00002460B46734805F00BF80221754807F099
:1054F00029FD704804F0E2FF2321734807F022FDE4
:10550000706C6F4909F05CFA09F036F800940246B5
:105510000B46684804F0F4FF02216A4807F012FDC8
:10552000644804F0CBFF1921684807F00BFD306C8C
:1055300009F022F802240B46024600945D4804F06C
:10554000DFFF2146624807F0FDFC5A4804F0B6FF31
:105550002221604807F0F6FCB18E564804F0A6FF01
:1055600003215D4807F0EEFC524804F0A7FF072333
:10557000FFF7CEBB07F0B4FC00287FF7CEAE4D4856
:10558000564E05F0F9F801232B606123B0863B608D
:1055900080E707F0A5FC002801F392802B683C68A7
:1055A000052B40F0B480372C00F3EB83302C7FF7D1
:1055B00033A9323C052C01F29181DFE814F05E0141
:1055C00039014901A10006006E01444E96F8D83019
:1055D0000122B3FA83F32A605B096B2286F8D83084
:1055E0003A6001E007F040FC07F07AFC0028F9D1AE
:1055F000304804F063FF2F4804F060FF2D4804F0AA
:105600005DFF2C4804F05AFF2A4804F057FF21217F
:10561000334807F097FC274804F050FF1521314824
:1056200007F090FCD6F88C10224804F03FFF0221CE
:105630002D4807F087FC1F4804F040FF1E212B482F
:1056400007F080FCD6F894101A4804F02FFF0321CD
:10565000274807F077FC174804F030FF2121254840
:1056600007F070FCD6F89010124804F01FFF1148A4
:1056700004F024FF2021204807F064FCD6F8B01085
:105680000C4804F013FF0B4804F018FF21211B48BD
:1056900007F058FCD6F8B410064804F007FF054898
:1056A00004F00CFFD6F8AC30012B01F05B80052331
:1056B000FFF72EBBF889FF1FF86001001861010099
:1056C00000007A449C5E0100386101005C610100C9
:1056D00054600100786101009C6101003CB7FF1F2C
:1056E000A0610100C4610100CC5F0100DC61010028
:1056F000785C0100FC61010020620100446201004D
:1057000007F0EEFB002800F36D832B683C68032B49
:105710007FF4A9A9A4F13003422B3FF6A6A901A268
:1057200052F823F089640000D5640000B5640000DD
:10573000836500006965000049650000F5640000AC
:105740007364000055640000356400006B4A00007B
:105750006B4A00006B4A00006B4A00006B4A000075
:105760006B4A00006B4A00006B4A00006B4A000065
:105770006B4A00006B4A00006B4A00006B4A000055
:105780006B4A00006B4A00006B4A00006B4A000045
:105790006B4A00006B4A00006B4A00006B4A000035
:1057A0006B4A00006B4A00006B4A00006B4A000025
:1057B0006B4A00006B4A00006B4A00006B4A000015
:1057C0006B4A00006B4A00006B4A00006B4A000005
:1057D0006B4A00006B4A00006B4A00006B4A0000F5
:1057E0006B4A00006B4A00001F640000096400005F
:1057F000F3630000DD630000C7630000676300001F
:1058000047630000A56300006B4A00002D630000A1
:10581000594A00006B4A00006B4A00006B4A0000C6
:105820006B4A00006B4A00001F630000F75D000038
:1058300007F056FB00287FF768AFB248B24E04F07D
:105840009BFF01232B606B23C6F890003B60CBE6E7
:1058500007F046FB00287FF758AFAA48AA4E04F08D
:105860008BFFAA4BC6F8B00002221A60FDF7FAFBC4
:1058700001226B232A603B60B6E607F031FB00286B
:105880007FF743AF9F48A04E04F076FF01232B60C3
:105890006B23C6F894003B60A6E69B4E96F8CC308E
:1058A00001229B1A2A6018BF01236B2286F8CC3094
:1058B0003A6099E607F014FB00287FF76FAE914835
:1058C000914E04F059FF00EB800043000122A6F83E
:1058D000663065232A603B6001E007F0C5FA07F0F7
:1058E000FFFA04460028F8D1864804F0E7FD854811
:1058F00004F0E4FD834804F0E1FD824804F0DEFD9D
:10590000804804F0DBFD1121814807F01BFB7D4836
:1059100004F0D4FD28217F4807F014FBB0697E49CC
:1059200009F04EF808F028FE009402460B46754830
:1059300004F0E6FD0221794807F004FB714804F009
:10594000BDFD1621764807F0FDFA306A724909F06C
:1059500037F808F011FE00940B460246694804F03F
:10596000CFFD02216D4807F0EDFA664804F0A6FD70
:10597000D6F8BC30002B34DD1D216A4807F0E2FA6E
:10598000B6F8640008F0C8FF674909F019F808F094
:10599000F3FD022402460B465A48009404F0B0FD81
:1059A0000121624807F0CEFA564804F087FD1F2116
:1059B0005F4807F0C7FAB6F8680008F0ADFF5A492B
:1059C00008F0FEFF08F0D8FD009402460B464D4853
:1059D00004F096FD5548012107F0B4FA494804F057
:1059E0006DFD5448112107F0ADFAD6F8BC30072BF5
:1059F00000F2E580DFE813F0A101A6019C01B001EF
:105A0000AB0197019201DF0007F06AFA00287FF7E7
:105A1000C5AD3C483C4E04F0AFFE08F07DFF0123CD
:105A20002B606523B0633B6059E7374E96F8CC3066
:105A3000012B00F08F860123652286F8CC302B6085
:105A40003A604CE707F04CFA00287FF7A7AD2E4EDE
:105A500096F8CE300122B3FA83F32A605B096522FF
:105A600086F8CE303A603AE707F03AFA00287FF736
:105A700095AD2448244E04F07FFE4FF47A7300FB6A
:105A800003F32D48736003F0C7FC002300932B4AF7
:105A90007168294803F0DEFD012265232A603B601E
:105AA0001DE707F01DFA00287FF778AD1548164E60
:105AB00004F062FE01232B606523C6F8C0003B6042
:105AC0000DE7114ED6F8BC3001221344082B2A6092
:105AD000A8BF00236522C6F8BC303A60FFE607F095
