:1000000000800020BD01000061AF000019AF0000BA
:1000100019AF000019AF000019AF000019AF0000C0
:1000200019AF000019AF000019AF000061AF000068
:1000300061AF000019AF0000F5D40000F9D4000052
:1000400061AF000061AF000061AF000061AF000070
:1000500061AF000061AF000061AF000061AF000060
:1000600061AF000061AF000061AF000061AF000050
:1000700061AF000061AF000061AF000061AF000040
:1000800061AF000061AF000061AF000061AF000030
:100090006992000061AF000061AF000061AF000035
:1000A00061AF000061AF000061AF000061AF000010
:1000B00061AF000089A8000095A8000099A8000081
:1000C000A5A80000A9A80000ADA8000061AF00002D
:1000D00061AF000061AF000061AF000061AF0000E0
:1000E00061AF000061AF000061AF000061AF0000D0
:1000F00061AF000061AF000061AF000025BE0000ED
:1001000061AF000039C5000061AF000061AF0000C1
:1001100061AF000061AF000061AF000061AF00009F
:1001200061AF000061AF000061AF000061AF00008F
:1001300061AF000061AF000061AF000061AF00007F
:1001400061AF000061AF000061AF000061AF00006F
:1001500061AF000061AF000061AF000061AF00005F
:1001600061AF000029C8000061AF000061AF00006E
:1001700061AF000061AF000061AF000061AF00003F
:1001800061AF000061AF000061AF000061AF00002F
:1001900061AF000061AF000061AF000061AF00001F
:1001A00061AF000061AF000061AF000061AF00000F
:1001B00061AF000061AF000061AF0000564B4CF230
:1001C000205210B51A804DF628121A8000BF00BFC9
:1001D0000AF0CAFE514B4FF010621A60504A9A6002
:1001E000504ADA60504A136813F4807304D14F49BF
:1001F0000B604FF4A85313604D4B1A78110703D5C9
:100200001A7842F008021A704A4B4B492A221A7097
:100210004A4A4B4B8B4204D252F8040F43F8040B6A
:10022000F8E7484B484900228B4202D243F8042B9E
:10023000FAE74649464A002352F8230041F82300D2
:1002400001336F2BF8D1434B434A802103F8011B44
:100250009342FBD1414B3D4A1A60414B8A221A70AE
:10026000A3F5805324225A70A0221A709A7992071B
:10027000FCD59A79D406FCD43A4A937903F00C035E
:10028000082B384BF9D103221A7140225A719A79FE
:100290009006FCD5334A9179324B4906FBD5324A58
:1002A000324911600221516020221A709A7902F0BD
:1002B0000C020C2AFAD12E4B2E4A1A602E4B2F4AD2
:1002C0001A6000225A60072243F8042C2C4AC3F813
:1002D0000C2D62B60BF07EF9144B1B68DA0705D5BE
:1002E00028480AF059FF284B284A1A60284B1B78E7
:1002F0005B0609D5244C254B22689A4204D121483B
:100300000AF04AFF002323600AF034FE10F0F6F8EA
:100310000DF004FCFEE700BF0E20054030800440D5
:10032000823F04000100002B10D0034014D0034092
:1003300002D0074000E007403894FF1FB062010080
:100340002087FF1F3894FF1FA4BFFF1F0082FF1FDD
:100350000000000000E400E05FE400E008ED00E0E1
:100360000050064000400640448004400000030165
:1003700004800440C010050014E000E0FF76010096
:100380000000202014D300631CE00340A5C3945A4E
:1003900000F00740FFFFFFFFFFFFFFFFFFFFFFFF32
:1003A000FFFFFFFFFFFFFFFFFFFFFFFFFFFFFFFF5D
:1003B000FFFFFFFFFFFFFFFFFFFFFFFFFFFFFFFF4D
:1003C000FFFFFFFFFFFFFFFFFFFFFFFFFFFFFFFF3D
:1003D000FFFFFFFFFFFFFFFFFFFFFFFFFFFFFFFF2D
:1003E000FFFFFFFFFFFFFFFFFFFFFFFFFFFFFFFF1D
:1003F000FFFFFFFFFFFFFFFFFFFFFFFFFFFFFFFF0D
:10040000FFFFFFFFFFFFFFFFFFFFFFFFDEF9FFFF23
:1004100010B5054C237833B9044B13B10448AFF33E
:1004200000800123237010BD3894FF1F00000000DE
:10043000AC620100084B10B51BB108490848AFF386
:1004400000800848036803B910BD074B002BFBD0A0
:10045000BDE81040184700BF000000003C94FF1F9B
:10046000AC6201003894FF1F00000000F0B400F1FE
:1004700014060F4F00243146031F00F12C0243F8ED
:10048000044FB34241F8047F4FF0000542F8044F97
:10049000F5D1084B084985640022C56405654565AA
:1004A000456683650366C16580F88420F0BC7047AB
:1004B0000000A040000048430000C8C200230360C1
:1004C00043608360C3600361436183640365436584
:1004D000704700BF2DE9F04190F8844084B00023BC
:1004E00064008DF80530E4B2012380468DF80440A5
:1004F0008DF80630032720460BF04EFF02210DF148
:1005000005000BF053FF8DF8044002F0ADFD30B351
:100510000921C9480CF0C8FE002310222146C74813
:100520000DF076F90121C6480CF0BEFE0023102222
:100530009DF80510C1480DF06BF90121C0480CF081
:10054000B3FE002310229DF80610BC480DF060F9A0
:100550000121BB480CF0A8FEB8480DF045F9022077
:100560008DF804400AF0E8FF02F07EFD002840F01C
:10057000778102AE00240BF053FF002800F02681A3
:10058000042C40F0158101E00BF05EFF0BF048FFFA
:100590000028F9D102F068FD10B1A8480DF024F947
:1005A00098F884406400E4B2202204238DF80440CB
:1005B0008DF805208DF80630032720460BF0ECFE61
:1005C00002210DF105000BF0F1FE8DF8044002F060
:1005D0004BFD30B3092198480CF066FE0023102231
:1005E000214696480DF014F9012195480CF05CFE67
:1005F000002310229DF8051090480DF009F9012103
:100600008F480CF051FE002310229DF806108B48F5
:100610000DF0FEF801218A480CF046FE87480DF0E7
:10062000E3F802208DF804400AF086FF02F01CFD7A
:10063000002840F00B8102AE00240BF0F1FE0028F0
:1006400000F0A980072C40F0988001E00BF0FCFE40
:100650000BF0E6FE0028F9D102F006FD10B1774854
:100660000DF0C2F898F884409DF80B209DF80C30EE
:100670009DF80D00C8F870206400E4B29DF80E10DB
:10068000C8F87430332201238DF80440C8F878008C
:10069000C8F87C108DF805208DF806300327204619
:1006A0000BF07AFE02210DF105000BF07FFE8DF8B4
:1006B000044002F0D9FC30B309215F480CF0F4FD8E
:1006C0000023102221465D480DF0A2F801215C486C
:1006D0000CF0EAFD002310229DF8051057480DF09C
:1006E00097F8012156480CF0DFFD002310229DF8F9
:1006F000061052480DF08CF8012151480CF0D4FD41
:100700004E480DF071F802208DF804400AF014FFF5
:1007100002F0AAFC002840F09E8002AE00240BF0FC
:100720007FFEF8B1042C0FD101E00BF08DFE0BF031
:1007300077FE0028F9D102F097FC10B13F480DF088
:1007400053F804B0BDE8F0810BF07EFE054606F8D4
:10075000010B02F089FC00285AD101340BF060FE35
:100760000028DFD1042CE2D002F07EFC00285ED10C
:10077000013FE6D09DF8044091E70BF065FE054689
:1007800006F8010B02F070FC60BB01340BF048FE70
:1007900000287FF457AF072C3FF45AAF02F064FCF7
:1007A00000284FD1013F3FF45DAF9DF8044004E7BE
:1007B0000BF04AFE054606F8010B02F055FCE0B9C5
:1007C00001340BF02DFE00287FF4DAAE042C3FF448
:1007D000DDAE02F049FC30BB013F3FF4E1AE9DF8D5
:1007E000044088E6E9B20023102214480DF010F806
:1007F000012113480CF058FDC7E7E9B2002310228D
:100800000E480DF005F801210D480CF04DFDD7E71D
:10081000E9B20023102209480CF0FAFF0121084830
:100820000CF042FD99E705480CF0DEFFD4E70348E1
:100830000CF0DAFF9CE700BF80430100D489FF1F62
:100840006849010009480CF0CFFFABE707210848D1
:100850000CF02AFDEFE6072105480CF025FD5CE7CA
:10086000072103480CF020FD83E600BFD489FF1F59
:100870008C43010090F87400704700BF90F870003E
:10088000704700BF90F87800704700BF90F87C0078
:10089000704700BF2DE9F04390F8848085B04FEA9F
:1008A00048085FFA88F8322200238DF804808DF81A
:1008B00005208DF8063003250DF1060748F00109E3
:1008C00048460BF069FD01AE0DF1050002210BF069
:1008D0006DFD8DF804904A463346002050400824B0
:1008E00010F0800F4FEA400018BF80F00700013C75
:1008F000C0B2F5D1BB4202D013F8012FEEE70BF0E6
:100900004BFD02F0B1FB00284AD102208DF8048093
:100910000AF012FE02F0A8FB002840F081800DF1E1
:10092000080800240BF07CFD08B3042C12D101E070
:100930000BF08AFD0BF074FD0028F9D102F094FB56
:1009400010B13A480CF050FF02200AF0F5FD05B056
:10095000BDE8F0830BF078FD08F8010B064602F0C5
:1009600083FB70B901340BF05BFD0028DDD1042C52
:10097000E0D002F079FB78B9013DE5D09DF8048024
:100980009CE7F1B20023102228480CF041FF01211E
:1009900027480CF089FCE5E724480CF025FFEBE73D
:1009A000092124480CF080FC2346102249461F48A8
:1009B0000CF02EFF01211E480CF076FC234610227D
:1009C0009DF8051019480CF023FF012118480CF080
:1009D0006BFC102223469DF8061014480CF018FFFB
:1009E000012113480CF060FC21460DF1070216F8B6
:1009F000014B6140C9B2082311F0800F4FEA410159
:100A000018BF81F00701013BC9B2F5D1B242EED166
:100A1000102206480CF0FCFE04480CF0E5FE74E7DA
:100A2000072105480CF040FC79E700BFD489FF1F7F
:100A300068490100804301008C4301002DE9F04F1B
:100A4000074691B097F8843002205B008DF808309B
:100A50000AF072FD97F8843038465B008DF8083054
:100A6000FFF738FDB86FFC6F7B6F3A6F97F8841013
:100A70008DE81100C94802F0FDFB30223D238DF8BE
:100A800009208DF80A3003260DF10A059DF808901B
:100A900049F0010840460BF07FFC0DF109000221EE
:100AA0000BF084FC8DF80880424602AB00205040D9
:100AB000082410F0800F4FEA400018BF80F00700B4
:100AC000013CC0B2F5D1AB4202D013F8012FEEE7E2
:100AD0000BF062FC02F0C8FA002840F07D82022090
:100AE0008DF808900AF028FD02F0BEFA002840F0C8
:100AF000B9820DF10C0AD14600240BF091FC0028BC
:100B000043D0032C34D101E00BF09EFC0BF088FCA9
:100B10000028F9D102F0A8FA10B1A1480CF064FE47
:100B2000312303268DF809308DF80A609DF808906E
:100B300049F0010840460BF02FFC0DF1090002219D
:100B40000BF034FC8DF80880424602AB0020504088
:100B5000082410F0800F4FEA400018BF80F0070013
:100B6000013CC0B2F5D19D4228D013F8012FEEE729
:100B70000BF06AFC09F8010B804602F075FA68B9BF
:100B800001340BF04DFC0028BBD1032CBED002F089
:100B90006BFA78B9013E7FF479AFC1E75FFA88F16B
:100BA000002310227E480CF033FE01217D480CF01A
:100BB0007BFBE5E77A480CF017FEEBE70BF0ECFB6C
:100BC00002F052FA002840F0C68102208DF8089009
:100BD0000AF0B2FC02F048FA002840F03E820DF123
:100BE0000C0900240BF01CFC002844D0032C35D148
:100BF00001E00BF029FC0BF013FC0028F9D102F006
:100C000033FA10B166480CF0EFFD342201238DF861
:100C100009208DF80A3003269DF8089049F0010854
:100C200040460BF0B9FB0DF1090002210BF0BEFBB1
:100C30008DF80880424602AB00205040082410F096
:100C4000800F4FEA400018BF80F00700013CC0B29F
:100C5000F5D1AB4228D013F8012FEEE70BF0F4FBEF
:100C600009F8010B804602F0FFF968B901340BF076
:100C7000D7FB0028BAD1032CBDD002F0F5F978B922
:100C8000013E7FF453AFC0E75FFA88F100231022E2
:100C900043480CF0BDFD012142480CF005FBE5E79F
:100CA0003F480CF0A1FDEBE70BF076FB02F0DCF91E
:100CB000002840F00F8102208DF808900AF03CFCDB
:100CC00002F0D2F9002840F0D7810DF10C09002480
:100CD0000BF0A6FB002800F08580032C73D101E007
:100CE0000BF0B2FB0BF09CFB0028F9D102F0BCF931
:100CF00010B12B480CF078FD012212238DF8092049
:100D00008DF80A304FF003089DF8084020460BF09C
:100D100043FB02210DF109000BF048FB8DF8084060
:100D200002F0A2F930B309211F480CF0BDFA0023EC
:100D3000102221461A480CF06BFD012119480CF0D5
:100D4000B3FA002310229DF8091015480CF060FD3D
:100D5000012114480CF0A8FA002310229DF80A1073
:100D60000F480CF055FD01210E480CF09DFA0C487F
:100D70000CF03AFD06208DF808400AF0DDFB02F089
:100D800073F9002840F0738103AD00260BF048FB97
:100D9000002840D0162E30D10AE000BF9443010055
:100DA000D489FF1F68490100804301000BF04CFB10
:100DB0000BF036FB0028F9D102F056F91626002870
:100DC0007DD1152035E00BF03FFB09F8010B804683
:100DD00002F04AF900285BD101340BF021FB002816
:100DE0007FF47BAF032C3FF47DAF02F03DF9002888
:100DF0006CD1013E7FF410AF7EE70BF025FB05F8C8
:100E0000010B044602F030F900284DD101360BF0F9
:100E100007FB0028BED1162ECAD002F025F9002803
:100E20004DD1B8F101087FF46FAF701E002840F378
:100E30003582002303AA1C4612F8011B08254C40EA
:100E400014F0800F4FEA440418BF84F00704013DFA
:100E5000E4B2F5D101338342EEDB9DF8218089486D
:100E60004146224602F006FA162EC146A34602D19A
:100E7000A04500F0138197F884108348CDF800B0A6
:100E80004B46324602F024FA002011B0BDE8F08F44
:100E90005FFA88F1002310227C480CF0B9FC012194
:100EA0007B480CF001FA97E7E1B200231022774863
:100EB0000CF0AEFC012176480CF0F6F9A6E7734879
:100EC0000CF092FC162EACD11520B2E76F480CF056
:100ED0008BFC8EE709216F480CF0E6F923461022BF
:100EE00041466A480CF094FC012169480CF0DCF999
:100EF000234610229DF8091064480CF089FC01215A
:100F000063480CF0D1F9102223469DF80A105F487F
:100F10000CF07EFC01215E480CF0C6F921460DF173
:100F20000B0002AA12F8014B6140C9B2082311F06C
:100F3000800F4FEA410118BF81F00701013BC9B2A0
:100F4000F5D19042EED1102250480CF061FC4F4890
:100F50000CF04AFCAFE609214E480CF0A5F92346F7
:100F60001022414649480CF053FC012148480CF03E
:100F70009BF9234610229DF8091044480CF048FCC8
:100F8000012143480CF090F9102223469DF80A10E5
:100F90003E480CF03DFC01213D480CF085F921460E
:100FA0000DF10B0002AA12F8014B6140C9B20823EF
:100FB00011F0800F4FEA410118BF81F00701013B9A
:100FC000C9B2F5D19042EED1102230480CF020FC8D
:100FD0002E480CF009FCF8E509212E480CF064F9C4
:100FE00023461022414629480CF012FC01212848D2
:100FF0000CF05AF9234610229DF8091023480CF0F2
:1010000007FC012122480CF04FF9102223469DF8DD
:101010000A101E480CF0FCFB01211D480CF044F99D
:1010200021460DF10B0002AA12F8014B6140C9B232
:10103000082311F0800F4FEA410118BF81F007012A
:10104000013BC9B2F5D19042EED110220F480CF00D
:10105000DFFB0E480CF0C8FB41E507210E480CF001
:1010600023F9BCE507210C480CF01EF941E50721E6
:1010700009480CF019F987E6072107480CF014F924
:1010800023E600BFC843010014440100D489FF1FB8
:1010900068490100804301008C4301009DF80C3039
:1010A00097F88420B3EB420F7FF4EEAE9DF80D303D
:1010B000012B7FF4E9AE9DF80E30122B7FF4E4AEE5
:1010C0009DF810309DF80F0003EB00200EF00EFE8F
:1010D0008B490EF05FFE796EF86404460FF016F847
:1010E00000B17C66396E20460EF0F2FF00B13C661E
:1010F0003D1FAB4607F1180807F130064FF0000915
:101100009AF806309AF8050003EB00200EF0EEFD89
:101110007C490EF03FFE4BF8040FD8F8001004464F
:101120000EF0D6FF09F101090AF1020A30B1B96ED9
:1011300020460EF0E1FF08B1C8F8004031682046B3
:101140000EF0E4FF08F1040800B13460B9F1060FB5
:1011500006F10406D4D10020B86407F1140455F850
:10116000041F0EF00FFDAC42F9D19DF81D209DF833
:101170001E30B86403EB022002300EF0B7FD624966
:101180000EF0BCFE014661480EF0B8FE60490EF05C
:10119000F7FC60490EF0FEFD05460CF069FE0446C2
:1011A00028460CF065FE5C490CF0D4FE5B49054610
:1011B00020460EF0EFFD5A490EF0E4FC5949044672
:1011C00028460EF0E7FD014620460EF0DBFC014606
:1011D0004FF07E500EF092FE53490EF0D1FC9DF878
:1011E0001F209DF82030386503EB022009300EF0F7
:1011F0007DFD4E490EF082FE014644480EF07EFE13
:1012000043490EF0BDFC43490EF0C4FD05460CF009
:101210002FFE044628460CF02BFE3F490CF09AFEA8
:101220003E49054620460EF0B5FD3D490EF0AAFCAC
:101230003C49044628460EF0ADFD014620460EF01E
:10124000A1FC01464FF07E500EF058FE36490EF0DC
:1012500097FCD7F8808078650446B8F1000F3BD141
:101260003D6D29462E460EF051FF68B32946B86DF4
:101270000EF04CFFE0B1BD65B8F1000F17D008F1DA
:10128000130657F82640F96D20460EF03FFF00B1D7
:10129000FC65274801F0EEFF0120F6E59DF821905E
:1012A000244849464246C34601F0E4FFE3E53E6D6B
:1012B000314620460EF02AFFC8B1F96D20460EF0E7
:1012C00025FF0028E4D1E4E7B96D20460EF000FFC9
:1012D0000028EDD02546CEE708F11306B96D57F882
:1012E000265028460EF0F4FE0028C4D1C9E7314646
:1012F000F86D0EF0EDFE0028CBD03446C8E700BFF5
:101300006B57053B2003C839001601470AD7E33F56
:10131000E17A644000007A4400004040A40D8F3917
:101320005A80473A46A6DB3333938843002C014763
:10133000EC430100C8430100052994BF50F8210087
:10134000002070472DE9F0410B4E8046041F00F14C
:10135000140754F8045F314628460EF0B9FE30B148
:10136000D8F8681028460EF0D1FE00B12E46BC42D7
:10137000EFD13046BDE8F08100002041F8B50027EC
:10138000041F00F1140654F8045F394628460EF095
:10139000BDFE054920B128460EF09AFE00B12F4649
:1013A000B442F0D13846F8BD000090402DE9F04736
:1013B000876E80464FF0000A041F00F114064FF0BC
:1013C000000954F8045F394628460EF09FFE144980
:1013D00050B128460EF07CFE30B1504629460EF042
:1013E000D1FB09F101098246B442EAD1D8F888302C
:1013F000994511D0D8F88C30022BD6BF0133C8F8EC
:101400008890C8F88C3048460EF070FC0146504673
:101410000EF074FDBDE8F0870023C8F88C30F2E7C9
:1014200000007042D0F88800704700BF38B5D0F88F
:10143000803043B9456D046D294620460EF048FEC4
:1014400030B1204638BD133350F82340204638BD14
:101450002C46204638BD00BF38B5D0F8803043B99F
:10146000446D056D214628460EF032FE30B120460F
:1014700038BD133350F82340204638BD2C46204653
:1014800038BD00BF08B5D0F880301BB1133350F819
:10149000230008BD416D006D0EF074FB4FF07C51D0
:1014A0000EF078FC08BD00BF806C704701299ABF20
:1014B000143150F821000020704700BF3E2998BF2A
:1014C00080F88410704700BF90F86C00704700BF30
:1014D000C0F88010704700BF80F86C10704700BFE4
:1014E0008166704770B500F50E550646183500F157
:1014F000280420469034FEF7B9FFAC42F9D106F13A
:10150000B805012428460021FFF7E6FF21462846BA
:101510000134FFF7D3FF3F2C05F19005F2D142F2E1
:10152000A03400250548064A064B35550021306198
:101530007161B261F361304670BD00BF00007A4452
:10154000000048430000C8C238B500F50E551835F4
:1015500000F1B80402E09034AC420AD02046FFF714
:10156000B3FF0028F7D020469034FEF7A7FFAC4227
:10157000F4D138BD2DE9F04142F2A43300F50E5606
:10158000374600228046C2501836243700F1B8048E
:1015900002E09034B4420DD02046FFF795FF0028BA
:1015A000F7D020463D68FFF73DFF90342844B44211
:1015B0003860F1D142F2A43358F80300BDE8F0815D
:1015C0002DE9F04F93B0814642F2A83310460192C4
:1015D00001284FF00002069149F8032000F0038231
:1015E00009F50E532833079309F1B80A4FF0010BA0
:1015F0005046FFF769FFC0B1002634460125314649
:101600005046D9F80870FFF797FE014638460EF0AD
:101610005FFD18B105FA06F31C43E4B20136062E4D
:10162000EDD1019B012B0AD0F4B90BF1010BBBF1F9
:101630003F0F0AF1900ADBD113B0BDE8F08F594695
:10164000BD480CF025F90321BC480BF02DFE2146C6
:1016500000230222B8480CF0DBF80321B8480BF055
:1016600023FE002C00F018814FEA4B03DBB2194631
:10167000029343F001039DF8182003931D4618467A
:1016800033238DF826208DF825308DF824100AF0AC
:1016900083FE0DF1250002210AF088FE09AA0592B9
:1016A0008DF824502A4609AB0DF126060020504043
:1016B000082510F0800F4FEA400018BF80F00700A7
:1016C000013DC0B2F5D19E4202D013F8012FEEE7E2
:1016D0000AF062FE01F0C8FC002840F0EC809DF8A2
:1016E00008308DF82430022009F026FF01F0BCFC00
:1016F000002840F06E810AAB04931F4600250AF0D3
:101700008FFE002844D01E2D35D101E00AF09CFE4A
:101710000AF086FE0028F9D101F0A6FC00283DD190
:10172000019B012B40D0039D9DF808208DF82420BB
:10173000322328468DF825308DF826400AF02CFEFD
:101740000DF1250002210AF031FE8DF8245009AB7D
:101750002A4600205040082510F0800F4FEA400034
:1017600018BF80F00700013DC0B2F5D19E423BD0CA
:1017700013F8012FEEE70AF067FE07F8010B804629
:1017800001F072FC20BB01350AF04AFE0028BAD1F4
:101790001E2DBDD001F068FC0028C1D066480CF0B9
:1017A00023F8019B012BBED1049D0BAF15F8011B43
:1017B0006148002310220CF02BF8012161480BF046
:1017C00073FDAF42F2D103215D480BF06DFDAAE736
:1017D0005FFA88F10023102257480CF019F8012114
:1017E00059480BF061FDCEE70AF0D6FD01F03CFC54
:1017F000002840F0AD809DF808308DF8243002209C
:1018000009F09AFE01F030FC002840F0E780049EC9
:1018100000250AF005FE00B31E2D11D101E00AF0EB
:1018200013FE0AF0FDFD0028F9D101F01DFCD0B92E
:10183000019B012B1DD0079A13681C441460F4E629
:101840000AF002FE06F8010B074601F00DFC38BB5A
:1018500001350AF0E5FD0028DED11E2DE1D001F0B2
:1018600003FC0028E4D034480BF0BEFF019B012BA1
:10187000E1D1049E0BAD16F8011B2F480023102266
:101880000BF0C6FF01212F480BF00EFDAE42F2D146
:10189000079A13682344136027480BF0A5FFC4E69A
:1018A000F9B20023102224480BF0B2FF0121264890
:1018B0000BF0FAFCCCE7092124480BF0F5FC2B4691
:1018C000102203991C480BF0A3FF01211E480BF0C6
:1018D000EBFC2B4610229DF8251017480BF098FFC3
:1018E000012119480BF0E0FC10222B469DF8261030
:1018F00011480BF08DFF012113480BF0D5FC294650
:101900000DF1270009AA12F8013B5940C9B208237A
:1019100011F0800F4FEA410118BF81F00701013B30
:10192000C9B2F5D19042EED1102203480BF070FFFE
:1019300001480BF059FFD2E6D489FF1F644401002F
:10194000684401006C4401006849010080430100C3
:10195000092127480BF0A8FC2B46102203992548A3
:101960000BF056FF012124480BF09EFC2B46102261
:101970009DF825101F480BF04BFF01211E480BF06E
:1019800093FC10222B469DF826101A480BF040FFBE
:10199000012119480BF088FC059829460DF1270212
:1019A00010F8013B5940C9B2082311F0800F4FEAEB
:1019B000410118BF81F00701013BC9B2F5D1824254
:1019C000EED110220B480BF023FF0A480BF00CFF5E
:1019D00011E7072109480BF067FC8CE6072107484F
:1019E0000BF062FC13E703480BF0FEFEF8E500BFC6
:1019F00080430100D489FF1F684901008C43010026
:101A00002DE9F04F824685B04FF0000901238DF893
:101A100000908DF801908DF802304FF003080024FB
:101A200020460AF0B9FC02210DF101000AF0BEFCCB
:101A30008DF8004001F018FB30B30921B5480BF0D8
:101A400033FC002310222146B3480BF0E1FE0121B4
:101A5000B2480BF029FC002310229DF80110AE487B
:101A60000BF0D6FE0121AD480BF01EFC0023102226
:101A70009DF80210A8480BF0CBFE0121A7480BF0FF
:101A800013FCA5480BF0B0FE02208DF8004009F0D1
:101A900053FD01F0E9FA002840F0898001AF3E468D
:101AA00000240AF0BDFC002867D0042C58D101E0C6
:101AB0000AF0CAFC0AF0B4FC0028F9D101F0D4FA0B
:101AC00010B195480BF090FE9DF80430802B40F04B
:101AD0001E819DF80530002B40F019819DF80640CD
:101AE000012C40F014818E4801F0C4FB0AF1B806C5
:101AF000254604E001353F2D06F1900686D030469C
:101B0000FFF7E2FC83460028F4D13B2265F07F0317
:101B100001208DF801208DF802308DF800B00AF018
:101B20003BFC0DF1010002210AF040FC01228DF87E
:101B30000020E84658466B460DF102026040C0B2F4
:101B4000082410F0800F4FEA400018BF80F0070013
:101B5000013CC0B2F5D193422ED013F8014FEDE70E
:101B60000AF072FC06F8010B054601F07DFA98B9FF
:101B700001340AF055FC002897D1042C9AD001F0CA
:101B800073FA10B164480BF02FFEB8F1010800F0B1
:101B9000BE809DF8004043E7E9B2002310225E4872
:101BA0000BF036FE01215D480BF07EFBE0E70721DC
:101BB0005C480BF079FB71E70AF0EEFB01F054FA98
:101BC00000285AD103208DF8009009F0B5FC01F0EF
:101BD0004BFA002840F0968000240AF021FCB0B3B4
:101BE0000A2C27D101E00AF02FFC0AF019FC00288A
:101BF000F9D101F039FA00287FD19DF80430812B0A
:101C00007FF404AF9DF805303B2B7FF4FFAE9DF8C9
:101C100006308035AB427FF4F9AE30460121FFF744
:101C20005BFC0AF50E534048DA690132DA6101F0D3
:101C300021FBEBE60AF008FC07F8010B804601F0F7
:101C400013FA70B901340AF0EBFB0028C8D10A2C52
:101C5000CBD001F009FA002850D1022C7FF7D6AE84
:101C6000CBE75FFA88F1002310222B480BF0D0FD60
:101C700001212A480BF018FBE4E7092125480BF065
:101C800013FB23461022012123480BF0C1FD012143
:101C900022480BF009FB234610229DF801101E4834
:101CA0000BF0B6FD01211D480BF0FEFA1022234671
:101CB0009DF8021018480BF0ABFD012117480BF0FE
:101CC000F3FA21460DF1030218F8014B6140C9B245
:101CD000082311F0800F4FEA410118BF81F007017E
:101CE000013BC9B2F5D14245EED110220A480BF0B2
:101CF0008FFD09480BF078FD64E70A2406480BF0D5
:101D000073FDAAE7072107480BF0CEFA64E705B098
:101D1000BDE8F08F80430100D489FF1F68490100AE
:101D2000704401008C4301007C4401002DE9F04720
:101D300042F29C3284B000230127835082468DF802
:101D400004308DF8053000F1B8088DF806704FEAC0
:101D500047095FFA89F400214046FFF7BDFB2046A2
:101D60008DF804400AF018FB02210DF105000AF07D
:101D70001DFB8DF8044001F077F930B30921494883
:101D80000BF092FA00231022214647480BF040FD49
:101D9000012146480BF088FA002310229DF8051017
:101DA00041480BF035FD012140480BF07DFA00233E
:101DB00010229DF806103C480BF02AFD01213B48FB
:101DC0000BF072FA38480BF00FFD14208DF8044028
:101DD00009F0B2FB01F048F900285DD102AE002401
:101DE0000AF01EFB40B3082C19D101E00AF02CFBCD
:101DF0000AF016FB0028F9D101F036F9002846D187
:101E00009DF808304B4522D00137052009F094FB9E
:101E10003F2F08F190089AD104B0BDE8F0870AF08E
:101E200013FB054606F8010B01F01EF920BB013437
:101E30000AF0F6FA0028D6D1082CD9D001F014F90E
:101E400030BB042CE0DD9DF808304B45DCD19DF81B
:101E50000930002BD8D19DF80A100129D4D19DF862
:101E60000C30002BD0D04046FFF736FB0AF50E535E
:101E7000DA690132DA61C7E7E9B2002310220A48C1
:101E80000BF0C6FC012109480BF00EFACFE708243D
:101E900005480BF0A9FCD4E7072105480BF004FA2C
:101EA0009CE700BF80430100D489FF1F68490100FF
:101EB0008C4301002DE9F04700F50E56354684B0FD
:101EC000804618361C3500F1B80400272046002152
:101ED0009034FFF701FBB4422F60F7D102270DF1D8
:101EE00006064FF07F093C22A5237E217F208DF836
:101EF00005208DF806308DF8041001AD0AF04CFA7B
:101F00000DF1050002210AF051FA8DF804902B46DC
:101F10007F2200205040082410F0800F4FEA40003C
:101F200018BF80F00700013CC0B2F5D1B34202D027
:101F300013F8012FEEE70AF02FFA01F095F80028C8
:101F40005AD17E2364208DF8043009F0F5FA01F0AF
:101F50008BF8002840F090800DF1080A00240AF068
:101F60005FFA20B3082C15D101E00AF06DFA0AF0EF
:101F700057FA0028F9D101F077F8F0B99DF8083048
:101F80007F2B21D0013FAED14046FFF739FD04B091
:101F9000BDE8F0870AF058FA05460AF8010B01F08F
:101FA00063F8F0B901340AF03BFA0028DAD1082CC2
:101FB000DDD001F059F80028E0D032480BF014FCD5
:101FC0009DF808307F2BDDD19DF809303C2BD9D10D
:101FD0009DF80A30A52BD5D19DF80B30572BD1D1C8
:101FE000D2E7E9B20023102226480BF011FC0121B0
:101FF00025480BF059F9D5E7092124480BF054F98D
:10200000234610227F211F480BF002FC01211E48AD
:102010000BF04AF9234610229DF8051019480BF0E1
:10202000F7FB012118480BF03FF9102223469DF8D9
:10203000061014480BF0ECFB012113480BF034F9A7
:1020400021460DF1070215F8014B6140C9B2082382
:1020500011F0800F4FEA410118BF81F00701013BE9
:10206000C9B2F5D1AA42EED1102206480BF0D0FB3E
:1020700004480BF0B9FB64E7072105480BF014F99D
:102080006AE700BFD489FF1F68490100804301004F
:102090008C4301002DE9F04385B04FF07F082022EA
:1020A000FF2381468DF804808DF805208DF80630D9
:1020B00003260DF1060548F0010738460AF06CF9D1
:1020C0000DF1050002210AF071F98DF804703A460D
:1020D00001AB00205040082410F0800F4FEA400070
:1020E00018BF80F00700013CC0B2F5D1AB4202D06E
:1020F00013F8012FEEE70AF04FF900F0B5FF0028C2
:1021000040F0768202208DF8048009F015FA00F084
:10211000ABFF002840F0B2820DF1080800240AF05D
:102120007FF9002843D0042C34D101E00AF08CF967
:102130000AF076F90028F9D100F096FF10B1C148F5
:102140000BF052FB4FF07F0800238DF804808DF8D0
:102150000630032648F0010738460AF01DF90DF154
:10216000050002210AF022F98DF804703A4601AB0D
:1021700000205040082410F0800F4FEA400018BFA4
:1021800080F00700013CC0B2F5D1AB4228D013F873
:10219000012FEEE70AF058F908F8010B074600F0A6
:1021A00063FF70B901340AF03BF90028BBD1042C5D
:1021B000BED000F059FF78B9013EC3D09DF804802D
:1021C00079E7F9B2002310229E480BF021FB012190
:1021D0009D480BF069F8E5E79A480BF005FBEBE743
:1021E0000AF0DAF800F040FF002840F0C081022039
:1021F0008DF8048009F0A0F900F036FF002840F0C7
:1022000038820DF1080800240AF00AF9002846D0A7
:10221000042C37D101E00AF017F90AF001F900287F
:10222000F9D100F021FF10B186480BF0DDFA4FF034
:102230007F082122FF238DF804808DF805208DF87A
:102240000630032648F0010738460AF0A5F80DF1DC
:10225000050002210AF0AAF88DF804703A4601AB95
:1022600000205040082410F0800F4FEA400018BFB3
:1022700080F00700013CC0B2F5D19D4228D013F890
:10228000012FEEE70AF0E0F808F8010B074600F02E
:10229000EBFE70B901340AF0C3F80028B8D1042C61
:1022A000BBD000F0E1FE78B9013EC0D09DF80480BB
:1022B00050E7F9B20023102262480BF0A9FA01217D
:1022C00061480AF0F1FFE5E75E480BF08DFAEBE7B5
:1022D0000AF062F800F0C8FE002840F007810220F2
:1022E0008DF8048009F028F900F0BEFE002840F0C7
:1022F000CF810DF1080800240AF092F8002843D09D
:10230000042C34D101E00AF09FF80AF089F8002883
:10231000F9D100F0A9FE10B14A480BF065FA4FF070
:102320007F0800238DF804808DF80630032648F0DE
:10233000010738460AF030F80DF1050002210AF0D5
:1023400035F88DF804703A4601AB0020504008245F
:1023500010F0800F4FEA400018BF80F00700013CEA
:10236000C0B2F5D19D4228D013F8012FEEE70AF054
:102370006BF808F8010B074600F076FE70B90134DF
:102380000AF04EF80028BBD1042CBED000F06CFE41
:1023900078B9013EC3D09DF8048053E7F9B2002319
:1023A000102228480BF034FA012127480AF07CFF5C
:1023B000E5E724480BF018FAEBE709F0EDFF00F031
:1023C00053FE002851D102208DF8048009F0B4F8A2
:1023D00000F04AFE002840F056810DF10808002464
:1023E0000AF01EF818B3042C14D101E00AF02CF8FE
:1023F0000AF016F80028F9D100F036FE10B11148A5
:102400000BF0F2F942F2A033002209F8032005B0E4
:10241000BDE8F0830AF018F808F8010B074600F051
:1024200023FE98B9013409F0FBFF0028DBD1042C0E
:10243000DED000F019FEA0B9013EE3D09DF8048083
:1024400075E700BFD489FF1F68490100F9B2002376
:10245000102292480BF0DCF9012191480AF024FF88
:10246000E0E78E480BF0C0F9E6E709218D480AF055
:102470001BFF23461022394688480BF0C9F9012179
:1024800087480AF011FF234610229DF80510834863
:102490000BF0BEF9012182480AF006FF1022234604
:1024A0009DF806107D480BF0B3F901217C480AF035
:1024B000FBFE21460DF1070001AA12F8014B614015
:1024C000C9B2082311F0800F4FEA410118BF81F013
:1024D0000701013BC9B2F5D19042EED110226F48FD
:1024E0000BF096F96D480BF07FF96CE709216D4808
:1024F0000AF0DAFE23461022394668480BF088F9C4
:10250000012167480AF0D0FE234610229DF80510ED
:1025100062480BF07DF9012161480AF0C5FE1022E6
:1025200023469DF806105D480BF072F901215C48C6
:102530000AF0BAFE21460DF1070001AA12F8014B7C
:102540006140C9B2082311F0800F4FEA410118BF62
:1025500081F00701013BC9B2F5D19042EED11022C2
:102560004E480BF055F94D480BF03EF9B7E60921FE
:102570004C480AF099FE23461022394647480BF092
:1025800047F9012146480AF08FFE234610229DF8A4
:10259000051042480BF03CF9012141480AF084FE45
:1025A000102223469DF806103C480BF031F901211A
:1025B0003B480AF079FE21460DF1070001AA12F806
:1025C000014B6140C9B2082311F0800F4FEA41016D
:1025D00018BF81F00701013BC9B2F5D19042EED19D
:1025E00010222E480BF014F92C480BF0FDF8FEE5F4
:1025F00009212C480AF058FE234610223946274864
:102600000BF006F9012126480AF04EFE234610225F
:102610009DF8051021480BF0FBF8012120480AF035
:1026200043FE102223469DF806101C480BF0F0F8DC
:1026300001211B480AF038FE21460DF1070001AACE
:1026400012F8014B6140C9B2082311F0800F4FEA24
:10265000410118BF81F00701013BC9B2F5D1904299
:10266000EED110220D480BF0D3F80C480BF0BCF85B
:1026700048E507210C480AF017FEC2E507210A4881
:102680000AF012FE48E5072107480AF00DFEA4E60D
:10269000072105480AF008FE2BE600BFD489FF1F7A
:1026A00068490100804301008C43010038B500F502
:1026B0000E55183500F1B80402E09034AC420AD04F
:1026C0002046FEF701FF0028F7D020469034FEF7A1
:1026D000E1F8AC42F4D138BD2DE9F04F05460023B6
:1026E00045F8B83B00F50E5783B082462C461837A4
:1026F00002E09034A7420AD02046FEF7E5FE00280B
:10270000F7D020469034FEF7C5F8A742F4D1C82090
:1027100008F012FF2C46012604E001363F2E04F19A
:10272000900477D02046FEF7CFFE0028F5D07F48F2
:1027300000F0A0FD31467E4800F09CFD2046FEF7EB
:102740007DF92046FEF7B0FE0CF07AFE02460B46FD
:10275000784800F08FFD2046FEF7F4FD80462046C5
:10276000FEF70CFE834640460CF06AFE8046584653
:1027700089460CF065FE42464B46CDE900016E48A5
:1027800000F078FD00212046FEF790FE01218046F2
:102790002046FEF78BFE834640460CF051FE8046F5
:1027A000584689460CF04CFE42464B46CDE90001A6
:1027B000624800F05FFD2046FEF776FE0146DAF83B
:1027C00000000DF0DFF9CAF800002046FEF72EFEEB
:1027D000DAF818100DF07CFC002840F084802046C8
:1027E000FEF73AFEDAF81C100DF090FC002894D0A9
:1027F0002046FEF71BFE52490DF088FC00288CD0C5
:102800002046FEF729FE01363F2ECAF81C0004F1CF
:10281000900487D1DAF804000DF068FA0146DAF87E
:1028200000000DF06BFBDAF81410CAF80000044643
:102830000DF06CFC08B1CAF81440DAF8101020460C
:102840000DF046FC08B1CAF810400B2008F03EFE1F
:1028500042F2A0331AF80330002853D1002B61D084
:1028600042F2A03301220AF803200023CAF80C30F8
:102870002C4602E09034A74215D02046FEF724FEF5
:102880000028F7D02046FEF779FDDAF80C100DF09D
:102890003DFC0028EED02046FEF770FD9034A742A4
:1028A000CAF80C00E9D1274BCAF8083002E090358D
:1028B000BD4215D02846FEF707FE0028F7D028466F
:1028C000FEF740FDDAF808100DF002FC0028EED00B
:1028D0002846FEF737FD9035BD42CAF80800E9D119
:1028E00003B0BDE8F08F2046FEF7A0FD14490DF0BF
:1028F0000DFC00283FF473AF2046FEF797FDCAF8A1
:1029000018006CE72BB942F2A03300220AF803202A
:10291000ABE70D4800F0C6FC42F2A03300220AF8F3
:102920000320A2E7094800F0D3FC99E78C4B010093
:1029300090440100CC440100E04401000C4501003A
:1029400000008CC20000A040604501002845010045
:1029500042F2A833C05870478068704742F29C33F7
:10296000C0587047C0687047006870474160704742
:10297000F8B500F50E550F461646183500F1B804A7
:1029800002E09034AC420FD02046FEF79DFD0028B7
:10299000F7D020463946FEF79BFD2046314690345D
:1029A000FEF79EFDAC42EFD1F8BD00BF2DE9F0412E
:1029B000274A284B426200F50E5507464FF00008A3
:1029C0000362183500F1B804002602E09034A542F5
:1029D00010D02046FEF778FD0028F7D02046FEF7FD
:1029E00051FD1D490DF092FB80B99034A54206F1CE
:1029F0000106EED142F29C33F858801B0DF076F9B7
:102A0000014640460DF07AFABDE8F0812046FEF717
:102A100039FD014640460DF0B5F880462046FEF7E8
:102A20001BFD396A0DF072FB60B92046FEF7FEFC13
:102A3000796A0DF04DFB0028C8D02046FEF7F6FC61
:102A40007862C3E72046FEF707FD3862EDE700BF76
:102A500000C0794400C079C400008CC2006A70478D
:102A6000406A7047F8B500F50E5507460026183540
:102A700000F1B80402E09034AC420FD02046FEF7DB
:102A800023FD0028F7D02046FEF790FC0146304693
:102A90000DF078F89034AC420646EFD142F29C3308
:102AA000F8580DF023F9014630460DF027FAF8BD2D
:102AB0002DE9F04F06468FB076488B4600F082FB3A
:102AC000744800F07FFB734800F07CFB42F29C33BB
:102AD0003046F2580D92FEF74DFD73680C93074691
:102AE00030680CF0ADFC804630468946FFF7BAFFEF
:102AF00082463046B468F568FFF758FF0CF0A0FC3A
:102B0000CDE90A01214628460DF03AF862490DF058
:102B100041F90CF095FCCDE9080128460CF090FC39
:102B2000CDE9060120460CF08BFCCDE904015046AE
:102B30000CF086FC0D9A0C9BCDE90201CDE90089D1
:102B4000114656483A4600F03DFB524800F03AFB29
:102B5000B83601274FF0000A05E001373F2F06F194
:102B6000900600F08E803046FEF7AEFC0028F4D0D0
:102B70003046FDF77FFE3046FDF780FE3046FDF71C
:102B800081FE3046FDF782FE082145480AF08CFBA5
:102B9000394644480AF07CFE092F75DD022142487F
:102BA0000AF082FB3046FEF77FFC0CF049FC5FFA2E
:102BB0008BF902460B46CDF800903A480AF070FEB9
:102BC00001213A480AF070FB5546002420E0062116
:102BD00037480AF069FB294632480AF059FE0221BB
:102BE00034480AF061FB21463046FEF7A5FB0CF0A5
:102BF00027FCCDF8009002460B462A480AF050FE0A
:102C00000134012129480AF04FFB062C09D0454622
:102C1000092D05F10108DADC012127480AF044FBFF
:102C2000D5E7112125480AF03FFB00213046FEF789
:102C30003DFC0CF005FC022402460B4600941948AA
:102C40000AF02EFE12211E480AF02EFB012130460A
:102C5000FEF72CFC0CF0F4FB009402460B461148E6
:102C60000AF01EFE012117480AF01EFB01370D482D
:102C70000AF0BAFD3F2F0AF1060A06F190067FF42A
:102C800072AF0FB0BDE8F08F01210B480AF00CFBCA
:102C900084E700BF8C4B010000007A440848010023
:102CA000A8480100D489FF1F5C590100B448010005
:102CB000B84801005849010068490100C0480100B6
:102CC000D4480100E84801002DE9F04F83B000F13D
:102CD000B8060C9D884691469A4637464FF0010B40
:102CE00007E00BF1010BBBF13F0F07F1900700F07C
:102CF00088803846FEF7E8FB0028F2D000230A223D
:102D00004146C2480AF084FD012D00F00E810121E8
:102D1000BF480AF0C9FA48460CF092FB002402466C
:102D20000B460094B9480AF0BBFD0121B8480AF0EF
:102D3000BBFA5146B5480AF0ABFD0121B4480AF090
:102D4000B3FA5946B1480AF0A3FD0121B0480AF090
:102D5000ABFA002421463846FEF7EEFA0CF070FB81
:102D60004FF0020E02460B46CDF800E0A7480AF0ED
:102D700097FD012D4FF00101A54804BFA548294644
:102D800001340AF091FA082CE4D100213846FEF70C
:102D90008DFB0CF055FB022402460B4600949B4829
:102DA0000AF07EFD012D00F0E380012198480AF031
:102DB0007BFA01213846FEF779FB0CF041FB0094C9
:102DC00002460B4691480AF06BFD012190480AF03B
:102DD0006BFA02213846FEF769FB0CF031FB022446
:102DE00002460B46009489480AF05AFD0BF1010B8C
:102DF00086480AF0F9FCBBF13F0F07F190077FF41A
:102E000078AF4FF0010B07E00BF1010BBBF13F0F67
:102E100006F1900600F086803046FEF755FB00284C
:102E2000F2D000230A2241467B480AF0F1FC012D32
:102E300000F0B3800121764808F0A0FE48460CF06F
:102E4000FFFA002402460B46009473480AF028FD5E
:102E500001216F4808F092FE51466F480AF018FDB4
:102E600001216B4808F08AFE59466B480AF010FDB4
:102E70000121674808F082FE002421463046FEF713
:102E80005BFA0CF0DDFA022702460B460097624817
:102E90000AF006FD012D4FF001015D4804BF5D48B9
:102EA0002946013408F06AFE082CE6D1002130469C
:102EB000FEF7FCFA0CF0C4FA022402460B4600941A
:102EC00055480AF0EDFC012D00F08A8001215048A0
:102ED00008F054FE01213046FEF7E8FA0CF0B0FA93
:102EE000009402460B464C480AF0DAFC012148489F
:102EF00008F044FE02213046FEF7D8FA0CF0A0FAA2
:102F0000022402460B46009443480AF0C9FC0BF128
:102F1000010B41480AF068FCBBF13F0F06F1900637
:102F20007FF47AAF03B0BDE8F08F294639480AF044
:102F3000BBF948460CF084FA002402460B46009484
:102F400032480AF0ADFC294632480AF0ADF9514644
:102F50002E480AF09DFC29462E480AF0A5F959464C
:102F60002A480AF095FC29462A480AF09DF9F0E61D
:102F7000294628480AF098F929463846FEF796FA75
:102F80000CF05EFA009402460B4620480AF088FCDA
:102F9000294620480AF088F91BE729461D4808F011
:102FA000EDFD48460CF04CFA002402460B46009416
:102FB00019480AF075FC2946164808F0DFFD51460D
:102FC00015480AF065FC2946124808F0D7FD594615
:102FD00011480AF05DFC29460E4808F0CFFD4BE78A
:102FE00029460C4808F0CAFD29463046FEF75EFA2D
:102FF0000CF026FA009402460B4607480AF050FCF3
:103000002946044808F0BAFD74E700BFD489FF1FC1
:10301000EC48010068490100A889FF1F01EBC101CC
:1030200000EB011008B511462830FEF785F9034979
:103030000CF0B0FE0DF0B0F880B208BD00007A448C
:1030400001EBC10100EB011008B511462830FEF775
:103050002DFA0DF0A1F880B208BD00BF014B187029
:10306000704700BFFC87FF1F024B1878B0FA80F052
:1030700040097047FC87FF1F0278002A00F090800B
:1030800070B5034682B00D46252A2AD158785C1CBB
:1030900008B325282FD0732831D0642824D069287C
:1030A00022D066284FD07A2859D0782835D0582891
:1030B0002FD062283ED0422838D06C2814D0632804
:1030C00012D0742857D054285FD00AF071F9627872
:1030D000631C002AD8D1344802B0BDE870400AF021
:1030E00083BB18781C46F0E72B1D29682E481D4627
:1030F0000AF0CEFBEBE710460AF05AF9E7E72E6834
:1031000030460DF0DDFF0146304604350AF0CCF8BC
:10311000DDE7022125480AF0C7F82E1D296822485C
:103120000023102235460AF073FBD0E70221204825
:103130000AF0BAF82E1D29681B48002302223546E2
:103140000AF066FBC3E7073525F007050321D5E93B
:1031500000231548009108350AF0A2FBB7E70735B0
:1031600025F007050021D5E900230F480091083517
:103170000AF096FBABE7296801290EBF0D480E48FF
:10318000012104350AF090F8A1E72B68012B07BF55
:1031900004210A480A48052104350AF085F896E713
:1031A00001480AF021BB00BFD489FF1FF04801008D
:1031B000F4480100F8480100FC4801000049010002
:1031C000084901000FB400B583B004A951F8040BFD
:1031D0000191FFF751FF03B05DF804EB04B07047B5
:1031E00070B51B4B1B4C1B6882B00D460193019BB5
:1031F0002360194604460023164617480A220AF09F
:1032000007FB032115480AF04FF8032C07D8DFE825
:1032100004F01A151002052111480AF045F80221A0
:1032200010480AF041F831462846FFF725FF02B062
:1032300070BD07210C480AF037F8F0E704210B486D
:103240000AF032F8EBE7052109480AF02DF8E6E725
:103250002CBDFF1F5494FF1FD489FF1F644401003D
:10326000284901005849010020490100184901007E
:10327000104901000FB400B5094B187883B020B194
:1032800003B05DF804EB04B0704705AB1A4604992F
:103290000193FFF7A5FF03B05DF804EB04B070479E
:1032A000FC87FF1F0FB4094B00B51B78012B83B0BF
:1032B00004D903B05DF804EB04B0704705AB1A46BF
:1032C000049901930120FFF78BFFF2E7FC87FF1FB2
:1032D0000FB40B4B00B51B78032B83B004D903B09C
:1032E0005DF804EB04B0704705AB1A4604990193EE
:1032F0000320FFF775FF03B05DF804EB04B07047DF
:10330000FC87FF1F30B4074D074C084900232B7082
:10331000236003654365836580F85C300B6030BCD7
:10332000704700BF6094FF1F5C94FF1F5894FF1FFD
:1033300070B5132008F0CAF8A8B1114E114B3588AA
:103340001C6808F0D7F8ADB22C44201A33880E4A16
:10335000C0EB00108000A0F634009BB2B0FBF3F38A
:103360009BB2138070BD074C08F0C4F82368044A70
:10337000C01A80B2108008F0BDF8206070BD00BF98
:1033800086BAFF1F4CBBFF1F64BBFF1F0A4A0B49D5
:10339000106ED36D03FB00F34FF47A7000FB03F063
:1033A000642310B50B600CF0A1FC0549054C0CF032
:1033B000A5FD206010BD00BF94B9FF1F1088FF1F3E
:1033C000E4388E3ED8BAFF1F10B4019C521AA4EB09
:1033D000030412D0401A002C04FB00F002EBD2715F
:1033E00011DB00EB610101FB02F0002891FBF2F11F
:1033F0000B4414DB184610BC704704EBD47003EB8D
:10340000600010BC7047A0EB610000FB02F10029D6
:1034100090FBF2F01844EEDB013010BC7047581EF0
:1034200010BC704710B5074C20460AF0DDF9064B7A
:10343000204619680AF02CFA03210448BDE8104020
:1034400009F032BFD489FF1F0C95FF1F30490100DE
:1034500070B5044608460D460DF032FE236802465C
:10346000294620465B68BDE87040184738B50446D9
:1034700008460D460DF024FE2368024629465B6887
:1034800020469847054620460AF0AEF9284438BD44
:103490002DE9F0415148524C524E534FFFF792FEE6
:1034A000524B5349534A54485960142553491D708F
:1034B000DA60534D1C6100224FF4FA749E619F62E2
:1034C000504E514FD861D9624FF07C504F491D6327
:1034D0009A634F4D9C860C224E4CDE631F644E4E09
:1034E000D8649627022019655D6501214B4D9A65C8
:1034F0005C6200223224C3F8C860A3F866706426B8
:103500004FF49677587058721D625D615D6483F860
:103510004820C3F8A8401E66A3F86A70A3F8647038
:103520003F4D19725A27D965A3F86840DA67C3F886
:103530008000C3F88820C3F89040C3F8B040C3F8B7
:10354000AC20C3F8BC00C3F8C06083F8CD204FF4B2
:103550007A7683F8CE20334C9F6744F62062FF20B2
:10356000C3F89460C3F89850C3F89C40C3F8A020F7
:103570004FF4167441F28832C3F8B40040F61C4888
:1035800040F2D6604FF00A0C41F2040E5527F026A7
:103590000525C3F88410C3F8B810C3F86C80C3F8CD
:1035A00070C0C3F874E0C3F8DC70C3F8E060A3F83F
:1035B000C650A3F8D040A3F8D440A3F8D220A3F873
:1035C000D620C3F88C20A3F8C420A3F8A400A3F845
:1035D000A60083F8D810BDE8F08100BF344901008F
:1035E0000000404033338340CDCCCC3D94B9FF1F25
:1035F00020A1070066668640CDCC4C400000824288
:10360000000020C1000020420000A0409A997940AB
:103610000AD7233D333373409A99993ECDCC4C3E23
:103620000000114400F0C84570B5464C464D47486F
:10363000E66800232B70FFF795F9014630460CF041
:1036400047FD08B104232B704048FFF785F9216935
:103650000CF03EFD18B12B7843F010032B703B4863
:10366000FFF7FCF9E16A0CF051FD18B12B7843F03B
:1036700040032B70002335486B70FFF7F1F9216B85
:10368000314E0CF025FD08B10123737000232F4843
:10369000EB70FFF767F905462C482B4EFFF75CF9F6
:1036A000014628460CF06CFA616C0CF02FFD08B155
:1036B0000123F370264D254800232B70FFF752F9A4
:1036C000A16A0646E0680CF05BFA014630460CF051
:1036D0001DFD08B104232B701C48FFF73DF9A16ABA
:1036E000064620690CF04EFA014630460CF0F0FC1C
:1036F00018B12B7843F010032B701448FFF7AEF984
:10370000216C0646E06A0CF03BFA014630460CF0AC
:10371000FDFC18B12B7843F040032B7000230B48BD
:103720006B70FFF79DF9216C0546206B084C0CF07F
:1037300029FA014628460CF0CBFC08B1012363703E
:1037400070BD00BF94B9FF1F7CB9FF1F1C95FF1F00
:10375000C4BAFF1F2DE9F041844C2368012B82B0CD
:1037600025D0022B54D0032B74D0EBB9804B814869
:10377000D3F8B020D3F8B4100368891A002903FBEA
:1037800001F37D49C0F28880323381FB0301D817F1
:10379000C0EB6111002B1144C0F29380062002B0EF
:1037A000BDE8F04107F00CBD02B0BDE8F081734EFA
:1037B00033680A33B3F57A7F7EDC184633600CF049
:1037C00095FA6F490CF0E6FA8046694DD5F8B000DD
:1037D0000CF08CFA0746D5F8B4000CF087FA39469D
:1037E0000CF0CEF941460CF0D5FA66490CF086FB98
:1037F00039460CF0C7F90CF0A9FC0146062007F089
:10380000DFFC614B1B68002B62D12368022BAAD11D
:103810005A4B574E00221A60D6F8B0000CF066FAE8
:103820000546D6F8B4000CF061FA29460CF0A8F968
:1038300000210CF0AFFA53490CF060FB29460CF064
:10384000A1F90CF083FC0146062007F0B9FC2368BF
:10385000032B8AD1494B464E4FF47A721A60D6F840
:10386000B0000CF043FA0546D6F8B4000CF03EFA6E
:1038700029460CF085F943490CF08CFA41490CF0CB
:103880003DFB29460CF07EF90CF060FC0146062059
:1038900007F096FC236868E7323B81FB0310D917D9
:1038A000C1EB6011002B0A445DDB511C062002B005
:1038B000BDE8F04107F084BC00234FF000083360FE
:1038C00083E70139062002B0BDE8F04107F078BC7B
:1038D00002212E4809F0E8FC2D4809F085FF062159
:1038E0002C4809F0E1FC30680CF000FA24490CF097
:1038F00051FA0BF0A5FD022702460B46009724481B
:1039000009F0CEFF0D21244809F0CEFCD5F8B00017
:103910000CF0ECF9804630680CF0E8F918490CF02E
:1039200039FA0646D5F8B4000CF0E0F941460CF03F
:1039300027F9014630460CF02DFA12490CF0DEFA58
:1039400041460CF01FF90BF07BFD009702460B4639
:103950000F4809F0A5FF39460C4809F0A5FC0C48B2
:1039600009F042FF51E7114618E700BF9C94FF1F82
:1039700094B9FF1F1088FF1F1F85EB517CBAFF1FF2
:10398000CDCCCC3D0000C8420088FF1F5C5901002F
:10399000D489FF1F544901005C49010030B5154826
:1039A000154C83B009F020FF124809F01DFF134B9E
:1039B0001048196809F06CFF0E4809F015FF0D2139
:1039C0000F4809F071FCD4F8AC30012B1CD00D4D20
:1039D0000848297800230A2209F01AFF2B78052BC2
:1039E00074D8DFE813F074017901CB01D001D5015F
:1039F000DA0100BFD489FF1F94B9FF1F7094FF1F25
:103A00006C49010084B9FF1F0921B64809F04CFC3C
:103A1000B548FEF7A1FF21690CF05AFB18B10F2140
:103A2000B24809F041FCB048FEF79CFFE1680CF099
:103A30006DFB18B10E21AE4809F036FCAA48FEF71E
:103A400091FF0546A848FEF787FF014628460CF07F
:103A500097F8616C0CF05AFB18B11121A54809F0D8
:103A600023FCA148FEF7A2FFE16A0CF04FFB18B15E
:103A70000C21A14809F018FC9B48FEF797FF216B29
:103A80000CF026FB18B10D219C4809F00DFC9C4B55
:103A900095481B68012B00F09881FEF75DFF2169B6
:103AA000984D0CF033FB002800F00F818E48FEF794
:103AB00059FFE968944D0CF00BFB38B12B78052BBE
:103AC00000F098810821914809F0EEFB022190480E
:103AD00009F0EAFB122007F0F9FC012800F07081E0
:103AE000112007F0F3FC012800F05C81894B1B6872
:103AF000012B00F0608102218548874C09F0D4FB3E
:103B0000864B8748196809F0C3FE854809F06CFEAA
:103B10000421844809F0C8FB0B2007F0D7FC0023E0
:103B200001460A227E4809F073FE0C2007F0CEFC05
:103B3000002301460A227A4809F06AFE142007F0A1
:103B4000C5FC002301460A22754809F061FE1520D4
:103B500007F0BCFC0A2200230146714809F058FE18
:103B60000621714809F0A0FB2368DB074FF0010133
:103B70004CBF6E486E4809F097FB236898074FF0DA
:103B800001014CBF69486A4809F08EFB23685A0757
:103B90004FF001014CBF6548654809F085FB23687B
:103BA0001B074CBF61486248012109F07DFB0421DD
:103BB000604809F079FB112007F088FC00230146DA
:103BC0000A22574809F024FE102007F07FFC00234A
:103BD00001460A22524809F01BFE122007F076FC2B
:103BE000002301460A224E4809F012FE132007F076
:103BF0006DFC0A2200230146494809F009FE1821FC
:103C00004D4809F051FB4D4B18880CF06FF84C49AA
:103C10000CF0C0F80BF014FC002402460B46009494
:103C20003F4809F03DFE1D21464809F03DFB464B4B
:103C300018880CF05BF842490CF0ACF80BF000FC73
:103C400000940B4602463648404C09F029FE0221FA
:103C50003F4809F029FB2B78032B02D023889BB225
:103C600093B117213B4809F01FFB21882C4889B2EA
:103C700009F00EFE0221364809F016FB2B78032BC3
:103C800002D1354B1B780BB903B030BD0B21334843
:103C900009F00AFB324B2248198889B209F0F8FD75
:103CA0001121304809F000FB2F4B1D48198809F0FD
:103CB000EFFD2E4B1B78002B00F097802C481D2128
:103CC00003B0BDE8304009F0EFBA0F4DFEE6062123
:103CD000284809F0E9FAF9E60721274809F0E4FA4B
:103CE000F4E600BF7C4901001C95FF1F88490100D4
:103CF00098490100A8490100BC490100CC490100D4
:103D0000A494FF1F94B9FF1F84B9FF1F004A01004C
:103D10005C590100C8BAFF1F68BBFF1F7494FF1FE6
:103D2000D489FF1F744A01007C4A0100844A0100C3
:103D3000884A01008C4A0100944A01009894FF1FB0
:103D4000CDCCCC3DB04A01005CBBFF1F64BBFF1F64
:103D5000D04A0100304B0100E0B8FF1FD44A0100F7
:103D600086BAFF1FE04A010048BBFF1F0895FF1FEE
:103D7000104B01000C4A0100144A010007212048A1
:103D800009F092FAA2E608211E4809F08DFA9DE694
:103D90000B211D4809F088FA98E607211B4809F015
:103DA00083FA93E60A211A4809F07EFA194B1B6838
:103DB000012B7FF4A0AE1121174809F075FA9AE69D
:103DC0000E21164809F070FA8AE6FEF7C5FD616A11
:103DD0000CF09CF960B116211148124D09F064FAFB
:103DE0000A21114809F060FA70E619210F4867E7C7
:103DF0000C4D67E60A210C4809F056FA66E600BF4A
:103E0000284A0100304A01001C4A01003C4A0100D6
:103E1000544A0100C8BAFF1F604A0100444A010029
:103E2000DC49010084B9FF1FF4490100F44A010094
:103E30002DE9F04FAB4CD4F88060012E8DB000F02E
:103E40007981032E00F0CC80DFF8DC82A64FA74EEC
:103E5000E36FA748012B09BF3168316801F10041C8
:103E6000316006F073FD3B68002B40F09F80A04856
:103E7000DFF8B49206F040FD3B68C8F80000054644
:103E8000002B44D1D4F88030964A012B53D0994965
:103E900028460CF03BF9C0B9974928460CF018F9B0
:103EA00098B9964A964B12680B920B9A1A60D4F8FE
:103EB000B8000BF01BFF29460BF06CFF0023C8F87D
:103EC000000033600DB0BDE8F08FDFF830A28C4FFA
:103ED000DAF800300A930A983B68DFF85092C01A6B
:103EE0000BF000FF29460BF055FF86490CF006F851
:103EF00084490CF003F8D9F800100BF043FEDAF80F
:103F000000300993099BC9F800003B60CFE70BF034
:103F100097FA022502460B4600957B4809F0C0FC43
:103F200004217A4809F0C0F9D4F88030D9F800505B
:103F30006C4A012BABD1764B1B68012B00F0DA8168
:103F4000022BB4D1D2F8A07038460BF0CFFE294630
:103F50000CF0BEF840B978420BF0C8FE29460CF0D0
:103F6000D5F8002800F0F981DFF890A1644FDAF865
:103F70000030079307983B68DFF8B091C01A0BF048
:103F8000B1FE29460BF006FF5E490BF0B7FF5D4915
:103F90000BF0B4FFD9F800100BF0F4FDDAF80030A4
:103FA0000693069BC9F800003B6080E7504806F086
:103FB000A3FC0BF045FA022502460B460095524839
:103FC00009F06EFC0321534809F06EF9D4F8A010F3
:103FD0004D4809F05DFC03214E4809F065F946E7BC
:103FE0004D4D4B4F2B68DFF84081D3F884000F21F3
:103FF00001233B6005F016FF3B683B4F012B3B68FC
:1040000000F0BF80002B40F03D812B68DFF820914D
:10401000D3F88400436B19698EB2C9F8006005F0CB
:1040200083FCB4F8A62040F6E44303FB06F1B1FBA1
:10403000F0F0801A00B20BF059FE38492B4E824640
:10404000D4F898000BF0A6FE014650460BF056FF40
:10405000D9F800303060632BDFF8D4A000F306817C
:10406000002333603B68002B3FF4F2AE02212C4862
:1040700009F01AF92B68D9F80050D3F8840040F6FB
:10408000E44303FB05F505F04FFCB5FBF0F00BF046
:1040900029FE0546B4F8A6000BF028FE0146284686
:1040A0000BF06EFD0BF0CCF9022502460B46009595
:1040B000154809F0F5FB2946194809F0F5F830686C
:1040C0000BF0BEF9009502460B460F4809F0E8FBDD
:1040D0002946144809F0E8F82946114809F0E4F89F
:1040E000B6E600BF94B9FF1F74B9FF1F50BBFF1F96
:1040F0009CBAFF1F0000FA430000FAC32CBDFF1F4B
:1041000078B9FF1F00007A44D489FF1F884B010053
:104110002888FF1F6844010078BBFF1F9175DD36BA
:104120005C590100844B010080B9FF1FD8BAFF1F02
:1041300080BBFF1FDFF80883D4F8A070D8F80050C8
:1041400038460BF0D3FD29460BF0E0FF48B178422A
:104150000BF0CCFD014628460BF0D8FF002840F0BC
:104160000381A54DA54F2A680223D2F884003B6045
:104170000E2105F057FE3B68A14F012B3B687FF4F1
:1041800041AF002B40F0FA802B68DFF8B892D3F8EB
:104190008400436B19691FFA81FBC9F800B005F070
:1041A000C3FBB4F8A430974E40F6E44A0AFB0BFB7D
:1041B000BBFBF0F0C01A00B20BF098FD92498346A9
:1041C000D4F89C000BF0E6FD014658460BF096FE35
:1041D0002A68D9F800303060D2F884000AFB03FA6C
:1041E00005F0A2FBB4F8A430BAFBF0F00FFA80FAA5
:1041F000C3EB0A03002BB4F8C620B8BF5B4293425E
:10420000BCBF002333603B68002B3FF421AE02218A
:104210007E4809F049F82B68D9F80050D3F884009B
:1042200040F6E44303FB05F505F07EFBB4F8A4106B
:10423000B5FBF0F000B2411A754809F029FB0221E4
:10424000724809F031F830680BF0FAF8022502469E
:104250000B4600956E4809F023FB03216D4809F0D9
:1042600023F82946694809F01FF8F1E52B68D3F8CF
:10427000840005F059FBDAF8003064389842FFF406
:10428000EFAEEFE66248DFF8BC91DFF86CA109F011
:10429000ABFA0C21604809F007F80C215F4809F0DF
:1042A00003F82A683B68D2F88400426B11698EB229
:1042B000C9F80060002B3FF4B2AE05F035FB40F6C4
:1042C000E44100230A2201FB06F1B1FBF0F1504862
:1042D00009F09EFA02214D4808F0E6FFB4F8A61056
:1042E0004B4809F0D5FADAF80030D9F80060D3F875
:1042F000840094E64A4928460BF008FF58B949491A
:1043000028460BF0E5FE30B9474A484B1268059243
:10431000059A1A60CBE5DFF810A1444FDAF80030B7
:10432000049304983B68DFF82091C01A0BF0DAFC84
:1043300029460BF02FFD3E490BF0E0FD3C490BF008
:10434000DDFDD9F800100BF01DFCDAF80030039306
:10435000039BC9F800003B60A9E5334A334B126860
:104360000892089A1A60A2E5234D244F2B683E60FC
:10437000D3F884000F2105F055FD3DE62448DFF811
:10438000C4901D4E09F030FAD4F88030012B4FF064
:104390000B010CBF2748284808F086FF0C211F4856
:1043A00008F082FF2A683B68D2F88400426B1169EA
:1043B0001FFA81FBC9F800B0002B3FF4F0AE05F006
:1043C000B3FA40F6E44100230A2201FB0BF1B1FBF2
:1043D000F0F10F4809F01CFA0121184808F064FFB9
:1043E000B4F8A4100A4809F053FA3368D9F800B0B9
:1043F000D3F88400D3E600BF78BBFF1F2888FF1FD7
:1044000074B9FF1F50BBFF1F9175DD365C59010069
:10441000D489FF1F704B0100744B0100604B0100F9
:104420000000FA430000FAC32CBDFF1F78B9FF1F3C
:1044300000007A44484B0100544B010068490100D8
:1044400080B9FF1F80BBFF1FD8BAFF1F2DE9F04FB7
:104450009D4C236887B01BB99C4B1B68002B7BD0FD
:104460009B4EDFF878829B4FDFF8BC92D6F88830FD
:10447000974D012B00F09A802C6ED7F800A0ED6DBF
:1044800004FB05F44FF47A7000FB04F00BF02EFCF3
:104490009149924D044650460BF07CFC21460BF0AE
:1044A0002DFD8F490BF076FC0BF050FE6328C8F809
:1044B00000004CDD204688490BF020FD6423386065
:1044C0002B60D9F80030002B3ED0D6F88030804CDD
:1044D000012B00F09180032B00F0E980022B00F00B
:1044E000ED8002217F4808F0DFFE7F4B18680AF05C
:1044F000A7FF022402460B4600947C4809F0D0F93D
:1045000021467B4808F0D0FE2146764808F0CCFED4
:10451000D8F80010754809F0BBF90621754808F075
:10452000C3FE38686C490BF035FC0AF089FF009433
:1045300002460B466D4809F0B3F903216E4808F0B6
:10454000B3FE6A4809F050F907B0BDE8F08F0028C3
:10455000BCBF00232B60B4E7684D2B680393039B1B
:10456000B3F57A6F07D9664E336823B96548FDF70E
:10457000A1FC012333602B680493049A544E41F24A
:1045800094139A4200F28C802B680593059A41F2AD
:1045900088339A423DD8D6F88830DFF840814D4FB5
:1045A000DFF884914A4D012B7FF466AF5548FEF742
:1045B000D3F95549D5F874A0EC6ED5F870B00BF06E
:1045C000E9FB0BF0E9FDAB6F0093524621465B46D9
:1045D00080B2FEF7F9FE2C6EED6D04FB00F005FBDA
:1045E00000F000EB800040000BF080FB3A490BF03C
:1045F00085FC8246386043E7444B1B68012B4FF033
:104600000A010CBF4248434808F04EFED4F88030FF
:1046100061E706214048DFF8C48008F045FE3348D2
:1046200009F0E2F83748FEF797F93749D6F8709065
:10463000776FF56E0BF0AEFB0BF0AEFDB36F009332
:104640003A464B46294680B2FEF7BEFE326EF36D07
:10465000C8F8000002FB00F003FB00F000EB800054
:1046600040000BF043FBDFF8C0901B49194F0BF0E3
:1046700045FCD9F80030386001222260002B3FF45D
:10468000F5AE0221174808F00FFE184809F0ACF803
:104690005921224808F008FE144809F0A5F8E5E67B
:1046A0001848F26C96F84810FEF762F96CE7102192
:1046B0001B4808F0F9FDD6F880300FE707211948AC
:1046C00008F0F2FD0DE700BF1895FF1F74BBFF1F38
:1046D00094B9FF1FD8BAFF1FE4388E3E1088FF1F21
:1046E0000000C8425C59010080B9FF1FD489FF1F38
:1046F000844B0100284C0100304C01002CBDFF1FF1
:10470000F0B8FF1F1C95FF1F00007A442888FF1F88
:10471000F44B0100004C0100904B0100984B01004C
:104720000C4C0100204C01000088FF1F30B5112007
:1047300083B006F0CBFE012818D0122006F0C6FE8A
:10474000012813D000210B2006F0BAFE00210C2016
:1047500006F0B6FE0021152006F0B2FE2649274BD2
:104760000120002208701A6003B030BD012115201D
:1047700006F0A6FE224A234C234B1268D4F88C1074
:1047800001921B68019A1D4D0B4493424FF00201A8
:10479000296005D901210C2006F092FE03B030BD3E
:1047A000D4F894000BF0A2FA184B19680BF090FCA7
:1047B0000028EFD101210B2006F082FE94F8CC30C6
:1047C0000324012B2C600DD0122006F07FFE01285F
:1047D00008BF094B4FF0110008BF1C7006F076FEB1
:1047E000012802D1044B02221A7000210C2006F08D
:1047F00067FE03B030BD00BF84B9FF1F1495FF1FD3
:104800002CBDFF1F94B9FF1FDCB8FF1F80B9FF1F2D
:10481000F0B56D4E6D4D34682B689C4287B03AD030
:1048200014F0010156D014F002014AD014F0040132
:104830003ED0E3070FD52B68DF070CD4644F3A68EE
:10484000002A00F09E80634B1B680193019B9342FA
:1048500000F289803468A0070DD52B6899070AD427
:104860005D4F3A68002A3ED05A4B1B680393039B66
:1048700093425AD8346862070DD52B685B070BD476
:10488000564F3A68002A3FD0524B1B680593059B50
:10489000934258D834680CB107B0F0BD21461620B9
:1048A00006F08EFC2146172006F08AFC07B0F0BD0A
:1048B000052006F085FC2B68346803F0FB032B60B1
:1048C000B7E7172006F07CFC2B68346803F0FD0383
:1048D0002B60ABE7162006F073FC2B68346803F0FE
:1048E000FE032B609FE73E4B1B68002B56D1FF2138
:1048F000172006F065FC374B3A4A19680291029975
:1049000012680A443A60B0E7354B1B68002B50D15F
:10491000FF21052006F054FC2E4B324A1968049101
:10492000049912680A443A60AFE72F4B1720D3F876
:10493000901006F045FC2B68346843F00203002217
:104940002B603A6097E7284B0520D3F8901006F0CB
:1049500037FC2B68346843F0040300222B603A6074
:10496000002C99D19AE7204B1620D3F8901006F02E
:1049700027FC2B68346843F0010300222B603A6067
:1049800069E7FF21162006F01BFC124B154A196837
:104990000091009912680A443A6055E7134808F0FC
:1049A00023FF0C21124808F07FFC104808F01CFF80
:1049B0009DE70E4808F018FF0C210E4808F074FC23
:1049C0000A4808F011FFA3E71495FF1F68BBFF1FFB
:1049D00080BAFF1F2CBDFF1F8CBAFF1F90BAFF1FAC
:1049E0000088FF1F1888FF1F94B9FF1FD489FF1F7D
:1049F000344C0100444C01002DE9F047534EDFF8E0
:104A00007081DFF870913068514D00220F2104F061
:104A100005FF0023012222214E48C8F80030C9F8C2
:104A2000002008F041FCD8F80030132B20DC40F6C1
:104A3000E4473368B5F8A4A0D3F88400436B1C693D
:104A400004F072FFA4B2012107FB04F4B4FBF0F4FC
:104A500041485444A5F8A44008F026FC642006F020
:104A60006BFDD8F800300133132BC8F80030E0DDBF
:104A7000B5F8A430394A3A48A2FB03129B1A02EB5C
:104A80005303C3F30F131946A5F8A43008F000FF31
:104A90001D21344808F008FC0221334808F004FCCA
:104AA0002F4808F0A1FE32680023D2F88400C8F82D
:104AB00000300E2105F0B6F9022322212548C9F85D
:104AC000003008F0F1FBD8F80030132B20DC40F662
:104AD000E4473368B5F8A690D3F88400436B1C69AB
:104AE00004F022FFA4B2012107FB04F4B4FBF0F4AC
:104AF00019484C44A5F8A64008F0D6FB642006F0FF
:104B00001BFDD8F800300133132BC8F80030E0DD6E
:104B1000B5F8A630114A1248A2FB03129B1A02EB09
:104B20005303C3F30F131946A5F8A63008F0B0FEDF
:104B30001D210E4808F0B8FB02210B4808F0B4FB19
:104B40000748BDE8F04708F04FBE00BF78BBFF1F25
:104B500094B9FF1F544C0100984C010087611886DE
:104B6000D489FF1F784C01005C5901009C4C010066
:104B70007C94FF1F2888FF1F2DE9F843C84BC94CC0
:104B8000C94E1B68B06D40F2513108222160E271BC
:104B9000002B40F0C2810BF0A9F8B16905460BF07B
:104BA000F9F8C2490BF0F6F80BF0F6FA80B20312EE
:104BB0006372BF4ABF4B12881B88F1692072A372CF
:104BC00028461B121512E372227365730BF0E2F88C
:104BD000B649B44D0BF0DEF80BF0DEFA83B21A12D0
:104BE0002946B548A373E27305F0EEFCB34BB44A13
:104BF0001B681288A272DFB207EB8701277203EBF2
:104C00008307490047F3D7171B12121221736773EA
:104C100040F2553E637208270023A748E2722946F6
:104C2000A373E373C4F800E0E77105F0CDFCD6F898
:104C3000BC30E77140F25632072B2260A14800F0E9
:104C40007181FDF791FEA0490BF0A4F80BF0A4FAD6
:104C500028729C48FDF788FE9B490BF09BF80BF0EF
:104C60009BFAC0F307206872984B974918680BF0BD
:104C700045F90BF06BFA021203469248E272A372F6
:104C8000FDF794FE89490BF085F80BF05FFA20736D
:104C90008C48FDF78BFE85490BF07CF80BF056FA3B
:104CA000002540F307237F4983486373A573E573A9
:104CB00005F08AFC022006F03FFC854A854B5178BE
:104CC000907817786172A0725978987892F803E01A
:104CD00027724FF008081F78DA78617340F25A3370
:104CE000A0737049744884F80BE02773E273236063
:104CF00084F8078005F068FC774B6A491A78587881
:104D0000227260729A78D878A272E0721A799879D1
:104D10005F792273A073DA796748E27340F25E33F9
:104D20002360677384F8078005F04EFC022006F0CC
:104D300003FC6A4B5B491A785878227260729A7841
:104D4000D878A272E0721A7998795F792273A07389
:104D5000DA795948E2734FF45C732360677384F81F
:104D6000078005F031FC022006F0E6FB40F27333C9
:104D70005448236084F80780FDF7EEFD58490BF096
:104D800009F80BF009FA20724E48FDF7E5FD544989
:104D90000BF000F80BF000FAC0F3072349486372E8
:104DA000FDF7E0FD4E490AF0F5FF0BF0F5F9A072B2
:104DB0004448FDF7D7FD4A490AF0ECFF0BF0ECF947
:104DC000C0F307233F48E372FDF74AFE45490AF066
:104DD000D9FE0BF0E1F920733A48FDF741FE414955
:104DE0000AF0D0FE0BF0D8F9C0F3072335486373FF
:104DF000FDF734FE3B490AF0C5FE0BF0CDF9A07378
:104E00003048FDF72BFE37490AF0BCFE0BF0C4F921
:104E10002449C0F307232848E37305F0D5FB02209B
:104E200006F08AFBF16D336E2F4A11FB03F3126813
:104E30002372C3F307214FF0020940F279330B20AC
:104E4000A2726172236084F8079006F03FFB074668
:104E50000C2006F03BFB0646142006F037FB00FA58
:104E600009F040EA4606152006F030FB3E431F4B92
:104E70000C491B78237376B246EAC0060E48657368
:104E8000E672A573E57305F09FFB484606F054FBF8
:104E900040F272330B48236084F8078028E000BF9B
:104EA000A494FF1F8094FF1F94B9FF1F00002041AE
:104EB0005CBBFF1F9894FF1F84BBFF1F1088FF1F60
:104EC0001688FF1F1C95FF1F0000C84280B9FF1FF6
:104ED0007CB9FF1FC4BAFF1F3488FF1F3C88FF1F27
:104EE00000007A443393884368BBFF1F84B9FF1FD7
:104EF000FDF734FD20721548FDF730FD40FA08F348
:104F0000A5726372E57225736573A573E573104925
:104F10001048BDE8F84305F057BB0AF0E7FE716A98
:104F200005463CE6FDF720FD0B490AF033FF0BF088
:104F300033F928720548FDF717FD07490AF02AFFE3
:104F40000BF02AF9C0F3072068728DE61C95FF1F4D
:104F50008094FF1F84BBFF1F000020412DE9F04F0C
:104F6000804EDFF8488283B008F038F93468C8F81A
:104F70000000042C054600F07683092C00F0F28234
:104F8000022C4DD1A5F13103422B53D8DFE813F0A9
:104F900061056F057F0557008D05A805B705C1059B
:104FA0005200520052005200520052005200520071
:104FB0005200520052005200520052005200520061
:104FC0005200520052005200520052005200520051
:104FD0005200520052005200520052005200520041
:104FE0005200520052005200520052005200520031
:104FF0005200520043005200520052005200520030
:105000005200520052005200520052005200520010
:10501000760052009E05FFF7EFFC3468D8F8005088
:10502000082C1ED1322D00F0C883712D26D0312DD1
:1050300000F0DA83732D26D003B0BDE8F08F012392
:10504000336008F007F9002807DD4748474F08F0AC
:1050500061FD0AF04BFEC7F89C0063253468C8F870
:105060000050072C40F0A780332D01F0318440F32D
:105070008783342D01F01984712DDBD10022732335
:105080003260C8F800303368002BD5D1384D36482F
:1050900008F0AAFB0421374808F006F9324808F066
:1050A000A3FB1021344808F0FFF82F4808F09CFBC0
:1050B0001321324808F0F8F8314B2B48196808F0F2
:1050C000E7FB294808F090FB14212E4808F0ECF883
:1050D000254808F089FB1E212B4808F0E5F82248F6
:1050E00008F082FB1521294808F0DEF81E4808F078
:1050F0007BFB1E21264808F0D7F81B4808F074FBFC
:105100002021244808F0D0F8174808F06DFB192139
:10511000214808F0C9F8144808F066FB12211F481E
:1051200008F0C2F8104808F05FFB19211C4808F08D
:10513000BBF80D4808F058FB0F211A4808F0B4F8E6
:10514000094808F051FB0D21174808F0ADF8064852
:1051500008F04AFB002201232A60336003B0BDE857
:10516000F08F00BF7CBBFF1FD489FF1F94B9FF1FC6
:105170000088FF1FE8510100F051010004520100B6
:105180002488FF1F185201003052010050520100C4
:105190006852010088520100AC520100C85201005F
:1051A000DC520100F852010008530100C8B8FF1F8B
:1051B0003468D8F80050062C40F08D80A5F13103FA
:1051C000402B3FF637AF01A252F823F0635E000098
:1051D000935E0000415F00006F5F00009D5F000074
:1051E000B35F0000DB5F00000D6000002F60000077
:1051F000355000003550000035500000355000009B
:10520000355000003550000035500000355000008A
:10521000355000003550000035500000355000007A
:10522000355000003550000035500000355000006A
:10523000355000003550000035500000355000005A
:10524000355000003550000035500000355000004A
:10525000355000003550000035500000355000003A
:10526000355000003550000035500000355000002A
:10527000355000003550000035500000355000001A
:10528000355000003550000035500000A960000086
:10529000596000008160000035500000355000006A
:1052A00035500000355000003550000035500000EA
:1052B00035500000355000003550000035500000DA
:1052C0003550000035500000355000007D50000082
:1052D0003468D8F80050052C40F08D80A5F13103DA
:1052E000402B3FF6A7AE01A252F823F0A1580000D0
:1052F00097590000B9590000DB590000075A000017
:10530000235A00003F5A000035500000355000007D
:105310003550000035500000355000003550000079
:105320003550000035500000355000003550000069
:105330003550000035500000355000003550000059
:105340003550000035500000355000003550000049
:105350003550000035500000355000003550000039
:105360003550000035500000355000003550000029
:105370003550000035500000355000003550000019
:105380003550000035500000355000003550000009
:1053900035500000355000003550000035500000F9
:1053A00035500000355000003550000035500000E9
:1053B00035500000355000003550000035500000D9
:1053C00035500000355000003550000035500000C9
:1053D00035500000355000003550000035500000B9
:1053E0003550000035500000355000005358000083
:1053F0003468D8F80050032C40F0A580A5F13003A4
:10540000422B3FF617AE01A252F823F019550000C7
:1054100063670000C1670000E96700000B680000D7
:105420002D680000556800007D680000D76000000E
:105430007D650000355000003550000035500000FB
:105440003550000035500000355000003550000048
:105450003550000035500000355000003550000038
:105460003550000035500000355000003550000028
:105470003550000035500000355000003550000018
:105480003550000035500000355000003550000008
:1054900035500000355000003550000035500000F8
:1054A00035500000355000003550000035500000E8
:1054B00035500000355000003550000035500000D8
:1054C00035500000355000003550000035500000C8
:1054D000A7650000C7650000E765000007660000DB
:1054E00027660000476600009F660000C96600004E
:1054F00035500000F56600001967000035500000C7
:105500003550000035500000355000003550000087
:105510007D5000004367000007F09CFE002841F327
:10552000BC81D048D04F08F0F5FA0124034601466B
:105530006222CE483460FB65C8F80020FDF716FAF9
:105540003468D8F80050012C7FF474AD642D30D14C
:10555000DFF840B3DFF840A3DFF84093C24FC44DFB
:10556000C44C2DE3C04FC04A97F8CE30012B84BF06
:10557000002387F8CE3097F8CD30012B02D90023D5
:1055800082F8CD30322D00F04D81712D3FF476AD93
:10559000312D7FF44FAD97F8CD30B3FA83F37822F5
:1055A0005B090124154687F8CD30C8F80020346027
:1055B000642A41F3F9816B2D01F0158601F35C85B6
:1055C000652D01F0F983692D02D033E507F006FE61
:1055D00007F040FE04460028F8D1A248A24D08F08A
:1055E00003F9A04808F000F99E4808F0FDF89D482E
:1055F00008F0FAF89B4808F0F7F815219E4807F0E4
:1056000053FE984808F0F0F818219C4807F04CFE2B
:1056100023460A2295F84810924808F0F9F8914874
:1056200008F0E2F82821964807F03EFEE86C95491C
:105630000AF0B0FB09F004FF00940B4602468948CB
:1056400008F02EF90221904807F02EFE854808F058
:10565000CBF813218D4807F027FE824808F0C4F8E4
:1056600008233360E8E4A0F13003412B3FF6E2ACBD
:1056700001A252F823F000BFB95D0000435E0000B4
:10568000E15D0000015E00000D5D0000395D00007D
:10569000595D0000735D0000535B00008F5D0000EA
:1056A00035500000355000003550000035500000E6
:1056B00035500000355000003550000035500000D6
:1056C00035500000355000003550000035500000C6
:1056D00035500000355000003550000035500000B6
:1056E00035500000355000003550000035500000A6
:1056F0003550000035500000355000003550000096
:105700003550000035500000355000003550000085
:105710003550000035500000355000003550000075
:105720003550000035500000355000003550000065
:105730003550000035500000355000003550000055
:1057400035500000355000002D5B00003550000042
:105750003550000035500000355000003550000035
:105760003550000035500000355000003550000025
:105770003550000035500000355000007D500000CD
:10578000312D01F0BA80322D7FF454AC07F062FD68
:1057900000287FF70DAD3348334F08F0BBF90AF00E
:1057A000A5FA3B490AF0F6FA012461231D46786404
:1057B000C8F800303460642BFBE607F04BFD00288E
:1057C0003FDD2848284F08F0A5F90AF08FFA304944
:1057D0000AF0E0FA97F84810034602462348FB64B3
:1057E000FDF7C6F8692316E007F034FD00282CDD2C
:1057F0001C481D4F08F08EF9C0B287F848000228F7
:1058000094BF01460021FA6C184888BF87F84810F9
:10581000FDF7AEF8692301241D46C8F80030346056
:10582000642BC6E697F8CE30B3FA83F378225B098F
:105830000124154687F8CE30C8F800203460642A69
:10584000B7E63468D8F800500BE4074F97F84800E3
:10585000D5E70749002373220B603360C8F80020A6
:1058600011E400BFD489FF1F94B9FF1F1C95FF1FCF
:105870009C94FF1F6494FF1FB05201008C4D0100E7
:10588000A84D010000007A44D44D0100784D01007C
:105890006F12833A70BBFF1F74B9FF1F88B9FF1FD7
:1058A00007F0D8FC00287FF7A3ADB448B44F08F048
:1058B00031F901226B23C7F88C003260C8F8003040
:1058C00001E007F08BFC07F0C5FC0028F9D1AB48DC
:1058D000AB4C07F089FFA94807F086FFA74807F0FF
:1058E00083FFA64807F080FFA44807F07DFF212131
:1058F000A44807F0D9FCA14807F076FF1521A2487B
:1059000007F0D2FCD7F88C109C4807F0C1FF0221A9
:105910009E4807F0C9FC994807F066FF1E219C4885
:1059200007F0C2FCD7F89410944807F0B1FF0321A8
:10593000984807F0B9FC914807F056FF1E21964899
:1059400007F0B2FCD7F890108C4807F0A1FF8B4805
:1059500007F04AFF1D21914807F0A6FCD7F8B010C8
:10596000864807F095FF854807F03EFF1E218C48CA
:1059700007F09AFCD7F8B410804807F089FF7F48F9
:1059800007F032FFD7F8AC30012B00F0E787052392
:105990003360FFF751BB07F05DFC00287FF728ADAF
:1059A0007648774F08F0B6F801226B23C7F89400C9
:1059B0003260C8F8003086E707F04CFC00287FF71B
:1059C00017AD6E486E4F08F0A5F801226B23C7F89B
:1059D00090003260C8F8003075E707F03BFC002803
:1059E0007FF706AD6548664F08F094F86D4BC7F831
:1059F000B00002221A60FDF7ADFE01226B23326077
:105A0000C8F800305FE707F025FC00287FF7F0AC0E
:105A10005A485B4F08F07EF8624BC7F8B400032287
:105A2000E8E7574F97F8D830B3FA83F35B090121C1
:105A30006B2287F8D8303160C8F8002043E7504F18
:105A400097F8CC30012B0CBF0023012387F8CC3012
:105A5000D3E74B4FFB6FB3FA83F363225B09012457
:105A60001546FB67C8F800203460642AA1E5444F5E
:105A7000D7F88830B3FA83F363225B090124154613
:105A8000C7F88830C8F800203460642A91E5012303
:105A9000336007F0DFFB002805DD3848384F08F099
:105AA00039F8C7F8B8006323B5E60123336007F07F
:105AB000D1FB00287FF7D1AA3048314F08F02AF8EF
:105AC0000AF014F9C7F89800FFF7C7BA2C4AD2F8C1
:105AD00080300133032BC8BF0023C2F88030E2E7D7
