:1000000000800020BD01000089A7000041A700007A
:1000100041A7000041A7000041A7000041A7000040
:1000200041A7000041A7000041A7000089A70000E8
:1000300089A7000041A700009D9D0000A19E00002F
:1000400089A7000089A7000089A7000089A70000F0
:1000500089A7000089A7000089A7000089A70000E0
:1000600089A7000089A7000089A7000089A70000D0
:1000700089A7000089A7000089A7000089A70000C0
:1000800089A7000089A7000089A7000089A70000B0
:1000900089A7000089A7000089A7000089A70000A0
:1000A00089A7000089A7000089A7000089A7000090
:1000B00089A700000D9B0000199B00001D9B0000FC
:1000C000299B00002D9B0000319B000089A70000A8
:1000D00089A7000089A7000089A7000089A7000060
:1000E00089A7000089A7000089A7000089A7000050
:1000F00089A700001DCA000089A700007DB4000088
:1001000089A7000095B7000089A7000089A7000013
:1001100089A7000089A7000089A7000089A700001F
:1001200089A7000089A7000089A7000089A700000F
:1001300089A7000089A7000089A7000089A70000FF
:1001400089A7000089A7000089A7000089A70000EF
:1001500089A7000089A7000089A7000089A70000DF
:1001600089A7000025BA000089A7000089A7000020
:1001700089A7000089A7000089A7000089A70000BF
:1001800089A7000089A7000089A7000089A70000AF
:1001900089A7000089A7000089A7000089A700009F
:1001A00089A7000089A7000089A7000089A700008F
:1001B00089A7000089A7000089A70000564B4CF2D0
:1001C000205210B51A804DF628121A8000BF00BFC9
:1001D0000AF0DEFA514B4FF010621A60504A9A60F2
:1001E000504ADA60504A136813F4807304D14F49BF
:1001F0000B604FF4A85313604D4B1A78110703D5C9
:100200001A7842F008021A704A4B4B492A221A7097
:100210004A4A4B4B8B4204D252F8040F43F8040B6A
:10022000F8E7484B484900228B4202D243F8042B9E
:10023000FAE74649464A002352F8230041F82300D2
:1002400001336F2BF8D1434B434A802103F8011B44
:100250009342FBD1414B3D4A1A60414B8A221A70AE
:10026000A3F5805324225A70A0221A709A7992071B
:10027000FCD59A79D406FCD43A4A937903F00C035E
:10028000082B384BF9D103221A7140225A719A79FE
:100290009006FCD5334A9179324B4906FBD5324A58
:1002A000324911600221516020221A709A7902F0BD
:1002B0000C020C2AFAD12E4B2E4A1A602E4B2F4AD2
:1002C0001A6000225A60072243F8042C2C4AC3F813
:1002D0000C2D62B60AF03CFD144B1B68DA0705D5FD
:1002E00028480AF019FB284B284A1A60284B1B782B
:1002F0005B0609D5244C254B22689A4204D121483B
:100300000AF00AFB002323600EF088FE0AF046FA8A
:100310000AF074F9FEE700BF0E200540308004406B
:10032000823F04000100002B10D0034014D0034092
:1003300002D0074000E007403092FF1F244E01002A
:100340002087FF1F3092FF1FDCBCFF1F0082FF1FB2
:100350000000000000E400E05FE400E008ED00E0E1
:100360000050064000400640448004400000030165
:1003700004800440C010050014E000E0FF76010096
:1003800000002020686A695E1CE00340A5C3945AFF
:1003900000F00740FFFFFFFFFFFFFFFFFFFFFFFF32
:1003A000FFFFFFFFFFFFFFFFFFFFFFFFFFFFFFFF5D
:1003B000FFFFFFFFFFFFFFFFFFFFFFFFFFFFFFFF4D
:1003C000FFFFFFFFFFFFFFFFFFFFFFFFFFFFFFFF3D
:1003D000FFFFFFFFFFFFFFFFFFFFFFFFFFFFFFFF2D
:1003E000FFFFFFFFFFFFFFFFFFFFFFFFFFFFFFFF1D
:1003F000FFFFFFFFFFFFFFFFFFFFFFFFFFFFFFFF0D
:10040000FFFFFFFFFFFFFFFFFFFFFFFFDEF9FFFF23
:1004100010B5054C237833B9044B13B10448AFF33E
:1004200000800123237010BD3092FF1F00000000E8
:10043000204E0100084B10B51BB108490848AFF326
:1004400000800848036803B910BD074B002BFBD0A0
:10045000BDE81040184700BF000000003492FF1FA5
:10046000204E01003092FF1F00000000F0B400F1A8
:1004700014060F4F00243146031F00F12C0243F8ED
:10048000044FB34241F8047F4FF0000542F8044F97
:10049000F5D1084B084985640022C56405654565AA
:1004A000456683650366C16580F88420F0BC7047AB
:1004B0000000A040000048430000C8C200230360C1
:1004C00043608360C3600361436183640365436584
:1004D000704700BF2DE9F04190F8844084B00023BC
:1004E00064008DF80530E4B2012380468DF80440A5
:1004F0008DF80630032720460BF0E8F802210DF1B5
:1005000005000BF0EDF88DF8044002F0DBFC30B391
:100510000921C9480CF01CF9002310222146C748C4
:1005200009F07CFD0121C6480CF012F900231022CD
:100530009DF80510C14809F071FD0121C0480CF07B
:1005400007F9002310229DF80610BC4809F066FD4B
:100550000121BB480CF0FCF8B84809F04FFD02201F
:100560008DF804400AF0A6FB02F0ACFC002840F035
:10057000778102AE00240BF0C9F8002800F0268134
:10058000042C40F0158101E00BF0D0F80BF0BEF820
:100590000028F9D102F096FC10B1A84809F02EFD10
:1005A00098F884406400E4B2202204238DF80440CB
:1005B0008DF805208DF80630032720460BF086F8CD
:1005C00002210DF105000BF08BF88DF8044002F0CC
:1005D00079FC30B3092198480CF0BAF800231022B6
:1005E0002146964809F01AFD012195480CF0B0F813
:1005F000002310229DF80510904809F00FFD0121FD
:100600008F480CF0A5F8002310229DF806108B48A7
:1006100009F004FD01218A480CF09AF8874809F096
:10062000EDFC02208DF804400AF044FB02F04AFC85
:10063000002840F00B8102AE00240BF067F8002880
:1006400000F0A980072C40F0988001E00BF06EF8D4
:100650000BF05CF80028F9D102F034FC10B17748B7
:1006600009F0CCFC98F884409DF80B209DF80C30E4
:100670009DF80D00C8F870206400E4B29DF80E10DB
:10068000C8F87430332201238DF80440C8F878008C
:10069000C8F87C108DF805208DF806300327204619
:1006A0000BF014F802210DF105000BF019F88DF88C
:1006B000044002F007FC30B309215F480CF048F811
:1006C0000023102221465D4809F0A8FC01215C4866
:1006D0000CF03EF8002310229DF80510574809F051
:1006E0009DFC012156480CF033F8002310229DF8A0
:1006F0000610524809F092FC012151480CF028F8EC
:100700004E4809F07BFC02208DF804400AF0D2FA32
:1007100002F0D8FB002840F09E8002AE00240AF0D0
:10072000F5FFF8B1042C0FD101E00AF0FFFF0AF049
:10073000EDFF0028F9D102F0C5FB10B13F4809F0E8
:100740005DFC04B0BDE8F0810AF0F0FF054606F854
:10075000010B02F0B7FB00285AD101340AF0D6FF92
:100760000028DFD1042CE2D002F0ACFB00285ED1DF
:10077000013FE6D09DF8044091E70AF0D7FF054617
:1007800006F8010B02F09EFB60BB01340AF0BEFFCD
:1007900000287FF457AF072C3FF45AAF02F092FBCA
:1007A00000284FD1013F3FF45DAF9DF8044004E7BE
:1007B0000AF0BCFF054606F8010B02F083FBE0B926
:1007C00001340AF0A3FF00287FF4DAAE042C3FF4D2
:1007D000DDAE02F077FB30BB013F3FF4E1AE9DF8A8
:1007E000044088E6E9B200231022144809F016FC00
:1007F000012113480BF0ACFFC7E7E9B20023102238
:100800000E4809F00BFC01210D480BF0A1FFD7E7C2
:10081000E9B200231022094809F000FC0121084830
:100820000BF096FF99E7054809F0E8FBD4E7034889
:1008300009F0E4FB9CE700BFD8310100D087FF1F1F
:100840000C390100094809F0D9FBABE7072108483A
:100850000BF07EFFEFE6072105480BF079FF5CE720
:10086000072103480BF074FF83E600BFD087FF1F0A
:10087000E431010090F87400704700BF90F87000F8
:10088000704700BF90F87800704700BF90F87C0078
:10089000704700BF2DE9F04390F8848085B04FEA9F
:1008A00048085FFA88F8322200238DF804808DF81A
:1008B00005208DF8063003250DF1060748F00109E3
:1008C00048460AF003FF01AE0DF1050002210AF0CF
:1008D00007FF8DF804904A46334600205040082414
:1008E00010F0800F4FEA400018BF80F00700013C75
:1008F000C0B2F5D1BB4202D013F8012FEEE70AF0E7
:10090000E5FE02F0DFFA00284AD102208DF80480CB
:100910000AF0D0F902F0D6FA002840F081800DF1FB
:10092000080800240AF0F2FE08B3042C12D101E0FA
:100930000AF0FCFE0AF0EAFE0028F9D102F0C2FA41
:1009400010B13A4809F05AFB02200AF0B3F905B099
:10095000BDE8F0830AF0EAFE08F8010B064602F053
:10096000B1FA70B901340AF0D1FE0028DDD1042CAF
:10097000E0D002F0A7FA78B9013DE5D09DF80480F7
:100980009CE7F1B200231022284809F047FB01211F
:1009900027480BF0DDFEE5E7244809F02FFBEBE7E5
:1009A000092124480BF0D4FE2346102249461F4853
:1009B00009F034FB01211E480BF0CAFE2346102229
:1009C0009DF80510194809F029FB012118480BF082
:1009D000BFFE102223469DF80610144809F01EFBA6
:1009E000012113480BF0B4FE21460DF1070216F861
:1009F000014B6140C9B2082311F0800F4FEA410159
:100A000018BF81F00701013BC9B2F5D1B242EED166
:100A10001022064809F002FB044809F0EFFA74E7D7
:100A2000072105480BF094FE79E700BFD087FF1F30
:100A30000C390100D8310100E43101002DE9F04FFB
:100A4000074691B097F8843002205B008DF808309B
:100A50000AF030F997F8843038465B008DF808309A
:100A6000FFF738FDB86FFC6F7B6F3A6F97F8841013
:100A70008DE81100C94802F02BFB30223D238DF890
:100A800009208DF80A3003260DF10A059DF808901B
:100A900049F0010840460AF019FE0DF10900022153
:100AA0000AF01EFE8DF80880424602AB002050403E
:100AB000082410F0800F4FEA400018BF80F00700B4
:100AC000013CC0B2F5D1AB4202D013F8012FEEE7E2
:100AD0000AF0FCFD02F0F6F9002840F07D820220C9
:100AE0008DF808900AF0E6F802F0ECF9002840F0E2
:100AF000B9820DF10C0AD14600240AF007FE002845
:100B000043D0032C34D101E00AF010FE0AF0FEFDC0
:100B10000028F9D102F0D6F910B1A14809F06EFA17
:100B2000312303268DF809308DF80A609DF808906E
:100B300049F0010840460AF0C9FD0DF10900022103
:100B40000AF0CEFD8DF80880424602AB00205040EE
:100B5000082410F0800F4FEA400018BF80F0070013
:100B6000013CC0B2F5D19D4228D013F8012FEEE729
:100B70000AF0DCFD09F8010B804602F0A3F968B920
:100B800001340AF0C3FD0028BBD1032CBED002F013
:100B900099F978B9013E7FF479AFC1E75FFA88F13E
:100BA000002310227E4809F039FA01217D480BF01C
:100BB000CFFDE5E77A4809F021FAEBE70AF086FD78
:100BC00002F080F9002840F0C68102208DF80890DC
:100BD0000AF070F802F076F9002840F03E820DF13C
:100BE0000C0900240AF092FD002844D0032C35D1D2
:100BF00001E00AF09BFD0AF089FD0028F9D102F01E
:100C000061F910B1664809F0F9F9342201238DF831
:100C100009208DF80A3003269DF8089049F0010854
:100C200040460AF053FD0DF1090002210AF058FD7B
:100C30008DF80880424602AB00205040082410F096
:100C4000800F4FEA400018BF80F00700013CC0B29F
:100C5000F5D1AB4228D013F8012FEEE70AF066FD7C
:100C600009F8010B804602F02DF968B901340AF049
:100C70004DFD0028BAD1032CBDD002F023F978B97C
:100C8000013E7FF453AFC0E75FFA88F100231022E2
:100C9000434809F0C3F9012142480BF059FDE5E74B
:100CA0003F4809F0ABF9EBE70AF010FD02F00AF952
:100CB000002840F00F8102208DF8089009F0FAFF1B
:100CC00002F000F9002840F0D7810DF10C09002452
:100CD0000AF01CFD002800F08580032C73D101E090
:100CE0000AF024FD0AF012FD0028F9D102F0EAF81A
:100CF00010B12B4809F082F9012212238DF8092046
:100D00008DF80A304FF003089DF8084020460AF09D
:100D1000DDFC02210DF109000AF0E2FC8DF808402B
:100D200002F0D0F830B309211F480BF011FD002369
:100D3000102221461A4809F071F9012119480BF0D7
:100D400007FD002310229DF80910154809F066F9E7
:100D5000012114480BF0FCFC002310229DF80A101E
:100D60000F4809F05BF901210E480BF0F1FC0C482B
:100D700009F044F906208DF8084009F09BFF02F0C5
:100D8000A1F8002840F0738103AD00260AF0BEFCF4
:100D9000002840D0162E30D10AE000BFEC3101000F
:100DA000D087FF1F0C390100D83101000AF0BEFCCA
:100DB0000AF0ACFC0028F9D102F084F816260028CD
:100DC0007DD1152035E00AF0B1FC09F8010B804611
:100DD00002F078F800285BD101340AF097FC002873
:100DE0007FF47BAF032C3FF47DAF02F06BF800285B
:100DF0006CD1013E7FF410AF7EE70AF097FC05F856
:100E0000010B044602F05EF800284DD101360AF0CD
:100E10007DFC0028BED1162ECAD002F053F800285F
:100E20004DD1B8F101087FF46FAF701E002840F378
:100E30003582002303AA1C4612F8011B08254C40EA
:100E400014F0800F4FEA440418BF84F00704013DFA
:100E5000E4B2F5D101338342EEDB9DF8218089486D
:100E60004146224602F034F9162EC146A34602D16D
:100E7000A04500F0138197F884108348CDF800B0A6
:100E80004B46324602F052F9002011B0BDE8F08F17
:100E90005FFA88F1002310227C4809F0BFF8012195
:100EA0007B480BF055FC97E7E1B20023102277480E
:100EB00009F0B4F8012176480BF04AFCA6E7734824
:100EC00009F09CF8162EACD11520B2E76F4809F056
:100ED00095F88EE709216F480BF03AFC2346102263
:100EE00041466A4809F09AF8012169480BF030FC44
:100EF000234610229DF80910644809F08FF801215B
:100F000063480BF025FC102223469DF80A105F4829
:100F100009F084F801215E480BF01AFC21460DF11E
:100F20000B0002AA12F8014B6140C9B2082311F06C
:100F3000800F4FEA410118BF81F00701013BC9B2A0
:100F4000F5D19042EED11022504809F067F84F4891
:100F500009F054F8AFE609214E480BF0F9FB23469F
:100F600010224146494809F059F8012148480BF040
:100F7000EFFB234610229DF80910444809F04EF873
:100F8000012143480BF0E4FB102223469DF80A1090
:100F90003E4809F043F801213D480BF0D9FB2146BA
:100FA0000DF10B0002AA12F8014B6140C9B20823EF
:100FB00011F0800F4FEA410118BF81F00701013B9A
:100FC000C9B2F5D19042EED11022304809F026F88E
:100FD0002E4809F013F8F8E509212E480BF0B8FB6C
:100FE000234610224146294809F018F801212848D3
:100FF0000BF0AEFB234610229DF80910234809F0A0
:101000000DF8012122480BF0A3FB102223469DF886
:101010000A101E4809F002F801211D480BF098FB48
:1010200021460DF10B0002AA12F8014B6140C9B232
:10103000082311F0800F4FEA410118BF81F007012A
:10104000013BC9B2F5D19042EED110220F4808F011
:10105000E5FF0E4808F0D2FF41E507210E480BF0EE
:1010600077FBBCE507210C480BF072FB41E507213B
:1010700009480BF06DFB87E6072107480BF068FB7A
:1010800023E600BF203201006C320100D087FF1F31
:101090000C390100D8310100E43101009DF80C3019
:1010A00097F88420B3EB420F7FF4EEAE9DF80D303D
:1010B000012B7FF4E9AE9DF80E30122B7FF4E4AEE5
:1010C0009DF810309DF80F0003EB00200DF02AFD75
:1010D0008B490DF07BFD796EF86404460DF032FF0C
:1010E00000B17C66396E20460DF00EFF00B13C6603
:1010F0003D1FAB4607F1180807F130064FF0000915
:101100009AF806309AF8050003EB00200DF00AFD6E
:101110007C490DF05BFD4BF8040FD8F80010044635
:101120000DF0F2FE09F101090AF1020A30B1B96EBF
:1011300020460DF0FDFE08B1C8F800403168204699
:101140000DF000FF08F1040800B13460B9F1060F9A
:1011500006F10406D4D10020B86407F1140455F850
:10116000041F0DF02BFCAC42F9D19DF81D209DF819
:101170001E30B86403EB022002300DF0D3FC62494C
:101180000DF0D8FD014661480DF0D4FD60490DF029
:1011900013FC60490DF01AFD05460BF085FD044671
:1011A00028460BF081FD5C490BF0F0FD5B490546DC
:1011B00020460DF00BFD5A490DF000FC594904463C
:1011C00028460DF003FD014620460DF0F7FB0146D1
:1011D0004FF07E500DF0AEFD53490DF0EDFB9DF844
:1011E0001F209DF82030386503EB022009300DF0F8
:1011F00099FC4E490DF09EFD014644480DF09AFDC4
:1012000043490DF0D9FB43490DF0E0FC05460BF0D6
:101210004BFD044628460BF047FD3F490BF0B6FD59
:101220003E49054620460DF0D1FC3D490DF0C6FB78
:101230003C49044628460DF0C9FC014620460DF005
:10124000BDFB01464FF07E500DF074FD36490DF0A8
:10125000B3FBD7F8808078650446B8F1000F3BD126
:101260003D6D29462E460DF06DFE68B32946B86DDA
:101270000DF068FEE0B1BD65B8F1000F17D008F1C0
:10128000130657F82640F96D20460DF05BFE00B1BD
:10129000FC65274801F01CFF0120F6E59DF8219030
:1012A000244849464246C34601F012FFE3E53E6D3D
:1012B000314620460DF046FEC8B1F96D20460DF0CE
:1012C00041FE0028E4D1E4E7B96D20460DF01CFE94
:1012D0000028EDD02546CEE708F11306B96D57F882
:1012E000265028460DF010FE0028C4D1C9E731462B
:1012F000F86D0DF009FE0028CBD03446C8E700BFDA
:101300006B57053B2003C839001601470AD7E33F56
:10131000E17A644000007A4400004040A40D8F3917
:101320005A80473A46A6DB3333938843002C014763
:101330004432010020320100052994BF50F82100F9
:10134000002070472DE9F0410B4E8046041F00F14C
:10135000140754F8045F314628460DF0D5FD30B12E
:10136000D8F8681028460DF0EDFD00B12E46BC42BD
:10137000EFD13046BDE8F08100002041F8B50026ED
:10138000041F00F1140754F8045F314628460DF09D
:10139000D9FD00B12E46BC42F5D13046F8BD00BFA4
:1013A0002DE9F047876E82464FF00009041F00F1D7
:1013B00014064FF0000854F8045F394628460DF033
:1013C000C1FD0D4950B128460DF09EFD30B1484693
:1013D00029460DF0F3FA08F101088146B442EAD13A
:1013E000CAF8888040460DF09DFB014648460DF046
:1013F000A1FCBDE8F08700BF00007042D0F8880073
:10140000704700BF38B5D0F8803043B9456D046DE2
:10141000294620460DF078FD30B1204638BD133303
:1014200050F82340204638BD2C46204638BD00BF2A
:1014300038B5D0F8803043B9446D056D2146284653
:101440000DF062FD30B1204638BD133350F8234013
:10145000204638BD2C46204638BD00BF08B5D0F820
:1014600080301BB1133350F8230008BD416D006D6F
:101470000DF0A4FA4FF07C510DF0A8FB08BD00BFA1
:10148000806C704701299ABF143150F82100002068
:10149000704700BF3E2998BF80F88410704700BF96
:1014A00090F86C00704700BFC0F88010704700BF14
:1014B00080F86C10704700BF8166704770B500F50A
:1014C0000A5506461C3500F1280420468C34FEF7E8
:1014D000CDFFAC42F9D106F1B40501242846002124
:1014E000FFF7E6FF214628460134FFF7D3FF3F2CE4
:1014F00005F18C05F2D142F2A42400250548064AE4
:10150000064B3555002130617161B261F36130469F
:1015100070BD00BF00007A44000048430000C8C20C
:1015200038B500F50A551C3500F1B40402E08C34DE
:10153000AC420AD02046FFF7B3FF0028F7D0204680
:101540008C34FEF7BBFFAC42F4D138BD2DE9F0413D
:1015500042F2A82300F50A56374600228046C250C0
:101560001C36283700F1B40402E08C34B4420DD0AC
:101570002046FFF795FF0028F7D020463D68FFF78B
:101580003DFF8C342844B4423860F1D142F2A823A4
:1015900058F80300BDE8F0812DE9F04F93B0814683
:1015A00042F2AC231046019201284FF0000206914E
:1015B00049F8032000F0038209F50A532C330793FE
:1015C00009F1B40A4FF0010B5046FFF769FFC0B1B3
:1015D00000263446012531465046D9F80870FFF7F9
:1015E000ABFE014638460DF08FFC18B105FA06F344
:1015F0001C43E4B20136062EEDD1019B012B0AD02B
:10160000F4B90BF1010BBBF13F0F0AF18C0ADBD1EE
:1016100013B0BDE8F08F5946BD4808F03FFD0321E7
:10162000BC480BF095F8214600230222B84808F088
:10163000F5FC0321B8480BF08BF8002C00F0188162
:101640004FEA4B03DBB21946029343F001039DF8C6
:10165000182003931D46184633238DF826208DF855
:1016600025308DF824100AF031F80DF12500022103
:101670000AF036F809AA05928DF824502A4609ABDB
:101680000DF1260600205040082510F0800F4FEA8B
:10169000400018BF80F00700013DC0B2F5D19E4266
:1016A00002D013F8012FEEE70AF010F801F00AFC5F
:1016B000002840F0EC809DF808308DF8243002209E
:1016C00009F0F8FA01F0FEFB002840F06E810AAB49
:1016D00004931F4600250AF019F8002844D01E2D57
:1016E00035D101E00AF022F80AF010F80028F9D10B
:1016F00001F0E8FB00283DD1019B012B40D0039D68
:101700009DF808208DF82420322328468DF82530B6
:101710008DF8264009F0DAFF0DF12500022109F0CD
:10172000DFFF8DF8245009AB2A46002050400825E1
:1017300010F0800F4FEA400018BF80F00700013D15
:10174000C0B2F5D19E423BD013F8012FEEE709F06D
:10175000EDFF07F8010B804601F0B4FB20BB01351B
:1017600009F0D4FF0028BAD11E2DBDD001F0AAFB8C
:101770000028C1D0664808F041FC019B012BBED176
:10178000049D0BAF15F8011B61480023102208F0DF
:1017900045FC012161480AF0DBFFAF42F2D1032191
:1017A0005D480AF0D5FFAAE75FFA88F1002310220E
:1017B000574808F033FC012159480AF0C9FFCEE729
:1017C00009F084FF01F07EFB002840F0AD809DF819
:1017D00008308DF82430022009F06CFA01F072FB19
:1017E000002840F0E780049E002509F08FFF00B339
:1017F0001E2D11D101E009F099FF09F087FF0028A3
:10180000F9D101F05FFBD0B9019B012B1DD0079AE4
:1018100013681C441460F4E609F088FF06F8010B15
:10182000074601F04FFB38BB013509F06FFF002878
:10183000DED11E2DE1D001F045FB0028E4D0344874
:1018400008F0DCFB019B012BE1D1049E0BAD16F8E7
:10185000011B2F480023102208F0E0FB01212F4834
:101860000AF076FFAE42F2D1079A13682344136060
:10187000274808F0C3FBC4E6F9B20023102224482D
:1018800008F0CCFB012126480AF062FFCCE70921D1
:1018900024480AF05DFF2B46102203991C4808F0EB
:1018A000BDFB01211E480AF053FF2B4610229DF874
:1018B0002510174808F0B2FB012119480AF048FF2B
:1018C00010222B469DF82610114808F0A7FB012195
:1018D00013480AF03DFF29460DF1270009AA12F826
:1018E000013B5940C9B2082311F0800F4FEA410172
:1018F00018BF81F00701013BC9B2F5D19042EED18A
:101900001022034808F08AFB014808F077FBD2E672
:10191000D087FF1FBC320100C0320100C432010079
:101920000C390100D8310100092127480AF010FFC5
:101930002B4610220399254808F070FB012124480A
:101940000AF006FF2B4610229DF825101F4808F0CC
:1019500065FB01211E480AF0FBFE10222B469DF874
:1019600026101A4808F05AFB012119480AF0F0FE27
:10197000059829460DF1270210F8013B5940C9B2DC
:10198000082311F0800F4FEA410118BF81F00701D1
:10199000013BC9B2F5D18242EED110220B4808F0CA
:1019A0003DFB0A4808F02AFB11E7072109480AF025
:1019B000CFFE8CE6072107480AF0CAFE13E703486A
:1019C00008F01CFBF8E500BFD8310100D087FF1FED
:1019D0000C390100E43101002DE9F04F824685B059
:1019E0004FF0000901238DF800908DF801908DF8DB
:1019F00002304FF003080024204609F067FE022160
:101A00000DF1010009F06CFE8DF8004001F05AFA6A
:101A100030B30921B5480AF09BFE0023102221466D
:101A2000B34808F0FBFA0121B2480AF091FE002306
:101A300010229DF80110AE4808F0F0FA0121AD48DF
:101A40000AF086FE002310229DF80210A84808F034
:101A5000E5FA0121A7480AF07BFEA54808F0CEFA76
:101A600002208DF8004009F025F901F02BFA00283A
:101A700040F0898001AF3E46002409F047FE00286F
:101A800067D0042C58D101E009F050FE09F03EFE69
:101A90000028F9D101F016FA10B1954808F0AEFA15
:101AA0009DF80430802B40F01E819DF80530002BFE
:101AB00040F019819DF80640012C40F014818E48B9
:101AC00001F006FB0AF1B406254604E001353F2D7E
:101AD00006F18C0686D03046FFF7E2FC83460028EC
:101AE000F4D13B2265F07F0301208DF801208DF8B1
:101AF00002308DF800B009F0E9FD0DF1010002217E
:101B000009F0EEFD01228DF80020E84658466B46AC
:101B10000DF102026040C0B2082410F0800F4FEABD
:101B2000400018BF80F00700013CC0B2F5D19342DD
:101B30002ED013F8014FEDE709F0F8FD06F8010B80
:101B4000054601F0BFF998B9013409F0DFFD00281E
:101B500097D1042C9AD001F0B5F910B1644808F07F
:101B60004DFAB8F1010800F0BE809DF8004043E74F
:101B7000E9B2002310225E4808F050FA01215D48C6
:101B80000AF0E6FDE0E707215C480AF0E1FD71E7B5
:101B900009F09CFD01F096F900285AD103208DF838
:101BA000009009F087F801F08DF9002840F0968048
:101BB000002409F0ABFDB0B30A2C27D101E009F0F5
:101BC000B5FD09F0A3FD0028F9D101F07BF900284B
:101BD0007FD19DF80430812B7FF404AF9DF8053050
:101BE0003B2B7FF4FFAE9DF806308035AB427FF48F
:101BF000F9AE30460121FFF75BFC0AF50A53404875
:101C00001A6A01321A6201F063FAEBE609F08EFDFE
:101C100007F8010B804601F055F970B9013409F05D
:101C200075FD0028C8D10A2CCBD001F04BF9002853
:101C300050D1022C7FF7D6AECBE75FFA88F10023B4
:101C400010222B4808F0EAF901212A480AF080FD09
:101C5000E4E7092125480AF07BFD234610220121F3
:101C6000234808F0DBF9012122480AF071FD2346E0
:101C700010229DF801101E4808F0D0F901211D48DE
:101C80000AF066FD102223469DF80210184808F05D
:101C9000C5F9012117480AF05BFD21460DF1030249
:101CA00018F8014B6140C9B2082311F0800F4FEAC8
:101CB000410118BF81F00701013BC9B2F5D142458E
:101CC000EED110220A4808F0A9F9094808F096F95F
:101CD00064E70A24064808F091F9AAE707210748B3
:101CE0000AF036FD64E705B0BDE8F08FD831010099
:101CF000D087FF1F0C390100C8320100E431010018
:101D0000D43201002DE9F04742F2A02284B0002332
:101D10000127835082468DF804308DF8053000F19C
:101D2000B4088DF806704FEA47095FFA89F400217C
:101D30004046FFF7BDFB20468DF8044009F0C6FC85
:101D400002210DF1050009F0CBFC8DF8044001F0F3
:101D5000B9F830B3092149480AF0FAFC00231022EF
:101D60002146474808F05AF9012146480AF0F0FC9C
:101D7000002310229DF80510414808F04FF9012179
:101D800040480AF0E5FC002310229DF806103C486C
:101D900008F044F901213B480AF0DAFC384808F021
:101DA0002DF914208DF8044008F084FF01F08AF822
:101DB00000285DD102AE002409F0A8FC40B3082C35
:101DC00019D101E009F0B2FC09F0A0FC0028F9D11A
:101DD00001F078F8002846D19DF808304B4522D014
:101DE0000137052008F066FF3F2F08F18C089AD1D3
:101DF00004B0BDE8F08709F099FC054606F8010B30
:101E000001F060F820BB013409F080FC0028D6D135
:101E1000082CD9D001F056F830BB042CE0DD9DF839
:101E200008304B45DCD19DF80930002BD8D19DF806
:101E30000A100129D4D19DF80C30002BD0D0404697
:101E4000FFF736FB0AF50A531A6A01321A62C7E72E
:101E5000E9B2002310220A4808F0E0F801210948FD
:101E60000AF076FCCFE70824054808F0C7F8D4E765
:101E7000072105480AF06CFC9CE700BFD83101003F
:101E8000D087FF1F0C390100E43101002DE9F04734
:101E900000F50A56354684B080461C36203500F1E0
:101EA000B4040027204600218C34FFF701FBB44224
:101EB0002F60F7D102270DF106064FF07F093C2273
:101EC000A5237E217F208DF805208DF806308DF822
:101ED000041001AD09F0FAFB0DF10500022109F033
:101EE000FFFB8DF804902B467F22002050400824F1
:101EF00010F0800F4FEA400018BF80F00700013C4F
:101F0000C0B2F5D1B34202D013F8012FEEE709F0C9
:101F1000DDFB00F0D7FF00285AD17E2364208DF826
:101F2000043008F0C7FE00F0CDFF002840F090809C
:101F30000DF1080A002409F0E9FB20B3082C15D1A3
:101F400001E009F0F3FB09F0E1FB0028F9D100F012
:101F5000B9FFF0B99DF808307F2B21D0013FAED1F9
:101F60004046FFF739FD04B0BDE8F08709F0DEFB1D
:101F700005460AF8010B00F0A5FFF0B9013409F09D
:101F8000C5FB0028DAD1082CDDD000F09BFF00282B
:101F9000E0D0324808F032F89DF808307F2BDDD1D0
:101FA0009DF809303C2BD9D19DF80A30A52BD5D10D
:101FB0009DF80B30572BD1D1D2E7E9B20023102284
:101FC000264808F02BF8012125480AF0C1FBD5E787
:101FD000092124480AF0BCFB234610227F211F4818
:101FE00008F01CF801211E480AF0B2FB234610221B
:101FF0009DF80510194808F011F8012118480AF059
:10200000A7FB102223469DF80610144808F006F896
:10201000012113480AF09CFB21460DF1070215F837
:10202000014B6140C9B2082311F0800F4FEA410112
:1020300018BF81F00701013BC9B2F5D1AA42EED128
:102040001022064807F0EAFF044807F0D7FF64E7CC
:10205000072105480AF07CFB6AE700BFD087FF1F15
:102060000C390100D8310100E43101002DE9F043C1
:1020700085B04FF07F082022FF2381468DF8048031
:102080008DF805208DF8063003260DF1060548F081
:102090000107384609F01AFB0DF10500022109F08D
:1020A0001FFB8DF804703A4601AB00205040082415
:1020B00010F0800F4FEA400018BF80F00700013C8D
:1020C000C0B2F5D1AB4202D013F8012FEEE709F010
:1020D000FDFA00F0F7FE002840F0768202208DF82D
:1020E000048008F0E7FD00F0EDFE002840F0B28229
:1020F0000DF10808002409F009FB002843D0042C46
:1021000034D101E009F012FB09F000FB0028F9D1FD
:1021100000F0D8FE10B1C14807F070FF4FF07F0803
:1021200000238DF804808DF80630032648F001075F
:10213000384609F0CBFA0DF10500022109F0D0FA7A
:102140008DF804703A4601AB00205040082410F08E
:10215000800F4FEA400018BF80F00700013CC0B27A
:10216000F5D1AB4228D013F8012FEEE709F0DEFAE3
:1021700008F8010B074600F0A5FE70B9013409F01C
:10218000C5FA0028BBD1042CBED000F09BFE78B964
:10219000013EC3D09DF8048079E7F9B200231022F4
:1021A0009E4807F03BFF01219D480AF0D1FAE5E780
:1021B0009A4807F023FFEBE709F088FA00F082FE67
:1021C000002840F0C08102208DF8048008F072FDE4
:1021D00000F078FE002840F038820DF10808002455
:1021E00009F094FA002846D0042C37D101E009F018
:1021F0009DFA09F08BFA0028F9D100F063FE10B1C6
:10220000864807F0FBFE4FF07F082122FF238DF860
:1022100004808DF805208DF80630032648F001076C
:10222000384609F053FA0DF10500022109F058FA79
:102230008DF804703A4601AB00205040082410F09D
:10224000800F4FEA400018BF80F00700013CC0B289
:10225000F5D19D4228D013F8012FEEE709F066FA78
:1022600008F8010B074600F02DFE70B9013409F0A3
:102270004DFA0028B8D1042CBBD000F023FE78B969
:10228000013EC0D09DF8048050E7F9B2002310222F
:10229000624807F0C3FE012161480AF059FAE5E7F8
:1022A0005E4807F0ABFEEBE709F010FA00F00AFE1B
:1022B000002840F0078102208DF8048008F0FAFC25
:1022C00000F000FE002840F0CF810DF10808002446
:1022D00009F01CFA002843D0042C34D101E009F0A5
:1022E00025FA09F013FA0028F9D100F0EBFD10B13E
:1022F0004A4807F083FE4FF07F0800238DF80480E2
:102300008DF80630032648F00107384609F0DEF95B
:102310000DF10500022109F0E3F98DF804703A4649
:1023200001AB00205040082410F0800F4FEA40001D
:1023300018BF80F00700013CC0B2F5D19D4228D003
:1023400013F8012FEEE709F0F1F908F8010B074641
:1023500000F0B8FD70B9013409F0D8F90028BBD1FC
:10236000042CBED000F0AEFD78B9013EC3D09DF87C
:10237000048053E7F9B200231022284807F04EFEEC
:10238000012127480AF0E4F9E5E7244807F036FE82
:10239000EBE709F09BF900F095FD002851D10220F0
:1023A0008DF8048008F086FC00F08CFD002840F0D9
:1023B00056810DF10808002409F0A8F918B3042C7F
:1023C00014D101E009F0B2F909F0A0F90028F9D11F
:1023D00000F078FD10B1114807F010FE42F2A4237E
:1023E000002209F8032005B0BDE8F08309F09EF94A
:1023F00008F8010B074600F065FD98B9013409F0B3
:1024000085F90028DBD1042CDED000F05BFDA0B9FB
:10241000013EE3D09DF8048075E700BFD087FF1F21
:102420000C390100F9B200231022924807F0F6FDA2
:10243000012191480AF08CF9E0E78E4807F0DEFDB3
:10244000E6E709218D480AF083F923461022394630
:10245000884807F0E3FD012187480AF079F923460F
:1024600010229DF80510834807F0D8FD012182480D
:102470000AF06EF9102223469DF806107D4807F0F9
:10248000CDFD01217C480AF063F921460DF10700DA
:1024900001AA12F8014B6140C9B2082311F0800F64
:1024A0004FEA410118BF81F00701013BC9B2F5D1E4
:1024B0009042EED110226F4807F0B0FD6D4807F052
:1024C0009DFD6CE709216D480AF042F92346102270
:1024D0003946684807F0A2FD012167480AF038F93B
:1024E000234610229DF80510624807F097FD012150
:1024F00061480AF02DF9102223469DF806105D4828
:1025000007F08CFD01215C480AF022F921460DF10B
:10251000070001AA12F8014B6140C9B2082311F06B
:10252000800F4FEA410118BF81F00701013BC9B29A
:10253000F5D19042EED110224E4807F06FFD4D4884
:1025400007F05CFDB7E609214C480AF001F9234683
:1025500010223946474807F061FD012146480AF03C
:10256000F7F8234610229DF80510424807F056FD63
:10257000012141480AF0ECF8102223469DF806108C
:102580003C4807F04BFD01213B480AF0E1F82146A9
:102590000DF1070001AA12F8014B6140C9B20823EE
:1025A00011F0800F4FEA410118BF81F00701013B94
:1025B000C9B2F5D19042EED110222E4807F02EFD7F
:1025C0002C4807F01BFDFEE509212C480AF0C0F855
:1025D000234610223946274807F020FD01212648CE
:1025E0000AF0B6F8234610229DF80510214807F09E
:1025F00015FD012120480AF0ABF8102223469DF872
:1026000006101C4807F00AFD01211B480AF0A0F83B
:1026100021460DF1070001AA12F8014B6140C9B231
:10262000082311F0800F4FEA410118BF81F0070124
:10263000013BC9B2F5D19042EED110220D4807F00E
:10264000EDFC0C4807F0DAFC48E507210C480AF0DD
:102650007FF8C2E507210A480AF07AF848E5072121
:1026600007480AF075F8A4E6072105480AF070F853
:102670002BE600BFD087FF1F0C390100D8310100C5
:10268000E431010038B500F50A551C3500F1B404F9
:1026900002E08C34AC420AD02046FEF701FF00284D
:1026A000F7D020468C34FEF7F5F8AC42F4D138BDB3
:1026B0002DE9F04F00218C4A8C4B016000F1B405EC
:1026C00000F50A5783B08246426203622C461C37EB
:1026D00002E08C34BC420AD02046FEF7E1FE00281E
:1026E000F7D020468C34FEF7D5F8BC42F4D1C82090
:1026F00008F0E0FA2C46012604E001363F2E04F1F2
:102700008C046ED02046FEF7CBFE0028F5D078482A
:1027100000F0DEFC3146774800F0DAFC2046FEF798
:102720008DF92046FEF7ACFE0BF0A6FD02460B46E7
:10273000714800F0CDFC2046FEF704FE804620469E
:10274000FEF71CFE834640460BF096FD8046584639
:1027500089460BF091FD42464B46CDE900016748A2
:1027600000F0B6FC00212046FEF78CFE01218046D9
:102770002046FEF787FE834640460BF07DFD8046EF
:10278000584689460BF078FD42464B46CDE900019C
:102790005B4800F09DFC2046FEF772FE0146DAF829
:1027A00000000CF00BF9CAF800002046FEF72AFEE4
:1027B000DAF818100CF0A8FB00287BD12046FEF7B1
:1027C00037FEDAF81C100CF0BDFB002895D020462F
:1027D000FEF72EFE01363F2ECAF81C0004F18C04D1
:1027E00090D1DAF804000CF09DF90146DAF8000007
:1027F0000CF0A0FADAF81410CAF8000004460CF045
:10280000A1FB08B1CAF81440DAF8101020460CF009
:102810007BFB08B1CAF810400B2008F015FA42F211
:10282000A4231AF8033000284AD1002B58D042F2D2
:10283000A42301220AF803200023CAF80C302C46F6
:1028400002E08C34BC4215D02046FEF729FE002859
:10285000F7D02046FEF792FDDAF80C100CF072FB70
:102860000028EED02046FEF789FD8C34BC42CAF821
:102870000C00E9D1234BCAF8083002E08C35BD4288
:1028800015D02846FEF70CFE0028F7D02846FEF7A4
:1028900059FDDAF808100CF037FB0028EED0284676
:1028A000FEF750FD8C35BD42CAF80800E9D103B0EF
:1028B000BDE8F08F2046FEF7A5FDCAF818007DE7B9
:1028C0002BB942F2A42300220AF80320B4E70E48F1
:1028D00000F016FC42F2A42300220AF80320ABE722
:1028E0000A4800F023FCA2E700C0794400C079C484
:1028F000F83A0100E83201002433010038330100C6
:10290000643301000000A040B833010080330100AF
:1029100042F2AC23C058704780687047C068704767
:102920000068704741607047F8B500F50A550F46DA
:1029300016461C3500F1B40402E08C34AC420FD0D2
:102940002046FEF7ADFD0028F7D020463946FEF7B9
:10295000ABFD204631468C34FEF7AEFDAC42EFD1E4
:10296000F8BD00BF2DE9F041274A284B426200F52F
:102970000A5507464FF0000803621C3500F1B40405
:10298000002602E08C34A54210D02046FEF788FDD8
:102990000028F7D02046FEF761FD1D490CF0D2FA61
:1029A00080B98C34A54206F10106EED142F2A02393
:1029B000F858801B0CF0B6F8014640460CF0BAF906
:1029C000BDE8F0812046FEF749FD014640460BF088
:1029D000F5FF80462046FEF72BFD396A0CF0B2FA6F
:1029E00060B92046FEF70EFD796A0CF08DFA0028DA
:1029F000C8D02046FEF706FD7862C3E72046FEF702
:102A000017FD3862EDE700BF00C0794400C079C40B
:102A100000008CC2006A7047406A7047F8B500F544
:102A20000A55074600261C3500F1B40402E08C3438
:102A3000AC420FD02046FEF733FD0028F7D02046E9
:102A4000FEF7AEFC014630460BF0B8FF8C34AC42CA
:102A50000646EFD142F2A023F8580CF063F8014685
:102A600030460CF067F9F8BD2DE9F04F06468FB0FF
:102A700076488B4600F0D4FA744800F0D1FA7348D7
:102A800000F0CEFA42F2A0233046F2580D92FEF743
:102A90005DFD73680C93074630680BF0EDFB8046D4
:102AA00030468946FFF7BAFF82463046B468F5687B
:102AB000FFF758FF0BF0E0FBCDE90A01214628465D
:102AC0000BF07AFF62490CF081F80BF0D5FBCDE9F1
:102AD000080128460BF0D0FBCDE9060120460BF09B
:102AE000CBFBCDE9040150460BF0C6FB0D9A0C9BC5
:102AF000CDE90201CDE90089114656483A4600F079
:102B00008FFA524800F08CFAB43601274FF0000AD1
:102B100005E001373F2F06F18C0600F08E8030462D
:102B2000FEF7BEFC0028F4D03046FDF7A3FE304689
:102B3000FDF7A4FE3046FDF7A5FE3046FDF7A6FEE4
:102B40000821454809F004FE3946444807F0A6FA32
:102B5000092F75DD0221424809F0FAFD3046FEF7E3
:102B60008FFC0BF089FB5FFA8BF902460B46CDF820
:102B700000903A4807F09CFA01213A4809F0E8FD34
:102B80005546002420E00621374809F0E1FD29469A
:102B9000324807F083FA0221344809F0D9FD214672
:102BA0003046FEF7C9FB0BF067FBCDF800900246FC
:102BB0000B462A4807F07CFA01340121294809F024
:102BC000C7FD062C09D04546092D05F10108DADCC0
:102BD0000121274809F0BCFDD5E71121254809F05E
:102BE000B7FD00213046FEF74DFC0BF045FB0224FB
:102BF00002460B460094194807F05AFA12211E4863
:102C000009F0A6FD01213046FEF73CFC0BF034FB39
:102C1000009402460B46114807F04AFA0121174872
:102C200009F096FD01370D4807F0E8F93F2F0AF14A
:102C3000060A06F18C067FF472AF0FB0BDE8F08F84
:102C400001210B4809F084FD84E700BFF83A010038
:102C500000007A446036010000370100D087FF1F72
:102C6000544701000C37010010370100FC38010007
:102C70000C390100183701002C37010040370100E2
:102C80002DE9F04F85B000F1B4058A4603929B46CA
:102C90002E464FF0010806E008F10108B8F13F0F99
:102CA00006F18C067BD03046FEF7FAFB0028F3D005
:102CB00000230A2251467D4807F0B0F901217C48E3
:102CC00009F046FD03980BF0D7FA00230246009363
:102CD00076480B4607F0ECF90121754809F038FDFC
:102CE0005946724807F0DAF90121714809F030FDC0
:102CF00041466E4807F0D2F901216D4809F028FDE0
:102D000000244FF0020921463046FEF715FB0BF078
:102D1000B3FACDF8009002460B46644807F0C8F9B4
:102D200001340121624809F013FD082C4FF002071D
:102D3000E9D100213046FEF7A5FB0BF09DFA009784
:102D400002460B46594807F0B3F90121584809F0EB
:102D5000FFFC01213046FEF795FB0BF08DFA009742
:102D600002460B46514807F0A3F90121504809F0EB
:102D7000EFFC39463046FEF785FB0BF07DFA0097F5
:102D800002460B46494807F093F908F10108474805
:102D900007F034F9B8F13F0F06F18C0683D1012713
:102DA0004FF0000904E001373F2F05F18C0579D081
:102DB0002846FEF775FB0028F5D000230A2251466D
:102DC0003C4807F02BF90121394808F053FA0398E1
:102DD0000BF052FACDF8009002460B46354807F04A
:102DE00067F90121324808F045FA5946314807F0A1
:102DF00055F901212E4808F03DFA39462D4807F0D3
:102E00004DF901212A4808F035FA00244FF0020854
:102E100021462846FEF790FA0BF02EFACDF80080F6
:102E200002460B46234807F043F9013401212048AC
:102E300008F020FA082C4FF00206E9D100212846BC
:102E4000FEF720FB0BF018FA009602460B461948D5
:102E500007F02EF90121164808F00CFA0121284646
:102E6000FEF710FB0BF008FA009602460B461148DD
:102E700007F01EF901210E4808F0FCF931462846FA
:102E8000FEF700FB0BF0F8F9009602460B460948E6
:102E900007F00EF90137074807F0B0F83F2F05F1AA
:102EA0008C0585D105B0BDE8F08F00BFD087FF1F2E
:102EB00044370100B487FF1F014B1870704700BFF3
:102EC0002087FF1F024B1878B0FA80F04009704746
:102ED0002087FF1F0278002A00F0908070B503461B
:102EE00082B00D46252A2AD158785C1C08B32528C3
:102EF0002FD0732831D0642824D0692822D06628A6
:102F00004FD07A2859D0782835D058282FD0622829
:102F10003ED0422838D06C2814D0632812D07428B0
:102F200057D054285FD009F097FC6278631C002AC0
:102F3000D8D1344802B0BDE8704007F05FB81878C7
:102F40001C46F0E72B1D29682E481D4607F0A6F801
:102F5000EBE7104609F080FCE7E72E6830460CF0FE
:102F60004FFE01463046043509F0F2FBDDE7022151
:102F7000254809F0EDFB2E1D296822480023102268
:102F8000354607F04BF8D0E70221204809F0E0FB76
:102F90002E1D29681B4800230222354607F03EF803
:102FA000C3E7073525F007050321D5E900231548B8
:102FB0000091083507F07CF8B7E7073525F00705DD
:102FC0000021D5E900230F480091083507F070F87B
:102FD000ABE7296801290EBF0D480E4801210435D1
:102FE00009F0B6FBA1E72B68012B07BF04210A48B3
:102FF0000A480521043509F0ABFB96E7014806F0C5
:10300000FDBF00BFD087FF1F483701004C370100CC
:103010005037010054370100583701006037010074
:103020000FB400B583B004A951F8040B0191FFF768
:1030300051FF03B05DF804EB04B0704770B51B4B53
:103040001B4C1B6882B00D460193019B23601946FF
:1030500004460023164617480A2206F0DFFF032124
:10306000154809F075FB032C07D8DFE804F01A15A2
:1030700010020521114809F06BFB0221104809F0EC
:1030800067FB31462846FFF725FF02B070BD0721D8
:103090000C4809F05DFBF0E704210B4809F058FBF0
:1030A000EBE70521094809F053FBE6E704BAFF1FE7
:1030B0004C92FF1FD087FF1FBC32010080370100F8
:1030C000FC380100783701007037010068370100D3
:1030D0000FB400B5094B187883B020B103B05DF888
:1030E00004EB04B0704705AB1A4604990193FFF74F
:1030F000A5FF03B05DF804EB04B070472087FF1F05
:103100000FB4094B00B51B78012B83B004D903B071
:103110005DF804EB04B0704705AB1A4604990193BF
:103120000120FFF78BFFF2E72087FF1F0FB40B4B47
:1031300000B51B78032B83B004D903B05DF804EB12
:1031400004B0704705AB1A46049901930320FFF7BA
:1031500075FF03B05DF804EB04B070472087FF1FD4
:1031600030B4074D074C084900232B7023600365DA
:103170004365836580F85C300B6030BC704700BFEE
:103180005892FF1F5492FF1F5092FF1F0A4A0B498B
:10319000106ED36D03FB00F34FF47A7000FB03F065
:1031A000642310B50B600BF0BDFC0549054C0BF01A
:1031B000C1FD206010BD00BF5C93FF1F3887FF1F5B
:1031C000E4388E3EA892FF1F10B5074C204606F04B
:1031D00015FF064B2046196806F060FF03210448DE
:1031E000BDE8104009F0B4BAD087FF1FE894FF1F74
:1031F0008837010038B5044608460D460CF000FD3E
:103200002368024629465B682046984705462046C3
:1032100006F0F4FE284438BDF8B54B484B4C4C4EF4
:103220004C4FFFF7FDFE4C4B4C484D4A4D49586002
:1032300014254D481D70DA604C4D1C6100224FF47E
:10324000FA749E619F624A4E4A4FD961D8624FF02C
:103250007C5149481D639A63484D9C860C22484C1A
:10326000DE631F64474ED9649627022118655D65A9
:103270000120454D9A655C6200223224C3F8C86083
:10328000A3F8667064264FF49677597059721872D5
:10329000D8651D625D615D6483F84820C3F8A8406D
:1032A0001E66A3F86A70A3F864700A25A3F8684044
:1032B000C3F88010C3F88400C3F89040C3F8B0404E
:1032C000C3F8B80041F204045A20C3F8BC102F49D7
:1032D000DA6740F61C4CC3F88820C3F8AC204FF4E2
:1032E0007A7EC3F8C06083F8CD2083F8CE20284FC3
:1032F0001D6741F2883244F62066FF255C679867B7
:1033000005244FF41670C3F8981040F2D661C3F844
:103310006CC0C3F894E0C3F89C70C3F8A060C3F815
:10332000B450A3F8C640A3F8D000A3F8D400A3F883
:10333000D220A3F8D620C3F88C20A3F8C420A3F889
:10334000A410A3F8A610F8BD8C370100000040407F
:1033500033338340CDCCCC3D5C93FF1F20A10700CD
:1033600066668640CDCC4C4000008242000020C101
:10337000000020420000A0409A9979400AD7233DDE
:10338000333373409A99993ECDCC4C3E00001144A2
:1033900000F0C845F0B54FF47A6087B007F08AFCBA
:1033A00000210F2007F05EFC00210E2007F05AFCE0
:1033B0000021112007F056FC0021102007F052FCDC
:1033C0000021122007F04EFC0021132007F04AFCD8
:1033D00001210B2007F046FC01210C2007F042FCE4
:1033E0000121142007F03EFC0121152007F03AFCD2
:1033F0000121162007F036FC0121172007F032FCCE
:1034000001210520B34CB44D07F02CFC012106200E
:1034100007F028FC01210D2007F024FC20880BF088
:103420007DFB0146162007F087FB20880BF076FB1A
:103430000146172007F080FB20880BF06FFB014648
:10344000052007F079FB20880BF068FB0146062079
:1034500007F072FB05F1D8062F462C46601B07F0DB
:103460003BF804F8010BA642F8D13B78142B01D0AD
:10347000FFF7D2FE002423467968984A00949848C2
:1034800005F0ECFF9DF81430049443F0010364F35D
:1034900041038DF814300424E2B204A901349048A9
:1034A00005F0A2FF102CF7D18E4D4FF0FF322868A7
:1034B000214605F071FA28684FF0FF32214605F0E9
:1034C00043FA28684FF0FF32042105F051FA2868CA
:1034D0004FF0FF32012105F055FA00220F21286834
:1034E00005F064FA0C21804809F032F97F4806F0B3
:1034F00085FD21467E4809F02BF97C4806F07EFDCB
:1035000040F2836007F094FC784806F077FD1721BD
:10351000784809F01DF9754806F070FD764B1B7868
:10352000990600F11B81744B1B781A0700F1C980C2
:10353000714B1B785B0700F1BC806F4B1B789E07BB
:1035400000F1A3806D4B1B781D0600F1AA806B4B28
:103550001B785C0600F19180684B1B78980600F19F
:103560008480664B1B78590777D4644B1B781A0705
:103570006BD4624B1B789B0706D51821604809F075
:10358000E7F85A4806F03AFD584806F037FD72B69B
:103590005C4A4CF220534DF62811202513802B460F
:1035A0001180013BFDD158485849594B00244FF434
:1035B000805606800C801C8032F80E3C9BB243F093
:1035C000D30322F80E3C62B69D2008F02FF829465E
:1035D000504809F0BDF8454806F010FD4E48FEF78A
:1035E00055FC0420FFF768FC4C4B4B481C60FEF771
:1035F00089FB01210D2007F021FBF96D4648484C5D
:10360000FFF790F9FA6C97F848104348FFF78CF9E8
:10361000444B45491B68454A3F48126881FB0351AA
:10362000DB17A3EB211313FB02F32380FEF71EFD30
:103630003F4B40491A68039203981B680293029A11
:103640003D4B08601A6007B0F0BD19213B4809F0F6
:103650007FF8264806F0D2FC8BE71C21384809F099
:1036600077F8224806F0CAFC7FE71321354809F0B5
:103670006FF81E4806F0C2FC73E71221324809F0C9
:1036800067F81A4806F0BAFC66E717212F4809F0D8
:103690005FF8164806F0B2FC184B1B781D067FF544
:1036A00056AF0E212A4809F053F8104806F0A6FC40
:1036B0004DE70E21274809F04BF80C4806F09EFC18
:1036C0003BE70C21244809F043F8084806F096FC33
:1036D0002EE700BF2887FF1F5C93FF1FDCB9FF1F89
:1036E00040B8FF1FF094FF1FAC370100D087FF1FC9
:1036F000BC370100D037010001F0074000F007405F
:10370000B83801000E200540042005400620054081
:1037100016200540D43801009095FF1F7092FF1FBE
:10372000FC94FF1F6487FF1F1F85EB516087FF1FFD
:1037300004BAFF1F2895FF1FA494FF1F9C380100A7
:103740007C38010068380100543801002C38010031
:10375000443801001C3801000C38010021210348C5
:1037600008F0F6FF024806F049FCDCE6E837010005
:10377000D087FF1F70B5464C464D4748E66800238A
:103780002B70FFF7CBF8014630460BF0BDFB08B1BC
:1037900004232B704048FFF7BFF821690BF0B4FBFE
:1037A00018B12B7843F010032B703B48FFF732F928
:1037B000E16A0BF0C7FB18B12B7843F040032B7084
:1037C000002335486B70FFF727F9216B314E0BF062
:1037D0009BFB08B10123737000232F48EB70FFF7A8
:1037E0009DF805462C482B4EFFF796F801462846D3
:1037F0000BF0E2F8616C0BF0A5FB08B10123F3704C
:10380000264D254800232B70FFF788F8A16A06464D
:10381000E0680BF0D1F8014630460BF093FB08B19D
:1038200004232B701C48FFF777F8A16A064620692D
:103830000BF0C4F8014630460BF066FB18B12B784C
:1038400043F010032B701448FFF7E4F8216C064690
:10385000E06A0BF0B1F8014630460BF073FB18B18B
:103860002B7843F040032B7000230B486B70FFF75D
:10387000D3F8216C0546206B084C0BF09FF80146ED
:1038800028460BF041FB08B10123637070BD00BFF7
:103890005C93FF1F5893FF1F9095FF1FE494FF1F39
:1038A0002DE9F0417C4C2368012B82B02FD0022BF4
:1038B0005ED0032B7ED03BBB784B794AD3F8B01057
:1038C000D3F8B43012685B1A632B0EDD754803FB26
:1038D00002F380FB0302DB17C3EB621319440620DB
:1038E00002B0BDE8F04107F029B86F4803FB02239E
:1038F00080FB0302DB17C3EB22121144062002B047
:10390000BDE8F04107F01AB802B0BDE8F081674E9B
:1039100033680A33B3F57A7F6EDC184633600BF0F8
:1039200001F963490BF052F980465C4DD5F8B000BF
:103930000BF0F8F80746D5F8B4000BF0F3F8394669
:103940000BF03AF841460BF041F95A490BF0F2F905
:1039500039460BF033F80BF015FB0146062006F054
:10396000EDFF554B1B68002B4BD12368022BA0D1D8
:103970004E4B4A4E00221A60D6F8B0000BF0D2F837
:103980000546D6F8B4000BF0CDF829460BF014F834
:1039900000210BF01BF947490BF0CCF929460BF03D
:1039A0000DF80BF0EFFA0146062006F0C7FF23687A
:1039B000032B80D13D4B394E4FF47A721A60D6F802
:1039C000B0000BF0AFF80546D6F8B4000BF0AAF83B
:1039D00029460AF0F1FF37490BF0F8F835490BF0AA
:1039E000A9F929460AF0EAFF0BF0CCFA01460620B5
:1039F00006F0A4FF23685EE700234FF00008336061
:103A000093E702212D4808F0A3FE2D4806F0F6FAB0
:103A100006212C4808F09CFE30680BF083F82449FE
:103A20000BF0D4F80AF028FC022702460B46009758
:103A3000234806F03DFB0D21234808F089FED5F808
:103A4000B0000BF06FF8804630680BF06BF8184947
:103A50000BF0BCF80646D5F8B4000BF063F841460D
:103A60000AF0AAFF014630460BF0B0F811490BF0FE
:103A700061F941460AF0A2FF0AF0FEFB00970246F8
:103A80000B460F4806F014FB39460C4808F060FE60
:103A90000B4806F0B3FA68E7CC94FF1F5C93FF1F56
:103AA0003887FF1F1F85EB51CBF08D287492FF1FC5
:103AB000CDCCCC3D0000C8424087FF1F54470100D9
:103AC000D087FF1FF83801000039010030B5B64833
:103AD000B64C83B006F092FAB34806F08FFAB248BB
:103AE00006F08CFA0D21B24808F032FED4F8AC3062
:103AF000012B11D0AF4DAC48297800230A2206F0E3
:103B00008DFA2B78052B69D8DFE813F03E014301CD
:103B10004801900195019A010921A74808F018FE73
:103B2000A648FEF7F9FE21690BF0EEF918B10F2156
:103B3000A34808F00DFEA148FEF7F0FEE1680BF087
:103B400001FA18B10E219F4808F002FE9B48FEF7CB
:103B5000E5FE05469948FEF7DFFE014628460AF0D5
:103B60002BFF616C0BF0EEF918B11121964808F0AB
:103B7000EFFD9248FEF7F6FEE16A0BF0E3F918B1AB
:103B80000C21924808F0E4FD8C48FEF7EBFE216B17
:103B90000BF0BAF918B10D218D4808F0D9FD8D4B05
:103BA00086481B68012B00F06F81FEF7B5FE216986
:103BB0007E4D0BF0C7F9002800F0E4807F48FEF747
:103BC000ADFEE9687B4D0BF09FF938B12B78052BE2
:103BD00000F06C810821804808F0BAFD02217F487E
:103BE00008F0B6FD122007F02FF8012800F034810C
:103BF000112007F029F8012800F03881784B1B6864
:103C0000012B00F03C8102217448764C08F0A0FDA5
:103C1000754B6548196806F041FA634806F0EEF9FD
:103C20000421724808F094FD0B2007F00DF80023E2
:103C300001460A225C4806F0F1F90C2007F004F86E
:103C4000002301460A22584806F0E8F9142006F03D
:103C5000FBFF002301460A22534806F0DFF9152036
:103C600006F0F2FF0A22002301464F4806F0D6F97B
:103C700006215F4808F06CFD2368DB074FF0010167
:103C80004CBF5C485C4808F063FD236898074FF020
:103C900001014CBF5748584808F05AFD23685A079D
:103CA0004FF001014CBF5348534808F051FD2368C1
:103CB0001B074CBF4F485048012108F049FD042123
:103CC0004E4808F045FD112006F0BEFF00230146D6
:103CD0000A22354806F0A2F9102006F0B5FF0023AD
:103CE00001460A22304806F099F9122006F0ACFF8E
:103CF000002301460A222C4806F090F9132006F012
:103D0000A3FF0A2200230146274806F087F918215D
:103D10003B4808F01DFD3B4B18880AF003FF3A4969
:103D20000AF054FF0AF0A8FA002402460B46009459
:103D30001D4806F0BDF91D21344808F009FD344B3B
:103D400018880AF0EFFE30490AF040FF0AF094FAB2
:103D500000940B460246144806F0AAF902212D48A9
:103D600008F0F6FC2B78032B01D003B030BD2A4BB2
:103D70001B78002B69D029481D2103B0BDE83040D5
:103D800008F0E6BC0B4D29E70621254808F0E0FCC9
:103D900024E70721234808F0DBFC1FE7072122481E
:103DA00008F0D6FC1AE700BFD087FF1F5C93FF1F07
:103DB00010390100E094FF1F203901009095FF1F8A
:103DC0002C3901003C3901004C39010060390100F7
:103DD000703901008892FF1FA43901005447010087
:103DE000F894FF1F3494FF1FD094FF1F183A01006E
:103DF000203A0100283A01002C3A0100303A010033
:103E0000383A01006492FF1FCDCCCC3D543A0100FA
:103E1000EC94FF1F743A01003093FF1F943A0100A5
:103E2000B0390100B8390100CC390100082122481D
:103E300008F08EFCD2E60B21204808F089FCCDE684
:103E400007211F4808F084FCC8E61E48192103B06A
:103E5000BDE8304008F07CBC0E211B4808F078FC1F
:103E6000112006F0F1FE01287FF4C8AE0A211748A0
:103E700008F06EFC164B1B68012B7FF4C4AE1121B9
:103E8000144808F065FCBEE6FEF746FD616A0BF0DB
:103E900059F848B116211048104D08F059FC0A2174
:103EA0000F4808F055FC99E60C4D93E60A210C48A2
:103EB00008F04EFC92E600BFD4390100C039010081
:103EC000E0390100783A0100E8390100F8390100D1
:103ED000F894FF1F043A010080390100E094FF1FAD
:103EE000983901002DE9F04FAF4CD4F88030012B08
:103EF0008DB000F08181032BDFF8F08262D0AB4EF1
:103F0000AB4FE36FAB48012B09BF3968396801F14A
:103F10000041396005F068FE3368002B40F02981CC
:103F2000A448DFF8C89205F035FE3368C8F80000F1
:103F30000546002B40F0CC80D4F880309A4A012B03
:103F400000F0DB809C4928460AF0FCFFC0B99B4981
:103F500028460AF0D9FF98B9994A9A4B12680B92F1
:103F60000B9A1A60D4F8B8000AF0DCFD29460AF072
:103F70002DFE0023C8F800003B600DB0BDE8F08FB7
:103F8000DFF83CA28F4EDAF800300A930A983368C3
:103F9000DFF85C92C01A0AF0C1FD29460AF016FE4D
:103FA00089490AF0C7FE88490AF0C4FED9F8001012
:103FB0000AF004FDDAF800300993099BC9F8000003
:103FC0003360CFE7814D824E2868012300220F2104
:103FD000336004F0EBFC3368744E012B336800F05F
:103FE0003181002B40F0CE8100212868DFF8049257
:103FF000764F04F02DFD33681FFA80FBC9F800B03E
:10400000002B40F0A48100212868694FDFF8BCA193
:1040100004F0A4FCB4F8A63040F6E44101FB0BF137
:10402000B1FBF0F0C01A00B20AF07CFD694983468A
:10403000D4F898000AF0CAFD014658460AF07AFE04
:10404000D9F800303860632BDFF8A8B100F3738132
:1040500000233B603368002B3FF453AF02215E48DE
:1040600008F076FBD9F80020286840F6E4430021E8
:1040700003FB02F504F072FCB5FBF0F00AF04EFD14
:104080000546B4F8A6000AF04DFD014628460AF0A0
:1040900093FC0AF0F1F8022502460B4600954F48C2
:1040A00006F006F829464C4808F052FB38680AF03A
:1040B000E3F8009502460B46484805F0F9FF29460B
:1040C000474808F045FB2946434808F041FB18E7FC
:1040D0000AF0D2F8022502460B4600953F4805F04B
:1040E000E7FF04213F4808F033FBD4F88030D9F8CB
:1040F00000502D4A012B7FF425AF354B1B68012B57
:1041000000F04C81022B7FF42DAFD2F8A060304636
:104110000AF008FD29460AF0F7FE40B970420AF09D
:1041200001FD29460AF00EFF002800F06A81DFF841
:1041300090A0244EDAF80030079307983368DFF830
:10414000B090C01A0AF0EAFC29460AF03FFD1E4969
:104150000AF0F0FD1C490AF0EDFDD9F800100AF054
:104160002DFCDAF800300693069BC9F80000336096
:10417000F8E6104805F00EFD0AF07EF8022502462A
:104180000B460095154805F093FF0321164808F0EB
:10419000DFFAD4F8A010114805F080FF032112487F
:1041A00008F0D6FABCE600BF5C93FF1F1C95FF1F0A
:1041B0008492FF1F3493FF1F0000FA430000FAC3EC
:1041C00004BAFF1F5C92FF1F00007A44F094FF1FA7
:1041D0005487FF1F9175DD3654470100D087FF1FBC
:1041E000F03A0100F43A0100C03201009492FF1F3E
:1041F000A892FF1F5493FF1FDFF8B882D4F8A06085
:10420000D8F8005030460AF08DFC29460AF09AFE94
:1042100048B170420AF086FC014628460AF092FE38
:1042200000287FF4CFAE914D914E286802230022E2
:104230000E21336004F0BAFB33688E4E012B3368D5
:104240007FF4CFAE002B40F0FE8000212868DFF81D
:104250006892864F04F0FCFB33681FFA80FBC9F8B4
:1042600000B0002B40F0D48000212868824F04F079
:1042700075FBB4F8A43040F6E44A0AFB0BFBBBFB29
:10428000F0F0C01A00B20AF04DFC7C498346D4F825
:104290009C000AF09BFC014658460AF04BFDD9F8F9
:1042A00000303860002128680AFB03FA04F056FB4E
:1042B000B4F8A430BAFBF0F00FFA80FAC3EB0A03AB
:1042C000002BB4F8C620B8BF5B429342BCBF0023AA
:1042D0003B603368002B3FF414AE0221684808F0BD
:1042E00037FAD9F80020286840F6E443002103FBA0
:1042F00002F504F033FBB4F8A410B5FBF0F000B203
:10430000411A604805F0CAFE02215D4808F020FA13
:10431000386809F0B1FF022502460B46009559485E
:1043200005F0C6FE0321584808F012FA2946544801
:1043300008F00EFAE5E5DAF80000002104F00EFBC3
:10434000DBF8003064389842FFF482AE82E6002148
:10435000386804F003FB40F6E44100230A2201FB25
:104360000BF1B1FBF0F1474805F058FE022144483B
:1043700008F0EEF9B4F8A610424805F08FFED9F81F
:1043800000B040E63F4805F039FE0C213F4808F0F8
:10439000DFF90C213E4808F0DBF925E63D492846C7
:1043A0000AF0D0FD58B93C4928460AF0ADFD30B9B5
:1043B0003A4A3B4B12680592059A1A60D2E5DFF83B
:1043C000DCA0374EDAF80030049304983368DFF845
:1043D000EC90C01A0AF0A2FB29460AF0F7FB31491B
:1043E0000AF0A8FC2F490AF0A5FCD9F800100AF041
:1043F000E5FADAF800300393039BC9F80000336054
:10440000B0E5264A264B12680892089A1A60A9E578
:104410000021386804F0A2FA40F6E44100230A22A1
:1044200001FB0BF1B1FBF0F1164805F0F7FD01219E
:104430001D4808F08DF9B4F8A410124805F02EFEBE
:10444000D9F800B010E70F4805F0D8FDD4F8803057
:10445000012B4FF00B010CBF1448154808F078F9F8
:104460000C210B4808F074F9EFE600BFF094FF1F31
:104470005487FF1F1C95FF1F8492FF1F9175DD3627
:1044800054470100D087FF1FDC3A0100E03A0100E9
:10449000CC3A01000000FA430000FAC304BAFF1F3F
:1044A0005C92FF1F00007A440C390100B43A01000D
:1044B000C03A01009492FF1F5493FF1FA892FF1F60
:1044C0002DE9F04F914D2B6883B0002B00F08380D5
:1044D0008F4CDFF84482D4F88830DFF87C928D4E20
:1044E0008B4F012B00F0B380D6F800A0D7F860B056
:1044F000FD6D894F05FB0BF54FF47A7000FB05F05D
:104500000AF010FB8549054650460AF05FFB294634
:104510000AF010FC82490AF059FB0AF033FD6328C7
:10452000C8F800004CDD28467C490AF003FC6423EF
:104530003B60D9F800303060002B49D0D4F880308F
:10454000734D012B00F0B180032B00F0D780022BBC
:1045500000F0CF800221734808F0FAF8724B186817
:1045600009F08AFE022402460B4600946F4805F0CB
:104570009FFD21466E4808F0EBF82146694808F097
:10458000E7F8D8F80010694805F088FD0621694869
:1045900008F0DEF8306861490AF018FB09F06CFE9B
:1045A000009402460B46614805F082FD03216248F3
:1045B00008F0CEF85D4803B0BDE8F04F05F01EBD31
:1045C0000028BCBF00233B60D9F80030002BB5D1D8
:1045D00003B0BDE8F08F59484D4CFEF71FFA58491B
:1045E000E76E266F0AF0F2FA0AF0F2FC626FA36F30
:1045F000D21B9B1B80B29A42A0EB070062DC03FB3C
:1046000000F393FBF2F31E44DFF84C91DFF80881CE
:10461000D9F80030C8F80060002B5AD13346206E1C
:10462000E26D3C4E3A4F00FB03F002FB00F000EB62
:10463000800040000AF076FA38490AF07BFB01233B
:104640002B60D4F888303060012B7FF44DAF3B48AD
:10465000FEF7E4F93A49D7F86CA03D6F0AF0B6FAD4
:104660000AF0B6FC7A6FBB6FD4F860B0CAEB0202F6
:104670005B1B80B29A42CAEB0000C6BF03FB00007E
:104680000132584390FBF2F02844E56D00FB0BF03B
:1046900005FB00F000EB800040000AF043FA1F49E0
:1046A0000AF048FB8246306023E7264B1B68012B4B
:1046B0004FF00A010CBF2448244808F049F8D5F807
:1046C000803041E703FB0000531C90FBF3F00644ED
:1046D0009AE70221134808F03BF8D8F80010134875
:1046E00005F0DCFC02210F4808F032F8D8F8003061
:1046F00095E70721164808F02BF82BE710211548FD
:1047000008F026F8D4F8803021E700BF8092FF1F20
:104710005C93FF1FA892FF1F3887FF1FE4388E3E6F
:104720000000C842544701009492FF1FD087FF1F2A
:10473000F03A0100303B0100383B01009095FF1F2B
:1047400000007A445487FF1FFC3A0100083B010037
:10475000283B0100143B01004087FF1F30B51120AA
:1047600083B006F071FA012818D0122006F06CFA16
:10477000012813D000210B2006F060FA00210C2044
:1047800006F05CFA0021152006F058FA2649274B5E
:104790000120002208701A6003B030BD01211520ED
:1047A00006F04CFA224A234C234B1268D4F88C10A2
:1047B00001921B68019A1D4D0B4493424FF0020178
:1047C000296005D901210C2006F038FA03B030BD6C
:1047D000D4F894000AF0A6F9184B19680AF094FB73
:1047E0000028EFD101210B2006F028FA94F8CC30F4
:1047F0000324012B2C600DD0122006F025FA01288D
:1048000008BF094B4FF0110008BF1C7006F01CFADE
:10481000012802D1044B02221A7000210C2006F05C
:104820000DFA03B030BD00BFE094FF1F1895FF1FC5
:1048300004BAFF1F5C93FF1F2895FF1F9492FF1F70
:10484000F0B56D4E6D4D34682B689C4287B03AD000
:1048500014F0010156D014F002014AD014F0040102
:104860003ED0E3070FD52B68DF070CD4644F3A68BE
:10487000002A00F09E80634B1B680193019B9342CA
:1048800000F289803468A0070DD52B6899070AD4F7
:104890005D4F3A68002A3ED05A4B1B680393039B36
:1048A00093425AD8346862070DD52B685B070BD446
:1048B000564F3A68002A3FD0524B1B680593059B20
:1048C000934258D834680CB107B0F0BD2146162089
:1048D00006F034F82146172006F030F807B0F0BD96
:1048E000052006F02BF82B68346803F0FB032B60DF
:1048F000B7E7172006F022F82B68346803F0FD03B1
:104900002B60ABE7162006F019F82B68346803F02B
:10491000FE032B609FE73E4B1B68002B56D1FF2107
:10492000172006F00BF8374B3A4A196802910299A2
:1049300012680A443A60B0E7354B1B68002B50D12F
:10494000FF21052005F0FAFF2E4B324A1968049129
:10495000049912680A443A60AFE72F4B1720D3F846
:10496000901005F0EBFF2B68346843F0020300223F
:104970002B603A6097E7284B0520D3F8901005F09C
:10498000DDFF2B68346843F0040300222B603A609B
:10499000002C99D19AE7204B1620D3F8901005F0FF
:1049A000CDFF2B68346843F0010300222B603A608E
:1049B00069E7FF21162005F0C1FF124B154A19685F
:1049C0000091009912680A443A6055E7134805F0CF
:1049D00015FB0C21124807F0BBFE104805F00EFB3A
:1049E0009DE70E4805F00AFB0C210E4807F0B0FECB
:1049F0000A4805F003FBA3E71895FF1F3494FF1F37
:104A0000B094FF1F04BAFF1FB494FF1FB894FF1F98
:104A10004087FF1F7087FF1F5C93FF1FD087FF1F1A
:104A20003C3B01004C3B01002DE9F047544EDFF8C0
:104A30007481DFF874913068524D00220F2103F029
:104A4000B5FF0023012222214F48C8F80030C9F8E1
:104A5000002007F07DFED8F80030132B22DC40F652
:104A6000E44700213068B5F8A4A003F0F1FF00216D
:104A70000446306803F072FFA4B2012107FB04F47E
:104A8000B4FBF0F441485444A5F8A44007F060FE9C
:104A9000642006F00FF9D8F800300133132BC8F862
:104AA0000030DEDDB5F8A430394A3A48A2FB0312E3
:104AB0009B1A02EB5303C3F30F131946A5F8A43056
:104AC00005F0ECFA1D21344807F042FE022133487C
:104AD00007F03EFE2F4805F091FA00231A460E21FA
:104AE0003068C8F8003003F061FF02232221264815
:104AF000C9F8003007F02CFED8F80030132B22DC68
:104B000040F6E44700213068B5F8A69003F0A0FF16
:104B100000210446306803F021FFA4B2012107FB05
:104B200004F4B4FBF0F419484C44A5F8A64007F08F
:104B30000FFE642006F0BEF8D8F800300133132BC6
:104B4000C8F80030DEDDB5F8A630114A1148A2FBE6
:104B500003129B1A02EB5303C3F30F131946A5F874
:104B6000A63005F09BFA1D210D4807F0F1FD02214A
:104B70000A4807F0EDFD0748BDE8F04705F03EBAEA
:104B8000F094FF1F5C93FF1F5C3B0100A03B010002
:104B900087611886D087FF1F803B010054470100C2
:104BA000A43B0100D494FF1F5487FF1F2DE9F84355
:104BB000C04BC14CC14E1B68B06D40F25131082250
:104BC0002160E271002B40F06F8109F0ABFFB16909
:104BD000054609F0FBFFBA49B84F09F0F7FF0AF0A4
:104BE000F7F980B203126372B64AB74B12881B887A
:104BF0002072A37228461B121512E3722273F16908
:104C0000657309F0E3FFAE49AB4D09F0DFFF0AF031
:104C1000DFF983B21A122946AC48A373E27304F099
:104C200015FEAB4AAB4B12681988A172D3B223723E
:104C300003EB83035B00237302EB820343F3D7137D
:104C40004FEA212E12124FF008084FF000092946B2
:104C500063739E4884F80BE040F255336272236020
:104C600084F8078084F80E9084F80F9004F0EEFD2D
:104C700040F256339848236084F80780FDF750FED1
:104C8000964909F0A3FF0AF0A3F920729248FDF7B4
:104C900047FE924909F09AFF0AF09AF9904A8F4923
:104CA000C0F30723637210680AF044F80AF06AF947
:104CB00040FA08F3A0728848E372FDF753FE80497A
:104CC00009F084FF0AF05EF920738348FDF74AFE7D
:104CD0007B4909F07BFF0AF055F940F3072029468C
:104CE00060737A4884F80E9084F80F9004F0AEFD5B
:104CF000022005F0DFFF7B4A7B4B1178217251784F
:104D000090786172D178A0721A789878E1725978A7
:104D100022736173DA78A07340F25A3329466B48E4
:104D2000E273236084F8078004F090FD6F4B6748BE
:104D30001A7822725A7862729A78A272DA78E272DB
:104D40001A7922735A7962739A79DB79E373294667
:104D500040F25E33A273236084F8078004F076FD8E
:104D6000022005F0A7FF624B58481A7822725A7841
:104D700062729A78A272DA78E2721A7922735A7998
:104D800062739A79DB79E37329464FF45C7323608D
:104D900084F80780A27304F059FD564B1B68012B61
:104DA00000F0AE80022005F085FF336E23730225EC
:104DB00000221B12284640F27338082763732272C0
:104DC000012362729922A273E372E373A572C4F89D
:104DD0000080E77105F06EFF3F48C4F80080E7717E
:104DE000FDF79AFD444909F0F1FE0AF0F1F820724E
:104DF0003948FDF791FD404909F0E8FE0AF0E8F86E
:104E0000C0F3072334486372FDF788FD3A4909F07F
:104E1000DDFE0AF0DDF8A0722F48FDF77FFD364970
:104E200009F0D4FE0AF0D4F8C0F307232A48E3724D
:104E3000FDF7F2FD314909F0C1FD0AF0C9F8207310
:104E40002548FDF7E9FD2D4909F0B8FD0AF0C0F845
:104E5000C0F3072320486373FDF7DCFD274909F001
:104E6000ADFD0AF0B5F8A0731B48FDF7D3FD23494B
:104E700009F0A4FD0AF0ACF80F49C0F3072313486A
:104E8000E37304F0E3FC284605F014FFF26D336E83
:104E9000E57112FB03F3C3F3072140F27932237269
:104EA00061722260BDE8F88309F03CFE716A054634
:104EB0008FE600BF8892FF1F0895FF1F5C93FF1FBE
:104EC00000002041EC94FF1F6492FF1F40B8FF1FB9
:104ED0003887FF1F3C87FF1F9095FF1F0000C842C7
:104EE0009492FF1F5893FF1FE494FF1F2C87FF1F0E
:104EF0005887FF1FF894FF1F00007A4433938843BC
:104F00002648FDF709FD796D09F058FD81462348D3
:104F1000FDF704FD0146484609F0F6FF00283FF47E
:104F200041AF40F2C3331D4885F807802B60FDF781
:104F3000F3FC3F6D394609F0E7FFC8B11849384620
:104F400009F044FE0AF044F880B240FA08F36872AF
:104F50002B72002301270425032212491248A7724D
:104F6000E57222736373A373E37304F06FFC19E7B4
:104F70000A48FDF7D1FC0A4909F028FE0AF028F892
:104F8000C0F3072305482B72FDF7C6FC044909F05E
:104F90001DFE0AF01DF86872DBE700BF9095FF1F49
:104FA00000007A440895FF1F40B8FF1FF0B57C4C05
:104FB0007C4E83B007F066FB23683060042B00F062
:104FC000E782092B00F06982022B4CD1A0F131035A
:104FD000422B52D8DFE813F0A208AE084A08550069
:104FE00082089308240833085100510051005100F1
:104FF0005100510051005100510051005100510029
:105000005100510051005100510051005100510018
:105010005100510051005100510051005100510008
:1050200051005100510051005100510051005100F8
:1050300051005100510051005100510043005100F6
:1050400051005100510051005100510051005100D8
:105050005100510051005100730051004008FFF70A
:10506000E3FC23683068082B1CD1322800F0B98398
:10507000712824D0312800F0FE86732823D003B095
:10508000F0BD0123236007F039FB002807DD464807
:10509000464D05F047F909F045FDC5F89C00632031
:1050A00023683060072B40F0A380332801F075851A
:1050B00040F3F882342801F049857128DDD10022BF
:1050C0007323226033602368002BD8D1384D3648D3
:1050D00004F094FF0421374807F03AFB324804F00B
:1050E0008DFF1021344807F033FB2F4804F086FF72
:1050F0001321324807F02CFB314B2B48196804F080
:10510000CDFF294804F07AFF14212E4807F020FB38
:10511000254804F073FF1E212B4807F019FB224895
:1051200004F06CFF1521294807F012FB1E4804F01B
:1051300065FF1E21264807F00BFB1B4804F05EFFAD
:105140002021244807F004FB174804F057FF1921D9
:10515000214807F0FDFA144804F050FF12211F48BF
:1051600007F0F6FA104804F049FF19211C4807F02F
:10517000EFFA0D4804F042FF0F211A4807F0E8FA51
:10518000094804F03BFF0D21174807F0E1FA0648F3
:1051900004F034FF002201232A60236003B0F0BD35
:1051A000AC92FF1F6092FF1FD087FF1F5C93FF1F11
:1051B0004087FF1F10400100184001002C400100F3
:1051C0002487FF1F40400100584001007840010043
:1051D00090400100B0400100D4400100F0400100C7
:1051E0000441010020410100304101002368306882
:1051F000062B40F08D80A0F13103402B3FF63DAFF0
:1052000001A252F823F000BF795F0000A55F000003
:10521000D15F0000F95F0000CF610000E361000092
:10522000516100008D610000A96100007B50000009
:105230007B5000007B5000007B5000007B50000042
:105240007B5000007B5000007B5000007B50000032
:105250007B5000007B5000007B5000007B50000022
:105260007B5000007B5000007B5000007B50000012
:105270007B5000007B5000007B5000007B50000002
:105280007B5000007B5000007B5000007B500000F2
:105290007B5000007B5000007B5000007B500000E2
:1052A0007B5000007B5000007B5000007B500000D2
:1052B0007B5000007B5000007B5000007B500000C2
:1052C0007B5000007B500000076200007B50000014
:1052D0007B5000007B5000007B5000007B500000A2
:1052E0007B5000007B5000007B5000007B50000092
:1052F0007B5000007B5000007B5000007B50000082
:105300007B5000007B500000BF50000023683068D5
:10531000052B15D1332801F0778440F3E981352836
:1053200001F06484C1F24C8471287FF4A6AEEB498D
:10533000002373220B6023603260C4E62368306868
:10534000032B40F0A480A0F13003422B3FF695AE32
:1053500001A252F823F000BF65540000416800002C
:10536000696800006569000087690000A96900009C
:1053700019680000D5670000F3670000536700005C
:105380007B5000007B5000007B5000007B500000F1
:105390007B5000007B5000007B5000007B500000E1
:1053A0007B5000007B5000007B5000007B500000D1
:1053B0007B5000007B5000007B5000007B500000C1
:1053C0007B5000007B5000007B5000007B500000B1
:1053D0007B5000007B5000007B5000007B500000A1
:1053E0007B5000007B5000007B5000007B50000091
:1053F0007B5000007B5000007B5000007B50000081
:105400007B5000007B5000007B5000007B50000070
:105410007B5000007B5000007B5000007B67000049
:10542000356700009762000099670000B7670000C9
:10543000EF6800002F620000536200007B50000004
:1054400079620000916800007B5000007B500000F2
:105450007B5000007B5000007B500000BF500000DC
:10546000B968000007F04AF9002841F368839C48B6
:105470009C4D04F057FF01270346014662229A48DB
:10548000EB6527603260FDF74DFA23683068012B29
:1054900027D073287FF4F3AD15E6924D914A95F825
:1054A000CE30012B84BF002385F8CE3095F8CD3067
:1054B000012B02D9002382F8CD30322800F0F78486
:1054C00071283FF4FCAD31287FF4D7AD95F8CD308D
:1054D000B3FA83F35B090122782085F8CD3022608E
:1054E0003060A0F15203262B3FF6C7AD01A252F85F
:1054F00023F000BFF16900007B5000007B500000EA
:105500007B5000007B5000007B5000007B5000006F
:105510007B5000007B5000007B5000007B5000005F
:105520007B5000007B5000007B5000007B5000004F
:10553000115800007F6E0000955D0000D35B0000F5
:10554000A55A00007B5000007B5000007B500000FB
:10555000095A00007B500000796E00007B5000006B
:105560007B5000007B5000007B5000007B5000000F
:10557000D16900007B5000007B5000007B50000090
:105580007B5000007B5000007B500000F958000069
:10559000A0F13103402B3FF670AD01A252F823F089
:1055A000D95E0000F15E0000F55E0000175F0000AC
:1055B000595F0000475F0000755F00001B5F00003F
:1055C0001F5F00007B5000007B5000007B500000FC
:1055D0007B5000007B5000007B5000007B5000009F
:1055E0007B5000007B5000007B5000007B5000008F
:1055F0007B5000007B5000007B5000007B5000007F
:105600007B5000007B5000007B5000007B5000006E
:105610007B5000007B5000007B5000007B5000005E
:105620007B5000007B5000007B5000007B5000004E
:105630007B5000007B5000007B5000007B5000003E
:105640007B5000007B5000007B5000007B5000002E
:105650007B5000007B5000007B5000007B5000001E
:105660007B5000007B5000007B5000007B5000000E
:105670007B5000007B5000007B5000007B500000FE
:105680007B5000007B5000007B5000007B500000EE
:105690007B5000007B5000007B5000007B500000DE
:1056A000BF500000312801F0628232287FF4E5AC5F
:1056B00007F024F800287FF799AD0948094D04F058
:1056C00031FE09F02FFA094909F080FA612301221D
:1056D000686422603360184603E700BFCC94FF1F64
:1056E000D087FF1F5C93FF1F9095FF1F6F12833AB7
:1056F000312801F09A8232287FF4BFAC06F0FEFF19
:1057000000287FF71BAEA448A44D04F00BFE012235
:105710006B23C5F894002260336001E006F0B2FF0D
:1057200006F0ECFF0028F9D19B4804F067FC9A488A
:1057300004F064FC984804F061FC974804F05EFCB7
:10574000954804F05BFC2121954807F001F8924848
:1057500004F054FC1521934806F0FAFFD5F88C109C
:105760008D4804F09BFC02218F4806F0F1FF8A4827
:1057700004F044FC1E218D4806F0EAFFD5F8941091
:10578000854804F08BFC0321894806F0E1FF82483C
:1057900004F034FC1E21874806F0DAFFD5F890109B
:1057A0007D4804F07BFC7C4804F028FC1D218248E5
:1057B00006F0CEFFD5F8B010774804F06FFC7648BD
:1057C00004F01CFC1E217D4806F0C2FFD5F8B41081
:1057D000714804F063FC704804F010FC052323605A
:1057E0004DE406F08BFF002840F36E836A486B4D52
:1057F00004F098FD09F096F9714909F0E7F90346BC
:10580000024695F848106F48EB6448E306F03AFF0B
:1058100006F074FF05460028F8D15F485F4E04F09B
:10582000EDFB5D4804F0EAFB5B4804F0E7FB5A48F7
:1058300004F0E4FB584804F0E1FB1F21624806F045
:1058400087FF554804F0DAFB1C21604806F080FF12
:10585000B06A5F4909F0BAF908F00EFD00950246FA
:105860000B464D4804F024FC02215A4806F070FF14
:10587000494804F0C3FB2321574806F069FF706CC8
:10588000534909F0A3F908F0F7FC009502460B46CE
:10589000414804F00DFC02214E4806F059FF3E48F5
:1058A00004F0ACFB19214D4806F052FF306C08F0B3
:1058B000E3FC02250B4602460095374804F0F8FB4E
:1058C0002946474806F044FF334804F097FB22215D
:1058D000444806F03DFFB18E2F4804F0DFFB032162
:1058E000414806F035FF2C4804F088FB072323606D
:1058F000FFF7C5BB06F0C6FE06F000FF0546002810
:10590000F8D12548254E04F079FB234804F076FBB6
:10591000214804F073FB204804F070FB1E4804F09B
:105920006DFB1521314806F013FF1B4804F066FBA0
:10593000194804F063FB2C212D4806F009FF164896
:1059400004F05CFB25212B4806F002FF2B4696F85D
:10595000CD1011480A2204F061FB0F4804F04EFB01
:105960001921254806F0F4FE96F8CE30002B41F0C0
:1059700075810E21214806F0EBFE074804F03EFB3E
:1059800013211F4806F0E4FE034804F037FB092307
:105990002360FFF774BB00BFD087FF1F5C93FF1F1E
:1059A000543F0100783F0100F83D0100903F0100A5
:1059B000DC3A0100B03F0100D03F0100F03F0100A0
:1059C0006F12833A9095FF1FAC3E0100CC3E010060
:1059D00000007A44DC3C0100EC3E0100103F010075
:1059E000803E01002C3F0100503F010008410100B2
:1059F000E83B0100183C0100403C01005C3C010018
:105A0000803C010006F03EFE06F078FE05460028C8
:105A1000F8D1BC48BC4E04F0F1FABA4804F0EEFAF2
:105A2000B84804F0EBFAB74804F0E8FAB54804F0D7
:105A3000E5FA1521B54806F08BFEB24804F0DEFA0F
:105A40001821B34806F084FE2B460A2296F8481027
:105A5000AC4804F0E3FAAB4804F0D0FA2821AD4892
:105A600006F076FEF06CAC4909F0B0F808F004FCE2
:105A700000950B460246A34804F01AFB0221A748F2
:105A800006F066FE9F4804F0B9FA1321A44806F018
:105A90005FFE9C4804F0B2FA08232360FFF7EFBAD8
:105AA00006F0F0FD06F02AFE06460028F8D19548DB
:105AB000954D04F0A3FA934804F0A0FA914804F03D
:105AC0009DFA904804F09AFA8E4804F097FA112152
:105AD000944806F03DFE8B4804F090FA2821924845
