:1000000000800020BD010000018A0000B9890000C5
:10001000B9890000B9890000B9890000B9890000D8
:10002000B9890000B9890000B9890000018A00007F
:10003000018A0000B989000035A9000039AA000032
:10004000018A0000018A0000018A0000018A000084
:10005000018A0000018A0000018A0000018A000074
:10006000018A0000018A0000018A0000018A000064
:10007000018A0000018A0000018A0000018A000054
:10008000018A0000018A0000018A0000018A000044
:10009000018A0000018A0000018A0000018A000034
:1000A000018A0000018A0000018A0000018A000024
:1000B000018A00009D850000A9850000AD85000033
:1000C000B9850000BD850000C1850000018A0000DF
:1000D000018A0000018A0000018A0000018A0000F4
:1000E000018A0000018A0000018A0000018A0000E4
:1000F000018A000045B10000018A00009D960000C1
:10010000018A0000B5990000018A0000018A000000
:10011000018A0000018A0000018A0000018A0000B3
:10012000018A0000018A0000018A0000018A0000A3
:10013000018A0000018A0000018A0000018A000093
:10014000018A0000018A0000018A0000018A000083
:10015000018A0000018A0000018A0000018A000073
:10016000018A0000019C0000018A0000018A000051
:10017000018A0000018A0000018A0000018A000053
:10018000018A0000018A0000018A0000018A000043
:10019000018A0000018A0000018A0000018A000033
:1001A000018A0000018A0000018A0000018A000023
:1001B000018A0000018A0000018A0000564B4CF2BF
:1001C000205210B51A804DF628121A8000BF00BFC9
:1001D00008F01AFC514B4FF010621A60504A9A60B6
:1001E000504ADA60504A136813F4807304D14F49BF
:1001F0000B604FF4A85313604D4B1A78110703D5C9
:100200001A7842F008021A704A4B4B492A221A7097
:100210004A4A4B4B8B4204D252F8040F43F8040B6A
:10022000F8E7484B484900228B4202D243F8042B9E
:10023000FAE74649464A002352F8230041F82300D2
:1002400001336F2BF8D1434B434A802103F8011B44
:100250009342FBD1414B3D4A1A60414B8A221A70AE
:10026000A3F5805324225A70A0221A709A7992071B
:10027000FCD59A79D406FCD43A4A937903F00C035E
:10028000082B384BF9D103221A7140225A719A79FE
:100290009006FCD5334A9179324B4906FBD5324A58
:1002A000324911600221516020221A709A7902F0BD
:1002B0000C020C2AFAD12E4B2E4A1A602E4B2F4AD2
:1002C0001A6000225A60072243F8042C2C4AC3F813
:1002D0000C2D62B608F04EFE144B1B68DA0705D5EC
:1002E000284808F02BFC284B284A1A60284B1B781A
:1002F0005B0609D5244C254B22689A4204D121483B
:1003000008F01CFC002323600DF020FA08F082FBAB
:100310000AF0D8FDFEE700BF0E2005403080044003
:10032000823F04000100002B10D0034014D0034092
:1003300002D0074000E007403092FF1F6C320100FE
:100340002087FF1F3092FF1F30BCFF1F0082FF1F5E
:100350000000000000E400E05FE400E008ED00E0E1
:100360000050064000400640448004400000030165
:1003700004800440C010050014E000E0FF76010096
:1003800000002020E1BD4D5C1CE00340A5C3945A51
:1003900000F00740FFFFFFFFFFFFFFFFFFFFFFFF32
:1003A000FFFFFFFFFFFFFFFFFFFFFFFFFFFFFFFF5D
:1003B000FFFFFFFFFFFFFFFFFFFFFFFFFFFFFFFF4D
:1003C000FFFFFFFFFFFFFFFFFFFFFFFFFFFFFFFF3D
:1003D000FFFFFFFFFFFFFFFFFFFFFFFFFFFFFFFF2D
:1003E000FFFFFFFFFFFFFFFFFFFFFFFFFFFFFFFF1D
:1003F000FFFFFFFFFFFFFFFFFFFFFFFFFFFFFFFF0D
:10040000FFFFFFFFFFFFFFFFFFFFFFFFDEF9FFFF23
:1004100010B5054C237833B9044B13B10448AFF33E
:1004200000800123237010BD3092FF1F00000000E8
:1004300068320100084B10B51BB108490848AFF3FA
:1004400000800848036803B910BD074B002BFBD0A0
:10045000BDE81040184700BF000000003492FF1FA5
:10046000683201003092FF1F00000000F0B400F17C
:1004700014060F4F00243146031F00F12C0243F8ED
:10048000044FB34241F8047F4FF0000542F8044F97
:10049000F5D1084B084985640022C56405654565AA
:1004A000456683650366C16580F88420F0BC7047AB
:1004B0000000A040000048430000C8C200230360C1
:1004C00043608360C3600361436183640365436584
:1004D000836570472DE9F04190F8844084B0002393
:1004E00064008DF80530E4B2012380468DF80440A5
:1004F0008DF806300327204609F0F8F902210DF1A6
:10050000050009F0FDF98DF8044002F0A3FB30B3BB
:100510000921C9480AF0A8F8002310222146C7483B
:100520000AF048FB0121C6480AF09EF80023102279
:100530009DF80510C1480AF03DFB0121C0480AF0B2
:1005400093F8002310229DF80610BC480AF032FBF5
:100550000121BB480AF088F8B8480AF01BFB0220CA
:100560008DF8044008F0B8FC02F074FB002840F05D
:10057000778102AE002409F0D9F9002800F0268125
:10058000042C40F0158101E009F0E0F909F0CEF902
:100590000028F9D102F05EFB10B1A8480AF0FAFA7F
:1005A00098F884406400E4B2202204238DF80440CB
:1005B0008DF805208DF806300327204609F096F9BE
:1005C00002210DF1050009F09BF98DF8044002F0BD
:1005D00041FB30B3092198480AF046F80023102265
:1005E000214696480AF0E6FA012195480AF03CF8BF
:1005F000002310229DF8051090480AF0DBFA012133
:100600008F480AF031F8002310229DF806108B481D
:100610000AF0D0FA01218A480AF026F887480AF041
:10062000B9FA02208DF8044008F056FC02F012FBE3
:10063000002840F00B8102AE002409F077F9002871
:1006400000F0A980072C40F0988001E009F07EF9C5
:1006500009F06CF90028F9D102F0FCFA10B17748E2
:100660000AF098FA98F884409DF80B209DF80C3019
:100670009DF80D00C8F870206400E4B29DF80E10DB
:10068000C8F87430332201238DF80440C8F878008C
:10069000C8F87C108DF805208DF806300327204619
:1006A00009F024F902210DF1050009F029F98DF86E
:1006B000044002F0CFFA30B309215F4809F0D4FFBB
:1006C0000023102221465D480AF074FA01215C489B
:1006D00009F0CAFF002310229DF8051057480AF0C0
:1006E00069FA0121564809F0BFFF002310229DF846
:1006F000061052480AF05EFA0121514809F0B4FF91
:100700004E480AF047FA02208DF8044008F0E4FB56
:1007100002F0A0FA002840F09E8002AE002409F00A
:1007200005F9F8B1042C0FD101E009F00FF909F037
:10073000FDF80028F9D102F08DFA10B13F480AF017
:1007400029FA04B0BDE8F08109F000F9054606F881
:10075000010B02F07FFA00285AD1013409F0E6F8C3
:100760000028DFD1042CE2D002F074FA00285ED118
:10077000013FE6D09DF8044091E709F0E7F805460F
:1007800006F8010B02F066FA60BB013409F0CEF8FE
:1007900000287FF457AF072C3FF45AAF02F05AFA03
:1007A00000284FD1013F3FF45DAF9DF8044004E7BE
:1007B00009F0CCF8054606F8010B02F04BFAE0B957
:1007C000013409F0B3F800287FF4DAAE042C3FF4CA
:1007D000DDAE02F03FFA30BB013F3FF4E1AE9DF8E1
:1007E000044088E6E9B20023102214480AF0E2F936
:1007F0000121134809F038FFC7E7E9B200231022AE
:100800000E480AF0D7F901210D4809F02DFFD7E76E
:10081000E9B20023102209480AF0CCF90121084866
:1008200009F022FF99E705480AF0B4F9D4E7034834
:100830000AF0B0F99CE700BF18190100D487FF1F28
:100840004820010009480AF0A5F9ABE7072108484C
:1008500009F00AFFEFE60721054809F005FF5CE70C
:100860000721034809F000FF83E600BFD487FF1F7C
:100870002419010090F87400704700BF90F87000D0
:10088000704700BF90F87800704700BF90F87C0078
:10089000704700BF2DE9F04390F8848085B04FEA9F
:1008A00048085FFA88F8322200238DF804808DF81A
:1008B00005208DF8063003250DF1060748F00109E3
:1008C000484609F013F801AE0DF10500022109F0C8
:1008D00017F88DF804904A4633460020504008240B
:1008E00010F0800F4FEA400018BF80F00700013C75
:1008F000C0B2F5D1BB4202D013F8012FEEE708F0E9
:10090000F5FF02F0A7F900284AD102208DF80480F3
:1009100008F0E2FA02F09EF9002840F081800DF123
:100920000808002409F002F808B3042C12D101E0F1
:1009300009F00CF808F0FAFF0028F9D102F08AF962
:1009400010B13A480AF026F9022008F0C5FA05B0BD
:10095000BDE8F08308F0FAFF08F8010B064602F044
:1009600079F970B9013408F0E1FF0028DDD1042CD9
:10097000E0D002F06FF978B9013DE5D09DF8048030
:100980009CE7F1B20023102228480AF013F9012154
:10099000274809F069FEE5E724480AF0FBF8EBE791
:1009A0000921244809F060FE2346102249461F48C9
:1009B0000AF000F901211E4809F056FE23461022D4
:1009C0009DF8051019480AF0F5F80121184809F0BA
:1009D0004BFE102223469DF8061014480AF0EAF850
:1009E0000121134809F040FE21460DF1070216F8D7
:1009F000014B6140C9B2082311F0800F4FEA410159
:100A000018BF81F00701013BC9B2F5D1B242EED166
:100A1000102206480AF0CEF804480AF0BBF874E742
:100A20000721054809F020FE79E700BFD487FF1FA2
:100A30004820010018190100241901002DE9F04F88
:100A4000074691B097F8843002205B008DF808309B
:100A500008F042FA97F8843038465B008DF8083089
:100A6000FFF738FDB86FFC6F7B6F3A6F97F8841013
:100A70008DE81100C94802F0F3F930223D238DF8CA
:100A800009208DF80A3003260DF10A059DF808901B
:100A900049F00108404608F029FF0DF10900022144
:100AA00008F02EFF8DF80880424602AB002050402F
:100AB000082410F0800F4FEA400018BF80F00700B4
:100AC000013CC0B2F5D19D4202D013F8012FEEE7F0
:100AD00008F00CFF02F0BEF8002840F07D820220F2
:100AE0008DF8089008F0F8F902F0B4F8002840F00A
:100AF000B9820DF10C0AD146002408F017FF002836
:100B000043D0032C34D101E008F020FF08F00EFFA1
:100B10000028F9D102F09EF810B1A1480AF03AF885
:100B2000312303268DF809308DF80A609DF808906E
:100B300049F00108404608F0D9FE0DF109000221F4
:100B400008F0DEFE8DF80880424602AB00205040DF
:100B5000082410F0800F4FEA400018BF80F0070013
:100B6000013CC0B2F5D19D4228D013F8012FEEE729
:100B700008F0ECFE09F8010B804602F06BF868B94A
:100B8000013408F0D3FE0028BBD1032CBED002F004
:100B900061F878B9013E7FF479AFC1E75FFA88F177
:100BA000002310227E480AF005F801217D4809F053
:100BB0005BFDE5E77A4809F0EDFFEBE708F096FE0C
:100BC00002F048F8002840F0C68102208DF8089015
:100BD00008F082F902F03EF8002840F03E820DF164
:100BE0000C09002408F0A2FE002844D0032C35D1C3
:100BF00001E008F0ABFE08F099FE0028F9D102F000
:100C000029F810B1664809F0C5FF342201238DF898
:100C100009208DF80A3003269DF8089049F0010854
:100C2000404608F063FE0DF10900022108F068FE5D
:100C30008DF80880424602AB00205040082410F096
:100C4000800F4FEA400018BF80F00700013CC0B29F
:100C5000F5D19D4228D013F8012FEEE708F076FE7B
:100C600009F8010B804601F0F5FF68B9013408F07E
:100C70005DFE0028BAD1032CBDD001F0EBFF78B99E
:100C8000013E7FF453AFC0E75FFA88F100231022E2
:100C9000434809F08FFF0121424809F0E5FCE5E7F0
:100CA0003F4809F077FFEBE708F020FE01F0D2FFA4
:100CB000002840F00F8102208DF8089008F00CF910
:100CC00001F0C8FF002840F0D7810DF10C09002485
:100CD00008F02CFE002800F08580032C73D101E081
:100CE00008F034FE08F022FE0028F9D101F0B2FF2E
:100CF00010B12B4809F04EFF012212238DF8092074
:100D00008DF80A304FF003089DF80840204608F09F
:100D1000EDFD02210DF1090008F0F2FD8DF808400B
:100D200001F098FF30B309211F4809F09DFC002312
:100D3000102221461A4809F03DFF0121194809F007
:100D400093FC002310229DF80910154809F032FF8A
:100D50000121144809F088FC002310229DF80A1094
:100D60000F4809F027FF01210E4809F07DFC0C48CF
:100D700009F010FF06208DF8084008F0ADF801F0EA
:100D800069FF002840F0738103AD002608F0CEFD16
:100D9000002840D0162E30D10AE000BF2C190100E7
:100DA000D487FF1F482001001819010008F0CEFD6C
:100DB00008F0BCFD0028F9D101F04CFF16260028F0
:100DC0007DD1152035E008F0C1FD09F8010B804602
:100DD00001F040FF00285BD1013408F0A7FD002896
:100DE0007FF47BAF032C3FF47DAF01F033FF00288D
:100DF0006CD1013E7FF410AF7EE708F0A7FD05F847
:100E0000010B044601F026FF00284DD1013608F001
:100E10008DFD0028BED1162ECAD001F01BFF002880
:100E20004DD1B8F101087FF46FAF701E002840F378
:100E30002D82002303AA1C4612F8011B08254C40F2
:100E400014F0800F4FEA440418BF84F00704013DFA
:100E5000E4B2F5D101338342EEDB9DF8218089486D
:100E60004146224601F0FCFF162EC146A34602D1A0
:100E7000A04500F0138197F884108348CDF800B0A6
:100E80004B46324602F01AF8002011B0BDE8F08F50
:100E90005FFA88F1002310227C4809F08BFE0121C3
:100EA0007B4809F0E1FB97E7E1B200231022774885
:100EB00009F080FE0121764809F0D6FBA6E77348C9
:100EC00009F068FE162EACD11520B2E76F4809F084
:100ED00061FE8EE709216F4809F0C6FB2346102208
:100EE00041466A4809F066FE0121694809F0BCFBE9
:100EF000234610229DF80910644809F05BFE012189
:100F0000634809F0B1FB102223469DF80A105F48A0
:100F100009F050FE01215E4809F0A6FB21460DF1C3
:100F20000B0002AA12F8014B6140C9B2082311F06C
:100F3000800F4FEA410118BF81F00701013BC9B2A0
:100F4000F5D19042EED11022504809F033FE4F48BF
:100F500009F020FEAFE609214E4809F085FB234643
:100F600010224146494809F025FE0121484809F070
:100F70007BFB234610229DF80910444809F01AFE15
:100F80000121434809F070FB102223469DF80A1006
:100F90003E4809F00FFE01213D4809F065FB21465E
:100FA0000DF10B0002AA12F8014B6140C9B20823EF
:100FB00011F0800F4FEA410118BF81F00701013B9A
:100FC000C9B2F5D19042EED11022304809F0F2FDBD
:100FD0002E4809F0DFFDF8E509212E4809F044FB11
:100FE000234610224146294809F0E4FD0121284802
:100FF00009F03AFB234610229DF80910234809F016
:10100000D9FD0121224809F02FFB102223469DF82B
:101010000A101E4809F0CEFD01211D4809F024FBED
:1010200021460DF10B0002AA12F8014B6140C9B232
:10103000082311F0800F4FEA410118BF81F007012A
:10104000013BC9B2F5D19042EED110220F4809F010
:10105000B1FD0E4809F09EFD41E507210E4809F05B
:1010600003FBBCE507210C4809F0FEFA41E5072126
:10107000094809F0F9FA87E60721074809F0F4FA68
:1010800023E600BF60190100AC190100D487FF1FDF
:101090004820010018190100241901009DF80C30A6
:1010A00097F88420B3EB420F7FF4EEAE9DF80D303D
:1010B000012B7FF4E9AE9DF80E30122B7FF4E4AEE5
:1010C0009DF810309DF80F0003EB00200CF0C2F8E3
:1010D0007A490CF013F9796EF86404460CF0CAFAF8
:1010E00000B17C66396E20460CF0A6FA00B13C6671
:1010F0003D1FAB4607F1180807F130064FF006090F
:101100009AF806309AF8050003EB00200CF0A2F8DC
:101110006B490CF0F3F84BF8040FD8F800100446B4
:101120000CF08AFA0AF1020A30B1B96E20460CF0CE
:1011300097FA08B1C8F80040316820460CF09AFAD6
:1011400008F1040800B13460B9F1010906F10406A0
:10115000D6D10020B86407F1140455F8041F0BF031
:10116000C5FFAC42F9D19DF81D209DF81E30B86432
:1011700003EB022002300CF06DF852490CF072F9CA
:10118000014651480CF06EF950490BF0ADFF504943
:101190000CF0B4F805460AF01FF9044628460AF098
:1011A0001BF94C490AF08AF94B49054620460CF0D8
:1011B000A5F84A490BF09AFF4949044628460CF025
:1011C0009DF8014620460BF091FF01464FF07E50FE
:1011D0000CF048F943490BF087FF9DF81F209DF85C
:1011E0002030386503EB022009300CF033F83E491B
:1011F0000CF038F9014634480CF034F933490BF05F
:1012000073FF33490CF07AF805460AF0E5F8044616
:1012100028460AF0E1F82F490AF050F92E49054610
:1012200020460CF06BF82D490BF060FF2C4904466A
:1012300028460CF063F8014620460BF057FF0146A4
:101240004FF07E500CF00EF926490BF04DFF3D6D2E
:101250007865294604460CF00DFAB96D30BB20467E
:101260000CF0EAF908B12346BB65294620460CF08C
:1012700001FAA0B92946F86D0CF0DEF908B12C4648
:10128000FC651A4801F0ECFD0120FEE59DF8219077
:10129000174849464246C34601F0E2FDEBE5F96DC9
:1012A00020460CF0E7F90028EAD1EAE728460CF0DE
:1012B000C3F90028F3D02B46D6E700BF6B57053B98
:1012C0002003C839001601470AD7E33FE17A64409A
:1012D00000007A4400004040A40D8F395A80473AFC
:1012E00046A6DB3333938843002C01478419010061
:1012F00060190100052994BF50F8210000207047B3
:101300002DE9F0410B4E8046041F00F1140754F8FC
:10131000045F314628460CF08FF930B1D8F86810D8
:1013200028460CF0A7F900B12E46BC42EFD130465A
:10133000BDE8F08100002041F8B50026041F00F14F
:10134000140754F8045F314628460CF093F900B1B5
:101350002E46BC42F5D13046F8BD00BF2DE9F0471E
:10136000876E82464FF00009041F00F114064FF00B
:10137000000854F8045F394628460CF07BF90D4903
:1013800050B128460CF058F930B1484629460BF0C8
:10139000ADFE08F101088146B442EAD1CAF888805E
:1013A00040460BF057FF014648460CF05BF8BDE89D
:1013B000F08700BF00007042D0F88800704700BF7F
:1013C00038B5456D046D294620460CF035F900B955
:1013D0002C46204638BD00BF38B5446D056D21460A
:1013E00028460CF029F900B92C46204638BD00BF2C
:1013F00008B5D0F880301BB1133350F8230008BD76
:10140000416D006D0BF072FE4FF07C510BF076FFDA
:1014100008BD00BF806C704701299ABF143150F895
:1014200021000020704700BF3E2998BF80F884103B
:10143000704700BF90F86C00704700BFC0F8801084
:10144000704700BF80F86C10704700BF816670471E
:1014500070B500F50A550646143500F12004204603
:101460008C34FFF703F8AC42F9D106F1AC05012446
:1014700028460021FFF7E6FF214628460134FFF702
:10148000D3FF3F2C05F18C05F2D142F29C240025BC
:101490000548064A064B3555002130617161B2613D
:1014A000F361304670BD00BF00007A44000048433D
:1014B0000000C8C238B500F50A55143500F1AC0477
:1014C00002E08C34AC420AD02046FFF7B3FF00287C
:1014D000F7D020468C34FEF7F1FFAC42F4D138BD92
:1014E0002DE9F04142F2A02300F50A5637460022CA
:1014F0008046C2501436203700F1AC0402E08C3430
:10150000B4420DD02046FFF795FF0028F7D02046C3
:101510003D68FFF751FF8C342844B4423860F1D164
:1015200042F2A02358F80300BDE8F0812DE9F04F06
:1015300091B0012A00928146059100F0F68109F1EF
:10154000AC0A4FF0010B5046FFF774FFC0B1002505
:101550002C46012629465046D9F80870FFF7CAFEE6
:10156000014638460CF068F818B106FA05F31C433A
:10157000E4B20135062DEDD1009B012B0AD0F4B960
:101580000BF1010BBBF13F0F0AF18C0ADBD111B05B
:10159000BDE8F08F5946B94809F04CFB0321B84823
:1015A00009F062F8214600230222B44809F002FB48
:1015B0000321B44809F058F8002C00F0F7804FEAF6
:1015C0004B03DBB21946019343F001039DF814204D
:1015D00002931D46184633238DF81E208DF81D30CA
:1015E0008DF81C1008F082F90DF11D00022108F0A1
:1015F00087F907AA04928DF81C502A4607AB0DF113
:101600001E0600205040082510F0800F4FEA4000D1
:1016100018BF80F00700013DC0B2F5D19E4202D054
:1016200013F8012FEEE708F061F901F013FB002831
:1016300040F0E2809DF804308DF81C30022007F065
:101640004BFC01F007FB002840F06A8108AB0393D4
:101650001F46002508F06AF9002844D01E2D35D118
:1016600001E008F073F908F061F90028F9D101F000
:10167000F1FA00283DD1009B012B40D08DF81E408F
:10168000029C9DF804208DF81C20322320468DF802
:101690001D3008F02BF90DF11D00022108F030F982
:1016A0008DF81C4007AB224600205040082410F063
:1016B000800F4FEA400018BF80F00700013CC0B225
:1016C000F5D19E423BD013F8012FEEE708F03EF92A
:1016D00007F8010B804601F0BDFA20BB013508F088
:1016E00025F90028BAD11E2DBDD001F0B3FA00288B
:1016F000C1D0624809F04EFA009B012BBED1039D78
:1017000009AF15F8011B5D480023102209F052FAB9
:1017100001215D4808F0A8FFBD42F2D103215948DC
:1017200008F0A2FFAAE75FFA88F1002310225348CD
:1017300009F040FA0121554808F096FFCEE708F07D
:10174000D5F801F087FA002840F0A4809DF8043015
:101750008DF81C30022007F0BFFB01F07BFA002857
:1017600040F0D980039D002408F0E0F878B31E2CE7
:1017700020D101E008F0EAF808F0D8F80028F9D103
:1017800001F068FA48BB009B012B7FF4F9AE039D82
:1017900009AC15F8011B39480023102209F00AFA98
:1017A0000121394808F060FFA542F2D1334809F021
:1017B000F1F9E5E608F0CAF805F8010B064601F074
:1017C00049FA70B9013408F0B1F80028CFD11E2CC5
:1017D000D2D001F03FFA0028D5D0284809F0DAF934
:1017E000D1E7F1B200231022244809F0E3F90121E6
:1017F000264808F039FFE5E70921254808F034FFBD
:101800002B46102202991D4809F0D4F901211F48E6
:1018100008F02AFF2B4610229DF81D10174809F0EA
:10182000C9F90121194808F01FFF10222B469DF825
:101830001E10124809F0BEF90121144808F014FFE7
:1018400029460DF11F0007AA12F8013B5940C9B201
:10185000082311F0800F4FEA410118BF81F0070102
:10186000013BC9B2F5D19042EED11022034809F0F4
:10187000A1F9024809F08EF9DCE600BFD487FF1F0A
:10188000FC190100001A0100041A0100482001009F
:10189000181901000921274808F0E6FE2346102206
:1018A0000299254809F086F90121244808F0DCFE58
:1018B000234610229DF81D101F4809F07BF90121D5
:1018C0001E4808F0D1FE102223469DF81E101A482B
:1018D00009F070F90121194808F0C6FE0498214664
:1018E0000DF11F0210F8013B5940C9B2082311F055
:1018F000800F4FEA410118BF81F00701013BC9B2D7
:10190000F5D18242EED110220B4809F053F90A4872
:1019100009F040F91AE70721094808F0A5FE21E778
:101920000721074808F0A0FE90E6034809F032F9C5
:1019300005E600BF18190100D487FF1F48200100E9
:10194000241901002DE9F04F824685B04FF00009BF
:1019500001238DF800908DF801908DF802304FF042
:1019600003080024204607F0C1FF02210DF1010009
:1019700007F0C6FF8DF8004001F06CF930B3092183
:10198000B54808F071FE002310222146B34809F043
:1019900011F90121B24808F067FE002310229DF8DA
:1019A0000110AE4809F006F90121AD4808F05CFECF
:1019B000002310229DF80210A84809F0FBF801212D
:1019C000A74808F051FEA54809F0E4F802208DF878
:1019D000004007F081FA01F03DF9002840F08980CD
:1019E00001AF3E46002407F0A1FF002867D0042C79
:1019F00058D101E007F0AAFF07F098FF0028F9D1BD
:101A000001F028F910B1954809F0C4F89DF80430A8
:101A1000802B40F01E819DF80530002B40F019818D
:101A20009DF80640012C40F014818E4801F018FA10
:101A30000AF1AC06254604E001353F2D06F18C067F
:101A400086D03046FFF7F6FC83460028F4D13B22CF
:101A500065F07F0301208DF801208DF802308DF8AC
:101A600000B007F043FF0DF10100022107F048FF2D
:101A700001228DF80020E84658466B460DF102021F
:101A80006040C0B2082410F0800F4FEA400018BF39
:101A900080F00700013CC0B2F5D193422ED013F87C
:101AA000014FEDE707F052FF06F8010B054601F084
:101AB000D1F898B9013407F039FF002897D1042CE8
:101AC0009AD001F0C7F810B1644809F063F8B8F192
:101AD000010800F0BE809DF8004043E7E9B2002312
:101AE00010225E4809F066F801215D4808F0BCFD4F
:101AF000E0E707215C4808F0B7FD71E707F0F6FE64
:101B000001F0A8F800285AD103208DF8009007F0C2
:101B1000E3F901F09FF8002840F09680002407F0D8
:101B200005FFB0B30A2C27D101E007F00FFF07F043
:101B3000FDFE0028F9D101F08DF800287FD19DF835
:101B40000430812B7FF404AF9DF805303B2B7FF4EC
:101B5000FFAE9DF806308035AB427FF4F9AE3046DB
:101B60000121FFF76FFC0AF50A5340489A690132D8
:101B70009A6101F075F9EBE607F0E8FE07F8010B52
:101B8000804601F067F870B9013407F0CFFE0028F5
:101B9000C8D10A2CCBD001F05DF8002850D1022C1E
:101BA0007FF7D6AECBE75FFA88F1002310222B48EF
:101BB00009F000F801212A4808F056FDE4E7092160
:101BC000254808F051FD234610220121234808F042
:101BD000F1FF0121224808F047FD234610229DF81D
:101BE00001101E4808F0E6FF01211D4808F03CFDE9
:101BF000102223469DF80210184808F0DBFF01214F
:101C0000174808F031FD21460DF1030218F8014B89
:101C10006140C9B2082311F0800F4FEA410118BF9B
:101C200081F00701013BC9B2F5D14245EED1102246
:101C30000A4808F0BFFF094808F0ACFF64E70A242F
:101C4000064808F0A7FFAAE70721074808F00CFD9F
:101C500064E705B0BDE8F08F18190100D487FF1FB5
:101C600048200100081A010024190100141A01007B
:101C70002DE9F04742F2982284B0002301278350D7
:101C800082468DF804308DF8053000F1AC088DF8EF
:101C900006704FEA47095FFA89F400214046FFF7D2
:101CA000D1FB20468DF8044007F020FE02210DF103
:101CB000050007F025FE8DF8044000F0CBFF30B39F
:101CC0000921494808F0D0FC00231022214647484A
:101CD00008F070FF0121464808F0C6FC00231022DE
:101CE0009DF80510414808F065FF0121404808F0C3
:101CF000BBFC002310229DF806103C4808F05AFF58
:101D000001213B4808F0B0FC384808F043FF14209C
:101D10008DF8044007F0E0F800F09CFF00285DD14A
:101D200002AE002407F002FE40B3082C19D101E0F6
:101D300007F00CFE07F0FAFD0028F9D100F08AFF49
:101D4000002846D19DF808304B4522D001370520A8
:101D500007F0C2F83F2F08F18C089AD104B0BDE813
:101D6000F08707F0F3FD054606F8010B00F072FF5F
:101D700020BB013407F0DAFD0028D6D1082CD9D0D9
:101D800000F068FF30BB042CE0DD9DF808304B45C7
:101D9000DCD19DF80930002BD8D19DF80A1001291B
:101DA000D4D19DF80C30002BD0D04046FFF74AFB31
:101DB0000AF50A539A6901329A61C7E7E9B200232A
:101DC00010220A4808F0F6FE0121094808F04CFCF0
:101DD000CFE70824054808F0DDFED4E707210548D1
:101DE00008F042FC9CE700BF18190100D487FF1FD0
:101DF00048200100241901002DE9F04700F50A569A
:101E0000354684B080461436183500F1AC040027FE
:101E1000204600218C34FFF715FBB4422F60F7D128
:101E200002270DF106064FF07F093C22A5237E21F3
:101E30007F208DF805208DF806308DF8041001AD57
:101E400007F054FD0DF10500022107F059FD8DF852
:101E500004902B467F2200205040082410F0800F71
:101E60004FEA400018BF80F00700013CC0B2F5D136
:101E7000B34202D013F8012FEEE707F037FD00F070
:101E8000E9FE00285AD17E2364208DF8043007F043
:101E900023F800F0DFFE002840F090800DF1080AE2
:101EA000002407F043FD20B3082C15D101E007F012
:101EB0004DFD07F03BFD0028F9D100F0CBFEF0B955
:101EC0009DF808307F2B21D0013FAED14046FFF76F
:101ED00039FD04B0BDE8F08707F038FD05460AF883
:101EE000010B00F0B7FEF0B9013407F01FFD002828
:101EF000DAD1082CDDD000F0ADFE0028E0D0324869
:101F000008F048FE9DF808307F2BDDD19DF80930A0
:101F10003C2BD9D19DF80A30A52BD5D19DF80B309B
:101F2000572BD1D1D2E7E9B200231022264808F07E
:101F300041FE0121254808F097FBD5E709212448F7
:101F400008F092FB234610227F211F4808F032FE42
:101F500001211E4808F088FB234610229DF8051039
:101F6000194808F027FE0121184808F07DFB1022CF
:101F700023469DF80610144808F01CFE0121134862
:101F800008F072FB21460DF1070215F8014B614084
:101F9000C9B2082311F0800F4FEA410118BF81F048
:101FA0000701013BC9B2F5D1AA42EED11022064881
:101FB00008F000FE044808F0EDFD64E7072105483D
:101FC00008F052FB6AE700BFD487FF1F48200100DA
:101FD00018190100241901002DE9F04385B04FF0D4
:101FE0007F082022FF2381468DF804808DF805208C
:101FF0008DF8063003260DF1060548F00107384636
:1020000007F074FC0DF10500022107F079FC8DF852
:1020100004703A4601AB00205040082410F0800FB5
:102020004FEA400018BF80F00700013CC0B2F5D174
:10203000AB4202D013F8012FEEE707F057FC00F097
:1020400009FE002840F0768202208DF8048006F018
:1020500043FF00F0FFFD002840F0B2820DF10808B8
:10206000002407F063FC002843D0042C34D101E0A5
:1020700007F06CFC07F05AFC0028F9D100F0EAFDEB
:1020800010B1C14808F086FD4FF07F0800238DF89D
:1020900004808DF80630032648F00107384607F023
:1020A00025FC0DF10500022107F02AFC8DF80470D3
:1020B0003A4601AB00205040082410F0800F4FEA50
:1020C000400018BF80F00700013CC0B2F5D1AB4220
:1020D00028D013F8012FEEE707F038FC08F8010BC1
:1020E000074600F0B7FD70B9013407F01FFC002867
:1020F000BBD1042CBED000F0ADFD78B9013EC3D0F9
:102100009DF8048079E7F9B2002310229E4808F078
:1021100051FD01219D4808F0A7FAE5E79A4808F02B
:1021200039FDEBE707F0E2FB00F094FD002840F0FA
:10213000C08102208DF8048006F0CEFE00F08AFDFA
:10214000002840F038820DF10808002407F0EEFB6B
:10215000002846D0042C37D101E007F0F7FB07F048
:10216000E5FB0028F9D100F075FD10B1864808F0B4
:1021700011FD4FF07F082122FF238DF804808DF898
:1021800005208DF80630032648F00107384607F091
:10219000ADFB0DF10500022107F0B2FB8DF80470D4
:1021A0003A4601AB00205040082410F0800F4FEA5F
:1021B000400018BF80F00700013CC0B2F5D19D423D
:1021C00028D013F8012FEEE707F0C0FB08F8010B49
:1021D000074600F03FFD70B9013407F0A7FB002867
:1021E000B8D1042CBBD000F035FD78B9013EC0D089
:1021F0009DF8048050E7F9B200231022624808F0ED
:10220000D9FC0121614808F02FFAE5E75E4808F0A3
:10221000C1FCEBE707F06AFB00F01CFD002840F072
:10222000078102208DF8048006F056FE00F012FDB2
:10223000002840F0CF810DF10808002407F076FB5C
:10224000002843D0042C34D101E007F07FFB07F0D5
:102250006DFB0028F9D100F0FDFC10B14A4808F0F0
:1022600099FC4FF07F0800238DF804808DF806302C
:10227000032648F00107384607F038FB0DF105004A
:10228000022107F03DFB8DF804703A4601AB0020B7
:102290005040082410F0800F4FEA400018BF80F033
:1022A0000700013CC0B2F5D19D4228D013F8012FA0
:1022B000EEE707F04BFB08F8010B074600F0CAFCFD
:1022C00070B9013407F032FB0028BBD1042CBED01A
:1022D00000F0C0FC78B9013EC3D09DF8048053E7FC
:1022E000F9B200231022284808F064FC0121274895
:1022F00008F0BAF9E5E7244808F04CFCEBE707F0F2
:10230000F5FA00F0A7FC002851D102208DF80480D6
:1023100006F0E2FD00F09EFC002840F056810DF131
:102320000808002407F002FB18B3042C14D101E0C4
:1023300007F00CFB07F0FAFA0028F9D100F08AFC4C
:1023400010B1114808F026FC42F29C23002209F843
:10235000032005B0BDE8F08307F0F8FA08F8010B98
:10236000074600F077FC98B9013407F0DFFA00283F
:10237000DBD1042CDED000F06DFCA0B9013EE3D02F
:102380009DF8048075E700BFD487FF1F4820010037
:10239000F9B200231022924808F00CFC0121914868
:1023A00008F062F9E0E78E4808F0F4FBE6E709215F
:1023B0008D4808F059F9234610223946884808F01C
:1023C000F9FB0121874808F04FF9234610229DF8B8
:1023D0000510834808F0EEFB0121824808F044F91B
:1023E000102223469DF806107D4808F0E3FB0121EA
:1023F0007C4808F039F921460DF1070001AA12F8CE
:10240000014B6140C9B2082311F0800F4FEA41012E
:1024100018BF81F00701013BC9B2F5D19042EED15E
:1024200010226F4808F0C6FB6D4808F0B3FB6CE75C
:1024300009216D4808F018F92346102239466848EA
:1024400008F0B8FB0121674808F00EF92346102276
:102450009DF80510624808F0ADFB0121614808F0C5
:1024600003F9102223469DF806105D4808F0A2FBF0
:1024700001215C4808F0F8F821460DF1070001AA97
:1024800012F8014B6140C9B2082311F0800F4FEAE6
:10249000410118BF81F00701013BC9B2F5D190425B
:1024A000EED110224E4808F085FB4D4808F072FB33
:1024B000B7E609214C4808F0D7F8234610223946E0
:1024C000474808F077FB0121464808F0CDF823463D
:1024D00010229DF80510424808F06CFB012141488C
:1024E00008F0C2F8102223469DF806103C4808F078
:1024F00061FB01213B4808F0B7F821460DF10700C8
:1025000001AA12F8014B6140C9B2082311F0800FF3
:102510004FEA410118BF81F00701013BC9B2F5D173
:102520009042EED110222E4808F044FB2C4808F0CF
:1025300031FBFEE509212C4808F096F823461022CD
:102540003946274808F036FB0121264808F08CF868
:10255000234610229DF80510214808F02BFB01218D
:10256000204808F081F8102223469DF806101C48E8
:1025700008F020FB01211B4808F076F821460DF1F8
:10258000070001AA12F8014B6140C9B2082311F0FB
:10259000800F4FEA410118BF81F00701013BC9B22A
:1025A000F5D19042EED110220D4808F003FB0C4803
:1025B00008F0F0FA48E507210C4808F055F8C2E5A4
:1025C00007210A4808F050F848E50721074808F0B5
:1025D0004BF8A4E60721054808F046F82BE600BFB3
:1025E000D487FF1F48200100181901002419010099
:1025F00038B500F50A55143500F1AC0402E08C340E
:10260000AC420AD02046FEF715FF0028F7D020463E
:102610008C34FEF73FF9AC42F4D138BD2DE9F04FD0
:102620000546002345F8AC3B00F50A5783B08246C7
:102630002C46143702E08C34BC420AD02046FEF708
:10264000F9FE0028F7D020468C34FEF723F9BC426F
:10265000F4D1C82006F040FC2C46012604E00136E7
:102660003F2E04F18C046ED02046FEF7E3FE0028D6
:10267000F5D0764800F0F4FB3146754800F0F0FBE9
:102680002046FEF7DBF92046FEF7C4FE0AF08CF97F
:1026900002460B466F4800F0E3FB2046FEF730FE93
:1026A00080462046FEF748FE834640460AF07CF905
:1026B0008046584689460AF077F942464B46CDE9AE
:1026C0000001654800F0CCFB00212046FEF7A4FE87
:1026D000012180462046FEF79FFE834640460AF0D1
:1026E00063F98046584689460AF05EF942464B46F1
:1026F000CDE90001594800F0B3FB2046FEF78AFE01
:102700000146DAF800000AF0F1FCCAF800002046A1
:10271000FEF756FEDAF818100AF08EFF00287BD17B
:102720002046FEF759FEDAF81C100AF0A3FF002835
:1027300095D02046FEF750FE01363F2ECAF81C0009
:1027400004F18C0490D1DAF804000AF083FD01460C
:10275000DAF800000AF086FEDAF81410CAF8000071
:1027600004460AF087FF08B1CAF81440DAF81010DE
:1027700020460AF061FF08B1CAF810400B2006F0AD
:1027800075FB42F29C231AF8033000284AD1002B33
:1027900058D042F29C2301220AF803200023CAF8F1
:1027A0000C302C4602E08C34BC4215D02046FEF79B
:1027B00041FE0028F7D02046FEF7BEFDDAF80C10E7
:1027C0000AF058FF0028EED02046FEF7B5FD8C3405
:1027D000BC42CAF80C00E9D1214BCAF8083002E02B
:1027E0008C35BD4215D02846FEF724FE0028F7D0D0
:1027F0002846FEF785FDDAF808100AF01DFF0028CC
:10280000EED02846FEF77CFD8C35BD42CAF80800A4
:10281000E9D103B0BDE8F08F2046FEF7D1FDCAF83C
:1028200018007DE72BB942F29C2300220AF803200E
:10283000B4E70C4800F02CFB42F29C2300220AF87B
:102840000320ABE7084800F039FBA2E7081C0100B1
:10285000281A0100641A0100781A0100A41A010064
:102860000000A040F81A0100C01A010080687047FB
:10287000C06870470068704741607047F8B500F560
:102880000A550F461646143500F1AC0402E08C34AC
:10289000AC420FD02046FEF7CDFD0028F7D02046F1
:1028A0003946FEF7CBFD204631468C34FEF7CEFD8F
:1028B000AC42EFD1F8BD00BF2DE9F04100F50A555B
:1028C00080460027143500F1AC04002602E08C3469
:1028D000A54210D02046FEF7ADFD0028F7D02046D7
:1028E000FEF786FD0F490AF0C5FE88B98C34A54273
:1028F00006F10106EED142F2982358F80300801B3E
:102900000AF0A8FC014638460AF0ACFDBDE8F081AB
:102910002046FEF76DFD014638460AF0E7FB074604
:10292000D5E700BF00008CC2F8B500F50A55074690
:102930000026143500F1AC0402E08C34AC420FD018
:102940002046FEF777FD0028F7D02046FEF706FD6B
:10295000014630460AF0CAFB8C34AC420646EFD141
:1029600042F29823F8580AF075FC014630460AF006
:1029700079FDF8BD2DE9F04F06468FB076488B46BD
:1029800000F016FA744800F013FA734800F010FAD9
:1029900042F298233046F2580D92FEF7A1FD73687B
:1029A0000C930746306809F0FFFF804630468946A1
:1029B000FFF7BAFF82463046B468F568FFF77CFF40
:1029C00009F0F2FFCDE90A01214628460AF08CFB06
:1029D00062490AF093FC09F0E7FFCDE908012846B7
:1029E00009F0E2FFCDE90601204609F0DDFFCDE95F
:1029F0000401504609F0D8FF0D9A0C9BCDE9020165
:102A0000CDE90089114656483A4600F0D1F95248BE
:102A100000F0CEF9AC3601274FF0000A05E001378F
:102A20003F2F06F18C0600F08E803046FEF702FD47
:102A30000028F4D03046FDF71DFF3046FDF71EFF9D
:102A40003046FDF71FFF3046FDF720FF08214548BF
:102A500007F00AFE3946444808F0ECF8092F75DD06
:102A60000221424807F000FE3046FEF7D3FC09F091
:102A70009BFF5FFA8BF902460B46CDF800903A486F
:102A800008F0E2F801213A4807F0EEFD554600242F
:102A900020E00621374807F0E7FD2946324808F0D4
:102AA000C9F80221344807F0DFFD21463046FEF721
:102AB00021FC09F079FFCDF8009002460B462A4828
:102AC00008F0C2F801340121294807F0CDFD062C99
:102AD00009D04546092D05F10108DADC0121274816
:102AE00007F0C2FDD5E71121254807F0BDFD002103
:102AF0003046FEF791FC09F057FF022402460B46D0
:102B00000094194808F0A0F812211E4807F0ACFD07
:102B100001213046FEF780FC09F046FF0094024692
:102B20000B46114808F090F80121174807F09CFD6A
:102B300001370D4808F02EF83F2F0AF1060A06F17A
:102B40008C067FF472AF0FB0BDE8F08F01210B4807
:102B500007F08AFD84E700BF081C010000007A44EA
:102B6000A01D0100401E0100D487FF1FB42B0100EF
:102B70004C1E0100501E01003820010048200100B9
:102B8000581E01006C1E0100801E01002DE9F0415D
:102B900000F1AC0582B0012604E001363F2E05F1BC
:102BA0008C0549D02846FEF745FC0028F5D0314673
:102BB000234808F03FF80121224807F055FD002482
:102BC0004FF0020821462846FEF794FB09F0ECFE80
:102BD000CDF8008002460B46194808F035F801345C
:102BE0000121184807F040FD062C4FF00207E9D1FB
:102BF00000212846FEF710FC09F0D6FE0097024699
:102C00000B460F4808F020F801210E4807F02CFD74
:102C100001212846FEF700FC09F0C6FE0097024697
:102C20000B46074808F010F80136054807F0B2FFD8
:102C30003F2E05F18C05B5D102B0BDE8F08100BF93
:102C4000D487FF1F841E0100014B1870704700BF1E
:102C50002087FF1F024B1878B0FA80F040097047B8
:102C60002087FF1F0278002A00F0908070B503468D
:102C700082B00D46252A2AD158785C1C08B3252835
:102C80002FD0732831D0642824D0692822D0662818
:102C90004FD07A2859D0782835D058282FD062289C
:102CA0003ED0422838D06C2814D0632812D0742823
:102CB00057D054285FD007F05BFD6278631C002A70
:102CC000D8D1344802B0BDE8704007F063BF18782F
:102CD0001C46F0E72B1D29682E481D4607F0AAFF69
:102CE000EBE7104607F044FDE7E72E6830460BF0AF
:102CF00027FB01463046043507F0B6FCDDE702212C
:102D0000254807F0B1FC2E1D296822480023102217
:102D1000354607F04FFFD0E70221204807F0A4FC1A
:102D20002E1D29681B4800230222354607F042FF6A
:102D3000C3E7073525F007050321D5E9002315482A
:102D40000091083507F080FFB7E7073525F0070544
:102D50000021D5E900230F480091083507F074FFE2
:102D6000ABE7296801290EBF0D480E480121043543
:102D700007F07AFCA1E72B68012B07BF04210A4862
:102D80000A480521043507F06FFC96E7014807F073
:102D900001BF00BFD487FF1F881E01008C1E0100E9
:102DA000901E0100941E0100981E0100A01E01004B
:102DB0000FB400B583B004A951F8040B0191FFF7DB
:102DC00051FF03B05DF804EB04B0704770B51B4BC6
:102DD0001B4C1B6882B00D460193019B2360194672
:102DE00004460023164617480A2207F0E3FE032193
:102DF000154807F039FC032C07D8DFE804F01A1552
:102E000010020521114807F02FFC0221104807F09D
:102E10002BFC31462846FFF725FF02B070BD072185
:102E20000C4807F021FCF0E704210B4807F01CFCDC
:102E3000EBE70521094807F017FCE6E738B9FF1F63
:102E40004C92FF1FD487FF1FFC190100C01E010018
:102E500038200100B81E0100B01E0100A81E0100AC
:102E60000FB400B5094B187883B020B103B05DF8FA
:102E700004EB04B0704705AB1A4604990193FFF7C1
:102E8000A5FF03B05DF804EB04B070472087FF1F77
:102E90000FB4094B00B51B78012B83B004D903B0E4
:102EA0005DF804EB04B0704705AB1A460499019332
:102EB0000120FFF78BFFF2E72087FF1F0FB40B4BBA
:102EC00000B51B78032B83B004D903B05DF804EB85
:102ED00004B0704705AB1A46049901930320FFF72D
:102EE00075FF03B05DF804EB04B070472087FF1F47
:102EF00030B4074D074C084900232B70236003654D
:102F00004365836580F85C300B6030BC704700BF60
:102F10005892FF1F5492FF1F5092FF1FF8B53A4876
:102F20003A4C3B4D3B4EFFF743FF3B4B3B493C4844
:102F30003C4A5C6014271F703B4F3C4CD9601861C1
:102F400000213B485D615E623A4DDF624FF07C5686
:102F50000C279A619C62384A384C19635863384987
:102F60009D6340F61C400A255E641F6541F204061D
:102F7000344F9A64DC6402220124196298660021AD
:102F80003220DD661E6764254FF49676DF61DF63CD
:102F90005A275A705A7283F84010C3F89C0018667A
:102FA0005E66DE651C725C659D654FF47A7C5F67CA
:102FB000DFF898E09967DA67C3F88010C3F88800F3
:102FC000C3F8A400204FC3F8A010FF2641F28831B7
:102FD0000520C3F8B02040F2D662C3F8AC40C3F875
:102FE000B450C3F88CC0C3F890E0C3F89470C3F831
:102FF000A860A3F8BA00C3F88410A3F8B810A3F827
:103000009820A3F89A20F8BDC81E010020A107004F
:1030100033338340CDCCCC3D4493FF1F666686405E
:1030200000004040CDCC4C40000020C10000824256
:10303000000020420000A0409A9979400AD7233D21
:1030400033337340CDCC4C3E00C020440000684276
:10305000F0B54FF47A6085B005F03EFF00210F20F7
:1030600005F012FF00210E2005F00EFF00211120B7
:1030700005F00AFF0021102005F006FF00211220B4
:1030800005F002FF0021132005F0FEFE01210B20B8
:1030900005F0FAFE01210C2005F0F6FE01211420B6
:1030A00005F0F2FE0121152005F0EEFE01211620AB
:1030B00005F0EAFE0121172005F0E6FE01210520BA
:1030C00005F0E2FE854D864C0121062005F0DCFE70
:1030D00001210D2005F0D8FE28880AF0B7F8014636
:1030E000162005F03BFE28880AF0B0F801461720AC
:1030F00005F034FE28880AF0A9F80146052005F0FD
:103100002DFE28880AF0A2F800250146062005F0C9
:1031100025FE2B46734A74497448009504F0E6FE78
:1031200020684FF0FF32102104F0B8F920684FF00A
:10313000FF32102104F08AF920684FF0FF32042199
:1031400004F098F920684FF0FF32012104F09CF957
:103150002A460F21206804F0ABF90C21644807F0DF
:1031600083FA644807F016FD1021634807F07CFAE3
:10317000604807F00FFD44F6206005F06BFF5D48E6
:1031800007F008FD17215D4807F06EFA594807F06F
:1031900001FD5B4B1B789A0600F1D480584B1B78DD
:1031A0001B0700F1DB80564B1B785F0700F1E280C4
:1031B000534B1B789E0700F1E980524B1B781D068C
:1031C00000F1F0804F4B1B785C0600F1F7804D4B0F
:1031D0001B78980600F1FE804A4B1B78590700F1D6
:1031E0000581484B1B781A0700F10C81454B1B7871
:1031F0009B0700F113813F4807F0CCFC72B6424AAE
:103200004CF220534DF628112024138023461180C0
:10321000013BFDD13D4D3E483E4900234FF48056D1
:103220002E8003800B8032F80E3C9BB243F0D30318
:1032300022F80E3C62B69D2006F008FB2146364877
:10324000364D07F011FA2B4807F0A4FC05F1BC0637
:103250002F462C46601B05F01DFB04F8010BB44201
:10326000F8D13B78142B01D0FFF758FE2C482D4C99
:10327000FEF7C2FD0420FFF7E7FC2B4B2848002295
:103280001A60FEF7F5FC01210D2005F0E9FD796DCE
:103290002348FFF7F1FA7A6C97F840102048FFF7BF
:1032A000EDFA224B22491B68224A1D48126881FB15
:1032B0000351DB17A3EB211313FB02F32380FEF76B
:1032C0008BFE1D4B1D491A68039203981B680293DD
:1032D000029A1B4B08601A6005B0F0BD2887FF1FDB
:1032E000B494FF1F2CB9FF1F20A1070090B7FF1F48
:1032F000E81E0100D487FF1FF81E01000C1F01000B
:1033000001F0074000F007400E2005400420054072
:103310000620054016200540102001004493FF1FA1
:10332000EC94FF1FC094FF1F7092FF1F6087FF1F68
:103330001F85EB515C87FF1F38B9FF1FE894FF1F03
:103340001094FF1F2121394807F08EF9384807F003
:1033500021FC384B1B781B077FF525AF0C21364825
:1033600007F082F9324807F015FC324B1B785F07F3
:103370007FF51EAF0E21314807F076F92C4807F093
:1033800009FC2C4B1B789E077FF517AF17212C48A3
:1033900007F06AF9264807F0FDFB2A4B1B781D064B
:1033A0007FF510AF0E21284807F05EF9204807F09E
:1033B000F1FB244B1B785C067FF509AF12212348F3
:1033C00007F052F91A4807F0E5FB1E4B1B789806E8
:1033D0007FF502AF13211E4807F046F9144807F0A5
:1033E000D9FB184B1B7859077FF5FBAE1C211948F8
:1033F00007F03AF90E4807F0CDFB124B1B781A077D
:103400007FF5F4AE1921144807F02EF9084807F0AB
:10341000C1FB0C4B1B789B077FF5EDAE18210F48C5
:1034200007F022F9024807F0B5FBE4E6241F01008B
:10343000D487FF1F01F00740481F0100581F0100FB
:10344000681F010000F00740801F0100901F01006D
:10345000A41F0100B81F0100D81F0100F41F0100C4
:10346000F8B5464C464D4748E66800232B70FFF7F9
:10347000FFF9014630460AF0DFF808B104232B704B
:103480004048FFF7F3F921690AF0D6F818B12B7814
:1034900043F010032B703B48FFF70EFAA16A0AF0C5
:1034A000E9F818B12B7843F040032B70002335481E
:1034B0006B70FFF701FAE16A314D0AF0BDF808B10F
:1034C00001236B70304D2F4800232B70FFF7D0F98C
:1034D000616A0646E06809F007FE014630460AF0D8
:1034E000C9F808B104232B702648FFF7BFF9616AB9
:1034F0000646206909F0FAFD014630460AF09CF8BC
:1035000018B12B7843F010032B701E48FFF7D4F945
:10351000A16B0646A06A09F0E7FD014630460AF0B5
:10352000A9F818B12B7843F040032B7000231548FD
:103530006B70FFF7C1F9A16B134F0646E06A09F003
:10354000D5FD014630460AF077F808B101237B70BB
:1035500000230C48EB70FFF78BF9054609480A4E2B
:10356000FFF784F90146284609F0BEFDE16B0AF039
:1035700081F808B10123F370F8BD00BF4493FF1F29
:103580004093FF1FEC94FF1FA894FF1F2DE9F0410B
:103590007C4C2368012B82B031D0022B00F0A88034
:1035A000032B00F0C8803BBB774B784AD3F8A410BC
:1035B000D3F8A83012685B1A632B0EDD744803FB46
:1035C00002F380FB0302DB17C3EB621319440620EE
:1035D00002B0BDE8F04105F0C3BA6E4803FB022318
:1035E00080FB0302DB17C3EB22121144062002B05A
:1035F000BDE8F04105F0B4BA02B0BDE8F081664E16
:1036000033680A33B3F57A7F00F3B7801846336026
:1036100009F020FE614909F071FE80465A4DD5F847
:10362000A40009F017FE0746D5F8A80009F012FE1D
:10363000394609F059FD414609F060FE584909F044
:1036400011FF394609F052FD0AF034F80146062010
:1036500005F086FA0221534807F006F8524807F0B1
:1036600099FA0621514806F0FFFF306809F0F2FD93
:103670004A4909F043FE09F097F9022702460B4632
:103680000097494807F0E0FA0D21494806F0ECFFA1
:10369000D5F8A40009F0DEFD8046306809F0DAFDB7
:1036A0003E4909F02BFE0646D5F8A80009F0D2FDE8
:1036B000414609F019FD0146304609F01FFE384920
:1036C00009F0D0FE414609F011FD09F06DF90097AF
:1036D0000B460246344807F0B7FA3946314806F03F
:1036E000C3FF314807F056FA2368022B7FF458AF26
:1036F000294B254E00221A60D6F8A40009F0AAFD35
:103700000546D6F8A80009F0A5FD294609F0ECFC0D
:10371000002109F0F3FD224909F0A4FE294609F031
:10372000E5FC09F0C7FF0146062005F019FA2368F9
:10373000032B7FF438AF184B134E4FF47A721A6094
:10374000D6F8A40009F086FD0546D6F8A80009F0D1
:1037500081FD294609F0C8FC114909F0CFFD104947
:1037600009F080FE294609F0C1FC09F0A3FF0146DB
:10377000062005F0F5F9236815E700234FF000084F
:1037800033604BE79494FF1F4493FF1F3487FF1F60
:103790001F85EB51CBF08D287492FF1FCDCCCC3D13
:1037A0000000C842B42B0100D487FF1F3420010061
:1037B0003C20010070B5A248A24C07F0EBF9A048EC
:1037C00007F0E8F99E4807F0E5F90D219E4806F05C
:1037D0004BFFD4F8A030012B11D09C4C9848217895
:1037E00000230A2207F0E6F92378052B67D8DFE8E3
:1037F00013F0E900EE00F300F800FD00E4000921F9
:10380000934806F031FF9348FFF730F8216909F03B
:1038100013FF18B10F21904806F026FF8D48FFF7DF
:1038200027F8E16809F026FF18B10E218B4806F051
:103830001BFF8848FFF71CF805468648FFF716F877
:103840000146284609F050FCE16B09F013FF18B15E
:103850001121834806F008FF7E48FFF72DF8A16A82
:1038600009F008FF18B10C217E4806F0FDFE7948EA
:10387000FFF722F8E16A09F0DFFE18B10D217A485E
:1038800006F0F2FE794B73481B68012B00F0C280F2
:10389000FEF7ECFF21696B4D09F0ECFE78B16D4845
:1038A000FEF7E6FFE96809F0C7FE40B1674B1B78F9
:1038B000052B00F0C08008216D4806F0D5FE0221DE
:1038C0006C4806F0D1FE122005F0D0FA012800F075
:1038D0009C80112005F0CAFA012800F09180664B07
:1038E0001B68012B00F087800221624806F0BCFEB5
:1038F000624B5348196807F09DF9514807F04AF99F
:1039000004215F4806F0B0FE0B2005F0AFFA00235B
:1039100001460A224A4807F04DF90C2005F0A6FAA4
:10392000002301460A22464807F044F9142005F016
:103930009DFA002301460A22414807F03BF9152071
:1039400005F094FA002301460A223D4807F032F9B7
:1039500006214C4806F088FE4B4B39481968022274
:10396000002307F027F90421484806F07DFE1120C6
:1039700005F07CFA002301460A22314807F01AF9C3
:10398000102005F073FA002301460A222C4807F0A4
:1039900011F9122005F06AFA002301460A2228488C
:1039A00007F008F9132005F061FA002301460A2206
:1039B0002348BDE8704007F0FDB80721344806F001
:1039C00053FE7CE70621334806F04EFE77E70721D9
:1039D000314806F049FE72E70721304806F044FE00
:1039E0006DE708212E4806F03FFE68E70B212D48C1
:1039F00006F03AFE63E711212B4806F035FE73E727
:103A00000A212A4806F030FE69E70E21284806F010
:103A10002BFE5EE7FEF72AFF216A09F02BFE002845
:103A20003FF449AF1621234806F01EFE0A21224822
:103A300006F01AFE43E70A211F4806F015FE3EE78E
:103A4000D487FF1F4493FF1F4C200100A494FF1F45
:103A50005C200100EC94FF1F682001007820010029
:103A6000882001009C200100AC2001008092FF1FF3
:103A7000E0200100B42B0100BC94FF1F9894FF1FAD
:103A8000542101005C2101000094FF1F642101000A
:103A90001C210100EC200100F4200100082101009C
:103AA00010210100FC20010040210100342101000F
:103AB00024210100BC200100D42001002DE9F04F99
:103AC000934C944FE36F012B8DB000F04981032B91
:103AD00050D0914E914DA36F9148012B09BF296899
:103AE000296801F10041296004F0C6FD3368002B0C
:103AF00040F0CE808A4804F095FDE36F3860012BDA
:103B0000064600F0D280874909F0B4FD78B98649AD
:103B1000304609F091FD50B9844A854B12680B92EA
:103B20000B9A1A6000232B600DB0BDE8F08FDFF810
:103B3000FC817F4CD8F800300A930A9823687D4FA7
:103B4000C01A09F083FB314609F0D8FB7A4909F025
:103B500089FC794909F086FC396809F0C7FAD8F878
:103B600000300993099B2360002338602B600DB05F
:103B7000BDE8F08FDFF8C881704DD8F80000664EC0
:103B8000012300220F212B6003F092FC2B68012BF4
:103B9000336800F00381002B40F0A6810021D8F8A3
:103BA0000000DFF8B891664D03F0D4FC33681FFACB
:103BB00080FBC9F800B0002B40F07B810021D8F8D1
:103BC0000000564DDFF878A103F04AFCB4F89A30B3
:103BD00040F6E44101FB0BF1B1FBF0F0C01A00B27A
:103BE00009F038FB57498346D4F8900009F086FB6A
:103BF0000146584609F036FCD9F800302860632B9E
:103C0000DFF858B100F3498100232B603368002BA3
:103C10003FF461AF02214C4806F026FDD9F80020A0
:103C2000D8F8000040F6E443002103FB02F803F05B
:103C300017FCB8FBF0F009F009FB8046B4F89A00D5
:103C400009F008FB0146404609F04EFA08F0ACFEC8
:103C50004FF0020802460B46CDF800803B4806F0C4
:103C6000F3FF4146384806F0FFFC286808F09CFE48
:103C7000CDF8008002460B46344806F0E5FF414689
:103C8000334806F0F1FC41462F4806F0EDFC22E7F0
:103C9000234804F0C7FC08F087FE022602460B46C4
:103CA00000962A4806F0D0FF24E7244B1B68012B1E
:103CB00000F02681022B7FF435AF264909F0DAFCAB
:103CC00030B92549304609F0B7FC002800F047819B
:103CD000DFF85880164CD8F800300793079823680F
:103CE000144FC01A09F0B2FA314609F007FB124925
:103CF00009F0B8FB104909F0B5FB396809F0F6F98D
:103D0000D8F800300693069B386023600AE700BFAE
:103D10004493FF1F8C92FF1FE094FF1F7C92FF1FB4
:103D20001C93FF1F0000FA430000FAC338B9FF1FBD
:103D30005C92FF1F9492FF1F00007A445087FF1F80
:103D4000B494FF1F17B7D138B42B0100D487FF1FDD
:103D5000A821010000C82F4800A08CC63C93FF1F7B
:103D60003D689849284609F067FC30B128469649D5
:103D700009F080FC00287FF4FDAEDFF85882934DF7
:103D8000D8F80000924E022300220E212B6003F08F
:103D90008FFB2B68012B33687FF4FDAE002B40F0C6
:103DA00000810021D8F80000DFF86C92894D03F003
:103DB000D1FB33681FFA80FBC9F800B0002B40F03C
:103DC000D5800021D8F80000834D03F049FBB4F8FA
:103DD000983040F6E44A0AFB0BFBBBFBF0F0C01A3C
:103DE00000B209F037FA7D498346D4F8940009F00F
:103DF00085FA0146584609F035FBD9F800302860AD
:103E00000021D8F800000AFB03FA03F029FBB4F8FC
:103E10009830BAFBF0F00FFA80FAC3EB0A03002BDC
:103E2000B4F8BA20B8BF5B429342BCBF00232B60FA
:103E30003368002B3FF44FAE0221694806F014FCB2
:103E4000D9F80020D8F8000040F6E443002103FB35
:103E500002F803F005FBB4F89810B8FBF0F000B2DC
:103E6000411A604806F0E6FE02215D4806F0FCFBC0
:103E7000286808F099FD4FF0020802460B46CDF87D
:103E80000080584806F0E0FE0321574806F0ECFB9E
:103E90004146534806F0E8FB1DE6DAF80000002131
:103EA00003F0DEFADBF8003064389842FFF4ACAE81
:103EB000ACE60021286803F0D3FA40F6E441002381
:103EC0000A2201FB0BF1B1FBF0F1464806F072FE4D
:103ED0000221434806F0C8FBB4F89A10414806F0A6
:103EE000A9FED9F800B069E63E4806F053FE0C2161
:103EF0003E4806F0B9FB0C213D4806F0B5FB4DE607
:103F00003C4909F0B7FB58B93B49304609F094FBEE
:103F100030B93A4A3A4B12680592059A1A6001E69E
:103F2000DFF8D880364CD8F8003004930498236822
:103F3000344FC01A09F08AF9314609F0DFF93249E5
:103F400009F090FA304909F08DFA396809F0CEF895
:103F5000D8F800300393039B38602360E2E5274ADA
:103F6000274B12680892089A1A60DBE5002128683E
:103F700003F076FA40F6E44100230A2201FB0BF13C
:103F8000B1FBF0F1174806F015FE01211F4806F0BD
:103F90006BFBB4F89810134806F04CFED9F800B04B
:103FA0000FE7104806F0F6FDE36F012B4FF00B0111
:103FB0000CBF1748174806F057FB0C210C4806F0B9
:103FC00053FBEEE600709446007094C65087FF1FC6
:103FD000E094FF1FB494FF1F7C92FF1F17B7D138E6
:103FE000B42B0100D487FF1F942101009821010008
:103FF000842101000000FA430000FAC338B9FF1F12
:104000005C92FF1F9492FF1F00007A444820010039
:104010006C210100782101003C93FF1F2DE9F04342
:10402000AB4D2B6883B0002B00F08780A94CAA4EC3
:10403000E36FAA4FA74D012B00F0BF80D4F880306A
:10404000DFF89082012B00F0ED80D8F85850D7F8B7
:104050000090D8F8548005FB08F54FF47A7000FB07
:1040600005F009F0F7F89E49DFF86C8205464846EE
:1040700009F044F9294609F0F5F99A4909F03EF9A1
:1040800009F018FB632830604BDD2846944909F09D
:10409000E9F96423C8F80030934B38601B68002BA3
:1040A00048D0E36F8B4D012B00F0ED80032B00F027
:1040B000FD80022B00F0008102218C4806F0D4FA2A
:1040C0008B4B186808F070FC022402460B460094E3
:1040D000884806F0B9FD2146874806F0C5FA214612
:1040E000824806F0C1FA3168824806F0A3FD062135
:1040F000824806F0B9FA3868794909F0FFF808F003
:1041000053FC009402460B467A4806F09DFD0321BD
:104110007B4806F0A9FA774803B0BDE8F04306F003
:1041200039BD0028BCBF0023C8F800306E4B1B68A7
:10413000002BB6D103B0BDE8F0837248654CFEF7A2
:10414000F3FB7149A76EE66E09F0D8F809F0D8FACA
:10415000226F636FD21B9B1B80B29342A0EB0700C0
:10416000C0F29D8003FB00F393FBF2F333445A4EFD
:104170005E483360022106F077FA31685D48574F98
:1041800006F058FD0221594806F06EFA3268A06D1B
:10419000636D02FB00F003FB00F000EB80004000C9
:1041A00009F058F84E4909F05DF901232B60E36FDF
:1041B0003860012B474D7FF441AF5248FEF7B4FB06
:1041C0005149D5F86890D5F86C8009F097F809F056
:1041D00097FA2A6F6B6FC9EB0202C8EB030380B238
:1041E0009A42C9EB00006CDD03FB0000531C90FBFE
:1041F000F3F303EB0800A26D636D306002FB00F087
:1042000003FB00F000EB8000400009F023F8344984
:10421000DFF8C08009F026F9D4F880303860012B2F
:104220007FF413AF3748FEF77FFB3749D8F8689023
:10423000D8F86C5009F062F809F062FAD8F87020EA
:10424000D8F87430D4F85480C9EB02025B1B80B2FA
:104250009A42C9EB0000C6BF03FB0000013258437D
:1042600090FBF2F02844A56D00FB05F008FB00F080
:1042700000EB8000400008F0EDFF194909F0F2F86A
:1042800081463860E7E6214B1B68012B4FF00A019D
:104290000CBF1F481F4806F0E7F9EB6F06E703FB6A
:1042A0000000531C90FBF3F3334460E710211A48DD
:1042B00006F0DAF9E36FFCE60721184806F0D4F9B6
:1042C000FAE603FB00F393FBF2F303EB080092E73B
:1042D0007892FF1F4493FF1F3487FF1F9492FF1FA4
:1042E000E4388E3E0000C8423C87FF1FB42B01001B
:1042F0008C92FF1FD487FF1FA8210100E02101003D
:10430000E8210100EC94FF1F00007A445087FF1F52
:10431000AC210100B8210100C4210100D821010015
:10432000F0B5112083B004F0A1FD012813D00021C5
:104330000B2004F095FD00210C2004F091FD0021DC
:10434000152004F08DFD1D491D4B01200022087031
:104350001A6003B0F0BD01460446152004F080FD4C
:104360001849194A194B09680191D2F884001B6851
:104370000199134D034402268B422E6017D8D2F8C0
:104380008C0008F067FF124B196809F055F90746D1
:1043900068B921460B2004F063FD084A032339461F
:1043A0000C2016702B6004F05BFD03B0F0BD012102
:1043B0000C2004F055FD03B0F0BD00BFA494FF1F16
:1043C000DC94FF1F38B9FF1F4493FF1FE894FF1FC1
:1043D0008C92FF1FF0B56E4E6E4D34682B689C4278
:1043E00087B03AD014F0010156D014F002014AD03F
:1043F00014F004013ED0E3070ED52B68DF070BD481
:10440000654F664C3B68002B00F082802268019269
:10441000019A9A426ED83468A0070DD52B68990787
:104420000AD45F4F3B68002B4DD05C4C226803924E
:10443000039A9A4239D8346862070ED52B685B0715
:104440000CD4584F3B68002B00F08A80534C2268F4
:104450000592059A9A4272D834680CB107B0F0BD43
:104460002146162004F07CFB2146172004F078FB3F
:1044700007B0F0BD052004F073FB2B68346803F02F
:10448000FB032B60B7E7172004F06AFB2B68346846
:1044900003F0FD032B60ABE7162004F061FB2B68F3
:1044A000346803F0FE032B609FE73F4B1720D3F8DF
:1044B000881004F055FB2B68346843F00203002297
:1044C0002B603A60B8E73948344C06F063FB0C21A6
:1044D000374806F0C9F8354806F05CFBFF21172085
:1044E00004F03EFB2268334B0292029A1B6813448D
:1044F0003B609BE72C4B1620D3F8881004F030FB70
:104500002B68346843F0010300222B603A6083E794
:10451000FF21162004F024FB2368264A009312682A
:10452000009B224813443B6006F034FB0C212248D8
:1045300006F09AF81D4806F02DFB3B6866E71A4B1B
:104540000520D3F8881004F00BFB2B68346843F087
:10455000040300222B603A60002C7FF47FAF7FE7DA
:1045600012480E4C06F016FB0C21144806F07CF89D
:104570000E4806F00FFBFF21052004F0F1FA226837
:104580000C4B0492049A1B6813443B605FE700BF26
:10459000DC94FF1F0094FF1F7894FF1F38B9FF1FA2
:1045A0007C94FF1F8094FF1F4493FF1FD487FF1F3D
:1045B000FC2101007087FF1FEC2101000C2201008B
:1045C0002DE9F047544EDFF87481DFF874913068BC
:1045D000524D00220F2102F06BFF00230122222105
:1045E0004F48C8F80030C9F8002006F03DF8D8F868
:1045F0000030132B22DC40F6E44700213068B5F888
:1046000098A002F0A7FF00210446306802F028FFBE
:10461000A4B2012107FB04F4B4FBF0F44148544474
:10462000A5F8984006F020F8642004F055FCD8F86E
:1046300000300133132BC8F80030DEDDB5F89830B8
:10464000394A3A48A2FB03129B1A02EB5303C3F305
:104650000F131946A5F8983006F0ECFA1D213448DE
:1046600006F002F80221334805F0FEFF2F4806F05D
:1046700091FA00231A460E213068C8F8003002F083
:1046800017FF022322212648C9F8003005F0ECFF6D
:10469000D8F80030132B22DC40F6E44700213068C4
:1046A000B5F89A9002F056FF00210446306802F0F7
:1046B000D7FEA4B2012107FB04F4B4FBF0F41948BF
:1046C0004C44A5F89A4005F0CFFF642004F004FCA8
:1046D000D8F800300133132BC8F80030DEDDB5F810
:1046E0009A30114A1148A2FB03129B1A02EB5303A2
:1046F000C3F30F131946A5F89A3006F09BFA1D2153
:104700000D4805F0B1FF02210A4805F0ADFF07484A
:10471000BDE8F04706F03EBAB494FF1F4493FF1F74
:104720001C2201006022010087611886D487FF1FC8
:1047300040220100B42B0100642201009C94FF1F61
:104740005087FF1FF8B5874B874C884F1B68386D23
:1047500040F2513108222160E271002B00F0FD800F
:1047600008F078FD396A054608F0C8FD804908F070
:10477000C5FD08F0C5FF80B2031263727D4A7E4B0F
:1047800012681B68B9692072A37228461B121512A1
:10479000E3722273657308F0B1FD754908F0AEFD50
:1047A00008F0AEFF83B21A126F497448A373E27324
:1047B00003F094FD724B734A1B6812886A49A27217
:1047C000DDB2257205EB850603EB8305760045F324
:1047D000D71540F2553E12121B1226736573082638
:1047E00000256648C4F800E0E2726372E671A573C2
:1047F000E57303F073FD40F2563363482360E671BE
:10480000FEF738F8614908F079FD08F079FF207269
:104810005D48FEF72FF85D4908F070FD08F070FF65
:104820005B4A5A49C0F307231068637208F01AFE06
:1048300008F040FF40FA06F203465348E272A372C2
:10484000FEF73AF84A4908F059FD08F059FF20737D
:104850004D48FEF731F8464908F050FD08F050FF8A
:104860004149A573C0F3072344486373E57303F01C
:1048700035FD022004F030FB464A474B1178507852
:10488000217291786072D2789878A172597893F8F1
:1048900000E0E2726173DA78A07340F25A33324971
:1048A0003648E67184F80CE0E273236003F016FDED
:1048B0003A4B2D491A785878227260729A78D878D3
:1048C000A272E0721A79987993F805E02273A073C6
:1048D000DA792A4884F80DE040F25E33E27323600F
:1048E000E67103F0FBFC022004F0F6FA2C4B1E49A3
:1048F0001A785878227260729A78D878A272E07228
:104900001A79987993F805E02273A073DA791B4835
:1049100084F80DE04FF45C73E2732360E67103F0FA
:10492000DDFC022004F0D8FABA6DE67142FA06FE08
:10493000012340F25F3702262273992225726572A5
:1049400084F80DE02760A672E372E373A273064950
:104950000A48BDE8F84003F0C1BC08F07BFC796967
:10496000054601E78092FF1FCC94FF1F4493FF1F71
:1049700000002041B094FF1F6492FF1F90B7FF1FFB
:104980003487FF1F3887FF1FEC94FF1F0000C842C9
:104990008C92FF1F4093FF1FA894FF1F2C87FF1FBF
:1049A0005487FF1FF0B5984C984D83B005F0F6FD85
:1049B00023682860042B00F0A482022B4BD0082B24
:1049C00000F09280072B40F04981332801F0A58345
:1049D00000F3A680312801F0B383322840F0A9808B
:1049E00005F018FE002840F337818948894E06F00B
:1049F00065FA08F02FFC884908F080FC6123012249
:104A0000F06322602B601846A0F152031F2B01F2C5
:104A10006283DFE813F0060B600B600B600B600B2A
:104A2000600B600B600B600B600B600B600B600B2E
:104A3000600B600BB003790C3705A5057104600BA2
:104A4000600B600B2404600B7C0C600B600B600B34
:104A5000600B600BF40AA0F13102422A69D8DFE84A
:104A600012F0EB062C07D106F7060A0719076800B3
:104A700068006800680068006800680068006800F6
:104A800068006800680068006800680068006800E6
:104A900068006800680068006800680068006800D6
:104AA00068006800680068006800680068006800C6
:104AB00068006800680068006800680068006800B6
:104AC00068006800680026076800680068006800E1
:104AD0006800680068006800680068006800680096
:104AE000680064006800E306322800F0278371281C
:104AF0001BD031281DD105F08DFD002840F34086E4
:104B00004348444E06F0DAF9C0B286F84000022865
:104B10008ABF0021014686F84010726C3F4821E3AD
:104B2000342801F0E882712803D100237320236028
:104B30002860002B08BF73280CBF0120002000282C
:104B400060D0334806F026F80421354805F08CFD86
:104B50002F4806F01FF81021324805F085FD2C483B
:104B600006F018F81321304805F07EFD2F4B284839
:104B7000196806F05FF8264806F00CF814212C4856
:104B800005F072FD224806F005F81E21294805F0BF
:104B90006BFD1F4805F0FEFF1521274805F064FD59
:104BA0001B4805F0F7FF1E21244805F05DFD18485D
:104BB00005F0F0FF2021224805F056FD144805F0CD
:104BC000E9FF19211F4805F04FFD114805F0E2FFEC
:104BD00012211D4805F048FD0D4805F0DBFF0F21AF
:104BE0001A4805F041FD0A4805F0D4FF0D21184888
:104BF00005F03AFD064805F0CDFF164A00210123D5
:104C00001160236003B0F0BD9892FF1F8892FF1FD0
:104C1000D487FF1F4493FF1F6F12833AEC94FF1F4A
:104C2000302A0100382A01004C2A01002487FF1F86
:104C3000602A0100782A0100982A0100B02A0100A8
:104C4000D02A0100F42A0100102B0100242B0100BE
:104C5000342B01003C87FF1F23682868062B40F097
:104C60008D80A0F13102402A3FF663AF01A151F8D7
:104C700022F000BF93560000BF560000EB56000024
:104C8000115700003757000055570000334B000004
:104C9000334B0000334B0000334B0000334B00001C
:104CA000334B0000334B0000334B0000334B00000C
:104CB000334B0000334B0000334B0000334B0000FC
:104CC000334B0000334B0000334B0000334B0000EC
:104CD000334B0000334B0000334B0000334B0000DC
:104CE000334B0000334B0000334B0000334B0000CC
:104CF000334B0000334B0000334B0000334B0000BC
:104D0000334B0000334B0000334B0000334B0000AB
:104D1000334B0000334B0000334B0000334B00009B
:104D2000334B0000334B0000334B0000334B00008B
:104D3000334B0000334B0000334B0000334B00007B
:104D4000334B0000334B0000334B0000334B00006B
:104D5000334B0000334B0000334B0000334B00005B
:104D6000334B0000334B0000334B0000334B00004B
:104D7000334B00002B4B000023682868052B15D10E
:104D8000332801F0F38140F34781352801F0158283
:104D9000C1F2FD8171287FF4CCAEDC4A0023732080
:104DA000136023602860C4E623682868032B40F062
:104DB000A480A0F13002422A3FF6BBAE01A151F817
:104DC00022F000BFD14E0000B75D0000DF5D0000A3
:104DD000075E0000295E00004B5E0000735E00006D
:104DE0009B5E0000B95E0000DD5E0000334B0000FA
:104DF000334B0000334B0000334B0000334B0000BB
:104E0000334B0000334B0000334B0000334B0000AA
:104E1000334B0000334B0000334B0000334B00009A
:104E2000334B0000334B0000334B0000334B00008A
:104E3000334B0000334B0000334B0000334B00007A
:104E4000334B0000334B0000334B0000334B00006A
:104E5000334B0000334B0000334B0000334B00005A
:104E6000334B0000334B0000334B0000334B00004A
:104E7000334B0000334B0000334B0000334B00003A
:104E8000334B0000334B0000055F000099590000D0
:104E90005F5F0000235F0000415F00007D5F000056
:104EA00075590000334B0000334B0000334B0000BA
:104EB000334B0000334B0000334B0000334B0000FA
:104EC000334B0000334B0000D35F0000DF5F000076
:104ED00005F0A0FB002841F307818D488D4E05F0B9
:104EE000EDFF01270346014662228B487365276068
:104EF0002A60FDF7C1FC23682868012B7FF419AEF6
:104F000082E5A0F13102402A3FF613AE01A151F82B
:104F100022F000BF715900001559000053590000DC
:104F2000195900001D590000395900004F5900005F
:104F3000D7580000EF580000334B0000334B0000FF
:104F4000334B0000334B0000334B0000334B000069
:104F5000334B0000334B0000334B0000334B000059
:104F6000334B0000334B0000334B0000334B000049
:104F7000334B0000334B0000334B0000334B000039
:104F8000334B0000334B0000334B0000334B000029
:104F9000334B0000334B0000334B0000334B000019
:104FA000334B0000334B0000334B0000334B000009
:104FB000334B0000334B0000334B0000334B0000F9
:104FC000334B0000334B0000334B0000334B0000E9
:104FD000334B0000334B0000334B0000334B0000D9
:104FE000334B0000334B0000334B0000334B0000C9
:104FF000334B0000334B0000334B0000334B0000B9
:10500000334B0000334B0000334B0000334B0000A8
:10501000334B00002B4B0000312801F0DC8032289C
:105020007FF487AD05F0F6FA00287FF7BDAE38486B
:10503000384E05F043FF01226B23C6F88C00226036
:105040002B6001E005F0AAFA05F0E4FA0028F9D196
:105050002F4805F09FFD2E4805F09CFD2C4805F0DB
:1050600099FD2B4805F096FD294805F093FD212177
:105070002A4805F0F9FA264805F08CFD1521284844
:1050800005F0F2FAD6F88410214805F0D3FD02218C
:10509000244805F0E9FA1E4805F07CFD1E2122484F
:1050A00005F0E2FAD6F88C10194805F0C3FD03218B
:1050B0001E4805F0D9FA164805F06CFD1E211C4863
:1050C00005F0D2FAD6F88810114805F0B3FD104863
:1050D00005F060FD1D21174805F0C6FAD6F8A410AA
:1050E0000B4805F0A7FD0A4805F054FD1E211248A3
:1050F00005F0BAFAD6F8A810054805F09BFD04485B
:1051000005F048FD052323607CE500BF9494FF1F54
:10511000D487FF1F4493FF1FEC94FF1FD02401008E
:10512000F4240100282401000C2501009421010031
:105130002C2501004C2501006C25010005F06AFAC0
:10514000002840F31983B548B54E05F0B7FE08F0C6
:1051500081F8B44908F0D2F896F8401003460246A8
:10516000B1487364FDF78AFB01236920236028603E
:105170004AE405F013FA05F04DFA05460028F8D187
:10518000A648A74E05F006FDA44805F003FDA34878
:1051900005F000FDA14805F0FDFCA04805F0FAFC73
:1051A0001F21A24805F060FA9C4805F0F3FC1C2181
:1051B0009F4805F059FA706A9E4908F09FF807F079
:1051C000F3FB009502460B46944805F03DFD022195
:1051D000994805F049FA914805F0DCFC23219748ED
:1051E00005F042FAF06B934908F088F807F0DCFB11
:1051F000009502460B46894805F026FD02218E489F
:1052000005F032FA854805F0C5FC19218C4805F0F7
:105210002BFAB06B07F0C8FB02250B46024600953F
:105220007E4805F011FD2946864805F01DFA7B48A9
:1052300005F0B0FC1921844805F016FAB6F8B8104C
:10524000764805F0F7FC0321804805F00DFA734815
:1052500005F0A0FC07232360D4E405F09FF905F0D6
:10526000D9F905460028F8D16C486D4E05F092FC3E
:105270006A4805F08FFC694805F08CFC674805F02A
:1052800089FC664805F086FC1521714805F0ECF9AB
:10529000624805F07FFC18216E4805F0E5F92B46C1
:1052A0000A2296F840105D4805F084FC5B4805F042
:1052B00071FC2821684805F0D7F9706C5D4908F049
:1052C0001DF807F071FB00950B460246534805F0A8
:1052D000BBFC0221584805F0C7F9504805F05AFCBC
:1052E00013215E4805F0C0F94C4805F053FC082333
:1052F000236087E405F052F905F08CF90546002893
:10530000F8D14648464E05F045FC444805F042FCBD
:10531000424805F03FFC414805F03CFC3F4805F0A1
:1053200039FC11214E4805F09FF93C4805F032FC4C
:1053300028214C4805F098F970693E4907F0DEFFD6
:1053400007F032FB009502460B46344805F07CFC22
:105350000221394805F088F9304805F01BFC162178
:10536000414805F081F9F069324907F0C7FF07F0BD
:105370001BFB00950B460246284805F065FC022100
:105380002D4805F071F9254805F004FCD6F8B03039
:10539000002B32DD1D21354805F066F9F06D07F070
:1053A00059FF334907F0AAFF07F0FEFA022502462B
:1053B0000B460095194805F047FC01212D4805F0E2
:1053C00053F9164805F0E6FB1F212B4805F04CF970
:1053D000306E07F03FFF264907F090FF07F0E4FA30
:1053E000009502460B460D4805F02EFC0121214890
:1053F00005F03AF9094805F0CDFB11211F4805F0E9
:1054000033F9D6F8B030052B00F22686DFE813F02A
:1054100059065E0654064F064A062006D487FF1F2B
:105420004493FF1F6F12833AEC94FF1F2C2401005A
:105430004C24010000007A44FC2201006C2401008D
:1054400090240100AC240100B0240100CC24010010
:10545000F82A0100B4220100D0220100002301003B
:105460009C2A01001423010040230100582301005D
:10547000CDCCCC3DB027010078230100982301005A
:1054800005F08CF805F0C6F80028F9D1BF48C04EE9
:1054900005F080FBBD4805F07DFBBC4805F07AFBBC
:1054A000BA4805F077FBB94805F074FB1F21B948ED
:1054B00005F0DAF8B54805F06DFB1E21B64805F099
:1054C000D3F8B24805F066FB1A21B44805F0CCF8D1
:1054D000F36F022B00F0E786032B00F0DB86012B35
:1054E00000F0EA860921AE4805F0BEF8A74805F0AD
:1054F00051FB1421AB48A64F05F0B6F8B16FA34895
:1055000005F098FBA14805F045FB1C21A64805F0D5
:10551000ABF8D6F880109D4805F08CFB9B4805F051
:1055200039FB1C21A14805F09FF8D6F8AC1097482C
:1055300005F080FB954805F02DFBF56F25F0020581
:10554000012D00F061861321994805F08DF88F48F0
:1055500005F020FB02232360FFF754BB05F01EF883
:1055600005F058F80028F9D1884805F013FB874862
:1055700005F010FB854805F00DFB844805F00AFB9B
:10558000824805F007FB13218A4805F06DF87F4833
:1055900005F000FB0D21884805F066F87B4805F012
:1055A000F9FA0F21854805F05FF8854B77481968AF
:1055B00005F040FB754805F0EDFA1321814805F030
:1055C00053F8814B7148196805F034FB6F4805F0BA
:1055D000E1FA12217D4805F047F87D4B6B481968C8
:1055E00005F028FB694805F0D5FA1121794805F046
:1055F0003BF8794B6548196805F01CFB634805F0DA
:10560000C9FA0E21754805F02FF8614B5F48D3F8B1
:10561000A01005F00FFB5D4805F0BCFA1921704899
:1056200005F022F86F4B5948196805F003FB5748FD
:1056300005F0B0FA11216C4805F016F86B4B534891
:10564000196805F0F7FA514805F0A4FA10216848E6
:1056500005F00AF8674B4D48196805F0EBFA4B481E
:1056600005F098FA1C21644804F0FEFF634B47489C
:10567000196805F0DFFA454805F08CFA13214C480B
:1056800004F0F2FF414805F085FA04232360FFF798
:10569000B9BA04F0BFFF00287FF76EAB3B483C4E21
:1056A00005F00CFC07F0D6FD554907F0DBFE65233D
:1056B0000122706122602B601846FFF7A5B904F043
:1056C000A9FF00287FF758AB3048314E05F0F6FBB4
:1056D00007F0C0FD4A4907F0C5FE65230122F061CD
:1056E00022602B601846FFF78FB904F093FF002863
:1056F0007FF742AB2548264E05F0E0FB00EB80002B
:10570000430001226520F36522602860FFF77CB921
:1057100004F080FF00287FF72FAB1C481C4E05F0DB
:10572000CDFB00EB80004300012265203366226040
:105730002860FFF769B9164AD2F8B0300133052B5B
:10574000C8BF0023C2F8B030652001232360286061
:10575000FFF75AB904F05EFF00287FF70DAB0B4846
:105760000B4E05F0ABFB65230122C6F8B4002260A6
:105770002B601846FFF748B923682868FFF722B95D
:10578000034E96F84000FFF7C2B900BFD487FF1F51
:105790004493FF1F7026010090260100B0260100EF
:1057A00028270100342701004C2701006C27010045
:1057B000002301008C250100A0250100B025010077
:1057C0007494FF1FC0250100E094FF1FD425010041
:1057D000C494FF1FE8250100C894FF1FFC250100A9
:1057E0000C2601009894FF1F282601009494FF1FA7
:1057F0003C2601008492FF1F502601006487FF1F92
:1058000000007A440123236004F004FF002805DD32
:1058100069486A4E05F052FBC6F8AC0001236320CC
:1058200023602860FFF7F0B8644AD36F0133032B7D
:10583000C8BF0023D367F1E7604EB36FB3FA83F3B9
:105840005B0901226320B36722602860FFF7DCB8A0
:105850000123236004F0DEFE002807DD5648574E82
:1058600005F02CFB07F0F6FCC6F8940063202860D6
:105870002368FFF7A7B80123236004F0CBFE0028BC
:10588000F4DD4D484D4E05F019FB07F0E3FCC6F87A
:105890009000EBE70123236004F0BCFE0028E5DD67
:1058A0004548464E05F00AFBA6F8BA00DEE7FEF7CB
:1058B00087FE23682868FFF782B8404ED6F880300C
:1058C000B3FA83F35B0901226320C6F880302260BB
:1058D0002860FFF799B83A4A1368B3FA83F35B0973
:1058E00001216420136021602860FFF78DB8012337
:1058F000236004F08FFE002800F37E84314B1A6889
:10590000042AC4BF02221A6064232B602368642027
:10591000FFF755B82C4ADFE72C4ADDE7274ED6F8CB
:10592000A030B3FA83F35B0901226420C6F8A030EB
:1059300022602860FFF768B8012325482360FBF741
:10594000CFFD244A2368106064222A60DFE7224AE0
:10595000C2E7224A224F1368002B0CBF0123002309
:105960004FF001001360206040F07E840346EBE7B7
:105970001C4AB1E704F04EFE00280DDD0E480F4E24
:1059800005F09CFA07F066FC174907F06BFD012251
:105990006223306222602B6004F03CFE002840F35A
:1059A000A3830548054E05F089FA01226223B066FB
:1059B00022602B601CE000BFD487FF1F4493FF1FB1
:1059C0008492FF1F6487FF1FE094FF1FC894FF1F8E
:1059D000EC94FF1F9894FF1F9494FF1FC494FF1F23
:1059E0009892FF1F7494FF1F00007A4404F0D6FDC4
:1059F00004F010FE05460028F8D1C24805F0CAF8A8
:105A0000C04805F0C7F8BF4805F0C4F8BD4805F028
:105A1000C1F8BC4805F0BEF81521BB4804F024FECF
:105A2000B84805F0B7F81421B84804F01DFEB54891
:105A300005F0B0F81B21B64804F016FEB14805F099
:105A4000A9F81321B34804F00FFEAE4805F0A2F800
:105A5000AC4805F09FF8AB4805F09CF82021AE4813
:105A600004F002FEF068AD4907F048FC06F09CFF28
:105A7000009502460B46A34805F0E6F80221A84827
:105A800004F0F2FD0221A74804F0EEFD9D4805F068
:105A900081F82121A44804F0E7FD30699F4907F00F
:105AA0002DFC06F081FF009502460B46954805F057
:105AB000CBF802219A4804F0D7FD0221994804F05E
:105AC000D3FD904805F066F81F21984804F0CCFDFE
:105AD000B06A06F069FF022702460B460097894824
