:1000000000800020BD010000C9A7000081A70000FA
:1000100081A7000081A7000081A7000081A7000040
:1000200081A7000081A7000081A70000C9A70000E8
:10003000C9A7000081A70000DD9D0000E19E00002F
:10004000C9A70000C9A70000C9A70000C9A70000F0
:10005000C9A70000C9A70000C9A70000C9A70000E0
:10006000C9A70000C9A70000C9A70000C9A70000D0
:10007000C9A70000C9A70000C9A70000C9A70000C0
:10008000C9A70000C9A70000C9A70000C9A70000B0
:10009000C9A70000C9A70000C9A70000C9A70000A0
:1000A000C9A70000C9A70000C9A70000C9A7000090
:1000B000C9A700004D9B0000599B00005D9B0000FC
:1000C000699B00006D9B0000719B0000C9A70000A8
:1000D000C9A70000C9A70000C9A70000C9A7000060
:1000E000C9A70000C9A70000C9A70000C9A7000050
:1000F000C9A700005DCA0000C9A70000BDB4000088
:10010000C9A70000D5B70000C9A70000C9A7000013
:10011000C9A70000C9A70000C9A70000C9A700001F
:10012000C9A70000C9A70000C9A70000C9A700000F
:10013000C9A70000C9A70000C9A70000C9A70000FF
:10014000C9A70000C9A70000C9A70000C9A70000EF
:10015000C9A70000C9A70000C9A70000C9A70000DF
:10016000C9A7000065BA0000C9A70000C9A7000020
:10017000C9A70000C9A70000C9A70000C9A70000BF
:10018000C9A70000C9A70000C9A70000C9A70000AF
:10019000C9A70000C9A70000C9A70000C9A700009F
:1001A000C9A70000C9A70000C9A70000C9A700008F
:1001B000C9A70000C9A70000C9A70000564B4CF210
:1001C000205210B51A804DF628121A8000BF00BFC9
:1001D0000AF0FEFA514B4FF010621A60504A9A60D2
:1001E000504ADA60504A136813F4807304D14F49BF
:1001F0000B604FF4A85313604D4B1A78110703D5C9
:100200001A7842F008021A704A4B4B492A221A7097
:100210004A4A4B4B8B4204D252F8040F43F8040B6A
:10022000F8E7484B484900228B4202D243F8042B9E
:10023000FAE74649464A002352F8230041F82300D2
:1002400001336F2BF8D1434B434A802103F8011B44
:100250009342FBD1414B3D4A1A60414B8A221A70AE
:10026000A3F5805324225A70A0221A709A7992071B
:10027000FCD59A79D406FCD43A4A937903F00C035E
:10028000082B384BF9D103221A7140225A719A79FE
:100290009006FCD5334A9179324B4906FBD5324A58
:1002A000324911600221516020221A709A7902F0BD
:1002B0000C020C2AFAD12E4B2E4A1A602E4B2F4AD2
:1002C0001A6000225A60072243F8042C2C4AC3F813
:1002D0000C2D62B60AF05CFD144B1B68DA0705D5DD
:1002E00028480AF039FB284B284A1A60284B1B780B
:1002F0005B0609D5244C254B22689A4204D121483B
:100300000AF02AFB002323600EF0A8FE0AF066FA2A
:100310000AF094F9FEE700BF0E200540308004404B
:10032000823F04000100002B10D0034014D0034092
:1003300002D0074000E007403092FF1F644E0100EA
:100340002087FF1F3092FF1FDCBCFF1F0082FF1FB2
:100350000000000000E400E05FE400E008ED00E0E1
:100360000050064000400640448004400000030165
:1003700004800440C010050014E000E0FF76010096
:1003800000002020144E7A5E1CE00340A5C3945A5E
:1003900000F00740FFFFFFFFFFFFFFFFFFFFFFFF32
:1003A000FFFFFFFFFFFFFFFFFFFFFFFFFFFFFFFF5D
:1003B000FFFFFFFFFFFFFFFFFFFFFFFFFFFFFFFF4D
:1003C000FFFFFFFFFFFFFFFFFFFFFFFFFFFFFFFF3D
:1003D000FFFFFFFFFFFFFFFFFFFFFFFFFFFFFFFF2D
:1003E000FFFFFFFFFFFFFFFFFFFFFFFFFFFFFFFF1D
:1003F000FFFFFFFFFFFFFFFFFFFFFFFFFFFFFFFF0D
:10040000FFFFFFFFFFFFFFFFFFFFFFFFDEF9FFFF23
:1004100010B5054C237833B9044B13B10448AFF33E
:1004200000800123237010BD3092FF1F00000000E8
:10043000604E0100084B10B51BB108490848AFF3E6
:1004400000800848036803B910BD074B002BFBD0A0
:10045000BDE81040184700BF000000003492FF1FA5
:10046000604E01003092FF1F00000000F0B400F168
:1004700014060F4F00243146031F00F12C0243F8ED
:10048000044FB34241F8047F4FF0000542F8044F97
:10049000F5D1084B084985640022C56405654565AA
:1004A000456683650366C16580F88420F0BC7047AB
:1004B0000000A040000048430000C8C200230360C1
:1004C00043608360C3600361436183640365436584
:1004D000704700BF2DE9F04190F8844084B00023BC
:1004E00064008DF80530E4B2012380468DF80440A5
:1004F0008DF80630032720460BF008F902210DF194
:1005000005000BF00DF98DF8044002F0DBFC30B370
:100510000921C9480CF03CF9002310222146C748A4
:1005200009F09CFD0121C6480CF032F9002310228D
:100530009DF80510C14809F091FD0121C0480CF05B
:1005400027F9002310229DF80610BC4809F086FD0B
:100550000121BB480CF01CF9B84809F06FFD0220DE
:100560008DF804400AF0C6FB02F0ACFC002840F015
:10057000778102AE00240BF0E9F8002800F0268114
:10058000042C40F0158101E00BF0F0F80BF0DEF8E0
:100590000028F9D102F096FC10B1A84809F04EFDF0
:1005A00098F884406400E4B2202204238DF80440CB
:1005B0008DF805208DF80630032720460BF0A6F8AD
:1005C00002210DF105000BF0ABF88DF8044002F0AC
:1005D00079FC30B3092198480CF0DAF80023102296
:1005E0002146964809F03AFD012195480CF0D0F8D3
:1005F000002310229DF80510904809F02FFD0121DD
:100600008F480CF0C5F8002310229DF806108B4887
:1006100009F024FD01218A480CF0BAF8874809F056
:100620000DFD02208DF804400AF064FB02F04AFC44
:10063000002840F00B8102AE00240BF087F8002860
:1006400000F0A980072C40F0988001E00BF08EF8B4
:100650000BF07CF80028F9D102F034FC10B1774897
:1006600009F0ECFC98F884409DF80B209DF80C30C4
:100670009DF80D00C8F870206400E4B29DF80E10DB
:10068000C8F87430332201238DF80440C8F878008C
:10069000C8F87C108DF805208DF806300327204619
:1006A0000BF034F802210DF105000BF039F88DF84C
:1006B000044002F007FC30B309215F480CF068F8F1
:1006C0000023102221465D4809F0C8FC01215C4846
:1006D0000CF05EF8002310229DF80510574809F031
:1006E000BDFC012156480CF053F8002310229DF860
:1006F0000610524809F0B2FC012151480CF048F8AC
:100700004E4809F09BFC02208DF804400AF0F2FAF2
:1007100002F0D8FB002840F09E8002AE00240BF0CF
:1007200015F8F8B1042C0FD101E00BF01FF80BF015
:100730000DF80028F9D102F0C5FB10B13F4809F0CF
:100740007DFC04B0BDE8F0810BF010F8054606F81A
:10075000010B02F0B7FB00285AD101340AF0F6FF72
:100760000028DFD1042CE2D002F0ACFB00285ED1DF
:10077000013FE6D09DF8044091E70AF0F7FF0546F7
:1007800006F8010B02F09EFB60BB01340AF0DEFFAD
:1007900000287FF457AF072C3FF45AAF02F092FBCA
:1007A00000284FD1013F3FF45DAF9DF8044004E7BE
:1007B0000AF0DCFF054606F8010B02F083FBE0B906
:1007C00001340AF0C3FF00287FF4DAAE042C3FF4B2
:1007D000DDAE02F077FB30BB013F3FF4E1AE9DF8A8
:1007E000044088E6E9B200231022144809F036FCE0
:1007F000012113480BF0CCFFC7E7E9B20023102218
:100800000E4809F02BFC01210D480BF0C1FFD7E782
:10081000E9B200231022094809F020FC0121084810
:100820000BF0B6FF99E7054809F008FCD4E7034848
:1008300009F004FC9CE700BF18320100D087FF1FBD
:100840004C390100094809F0F9FBABE707210848DA
:100850000BF09EFFEFE6072105480BF099FF5CE7E0
:10086000072103480BF094FF83E600BFD087FF1FEA
:100870002432010090F87400704700BF90F87000B7
:10088000704700BF90F87800704700BF90F87C0078
:10089000704700BF2DE9F04390F8848085B04FEA9F
:1008A00048085FFA88F8322200238DF804808DF81A
:1008B00005208DF8063003250DF1060748F00109E3
:1008C00048460AF023FF01AE0DF1050002210AF0AF
:1008D00027FF8DF804904A463346002050400824F4
:1008E00010F0800F4FEA400018BF80F00700013C75
:1008F000C0B2F5D1BB4202D013F8012FEEE70AF0E7
:1009000005FF02F0DFFA00284AD102208DF80480AA
:100910000AF0F0F902F0D6FA002840F081800DF1DB
:10092000080800240AF012FF08B3042C12D101E0D9
:100930000AF01CFF0AF00AFF0028F9D102F0C2FAFF
:1009400010B13A4809F07AFB02200AF0D3F905B059
:10095000BDE8F0830AF00AFF08F8010B064602F032
:10096000B1FA70B901340AF0F1FE0028DDD1042C8F
:10097000E0D002F0A7FA78B9013DE5D09DF80480F7
:100980009CE7F1B200231022284809F067FB0121FF
:1009900027480BF0FDFEE5E7244809F04FFBEBE7A5
:1009A000092124480BF0F4FE2346102249461F4833
:1009B00009F054FB01211E480BF0EAFE23461022E9
:1009C0009DF80510194809F049FB012118480BF062
:1009D000DFFE102223469DF80610144809F03EFB66
:1009E000012113480BF0D4FE21460DF1070216F841
:1009F000014B6140C9B2082311F0800F4FEA410159
:100A000018BF81F00701013BC9B2F5D1B242EED166
:100A10001022064809F022FB044809F00FFB74E796
:100A2000072105480BF0B4FE79E700BFD087FF1F10
:100A30004C39010018320100243201002DE9F04F39
:100A4000074691B097F8843002205B008DF808309B
:100A50000AF050F997F8843038465B008DF808307A
:100A6000FFF738FDB86FFC6F7B6F3A6F97F8841013
:100A70008DE81100C94802F02BFB30223D238DF890
:100A800009208DF80A3003260DF10A059DF808901B
:100A900049F0010840460AF039FE0DF10900022133
:100AA0000AF03EFE8DF80880424602AB002050401E
:100AB000082410F0800F4FEA400018BF80F00700B4
:100AC000013CC0B2F5D1AB4202D013F8012FEEE7E2
:100AD0000AF01CFE02F0F6F9002840F07D820220A8
:100AE0008DF808900AF006F902F0ECF9002840F0C1
:100AF000B9820DF10C0AD14600240AF027FE002825
:100B000043D0032C34D101E00AF030FE0AF01EFE7F
:100B10000028F9D102F0D6F910B1A14809F08EFAF7
:100B2000312303268DF809308DF80A609DF808906E
:100B300049F0010840460AF0E9FD0DF109000221E3
:100B40000AF0EEFD8DF80880424602AB00205040CE
:100B5000082410F0800F4FEA400018BF80F0070013
:100B6000013CC0B2F5D19D4228D013F8012FEEE729
:100B70000AF0FCFD09F8010B804602F0A3F968B900
:100B800001340AF0E3FD0028BBD1032CBED002F0F3
:100B900099F978B9013E7FF479AFC1E75FFA88F13E
:100BA000002310227E4809F059FA01217D480BF0FC
:100BB000EFFDE5E77A4809F041FAEBE70AF0A6FD18
:100BC00002F080F9002840F0C68102208DF80890DC
:100BD0000AF090F802F076F9002840F03E820DF11C
:100BE0000C0900240AF0B2FD002844D0032C35D1B2
:100BF00001E00AF0BBFD0AF0A9FD0028F9D102F0DE
:100C000061F910B1664809F019FA342201238DF810
:100C100009208DF80A3003269DF8089049F0010854
:100C200040460AF073FD0DF1090002210AF078FD3B
:100C30008DF80880424602AB00205040082410F096
:100C4000800F4FEA400018BF80F00700013CC0B29F
:100C5000F5D1AB4228D013F8012FEEE70AF086FD5C
:100C600009F8010B804602F02DF968B901340AF049
:100C70006DFD0028BAD1032CBDD002F023F978B95C
:100C8000013E7FF453AFC0E75FFA88F100231022E2
:100C9000434809F0E3F9012142480BF079FDE5E70B
:100CA0003F4809F0CBF9EBE70AF030FD02F00AF912
:100CB000002840F00F8102208DF808900AF01AF801
:100CC00002F000F9002840F0D7810DF10C09002452
:100CD0000AF03CFD002800F08580032C73D101E070
:100CE0000AF044FD0AF032FD0028F9D102F0EAF8DA
:100CF00010B12B4809F0A2F9012212238DF8092026
:100D00008DF80A304FF003089DF8084020460AF09D
:100D1000FDFC02210DF109000AF002FD8DF80840EA
:100D200002F0D0F830B309211F480BF031FD002349
:100D3000102221461A4809F091F9012119480BF0B7
:100D400027FD002310229DF80910154809F086F9A7
:100D5000012114480BF01CFD002310229DF80A10FD
:100D60000F4809F07BF901210E480BF011FD0C48EA
:100D700009F064F906208DF8084009F0BBFF02F085
:100D8000A1F8002840F0738103AD00260AF0DEFCD4
:100D9000002840D0162E30D10AE000BF2C320100CE
:100DA000D087FF1F4C390100183201000AF0DEFC29
:100DB0000AF0CCFC0028F9D102F084F816260028AD
:100DC0007DD1152035E00AF0D1FC09F8010B8046F1
:100DD00002F078F800285BD101340AF0B7FC002853
:100DE0007FF47BAF032C3FF47DAF02F06BF800285B
:100DF0006CD1013E7FF410AF7EE70AF0B7FC05F836
:100E0000010B044602F05EF800284DD101360AF0CD
:100E10009DFC0028BED1162ECAD002F053F800283F
:100E20004DD1B8F101087FF46FAF701E002840F378
:100E30003582002303AA1C4612F8011B08254C40EA
:100E400014F0800F4FEA440418BF84F00704013DFA
:100E5000E4B2F5D101338342EEDB9DF8218089486D
:100E60004146224602F034F9162EC146A34602D16D
:100E7000A04500F0138197F884108348CDF800B0A6
:100E80004B46324602F052F9002011B0BDE8F08F17
:100E90005FFA88F1002310227C4809F0DFF8012175
:100EA0007B480BF075FC97E7E1B2002310227748EE
:100EB00009F0D4F8012176480BF06AFCA6E77348E4
:100EC00009F0BCF8162EACD11520B2E76F4809F036
:100ED000B5F88EE709216F480BF05AFC2346102223
:100EE00041466A4809F0BAF8012169480BF050FC04
:100EF000234610229DF80910644809F0AFF801213B
:100F000063480BF045FC102223469DF80A105F4809
:100F100009F0A4F801215E480BF03AFC21460DF1DE
:100F20000B0002AA12F8014B6140C9B2082311F06C
:100F3000800F4FEA410118BF81F00701013BC9B2A0
:100F4000F5D19042EED11022504809F087F84F4871
:100F500009F074F8AFE609214E480BF019FC23465E
:100F600010224146494809F079F8012148480BF020
:100F70000FFC234610229DF80910444809F06EF832
:100F8000012143480BF004FC102223469DF80A106F
:100F90003E4809F063F801213D480BF0F9FB21467A
:100FA0000DF10B0002AA12F8014B6140C9B20823EF
:100FB00011F0800F4FEA410118BF81F00701013B9A
:100FC000C9B2F5D19042EED11022304809F046F86E
:100FD0002E4809F033F8F8E509212E480BF0D8FB2C
:100FE000234610224146294809F038F801212848B3
:100FF0000BF0CEFB234610229DF80910234809F080
:101000002DF8012122480BF0C3FB102223469DF846
:101010000A101E4809F022F801211D480BF0B8FB08
:1010200021460DF10B0002AA12F8014B6140C9B232
:10103000082311F0800F4FEA410118BF81F007012A
:10104000013BC9B2F5D19042EED110220F4809F010
:1010500005F80E4808F0F2FF41E507210E480BF0B5
:1010600097FBBCE507210C480BF092FB41E50721FB
:1010700009480BF08DFB87E6072107480BF088FB3A
:1010800023E600BF60320100AC320100D087FF1FB1
:101090004C39010018320100243201009DF80C3057
:1010A00097F88420B3EB420F7FF4EEAE9DF80D303D
:1010B000012B7FF4E9AE9DF80E30122B7FF4E4AEE5
:1010C0009DF810309DF80F0003EB00200DF04AFD55
:1010D0008B490DF09BFD796EF86404460DF052FFCC
:1010E00000B17C66396E20460DF02EFF00B13C66E3
:1010F0003D1FAB4607F1180807F130064FF0000915
:101100009AF806309AF8050003EB00200DF02AFD4E
:101110007C490DF07BFD4BF8040FD8F80010044615
:101120000DF012FF09F101090AF1020A30B1B96E9E
:1011300020460DF01DFF08B1C8F800403168204678
:101140000DF020FF08F1040800B13460B9F1060F7A
:1011500006F10406D4D10020B86407F1140455F850
:10116000041F0DF04BFCAC42F9D19DF81D209DF8F9
:101170001E30B86403EB022002300DF0F3FC62492C
:101180000DF0F8FD014661480DF0F4FD60490DF0E9
:1011900033FC60490DF03AFD05460BF0A5FD044611
:1011A00028460BF0A1FD5C490BF010FE5B4905469B
:1011B00020460DF02BFD5A490DF020FC59490446FC
:1011C00028460DF023FD014620460DF017FC014690
:1011D0004FF07E500DF0CEFD53490DF00DFC9DF803
:1011E0001F209DF82030386503EB022009300DF0F8
:1011F000B9FC4E490DF0BEFD014644480DF0BAFD64
:1012000043490DF0F9FB43490DF000FD05460BF095
:101210006BFD044628460BF067FD3F490BF0D6FDF9
:101220003E49054620460DF0F1FC3D490DF0E6FB38
:101230003C49044628460DF0E9FC014620460DF0E5
:10124000DDFB01464FF07E500DF094FD36490DF068
:10125000D3FBD7F8808078650446B8F1000F3BD106
:101260003D6D29462E460DF08DFE68B32946B86DBA
:101270000DF088FEE0B1BD65B8F1000F17D008F1A0
:10128000130657F82640F96D20460DF07BFE00B19D
:10129000FC65274801F01CFF0120F6E59DF8219030
:1012A000244849464246C34601F012FFE3E53E6D3D
:1012B000314620460DF066FEC8B1F96D20460DF0AE
:1012C00061FE0028E4D1E4E7B96D20460DF03CFE54
:1012D0000028EDD02546CEE708F11306B96D57F882
:1012E000265028460DF030FE0028C4D1C9E731460B
:1012F000F86D0DF029FE0028CBD03446C8E700BFBA
:101300006B57053B2003C839001601470AD7E33F56
:10131000E17A644000007A4400004040A40D8F3917
:101320005A80473A46A6DB3333938843002C014763
:101330008432010060320100052994BF50F8210079
:10134000002070472DE9F0410B4E8046041F00F14C
:10135000140754F8045F314628460DF0F5FD30B10E
:10136000D8F8681028460DF00DFE00B12E46BC429C
:10137000EFD13046BDE8F08100002041F8B50026ED
:10138000041F00F1140754F8045F314628460DF09D
:10139000F9FD00B12E46BC42F5D13046F8BD00BF84
:1013A0002DE9F047876E82464FF00009041F00F1D7
:1013B00014064FF0000854F8045F394628460DF033
:1013C000E1FD0D4950B128460DF0BEFD30B1484653
:1013D00029460DF013FB08F101088146B442EAD119
:1013E000CAF8888040460DF0BDFB014648460DF026
:1013F000C1FCBDE8F08700BF00007042D0F8880053
:10140000704700BF38B5D0F8803043B9456D046DE2
:10141000294620460DF098FD30B1204638BD1333E3
:1014200050F82340204638BD2C46204638BD00BF2A
:1014300038B5D0F8803043B9446D056D2146284653
:101440000DF082FD30B1204638BD133350F82340F3
:10145000204638BD2C46204638BD00BF08B5D0F820
:1014600080301BB1133350F8230008BD416D006D6F
:101470000DF0C4FA4FF07C510DF0C8FB08BD00BF61
:10148000806C704701299ABF143150F82100002068
:10149000704700BF3E2998BF80F88410704700BF96
:1014A00090F86C00704700BFC0F88010704700BF14
:1014B00080F86C10704700BF8166704770B500F50A
:1014C0000A5506461C3500F1280420468C34FEF7E8
:1014D000CDFFAC42F9D106F1B40501242846002124
:1014E000FFF7E6FF214628460134FFF7D3FF3F2CE4
:1014F00005F18C05F2D142F2A42400250548064AE4
:10150000064B3555002130617161B261F36130469F
:1015100070BD00BF00007A44000048430000C8C20C
:1015200038B500F50A551C3500F1B40402E08C34DE
:10153000AC420AD02046FFF7B3FF0028F7D0204680
:101540008C34FEF7BBFFAC42F4D138BD2DE9F0413D
:1015500042F2A82300F50A56374600228046C250C0
:101560001C36283700F1B40402E08C34B4420DD0AC
:101570002046FFF795FF0028F7D020463D68FFF78B
:101580003DFF8C342844B4423860F1D142F2A823A4
:1015900058F80300BDE8F0812DE9F04F93B0814683
:1015A00042F2AC231046019201284FF0000206914E
:1015B00049F8032000F0038209F50A532C330793FE
:1015C00009F1B40A4FF0010B5046FFF769FFC0B1B3
:1015D00000263446012531465046D9F80870FFF7F9
:1015E000ABFE014638460DF0AFFC18B105FA06F324
:1015F0001C43E4B20136062EEDD1019B012B0AD02B
:10160000F4B90BF1010BBBF13F0F0AF18C0ADBD1EE
:1016100013B0BDE8F08F5946BD4808F05FFD0321C7
:10162000BC480BF0B5F8214600230222B84808F068
:1016300015FD0321B8480BF0ABF8002C00F0188121
:101640004FEA4B03DBB21946029343F001039DF8C6
:10165000182003931D46184633238DF826208DF855
:1016600025308DF824100AF051F80DF125000221E3
:101670000AF056F809AA05928DF824502A4609ABBB
:101680000DF1260600205040082510F0800F4FEA8B
:10169000400018BF80F00700013DC0B2F5D19E4266
:1016A00002D013F8012FEEE70AF030F801F00AFC3F
:1016B000002840F0EC809DF808308DF8243002209E
:1016C00009F018FB01F0FEFB002840F06E810AAB28
:1016D00004931F4600250AF039F8002844D01E2D37
:1016E00035D101E00AF042F80AF030F80028F9D1CB
:1016F00001F0E8FB00283DD1019B012B40D0039D68
:101700009DF808208DF82420322328468DF82530B6
:101710008DF8264009F0FAFF0DF12500022109F0AD
:10172000FFFF8DF8245009AB2A46002050400825C1
:1017300010F0800F4FEA400018BF80F00700013D15
:10174000C0B2F5D19E423BD013F8012FEEE70AF06C
:101750000DF807F8010B804601F0B4FB20BB013502
:1017600009F0F4FF0028BAD11E2DBDD001F0AAFB6C
:101770000028C1D0664808F061FC019B012BBED156
:10178000049D0BAF15F8011B61480023102208F0DF
:1017900065FC012161480AF0FBFFAF42F2D1032151
:1017A0005D480AF0F5FFAAE75FFA88F100231022EE
:1017B000574808F053FC012159480AF0E9FFCEE7E9
:1017C00009F0A4FF01F07EFB002840F0AD809DF8F9
:1017D00008308DF82430022009F08CFA01F072FBF9
:1017E000002840F0E780049E002509F0AFFF00B319
:1017F0001E2D11D101E009F0B9FF09F0A7FF002863
:10180000F9D101F05FFBD0B9019B012B1DD0079AE4
:1018100013681C441460F4E609F0A8FF06F8010BF5
:10182000074601F04FFB38BB013509F08FFF002858
:10183000DED11E2DE1D001F045FB0028E4D0344874
:1018400008F0FCFB019B012BE1D1049E0BAD16F8C7
:10185000011B2F480023102208F000FC01212F4813
:101860000AF096FFAE42F2D1079A13682344136040
:10187000274808F0E3FBC4E6F9B20023102224480D
:1018800008F0ECFB012126480AF082FFCCE7092191
:1018900024480AF07DFF2B46102203991C4808F0CB
:1018A000DDFB01211E480AF073FF2B4610229DF834
:1018B0002510174808F0D2FB012119480AF068FFEB
:1018C00010222B469DF82610114808F0C7FB012175
:1018D00013480AF05DFF29460DF1270009AA12F806
:1018E000013B5940C9B2082311F0800F4FEA410172
:1018F00018BF81F00701013BC9B2F5D19042EED18A
:101900001022034808F0AAFB014808F097FBD2E632
:10191000D087FF1FFC3201000033010004330100B7
:101920004C39010018320100092127480AF030FF24
:101930002B4610220399254808F090FB01212448EA
:101940000AF026FF2B4610229DF825101F4808F0AC
:1019500085FB01211E480AF01BFF10222B469DF833
:1019600026101A4808F07AFB012119480AF010FFE6
:10197000059829460DF1270210F8013B5940C9B2DC
:10198000082311F0800F4FEA410118BF81F00701D1
:10199000013BC9B2F5D18242EED110220B4808F0CA
:1019A0005DFB0A4808F04AFB11E7072109480AF0E5
:1019B000EFFE8CE6072107480AF0EAFE13E703482A
:1019C00008F03CFBF8E500BF18320100D087FF1F8C
:1019D0004C390100243201002DE9F04F824685B0D8
:1019E0004FF0000901238DF800908DF801908DF8DB
:1019F00002304FF003080024204609F087FE022140
:101A00000DF1010009F08CFE8DF8004001F05AFA4A
:101A100030B30921B5480AF0BBFE0023102221464D
:101A2000B34808F01BFB0121B2480AF0B1FE0023C5
:101A300010229DF80110AE4808F010FB0121AD48BE
:101A40000AF0A6FE002310229DF80210A84808F014
:101A500005FB0121A7480AF09BFEA54808F0EEFA15
:101A600002208DF8004009F045F901F02BFA00281A
:101A700040F0898001AF3E46002409F067FE00284F
:101A800067D0042C58D101E009F070FE09F05EFE29
:101A90000028F9D101F016FA10B1954808F0CEFAF5
:101AA0009DF80430802B40F01E819DF80530002BFE
:101AB00040F019819DF80640012C40F014818E48B9
:101AC00001F006FB0AF1B406254604E001353F2D7E
:101AD00006F18C0686D03046FFF7E2FC83460028EC
:101AE000F4D13B2265F07F0301208DF801208DF8B1
:101AF00002308DF800B009F009FE0DF1010002215D
:101B000009F00EFE01228DF80020E84658466B468B
:101B10000DF102026040C0B2082410F0800F4FEABD
:101B2000400018BF80F00700013CC0B2F5D19342DD
:101B30002ED013F8014FEDE709F018FE06F8010B5F
:101B4000054601F0BFF998B9013409F0FFFD0028FE
:101B500097D1042C9AD001F0B5F910B1644808F07F
:101B60006DFAB8F1010800F0BE809DF8004043E72F
:101B7000E9B2002310225E4808F070FA01215D48A6
:101B80000AF006FEE0E707215C480AF001FE71E773
:101B900009F0BCFD01F096F900285AD103208DF818
:101BA000009009F0A7F801F08DF9002840F0968028
:101BB000002409F0CBFDB0B30A2C27D101E009F0D5
:101BC000D5FD09F0C3FD0028F9D101F07BF900280B
:101BD0007FD19DF80430812B7FF404AF9DF8053050
:101BE0003B2B7FF4FFAE9DF806308035AB427FF48F
:101BF000F9AE30460121FFF75BFC0AF50A53404875
:101C00001A6A01321A6201F063FAEBE609F0AEFDDE
:101C100007F8010B804601F055F970B9013409F05D
:101C200095FD0028C8D10A2CCBD001F04BF9002833
:101C300050D1022C7FF7D6AECBE75FFA88F10023B4
:101C400010222B4808F00AFA01212A480AF0A0FDC8
:101C5000E4E7092125480AF09BFD234610220121D3
:101C6000234808F0FBF9012122480AF091FD2346A0
:101C700010229DF801101E4808F0F0F901211D48BE
:101C80000AF086FD102223469DF80210184808F03D
:101C9000E5F9012117480AF07BFD21460DF1030209
:101CA00018F8014B6140C9B2082311F0800F4FEAC8
:101CB000410118BF81F00701013BC9B2F5D142458E
:101CC000EED110220A4808F0C9F9094808F0B6F91F
:101CD00064E70A24064808F0B1F9AAE70721074893
:101CE0000AF056FD64E705B0BDE8F08F1832010038
:101CF000D087FF1F4C390100083301002432010056
:101D0000143301002DE9F04742F2A02284B00023F1
:101D10000127835082468DF804308DF8053000F19C
:101D2000B4088DF806704FEA47095FFA89F400217C
:101D30004046FFF7BDFB20468DF8044009F0E6FC65
:101D400002210DF1050009F0EBFC8DF8044001F0D3
:101D5000B9F830B3092149480AF01AFD00231022CE
:101D60002146474808F07AF9012146480AF010FD5B
:101D7000002310229DF80510414808F06FF9012159
:101D800040480AF005FD002310229DF806103C484B
:101D900008F064F901213B480AF0FAFC384808F0E1
:101DA0004DF914208DF8044008F0A4FF01F08AF8E2
:101DB00000285DD102AE002409F0C8FC40B3082C15
:101DC00019D101E009F0D2FC09F0C0FC0028F9D1DA
:101DD00001F078F8002846D19DF808304B4522D014
:101DE0000137052008F086FF3F2F08F18C089AD1B3
:101DF00004B0BDE8F08709F0B9FC054606F8010B10
:101E000001F060F820BB013409F0A0FC0028D6D115
:101E1000082CD9D001F056F830BB042CE0DD9DF839
:101E200008304B45DCD19DF80930002BD8D19DF806
:101E30000A100129D4D19DF80C30002BD0D0404697
:101E4000FFF736FB0AF50A531A6A01321A62C7E72E
:101E5000E9B2002310220A4808F000F901210948DC
:101E60000AF096FCCFE70824054808F0E7F8D4E725
:101E7000072105480AF08CFC9CE700BF18320100DE
:101E8000D087FF1F4C390100243201002DE9F047B3
:101E900000F50A56354684B080461C36203500F1E0
:101EA000B4040027204600218C34FFF701FBB44224
:101EB0002F60F7D102270DF106064FF07F093C2273
:101EC000A5237E217F208DF805208DF806308DF822
:101ED000041001AD09F01AFC0DF10500022109F012
:101EE0001FFC8DF804902B467F22002050400824D0
:101EF00010F0800F4FEA400018BF80F00700013C4F
:101F0000C0B2F5D1B34202D013F8012FEEE709F0C9
:101F1000FDFB00F0D7FF00285AD17E2364208DF806
:101F2000043008F0E7FE00F0CDFF002840F090807C
:101F30000DF1080A002409F009FC20B3082C15D182
:101F400001E009F013FC09F001FC0028F9D100F0D0
:101F5000B9FFF0B99DF808307F2B21D0013FAED1F9
:101F60004046FFF739FD04B0BDE8F08709F0FEFBFD
:101F700005460AF8010B00F0A5FFF0B9013409F09D
:101F8000E5FB0028DAD1082CDDD000F09BFF00280B
:101F9000E0D0324808F052F89DF808307F2BDDD1B0
:101FA0009DF809303C2BD9D19DF80A30A52BD5D10D
:101FB0009DF80B30572BD1D1D2E7E9B20023102284
:101FC000264808F04BF8012125480AF0E1FBD5E747
:101FD000092124480AF0DCFB234610227F211F48F8
:101FE00008F03CF801211E480AF0D2FB23461022DB
:101FF0009DF80510194808F031F8012118480AF039
:10200000C7FB102223469DF80610144808F026F856
:10201000012113480AF0BCFB21460DF1070215F817
:10202000014B6140C9B2082311F0800F4FEA410112
:1020300018BF81F00701013BC9B2F5D1AA42EED128
:102040001022064808F00AF8044807F0F7FF64E792
:10205000072105480AF09CFB6AE700BFD087FF1FF5
:102060004C39010018320100243201002DE9F043FF
:1020700085B04FF07F082022FF2381468DF8048031
:102080008DF805208DF8063003260DF1060548F081
:102090000107384609F03AFB0DF10500022109F06D
:1020A0003FFB8DF804703A4601AB002050400824F5
:1020B00010F0800F4FEA400018BF80F00700013C8D
:1020C000C0B2F5D1AB4202D013F8012FEEE709F010
:1020D0001DFB00F0F7FE002840F0768202208DF80C
:1020E000048008F007FE00F0EDFE002840F0B28208
:1020F0000DF10808002409F029FB002843D0042C26
:1021000034D101E009F032FB09F020FB0028F9D1BD
:1021100000F0D8FE10B1C14807F090FF4FF07F08E3
:1021200000238DF804808DF80630032648F001075F
:10213000384609F0EBFA0DF10500022109F0F0FA3A
:102140008DF804703A4601AB00205040082410F08E
:10215000800F4FEA400018BF80F00700013CC0B27A
:10216000F5D1AB4228D013F8012FEEE709F0FEFAC3
:1021700008F8010B074600F0A5FE70B9013409F01C
:10218000E5FA0028BBD1042CBED000F09BFE78B944
:10219000013EC3D09DF8048079E7F9B200231022F4
:1021A0009E4807F05BFF01219D480AF0F1FAE5E740
:1021B0009A4807F043FFEBE709F0A8FA00F082FE27
:1021C000002840F0C08102208DF8048008F092FDC4
:1021D00000F078FE002840F038820DF10808002455
:1021E00009F0B4FA002846D0042C37D101E009F0F8
:1021F000BDFA09F0ABFA0028F9D100F063FE10B186
:10220000864807F01BFF4FF07F082122FF238DF83F
:1022100004808DF805208DF80630032648F001076C
:10222000384609F073FA0DF10500022109F078FA39
:102230008DF804703A4601AB00205040082410F09D
:10224000800F4FEA400018BF80F00700013CC0B289
:10225000F5D19D4228D013F8012FEEE709F086FA58
:1022600008F8010B074600F02DFE70B9013409F0A3
:102270006DFA0028B8D1042CBBD000F023FE78B949
:10228000013EC0D09DF8048050E7F9B2002310222F
:10229000624807F0E3FE012161480AF079FAE5E7B8
:1022A0005E4807F0CBFEEBE709F030FA00F00AFEDB
:1022B000002840F0078102208DF8048008F01AFD04
:1022C00000F000FE002840F0CF810DF10808002446
:1022D00009F03CFA002843D0042C34D101E009F085
:1022E00045FA09F033FA0028F9D100F0EBFD10B1FE
:1022F0004A4807F0A3FE4FF07F0800238DF80480C2
:102300008DF80630032648F00107384609F0FEF93B
:102310000DF10500022109F003FA8DF804703A4628
:1023200001AB00205040082410F0800F4FEA40001D
:1023300018BF80F00700013CC0B2F5D19D4228D003
:1023400013F8012FEEE709F011FA08F8010B074620
:1023500000F0B8FD70B9013409F0F8F90028BBD1DC
:10236000042CBED000F0AEFD78B9013EC3D09DF87C
:10237000048053E7F9B200231022284807F06EFECC
:10238000012127480AF004FAE5E7244807F056FE41
:10239000EBE709F0BBF900F095FD002851D10220D0
:1023A0008DF8048008F0A6FC00F08CFD002840F0B9
:1023B00056810DF10808002409F0C8F918B3042C5F
:1023C00014D101E009F0D2F909F0C0F90028F9D1DF
:1023D00000F078FD10B1114807F030FE42F2A4235E
:1023E000002209F8032005B0BDE8F08309F0BEF92A
:1023F00008F8010B074600F065FD98B9013409F0B3
:10240000A5F90028DBD1042CDED000F05BFDA0B9DB
:10241000013EE3D09DF8048075E700BFD087FF1F21
:102420004C390100F9B200231022924807F016FE41
:10243000012191480AF0ACF9E0E78E4807F0FEFD73
:10244000E6E709218D480AF0A3F923461022394610
:10245000884807F003FE012187480AF099F92346CE
:1024600010229DF80510834807F0F8FD01218248ED
:102470000AF08EF9102223469DF806107D4807F0D9
:10248000EDFD01217C480AF083F921460DF107009A
:1024900001AA12F8014B6140C9B2082311F0800F64
:1024A0004FEA410118BF81F00701013BC9B2F5D1E4
:1024B0009042EED110226F4807F0D0FD6D4807F032
:1024C000BDFD6CE709216D480AF062F92346102230
:1024D0003946684807F0C2FD012167480AF058F9FB
:1024E000234610229DF80510624807F0B7FD012130
:1024F00061480AF04DF9102223469DF806105D4808
:1025000007F0ACFD01215C480AF042F921460DF1CB
:10251000070001AA12F8014B6140C9B2082311F06B
:10252000800F4FEA410118BF81F00701013BC9B29A
:10253000F5D19042EED110224E4807F08FFD4D4864
:1025400007F07CFDB7E609214C480AF021F9234643
:1025500010223946474807F081FD012146480AF01C
:1025600017F9234610229DF80510424807F076FD22
:10257000012141480AF00CF9102223469DF806106B
:102580003C4807F06BFD01213B480AF001F9214668
:102590000DF1070001AA12F8014B6140C9B20823EE
:1025A00011F0800F4FEA410118BF81F00701013B94
:1025B000C9B2F5D19042EED110222E4807F04EFD5F
:1025C0002C4807F03BFDFEE509212C480AF0E0F815
:1025D000234610223946274807F040FD01212648AE
:1025E0000AF0D6F8234610229DF80510214807F07E
:1025F00035FD012120480AF0CBF8102223469DF832
:1026000006101C4807F02AFD01211B480AF0C0F8FB
:1026100021460DF1070001AA12F8014B6140C9B231
:10262000082311F0800F4FEA410118BF81F0070124
:10263000013BC9B2F5D19042EED110220D4807F00E
:102640000DFD0C4807F0FAFC48E507210C480AF09C
:102650009FF8C2E507210A480AF09AF848E50721E1
:1026600007480AF095F8A4E6072105480AF090F813
:102670002BE600BFD087FF1F4C3901001832010044
:102680002432010038B500F50A551C3500F1B404B8
:1026900002E08C34AC420AD02046FEF701FF00284D
:1026A000F7D020468C34FEF7F5F8AC42F4D138BDB3
:1026B0002DE9F04F00218C4A8C4B016000F1B405EC
:1026C00000F50A5783B08246426203622C461C37EB
:1026D00002E08C34BC420AD02046FEF7E1FE00281E
:1026E000F7D020468C34FEF7D5F8BC42F4D1C82090
:1026F00008F000FB2C46012604E001363F2E04F1D1
:102700008C046ED02046FEF7CBFE0028F5D078482A
:1027100000F0DEFC3146774800F0DAFC2046FEF798
:102720008DF92046FEF7ACFE0BF0C6FD02460B46C7
:10273000714800F0CDFC2046FEF704FE804620469E
:10274000FEF71CFE834640460BF0B6FD8046584619
:1027500089460BF0B1FD42464B46CDE90001674882
:1027600000F0B6FC00212046FEF78CFE01218046D9
:102770002046FEF787FE834640460BF09DFD8046CF
:10278000584689460BF098FD42464B46CDE900017C
:102790005B4800F09DFC2046FEF772FE0146DAF829
:1027A00000000CF02BF9CAF800002046FEF72AFEC4
:1027B000DAF818100CF0C8FB00287BD12046FEF791
:1027C00037FEDAF81C100CF0DDFB002895D020460F
:1027D000FEF72EFE01363F2ECAF81C0004F18C04D1
:1027E00090D1DAF804000CF0BDF90146DAF80000E7
:1027F0000CF0C0FADAF81410CAF8000004460CF025
:10280000C1FB08B1CAF81440DAF8101020460CF0E9
:102810009BFB08B1CAF810400B2008F035FA42F2D1
:10282000A4231AF8033000284AD1002B58D042F2D2
:10283000A42301220AF803200023CAF80C302C46F6
:1028400002E08C34BC4215D02046FEF729FE002859
:10285000F7D02046FEF792FDDAF80C100CF092FB50
:102860000028EED02046FEF789FD8C34BC42CAF821
:102870000C00E9D1234BCAF8083002E08C35BD4288
:1028800015D02846FEF70CFE0028F7D02846FEF7A4
:1028900059FDDAF808100CF057FB0028EED0284656
:1028A000FEF750FD8C35BD42CAF80800E9D103B0EF
:1028B000BDE8F08F2046FEF7A5FDCAF818007DE7B9
:1028C0002BB942F2A42300220AF80320B4E70E48F1
:1028D00000F016FC42F2A42300220AF80320ABE722
:1028E0000A4800F023FCA2E700C0794400C079C484
:1028F000383B0100283301006433010078330100C4
:10290000A43301000000A040F8330100C0330100EF
:1029100042F2AC23C058704780687047C068704767
:102920000068704741607047F8B500F50A550F46DA
:1029300016461C3500F1B40402E08C34AC420FD0D2
:102940002046FEF7ADFD0028F7D020463946FEF7B9
:10295000ABFD204631468C34FEF7AEFDAC42EFD1E4
:10296000F8BD00BF2DE9F041274A284B426200F52F
:102970000A5507464FF0000803621C3500F1B40405
:10298000002602E08C34A54210D02046FEF788FDD8
:102990000028F7D02046FEF761FD1D490CF0F2FA41
:1029A00080B98C34A54206F10106EED142F2A02393
:1029B000F858801B0CF0D6F8014640460CF0DAF9C6
:1029C000BDE8F0812046FEF749FD014640460CF087
:1029D00015F880462046FEF72BFD396A0CF0D2FA36
:1029E00060B92046FEF70EFD796A0CF0ADFA0028BA
:1029F000C8D02046FEF706FD7862C3E72046FEF702
:102A000017FD3862EDE700BF00C0794400C079C40B
:102A100000008CC2006A7047406A7047F8B500F544
:102A20000A55074600261C3500F1B40402E08C3438
:102A3000AC420FD02046FEF733FD0028F7D02046E9
:102A4000FEF7AEFC014630460BF0D8FF8C34AC42AA
:102A50000646EFD142F2A023F8580CF083F8014665
:102A600030460CF087F9F8BD2DE9F04F06468FB0DF
:102A700076488B4600F0D4FA744800F0D1FA7348D7
:102A800000F0CEFA42F2A0233046F2580D92FEF743
:102A90005DFD73680C93074630680BF00DFC8046B3
:102AA00030468946FFF7BAFF82463046B468F5687B
:102AB000FFF758FF0BF000FCCDE90A01214628463C
:102AC0000BF09AFF62490CF0A1F80BF0F5FBCDE991
:102AD000080128460BF0F0FBCDE9060120460BF07B
:102AE000EBFBCDE9040150460BF0E6FB0D9A0C9B85
:102AF000CDE90201CDE90089114656483A4600F079
:102B00008FFA524800F08CFAB43601274FF0000AD1
:102B100005E001373F2F06F18C0600F08E8030462D
:102B2000FEF7BEFC0028F4D03046FDF7A3FE304689
:102B3000FDF7A4FE3046FDF7A5FE3046FDF7A6FEE4
:102B40000821454809F024FE3946444807F0C6FAF2
:102B5000092F75DD0221424809F01AFE3046FEF7C2
:102B60008FFC0BF0A9FB5FFA8BF902460B46CDF800
:102B700000903A4807F0BCFA01213A4809F008FEF3
:102B80005546002420E00621374809F001FE294679
:102B9000324807F0A3FA0221344809F0F9FD214632
:102BA0003046FEF7C9FB0BF087FBCDF800900246DC
:102BB0000B462A4807F09CFA01340121294809F004
:102BC000E7FD062C09D04546092D05F10108DADCA0
:102BD0000121274809F0DCFDD5E71121254809F03E
:102BE000D7FD00213046FEF74DFC0BF065FB0224BB
:102BF00002460B460094194807F07AFA12211E4843
:102C000009F0C6FD01213046FEF73CFC0BF054FBF9
:102C1000009402460B46114807F06AFA0121174852
:102C200009F0B6FD01370D4807F008FA3F2F0AF109
:102C3000060A06F18C067FF472AF0FB0BDE8F08F84
:102C400001210B4809F0A4FD84E700BF383B0100D7
:102C500000007A44A036010040370100D087FF1FF2
:102C6000944701004C370100503701003C39010006
:102C70004C390100583701006C37010080370100E2
:102C80002DE9F04F85B000F1B4058A4603929B46CA
:102C90002E464FF0010806E008F10108B8F13F0F99
:102CA00006F18C067BD03046FEF7FAFB0028F3D005
:102CB00000230A2251467D4807F0D0F901217C48C3
:102CC00009F066FD03980BF0F7FA00230246009323
:102CD00076480B4607F00CFA0121754809F058FDBB
:102CE0005946724807F0FAF90121714809F050FD80
:102CF00041466E4807F0F2F901216D4809F048FDA0
:102D000000244FF0020921463046FEF715FB0BF078
:102D1000D3FACDF8009002460B46644807F0E8F974
:102D200001340121624809F033FD082C4FF00207FD
:102D3000E9D100213046FEF7A5FB0BF0BDFA009764
:102D400002460B46594807F0D3F90121584809F0CB
:102D50001FFD01213046FEF795FB0BF0ADFA009701
:102D600002460B46514807F0C3F90121504809F0CB
:102D70000FFD39463046FEF785FB0BF09DFA0097B4
:102D800002460B46494807F0B3F908F101084748E5
:102D900007F054F9B8F13F0F06F18C0683D10127F3
:102DA0004FF0000904E001373F2F05F18C0579D081
:102DB0002846FEF775FB0028F5D000230A2251466D
:102DC0003C4807F04BF90121394808F073FA0398A1
:102DD0000BF072FACDF8009002460B46354807F02A
:102DE00087F90121324808F065FA5946314807F061
:102DF00075F901212E4808F05DFA39462D4807F093
:102E00006DF901212A4808F055FA00244FF0020814
:102E100021462846FEF790FA0BF04EFACDF80080D6
:102E200002460B46234807F063F90134012120488C
:102E300008F040FA082C4FF00206E9D1002128469C
:102E4000FEF720FB0BF038FA009602460B461948B5
:102E500007F04EF90121164808F02CFA0121284606
:102E6000FEF710FB0BF028FA009602460B461148BD
:102E700007F03EF901210E4808F01CFA31462846B9
:102E8000FEF700FB0BF018FA009602460B460948C5
:102E900007F02EF90137074807F0D0F83F2F05F16A
:102EA0008C0585D105B0BDE8F08F00BFD087FF1F2E
:102EB00084370100B487FF1F014B1870704700BFB3
:102EC0002087FF1F024B1878B0FA80F04009704746
:102ED0002087FF1F0278002A00F0908070B503461B
:102EE00082B00D46252A2AD158785C1C08B32528C3
:102EF0002FD0732831D0642824D0692822D06628A6
:102F00004FD07A2859D0782835D058282FD0622829
:102F10003ED0422838D06C2814D0632812D07428B0
:102F200057D054285FD009F0B7FC6278631C002AA0
:102F3000D8D1344802B0BDE8704007F07FB81878A7
:102F40001C46F0E72B1D29682E481D4607F0C6F8E1
:102F5000EBE7104609F0A0FCE7E72E6830460CF0DE
:102F60006FFE01463046043509F012FCDDE7022110
:102F7000254809F00DFC2E1D296822480023102247
:102F8000354607F06BF8D0E70221204809F000FC35
:102F90002E1D29681B4800230222354607F05EF8E3
:102FA000C3E7073525F007050321D5E900231548B8
:102FB0000091083507F09CF8B7E7073525F00705BD
:102FC0000021D5E900230F480091083507F090F85B
:102FD000ABE7296801290EBF0D480E4801210435D1
:102FE00009F0D6FBA1E72B68012B07BF04210A4893
:102FF0000A480521043509F0CBFB96E7014807F0A4
:103000001DB800BFD087FF1F883701008C37010033
:10301000903701009437010098370100A037010074
:103020000FB400B583B004A951F8040B0191FFF768
:1030300051FF03B05DF804EB04B0704770B51B4B53
:103040001B4C1B6882B00D460193019B23601946FF
:1030500004460023164617480A2206F0FFFF032104
:10306000154809F095FB032C07D8DFE804F01A1582
:1030700010020521114809F08BFB0221104809F0CC
:1030800087FB31462846FFF725FF02B070BD0721B8
:103090000C4809F07DFBF0E704210B4809F078FBB0
:1030A000EBE70521094809F073FBE6E704BAFF1FC7
:1030B0004C92FF1FD087FF1FFC320100C037010078
:1030C0003C390100B8370100B0370100A8370100D2
:1030D0000FB400B5094B187883B020B103B05DF888
:1030E00004EB04B0704705AB1A4604990193FFF74F
:1030F000A5FF03B05DF804EB04B070472087FF1F05
:103100000FB4094B00B51B78012B83B004D903B071
:103110005DF804EB04B0704705AB1A4604990193BF
:103120000120FFF78BFFF2E72087FF1F0FB40B4B47
:1031300000B51B78032B83B004D903B05DF804EB12
:1031400004B0704705AB1A46049901930320FFF7BA
:1031500075FF03B05DF804EB04B070472087FF1FD4
:1031600030B4074D074C084900232B7023600365DA
:103170004365836580F85C300B6030BC704700BFEE
:103180005892FF1F5492FF1F5092FF1F0A4A0B498B
:10319000106ED36D03FB00F34FF47A7000FB03F065
:1031A000642310B50B600BF0DDFC0549054C0BF0FA
:1031B000E1FD206010BD00BF5C93FF1F3887FF1F3B
:1031C000E4388E3EA892FF1F10B5074C204606F04B
:1031D00035FF064B2046196806F080FF032104489E
:1031E000BDE8104009F0D4BAD087FF1FE894FF1F54
:1031F000C837010038B5044608460D460CF020FDDE
:103200002368024629465B682046984705462046C3
:1032100006F014FF284438BDF8B54B484B4C4C4ED3
:103220004C4FFFF7FDFE4C4B4C484D4A4D49586002
:1032300014254D481D70DA604C4D1C6100224FF47E
:10324000FA749E619F624A4E4A4FD961D8624FF02C
:103250007C5149481D639A63484D9C860C22484C1A
:10326000DE631F64474ED9649627022118655D65A9
:103270000120454D9A655C6200223224C3F8C86083
:10328000A3F8667064264FF49677597059721872D5
:10329000D8651D625D615D6483F84820C3F8A8406D
:1032A0001E66A3F86A70A3F864700A25A3F8684044
:1032B000C3F88010C3F88400C3F89040C3F8B0404E
:1032C000C3F8B80041F204045A20C3F8BC102F49D7
:1032D000DA6740F61C4CC3F88820C3F8AC204FF4E2
:1032E0007A7EC3F8C06083F8CD2083F8CE20284FC3
:1032F0001D6741F2883244F62066FF255C679867B7
:1033000005244FF41670C3F8981040F2D661C3F844
:103310006CC0C3F894E0C3F89C70C3F8A060C3F815
:10332000B450A3F8C640A3F8D000A3F8D400A3F883
:10333000D220A3F8D620C3F88C20A3F8C420A3F889
:10334000A410A3F8A610F8BDCC370100000040403F
:1033500033338340CDCCCC3D5C93FF1F20A10700CD
:1033600066668640CDCC4C4000008242000020C101
:10337000000020420000A0409A9979400AD7233DDE
:10338000333373409A99993ECDCC4C3E00001144A2
:1033900000F0C845F0B54FF47A6087B007F0AAFC9A
:1033A00000210F2007F07EFC00210E2007F07AFCA0
:1033B0000021112007F076FC0021102007F072FC9C
:1033C0000021122007F06EFC0021132007F06AFC98
:1033D00001210B2007F066FC01210C2007F062FCA4
:1033E0000121142007F05EFC0121152007F05AFC92
:1033F0000121162007F056FC0121172007F052FC8E
:1034000001210520B34CB44D07F04CFC01210620EE
:1034100007F048FC01210D2007F044FC20880BF048
:103420009DFB0146162007F0A7FB20880BF096FBBA
:103430000146172007F0A0FB20880BF08FFB014608
:10344000052007F099FB20880BF088FB0146062039
:1034500007F092FB05F1D8062F462C46601B07F0BB
:103460005BF804F8010BA642F8D13B78142B01D08D
:10347000FFF7D2FE002423467968984A00949848C2
:1034800006F00CF89DF81430049443F0010364F343
:1034900041038DF814300424E2B204A901349048A9
:1034A00005F0C2FF102CF7D18E4D4FF0FF32286887
:1034B000214605F091FA28684FF0FF32214605F0C9
:1034C00063FA28684FF0FF32042105F071FA28688A
:1034D0004FF0FF32012105F075FA00220F21286814
:1034E00005F084FA0C21804809F052F97F4806F073
:1034F000A5FD21467E4809F04BF97C4806F09EFD6B
:1035000040F2836007F0B4FC784806F097FD17217D
:10351000784809F03DF9754806F090FD764B1B7828
:10352000990600F11B81744B1B781A0700F1C980C2
:10353000714B1B785B0700F1BC806F4B1B789E07BB
:1035400000F1A3806D4B1B781D0600F1AA806B4B28
:103550001B785C0600F19180684B1B78980600F19F
:103560008480664B1B78590777D4644B1B781A0705
:103570006BD4624B1B789B0706D51821604809F075
:1035800007F95A4806F05AFD584806F057FD72B63A
:103590005C4A4CF220534DF62811202513802B460F
:1035A0001180013BFDD158485849594B00244FF434
:1035B000805606800C801C8032F80E3C9BB243F093
:1035C000D30322F80E3C62B69D2008F04FF829463E
:1035D000504809F0DDF8454806F030FD4E48FEF74A
:1035E00055FC0420FFF768FC4C4B4B481C60FEF771
:1035F00089FB01210D2007F041FBF96D4648484C3D
:10360000FFF790F9FA6C97F848104348FFF78CF9E8
:10361000444B45491B68454A3F48126881FB0351AA
:10362000DB17A3EB211313FB02F32380FEF71EFD30
:103630003F4B40491A68039203981B680293029A11
:103640003D4B08601A6007B0F0BD19213B4809F0F6
:103650009FF8264806F0F2FC8BE71C21384809F059
:1036600097F8224806F0EAFC7FE71321354809F075
:103670008FF81E4806F0E2FC73E71221324809F089
:1036800087F81A4806F0DAFC66E717212F4809F098
:103690007FF8164806F0D2FC184B1B781D067FF504
:1036A00056AF0E212A4809F073F8104806F0C6FC00
:1036B0004DE70E21274809F06BF80C4806F0BEFCD8
:1036C0003BE70C21244809F063F8084806F0B6FCF3
:1036D0002EE700BF2887FF1F5C93FF1FDCB9FF1F89
:1036E00040B8FF1FF094FF1FEC370100D087FF1F89
:1036F000FC3701001038010001F0074000F00740DE
:10370000F83801000E200540042005400620054041
:1037100016200540143901009095FF1F7092FF1F7D
:10372000FC94FF1F6487FF1F1F85EB516087FF1FFD
:1037300004BAFF1F2895FF1FA494FF1FDC38010067
:10374000BC380100A8380100943801006C38010031
:10375000843801005C3801004C3801002121034805
:1037600009F016F8024806F069FCDCE6283801008A
:10377000D087FF1F70B5464C464D4748E66800238A
:103780002B70FFF7CBF8014630460BF0DDFB08B19C
:1037900004232B704048FFF7BFF821690BF0D4FBDE
:1037A00018B12B7843F010032B703B48FFF732F928
:1037B000E16A0BF0E7FB18B12B7843F040032B7064
:1037C000002335486B70FFF727F9216B314E0BF062
:1037D000BBFB08B10123737000232F48EB70FFF788
:1037E0009DF805462C482B4EFFF796F801462846D3
:1037F0000BF002F9616C0BF0C5FB08B10123F3700B
:10380000264D254800232B70FFF788F8A16A06464D
:10381000E0680BF0F1F8014630460BF0B3FB08B15D
:1038200004232B701C48FFF777F8A16A064620692D
:103830000BF0E4F8014630460BF086FB18B12B780C
:1038400043F010032B701448FFF7E4F8216C064690
:10385000E06A0BF0D1F8014630460BF093FB18B14B
:103860002B7843F040032B7000230B486B70FFF75D
:10387000D3F8216C0546206B084C0BF0BFF80146CD
:1038800028460BF061FB08B10123637070BD00BFD7
:103890005C93FF1F5893FF1F9095FF1FE494FF1F39
:1038A0002DE9F0417C4C2368012B82B02FD0022BF4
:1038B0005ED0032B7ED03BBB784B794AD3F8B01057
:1038C000D3F8B43012685B1A632B0EDD754803FB26
:1038D00002F380FB0302DB17C3EB621319440620DB
:1038E00002B0BDE8F04107F049B86F4803FB02237E
:1038F00080FB0302DB17C3EB22121144062002B047
:10390000BDE8F04107F03AB802B0BDE8F081674E7B
:1039100033680A33B3F57A7F6EDC184633600BF0F8
:1039200021F963490BF072F980465C4DD5F8B0007F
:103930000BF018F90746D5F8B4000BF013F9394627
:103940000BF05AF841460BF061F95A490BF012FAA4
:1039500039460BF053F80BF035FB0146062007F013
:103960000DF8554B1B68002B4BD12368022BA0D1BF
:103970004E4B4A4E00221A60D6F8B0000BF0F2F817
:103980000546D6F8B4000BF0EDF829460BF034F8F4
:1039900000210BF03BF947490BF0ECF929460BF0FD
:1039A0002DF80BF00FFB0146062006F0E7FF236819
:1039B000032B80D13D4B394E4FF47A721A60D6F802
:1039C000B0000BF0CFF80546D6F8B4000BF0CAF8FB
:1039D00029460BF011F837490BF018F935490BF06F
:1039E000C9F929460BF00AF80BF0ECFA014606205B
:1039F00006F0C4FF23685EE700234FF00008336041
:103A000093E702212D4808F0C3FE2D4806F016FB6F
:103A100006212C4808F0BCFE30680BF0A3F82449BE
:103A20000BF0F4F80AF048FC022702460B46009718
:103A3000234806F05DFB0D21234808F0A9FED5F8C8
:103A4000B0000BF08FF8804630680BF08BF8184907
:103A50000BF0DCF80646D5F8B4000BF083F84146CD
:103A60000AF0CAFF014630460BF0D0F811490BF0BE
:103A700081F941460AF0C2FF0AF01EFC0097024697
:103A80000B460F4806F034FB39460C4808F080FE20
:103A90000B4806F0D3FA68E7CC94FF1F5C93FF1F36
:103AA0003887FF1F1F85EB51CBF08D287492FF1FC5
:103AB000CDCCCC3D0000C8424087FF1F9447010099
:103AC000D087FF1F383901004039010030B5B648B2
:103AD000B64C83B006F0B2FAB34806F0AFFAB2487B
:103AE00006F0ACFA0D21B24808F052FED4F8AC3022
:103AF000012B11D0AF4DAC48297800230A2206F0E3
:103B0000ADFA2B78052B69D8DFE813F03E014301AD
:103B10004801900195019A010921A74808F038FE53
:103B2000A648FEF7F9FE21690BF00EFA18B10F2135
:103B3000A34808F02DFEA148FEF7F0FEE1680BF067
:103B400021FA18B10E219F4808F022FE9B48FEF78B
:103B5000E5FE05469948FEF7DFFE014628460AF0D5
:103B60004BFF616C0BF00EFA18B11121964808F06A
:103B70000FFE9248FEF7F6FEE16A0BF003FA18B169
:103B80000C21924808F004FE8C48FEF7EBFE216BF6
:103B90000BF0DAF918B10D218D4808F0F9FD8D4BC5
:103BA00086481B68012B00F06F81FEF7B5FE216986
:103BB0007E4D0BF0E7F9002800F0E4807F48FEF727
:103BC000ADFEE9687B4D0BF0BFF938B12B78052BC2
:103BD00000F06C810821804808F0DAFD02217F485E
:103BE00008F0D6FD122007F04FF8012800F03481CC
:103BF000112007F049F8012800F03881784B1B6844
:103C0000012B00F03C8102217448764C08F0C0FD85
:103C1000754B6548196806F061FA634806F00EFABC
:103C20000421724808F0B4FD0B2007F02DF80023A2
:103C300001460A225C4806F011FA0C2007F024F82D
:103C4000002301460A22584806F008FA142007F01B
:103C50001BF8002301460A22534806F0FFF91520FD
:103C600007F012F80A22002301464F4806F0F6F941
:103C700006215F4808F08CFD2368DB074FF0010147
:103C80004CBF5C485C4808F083FD236898074FF000
:103C900001014CBF5748584808F07AFD23685A077D
:103CA0004FF001014CBF5348534808F071FD2368A1
:103CB0001B074CBF4F485048012108F069FD042103
:103CC0004E4808F065FD112006F0DEFF0023014696
:103CD0000A22354806F0C2F9102006F0D5FF00236D
:103CE00001460A22304806F0B9F9122006F0CCFF4E
:103CF000002301460A222C4806F0B0F9132006F0F2
:103D0000C3FF0A2200230146274806F0A7F918211D
:103D10003B4808F03DFD3B4B18880AF023FF3A4929
:103D20000AF074FF0AF0C8FA002402460B46009419
:103D30001D4806F0DDF91D21344808F029FD344BFB
:103D400018880AF00FFF30490AF060FF0AF0B4FA51
:103D500000940B460246144806F0CAF902212D4889
:103D600008F016FD2B78032B01D003B030BD2A4B91
:103D70001B78002B69D029481D2103B0BDE83040D5
:103D800008F006BD0B4D29E70621254808F000FD87
:103D900024E70721234808F0FBFC1FE707212248FE
:103DA00008F0F6FC1AE700BFD087FF1F5C93FF1FE7
:103DB00050390100E094FF1F603901009095FF1F0A
:103DC0006C3901007C3901008C390100A0390100F7
:103DD000B03901008892FF1FE439010094470100C7
:103DE000F894FF1F3494FF1FD094FF1F583A01002E
:103DF000603A0100683A01006C3A0100703A010033
:103E0000783A01006492FF1FCDCCCC3D943A01007A
:103E1000EC94FF1FB43A01003093FF1FD43A010025
:103E2000F0390100F83901000C3A0100082122485C
:103E300008F0AEFCD2E60B21204808F0A9FCCDE644
:103E400007211F4808F0A4FCC8E61E48192103B04A
:103E5000BDE8304008F09CBC0E211B4808F098FCDF
:103E6000112006F011FF01287FF4C8AE0A2117487F
:103E700008F08EFC164B1B68012B7FF4C4AE112199
:103E8000144808F085FCBEE6FEF746FD616A0BF0BB
:103E900079F848B116211048104D08F079FC0A2134
:103EA0000F4808F075FC99E60C4D93E60A210C4882
:103EB00008F06EFC92E600BF143A0100003A0100DF
:103EC000203A0100B83A0100283A0100383A0100CE
:103ED000F894FF1F443A0100C0390100E094FF1F2D
:103EE000D83901002DE9F04FAF4CD4F88030012BC8
:103EF0008DB000F08181032BDFF8F08262D0AB4EF1
:103F0000AB4FE36FAB48012B09BF3968396801F14A
:103F10000041396005F088FE3368002B40F02981AC
:103F2000A448DFF8C89205F055FE3368C8F80000D1
:103F30000546002B40F0CC80D4F880309A4A012B03
:103F400000F0DB809C4928460BF01CF8C0B99B4967
:103F500028460AF0F9FF98B9994A9A4B12680B92D1
:103F60000B9A1A60D4F8B8000AF0FCFD29460AF052
:103F70004DFE0023C8F800003B600DB0BDE8F08F97
:103F8000DFF83CA28F4EDAF800300A930A983368C3
:103F9000DFF85C92C01A0AF0E1FD29460AF036FE0D
:103FA00089490AF0E7FE88490AF0E4FED9F80010D2
:103FB0000AF024FDDAF800300993099BC9F80000E3
:103FC0003360CFE7814D824E2868012300220F2104
:103FD000336004F00BFD3368744E012B336800F03E
:103FE0003181002B40F0CE8100212868DFF8049257
:103FF000764F04F04DFD33681FFA80FBC9F800B01E
:10400000002B40F0A48100212868694FDFF8BCA193
:1040100004F0C4FCB4F8A63040F6E44101FB0BF117
:10402000B1FBF0F0C01A00B20AF09CFD694983466A
:10403000D4F898000AF0EAFD014658460AF09AFEC4
:10404000D9F800303860632BDFF8A8B100F3738132
:1040500000233B603368002B3FF453AF02215E48DE
:1040600008F096FBD9F80020286840F6E4430021C8
:1040700003FB02F504F092FCB5FBF0F00AF06EFDD4
:104080000546B4F8A6000AF06DFD014628460AF080
:10409000B3FC0AF011F9022502460B4600954F4881
:1040A00006F026F829464C4808F072FB38680AF0FA
:1040B00003F9009502460B46484806F019F82946D0
:1040C000474808F065FB2946434808F061FB18E7BC
:1040D0000AF0F2F8022502460B4600953F4806F02A
:1040E00007F804213F4808F053FBD4F88030D9F892
:1040F00000502D4A012B7FF425AF354B1B68012B57
:1041000000F04C81022B7FF42DAFD2F8A060304636
:104110000AF028FD29460AF017FF40B970420AF05C
:1041200021FD29460AF02EFF002800F06A81DFF801
:1041300090A0244EDAF80030079307983368DFF830
:10414000B090C01A0AF00AFD29460AF05FFD1E4928
:104150000AF010FE1C490AF00DFED9F800100AF012
:104160004DFCDAF800300693069BC9F80000336076
:10417000F8E6104805F02EFD0AF09EF802250246EA
:104180000B460095154805F0B3FF0321164808F0CB
:10419000FFFAD4F8A010114805F0A0FF032112483F
:1041A00008F0F6FABCE600BF5C93FF1F1C95FF1FEA
:1041B0008492FF1F3493FF1F0000FA430000FAC3EC
:1041C00004BAFF1F5C92FF1F00007A44F094FF1FA7
:1041D0005487FF1F9175DD3694470100D087FF1F7C
:1041E000303B0100343B0100003301009492FF1F7B
:1041F000A892FF1F5493FF1FDFF8B882D4F8A06085
:10420000D8F8005030460AF0ADFC29460AF0BAFE54
:1042100048B170420AF0A6FC014628460AF0B2FEF8
:1042200000287FF4CFAE914D914E286802230022E2
:104230000E21336004F0DAFB33688E4E012B3368B5
:104240007FF4CFAE002B40F0FE8000212868DFF81D
:104250006892864F04F01CFC33681FFA80FBC9F893
:1042600000B0002B40F0D48000212868824F04F079
:1042700095FBB4F8A43040F6E44A0AFB0BFBBBFB09
:10428000F0F0C01A00B20AF06DFC7C498346D4F805
:104290009C000AF0BBFC014658460AF06BFDD9F8B9
:1042A00000303860002128680AFB03FA04F076FB2E
:1042B000B4F8A430BAFBF0F00FFA80FAC3EB0A03AB
:1042C000002BB4F8C620B8BF5B429342BCBF0023AA
:1042D0003B603368002B3FF414AE0221684808F0BD
:1042E00057FAD9F80020286840F6E443002103FB80
:1042F00002F504F053FBB4F8A410B5FBF0F000B2E3
:10430000411A604805F0EAFE02215D4808F040FAD3
:10431000386809F0D1FF022502460B46009559483E
:1043200005F0E6FE0321584808F032FA29465448C1
:1043300008F02EFAE5E5DAF80000002104F02EFB83
:10434000DBF8003064389842FFF482AE82E6002148
:10435000386804F023FB40F6E44100230A2201FB05
:104360000BF1B1FBF0F1474805F078FE022144481B
:1043700008F00EFAB4F8A610424805F0AFFED9F8DE
:1043800000B040E63F4805F059FE0C213F4808F0D8
:10439000FFF90C213E4808F0FBF925E63D49284687
:1043A0000AF0F0FD58B93C4928460AF0CDFD30B975
:1043B0003A4A3B4B12680592059A1A60D2E5DFF83B
:1043C000DCA0374EDAF80030049304983368DFF845
:1043D000EC90C01A0AF0C2FB29460AF017FC3149DA
:1043E0000AF0C8FC2F490AF0C5FCD9F800100AF001
:1043F00005FBDAF800300393039BC9F80000336033
:10440000B0E5264A264B12680892089A1A60A9E578
:104410000021386804F0C2FA40F6E44100230A2281
:1044200001FB0BF1B1FBF0F1164805F017FE01217D
:104430001D4808F0ADF9B4F8A410124805F04EFE7E
:10444000D9F800B010E70F4805F0F8FDD4F8803037
:10445000012B4FF00B010CBF1448154808F098F9D8
:104460000C210B4808F094F9EFE600BFF094FF1F11
:104470005487FF1F1C95FF1F8492FF1F9175DD3627
:1044800094470100D087FF1F1C3B0100203B010027
:104490000C3B01000000FA430000FAC304BAFF1FFE
:1044A0005C92FF1F00007A444C390100F43A01008D
:1044B000003B01009492FF1F5493FF1FA892FF1F1F
:1044C0002DE9F04F914D2B6883B0002B00F08380D5
:1044D0008F4CDFF84482D4F88830DFF87C928D4E20
:1044E0008B4F012B00F0B380D6F800A0D7F860B056
:1044F000FD6D894F05FB0BF54FF47A7000FB05F05D
:104500000AF030FB8549054650460AF07FFB2946F4
:104510000AF030FC82490AF079FB0AF053FD632867
:10452000C8F800004CDD28467C490AF023FC6423CF
:104530003B60D9F800303060002B49D0D4F880308F
:10454000734D012B00F0B180032B00F0D780022BBC
:1045500000F0CF800221734808F01AF9724B1868F6
:1045600009F0AAFE022402460B4600946F4805F0AB
:10457000BFFD21466E4808F00BF92146694808F056
:1045800007F9D8F80010694805F0A8FD0621694828
:1045900008F0FEF8306861490AF038FB09F08CFE3B
:1045A000009402460B46614805F0A2FD03216248D3
:1045B00008F0EEF85D4803B0BDE8F04F05F03EBDF1
:1045C0000028BCBF00233B60D9F80030002BB5D1D8
:1045D00003B0BDE8F08F59484D4CFEF71FFA58491B
:1045E000E76E266F0AF012FB0AF012FD626FA36FEE
:1045F000D21B9B1B80B29A42A0EB070062DC03FB3C
:1046000000F393FBF2F31E44DFF84C91DFF80881CE
:10461000D9F80030C8F80060002B5AD13346206E1C
:10462000E26D3C4E3A4F00FB03F002FB00F000EB62
:10463000800040000AF096FA38490AF09BFB0123FB
:104640002B60D4F888303060012B7FF44DAF3B48AD
:10465000FEF7E4F93A49D7F86CA03D6F0AF0D6FAB4
:104660000AF0D6FC7A6FBB6FD4F860B0CAEB0202D6
:104670005B1B80B29A42CAEB0000C6BF03FB00007E
:104680000132584390FBF2F02844E56D00FB0BF03B
:1046900005FB00F000EB800040000AF063FA1F49C0
:1046A0000AF068FB8246306023E7264B1B68012B2B
:1046B0004FF00A010CBF2448244808F069F8D5F8E7
:1046C000803041E703FB0000531C90FBF3F00644ED
:1046D0009AE70221134808F05BF8D8F80010134855
:1046E00005F0FCFC02210F4808F052F8D8F8003021
:1046F00095E70721164808F04BF82BE710211548DD
:1047000008F046F8D4F8803021E700BF8092FF1F00
:104710005C93FF1FA892FF1F3887FF1FE4388E3E6F
:104720000000C842944701009492FF1FD087FF1FEA
:10473000303B0100703B0100783B01009095FF1F6A
:1047400000007A445487FF1F3C3B0100483B0100B6
:10475000683B0100543B01004087FF1F30B511202A
:1047600083B006F091FA012818D0122006F08CFAD6
:10477000012813D000210B2006F080FA00210C2024
:1047800006F07CFA0021152006F078FA2649274B1E
:104790000120002208701A6003B030BD01211520ED
:1047A00006F06CFA224A234C234B1268D4F88C1082
:1047B00001921B68019A1D4D0B4493424FF0020178
:1047C000296005D901210C2006F058FA03B030BD4C
:1047D000D4F894000AF0C6F9184B19680AF0B4FB33
:1047E0000028EFD101210B2006F048FA94F8CC30D4
:1047F0000324012B2C600DD0122006F045FA01286D
:1048000008BF094B4FF0110008BF1C7006F03CFABE
:10481000012802D1044B02221A7000210C2006F05C
:104820002DFA03B030BD00BFE094FF1F1895FF1FA5
:1048300004BAFF1F5C93FF1F2895FF1F9492FF1F70
:10484000F0B56D4E6D4D34682B689C4287B03AD000
:1048500014F0010156D014F002014AD014F0040102
:104860003ED0E3070FD52B68DF070CD4644F3A68BE
:10487000002A00F09E80634B1B680193019B9342CA
:1048800000F289803468A0070DD52B6899070AD4F7
:104890005D4F3A68002A3ED05A4B1B680393039B36
:1048A00093425AD8346862070DD52B685B070BD446
:1048B000564F3A68002A3FD0524B1B680593059B20
:1048C000934258D834680CB107B0F0BD2146162089
:1048D00006F054F82146172006F050F807B0F0BD56
:1048E000052006F04BF82B68346803F0FB032B60BF
:1048F000B7E7172006F042F82B68346803F0FD0391
:104900002B60ABE7162006F039F82B68346803F00B
:10491000FE032B609FE73E4B1B68002B56D1FF2107
:10492000172006F02BF8374B3A4A19680291029982
:1049300012680A443A60B0E7354B1B68002B50D12F
:10494000FF21052006F01AF82E4B324A196804910F
:10495000049912680A443A60AFE72F4B1720D3F846
:10496000901006F00BF82B68346843F00203002225
:104970002B603A6097E7284B0520D3F8901005F09C
:10498000FDFF2B68346843F0040300222B603A607B
:10499000002C99D19AE7204B1620D3F8901005F0FF
:1049A000EDFF2B68346843F0010300222B603A606E
:1049B00069E7FF21162005F0E1FF124B154A19683F
:1049C0000091009912680A443A6055E7134805F0CF
:1049D00035FB0C21124807F0DBFE104805F02EFBDA
:1049E0009DE70E4805F02AFB0C210E4807F0D0FE8B
:1049F0000A4805F023FBA3E71895FF1F3494FF1F17
:104A0000B094FF1F04BAFF1FB494FF1FB894FF1F98
:104A10004087FF1F7087FF1F5C93FF1FD087FF1F1A
:104A20007C3B01008C3B01002DE9F047544EDFF840
:104A30007481DFF874913068524D00220F2103F029
:104A4000D5FF0023012222214F48C8F80030C9F8C1
:104A5000002007F09DFED8F80030132B22DC40F632
:104A6000E44700213068B5F8A4A004F011F8002153
:104A70000446306803F092FFA4B2012107FB04F45E
:104A8000B4FBF0F441485444A5F8A44007F080FE7C
:104A9000642006F02FF9D8F800300133132BC8F842
:104AA0000030DEDDB5F8A430394A3A48A2FB0312E3
:104AB0009B1A02EB5303C3F30F131946A5F8A43056
:104AC00005F00CFB1D21344807F062FE022133483B
:104AD00007F05EFE2F4805F0B1FA00231A460E21BA
:104AE0003068C8F8003003F081FF022322212648F5
:104AF000C9F8003007F04CFED8F80030132B22DC48
:104B000040F6E44700213068B5F8A69003F0C0FFF6
:104B100000210446306803F041FFA4B2012107FBE5
:104B200004F4B4FBF0F419484C44A5F8A64007F08F
:104B30002FFE642006F0DEF8D8F800300133132B86
:104B4000C8F80030DEDDB5F8A630114A1148A2FBE6
:104B500003129B1A02EB5303C3F30F131946A5F874
:104B6000A63005F0BBFA1D210D4807F011FE022109
:104B70000A4807F00DFE0748BDE8F04705F05EBAA9
:104B8000F094FF1F5C93FF1F9C3B0100E03B010082
:104B900087611886D087FF1FC03B01009447010042
:104BA000E43B0100D494FF1F5487FF1F2DE9F84315
:104BB000C04BC14CC14E1B68B06D40F25131082250
:104BC0002160E271002B40F06F8109F0CBFFB169E9
:104BD00005460AF01BF8BA49B84F0AF017F80AF070
:104BE00017FA80B203126372B64AB74B12881B8859
:104BF0002072A37228461B121512E3722273F16908
:104C000065730AF003F8AE49AB4D09F0FFFF0AF0F7
:104C1000FFF983B21A122946AC48A373E27304F079
:104C200035FEAB4AAB4B12681988A172D3B223721E
:104C300003EB83035B00237302EB820343F3D7137D
:104C40004FEA212E12124FF008084FF000092946B2
:104C500063739E4884F80BE040F255336272236020
:104C600084F8078084F80E9084F80F9004F00EFE0C
:104C700040F256339848236084F80780FDF750FED1
:104C8000964909F0C3FF0AF0C3F920729248FDF774
:104C900047FE924909F0BAFF0AF0BAF9904A8F49E3
:104CA000C0F30723637210680AF064F80AF08AF907
:104CB00040FA08F3A0728848E372FDF753FE80497A
:104CC00009F0A4FF0AF07EF920738348FDF74AFE3D
:104CD0007B4909F09BFF0AF075F940F3072029464C
:104CE00060737A4884F80E9084F80F9004F0CEFD3B
:104CF000022005F0FFFF7B4A7B4B1178217251782F
:104D000090786172D178A0721A789878E1725978A7
:104D100022736173DA78A07340F25A3329466B48E4
:104D2000E273236084F8078004F0B0FD6F4B67489E
:104D30001A7822725A7862729A78A272DA78E272DB
:104D40001A7922735A7962739A79DB79E373294667
:104D500040F25E33A273236084F8078004F096FD6E
:104D6000022005F0C7FF624B58481A7822725A7821
:104D700062729A78A272DA78E2721A7922735A7998
:104D800062739A79DB79E37329464FF45C7323608D
:104D900084F80780A27304F079FD564B1B68012B41
:104DA00000F0AE80022005F0A5FF336E23730225CC
:104DB00000221B12284640F27338082763732272C0
:104DC000012362729922A273E372E373A572C4F89D
:104DD0000080E77105F08EFF3F48C4F80080E7715E
:104DE000FDF79AFD444909F011FF0AF011F920720C
:104DF0003948FDF791FD404909F008FF0AF008F92C
:104E0000C0F3072334486372FDF788FD3A4909F07F
:104E1000FDFE0AF0FDF8A0722F48FDF77FFD364930
:104E200009F0F4FE0AF0F4F8C0F307232A48E3720D
:104E3000FDF7F2FD314909F0E1FD0AF0E9F82073D0
:104E40002548FDF7E9FD2D4909F0D8FD0AF0E0F805
:104E5000C0F3072320486373FDF7DCFD274909F001
:104E6000CDFD0AF0D5F8A0731B48FDF7D3FD23490B
:104E700009F0C4FD0AF0CCF80F49C0F3072313482A
:104E8000E37304F003FD284605F034FFF26D336E42
:104E9000E57112FB03F3C3F3072140F27932237269
:104EA00061722260BDE8F88309F05CFE716A054614
:104EB0008FE600BF8892FF1F0895FF1F5C93FF1FBE
:104EC00000002041EC94FF1F6492FF1F40B8FF1FB9
:104ED0003887FF1F3C87FF1F9095FF1F0000C842C7
:104EE0009492FF1F5893FF1FE494FF1F2C87FF1F0E
:104EF0005887FF1FF894FF1F00007A4433938843BC
:104F00002648FDF709FD796D09F078FD81462348B3
:104F1000FDF704FD014648460AF016F800283FF464
:104F200041AF40F2C3331D4885F807802B60FDF781
:104F3000F3FC3F6D39460AF007F8C8B11849384606
:104F400009F064FE0AF064F880B240FA08F368726F
:104F50002B72002301270425032212491248A7724D
:104F6000E57222736373A373E37304F08FFC19E794
:104F70000A48FDF7D1FC0A4909F048FE0AF048F852
:104F8000C0F3072305482B72FDF7C6FC044909F05E
:104F90003DFE0AF03DF86872DBE700BF9095FF1F09
:104FA00000007A440895FF1F40B8FF1FF0B57C4C05
:104FB0007C4D83B007F086FB23682860042B00F04B
:104FC000E782092B00F06982022B4CD1A0F131035A
:104FD000422B52D8DFE813F0A208AE084A08550069
:104FE00082089308240833085100510051005100F1
:104FF0005100510051005100510051005100510029
:105000005100510051005100510051005100510018
:105010005100510051005100510051005100510008
:1050200051005100510051005100510051005100F8
:1050300051005100510051005100510043005100F6
:1050400051005100510051005100510051005100D8
:105050005100510051005100730051004008FFF70A
:10506000E3FC23682868082B1CD1322800F0B983A0
:10507000712824D0312800F0FE86732823D003B095
:10508000F0BD0123236007F059FB002807DD4648E7
:10509000464E05F067F909F065FDC6F89C006320EF
:1050A00023682860072B40F0A380332801F0748523
:1050B00040F3F882342801F048857128DDD10022C0
:1050C000732322602B602368002BD8D1384E3648DA
:1050D00004F0B4FF0421374807F05AFB324804F0CB
:1050E000ADFF1021344807F053FB2F4804F0A6FF12
:1050F0001321324807F04CFB314B2B48196804F060
:10510000EDFF294804F09AFF14212E4807F040FBD8
:10511000254804F093FF1E212B4807F039FB224855
:1051200004F08CFF1521294807F032FB1E4804F0DB
:1051300085FF1E21264807F02BFB1B4804F07EFF4D
:105140002021244807F024FB174804F077FF192199
:10515000214807F01DFB144804F070FF12211F487E
:1051600007F016FB104804F069FF19211C4807F0EE
:105170000FFB0D4804F062FF0F211A4807F008FBEF
:10518000094804F05BFF0D21174807F001FB0648B2
:1051900004F054FF002201233260236003B0F0BD0D
:1051A000AC92FF1F6092FF1FD087FF1F5C93FF1F11
:1051B0004087FF1F50400100584001006C40010033
:1051C0002487FF1F8040010098400100B840010083
:1051D000D0400100F04001001441010030410100C5
:1051E00044410100604101007041010023682868CA
:1051F000062B40F08D80A0F13103402B3FF63DAFF0
:1052000001A252F823F000BF795F0000A55F000003
:10521000D15F0000F95F0000CF610000E361000092
:10522000516100008D610000A96100007B50000009
:105230007B5000007B5000007B5000007B50000042
:105240007B5000007B5000007B5000007B50000032
:105250007B5000007B5000007B5000007B50000022
:105260007B5000007B5000007B5000007B50000012
:105270007B5000007B5000007B5000007B50000002
:105280007B5000007B5000007B5000007B500000F2
:105290007B5000007B5000007B5000007B500000E2
:1052A0007B5000007B5000007B5000007B500000D2
:1052B0007B5000007B5000007B5000007B500000C2
:1052C0007B5000007B500000076200007B50000014
:1052D0007B5000007B5000007B5000007B500000A2
:1052E0007B5000007B5000007B5000007B50000092
:1052F0007B5000007B5000007B5000007B50000082
:105300007B5000007B500000BF50000023682868DD
:10531000052B15D1332801F0AF8440F3E9813528FE
:1053200001F06384C1F24B8471287FF4A6AEEB498F
:10533000002373220B6023602A60C4E62368286878
:10534000032B40F0A480A0F13003422B3FF695AE32
:1053500001A252F823F000BF65540000D567000099
:10536000FD6700004167000063670000856700007B
:10537000AD6700006369000081690000A769000053
:105380007B5000007B5000007B5000007B500000F1
:105390007B5000007B5000007B5000007B500000E1
:1053A0007B5000007B5000007B5000007B500000D1
:1053B0007B5000007B5000007B5000007B500000C1
:1053C0007B5000007B5000007B5000007B500000B1
:1053D0007B5000007B5000007B5000007B500000A1
:1053E0007B5000007B5000007B5000007B50000091
:1053F0007B5000007B5000007B5000007B50000081
:105400007B5000007B5000007B5000007B50000070
:105410007B5000007B5000007B5000002F6200009A
:10542000C9660000E766000005670000236700000A
:10543000256800007B680000A36800007B50000026
:10544000F96800001B6900007B5000007B500000E1
:105450007B5000007B5000007B500000BF500000DC
:105460004369000007F06AF9002841F367839C480C
:105470009C4E04F077FF01270346014662229A48BA
:10548000F36527602A60FDF74DFA23682868012B31
:1054900027D073287FF4F3AD15E6924E914A96F823
:1054A000CE30012B84BF002386F8CE3096F8CD3065
:1054B000012B02D9002382F8CD30322800F0F78486
:1054C00071283FF4FCAD31287FF4D7AD96F8CD308C
:1054D000B3FA83F35B090122782086F8CD3022608D
:1054E0002860A0F15203262B3FF6C7AD01A252F867
:1054F00023F000BFEF6900007B5000007B500000EC
:105500007B5000007B5000007B5000007B5000006F
:105510007B5000007B5000007B5000007B5000005F
:105520007B5000007B5000007B5000007B5000004F
:1055300011580000816E0000955D0000D35B0000F3
:10554000A55A00007B5000007B5000007B500000FB
:10555000095A00007B5000007B6E00007B50000069
:105560007B5000007B5000007B5000007B5000000F
:10557000CF6900007B5000007B5000007B50000092
:105580007B5000007B5000007B500000F958000069
:10559000A0F13103402B3FF670AD01A252F823F089
:1055A000D95E0000F15E0000F55E0000175F0000AC
:1055B000595F0000475F0000755F00001B5F00003F
:1055C0001F5F00007B5000007B5000007B500000FC
:1055D0007B5000007B5000007B5000007B5000009F
:1055E0007B5000007B5000007B5000007B5000008F
:1055F0007B5000007B5000007B5000007B5000007F
:105600007B5000007B5000007B5000007B5000006E
:105610007B5000007B5000007B5000007B5000005E
:105620007B5000007B5000007B5000007B5000004E
:105630007B5000007B5000007B5000007B5000003E
:105640007B5000007B5000007B5000007B5000002E
:105650007B5000007B5000007B5000007B5000001E
:105660007B5000007B5000007B5000007B5000000E
:105670007B5000007B5000007B5000007B500000FE
:105680007B5000007B5000007B5000007B500000EE
:105690007B5000007B5000007B5000007B500000DE
:1056A000BF500000312801F0618232287FF4E5AC60
:1056B00007F044F800287FF799AD0948094E04F037
:1056C00051FE09F04FFA094909F0A0FA61230122BD
:1056D000706422602B60184603E700BFCC94FF1F64
:1056E000D087FF1F5C93FF1F9095FF1F6F12833AB7
:1056F000312801F0D28232287FF4BFAC07F01EF8C7
:1057000000287FF71BAEA448A44E04F02BFE012214
:105710006B23C6F8940022602B6001E006F0D2FFF4
:1057200007F00CF80028F9D19B4804F087FC9A4850
:1057300004F084FC984804F081FC974804F07EFC57
:10574000954804F07BFC2121954807F021F8924808
:1057500004F074FC1521934807F01AF8D6F88C1061
:105760008D4804F0BBFC02218F4807F011F88A48ED
:1057700004F064FC1E218D4807F00AF8D6F8941056
:10578000854804F0ABFC0321894807F001F8824802
:1057900004F054FC1E21874806F0FAFFD6F890105A
:1057A0007D4804F09BFC7C4804F048FC1D218248A5
:1057B00006F0EEFFD6F8B010774804F08FFC76487C
:1057C00004F03CFC1E217D4806F0E2FFD6F8B41040
:1057D000714804F083FC704804F030FC052323601A
:1057E0004DE406F0ABFF002840F36E836A486B4E31
:1057F00004F0B8FD09F0B6F9714909F007FA03465B
:10580000024696F848106F48F36448E306F05AFFE2
:1058100006F094FF05460028F8D15F485F4E04F07B
:105820000DFC5D4804F00AFC5B4804F007FC5A4894
:1058300004F004FC584804F001FC1F21624806F003
:10584000A7FF554804F0FAFB1C21604806F0A0FFB2
:10585000B06A5F4909F0DAF908F02EFD00950246BA
:105860000B464D4804F044FC02215A4806F090FFD4
:10587000494804F0E3FB2321574806F089FF706C88
:10588000534909F0C3F908F017FD009502460B468D
:10589000414804F02DFC02214E4806F079FF3E48B5
:1058A00004F0CCFB19214D4806F072FF306C08F073
:1058B00003FD02250B4602460095374804F018FC0C
:1058C0002946474806F064FF334804F0B7FB22211D
:1058D000444806F05DFFB18E2F4804F0FFFB032122
:1058E000414806F055FF2C4804F0A8FB072323602D
:1058F000FFF7C5BB06F0E6FE06F020FF05460028D0
:10590000F8D12548254E04F099FB234804F096FB76
:10591000214804F093FB204804F090FB1E4804F05B
:105920008DFB1521314806F033FF1B4804F086FB40
:10593000194804F083FB2C212D4806F029FF164856
:1059400004F07CFB25212B4806F022FF2B4696F81D
:10595000CD1011480A2204F081FB0F4804F06EFBC1
:105960001921254806F014FF96F8CE30002B41F09F
:10597000AD810E21214806F00BFF074804F05EFBC5
:1059800013211F4806F004FF034804F057FB0923C6
:105990002360FFF774BB00BFD087FF1F5C93FF1F1E
:1059A000943F0100B83F0100383E0100D03F0100A4
:1059B0001C3B0100F03F010010400100304001009D
:1059C0006F12833A9095FF1FEC3E01000C3F0100DF
:1059D00000007A441C3D01002C3F0100503F0100B3
:1059E000C03E01006C3F0100903F010048410100B2
:1059F000283C0100583C0100803C01009C3C010017
:105A0000C03C010006F05EFE06F098FE0546002848
:105A1000F8D1BC48BC4E04F011FBBA4804F00EFBB0
:105A2000B84804F00BFBB74804F008FBB54804F095
:105A300005FB1521B54806F0ABFEB24804F0FEFAAE
:105A40001821B34806F0A4FE2B460A2296F8481007
:105A5000AC4804F003FBAB4804F0F0FA2821AD4851
:105A600006F096FEF06CAC4909F0D0F808F024FC82
:105A700000950B460246A34804F03AFB0221A748D2
:105A800006F086FE9F4804F0D9FA1321A44806F0D8
:105A90007FFE9C4804F0D2FA08232360FFF7EFBA98
:105AA00006F010FE06F04AFE05460028F8D195489B
:105AB000954E04F0C3FA934804F0C0FA914804F0FC
:105AC000BDFA904804F0BAFA8E4804F0B7FA1121F2
:105AD000944806F05DFE8B4804F0B0FA2821924805
