:1000000000800020BD01000011AE0000C9AD00005D
:10001000C9AD0000C9AD0000C9AD0000C9AD000008
:10002000C9AD0000C9AD0000C9AD000011AE0000AF
:1000300011AE0000C9AD0000A5D30000A9D3000097
:1000400011AE000011AE000011AE000011AE0000B4
:1000500011AE000011AE000011AE000011AE0000A4
:1000600011AE000011AE000011AE000011AE000094
:1000700011AE000011AE000011AE000011AE000084
:1000800011AE000011AE000011AE000011AE000074
:100090009991000011AE000011AE000011AE0000F9
:1000A00011AE000011AE000011AE000011AE000054
:1000B00011AE0000B9A70000C5A70000C9A7000045
:1000C000D5A70000D9A70000DDA7000011AE0000F1
:1000D00011AE000011AE000011AE000011AE000024
:1000E00011AE000011AE000011AE000011AE000014
:1000F00011AE000011AE000011AE0000D5BC000032
:1001000011AE0000E9C3000011AE000011AE000006
:1001100011AE000011AE000011AE000011AE0000E3
:1001200011AE000011AE000011AE000011AE0000D3
:1001300011AE000011AE000011AE000011AE0000C3
:1001400011AE000011AE000011AE000011AE0000B3
:1001500011AE000011AE000011AE000011AE0000A3
:1001600011AE0000D9C6000011AE000011AE0000B3
:1001700011AE000011AE000011AE000011AE000083
:1001800011AE000011AE000011AE000011AE000073
:1001900011AE000011AE000011AE000011AE000063
:1001A00011AE000011AE000011AE000011AE000053
:1001B00011AE000011AE000011AE0000564B4CF223
:1001C000205210B51A804DF628121A8000BF00BFC9
:1001D0000AF022FE514B4FF010621A60504A9A60AA
:1001E000504ADA60504A136813F4807304D14F49BF
:1001F0000B604FF4A85313604D4B1A78110703D5C9
:100200001A7842F008021A704A4B4B492A221A7097
:100210004A4A4B4B8B4204D252F8040F43F8040B6A
:10022000F8E7484B484900228B4202D243F8042B9E
:10023000FAE74649464A002352F8230041F82300D2
:1002400001336F2BF8D1434B434A802103F8011B44
:100250009342FBD1414B3D4A1A60414B8A221A70AE
:10026000A3F5805324225A70A0221A709A7992071B
:10027000FCD59A79D406FCD43A4A937903F00C035E
:10028000082B384BF9D103221A7140225A719A79FE
:100290009006FCD5334A9179324B4906FBD5324A58
:1002A000324911600221516020221A709A7902F0BD
:1002B0000C020C2AFAD12E4B2E4A1A602E4B2F4AD2
:1002C0001A6000225A60072243F8042C2C4AC3F813
:1002D0000C2D62B60BF0D6F8144B1B68DA0705D567
:1002E00028480AF0B1FE284B284A1A60284B1B7890
:1002F0005B0609D5244C254B22689A4204D121483B
:100300000AF0A2FE002323600AF08CFD10F04EF8E4
:100310000DF05CFBFEE700BF0E200540308004407E
:10032000823F04000100002B10D0034014D0034092
:1003300002D0074000E007403894FF1FC861010069
:100340002087FF1F3894FF1F34BFFF1F0082FF1F4D
:100350000000000000E400E05FE400E008ED00E0E1
:100360000050064000400640448004400000030165
:1003700004800440C010050014E000E0FF76010096
:1003800000002020B3A077631CE00340A5C3945A6B
:1003900000F00740FFFFFFFFFFFFFFFFFFFFFFFF32
:1003A000FFFFFFFFFFFFFFFFFFFFFFFFFFFFFFFF5D
:1003B000FFFFFFFFFFFFFFFFFFFFFFFFFFFFFFFF4D
:1003C000FFFFFFFFFFFFFFFFFFFFFFFFFFFFFFFF3D
:1003D000FFFFFFFFFFFFFFFFFFFFFFFFFFFFFFFF2D
:1003E000FFFFFFFFFFFFFFFFFFFFFFFFFFFFFFFF1D
:1003F000FFFFFFFFFFFFFFFFFFFFFFFFFFFFFFFF0D
:10040000FFFFFFFFFFFFFFFFFFFFFFFFDEF9FFFF23
:1004100010B5054C237833B9044B13B10448AFF33E
:1004200000800123237010BD3894FF1F00000000DE
:10043000C4610100084B10B51BB108490848AFF36F
:1004400000800848036803B910BD074B002BFBD0A0
:10045000BDE81040184700BF000000003C94FF1F9B
:10046000C46101003894FF1F00000000F0B400F1E7
:1004700014060F4F00243146031F00F12C0243F8ED
:10048000044FB34241F8047F4FF0000542F8044F97
:10049000F5D1084B084985640022C56405654565AA
:1004A000456683650366C16580F88420F0BC7047AB
:1004B0000000A040000048430000C8C200230360C1
:1004C00043608360C3600361436183640365436584
:1004D000704700BF2DE9F04190F8844084B00023BC
:1004E00064008DF80530E4B2012380468DF80440A5
:1004F0008DF80630032720460BF0A6FE02210DF1F1
:1005000005000BF0ABFE8DF8044002F0B5FD30B3F2
:100510000921C9480CF020FE002310222146C748BB
:100520000DF0CEF80121C6480CF016FE0023102273
:100530009DF80510C1480DF0C3F80121C0480CF02A
:100540000BFE002310229DF80610BC480DF0B8F8F1
:100550000121BB480CF000FEB8480DF09DF80220C8
:100560008DF804400AF040FF02F086FD002840F0BC
:10057000778102AE00240BF0ABFE002800F026814C
:10058000042C40F0158101E00BF0B6FE0BF0A0FE4C
:100590000028F9D102F070FD10B1A8480DF07CF8E8
:1005A00098F884406400E4B2202204238DF80440CB
:1005B0008DF805208DF80630032720460BF044FE09
:1005C00002210DF105000BF049FE8DF8044002F008
:1005D00053FD30B3092198480CF0BEFD00231022D2
:1005E000214696480DF06CF8012195480CF0B4FDB9
:1005F000002310229DF8051090480DF061F80121AC
:100600008F480CF0A9FD002310229DF806108B489E
:100610000DF056F801218A480CF09EFD87480DF038
:100620003BF802208DF804400AF0DEFE02F024FDC3
:10063000002840F00B8102AE00240BF049FE002898
:1006400000F0A980072C40F0988001E00BF054FEE8
:100650000BF03EFE0028F9D102F00EFD10B17748F4
:100660000DF01AF898F884409DF80B209DF80C3096
:100670009DF80D00C8F870206400E4B29DF80E10DB
:10068000C8F87430332201238DF80440C8F878008C
:10069000C8F87C108DF805208DF806300327204619
:1006A0000BF0D2FD02210DF105000BF0D7FD8DF806
:1006B000044002F0E1FC30B309215F480CF04CFD2E
:1006C0000023102221465D480CF0FAFF01215C480E
:1006D0000CF042FD002310229DF8051057480CF045
:1006E000EFFF012156480CF037FD002310229DF842
:1006F000061052480CF0E4FF012151480CF02CFD8B
:100700004E480CF0C9FF02208DF804400AF06CFE40
:1007100002F0B2FC002840F09E8002AE00240BF0F4
:10072000D7FDF8B1042C0FD101E00BF0E5FD0BF083
:10073000CFFD0028F9D102F09FFC10B13F480CF02A
:10074000ABFF04B0BDE8F0810BF0D6FD054606F81E
:10075000010B02F091FC00285AD101340BF0B8FDD6
:100760000028DFD1042CE2D002F086FC00285ED104
:10077000013FE6D09DF8044091E70BF0BDFD054632
:1007800006F8010B02F078FC60BB01340BF0A0FD11
:1007900000287FF457AF072C3FF45AAF02F06CFCEF
:1007A00000284FD1013F3FF45DAF9DF8044004E7BE
:1007B0000BF0A2FD054606F8010B02F05DFCE0B966
:1007C00001340BF085FD00287FF4DAAE042C3FF4F1
:1007D000DDAE02F051FC30BB013F3FF4E1AE9DF8CD
:1007E000044088E6E9B20023102214480CF068FFA8
:1007F000012113480CF0B0FCC7E7E9B20023102236
:100800000E480CF05DFF01210D480CF0A5FCD7E768
:10081000E9B20023102209480CF052FF01210848D8
:100820000CF09AFC99E705480CF036FFD4E7034832
:100830000CF032FF9CE700BF40420100D489FF1F4B
:100840000457010009480CF027FFABE707210848CF
:100850000CF082FCEFE6072105480CF07DFC5CE71C
:10086000072103480CF078FC83E600BFD489FF1F02
:100870004C42010090F87400704700BF90F870007F
:10088000704700BF90F87800704700BF90F87C0078
:10089000704700BF2DE9F04390F8848085B04FEA9F
:1008A00048085FFA88F8322200238DF804808DF81A
:1008B00005208DF8063003250DF1060748F00109E3
:1008C00048460BF0C1FC01AE0DF1050002210BF012
:1008D000C5FC8DF804904A46334600205040082459
:1008E00010F0800F4FEA400018BF80F00700013C75
:1008F000C0B2F5D1BB4202D013F8012FEEE70BF0E6
:10090000A3FC02F0B9FB00284AD102208DF8048034
:100910000AF06AFD02F0B0FB002840F081800DF182
:10092000080800240BF0D4FC08B3042C12D101E019
:100930000BF0E2FC0BF0CCFC0028F9D102F09CFBA0
:1009400010B13A480CF0A8FE02200AF04DFD05B0A7
:10095000BDE8F0830BF0D0FC08F8010B064602F06E
:100960008BFB70B901340BF0B3FC0028DDD1042CF3
:10097000E0D002F081FB78B9013DE5D09DF804801C
:100980009CE7F1B20023102228480CF099FE0121C7
:1009900027480CF0E1FBE5E724480CF07DFEEBE78F
:1009A000092124480CF0D8FB2346102249461F4851
:1009B0000CF086FE01211E480CF0CEFB23461022CF
:1009C0009DF8051019480CF07BFE012118480CF029
:1009D000C3FB102223469DF8061014480CF070FE4D
:1009E000012113480CF0B8FB21460DF1070216F85F
:1009F000014B6140C9B2082311F0800F4FEA410159
:100A000018BF81F00701013BC9B2F5D1B242EED166
:100A1000102206480CF054FE04480CF03DFE74E72A
:100A2000072105480CF098FB79E700BFD489FF1F28
:100A300004570100404201004C4201002DE9F04FF3
:100A4000074691B097F8843002205B008DF808309B
:100A50000AF0CAFC97F8843038465B008DF80830FD
:100A6000FFF738FDB86FFC6F7B6F3A6F97F8841013
:100A70008DE81100C94802F005FC30223D238DF8B5
:100A800009208DF80A3003260DF10A059DF808901B
:100A900049F0010840460BF0D7FB0DF10900022197
:100AA0000BF0DCFB8DF80880424602AB0020504082
:100AB000082410F0800F4FEA400018BF80F00700B4
:100AC000013CC0B2F5D1AB4202D013F8012FEEE7E2
:100AD0000BF0BAFB02F0D0FA002840F07D82022031
:100AE0008DF808900AF080FC02F0C6FA002840F069
:100AF000B9820DF10C0AD14600240BF0E9FB002865
:100B000043D0032C34D101E00BF0F6FB0BF0E0FBFB
:100B10000028F9D102F0B0FA10B1A1480CF0BCFDE8
:100B2000312303268DF809308DF80A609DF808906E
:100B300049F0010840460BF087FB0DF10900022146
:100B40000BF08CFB8DF80880424602AB0020504031
:100B5000082410F0800F4FEA400018BF80F0070013
:100B6000013CC0B2F5D19D4228D013F8012FEEE729
:100B70000BF0C2FB09F8010B804602F07DFA68B960
:100B800001340BF0A5FB0028BBD1032CBED002F032
:100B900073FA78B9013E7FF479AFC1E75FFA88F163
:100BA000002310227E480CF08BFD01217D480CF0C3
:100BB000D3FAE5E77A480CF06FFDEBE70BF044FB66
:100BC00002F05AFA002840F0C68102208DF8089001
:100BD0000AF00AFC02F050FA002840F03E820DF1C3
:100BE0000C0900240BF074FB002844D0032C35D1F1
:100BF00001E00BF081FB0BF06BFB0028F9D102F058
:100C00003BFA10B166480CF047FD342201238DF801
:100C100009208DF80A3003269DF8089049F0010854
:100C200040460BF011FB0DF1090002210BF016FB01
:100C30008DF80880424602AB00205040082410F096
:100C4000800F4FEA400018BF80F00700013CC0B29F
:100C5000F5D1AB4228D013F8012FEEE70BF04CFB97
:100C600009F8010B804602F007FA68B901340BF06D
:100C70002FFB0028BAD1032CBDD002F0FDF978B9C2
:100C8000013E7FF453AFC0E75FFA88F100231022E2
:100C900043480CF015FD012142480CF05DFAE5E7F0
:100CA0003F480CF0F9FCEBE70BF0CEFA02F0E4F968
:100CB000002840F00F8102208DF808900AF094FB84
:100CC00002F0DAF9002840F0D7810DF10C09002478
:100CD0000BF0FEFA002800F08580032C73D101E0B0
:100CE0000BF00AFB0BF0F4FA0028F9D102F0C4F97A
:100CF00010B12B480CF0D0FC012212238DF80920F2
:100D00008DF80A304FF003089DF8084020460BF09C
:100D10009BFA02210DF109000BF0A0FA8DF80840B2
:100D200002F0AAF930B309211F480CF015FA00238C
:100D3000102221461A480CF0C3FC012119480CF07E
:100D40000BFA002310229DF8091015480CF0B8FC8E
:100D5000012114480CF000FA002310229DF80A101B
:100D60000F480CF0ADFC01210E480CF0F5F90C48D1
:100D70000CF092FC06208DF808400AF035FB02F0DA
:100D80007BF9002840F0738103AD00260BF0A0FA38
:100D9000002840D0162E30D10AE000BF5442010096
:100DA000D489FF1F04570100404201000BF0A4FA50
:100DB0000BF08EFA0028F9D102F05EF91626002811
:100DC0007DD1152035E00BF097FA09F8010B80462C
:100DD00002F052F900285BD101340BF079FA0028B7
:100DE0007FF47BAF032C3FF47DAF02F045F9002880
:100DF0006CD1013E7FF410AF7EE70BF07DFA05F871
:100E0000010B044602F038F900284DD101360BF0F1
:100E10005FFA0028BED1162ECAD002F02DF90028A4
:100E20004DD1B8F101087FF46FAF701E002840F378
:100E30003582002303AA1C4612F8011B08254C40EA
:100E400014F0800F4FEA440418BF84F00704013DFA
:100E5000E4B2F5D101338342EEDB9DF8218089486D
:100E60004146224602F00EFA162EC146A34602D192
:100E7000A04500F0138197F884108348CDF800B0A6
:100E80004B46324602F02CFA002011B0BDE8F08F3C
:100E90005FFA88F1002310227C480CF011FC01213C
:100EA0007B480CF059F997E7E1B20023102277480C
:100EB0000CF006FC012176480CF04EF9A6E77348C9
:100EC0000CF0EAFB162EACD11520B2E76F480CF0FF
:100ED000E3FB8EE709216F480CF03EF92346102210
:100EE00041466A480CF0ECFB012169480CF034F9EA
:100EF000234610229DF8091064480CF0E1FB012103
:100F000063480CF029F9102223469DF80A105F4827
:100F10000CF0D6FB01215E480CF01EF921460DF1C4
:100F20000B0002AA12F8014B6140C9B2082311F06C
:100F3000800F4FEA410118BF81F00701013BC9B2A0
:100F4000F5D19042EED1102250480CF0B9FB4F4839
:100F50000CF0A2FBAFE609214E480CF0FDF8234649
:100F60001022414649480CF0ABFB012148480CF0E7
:100F7000F3F8234610229DF8091044480CF0A0FB1A
:100F8000012143480CF0E8F8102223469DF80A108E
:100F90003E480CF095FB01213D480CF0DDF8214660
:100FA0000DF10B0002AA12F8014B6140C9B20823EF
:100FB00011F0800F4FEA410118BF81F00701013B9A
:100FC000C9B2F5D19042EED1102230480CF078FB36
:100FD0002E480CF061FBF8E509212E480CF0BCF816
:100FE00023461022414629480CF06AFB012128487B
:100FF0000CF0B2F8234610229DF8091023480CF09B
:101000005FFB012122480CF0A7F8102223469DF82F
:101010000A101E480CF054FB01211D480CF09CF8EE
:1010200021460DF10B0002AA12F8014B6140C9B232
:10103000082311F0800F4FEA410118BF81F007012A
:10104000013BC9B2F5D19042EED110220F480CF00D
:1010500037FB0E480CF020FB41E507210E480CF051
:101060007BF8BCE507210C480CF076F841E5072138
:1010700009480CF071F887E6072107480CF06CF876
:1010800023E600BF88420100D4420100D489FF1F3B
:1010900004570100404201004C4201009DF80C3011
:1010A00097F88420B3EB420F7FF4EEAE9DF80D303D
:1010B000012B7FF4E9AE9DF80E30122B7FF4E4AEE5
:1010C0009DF810309DF80F0003EB00200EF066FD38
:1010D0008B490EF0B7FD796EF86404460EF06EFF92
:1010E00000B17C66396E20460EF04AFF00B13C66C6
:1010F0003D1FAB4607F1180807F130064FF0000915
:101100009AF806309AF8050003EB00200EF046FD31
:101110007C490EF097FD4BF8040FD8F800100446F8
:101120000EF02EFF09F101090AF1020A30B1B96E81
:1011300020460EF039FF08B1C8F80040316820465B
:101140000EF03CFF08F1040800B13460B9F1060F5D
:1011500006F10406D4D10020B86407F1140455F850
:10116000041F0EF067FCAC42F9D19DF81D209DF8DC
:101170001E30B86403EB022002300EF00FFD62490E
:101180000EF014FE014661480EF010FE60490EF0AC
:101190004FFC60490EF056FD05460CF0C1FD0446BB
:1011A00028460CF0BDFD5C490CF02CFE5B49054661
:1011B00020460EF047FD5A490EF03CFC59490446C2
:1011C00028460EF03FFD014620460EF033FC014656
:1011D0004FF07E500EF0EAFD53490EF029FC9DF8C9
:1011E0001F209DF82030386503EB022009300EF0F7
:1011F000D5FC4E490EF0DAFD014644480EF0D6FD0E
:1012000043490EF015FC43490EF01CFD05460CF059
:1012100087FD044628460CF083FD3F490CF0F2FDA3
:101220003E49054620460EF00DFD3D490EF002FCFC
:101230003C49044628460EF005FD014620460EF0C6
:10124000F9FB01464FF07E500EF0B0FD36490EF02E
:10125000EFFBD7F8808078650446B8F1000F3BD1EA
:101260003D6D29462E460EF0A9FE68B32946B86D9D
:101270000EF0A4FEE0B1BD65B8F1000F17D008F183
:10128000130657F82640F96D20460EF097FE00B180
:10129000FC65274801F0F6FF0120F6E59DF8219056
:1012A000244849464246C34601F0ECFFE3E53E6D63
:1012B000314620460EF082FEC8B1F96D20460EF090
:1012C0007DFE0028E4D1E4E7B96D20460EF058FE1B
:1012D0000028EDD02546CEE708F11306B96D57F882
:1012E000265028460EF04CFE0028C4D1C9E73146EE
:1012F000F86D0EF045FE0028CBD03446C8E700BF9D
:101300006B57053B2003C839001601470AD7E33F56
:10131000E17A644000007A4400004040A40D8F3917
:101320005A80473A46A6DB3333938843002C014763
:10133000AC42010088420100052994BF50F8210009
:10134000002070472DE9F0410B4E8046041F00F14C
:10135000140754F8045F314628460EF011FE30B1F0
:10136000D8F8681028460EF029FE00B12E46BC427F
:10137000EFD13046BDE8F08100002041F8B50027EC
:10138000041F00F1140654F8045F394628460EF095
:1013900015FE054920B128460EF0F2FD00B12F469A
:1013A000B442F0D13846F8BD000090402DE9F04736
:1013B000876E80464FF0000A041F00F114064FF0BC
:1013C000000954F8045F394628460EF0F7FD144929
:1013D00050B128460EF0D4FD30B1504629460EF0EB
:1013E00029FB09F101098246B442EAD1D8F88830D4
:1013F000994511D0D8F88C30022BD6BF0133C8F8EC
:101400008890C8F88C3048460EF0C8FB014650461C
:101410000EF0CCFCBDE8F0870023C8F88C30F2E772
:1014200000007042D0F88800704700BF38B5D0F88F
:10143000803043B9456D046D294620460EF0A0FD6D
:1014400030B1204638BD133350F82340204638BD14
:101450002C46204638BD00BF38B5D0F8803043B99F
:10146000446D056D214628460EF08AFD30B12046B8
:1014700038BD133350F82340204638BD2C46204653
:1014800038BD00BF08B5D0F880301BB1133350F819
:10149000230008BD416D006D0EF0CCFA4FF07C5179
:1014A0000EF0D0FB08BD00BF806C704701299ABFC9
:1014B000143150F821000020704700BF3E2998BF2A
:1014C00080F88410704700BF90F86C00704700BF30
:1014D000C0F88010704700BF80F86C10704700BFE4
:1014E0008166704770B500F50E550646183500F157
:1014F000280420469034FEF7B9FFAC42F9D106F13A
:10150000B805012428460021FFF7E6FF21462846BA
:101510000134FFF7D3FF3F2C05F19005F2D142F2E1
:10152000A03400250548064A064B35550021306198
:101530007161B261F361304670BD00BF00007A4452
:10154000000048430000C8C238B500F50E551835F4
:1015500000F1B80402E09034AC420AD02046FFF714
:10156000B3FF0028F7D020469034FEF7A7FFAC4227
:10157000F4D138BD2DE9F04142F2A43300F50E5606
:10158000374600228046C2501836243700F1B8048E
:1015900002E09034B4420DD02046FFF795FF0028BA
:1015A000F7D020463D68FFF73DFF90342844B44211
:1015B0003860F1D142F2A43358F80300BDE8F0815D
:1015C0002DE9F04F93B0814642F2A83310460192C4
:1015D00001284FF00002069149F8032000F0038231
:1015E00009F50E532833079309F1B80A4FF0010BA0
:1015F0005046FFF769FFC0B1002634460125314649
:101600005046D9F80870FFF797FE014638460EF0AD
:10161000B7FC18B105FA06F31C43E4B20136062EF6
:10162000EDD1019B012B0AD0F4B90BF1010BBBF1F9
:101630003F0F0AF1900ADBD113B0BDE8F08F594695
:10164000BD480CF07DF80321BC480BF085FD214618
:1016500000230222B8480CF033F80321B8480BF0FD
:101660007BFD002C00F018814FEA4B03DBB21946DA
:10167000029343F001039DF8182003931D4618467A
:1016800033238DF826208DF825308DF824100AF0AC
:10169000DBFD0DF1250002210AF0E0FD09AA05920B
:1016A0008DF824502A4609AB0DF126060020504043
:1016B000082510F0800F4FEA400018BF80F00700A7
:1016C000013DC0B2F5D19E4202D013F8012FEEE7E2
:1016D0000AF0BAFD01F0D0FC002840F0EC809DF843
:1016E00008308DF82430022009F07EFE01F0C4FCA1
:1016F000002840F06E810AAB04931F4600250AF0D3
:10170000E7FD002844D01E2D35D101E00AF0F4FD9C
:101710000AF0DEFD0028F9D101F0AEFC00283DD131
:10172000019B012B40D0039D9DF808208DF82420BB
:10173000322328468DF825308DF826400AF084FDA6
:101740000DF1250002210AF089FD8DF8245009AB26
:101750002A4600205040082510F0800F4FEA400034
:1017600018BF80F00700013DC0B2F5D19E423BD0CA
:1017700013F8012FEEE70AF0BFFD07F8010B8046D2
:1017800001F07AFC20BB01350AF0A2FD0028BAD195
:101790001E2DBDD001F070FC0028C1D066480BF0B2
:1017A0007BFF019B012BBED1049D0BAF15F8011BE4
:1017B0006148002310220BF083FF012161480BF0E8
:1017C000CBFCAF42F2D103215D480BF0C5FCAAE788
:1017D0005FFA88F10023102257480BF071FF0121B6
:1017E00059480BF0B9FCCEE70AF02EFD01F044FC9D
:1017F000002840F0AD809DF808308DF8243002209C
:1018000009F0F2FD01F038FC002840F0E780049E6A
:1018100000250AF05DFD00B31E2D11D101E00AF094
:101820006BFD0AF055FD0028F9D101F025FCD0B977
:10183000019B012B1DD0079A13681C441460F4E629
:101840000AF05AFD06F8010B074601F015FC38BBFB
:1018500001350AF03DFD0028DED11E2DE1D001F05A
:101860000BFC0028E4D034480BF016FF019B012B41
:10187000E1D1049E0BAD16F8011B2F480023102266
:101880000BF01EFF01212F480BF066FCAE42F2D197
:10189000079A13682344136027480BF0FDFEC4E643
:1018A000F9B20023102224480BF00AFF0121264838
:1018B0000BF052FCCCE7092124480BF04DFC2B46E1
:1018C000102203991C480BF0FBFE01211E480BF06F
:1018D00043FC2B4610229DF8251017480BF0F0FE14
:1018E000012119480BF038FC10222B469DF82610D8
:1018F00011480BF0E5FE012113480BF02DFC2946A1
:101900000DF1270009AA12F8013B5940C9B208237A
:1019100011F0800F4FEA410118BF81F00701013B30
:10192000C9B2F5D19042EED1102203480BF0C8FEA7
:1019300001480BF0B1FED2E6D489FF1F2443010019
:10194000284301002C4301000457010040420100DC
:10195000092127480BF000FC2B461022039925484B
:101960000BF0AEFE012124480BF0F6FB2B461022B3
:101970009DF825101F480BF0A3FE01211E480BF017
:10198000EBFB10222B469DF826101A480BF098FE10
:10199000012119480BF0E0FB059829460DF12702BB
:1019A00010F8013B5940C9B2082311F0800F4FEAEB
:1019B000410118BF81F00701013BC9B2F5D1824254
:1019C000EED110220B480BF07BFE0A480BF064FEB0
:1019D00011E7072109480BF0BFFB8CE607210748F8
:1019E0000BF0BAFB13E703480BF056FEF8E500BF17
:1019F00040420100D489FF1F045701004C420100FE
:101A00002DE9F04F824685B04FF0000901238DF893
:101A100000908DF801908DF802304FF003080024FB
:101A200020460AF011FC02210DF101000AF016FC1B
:101A30008DF8004001F020FB30B30921B5480BF0D0
:101A40008BFB002310222146B3480BF039FE012105
:101A5000B2480BF081FB002310229DF80110AE4824
:101A60000BF02EFE0121AD480BF076FB0023102277
:101A70009DF80210A8480BF023FE0121A7480BF0A7
:101A80006BFBA5480BF008FE02208DF8004009F022
:101A9000ABFC01F0F1FA002840F0898001AF3E462E
:101AA00000240AF015FC002867D0042C58D101E06E
:101AB0000AF022FC0AF00CFC0028F9D101F0DCFA53
:101AC00010B195480BF0E8FD9DF80430802B40F0F4
:101AD0001E819DF80530002B40F019819DF80640CD
:101AE000012C40F014818E4801F0CCFB0AF1B806BD
:101AF000254604E001353F2D06F1900686D030469C
:101B0000FFF7E2FC83460028F4D13B2265F07F0317
:101B100001208DF801208DF802308DF800B00AF018
:101B200093FB0DF1010002210AF098FB01228DF8D0
:101B30000020E84658466B460DF102026040C0B2F4
:101B4000082410F0800F4FEA400018BF80F0070013
:101B5000013CC0B2F5D193422ED013F8014FEDE70E
:101B60000AF0CAFB06F8010B054601F085FA98B9A0
:101B700001340AF0ADFB002897D1042C9AD001F073
:101B80007BFA10B164480BF087FDB8F1010800F052
:101B9000BE809DF8004043E7E9B2002310225E4872
:101BA0000BF08EFD01215D480BF0D6FAE0E707212E
:101BB0005C480BF0D1FA71E70AF046FB01F05CFAE1
:101BC00000285AD103208DF8009009F00DFC01F097
:101BD00053FA002840F0968000240AF079FBB0B355
:101BE0000A2C27D101E00AF087FB0AF071FB0028DC
:101BF000F9D101F041FA00287FD19DF80430812B02
:101C00007FF404AF9DF805303B2B7FF4FFAE9DF8C9
:101C100006308035AB427FF4F9AE30460121FFF744
:101C20005BFC0AF50E534048DA690132DA6101F0D3
:101C300029FBEBE60AF060FB07F8010B804601F098
:101C40001BFA70B901340AF043FB0028C8D10A2CF2
:101C5000CBD001F011FA002850D1022C7FF7D6AE7C
:101C6000CBE75FFA88F1002310222B480BF028FD08
:101C700001212A480BF070FAE4E7092125480BF00E
:101C80006BFA23461022012123480BF019FD012194
:101C900022480BF061FA234610229DF801101E48DD
:101CA0000BF00EFD01211D480BF056FA10222346C1
:101CB0009DF8021018480BF003FD012117480BF0A6
:101CC0004BFA21460DF1030218F8014B6140C9B2ED
:101CD000082311F0800F4FEA410118BF81F007017E
:101CE000013BC9B2F5D14245EED110220A480BF0B2
:101CF000E7FC09480BF0D0FC64E70A2406480BF027
:101D0000CBFCAAE7072107480BF026FA64E705B0E9
:101D1000BDE8F08F40420100D489FF1F0457010045
:101D2000304301004C4201003C4301002DE9F047E3
:101D300042F29C3284B000230127835082468DF802
:101D400004308DF8053000F1B8088DF806704FEAC0
:101D500047095FFA89F400214046FFF7BDFB2046A2
:101D60008DF804400AF070FA02210DF105000AF026
:101D700075FA8DF8044001F07FF930B30921494824
:101D80000BF0EAF900231022214647480BF098FC9B
:101D9000012146480BF0E0F9002310229DF80510C0
:101DA00041480BF08DFC012140480BF0D5F9002390
:101DB00010229DF806103C480BF082FC01213B48A4
:101DC0000BF0CAF938480BF067FC14208DF804407A
:101DD00009F00AFB01F050F900285DD102AE0024A1
:101DE0000AF076FA40B3082C19D101E00AF084FA1F
:101DF0000AF06EFA0028F9D101F03EF9002846D128
:101E00009DF808304B4522D00137052009F0ECFA47
:101E10003F2F08F190089AD104B0BDE8F0870AF08E
:101E20006BFA054606F8010B01F026F920BB0134D8
:101E30000AF04EFA0028D6D1082CD9D001F01CF9AE
:101E400030BB042CE0DD9DF808304B45DCD19DF81B
:101E50000930002BD8D19DF80A100129D4D19DF862
:101E60000C30002BD0D04046FFF736FB0AF50E535E
:101E7000DA690132DA61C7E7E9B2002310220A48C1
:101E80000BF01EFC012109480BF066F9CFE708248E
:101E900005480BF001FCD4E7072105480BF05CF97D
:101EA0009CE700BF40420100D489FF1F0457010096
:101EB0004C4201002DE9F04700F50E56354684B03E
:101EC000804618361C3500F1B80400272046002152
:101ED0009034FFF701FBB4422F60F7D102270DF1D8
:101EE00006064FF07F093C22A5237E217F208DF836
:101EF00005208DF806308DF8041001AD0AF0A4F924
:101F00000DF1050002210AF0A9F98DF804902B4685
:101F10007F2200205040082410F0800F4FEA40003C
:101F200018BF80F00700013CC0B2F5D1B34202D027
:101F300013F8012FEEE70AF087F901F09DF8002869
:101F40005AD17E2364208DF8043009F04DFA01F057
:101F500093F8002840F090800DF1080A00240AF060
:101F6000B7F920B3082C15D101E00AF0C5F90AF041
:101F7000AFF90028F9D101F07FF8F0B99DF80830E9
:101F80007F2B21D0013FAED14046FFF739FD04B091
:101F9000BDE8F0870AF0B0F905460AF8010B01F038
:101FA0006BF8F0B901340AF093F90028DAD1082C63
:101FB000DDD001F061F80028E0D032480BF06CFB76
:101FC0009DF808307F2BDDD19DF809303C2BD9D10D
:101FD0009DF80A30A52BD5D19DF80B30572BD1D1C8
:101FE000D2E7E9B20023102226480BF069FB012159
:101FF00025480BF0B1F8D5E7092124480BF0ACF8DF
:10200000234610227F211F480BF05AFB01211E4856
:102010000BF0A2F8234610229DF8051019480BF08A
:102020004FFB012118480BF097F8102223469DF82A
:10203000061014480BF044FB012113480BF08CF8F8
:1020400021460DF1070215F8014B6140C9B2082382
:1020500011F0800F4FEA410118BF81F00701013BE9
:10206000C9B2F5D1AA42EED1102206480BF028FBE6
:1020700004480BF011FB64E7072105480BF06CF8EE
:102080006AE700BFD489FF1F0457010040420100E6
:102090004C4201002DE9F04385B04FF07F0820222B
:1020A000FF2381468DF804808DF805208DF80630D9
:1020B00003260DF1060548F0010738460AF0C4F87A
:1020C0000DF1050002210AF0C9F88DF804703A46B6
:1020D00001AB00205040082410F0800F4FEA400070
:1020E00018BF80F00700013CC0B2F5D1AB4202D06E
:1020F00013F8012FEEE70AF0A7F800F0BDFF002863
:1021000040F0768202208DF8048009F06DF900F02D
:10211000B3FF002840F0B2820DF1080800240AF055
:10212000D7F8002843D0042C34D101E00AF0E4F8B9
:102130000AF0CEF80028F9D100F09EFF10B1C14896
:102140000BF0AAFA4FF07F0800238DF804808DF879
:102150000630032648F0010738460AF075F80DF1FD
:10216000050002210AF07AF88DF804703A4601ABB6
:1021700000205040082410F0800F4FEA400018BFA4
:1021800080F00700013CC0B2F5D1AB4228D013F873
:10219000012FEEE70AF0B0F808F8010B074600F04F
:1021A0006BFF70B901340AF093F80028BBD1042CFE
:1021B000BED000F061FF78B9013EC3D09DF8048025
:1021C00079E7F9B2002310229E480BF079FA012139
:1021D0009D480AF0C1FFE5E79A480BF05DFAEBE78E
:1021E0000AF032F800F048FF002840F0C0810220D9
:1021F0008DF8048009F0F8F800F03EFF002840F068
:1022000038820DF1080800240AF062F8002846D050
:10221000042C37D101E00AF06FF80AF059F80028D1
:10222000F9D100F029FF10B186480BF035FA4FF0D4
:102230007F082122FF238DF804808DF805208DF87A
:102240000630032648F00107384609F0FDFF0DF17E
:10225000050002210AF002F88DF804703A4601AB3D
:1022600000205040082410F0800F4FEA400018BFB3
:1022700080F00700013CC0B2F5D19D4228D013F890
:10228000012FEEE70AF038F808F8010B074600F0D6
:10229000F3FE70B901340AF01BF80028B8D1042C01
:1022A000BBD000F0E9FE78B9013EC0D09DF80480B3
:1022B00050E7F9B20023102262480BF001FA012125
:1022C00061480AF049FFE5E75E480BF0E5F9EBE706
:1022D00009F0BAFF00F0D0FE002840F0078102208C
:1022E0008DF8048009F080F800F0C6FE002840F068
:1022F000CF810DF10808002409F0EAFF002843D03F
:10230000042C34D101E009F0F7FF09F0E1FF0028C7
:10231000F9D100F0B1FE10B14A480BF0BDF94FF011
:102320007F0800238DF804808DF80630032648F0DE
:102330000107384609F088FF0DF10500022109F078
:102340008DFF8DF804703A4601AB00205040082400
:1023500010F0800F4FEA400018BF80F00700013CEA
:10236000C0B2F5D19D4228D013F8012FEEE709F055
:10237000C3FF08F8010B074600F07EFE70B9013478
:1023800009F0A6FF0028BBD1042CBED000F074FEDB
:1023900078B9013EC3D09DF8048053E7F9B2002319
:1023A000102228480BF08CF9012127480AF0D4FEAE
:1023B000E5E724480BF070F9EBE709F045FF00F082
:1023C0005BFE002851D102208DF8048009F00CF842
:1023D00000F052FE002840F056810DF1080800245C
:1023E00009F076FF18B3042C14D101E009F084FF42
:1023F00009F06EFF0028F9D100F03EFE10B111483F
:102400000BF04AF942F2A033002209F8032005B08C
:10241000BDE8F08309F070FF08F8010B074600F0F3
:102420002BFE98B9013409F053FF0028DBD1042CAE
:10243000DED000F021FEA0B9013EE3D09DF804807B
:1024400075E700BFD489FF1F04570100F9B20023CC
:10245000102292480BF034F9012191480AF07CFED9
:10246000E0E78E480BF018F9E6E709218D480AF0FD
:1024700073FE23461022394688480BF021F90121CA
:1024800087480AF069FE234610229DF8051083480C
:102490000BF016F9012182480AF05EFE1022234655
:1024A0009DF806107D480BF00BF901217C480AF0DD
:1024B00053FE21460DF1070001AA12F8014B6140BD
:1024C000C9B2082311F0800F4FEA410118BF81F013
:1024D0000701013BC9B2F5D19042EED110226F48FD
:1024E0000BF0EEF86D480BF0D7F86CE709216D485A
:1024F0000AF032FE23461022394668480BF0E0F815
:10250000012167480AF028FE234610229DF8051095
:1025100062480BF0D5F8012161480AF01DFE102237
:1025200023469DF806105D480BF0CAF801215C486F
:102530000AF012FE21460DF1070001AA12F8014B24
:102540006140C9B2082311F0800F4FEA410118BF62
:1025500081F00701013BC9B2F5D19042EED11022C2
:102560004E480BF0ADF84D480BF096F8B7E6092150
:102570004C480AF0F1FD23461022394647480BF03B
:102580009FF8012146480AF0E7FD234610229DF8F6
:10259000051042480BF094F8012141480AF0DCFD97
:1025A000102223469DF806103C480BF089F80121C3
:1025B0003B480AF0D1FD21460DF1070001AA12F8AF
:1025C000014B6140C9B2082311F0800F4FEA41016D
:1025D00018BF81F00701013BC9B2F5D19042EED19D
:1025E00010222E480BF06CF82C480BF055F8FEE545
:1025F00009212C480AF0B0FD23461022394627480D
:102600000BF05EF8012126480AF0A6FD23461022B1
:102610009DF8051021480BF053F8012120480AF0DD
:102620009BFD102223469DF806101C480BF048F82D
:1026300001211B480AF090FD21460DF1070001AA77
:1026400012F8014B6140C9B2082311F0800F4FEA24
:10265000410118BF81F00701013BC9B2F5D1904299
:10266000EED110220D480BF02BF80C480BF014F8AB
:1026700048E507210C480AF06FFDC2E507210A482A
:102680000AF06AFD48E5072107480AF065FDA4E65F
:10269000072105480AF060FD2BE600BFD489FF1F23
:1026A00004570100404201004C42010038B500F5DA
:1026B0000E55183500F1B80402E09034AC420AD04F
:1026C0002046FEF701FF0028F7D020469034FEF7A1
:1026D000E1F8AC42F4D138BD2DE9F04F05460023B6
:1026E00045F8B83B00F50E5783B082462C461837A4
:1026F00002E09034A7420AD02046FEF7E5FE00280B
:10270000F7D020469034FEF7C5F8A742F4D142F244
:102710009C332C465AF80330072BD4BFC8203220F4
:1027200008F062FE012604E001363F2E04F1900419
:1027300077D02046FEF7C8FE0028F5D07F4800F08D
:10274000A1FD31467E4800F09DFD2046FEF776F95A
:102750002046FEF7A9FE0CF0CBFD02460B46794859
:1027600000F090FD2046FEF7EDFD80462046FEF786
:1027700005FE834640460CF0BBFD80465846894620
:102780000CF0B6FD42464B46CDE900016E4800F024
:1027900079FD00212046FEF789FE01218046204672
:1027A000FEF784FE834640460CF0A2FD8046584664
:1027B00089460CF09DFD42464B46CDE90001634839
:1027C00000F060FD2046FEF76FFE0146DAF80000DB
:1027D0000DF030F9CAF800002046FEF727FEDAF8BF
:1027E00018100DF0CDFB002840F084802046FEF745
:1027F00033FEDAF81C100DF0E1FB002894D02046DF
:10280000FEF714FE52490DF0D9FB00288CD020466B
:10281000FEF722FE01363F2ECAF81C0004F1900498
:1028200087D1DAF804000DF0B9F90146DAF80000B2
:102830000DF0BCFADAF81410CAF8000004460DF0E6
:10284000BDFB08B1CAF81440DAF8101020460DF0AC
:1028500097FB08B1CAF810400B2008F08FFD42F238
:10286000A0331AF80330002853D1002B61D042F274
:10287000A03301220AF803200023CAF80C302C46AA
:1028800002E09034A74215D02046FEF71DFE002836
:10289000F7D02046FEF772FDDAF80C100DF08EFB33
:1028A0000028EED02046FEF769FD9034A742CAF812
:1028B0000C00E9D1274BCAF8083002E09035BD4240
:1028C00015D02846FEF700FE0028F7D02846FEF770
:1028D00039FDDAF808100DF053FB0028EED0284639
:1028E000FEF730FD9035BD42CAF80800E9D103B0CB
:1028F000BDE8F08F2046FEF799FD15490DF05EFB0F
:1029000000283FF473AF2046FEF790FDCAF8180088
:102910006CE72BB942F2A03300220AF80320ABE7A0
:102920000D4800F0C7FC42F2A03300220AF8032051
:10293000A2E70A4800F0D4FC99E700BF4C4A010026
:10294000504301008C430100A0430100CC4301002F
:1029500000008CC20000A04020440100E8430100B8
:1029600042F2A833C05870478068704742F29C33E7
:10297000C0587047C0687047006870474160704732
:10298000F8B500F50E550F461646183500F1B80497
:1029900002E09034AC420FD02046FEF795FD0028AF
:1029A000F7D020463946FEF793FD20463146903455
:1029B000FEF796FDAC42EFD1F8BD00BF2DE9F04126
:1029C000274A284B426200F50E5507464FF0000893
:1029D0000362183500F1B804002602E09034A542E5
:1029E00010D02046FEF770FD0028F7D02046FEF7F5
:1029F00049FD1D490DF0E2FA80B99034A54206F177
:102A00000106EED142F29C33F858801B0DF0C6F857
:102A1000014640460DF0CAF9BDE8F0812046FEF7B8
:102A200031FD014640460DF005F880462046FEF790
:102A300013FD396A0DF0C2FA60B92046FEF7F6FCC4
:102A4000796A0DF09DFA0028C8D02046FEF7EEFC0A
:102A50007862C3E72046FEF7FFFC3862EDE700BF6F
:102A600000C0794400C079C400008CC2006A70477D
:102A7000406A7047F8B500F50E5507460026183530
:102A800000F1B80402E09034AC420FD02046FEF7CB
:102A90001BFD0028F7D02046FEF788FC0146304693
:102AA0000CF0C8FF9034AC420646EFD142F29C33A2
:102AB000F8580DF073F8014630460DF077F9F8BD7F
:102AC0002DE9F04F06468FB076488B4600F082FB2A
:102AD000744800F07FFB734800F07CFB42F29C33AB
:102AE0003046F2580D92FEF745FD73680C93074689
:102AF00030680CF0FDFB804630468946FFF7BAFF90
:102B000082463046B468F568FFF758FF0CF0F0FBDA
:102B1000CDE90A01214628460CF08AFF62490DF0F2
:102B200091F80CF0E5FBCDE9080128460CF0E0FB3C
:102B3000CDE9060120460CF0DBFBCDE9040150464F
:102B40000CF0D6FB0D9A0C9BCDE90201CDE9008972
:102B5000114656483A4600F03DFB524800F03AFB19
:102B6000B83601274FF0000A05E001373F2F06F184
:102B7000900600F08E803046FEF7A6FC0028F4D0C8
:102B80003046FDF777FE3046FDF778FE3046FDF71C
:102B900079FE3046FDF77AFE082145480AF0DCFA56
:102BA000394644480AF0CCFD092F75DD0221424820
:102BB0000AF0D2FA3046FEF777FC0CF099FB5FFA88
:102BC0008BF902460B46CDF800903A480AF0C0FD5A
:102BD00001213A480AF0C0FA5546002420E00621B7
:102BE00037480AF0B9FA294632480AF0A9FD02210D
:102BF00034480AF0B1FA21463046FEF79DFB0CF04E
:102C000077FBCDF8009002460B462A480AF0A0FD5B
:102C10000134012129480AF09FFA062C09D04546C3
:102C2000092D05F10108DADC012127480AF094FAA0
:102C3000D5E7112125480AF08FFA00213046FEF72A
:102C400035FC0CF055FB022402460B460094194853
:102C50000AF07EFD12211E480AF07EFA012130465C
:102C6000FEF724FC0CF044FB009402460B4611488E
:102C70000AF06EFD012117480AF06EFA01370D487F
:102C80000AF00AFD3F2F0AF1060A06F190067FF4CA
:102C900072AF0FB0BDE8F08F01210B480AF05CFA6B
:102CA00084E700BF4C4A010000007A44C846010096
:102CB00068470100D489FF1F68580100744701006C
:102CC00078470100184801000457010080470100BF
:102CD00094470100A84701002DE9F04F83B000F1AF
:102CE000B8060C9D884691469A4637464FF0010B30
:102CF00007E00BF1010BBBF13F0F07F1900700F06C
:102D000088803846FEF7E0FB0028F2D000230A2234
:102D10004146C2480AF0D4FC012D00F00E81012189
:102D2000BF480AF019FA48460CF0E2FA00240246BD
:102D30000B460094B9480AF00BFD0121B8480AF08F
:102D40000BFA5146B5480AF0FBFC0121B4480AF0E1
:102D500003FA5946B1480AF0F3FC0121B0480AF0E1
:102D6000FBF9002421463846FEF7E6FA0CF0C0FADB
:102D70004FF0020E02460B46CDF800E0A7480AF0DD
:102D8000E7FC012D4FF00101A54804BFA5482946E5
:102D900001340AF0E1F9082CE4D100213846FEF7AD
:102DA00085FB0CF0A5FA022402460B4600949B48D2
:102DB0000AF0CEFC012D00F0E380012198480AF0D2
:102DC000CBF901213846FEF771FB0CF091FA009423
:102DD00002460B4691480AF0BBFC012190480AF0DC
:102DE000BBF902213846FEF761FB0CF081FA0224A0
:102DF00002460B46009489480AF0AAFC0BF1010B2D
:102E000086480AF049FCBBF13F0F07F190077FF4B9
:102E100078AF4FF0010B07E00BF1010BBBF13F0F57
:102E200006F1900600F086803046FEF74DFB002844
:102E3000F2D000230A2241467B480AF041FC012DD2
:102E400000F0B3800121764808F0F0FD48460CF010
:102E50004FFA002402460B46009473480AF078FCAF
:102E600001216F4808F0E2FD51466F480AF068FC06
:102E700001216B4808F0DAFD59466B480AF060FC06
:102E80000121674808F0D2FD002421463046FEF7B4
:102E900053FA0CF02DFA022702460B4600976248BF
:102EA0000AF056FC012D4FF001015D4804BF5D485A
:102EB0002946013408F0BAFD082CE6D1002130463D
:102EC000FEF7F4FA0CF014FA022402460B460094C2
:102ED00055480AF03DFC012D00F08A800121504840
:102EE00008F0A4FD01213046FEF7E0FA0CF000FAEC
:102EF000009402460B464C480AF02AFC012148483F
:102F000008F094FD02213046FEF7D0FA0CF0F0F9FB
:102F1000022402460B46009443480AF019FC0BF1C8
:102F2000010B41480AF0B8FBBBF13F0F06F19006D8
:102F30007FF47AAF03B0BDE8F08F294639480AF034
:102F40000BF948460CF0D4F9002402460B460094D5
:102F500032480AF0FDFB294632480AF0FDF8514696
:102F60002E480AF0EDFB29462E480AF0F5F859469E
:102F70002A480AF0E5FB29462A480AF0EDF8F0E66F
:102F8000294628480AF0E8F829463846FEF78EFA1E
:102F90000CF0AEF9009402460B4620480AF0D8FB2C
:102FA000294620480AF0D8F81BE729461D4808F0B2
:102FB0003DFD48460CF09CF9002402460B46009467
:102FC00019480AF0C5FB2946164808F02FFD51465E
:102FD00015480AF0B5FB2946124808F027FD594666
:102FE00011480AF0ADFB29460E4808F01FFD4BE7DB
:102FF00029460C4808F01AFD29463046FEF756FAD5
:103000000CF076F9009402460B4607480AF0A0FB44
:103010002946044808F00AFD74E700BFD489FF1F61
:10302000AC47010004570100A889FF1F01EBC10153
:1030300000EB011008B511462830FEF77DF9034971
:103040000CF000FE0DF000F880B208BD00007A44DC
:1030500001EBC10100EB011008B511462830FEF765
:1030600025FA0CF0F1FF80B208BD00BF014B1870CB
:10307000704700BFFC87FF1F024B1878B0FA80F042
:1030800040097047FC87FF1F0278002A00F09080FB
:1030900070B5034682B00D46252A2AD158785C1CAB
:1030A00008B325282FD0732831D0642824D069286C
:1030B00022D066284FD07A2859D0782835D0582881
:1030C0002FD062283ED0422838D06C2814D06328F4
:1030D00012D0742857D054285FD00AF0C1F8627813
:1030E000631C002AD8D1344802B0BDE870400AF011
:1030F000D3BA18781C46F0E72B1D29682E481D46C8
:103100000AF01EFBEBE710460AF0AAF8E7E72E6884
:1031100030460DF035FF0146304604350AF01CF804
:10312000DDE7022125480AF017F82E1D29682248FC
:103130000023102235460AF0C3FAD0E702212048C6
:103140000AF00AF82E1D29681B4800230222354682
:103150000AF0B6FAC3E7073525F007050321D5E9DC
:1031600000231548009108350AF0F2FAB7E7073551
:1031700025F007050021D5E900230F480091083507
:103180000AF0E6FAABE7296801290EBF0D480E48A0
:103190000121043509F0E0FFA1E72B68012B07BFEF
:1031A00004210A480A480521043509F0D5FF96E7AD
:1031B00001480AF071BA00BFD489FF1FB04701006F
:1031C000B4470100B8470100BC470100C0470100F7
:1031D000C84701000FB400B583B004A951F8040B2F
:1031E0000191FFF751FF03B05DF804EB04B07047A5
:1031F00070B51B4B1B4C1B6882B00D460193019BA5
:103200002360194604460023164617480A220AF08E
:1032100057FA0321154809F09FFF032C07D8DFE870
:1032200004F01A1510020521114809F095FF02213A
:10323000104809F091FF31462846FFF725FF02B0FC
:1032400070BD07210C4809F087FFF0E704210B4807
:1032500009F082FFEBE70521094809F07DFFE6E769
:10326000BCBCFF1F5494FF1FD489FF1F24430100DF
:10327000E847010018480100E0470100D847010075
:10328000D04701000FB400B5094B187883B020B1C6
:1032900003B05DF804EB04B0704705AB1A4604991F
:1032A0000193FFF7A5FF03B05DF804EB04B070478E
:1032B000FC87FF1F0FB4094B00B51B78012B83B0AF
:1032C00004D903B05DF804EB04B0704705AB1A46AF
:1032D000049901930120FFF78BFFF2E7FC87FF1FA2
:1032E0000FB40B4B00B51B78032B83B004D903B08C
:1032F0005DF804EB04B0704705AB1A4604990193DE
:103300000320FFF775FF03B05DF804EB04B07047CE
:10331000FC87FF1F30B4074D074C084900232B7072
:10332000236003654365836580F85C300B6030BCC7
:10333000704700BF6094FF1F5C94FF1F5894FF1FED
:1033400070B5132008F01AF8A8B1114E114B35884A
:103350001C6808F027F8ADB22C44201A33880E4AB6
:10336000C0EB00108000A0F634009BB2B0FBF3F37A
:103370009BB2138070BD074C08F014F82368044A10
:10338000C01A80B2108008F00DF8206070BD00BF38
:1033900082BAFF1FE4BAFF1FF4BAFF1F0A4A0B49A3
:1033A000106ED36D03FB00F34FF47A7000FB03F053
:1033B000642310B50B600CF0F1FB0549054C0CF0D3
:1033C000F5FC206010BD00BF90B9FF1F1088FF1FE3
:1033D000E4388E3ED4BAFF1F10B4019C521AA4EBFD
:1033E000030412D0401A002C04FB00F002EBD2714F
:1033F00011DB00EB610101FB02F0002891FBF2F10F
:103400000B4414DB184610BC704704EBD47003EB7C
:10341000600010BC7047A0EB610000FB02F10029C6
:1034200090FBF2F01844EEDB013010BC7047581EE0
:1034300010BC704710B5074C20460AF02DF9064B1A
:10344000204619680AF07CF903210448BDE81040C1
:1034500009F082BED489FF1F0C95FF1FF0470100C1
:1034600070B5044608460D460DF08AFD23680246F5
:10347000294620465B68BDE87040184738B50446C9
:1034800008460D460DF07CFD2368024629465B6820
:1034900020469847054620460AF0FEF8284438BDE5
:1034A0002DE9F0415148524C524E534FFFF792FED6
:1034B000524B5349534A54485960142553491D707F
:1034C000DA60534D1C6100224FF4FA749E619F62D2
:1034D000504E514FD861D9624FF07C504F491D6317
:1034E0009A634F4D9C860C224E4CDE631F644E4EF9
:1034F000D8649627022019655D6501214B4D9A65B8
:103500005C6200223224C3F8C860A3F866706426A7
:103510004FF49677587058721D625D615D6483F850
:103520004820C3F8A8401E66A3F86A70A3F8647028
:103530003F4D19725A27D965A3F86840DA67C3F876
:103540008000C3F88820C3F89040C3F8B040C3F8A7
:10355000AC20C3F8BC00C3F8C06083F8CD204FF4A2
:103560007A7683F8CE20334C9F6744F62062FF20A2
:10357000C3F89460C3F89850C3F89C40C3F8A020E7
:103580004FF4167441F28832C3F8B40040F61C4878
:1035900040F2D6604FF00A0C41F2040E5527F02697
:1035A0000525C3F88410C3F8B810C3F86C80C3F8BD
:1035B00070C0C3F874E0C3F8DC70C3F8E060A3F82F
:1035C000C650A3F8D040A3F8D440A3F8D220A3F863
:1035D000D620C3F88C20A3F8C420A3F8A400A3F835
:1035E000A60083F8D810BDE8F08100BFF4470100C1
:1035F0000000404033338340CDCCCC3D90B9FF1F19
:1036000020A1070066668640CDCC4C400000824277
:10361000000020C1000020420000A0409A9979409B
:103620000AD7233D333373409A99993ECDCC4C3E13
:103630000000114400F0C84570B5464C464D47485F
:10364000E66800232B70FFF795F9014630460CF031
:1036500097FC08B104232B704048FFF785F92169D6
:103660000CF08EFC18B12B7843F010032B703B4804
:10367000FFF7FCF9E16A0CF0A1FC18B12B7843F0DC
:1036800040032B70002335486B70FFF7F1F9216B75
:10369000314E0CF075FC08B10123737000232F48E4
:1036A000EB70FFF767F905462C482B4EFFF75CF9E6
:1036B000014628460CF0BCF9616C0CF07FFC08B1A7
:1036C0000123F370264D254800232B70FFF752F994
:1036D000A16A0646E0680CF0ABF9014630460CF0F2
:1036E0006DFC08B104232B701C48FFF73DF9A16A5B
:1036F000064620690CF09EF9014630460CF040FC6D
:1037000018B12B7843F010032B701448FFF7AEF973
:10371000216C0646E06A0CF08BF9014630460CF04D
:103720004DFC18B12B7843F040032B7000230B485D
:103730006B70FFF79DF9216C0546206B084C0CF06F
:1037400079F9014628460CF01BFC08B1012363708F
:1037500070BD00BF90B9FF1F7CB9FF1F1C95FF1FF4
:10376000C0BAFF1F2DE9F041844C2368012B82B0C1
:1037700025D0022B54D0032B74D0EBB9804B814859
:10378000D3F8B020D3F8B4100368891A002903FBDA
:1037900001F37D49C0F28880323381FB0301D817E1
:1037A000C0EB6111002B1144C0F29380062002B0DF
:1037B000BDE8F04107F05CBC02B0BDE8F081734E9B
:1037C00033680A33B3F57A7F7EDC184633600CF039
:1037D000E5F96F490CF036FA8046694DD5F8B0002E
:1037E0000CF0DCF90746D5F8B4000CF0D7F93946EF
:1037F0000CF01EF941460CF025FA66490CF0D6FA99
:1038000039460CF017F90CF0F9FB0146062007F0D9
:103810002FFC614B1B68002B62D12368022BAAD1BD
:103820005A4B574E00221A60D6F8B0000CF0B6F989
:103830000546D6F8B4000CF0B1F929460CF0F8F8BA
:1038400000210CF0FFF953490CF0B0FA29460CF0B6
:10385000F1F80CF0D3FB0146062007F009FC2368C1
:10386000032B8AD1494B464E4FF47A721A60D6F830
:10387000B0000CF093F90546D6F8B4000CF08EF9C0
:1038800029460CF0D5F843490CF0DCF941490CF01D
:103890008DFA29460CF0CEF80CF0B0FB014606205C
:1038A00007F0E6FB236868E7323B81FB0310D9177A
:1038B000C1EB6011002B0A445DDB511C062002B0F5
:1038C000BDE8F04107F0D4BB00234FF0000833609F
:1038D00083E70139062002B0BDE8F04107F0C8BB1C
:1038E00002212E4809F038FC2D4809F0D5FE0621AA
:1038F0002C4809F031FC30680CF050F924490CF0E8
:10390000A1F90BF0F5FC022702460B46009724486C
:1039100009F01EFF0D21244809F01EFCD5F8B00067
:103920000CF03CF9804630680CF038F918490CF07E
:1039300089F90646D5F8B4000CF030F941460CF090
:1039400077F8014630460CF07DF912490CF02EFA5A
:1039500041460CF06FF80BF0CBFC009702460B468B
:103960000F4809F0F5FE39460C4809F0F5FB0C4804
:1039700009F092FE51E7114618E700BF9C94FF1F23
:1039800090B9FF1F1088FF1F1F85EB5178BAFF1FEA
:10399000CDCCCC3D0000C8420088FF1F6858010014
:1039A000D489FF1F144801001C48010030B5154898
:1039B000154C83B009F070FE124809F06DFE134BF0
:1039C0001048196809F0BCFE0E4809F065FE0D218B
:1039D0000F4809F0C1FBD4F8AC30012B1CD00D4DC1
:1039E0000848297800230A2209F06AFE2B78052B63
:1039F00074D8DFE813F074017901CB01D001D5014F
:103A0000DA0100BFD489FF1F90B9FF1F7094FF1F18
:103A10002C48010084B9FF1F0921B64809F09CFB1E
:103A2000B548FEF7A1FF21690CF0AAFA18B10F21E1
:103A3000B24809F091FBB048FEF79CFFE1680CF03A
:103A4000BDFA18B10E21AE4809F086FBAA48FEF770
:103A500091FF0546A848FEF787FF014628460BF070
:103A6000E7FF616C0CF0AAFA18B11121A54809F022
:103A700073FBA148FEF7A2FFE16A0CF09FFA18B1B0
:103A80000C21A14809F068FB9B48FEF797FF216BCA
:103A90000CF076FA18B10D219C4809F05DFB9C4BA7
:103AA00095481B68012B00F09881FEF75DFF2169A6
:103AB000984D0CF083FA002800F00F818E48FEF735
:103AC00059FFE968944D0CF05BFA38B12B78052B5F
:103AD00000F098810821914809F03EFB02219048AE
:103AE00009F03AFB122007F049FC012800F0708130
:103AF000112007F043FC012800F05C81894B1B6812
:103B0000012B00F0608102218548874C09F024FBDD
:103B1000864B8748196809F013FE854809F0BCFDFB
:103B20000421844809F018FB0B2007F027FC002330
:103B300001460A227E4809F0C3FD0C2007F01EFC56
:103B4000002301460A227A4809F0BAFD142007F042
:103B500015FC002301460A22754809F0B1FD152025
:103B600007F00CFC0A2200230146714809F0A8FD69
:103B70000621714809F0F0FA2368DB074FF00101D4
:103B80004CBF6E486E4809F0E7FA236898074FF07B
:103B900001014CBF69486A4809F0DEFA23685A07F8
:103BA0004FF001014CBF6548654809F0D5FA23681C
:103BB0001B074CBF61486248012109F0CDFA04217E
:103BC000604809F0C9FA112007F0D8FB002301462C
:103BD0000A22574809F074FD102007F0CFFB00239C
:103BE00001460A22524809F06BFD122007F0C6FB7D
:103BF000002301460A224E4809F062FD132007F017
:103C0000BDFB0A2200230146494809F059FD18214D
:103C10004D4809F0A1FA4D4B18880BF0BFFF4C49F5
:103C20000CF010F80BF064FB002402460B460094E5
:103C30003F4809F08DFD1D21464809F08DFA464B9D
:103C400018880BF0ABFF42490BF0FCFF0BF050FB68
:103C500000940B4602463648404C09F079FD02219B
:103C60003F4809F079FA2B78032B02D023889BB2C6
:103C700093B117213B4809F06FFA21882C4889B28B
:103C800009F05EFD0221364809F066FA2B78032B15
:103C900002D1354B1B780BB903B030BD0B21334833
:103CA00009F05AFA324B2248198889B209F048FDC6
:103CB0001121304809F050FA2F4B1D48198809F09E
:103CC0003FFD2E4B1B78002B00F097802C481D21C8
:103CD00003B0BDE8304009F03FBA0F4DFEE60621C3
:103CE000284809F039FAF9E60721274809F034FA9B
:103CF000F4E600BF3C4801001C95FF1F4848010046
:103D000058480100684801007C4801008C480100C7
:103D1000A494FF1F90B9FF1F84B9FF1FC048010082
:103D200068580100C4BAFF1FF8BAFF1F7494FF1F40
:103D3000D489FF1F344901003C4901004449010076
:103D4000484901004C490100544901009894FF1F63
:103D5000CDCCCC3D70490100ECBAFF1FF4BAFF1F77
:103D600090490100F0490100E0B8FF1F94490100AB
:103D700082BAFF1FA0490100E0BAFF1F0895FF1F8C
:103D8000D0490100CC480100D44801000721204857
:103D900009F0E2F9A2E608211E4809F0DDF99DE6E6
:103DA0000B211D4809F0D8F998E607211B4809F0B6
:103DB000D3F993E60A211A4809F0CEF9194B1B688A
:103DC000012B7FF4A0AE1121174809F0C5F99AE63E
:103DD0000E21164809F0C0F98AE6FEF7C5FD616AB2
:103DE0000CF0ECF860B116211148124D09F0B4F94D
:103DF0000A21114809F0B0F970E619210F4867E768
:103E00000C4D67E60A210C4809F0A6F966E600BFEA
:103E1000E8480100F0480100DC480100FC480100CE
:103E200014490100C4BAFF1F2049010004490100E0
:103E30009C48010084B9FF1FB4480100B449010047
:103E40002DE9F04FAB4CD4F88060012E8DB000F01E
:103E50007981032E00F0CC80DFF8DC82A64FA74EDC
:103E6000E36FA748012B09BF3168316801F10041B8
:103E7000316006F003FD3B68002B40F09F80A048B6
:103E8000DFF8B49206F0D0FC3B68C8F800000546A5
:103E9000002B44D1D4F88030964A012B53D0994955
:103EA00028460CF08BF8C0B9974928460CF068F802
:103EB00098B9964A964B12680B920B9A1A60D4F8EE
:103EC000B8000BF06BFE29460BF0BCFE0023C8F8CF
:103ED000000033600DB0BDE8F08FDFF830A28C4FEA
:103EE000DAF800300A930A983B68DFF85092C01A5B
:103EF0000BF050FE29460BF0A5FE86490BF056FF4D
:103F000084490BF053FFD9F800100BF093FDDAF859
:103F100000300993099BC9F800003B60CFE70BF024
:103F2000E7F9022502460B4600957B4809F010FC94
:103F300004217A4809F010F9D4F88030D9F80050FB
:103F40006C4A012BABD1764B1B68012B00F0DA8158
:103F5000022BB4D1D2F8A07038460BF01FFE2946D0
:103F60000CF00EF840B978420BF018FE29460CF020
:103F700025F8002800F0F981DFF890A1644FDAF805
:103F80000030079307983B68DFF8B091C01A0BF038
:103F900001FE29460BF056FE5E490BF007FF5D4916
:103FA0000BF004FFD9F800100BF044FDDAF80030F4
:103FB0000693069BC9F800003B6080E7504806F076
:103FC00033FC0BF095F9022502460B46009552484A
:103FD00009F0BEFB0321534809F0BEF8D4F8A01045
:103FE0004D4809F0ADFB03214E4809F0B5F846E70E
:103FF0004D4D4B4F2B68DFF84081D3F884000F21E3
:1040000001233B6005F0A6FE3B683B4F012B3B685C
:1040100000F0BF80002B40F03D812B68DFF820913D
:10402000D3F88400436B19698EB2C9F8006005F0BB
:1040300013FCB4F8A62040F6E44303FB06F1B1FB01
:10404000F0F0801A00B20BF0A9FD38492B4E8246E1
:10405000D4F898000BF0F6FD014650460BF0A6FE92
:10406000D9F800303060632BDFF8D4A000F306816C
:10407000002333603B68002B3FF4F2AE02212C4852
:1040800009F06AF82B68D9F80050D3F8840040F69C
:10409000E44303FB05F505F0DFFBB5FBF0F00BF0A7
:1040A00079FD0546B4F8A6000BF078FD01462846D8
:1040B0000BF0BEFC0BF01CF9022502460B460095E6
:1040C000154809F045FB2946194809F045F83068BC
:1040D0000BF00EF9009502460B460F4809F038FB2D
:1040E0002946144809F038F82946114809F034F8EF
:1040F000B6E600BF90B9FF1F74B9FF1FE8BAFF1FF3
:1041000098BAFF1F0000FA430000FAC3BCBCFF1FAF
:1041100078B9FF1F00007A44D489FF1F484A010084
:104120002888FF1F2843010008BBFF1F9175DD365B
:1041300068580100444A010080B9FF1FD4BAFF1F2C
:1041400010BBFF1FDFF80883D4F8A070D8F8005028
:1041500038460BF023FD29460BF030FF48B178427A
:104160000BF01CFD014628460BF028FF002840F00C
:104170000381A54DA54F2A680223D2F884003B6035
:104180000E2105F0E7FD3B68A14F012B3B687FF452
:1041900041AF002B40F0FA802B68DFF8B892D3F8DB
:1041A0008400436B19691FFA81FBC9F800B005F060
:1041B00053FBB4F8A430974E40F6E44A0AFB0BFBDD
:1041C000BBFBF0F0C01A00B20BF0E8FC924983464A
:1041D000D4F89C000BF036FD014658460BF0E6FD86
:1041E0002A68D9F800303060D2F884000AFB03FA5C
:1041F00005F032FBB4F8A430BAFBF0F00FFA80FA05
:10420000C3EB0A03002BB4F8C620B8BF5B4293424D
:10421000BCBF002333603B68002B3FF421AE02217A
:104220007E4808F099FF2B68D9F80050D3F8840035
:1042300040F6E44303FB05F505F00EFBB4F8A410CB
:10424000B5FBF0F000B2411A754809F079FA022185
:10425000724808F081FF30680BF04AF802250246E8
:104260000B4600956E4809F073FA03216D4808F07B
:1042700073FF2946694808F06FFFF1E52B68D3F812
:10428000840005F0E9FADAF8003064389842FFF467
:10429000EFAEEFE66248DFF8BC91DFF86CA109F001
:1042A000FBF90C21604808F057FF0C215F4808F02B
:1042B00053FF2A683B68D2F88400426B11698EB2C2
:1042C000C9F80060002B3FF4B2AE05F0C5FA40F625
:1042D000E44100230A2201FB06F1B1FBF0F1504852
:1042E00009F0EEF902214D4808F036FFB4F8A610A7
:1042F0004B4809F025FADAF80030D9F80060D3F815
:10430000840094E64A4928460BF058FE58B94949BA
:1043100028460BF035FE30B9474A484B12680592E3
:10432000059A1A60CBE5DFF810A1444FDAF80030A7
:10433000049304983B68DFF82091C01A0BF02AFC24
:1043400029460BF07FFC3E490BF030FD3C490BF059
:104350002DFDD9F800100BF06DFBDAF80030039357
:10436000039BC9F800003B60A9E5334A334B126850
:104370000892089A1A60A2E5234D244F2B683E60EC
:10438000D3F884000F2105F0E5FC3DE62448DFF872
:10439000C4901D4E09F080F9D4F88030012B4FF005
:1043A0000B010CBF2748284808F0D6FE0C211F48F7
:1043B00008F0D2FE2A683B68D2F88400426B11698B
:1043C0001FFA81FBC9F800B0002B3FF4F0AE05F0F6
:1043D00043FA40F6E44100230A2201FB0BF1B1FB52
:1043E000F0F10F4809F06CF90121184808F0B4FE0B
:1043F000B4F8A4100A4809F0A3F93368D9F800B05A
:10440000D3F88400D3E600BF08BBFF1F2888FF1F36
:1044100074B9FF1FE8BAFF1F9175DD3668580100B7
:10442000D489FF1F304A0100344A0100204A0100AC
:104430000000FA430000FAC3BCBCFF1F78B9FF1F9D
:1044400000007A44084A0100144A010004570100A0
:1044500080B9FF1F10BBFF1FD4BAFF1F2DE9F04F1B
:104460009D4C236887B01BB99C4B1B68002B7BD0ED
:104470009B4EDFF878829B4FDFF8BC92D6F88830ED
:10448000974D012B00F09A802C6ED7F800A0ED6DAF
:1044900004FB05F44FF47A7000FB04F00BF07EFB94
:1044A0009149924D044650460BF0CCFB21460BF04F
:1044B0007DFC8F490BF0C6FB0BF0A0FD6328C8F80C
:1044C00000004CDD204688490BF070FC6423386006
:1044D0002B60D9F80030002B3ED0D6F88030804CCD
:1044E000012B00F09180032B00F0E980022B00F0FB
:1044F000ED8002217F4808F02FFE7F4B18680AF0FC
:10450000F7FE022402460B4600947C4809F020F98D
:1045100021467B4808F020FE2146764808F01CFE24
:10452000D8F80010754809F00BF90621754808F015
:1045300013FE38686C490BF085FB0AF0D9FE009435
:1045400002460B466D4809F003F903216E4808F056
:1045500003FE6A4809F0A0F807B0BDE8F08F002814
:10456000BCBF00232B60B4E7684D2B680393039B0B
:10457000B3F57A6F07D9664E336823B96548FDF7FE
:1045800099FC012333602B680493049A544E41F242
:1045900094139A4200F28C802B680593059A41F29D
:1045A00088339A423DD8D6F88830DFF840814D4FA5
:1045B000DFF884914A4D012B7FF466AF5548FEF732
:1045C000D3F95549D5F874A0EC6ED5F870B00BF05E
:1045D00039FB0BF039FDAB6F0093524621465B4629
:1045E00080B2FEF7F9FE2C6EED6D04FB00F005FBCA
:1045F00000F000EB800040000BF0D0FA3A490BF0DD
:10460000D5FB8246386043E7444B1B68012B4FF0D3
:104610000A010CBF4248434808F09EFDD4F88030A0
:1046200061E706214048DFF8C48008F095FD334873
:1046300009F032F83748FEF797F93749D6F8709005
:10464000776FF56E0BF0FEFA0BF0FEFCB36F009384
:104650003A464B46294680B2FEF7BEFE326EF36DF7
:10466000C8F8000002FB00F003FB00F000EB800044
:1046700040000BF093FADFF8C0901B49194F0BF084
:1046800095FBD9F80030386001222260002B3FF4FE
:10469000F5AE0221174808F05FFD184808F0FCFF4E
:1046A0005921224808F058FD144808F0F5FFE5E6C6
:1046B0001848F26C96F84810FEF762F96CE7102182
:1046C0001B4808F049FDD6F880300FE7072119484C
:1046D00008F042FD0DE700BF1895FF1F04BBFF1F48
:1046E00090B9FF1FD4BAFF1FE4388E3E1088FF1F19
:1046F0000000C8426858010080B9FF1FD489FF1F1D
:10470000444A0100E84A0100F04A0100BCBCFF1F16
:10471000F0B8FF1F1C95FF1F00007A442888FF1F78
:10472000B44A0100C04A0100504A0100584A010041
:10473000CC4A0100E04A01000088FF1F30B511207B
:1047400083B006F01BFE012818D0122006F016FEDA
:10475000012813D000210B2006F00AFE00210C20B6
:1047600006F006FE0021152006F002FE2649274B22
:104770000120002208701A6003B030BD012115200D
:1047800006F0F6FD224A234C234B1268D4F88C1015
:1047900001921B68019A1D4D0B4493424FF0020198
:1047A000296005D901210C2006F0E2FD03B030BDDF
:1047B000D4F894000BF0F2F9184B19680BF0E0FBF9
:1047C0000028EFD101210B2006F0D2FD94F8CC3067
:1047D0000324012B2C600DD0122006F0CFFD012800
:1047E00008BF094B4FF0110008BF1C7006F0C6FD52
:1047F000012802D1044B02221A7000210C2006F07D
:10480000B7FD03B030BD00BF84B9FF1F1495FF1F73
:10481000BCBCFF1F90B9FF1FDCB8FF1F80B9FF1F92
:10482000F0B56D4E6D4D34682B689C4287B03AD020
:1048300014F0010156D014F002014AD014F0040122
:104840003ED0E3070FD52B68DF070CD4644F3A68DE
:10485000002A00F09E80634B1B680193019B9342EA
:1048600000F289803468A0070DD52B6899070AD417
:104870005D4F3A68002A3ED05A4B1B680393039B56
:1048800093425AD8346862070DD52B685B070BD466
:10489000564F3A68002A3FD0524B1B680593059B40
:1048A000934258D834680CB107B0F0BD21461620A9
:1048B00006F0DEFB2146172006F0DAFB07B0F0BD5C
:1048C000052006F0D5FB2B68346803F0FB032B6052
:1048D000B7E7172006F0CCFB2B68346803F0FD0324
:1048E0002B60ABE7162006F0C3FB2B68346803F09F
:1048F000FE032B609FE73E4B1B68002B56D1FF2128
:10490000172006F0B5FB374B3A4A19680291029915
:1049100012680A443A60B0E7354B1B68002B50D14F
:10492000FF21052006F0A4FB2E4B324A19680491A2
:10493000049912680A443A60AFE72F4B1720D3F866
:10494000901006F095FB2B68346843F002030022B8
:104950002B603A6097E7284B0520D3F8901006F0BB
:1049600087FB2B68346843F0040300222B603A6015
:10497000002C99D19AE7204B1620D3F8901006F01E
:1049800077FB2B68346843F0010300222B603A6008
:1049900069E7FF21162006F06BFB124B154A1968D8
:1049A0000091009912680A443A6055E7134808F0EC
:1049B00073FE0C21124808F0CFFB104808F06CFE83
:1049C0009DE70E4808F068FE0C210E4808F0C4FB75
:1049D0000A4808F061FEA3E71495FF1FF8BAFF1F0D
:1049E0007CBAFF1FBCBCFF1F88BAFF1F8CBAFF1F19
:1049F0000088FF1F1888FF1F90B9FF1FD489FF1F71
:104A0000F44A0100044B01002DE9F047534EDFF852
:104A10007081DFF870913068514D00220F2104F051
:104A200095FE0023012222214E48C8F80030C9F823
:104A3000002008F091FBD8F80030132B20DC40F662
:104A4000E4473368B5F8A4A0D3F88400436B1C692D
:104A500004F002FFA4B2012107FB04F4B4FBF0F45C
:104A600041485444A5F8A44008F076FB642006F0C1
:104A7000BBFCD8F800300133132BC8F80030E0DD60
:104A8000B5F8A430394A3A48A2FB03129B1A02EB4C
:104A90005303C3F30F131946A5F8A43008F050FED2
:104AA0001D21344808F058FB0221334808F054FB1C
:104AB0002F4808F0F1FD32680023D2F88400C8F8CE
:104AC00000300E2105F046F9022322212548C9F8BD
:104AD000003008F041FBD8F80030132B20DC40F602
:104AE000E4473368B5F8A690D3F88400436B1C699B
:104AF00004F0B2FEA4B2012107FB04F4B4FBF0F40D
:104B000019484C44A5F8A64008F026FB642006F09E
:104B10006BFCD8F800300133132BC8F80030E0DD0F
:104B2000B5F8A630114A1248A2FB03129B1A02EBF9
:104B30005303C3F30F131946A5F8A63008F000FE7F
:104B40001D210E4808F008FB02210B4808F004FB69
:104B50000748BDE8F04708F09FBD00BF08BBFF1F36
:104B600090B9FF1F144B0100584B01008761188654
:104B7000D489FF1F384B0100685801005C4B0100CD
:104B80007C94FF1F2888FF1FC74B2DE9F0411B684D
:104B9000C64CC74E40F2513108222160E271B06D1F
:104BA000002B40F0C6810AF0F9FFB16905460BF011
:104BB00049F8C049BE4F0BF045F80BF045FA80B2FA
:104BC00003126372BC4ABD4B12881B88F1692072C4
:104BD000A37228461B121512E372227365730BF041
:104BE00031F8B449B14D0BF02DF80BF02DFA83B22A
:104BF0001A122946B248A373E27305F07DFCB14B4B
:104C0000B14A1B681288A272D8B200EB80012072F0
:104C100003EB830040F3D71049001B12607340F28E
:104C200055301212217363724FF008080023206080
:104C30002946A348E272A373E37384F8078005F062
:104C40005BFCD6F8BC3084F8078040F25632072B64
:104C500022609E4800F0728197F8CE30012B00F060
:104C60006D81FDF789FE9A490AF0ECFF0BF0ECF933
:104C700028729648FDF780FE95490AF0E3FF0BF095
:104C8000E3F9C0F307206872924B914918680BF062
:104C90008DF80BF0B3F9021203468C48E272A3724E
:104CA000FDF78CFE83490AF0CDFF0BF0A7F92073C6
:104CB0008648FDF783FE7F490AF0C4FF0BF09EF99A
:104CC000002540F3072379497D486373A573E57395
:104CD00005F012FC022006F087FB7F4A7F4B5178DB
:104CE000907817786172A0725978987892F803E0FA
:104CF00027724FF008081F78DA78617340F25A3350
:104D0000A0736A496E4884F80BE02773E27323604E
:104D100084F8078005F0F0FB714B64491A785878E5
:104D2000227260729A78D878A272E0721A799879B1
:104D30005F792273A073DA796148E27340F25E33DF
:104D40002360677384F8078005F0D6FB022006F025
:104D50004BFB644B55491A785878227260729A78E6
:104D6000D878A272E0721A7998795F792273A07369
:104D7000DA795348E2734FF45C732360677384F805
:104D8000078005F0B9FB022006F02EFB40F27333DA
:104D90004E48236084F80780FDF7E6FD52490AF08B
:104DA00051FF0BF051F920724848FDF7DDFD4E49E7
:104DB0000AF048FF0BF048F9C0F307234348637239
:104DC000FDF7D8FD48490AF03DFF0BF03DF9A07210
:104DD0003E48FDF7CFFD44490AF034FF0BF034F9AB
:104DE000C0F307233948E372FDF742FE3F490AF05A
:104DF00021FE0BF029F920733448FDF739FE3B49B9
:104E00000AF018FE0BF020F9C0F307232F48637354
:104E1000FDF72CFE35490AF00DFE0BF015F9A073D5
:104E20002A48FDF723FE31490AF004FE0BF00CF985
:104E30001E49C0F307232248E37305F05DFB0220FF
:104E400006F0D2FAF16D336E294A84F8078011FB1F
:104E500003F312682372C3F307210B2040F2793366
:104E6000A2726172236006F089FA07460C2006F0F0
:104E700085FA0646142006F081FA800040EA4606CC
:104E8000152006F07BFA3E431A4B08491B78237322
:104E900076B246EAC0060A486573E672A573E57302
:104EA00005F02AFB022027E0A494FF1F8094FF1F37
:104EB00090B9FF1F00002041ECBAFF1F9894FF1F1C
:104EC00014BBFF1F1088FF1F1688FF1F1C95FF1FB4
:104ED0000000C84280B9FF1F7CB9FF1FC0BAFF1F86
:104EE0003488FF1F3C88FF1F00007A4433938843B7
:104EF000F8BAFF1F84B9FF1F06F076FA40F272334A
:104F00001848236084F80780FDF730FD20721548AB
:104F1000FDF72CFD40FA08F3A5726372E572257364
:104F20006573A573E57310491048BDE8F04105F0BD
:104F3000E3BA0AF033FE716A054638E6FDF71CFD58
:104F40000B490AF07FFE0BF07FF820720548FDF751
:104F500013FD07490AF076FE0BF076F8C0F3072040
:104F6000607291E61C95FF1F8094FF1F14BBFF1F0A
:104F7000000020412DE9F04F8F4E904F83B008F094
:104F800085F834683860042C054600F01783092C36
:104F90005ED0022C4CD1A5F13103422B53D8DFE86F
:104FA00013F0560564057405D60081059205A10528
:104FB000AB05520052005200520052005200520003
:104FC0005200520052005200520052005200520051
:104FD0005200520052005200520052005200520041
:104FE0005200520052005200520052005200520031
:104FF0005200520052005200520052005200520021
:10500000520052005200430052005200520052001F
:105010005200520052005200520052005200520000
:105020005200640052004B05FFF7EEFC34683D6807
:10503000082C40F09D80322D00F0C983712D14D0D2
:10504000312D00F0DB83732D13D003B0BDE8F08F5A
:105050005B4C94F8CD30012B02D9002384F8CD307D
:10506000312D00F04C83712DEDD10022732332607D
:105070003B603368002BE8D1524D534808F00CFBDD
:105080000421524808F068F84F4808F005FB102149
:105090004F4808F061F84C4808F0FEFA13214D48DB
:1050A00008F05AF84C4B4848196808F049FB464844
:1050B00008F0F2FA1421494808F04EF8424808F086
:1050C000EBFA1E21464808F047F83F4808F0E4FA9A
:1050D0001521444808F040F83B4808F0DDFA1E214D
:1050E000414808F039F8384808F0D6FA20213F48FE
:1050F00008F032F8344808F0CFFA19213C4808F09B
:105100002BF8314808F0C8FA12213A4808F024F880
:105110002D4808F0C1FA1921374808F01DF82A482F
:1051200008F0BAFA0F21354808F016F8264808F0BA
:10513000B3FA0D21324808F00FF8234808F0ACFA12
:10514000002201232A60336003B0BDE8F08F012301
:10515000336007F0D7FF002807DD1B48184C08F024
:1051600031FC0AF01BFDC4F89C00632534683D60E7
:10517000072C4BD1332D01F0A28300F3AB82312DEC
:1051800001F08583322D7FF45EAF07F0BBFF00286E
:105190003ADD0D480A4C08F015FC0AF0FFFC1949ED
:1051A0000AF050FD61220123606415463A603360C5
:1051B0001C46642AB1E200BF0CBBFF1FC8B8FF1F2A
:1051C00090B9FF1F0088FF1FD489FF1FA85001005E
:1051D000B0500100C45001002488FF1FD8500100C6
:1051E000F050010010510100285101004851010008
:1051F0006C510100885101009C510100B85101001F
:10520000C85101006F12833A34683D68062C40F0A3
:105210008D80A5F13103402B3FF615AF01A252F866
:1052200023F000BF31600000515E00007F5E00008F
:10523000295F00009F5F0000775F0000AB60000007
:10524000616000008160000047500000475000008E
:1052500047500000475000004750000047500000F2
:1052600047500000475000004750000047500000E2
:1052700047500000475000004750000047500000D2
:1052800047500000475000004750000047500000C2
:1052900047500000475000004750000047500000B2
:1052A00047500000475000004750000047500000A2
:1052B0004750000047500000475000004750000092
:1052C0004750000047500000475000004750000082
:1052D0004750000047500000475000004750000072
:1052E00047500000B35F0000E15F0000096000006C
:1052F000575F000047500000475000004750000033
:105300004750000047500000475000004750000041
:105310004750000047500000475000004750000031
:10532000475000006B50000034683D68052C40F089
:105330008D80A5F13103402B3FF685AE01A252F8D6
:1053400023F000BF5358000085590000A559000004
:10535000C5590000EF5900000B5A0000255A000003
:1053600047500000475000004750000047500000E1
:1053700047500000475000004750000047500000D1
:1053800047500000475000004750000047500000C1
:1053900047500000475000004750000047500000B1
:1053A00047500000475000004750000047500000A1
:1053B0004750000047500000475000004750000091
:1053C0004750000047500000475000004750000081
:1053D0004750000047500000475000004750000071
:1053E0004750000047500000475000004750000061
:1053F0004750000047500000475000004750000051
:105400004750000047500000475000004750000040
:105410004750000047500000475000004750000030
:105420004750000047500000475000004750000020
:105430004750000047500000475000004750000010
:10544000475000004558000034683D68032C40F088
:10545000A480A5F13003422B3FF6F5AD01A252F82E
:1054600023F000BF71550000356800005B68000044
:1054700073670000C9670000E96700000F6800005B
:10548000DD6000007D650000A3650000475000005E
:1054900047500000475000004750000047500000B0
:1054A00047500000475000004750000047500000A0
:1054B0004750000047500000475000004750000090
:1054C0004750000047500000475000004750000080
:1054D0004750000047500000475000004750000070
:1054E0004750000047500000475000004750000060
:1054F0004750000047500000475000004750000050
:10550000475000004750000047500000475000003F
:10551000475000004750000047500000475000002F
:105520004750000047500000CB650000E9650000CF
:10553000076600003767000055670000A566000099
:10554000E56600000D670000475000005B66000044
:105550007D660000475000004750000047500000A3
:1055600047500000475000006B50000025660000C7
:1055700007F0C8FD002841F38381BE48BE4C08F007
:1055800021FA0125034601466222BC48E3653560E5
:105590003A60FDF7F3F934683D68012C7FF453ADB0
:1055A000642D40F0BA80DFF8FCB2DFF8FCA2DFF82F
:1055B000FC92B14CDFF8E882B14DF3E2A0F1300388
:1055C000412B3FF640AD01A252F823F0A35D00004D
:1055D0002F5E0000CB5D0000ED5D0000F35C00007D
:1055E0001F5D0000415D0000595D0000375B000059
:1055F0007B5D00004750000047500000475000000E
:10560000475000004750000047500000475000003E
:10561000475000004750000047500000475000002E
:10562000475000004750000047500000475000001E
:10563000475000004750000047500000475000000E
:1056400047500000475000004750000047500000FE
:1056500047500000475000004750000047500000EE
:1056600047500000475000004750000047500000DE
:1056700047500000475000004750000047500000CE
:1056800047500000475000004750000047500000BE
:10569000475000004750000047500000135B0000D7
:1056A000475000004750000047500000475000009E
:1056B000475000004750000047500000475000008E
:1056C000475000004750000047500000475000007E
:1056D0006B500000342D7FF4C6AC07F013FD00289A
:1056E0007FF792AD6348644C08F06CF961220123A6
:1056F000A08615463A6033601C46642A0DE094F893
:10570000CD30B3FA83F3782101225B0984F8CD30E0
:105710000D46396032601446642941F328836B2DAD
:1057200001F0228301F3CA82652D01F02281692DE7
:1057300002D088E407F0AAFC07F0E4FC0446002845
:10574000F8D14C484C4D07F0A7FF4A4807F0A4FF9A
:10575000484807F0A1FF474807F09EFF454807F07B
:105760009BFF1521474807F0F7FC424807F094FFDC
:105770001821454807F0F0FC23460A2295F8481006
:105780003C4807F09DFF3B4807F086FF28213F4833
:1057900007F0E2FCE86C3E490AF054FA09F0A8FD73
:1057A00000940B460246334807F0D2FF02213948E5
:1057B00007F0D2FC2F4807F06FFF1321364807F09F
:1057C000CBFC2C4807F068FF082333603DE407F06A
:1057D00099FC00282FDD2748274C08F0F3F80AF041
:1057E000DDF92E490AF02EFA94F8481003460246D5
:1057F0002248E364FDF7C4F8692316E007F082FC51
:1058000000281BDD1B481C4C08F0DCF8C0B284F8F3
:105810004800022894BF01460021E26C174888BF67
:1058200084F84810FDF7ACF8692301241D463B605D
:105830003460642B71E734683D6899E40E4C94F849
:105840004800E6E71649002373220B6033603A6094
:105850000FE407F057FC00287FF7F6AD0548064C2B
:1058600008F0B0F801226B23C4F88C0032603B6072
:1058700020E000BFD489FF1F90B9FF1F1C95FF1FB8
:105880006494FF1F705101000C4C0100284C010072
:1058900000007A44544C0100F84B01006F12833A27
:1058A0009C94FF1F00BBFF1F74B9FF1F88B9FF1F27
:1058B00007F0ECFB07F026FC0028F9D1A848A94D19
:1058C00007F0EAFEA64807F0E7FEA54807F0E4FE69
:1058D000A34807F0E1FEA24807F0DEFE2121A2481E
:1058E00007F03AFC9E4807F0D7FE15219F4807F0C5
:1058F00033FCD4F88C109A4807F022FF02219C4810
:1059000007F02AFC964807F0C7FE1E21994807F0C9
:1059100023FCD4F89410924807F012FF0321964814
:1059200007F01AFC8E4807F0B7FE2121934807F0D4
:1059300013FCD4F890108A4807F002FF884807F05B
:10594000ABFE20218E4807F007FCD4F8B010844845
:1059500007F0F6FE824807F09FFE2121894807F0F4
:10596000FBFBD4F8B4107E4807F0EAFE7C4807F051
:1059700093FED4F8AC30012B00F0D38705233360BD
:10598000FFF763BB07F0BEFB00287FF75DAD7448EF
:10599000744C08F017F801226B23C4F894003260AD
:1059A0003B6087E707F0AEFB00287FF74DAD6C4802
:1059B0006C4C08F007F801226B23C4F890003260A9
:1059C0003B6077E707F09EFB00287FF73DAD64481A
:1059D000644C07F0F7FF6C4BC4F8B00002221A6069
:1059E000FDF7C0FE01226B2332603B6062E707F0E7
:1059F00089FB00287FF728AD59485A4C07F0E2FF91
:105A0000614BC4F8B4000322E9E7564C94F8D8304F
:105A1000B3FA83F35B0901216B2284F8D83031603B
:105A20003A6047E74F4C94F8CC30012B0CBF002371
:105A3000012384F8CC30D5E74A4AD2F880300133CC
:105A4000032BC8BF0023C2F880306323EDE6454C2A
:105A5000E36FB3FA83F3632101225B09E3670D4629
:105A6000396032601446642957E63E4CD4F88830D9
:105A7000B3FA83F3632101225B09C4F888300D4631
:105A8000396032601446642947E60123336007F029
:105A900039FB0028D9DD3248324C07F093FFC4F8B7
:105AA000B800D2E70123336007F02CFB00287FF712
:105AB0005CAB2B482B4C07F085FF0AF06FF8C4F85D
:105AC0009800FFF752BB0123336007F01BFB00284F
:105AD0007FF74BAB2248234C07F074FFA4F8C600B5
