:1000000000800020BD0100008183000039830000D2
:1000100039830000398300003983000039830000F0
:100020003983000039830000398300008183000098
:100030008183000039830000B5A20000B9A300004D
:1000400081830000818300008183000081830000A0
:100050008183000081830000818300008183000090
:100060008183000081830000818300008183000080
:100070008183000081830000818300008183000070
:100080008183000081830000818300008183000060
:100090008183000081830000818300008183000050
:1000A0008183000081830000818300008183000040
:1000B000818300001D7F0000297F00002D7F00004C
:1000C000397F00003D7F0000417F000081830000F8
:1000D0008183000081830000818300008183000010
:1000E0008183000081830000818300008183000000
:1000F00081830000C5AA0000818300001D900000DC
:10010000818300003593000081830000818300001B
:1001100081830000818300008183000081830000CF
:1001200081830000818300008183000081830000BF
:1001300081830000818300008183000081830000AF
:10014000818300008183000081830000818300009F
:10015000818300008183000081830000818300008F
:10016000818300008195000081830000818300006D
:10017000818300008183000081830000818300006F
:10018000818300008183000081830000818300005F
:10019000818300008183000081830000818300004F
:1001A000818300008183000081830000818300003F
:1001B000818300008183000081830000564B4CF254
:1001C000205210B51A804DF628121A8000BF00BFC9
:1001D00008F0DAF8514B4FF010621A60504A9A60FA
:1001E000504ADA60504A136813F4807304D14F49BF
:1001F0000B604FF4A85313604D4B1A78110703D5C9
:100200001A7842F008021A704A4B4B492A221A7097
:100210004A4A4B4B8B4204D252F8040F43F8040B6A
:10022000F8E7484B484900228B4202D243F8042B9E
:10023000FAE74649464A002352F8230041F82300D2
:1002400001336F2BF8D1434B434A802103F8011B44
:100250009342FBD1414B3D4A1A60414B8A221A70AE
:10026000A3F5805324225A70A0221A709A7992071B
:10027000FCD59A79D406FCD43A4A937903F00C035E
:10028000082B384BF9D103221A7140225A719A79FE
:100290009006FCD5334A9179324B4906FBD5324A58
:1002A000324911600221516020221A709A7902F0BD
:1002B0000C020C2AFAD12E4B2E4A1A602E4B2F4AD2
:1002C0001A6000225A60072243F8042C2C4AC3F813
:1002D0000C2D62B608F00EFB144B1B68DA0705D52F
:1002E000284808F0EBF8284B284A1A60284B1B785E
:1002F0005B0609D5244C254B22689A4204D121483B
:1003000008F0DCF8002323600CF0E0FE08F042F86F
:100310000AF098FAFEE700BF0E2005403080044046
:10032000823F04000100002B10D0034014D0034092
:1003300002D0074000E007403092FF1FD42A01009E
:100340002087FF1F3092FF1F1CBBFF1F0082FF1F73
:100350000000000000E400E05FE400E008ED00E0E1
:100360000050064000400640448004400000030165
:1003700004800440C010050014E000E0FF76010096
:10038000000020203C8FF05B1CE00340A5C3945A82
:1003900000F00740FFFFFFFFFFFFFFFFFFFFFFFF32
:1003A000FFFFFFFFFFFFFFFFFFFFFFFFFFFFFFFF5D
:1003B000FFFFFFFFFFFFFFFFFFFFFFFFFFFFFFFF4D
:1003C000FFFFFFFFFFFFFFFFFFFFFFFFFFFFFFFF3D
:1003D000FFFFFFFFFFFFFFFFFFFFFFFFFFFFFFFF2D
:1003E000FFFFFFFFFFFFFFFFFFFFFFFFFFFFFFFF1D
:1003F000FFFFFFFFFFFFFFFFFFFFFFFFFFFFFFFF0D
:10040000FFFFFFFFFFFFFFFFFFFFFFFFDEF9FFFF23
:1004100010B5054C237833B9044B13B10448AFF33E
:1004200000800123237010BD3092FF1F00000000E8
:10043000D02A0100084B10B51BB108490848AFF39A
:1004400000800848036803B910BD074B002BFBD0A0
:10045000BDE81040184700BF000000003492FF1FA5
:10046000D02A01003092FF1F00000000F0B400F11C
:1004700014060F4F00243146031F00F12C0243F8ED
:10048000044FB34241F8047F4FF0000542F8044F97
:10049000F5D1084B084985640022C56405650566E9
:1004A0004365C365816580F88020F0BC704700BF5C
:1004B0000000A040000048430000C8C200230360C1
:1004C00043608360C360036143618364C364036505
:1004D000436570472DE9F04190F8804084B00023D7
:1004E00064008DF80530E4B2012380468DF80440A5
:1004F0008DF806300327204608F0B8FE02210DF1E2
:10050000050008F0BDFE8DF8044002F02FFB30B36B
:100510000921C94809F068FD002310222146C74877
:100520000AF008F80121C64809F05EFD00231022F8
:100530009DF80510C14809F0FDFF0121C04809F0F0
:1005400053FD002310229DF80610BC4809F0F2FF6D
:100550000121BB4809F048FDB84809F0DBFF022043
:100560008DF8044008F078F902F000FB002840F014
:10057000778102AE002408F099FE002800F0268161
:10058000042C40F0158101E008F0A0FE08F08EFE7A
:100590000028F9D102F0EAFA10B1A84809F0BAFF30
:1005A00098F880406400E4B2202204238DF80440CF
:1005B0008DF805208DF806300327204608F056FEFA
:1005C00002210DF1050008F05BFE8DF8044002F0F9
:1005D000CDFA30B30921984809F006FD0023102216
:1005E0002146964809F0A6FF0121954809F0FCFC38
:1005F000002310229DF80510904809F09BFF01216F
:100600008F4809F0F1FC002310229DF806108B485A
:1006100009F090FF01218A4809F0E6FC874809F0BB
:1006200079FF02208DF8044008F016F902F09EFAD6
:10063000002840F00B8102AE002408F037FE0028AD
:1006400000F0A980072C40F0988001E008F03EFE01
:1006500008F02CFE0028F9D102F088FA10B1774892
:1006600009F058FF98F880409DF80B209DF80C3059
:100670009DF80D00C8F86C206400E4B29DF80E10DF
:10068000C8F87030332201238DF80440C8F8740094
:10069000C8F878108DF805208DF80630032720461D
:1006A00008F0E4FD02210DF1050008F0E9FD8DF8E8
:1006B000044002F05BFA30B309215F4809F094FC72
:1006C0000023102221465D4809F034FF01215C48D7
:1006D00009F08AFC002310229DF80510574809F004
:1006E00029FF0121564809F07FFC002310229DF8C4
:1006F0000610524809F01EFF0121514809F074FC10
:100700004E4809F007FF02208DF8044008F0A4F8D5
:1007100002F02CFA002840F09E8002AE002408F07F
:10072000C5FDF8B1042C0FD101E008F0CFFD08F0B1
:10073000BDFD0028F9D102F019FA10B13F4809F0C7
:10074000E9FE04B0BDE8F08108F0C0FD054606F8FA
:10075000010B02F00BFA00285AD1013408F0A6FD73
:100760000028DFD1042CE2D002F000FA00285ED18C
:10077000013FE6D09DF8044091E708F0A7FD05464B
:1007800006F8010B02F0F2F960BB013408F08EFDAF
:1007900000287FF457AF072C3FF45AAF02F0E6F978
:1007A00000284FD1013F3FF45DAF9DF8044004E7BE
:1007B00008F08CFD054606F8010B02F0D7F9E0B908
:1007C000013408F073FD00287FF4DAAE042C3FF406
:1007D000DDAE02F0CBF930BB013F3FF4E1AE9DF856
:1007E000044088E6E9B200231022144809F0A2FE72
:1007F0000121134809F0F8FBC7E7E9B200231022F2
:100800000E4809F097FE01210D4809F0EDFBD7E7EE
:10081000E9B200231022094809F08CFE01210848A2
:1008200009F0E2FB99E7054809F074FED4E70348B4
:1008300009F070FE9CE700BF98120100D487FF1FEB
:10084000B0190100094809F065FEABE70721084827
:1008500009F0CAFBEFE60721054809F0C5FB5CE794
:100860000721034809F0C0FB83E600BFD487FF1FC0
:10087000A412010090F87000704700BF90F86C005F
:10088000704700BF90F87400704700BF90F8780080
:10089000704700BF2DE9F04390F8808085B04FEAA3
:1008A00048085FFA88F8322200238DF804808DF81A
:1008B00005208DF8063003250DF1060748F00109E3
:1008C000484608F0D3FC01AE0DF10500022108F006
:1008D000D7FC8DF804904A46334600205040082447
:1008E00010F0800F4FEA400018BF80F00700013C75
:1008F000C0B2F5D1BB4202D013F8012FEEE708F0E9
:10090000B5FC02F033F900284AD102208DF80480AA
:1009100007F0A2FF02F02AF9002840F081800DF1D3
:100920000808002408F0C2FC08B3042C12D101E02E
:1009300008F0CCFC08F0BAFC0028F9D102F016F956
:1009400010B13A4809F0E6FD022007F085FF05B036
:10095000BDE8F08308F0BAFC08F8010B064602F087
:1009600005F970B9013408F0A1FC0028DDD1042C90
:10097000E0D002F0FBF878B9013DE5D09DF80480A5
:100980009CE7F1B200231022284809F0D3FD012191
:10099000274809F029FBE5E7244809F0BBFDEBE710
:1009A0000921244809F020FB2346102249461F480C
:1009B00009F0C0FD01211E4809F016FB2346102254
:1009C0009DF80510194809F0B5FD0121184809F0F6
:1009D0000BFB102223469DF80610144809F0AAFDCF
:1009E0000121134809F000FB21460DF1070216F81A
:1009F000014B6140C9B2082311F0800F4FEA410159
:100A000018BF81F00701013BC9B2F5D1B242EED166
:100A10001022064809F08EFD044809F07BFD74E7BA
:100A20000721054809F0E0FA79E700BFD487FF1FE6
:100A3000B019010098120100A41201002DE9F04F35
:100A4000074691B097F8803002205B008DF808309F
:100A500007F002FF97F8803038465B008DF80830C9
:100A6000FFF738FD786FBC6F3B6FFA6E97F8801018
:100A70008DE81100C94802F073F930223D238DF84A
:100A800009208DF80A3003260DF10A059DF808901B
:100A900049F00108404608F0E9FB0DF10900022188
:100AA00008F0EEFB8DF80880424602AB0020504073
:100AB000082410F0800F4FEA400018BF80F00700B4
:100AC000013CC0B2F5D19D4202D013F8012FEEE7F0
:100AD00008F0CCFB02F04AF8002840F07D820220AA
:100AE0008DF8089007F0B8FE02F040F8002840F0BA
:100AF000B9820DF10C0AD146002408F0D7FB00287A
:100B000043D0032C34D101E008F0E0FB08F0CEFB29
:100B10000028F9D102F02AF810B1A14809F0FAFC36
:100B2000312303268DF809308DF80A609DF808906E
:100B300049F00108404608F099FB0DF10900022137
:100B400008F09EFB8DF80880424602AB0020504022
:100B5000082410F0800F4FEA400018BF80F0070013
:100B6000013CC0B2F5D19D4228D013F8012FEEE729
:100B700008F0ACFB09F8010B804601F0F7FF68B9FB
:100B8000013408F093FB0028BBD1032CBED001F048
:100B9000EDFF78B9013E7FF479AFC1E75FFA88F1E4
:100BA000002310227E4809F0C5FC01217D4809F090
:100BB0001BFAE5E77A4809F0ADFCEBE708F056FBD5
:100BC00001F0D4FF002840F0C68102208DF8089083
:100BD00007F042FE01F0CAFF002840F03E820DF10E
:100BE0000C09002408F062FB002844D0032C35D106
:100BF00001E008F06BFB08F059FB0028F9D101F087
:100C0000B5FF10B1664809F085FC342201238DF848
:100C100009208DF80A3003269DF8089049F0010854
:100C2000404608F023FB0DF10900022108F028FBE3
:100C30008DF80880424602AB00205040082410F096
:100C4000800F4FEA400018BF80F00700013CC0B29F
:100C5000F5D19D4228D013F8012FEEE708F036FBBE
:100C600009F8010B804601F081FF68B9013408F0F2
:100C70001DFB0028BAD1032CBDD001F077FF78B955
:100C8000013E7FF453AFC0E75FFA88F100231022E2
:100C9000434809F04FFC0121424809F0A5F9E5E776
:100CA0003F4809F037FCEBE708F0E0FA01F05EFF9F
:100CB000002840F00F8102208DF8089007F0CCFD4D
:100CC00001F054FF002840F0D7810DF10C090024F9
:100CD00008F0ECFA002800F08580032C73D101E0C5
:100CE00008F0F4FA08F0E2FA0028F9D101F03EFF2A
:100CF00010B12B4809F00EFC012212238DF80920B7
:100D00008DF80A304FF003089DF80840204608F09F
:100D1000ADFA02210DF1090008F0B2FA8DF8084091
:100D200001F024FF30B309211F4809F05DF90023C9
:100D3000102221461A4809F0FDFB0121194809F04B
:100D400053F9002310229DF80910154809F0F2FB11
:100D50000121144809F048F9002310229DF80A10D7
:100D60000F4809F0E7FB01210E4809F03DF90C4856
:100D700009F0D0FB06208DF8084007F06DFD01F06A
:100D8000F5FE002840F0738103AD002608F08EFACE
:100D9000002840D0162E30D10AE000BFAC1201006E
:100DA000D487FF1FB01901009812010008F08EFAD5
:100DB00008F07CFA0028F9D101F0D8FE16260028A8
:100DC0007DD1152035E008F081FA09F8010B804645
:100DD00001F0CCFE00285BD1013408F067FA00284E
:100DE0007FF47BAF032C3FF47DAF01F0BFFE002802
:100DF0006CD1013E7FF410AF7EE708F067FA05F88A
:100E0000010B044601F0B2FE00284DD1013608F076
:100E10004DFA0028BED1162ECAD001F0A7FE002838
:100E20004DD1B8F101087FF46FAF701E002840F378
:100E30002182002303AA1C4612F8011B08254C40FE
:100E400014F0800F4FEA440418BF84F00704013DFA
:100E5000E4B2F5D101338342EEDB9DF8218089486D
:100E60004146224601F07CFF162EC146A34602D120
:100E7000A04500F0138197F880108348CDF800B0AA
:100E80004B46324601F09AFF002011B0BDE8F08FCA
:100E90005FFA88F1002310227C4809F04BFB012106
:100EA0007B4809F0A1F897E7E1B2002310227748C8
:100EB00009F040FB0121764809F096F8A6E773484F
:100EC00009F028FB162EACD11520B2E76F4809F0C7
:100ED00021FB8EE709216F4809F086F8234610228E
:100EE00041466A4809F026FB0121694809F07CF86F
:100EF000234610229DF80910644809F01BFB0121CC
:100F0000634809F071F8102223469DF80A105F48E3
:100F100009F010FB01215E4809F066F821460DF149
:100F20000B0002AA12F8014B6140C9B2082311F06C
:100F3000800F4FEA410118BF81F00701013BC9B2A0
:100F4000F5D19042EED11022504809F0F3FA4F4803
:100F500009F0E0FAAFE609214E4809F045F82346CA
:100F600010224146494809F0E5FA0121484809F0B4
:100F70003BF8234610229DF80910444809F0DAFA9C
:100F80000121434809F030F8102223469DF80A1049
:100F90003E4809F0CFFA01213D4809F025F82146E5
:100FA0000DF10B0002AA12F8014B6140C9B20823EF
:100FB00011F0800F4FEA410118BF81F00701013B9A
:100FC000C9B2F5D19042EED11022304809F0B2FA00
:100FD0002E4809F09FFAF8E509212E4809F004F897
:100FE000234610224146294809F0A4FA0121284845
:100FF00008F0FAFF234610229DF80910234809F053
:1010000099FA0121224808F0EFFF102223469DF8AB
:101010000A101E4809F08EFA01211D4808F0E4FF6D
:1010200021460DF10B0002AA12F8014B6140C9B232
:10103000082311F0800F4FEA410118BF81F007012A
:10104000013BC9B2F5D19042EED110220F4809F010
:1010500071FA0E4809F05EFA41E507210E4808F0E2
:10106000C3FFBCE507210C4808F0BEFF41E507219E
:10107000094808F0B9FF87E60721074808F0B4FFE0
:1010800023E600BFE01201002C130100D487FF1FEC
:10109000B019010098120100A41201009DF80C3053
:1010A00097F88020B3EB420F7FF4EEAE9DF80D3041
:1010B000012B7FF4E9AE9DF80E30122B7FF4E4AEE5
:1010C0009DF810309DF80F0003EB00200BF082FD1F
:1010D00074490BF0D3FD396EB86404460BF08AFFF7
:1010E00000B13C66F96D20460BF066FF00B1FC656F
:1010F000A7F1040907F1180607F130054FF00008C1
:101100009AF806309AF8050003EB00200BF062FD18
:1011100065490BF0B3FD49F8040F316804460BF044
:101120004BFF08F101080AF1020A28B1796E204646
:101130000BF056FF00B13460296820460BF05AFFCF
:10114000043600B12C60B8F1060F05F10405D7D1C3
:101150009DF81E309DF81D0003EB002002300BF0BF
:1011600039FD52490BF03EFE014651480BF03AFE64
:1011700050490BF079FC50490BF080FD054609F011
:10118000EBFD0446284609F0E7FD4C4909F056FE00
:101190004B49054620460BF071FD4A490BF066FCB1
:1011A0004949044628460BF069FD014620460BF0EC
:1011B0005DFC01464FF07E500BF014FE43490BF0EE
:1011C00053FC9DF81F209DF82030F86403EB0220AB
:1011D00009300BF0FFFC3E490BF004FE0146344899
:1011E0000BF000FE33490BF03FFC33490BF046FD9A
:1011F000054609F0B1FD0446284609F0ADFD2F492A
:1012000009F01CFE2E49054620460BF037FD2D49FE
:101210000BF02CFC2C49044628460BF02FFD014610
:1012200020460BF023FC01464FF07E500BF0DAFD18
:1012300026490BF019FCFD6C3865294604460BF075
:10124000D9FE796D30BB20460BF0B6FE08B12346BF
:101250007B65294620460BF0CDFEA0B92946B86D26
:101260000BF0AAFE08B12C46BC651A4801F078FDC7
:1012700001200AE69DF82190174849464246C34698
:1012800001F06EFDF7E5B96D20460BF0B3FE0028C6
:10129000EAD1EAE728460BF08FFE0028F3D02B4670
:1012A000D6E700BF1357053B2003C8390016014796
:1012B0000AD7E33FE17A644000007A4400004040EE
:1012C000A40D8F395A80473A46A6DB3333938843BF
:1012D000002C014704130100E0120100052994BF0E
:1012E00050F82100002070472DE9F0410B4E804658
:1012F000041F00F1140754F8045F314628460BF030
:101300005BFE30B1D8F8641028460BF073FE00B1D4
:101310002E46BC42EFD13046BDE8F08100002041AE
:10132000F8B50026041F00F1140754F8045F314695
:1013300028460BF05FFE00B12E46BC42F5D1304688
:10134000F8BD00BF2DE9F047476E82464FF0000917
:10135000041F00F114064FF0000854F8045F3946EA
:1013600028460BF047FE0D4950B128460BF024FEED
:1013700030B1484629460BF079FB08F10108814657
:10138000B442EAD1CAF8848040460BF023FC0146FF
:1013900048460BF027FDBDE8F08700BF0000704213
:1013A000D0F88400704700BF38B5056DC46C29467D
:1013B00020460BF001FE00B92C46204638BD00BF88
:1013C00038B5046DC56C214628460BF0F5FD00B913
:1013D0002C46204638BD00BF08B5C36F1BB100EBDB
:1013E0008300806C08BD016DC06C0BF03FFB4FF0BB
:1013F0007C510BF043FC08BD806C704701299ABFFB
:1014000000EB8101C86C0020704700BF3E2998BFE7
:1014100080F88010704700BF90F86800704700BFE8
:10142000C167704780F86810704700BF4166704719
:1014300070B500F506550646183500F12004204623
:101440008834FFF713F8AC42F9D106F1A80501245E
:1014500028460021FFF7E6FF214628460134FFF722
:10146000D5FF3F2C05F18805F2D142F2A0140025EA
:101470000548064A064B3555002130617161B2615D
:10148000F361304670BD00BF00007A44000048435D
:101490000000C8C238B500F50655183500F1A8049B
:1014A00002E08834AC420AD02046FFF7B5FF00289E
:1014B000F7D020468834FFF701F8AC42F4D138BDAC
:1014C0002DE9F04142F2A41300F5065637460022FA
:1014D0008046C2501836243700F1A80402E0883450
:1014E000B4420DD02046FFF797FF0028F7D02046E2
:1014F0003D68FFF755FF88342844B4423860F1D185
:1015000042F2A41358F80300BDE8F0812DE9F04F32
:1015100091B0012A00928146059100F0F68109F10F
:10152000A80A4FF0010B5046FFF776FFC0B1002527
:101530002C46012629465046D9F80870FFF7CEFE02
:10154000014638460BF038FD18B106FA05F31C4386
:10155000E4B20135062DEDD1009B012B0AD0F4B980
:101560000BF1010BBBF13F0F0AF1880ADBD111B07F
:10157000BDE8F08F5946B94809F01CF80321B84876
:1015800008F032FD214600230222B44808F0D2FFC1
:101590000321B44808F028FD002C00F0F7804FEA42
:1015A0004B03DBB21946019343F001039DF814206D
:1015B00002931D46184633238DF81E208DF81D30EA
:1015C0008DF81C1007F052FE0DF11D00022107F0EE
:1015D00057FE07AA04928DF81C502A4607AB0DF15E
:1015E0001E0600205040082510F0800F4FEA4000F2
:1015F00018BF80F00700013DC0B2F5D19E4202D075
:1016000013F8012FEEE707F031FE01F0AFFA0028E2
:1016100040F0E2809DF804308DF81C30022007F085
:101620001BF901F0A3FA002840F06A8108AB03938C
:101630001F46002507F03AFE002844D01E2D35D164
:1016400001E007F043FE07F031FE0028F9D101F078
:101650008DFA00283DD1009B012B40D08DF81E4013
:10166000029C9DF804208DF81C20322320468DF822
:101670001D3007F0FBFD0DF11D00022107F000FEFB
:101680008DF81C4007AB224600205040082410F083
:10169000800F4FEA400018BF80F00700013CC0B245
:1016A000F5D19E423BD013F8012FEEE707F00EFE76
:1016B00007F8010B804601F059FA20BB013507F00D
:1016C000F5FD0028BAD11E2DBDD001F04FFA00283B
:1016D000C1D0624808F01EFF009B012BBED1039DC4
:1016E00009AF15F8011B5D480023102208F022FF06
:1016F00001215D4808F078FCBD42F2D10321594830
:1017000008F072FCAAE75FFA88F100231022534820
:1017100008F010FF0121554808F066FCCEE707F0FD
:10172000A5FD01F023FA002840F0A4809DF80430C4
:101730008DF81C30022007F08FF801F017FA00280E
:1017400040F0D980039D002407F0B0FD78B31E2C33
:1017500020D101E007F0BAFD07F0A8FD0028F9D17B
:1017600001F004FA48BB009B012B7FF4F9AE039D06
:1017700009AC15F8011B39480023102208F0DAFEE5
:101780000121394808F030FCA542F2D1334808F075
:10179000C1FEE5E607F09AFD05F8010B064601F0EB
:1017A000E5F970B9013407F081FD0028CFD11E2C76
:1017B000D2D001F0DBF90028D5D0284808F0AAFEE5
:1017C000D1E7F1B200231022244808F0B3FE012132
:1017D000264808F009FCE5E70921254808F004FC43
:1017E0002B46102202991D4808F0A4FE01211F4833
:1017F00008F0FAFB2B4610229DF81D10174808F040
:1018000099FE0121194808F0EFFB10222B469DF8A4
:101810001E10124808F08EFE0121144808F0E4FB67
:1018200029460DF11F0007AA12F8013B5940C9B221
:10183000082311F0800F4FEA410118BF81F0070122
:10184000013BC9B2F5D19042EED11022034808F015
:1018500071FE024808F05EFEDCE600BFD487FF1F81
:101860007C1301008013010084130100B0190100F2
:10187000981201000921274808F0B6FB23461022E0
:101880000299254808F056FE0121244808F0ACFBD7
:10189000234610229DF81D101F4808F04BFE012121
:1018A0001E4808F0A1FB102223469DF81E101A487E
:1018B00008F040FE0121194808F096FB04982146E3
:1018C0000DF11F0210F8013B5940C9B2082311F075
:1018D000800F4FEA410118BF81F00701013BC9B2F7
:1018E000F5D18242EED110220B4808F023FE0A48BF
:1018F00008F010FE1AE70721094808F075FB21E7F8
:101900000721074808F070FB90E6034808F002FE44
:1019100005E600BF98120100D487FF1FB01901002F
:10192000A41201002DE9F04F824685B04FF0000966
:1019300001238DF800908DF801908DF802304FF062
:1019400003080024204607F091FC02210DF101005C
:1019500007F096FC8DF8004001F008F930B309213A
:10196000B54808F041FB002310222146B34808F097
:10197000E1FD0121B24808F037FB002310229DF859
:101980000110AE4808F0D6FD0121AD4808F02CFB4F
:10199000002310229DF80210A84808F0CBFD012179
:1019A000A74808F021FBA54808F0B4FD02208DF8F7
:1019B000004006F051FF01F0D9F8002840F089807E
:1019C00001AF3E46002407F071FC002867D0042CCC
:1019D00058D101E007F07AFC07F068FC0028F9D143
:1019E00001F0C4F810B1954808F094FD9DF804305A
:1019F000802B40F01E819DF80530002B40F01981AE
:101A00009DF80640012C40F014818E4801F0A8F9A1
:101A10000AF1A806254604E001353F2D06F18806A7
:101A200086D03046FFF7F8FC83460028F4D13B22ED
:101A300065F07F0301208DF801208DF802308DF8CC
:101A400000B007F013FC0DF10100022107F018FCB3
:101A500001228DF80020E84658466B460DF102023F
:101A60006040C0B2082410F0800F4FEA400018BF59
:101A700080F00700013CC0B2F5D193422ED013F89C
:101A8000014FEDE707F022FC06F8010B054601F0D7
:101A90006DF898B9013407F009FC002897D1042C9F
:101AA0009AD001F063F810B1644808F033FDB8F142
:101AB000010800F0BE809DF8004043E7E9B2002332
:101AC00010225E4808F036FD01215D4808F08CFACE
:101AD000E0E707215C4808F087FA71E707F0C6FBEA
:101AE00001F044F800285AD103208DF8009006F048
:101AF000B3FE01F03BF8002840F09680002407F088
:101B0000D5FBB0B30A2C27D101E007F0DFFB07F0CB
:101B1000CDFB0028F9D101F029F800287FD19DF8EC
:101B20000430812B7FF404AF9DF805303B2B7FF40C
:101B3000FFAE9DF806308035AB427FF4F9AE3046FB
:101B40000121FFF76FFC0AF506534048DA690132BC
:101B5000DA6101F005F9EBE607F0B8FB07F8010BD5
:101B6000804601F003F870B9013407F09FFB0028AC
:101B7000C8D10A2CCBD000F0F9FF002850D1022C9C
:101B80007FF7D6AECBE75FFA88F1002310222B480F
:101B900008F0D0FC01212A4808F026FAE4E70921E0
:101BA000254808F021FA234610220121234808F095
:101BB000C1FC0121224808F017FA234610229DF8A3
:101BC00001101E4808F0B6FC01211D4808F00CFA6F
:101BD000102223469DF80210184808F0ABFC0121A2
:101BE000174808F001FA21460DF1030218F8014BDD
:101BF0006140C9B2082311F0800F4FEA410118BFBC
:101C000081F00701013BC9B2F5D14245EED1102266
:101C10000A4808F08FFC094808F07CFC64E70A24B5
:101C2000064808F077FCAAE70721074808F0DCF926
:101C300064E705B0BDE8F08F98120100D487FF1F5C
:101C4000B019010088130100A412010094130100CF
:101C50002DE9F04742F29C1284B000230127835003
:101C600082468DF804308DF8053000F1A8088DF813
:101C700006704FEA47095FFA89F400214046FFF7F2
:101C8000D1FB20468DF8044007F0F0FA02210DF157
:101C9000050007F0F5FA8DF8044000F067FF30B357
:101CA0000921494808F0A0F900231022214647489D
:101CB00008F040FC0121464808F096F90023102264
:101CC0009DF80510414808F035FC0121404808F016
:101CD0008BF9002310229DF806103C4808F02AFCDE
:101CE00001213B4808F080F9384808F013FC142023
:101CF0008DF8044006F0B0FD00F038FF00285DD1FB
:101D000002AE002407F0D2FA40B3082C19D101E04A
:101D100007F0DCFA07F0CAFA0028F9D100F026FF34
:101D2000002846D19DF808304B4522D001370520C8
:101D300006F092FD3F2F08F188089AD104B0BDE863
:101D4000F08707F0C3FA054606F8010B00F00EFF16
:101D500020BB013407F0AAFA0028D6D1082CD9D02C
:101D600000F004FF30BB042CE0DD9DF808304B454B
:101D7000DCD19DF80930002BD8D19DF80A1001293B
:101D8000D4D19DF80C30002BD0D04046FFF74AFB51
:101D90000AF50653DA690132DA61C7E7E9B20023CE
:101DA00010220A4808F0C6FB0121094808F01CF976
:101DB000CFE70824054808F0ADFBD4E70721054824
:101DC00008F012F99CE700BF98120100D487FF1FAA
:101DD000B0190100A41201002DE9F04700F50656E4
:101DE000354684B0804618361C3500F1A80400271B
:101DF000204600218834FFF715FBB4422F60F7D14D
:101E000002270DF106064FF07F093C22A5237E2113
:101E10007F208DF805208DF806308DF8041001AD77
:101E200007F024FA0DF10500022107F029FA8DF8D8
:101E300004902B467F2200205040082410F0800F91
:101E40004FEA400018BF80F00700013CC0B2F5D156
:101E5000B34202D013F8012FEEE707F007FA00F0C3
:101E600085FE00285AD17E2364208DF8043006F0C8
:101E7000F3FC00F07BFE002840F090800DF1080A92
:101E8000002407F013FA20B3082C15D101E007F065
:101E90001DFA07F00BFA0028F9D100F067FEF0B93F
:101EA0009DF808307F2B21D0013FAED14046FFF78F
:101EB00039FD04B0BDE8F08707F008FA05460AF8D6
:101EC000010B00F053FEF0B9013407F0EFF90028E0
:101ED000DAD1082CDDD000F049FE0028E0D03248ED
:101EE00008F018FB9DF808307F2BDDD19DF80930F4
:101EF0003C2BD9D19DF80A30A52BD5D19DF80B30BC
:101F0000572BD1D1D2E7E9B200231022264808F09E
:101F100011FB0121254808F067F8D5E7092124487D
:101F200008F062F8234610227F211F4808F002FBC8
:101F300001211E4808F058F8234610229DF805108C
:101F4000194808F0F7FA0121184808F04DF8102256
:101F500023469DF80610144808F0ECFA01211348B6
:101F600008F042F821460DF1070215F8014B6140D7
:101F7000C9B2082311F0800F4FEA410118BF81F068
:101F80000701013BC9B2F5D1AA42EED110220648A1
:101F900008F0D0FA044808F0BDFA64E707210548C4
:101FA00008F022F86AE700BFD487FF1FB0190100CC
:101FB00098120100A41201002DE9F04385B04FF002
:101FC0007F082022FF2381468DF804808DF80520AC
:101FD0008DF8063003260DF1060548F00107384656
:101FE00007F044F90DF10500022107F049F98DF8D9
:101FF00004703A4601AB00205040082410F0800FD6
:102000004FEA400018BF80F00700013CC0B2F5D194
:10201000AB4202D013F8012FEEE707F027F900F0EA
:10202000A5FD002840F0768202208DF8048006F09D
:1020300013FC00F09BFD002840F0B2820DF108086F
:10204000002407F033F9002843D0042C34D101E0F8
:1020500007F03CF907F02AF90028F9D100F086FDD5
:1020600010B1C14808F056FA4FF07F0800238DF8F0
:1020700004808DF80630032648F00107384607F043
:10208000F5F80DF10500022107F0FAF88DF804705B
:102090003A4601AB00205040082410F0800F4FEA70
:1020A000400018BF80F00700013CC0B2F5D1AB4240
:1020B00028D013F8012FEEE707F008F908F8010B14
:1020C000074600F053FD70B9013407F0EFF800281F
:1020D000BBD1042CBED000F049FD78B9013EC3D07D
:1020E0009DF8048079E7F9B2002310229E4808F099
:1020F00021FA01219D4807F077FFE5E79A4808F0AB
:1021000009FAEBE707F0B2F800F030FD002840F0E4
:10211000C08102208DF8048006F09EFB00F026FDB1
:10212000002840F038820DF10808002407F0BEF8BE
:10213000002846D0042C37D101E007F0C7F807F09B
:10214000B5F80028F9D100F011FD10B1864808F06B
:10215000E1F94FF07F082122FF238DF804808DF8EC
:1021600005208DF80630032648F00107384607F0B1
:102170007DF80DF10500022107F082F88DF804705A
:102180003A4601AB00205040082410F0800F4FEA7F
:10219000400018BF80F00700013CC0B2F5D19D425D
:1021A00028D013F8012FEEE707F090F808F8010B9C
:1021B000074600F0DBFC70B9013407F077F800281F
:1021C000B8D1042CBBD000F0D1FC78B9013EC0D00E
:1021D0009DF8048050E7F9B200231022624808F00D
:1021E000A9F90121614807F0FFFEE5E75E4808F024
:1021F00091F9EBE707F03AF800F0B8FC002840F05E
:10220000078102208DF8048006F026FB00F0AEFC6A
:10221000002840F0CF810DF10808002407F046F8AF
:10222000002843D0042C34D101E007F04FF807F028
:102230003DF80028F9D100F099FC10B14A4808F0A7
:1022400069F94FF07F0800238DF804808DF806307F
:10225000032648F00107384607F008F80DF105009D
:10226000022107F00DF88DF804703A4601AB00200A
:102270005040082410F0800F4FEA400018BF80F053
:102280000700013CC0B2F5D19D4228D013F8012FC0
:10229000EEE707F01BF808F8010B074600F066FCB4
:1022A00070B9013407F002F80028BBD1042CBED06D
:1022B00000F05CFC78B9013EC3D09DF8048053E780
:1022C000F9B200231022284808F034F901212748E8
:1022D00007F08AFEE5E7244808F01CF9EBE706F072
:1022E000C5FF00F043FC002851D102208DF8048086
:1022F00006F0B2FA00F03AFC002840F056810DF1E9
:102300000808002406F0D2FF18B3042C14D101E011
:1023100006F0DCFF06F0CAFF0028F9D100F026FC29
:1023200010B1114808F0F6F842F2A013002209F8A3
:10233000032005B0BDE8F08306F0C8FF08F8010BE4
:10234000074600F013FC98B9013406F0AFFF0028EF
:10235000DBD1042CDED000F009FCA0B9013EE3D0B3
:102360009DF8048075E700BFD487FF1FB0190100F6
:10237000F9B200231022924808F0DCF801219148BC
:1023800007F032FEE0E78E4808F0C4F8E6E70921DE
:102390008D4807F029FE234610223946884808F068
:1023A000C9F80121874807F01FFE234610229DF837
:1023B0000510834808F0BEF80121824807F014FE9A
:1023C000102223469DF806107D4808F0B3F801213D
:1023D0007C4807F009FE21460DF1070001AA12F81A
:1023E000014B6140C9B2082311F0800F4FEA41014F
:1023F00018BF81F00701013BC9B2F5D19042EED17F
:1024000010226F4808F096F86D4808F083F86CE7E2
:1024100009216D4807F0E8FD234610223946684837
:1024200008F088F80121674807F0DEFD23461022F6
:102430009DF80510624808F07DF80121614807F019
:10244000D3FD102223469DF806105D4808F072F86F
:1024500001215C4807F0C8FD21460DF1070001AAE3
:1024600012F8014B6140C9B2082311F0800F4FEA06
:10247000410118BF81F00701013BC9B2F5D190427B
:10248000EED110224E4808F055F84D4808F042F8B9
:10249000B7E609214C4807F0A7FD2346102239462C
:1024A000474808F047F80121464807F09DFD2346BC
:1024B00010229DF80510424808F03CF801214148DF
:1024C00007F092FD102223469DF806103C4808F0C4
:1024D00031F801213B4807F087FD21460DF1070047
:1024E00001AA12F8014B6140C9B2082311F0800F14
:1024F0004FEA410118BF81F00701013BC9B2F5D194
:102500009042EED110222E4808F014F82C4808F022
:1025100001F8FEE509212C4807F066FD234610224C
:102520003946274808F006F80121264807F05CFDE7
:10253000234610229DF80510214807F0FBFF0121DA
:10254000204807F051FD102223469DF806101C4834
:1025500007F0F0FF01211B4807F046FD21460DF171
:10256000070001AA12F8014B6140C9B2082311F01B
:10257000800F4FEA410118BF81F00701013BC9B24A
:10258000F5D19042EED110220D4807F0D3FF0C4850
:1025900007F0C0FF48E507210C4807F025FDC2E51C
:1025A00007210A4807F020FD48E50721074807F002
:1025B0001BFDA4E60721054807F016FD2BE600BF2A
:1025C000D487FF1FB019010098120100A412010066
:1025D00038B500F50655183500F1A80402E0883436
:1025E000AC420AD02046FEF717FF0028F7D020465D
:1025F0008834FEF74FF9AC42F4D138BD2DE9F04FE5
:102600000546002345F8A83B00F5065783B08246EF
:102610002C46183702E08834BC420AD02046FEF728
:10262000FBFE0028F7D020468834FEF733F9BC4281
:10263000F4D1C82006F010F92C46012604E001363A
:102640003F2E04F188046ED02046FEF7E5FE0028F8
:10265000F5D0764800F084FB3146754800F080FBE9
:102660002046FEF7EBF92046FEF7C6FE09F05CFEB9
:1026700002460B466F4800F073FB2046FEF734FE1F
:1026800080462046FEF74CFE8346404609F04CFE4D
:1026900080465846894609F047FE42464B46CDE9FA
:1026A0000001654800F05CFB00212046FEF7A6FE15
:1026B000012180462046FEF7A1FE8346404609F0F0
:1026C00033FE80465846894609F02EFE42464B4668
:1026D000CDE90001594800F043FB2046FEF78CFE8F
:1026E0000146DAF800000AF0C1F9CAF800002046F5
:1026F000FEF75AFEDAF818100AF05EFC00287BD1CB
:102700002046FEF75DFEDAF81C100AF073FC002884
:1027100095D02046FEF754FE01363F2ECAF81C0025
:1027200004F1880490D1DAF804000AF053FA014663
:10273000DAF800000AF056FBDAF81410CAF80000C4
:1027400004460AF057FC08B1CAF81440DAF8101031
:1027500020460AF031FC08B1CAF810400B2006F000
:1027600045F842F2A0131AF8033000284AD1002B92
:1027700058D042F2A01301220AF803200023CAF81D
:102780000C302C4602E08834BC4215D02046FEF7BF
:1027900043FE0028F7D02046FEF7C2FDDAF80C1001
:1027A0000AF028FC0028EED02046FEF7B9FD883458
:1027B000BC42CAF80C00E9D1214BCAF8083002E04B
:1027C0008835BD4215D02846FEF726FE0028F7D0F2
:1027D0002846FEF789FDDAF808100AF0EDFB00281C
:1027E000EED02846FEF780FD8835BD42CAF80800C5
:1027F000E9D103B0BDE8F08F2046FEF7D5FDCAF859
:1028000018007DE72BB942F2A01300220AF803203A
:10281000B4E70C4800F0BCFA42F2A01300220AF818
:102820000320ABE7084800F0C9FAA2E788150100C9
:10283000A8130100E4130100F8130100241401009F
:102840000000A04078140100401401008068704727
:10285000C06870470068704741607047F8B500F580
:1028600006550F461646183500F1A80402E08834D4
:10287000AC420FD02046FEF7CFFD0028F7D020460F
:102880003946FEF7CDFD204631468834FEF7CEFDB1
:10289000AC42EFD1F8BD00BF2DE9F04100F506557F
:1028A00080460027183500F1A804002602E088348D
:1028B000A54210D02046FEF7AFFD0028F7D02046F5
:1028C000FEF78AFD0F490AF095FB88B98834A542C6
:1028D00006F10106EED142F29C1358F80300801B6A
:1028E0000AF078F9014638460AF07CFABDE8F08132
:1028F0002046FEF771FD014638460AF0B7F8074654
:10290000D5E700BF00008CC2F8B500F506550746B4
:102910000026183500F1A80402E08834AC420FD03C
:102920002046FEF779FD0028F7D02046FEF70AFD85
:10293000014630460AF09AF88834AC420646EFD198
:1029400042F29C13F8580AF045F9014630460AF065
:1029500049FAF8BD2DE9F04F04468FB0744800F0F5
:10296000A7F9734800F0A4F9714800F0A1F942F208
:102970009C132046E2580D92FEF7A2FD0546206802
:10298000D4F804B009F0D0FCCDE90A012046FFF7E5
:10299000BBFF8246A06809F0C7FC8046E068894614
:1029A00009F0C2FC064620460F46FFF775FF09F006
:1029B000BBFCCDE908015046CDE90489CDE90667A5
:1029C00009F0B2FCDDE90A23CDE900230D9ACDE937
:1029D00002015B46114657482A4600F069F95448FF
:1029E00000F066F9A8344FF001084FF0000A07E044
:1029F00008F10108B8F13F0F04F1880400F08F805E
:102A00002046FEF709FD0028F2D02046FDF732FFF0
:102A10002046FDF733FF2046FDF734FF2046FDF743
:102A200035FF0821444807F0DFFA4146434807F0E4
:102A3000C1FDB8F1090F75DD0221414807F0D4FA54
:102A40002046FEF7D9FC09F06FFC022502460B4632
:102A500000953A4807F0B8FD01213A4807F0C4FA5A
:102A6000564600251FE00621374807F0BDFA3146DB
:102A7000324807F09FFD0221344807F0B5FA294695
:102A80002046FEF72BFC09F04FFC009702460B4650
:102A90002A4807F099FD013501212A4807F0A4FAD8
:102AA000062D0BD04E46092E4FF0020706F1010904
:102AB000D9DC0121264807F097FAD4E711212548EF
:102AC00007F092FA00212046FEF798FC09F02CFC52
:102AD000009702460B46194807F076FD12211E4862
:102AE00007F082FA01212046FEF788FC09F01CFC61
:102AF000009702460B46114807F066FD0121174872
:102B000007F072FA08F101080C4807F003FDB8F16C
:102B10003F0F0AF1060A04F188047FF471AF0FB089
:102B2000BDE8F08F01210A4807F05EFA84E700BF94
:102B30008815010020170100AC170100D487FF1F82
:102B400020240100B8170100BC170100A0190100E2
:102B5000B0190100C4170100D8170100EC170100DB
:102B6000014B1870704700BF2087FF1F024B187879
:102B7000B0FA80F0400970472087FF1F0278002AD2
:102B800000F0858070B5034682B00D4621E058788C
:102B90005C1C68B3252831D0732833D064281DD03D
:102BA00069281BD0662851D0782839D0582833D0CE
:102BB000622842D042283CD06C280FD063280DD028
:102BC00074284FD0542857D007F092FA6278631CCB
:102BD00072B1252ADBD018781C46F5E72B1D296831
:102BE0002C481D4607F0E6FC6278631C002AF0D1F1
:102BF000284802B0BDE8704007F08CBC104607F0D2
:102C000077FAE3E72E6830460BF05AF80146304673
:102C1000043507F0E9F9D9E702211F4807F0E4F984
:102C20002E1D29681B4800231022354607F082FC20
:102C3000CCE70221194807F0D7F92E1D296815485D
:102C400000230222354607F075FCBFE7073525F063
:102C500007050321D5E900230E480091083507F048
:102C6000B3FCB3E7296801290EBF0D480D480121C7
:102C7000043507F0B9F9A9E72B68012B07BF042138
:102C800009480A480521043507F0AEF99EE70148D6
:102C900007F040BCD487FF1FF0170100F4170100B4
:102CA000F8170100FC1701000018010008180100C6
:102CB0000FB400B583B004A951F8040B0191FFF7DC
:102CC0005DFF03B05DF804EB04B0704770B51B4BBB
:102CD0001B4C1B6882B00D460193019B2360194673
:102CE00004460023164617480A2207F023FC032156
:102CF000154807F079F9032C07D8DFE804F01A1516
:102D000010020521114807F06FF90221104807F061
:102D10006BF931462846FFF731FF02B070BD07213D
:102D20000C4807F061F9F0E704210B4807F05CF963
:102D3000EBE70521094807F057F9E6E724B8FF1F3C
:102D40004C92FF1FD487FF1F7C130100281801003D
:102D5000A019010020180100181801001018010026
:102D60000FB400B5094B187883B020B103B05DF8FB
:102D700004EB04B0704705AB1A4604990193FFF7C2
:102D8000A5FF03B05DF804EB04B070472087FF1F78
:102D90000FB4094B00B51B78012B83B004D903B0E5
:102DA0005DF804EB04B0704705AB1A460499019333
:102DB0000120FFF78BFFF2E72087FF1F0FB40B4BBB
:102DC00000B51B78032B83B004D903B05DF804EB86
:102DD00004B0704705AB1A46049901930320FFF72E
:102DE00075FF03B05DF804EB04B070472087FF1F48
:102DF00030B4074D074C084900232B70236003654E
:102E00004365836580F85C300B6030BC704700BF61
:102E10005892FF1F5492FF1F5092FF1FF8B537487A
:102E2000374C384D384EFFF743FF384B3849394857
:102E3000394A5C6014271F70384F394CD9601861CB
:102E4000002138485D615E62374DDF624FF07C568D
:102E50000C279A619C62354A354C19635863354991
:102E60009D6340F61C400A255E641F6541F204061E
:102E7000314F9A64DC6402220124196298660021B1
:102E80003220DD661E6764254FF49676DF61DF63CE
:102E90005A275A705A7283F84010C3F89C0018667B
:102EA0005E66DE651C725C659D6541F2883E5F670B
:102EB000224E99674FF47A77DA67C3F88010C3F827
:102EC0008800C3F8A400C3F8A0101D48C3F8B020C0
:102ED000FF2140F2D662C3F8AC40C3F8B450C3F847
:102EE00084E0C3F88C70C3F89060C3F89400C3F812
:102EF000A810A3F89820A3F89A20F8BD3018010074
:102F000020A1070033338340CDCCCC3D3C93FF1F41
:102F10006666864000004040CDCC4C40000020C199
:102F200000008242000020420000A0409A997940AF
:102F30000AD7233D33337340CDCC4C3E000068426A
:102F400000C02044F0B54FF47A6085B005F084FCF1
:102F500000210F2005F058FC00210E2005F054FC44
:102F60000021112005F050FC0021102005F04CFC40
:102F70000021122005F048FC0021132005F044FC3C
:102F800001210B2005F040FC01210C2005F03CFC48
:102F90000121142005F038FC0121152005F034FC36
:102FA0000121162005F030FC0121172005F02CFC32
:102FB0000121052005F028FC854D864C01210620C5
:102FC00005F022FC01210D2005F01EFC288809F0E7
:102FD000FDFD0146162005F081FB288809F0F6FD6D
:102FE0000146172005F07AFB288809F0EFFD01461D
:102FF000052005F073FB288809F0E8FD002501464F
:10300000062005F06BFB2B46734A74497448009503
:1030100004F02CFC20684FF0FF32102103F0FEFE7C
:1030200020684FF0FF32102103F0D0FE20684FF0EF
:10303000FF32042103F0DEFE20684FF0FF32012151
:1030400003F0E2FE2A460F21206803F0F1FE0C2176
:10305000644806F0C9FF644807F05CFA1021634831
:1030600006F0C2FF604807F055FA44F6206005F00C
:10307000B1FC5D4807F04EFA17215D4806F0B4FF39
:10308000594807F047FA5B4B1B789A0600F1D48049
:10309000584B1B781B0700F1DB80564B1B785F07F2
:1030A00000F1E280534B1B789E0700F1E980524B00
:1030B0001B781D0600F1F0804F4B1B785C0600F179
:1030C000F7804D4B1B78980600F1FE804A4B1B7829
:1030D000590700F10581484B1B781A0700F10C8154
:1030E000454B1B789B0700F113813F4807F012FA0C
:1030F00072B6424A4CF220534DF628112024138018
:1031000023461180013BFDD13D4D3E483E49002301
:103110004FF480562E8003800B8032F80E3C9BB219
:1031200043F0D30322F80E3C62B69D2006F04EF821
:1031300021463648364D06F057FF2B4807F0EAF98E
:1031400005F1B8062F462C46601B05F063F804F81D
:10315000010BB442F8D13B78142B01D0FFF75EFE8F
:103160002C482D4CFEF738FE0420FFF7F9FC2B4BC2
:10317000284800221A60FEF76BFD01210D2005F0A2
:103180002FFB796D2348FFF767FB7A6C97F84010A7
:103190002048FFF763FB224B22491B68224A1D4847
:1031A000126881FB0351DB17A3EB211313FB02F31E
:1031B0002380FEF701FF1D4B1D491A6803920398F7
:1031C0001B680293029A1B4B08601A6005B0F0BDA1
:1031D0002887FF1F9C94FF1F18B8FF1F20A107001E
:1031E0007CB6FF1F50180100D487FF1F6018010034
:1031F0007418010001F0074000F007400E20054060
:1032000004200540062005401620054078190100DD
:103210003C93FF1FD494FF1FA894FF1F6C92FF1FC5
:103220006087FF1F1F85EB515C87FF1F24B8FF1FBE
:10323000D094FF1FFC93FF1F2121394806F0D4FED4
:10324000384807F067F9384B1B781B077FF525AF27
:103250000C21364806F0C8FE324807F05BF9324BC5
:103260001B785F077FF51EAF0E21314806F0BCFECC
:103270002C4807F04FF92C4B1B789E077FF517AFB2
:1032800017212C4806F0B0FE264807F043F92A4BD8
:103290001B781D067FF510AF0E21284806F0A4FE0E
:1032A000204807F037F9244B1B785C067FF509AFFF
:1032B0001221234806F098FE1A4807F02BF91E4BFE
:1032C0001B7898067FF502AF13211E4806F08CFE8E
:1032D000144807F01FF9184B1B7859077FF5FBAE10
:1032E0001C21194806F080FE0E4807F013F9124B16
:1032F0001B781A077FF5F4AE1921144806F074FE06
:10330000084807F007F90C4B1B789B077FF5EDAEDB
:1033100018210F4806F068FE024807F0FBF8E4E6C3
:103320008C180100D487FF1F01F00740B01801007E
:10333000C0180100D018010000F00740E818010093
:10334000F81801000C1901002019010040190100B2
:103350005C190100F8B5464C464D4748E668002325
:103360002B70FFF775FA0146304609F025FE08B1CB
:1033700004232B704048FFF769FA216909F01CFE0D
:1033800018B12B7843F010032B703B48FFF784FAF9
:10339000A16A09F02FFE18B12B7843F040032B707F
:1033A000002335486B70FFF777FAE16A314D09F079
:1033B00003FE08B101236B70304D2F4800232B70A2
:1033C000FFF746FA616A0646E06809F04DFB0146E0
:1033D000304609F00FFE08B104232B702648FFF792
:1033E00035FA616A0646206909F040FB014630461D
:1033F00009F0E2FD18B12B7843F010032B701E4842
:10340000FFF74AFAA16B0646A06A09F02DFB0146B8
:10341000304609F0EFFD18B12B7843F040032B70D4
:10342000002315486B70FFF737FAA16B134F064660
:10343000E06A09F01BFB0146304609F0BDFD08B10A
:1034400001237B7000230C48EB70FFF701FA05465F
:1034500009480A4EFFF7FAF90146284609F004FB2D
:10346000E16B09F0C7FD08B10123F370F8BD00BF9F
:103470003C93FF1F3893FF1FD494FF1F9094FF1FAE
:10348000514B1B68002B74D0F0B5504D2B680533A1
:10349000B3F57A7F83B040F38E80002300272B6042
:1034A0004B4CD4F8A40009F095FB0646D4F8A800CC
:1034B00009F090FB314609F0D7FA394609F0DEFBF6
:1034C000444909F08FFC314609F0D0FA09F0B2FD09
:1034D0000146062005F004F802213F4806F084FD6D
:1034E0003E4807F017F806213D4806F07DFD2868A4
:1034F00009F070FB3B4909F0C1FB08F015FF0226FB
:1035000002460B460096354807F05EF80D21364816
:1035100006F06AFDD4F8A40009F05CFB07462868B1
:1035200009F058FB2F4909F0A9FB0546D4F8A8007B
:1035300009F050FB394609F097FA0146284609F090
:103540009DFB244909F04EFC394609F08FFA08F03A
:10355000EBFE009602460B46204807F035F8314650
:103560001D4806F041FD1D4803B0BDE8F04006F0DF
:10357000D1BF174B1D4AD3F8A410D3F8A830126856
:103580005B1A632B0BDD1A4803FB02F380FB03027B
:10359000DB17C3EB62131944062004F0A1BF1548E2
:1035A00003FB022380FB0302DB17C3EB221211444F
:1035B000062004F095BF18462B6009F00BFB094963
:1035C00009F05CFB07466BE78094FF1F7092FF1FBA
:1035D0003C93FF1F0000C84220240100D487FF1F36
:1035E0009C190100CDCCCC3DA41901003487FF1FEC
:1035F0001F85EB51CBF08D2838B55C485C4C06F04C
:1036000089FF5A4806F086FF584806F083FF0D21CF
:10361000584806F0E9FCD4F8A030012B0ED0564CE7
:103620005248217800230A2206F084FF2378052BD4
:1036300039D8DFE803F05A5F64696E5509214F48B5
:1036400006F0D2FC4E48FFF701F9216909F0B4FCFD
:1036500018B10F214B4806F0C7FC4948FFF7F8F8AE
:10366000E16809F0C7FC18B10E21474806F0BCFC20
:10367000464B43481B68012B63D0FFF7E7F82169ED
:103680003B4D09F0B7FC70B13D48FFF7E1F8E96840
:1036900009F092FC38B1384B1B78052B61D008211A
:1036A0003B4806F0A1FC02213A4806F09DFC12209E
:1036B00005F09CF8012836D0112005F097F8012874
:1036C0003AD0354B1B68012B28D00221314806F037
:1036D0008BFC324B25481968BDE8384006F06ABFBC
:1036E00007212F4806F080FCDDE706212D4806F073
:1036F0007BFCD8E707212C4806F076FCD3E70721AE
:103700002A4806F071FCCEE70821294806F06CFC37
:10371000C9E70B21274806F067FCC4E711212648BA
:1037200006F062FCD1E70E21244806F05DFC112072
:1037300005F05CF80128C4D10A21214806F054FCA8
:10374000BFE7FFF783F8216A09F054FC0028A6D0F0
:1037500016211C4806F048FC0A211B4806F044FCD0
:10376000A1E70A21184806F03FFC9CE7D487FF1F19
:103770003C93FF1FB41901008C94FF1FC419010072
:10378000D494FF1FD0190100E01901007C92FF1FA3
:10379000141A010020240100A494FF1F8494FF1F29
:1037A000501A0100201A0100281A01003C1A0100D9
:1037B000441A0100301A0100741A0100581A01005D
:1037C000681A0100F0190100081A01002DE9F04FF4
:1037D000934C944FE36F012B8DB000F04981032B84
:1037E00050D0914E914DA36F9148012B09BF29688C
:1037F000296801F10041296004F0FEFB3368002BC9
:1038000040F0CE808A4804F0CDFBE36F3860012B96
:10381000064600F0D280874909F0ECFB78B986496A
:10382000304609F0C9FB50B9844A854B12680B92A7
:103830000B9A1A6000232B600DB0BDE8F08FDFF803
:10384000FC817F4CD8F800300A930A9823687D4F9A
:10385000C01A09F0BBF9314609F010FA7A4909F0AB
:10386000C1FA794909F0BEFA396809F0FFF8D8F8C9
:1038700000300993099B2360002338602B600DB052
:10388000BDE8F08FDFF8C881704DD8F80000664EB3
:10389000012300220F212B6003F0CAFA2B68012BB1
:1038A000336800F00381002B40F097810021D8F8A5
:1038B0000000DFF8B891664D03F00CFB33681FFA87
:1038C00080FBC9F800B0002B40F06C810021D8F8D3
:1038D0000000564DDFF878A103F082FAB4F89A3070
:1038E00040F6E44101FB0BF1B1FBF0F0C01A00B26D
:1038F00009F070F957498346D4F8900009F0BEF9F1
:103900000146584609F06EFAD9F800302860632B5A
:10391000DFF858B100F33A8100232B603368002BA5
:103920003FF461AF02214C4806F05EFBD9F800205D
:10393000D8F8000040F6E443002103FB02F803F04E
:103940004FFAB8FBF0F009F041F98046B4F89A005C
:1039500009F040F90146404609F086F808F0E4FC19
:103960004FF0020802460B46CDF800803B4806F0B7
:103970002BFE4146384806F037FB286808F0D4FC97
:10398000CDF8008002460B46344806F01DFE414645
:10399000334806F029FB41462F4806F025FB22E775
:1039A000234804F0FFFA08F0BFFC022602460B464B
:1039B00000962A4806F008FE24E7244B1B68012BDA
:1039C00000F01781022B7FF435AF264909F012FB76
:1039D00030B92549304609F0EFFA002800F0388167
:1039E000DFF85880164CD8F8003007930798236802
:1039F000144FC01A09F0EAF8314609F03FF91249AC
:103A000009F0F0F9104909F0EDF9396809F02EF8DC
:103A1000D8F800300693069B386023600AE700BFA1
:103A20003C93FF1F8492FF1FC894FF1F7892FF1FD3
:103A30001493FF1F0000FA430000FAC324B8FF1FCD
:103A40005C92FF1F8C92FF1F00007A445087FF1F7B
:103A50009C94FF1F17B7D13820240100D487FF1F83
:103A6000C41A010000C82F4800A08CC63493FF1F61
:103A70003D689749284609F09FFA30B12846954994
:103A800009F0B8FA00287FF4FDAEDFF85482924DB9
:103A9000D8F80000914E022300220E212B6003F083
:103AA000C7F92B68012B33687FF4FDAE002B40F083
:103AB000D6800021D8F80000DFF86892884D03F026
:103AC00009FA33681FFA80FBC9F800B0002B40F0F8
:103AD000E3800021D8F80000824DDFF804A203F053
:103AE0007FF9B4F8983040F6E44101FB0BF1B1FBEB
:103AF000F0F0C01A00B209F06DF87B498346D4F8A3
:103B0000940009F0BBF80146584609F06BF9D9F862
:103B100000302860632BDFF80CB200F3B180002383
:103B20002B603368002B3FF45EAE02216F4806F035
:103B30005BFAD9F80020D8F8000040F6E4430021F1
:103B400003FB02F803F04CF9B4F89810B8FBF0F05E
:103B500000B2411A664806F02DFD0221634806F0C6
:103B600043FA286808F0E0FB4FF0020802460B46D3
:103B7000CDF800805E4806F027FD03215D4806F081
:103B800033FA4146594806F02FFA2CE6DAF80000DD
:103B9000002103F025F9DBF8003064389842FFF487
:103BA000BBAEBBE60021286803F01AF940F6E441F9
:103BB00000230A2201FB0BF1B1FBF0F14C4806F0A7
:103BC000B9FC0221494806F00FFAB4F89A104848A7
:103BD00006F0F0FCD9F800B078E6454806F09AFC0B
:103BE0000C21454806F000FA0C21444806F0FCF987
:103BF0005CE6434909F0FEF958B94249304609F0FC
:103C0000DBF930B9404A414B12680592059A1A60B7
:103C100010E6DFF8F4803D4CD8F8003004930498A7
:103C200023683B4FC01A08F0D1FF314609F026F84F
:103C3000384909F0D7F8374909F0D4F8396808F05D
:103C400015FFD8F800300393039B38602360F1E53B
:103C50002D4A2E4B12680892089A1A60EAE5244809
:103C600006F058FCE36F012B4FF00B010CBF2A4804
:103C70002A4806F0B9F90C21204806F0B5F918E7F2
:103C8000DAF80000002103F0ABF8DBF8003064380C
:103C90009842FFF444AF44E70021286803F0A0F8FD
:103CA00040F6E44100230A2201FB0BF1B1FBF0F1E5
:103CB0000F4806F03FFC0121194806F095F9B4F8C9
:103CC00098100B4806F076FCD9F800B001E700BF69
:103CD00000709446007094C65087FF1FC894FF1F61
:103CE0009C94FF1F7892FF1F17B7D1382024010042
:103CF000D487FF1FB01A0100B41A0100A01A0100F6
:103D00000000FA430000FAC324B8FF1F5C92FF1FB3
:103D10008C92FF1F00007A44881A0100941A010057
:103D2000B01901003493FF1F2DE9F043AB4D2B6810
:103D300083B0002B00F08780A94CAA4EE36FAA4FF6
:103D4000A74D012B00F0BF80D4F88030DFF89082BF
:103D5000012B00F0ED80D8F85850D7F80090D8F833
:103D6000548005FB08F54FF47A7000FB05F008F06D
:103D700031FF9E49DFF86C820546484608F07EFF19
:103D8000294609F02FF89A4908F078FF09F052F90E
:103D9000632830604BDD2846944909F023F86423FA
:103DA000C8F80030934B38601B68002B48D0E36F95
:103DB0008B4D012B00F0ED80032B00F0FD80022BDA
:103DC00000F0008102218C4806F00EF98B4B186838
:103DD00008F0AAFA022402460B460094884806F02E
:103DE000F3FB2146874806F0FFF82146824806F09B
:103DF000FBF83168824806F0DDFB0621824806F0B8
:103E0000F3F83868794908F039FF08F08DFA009422
:103E100002460B467A4806F0D7FB03217B4806F0A2
:103E2000E3F8774803B0BDE8F04306F073BB002821
:103E3000BCBF0023C8F800306E4B1B68002BB6D106
:103E400003B0BDE8F0837248654CFEF75DFD714933
:103E5000A76EE66E08F012FF09F012F9226F636F89
:103E6000D21B9B1B80B29342A0EB0700C0F29D8047
:103E700003FB00F393FBF2F333445A4E5E48336086
:103E8000022106F0B1F831685D48574F06F092FB09
:103E90000221594806F0A8F83268A06D636D02FB54
:103EA00000F003FB00F000EB8000400008F092FE01
:103EB0004E4908F097FF01232B60E36F3860012B18
:103EC000474D7FF441AF5248FEF71EFD5149D5F8EA
:103ED0006890D5F86C8008F0D1FE09F0D1F82A6F0F
:103EE0006B6FC9EB0202C8EB030380B29A42C9EBC5
:103EF00000006CDD03FB0000531C90FBF3F303EBAD
:103F00000800A26D636D306002FB00F003FB00F05F
:103F100000EB8000400008F05DFE3449DFF8C0800F
:103F200008F060FFD4F880303860012B7FF413AFC5
:103F30003748FEF7E9FC3749D8F86890D8F86C5054
:103F400008F09CFE09F09CF8D8F87020D8F874307E
:103F5000D4F85480C9EB02025B1B80B29A42C9EBD1
:103F60000000C6BF03FB00000132584390FBF2F093
:103F70002844A56D00FB05F008FB00F000EB800075
:103F8000400008F027FE194908F02CFF81463860F0
:103F9000E7E6214B1B68012B4FF00A010CBF1F48BD
:103FA0001F4806F021F8EB6F06E703FB0000531CE7
:103FB00090FBF3F3334460E710211A4806F014F83D
:103FC000E36FFCE60721184806F00EF8FAE603FB5B
:103FD00000F393FBF2F303EB080092E77492FF1FE8
:103FE0003C93FF1F3487FF1F8C92FF1FE4388E3EE7
:103FF0000000C8423C87FF1F202401008492FF1F5D
:10400000D487FF1FC41A0100FC1A0100041B010021
:10401000D494FF1F00007A445087FF1FC81A010084
:10402000D41A0100E01A0100F41A0100F0B51120C1
:1040300083B004F0DBFB012813D000210B2004F037
:10404000CFFB00210C2004F0CBFB0021152004F055
:10405000C7FB1D491D4B0120002208701A6003B0E8
:10406000F0BD01460446152004F0BAFB1849194A70
:10407000194B09680191D2F884001B680199134D0E
:10408000034402268B422E6017D8D2F88C0008F029
:10409000A1FD124B196808F08FFF074668B9214649
:1040A0000B2004F09DFB084A032339460C201670B0
:1040B0002B6004F095FB03B0F0BD01210C2004F04F
:1040C0008FFB03B0F0BD00BF8C94FF1FC494FF1F93
:1040D00024B8FF1F3C93FF1FD094FF1F8492FF1F43
:1040E000F0B5684E684D34682B689C4287B039D073
:1040F00014F0010155D014F0020149D014F004016C
:104100003DD0E3070ED52B68DF070BD45F4F3A682D
:10411000002A00F082805E4B1B680193019B934252
:104120006DD83468A0070DD52B6899070AD4594F6C
:104130003A68002A4CD0564B1B680393039B93426A
:1041400038D8346862070DD52B685B070BD4524F03
:104150003A68002A7ED04E4B1B680593059B93421C
:1041600068D834680CB107B0F0BD2146162004F0C1
:10417000B7F92146172004F0B3F907B0F0BD0520C8
:1041800004F0AEF92B68346803F0FB032B60B8E74A
:10419000172004F0A5F92B68346803F0FD032B60A9
:1041A000ACE7162004F09CF92B68346803F0FE039A
:1041B0002B60A0E7394B1720D3F8881004F090F952
:1041C0002B68346843F0020300222B603A60B9E7A1
:1041D000334806F09FF90C21324805F005FF3048BE
:1041E00006F098F9FF21172004F07AF9284B2E4A9F
:1041F00019680291029912680A443A609CE7274BB9
:104200001620D3F8881004F06BF92B68346843F05B
:10421000010300222B603A6084E7FF21162004F09E
:104220005FF91B4B204A19680091009912680A44F3
:104230003A6071E7194B0520D3F8881004F050F963
:104240002B68346843F0040300222B603A60002C92
:1042500089D18AE7124806F05DF90C21134805F070
:10426000C3FE0F4806F056F9FF21052004F038F987
:10427000074B0D4A19680491049912680A443A6080
:104280006AE700BFC494FF1FF493FF1F6494FF1FED
:1042900024B8FF1F6894FF1F6C94FF1F3C93FF1FFF
:1042A000D487FF1F081B01007087FF1F181B010028
:1042B0002DE9F047544EDFF87481DFF874913068CF
:1042C000524D00220F2102F0B3FD002301222221D2
:1042D0004F48C8F80030C9F8002005F085FED8F82E
:1042E0000030132B22DC40F6E44700213068B5F89B
:1042F00098A002F0EFFD00210446306802F070FD46
:10430000A4B2012107FB04F4B4FBF0F44148544487
:10431000A5F8984005F068FE642004F09DFAD8F8EE
:1043200000300133132BC8F80030DEDDB5F89830CB
:10433000394A3A48A2FB03129B1A02EB5303C3F318
:104340000F131946A5F8983006F034F91D213448AA
:1043500005F04AFE0221334805F046FE2F4806F0DC
:10436000D9F800231A460E213068C8F8003002F050
:104370005FFD022322212648C9F8003005F034FEF3
:10438000D8F80030132B22DC40F6E44700213068D7
:10439000B5F89A9002F09EFD00210446306802F0C4
:1043A0001FFDA4B2012107FB04F4B4FBF0F419488B
:1043B0004C44A5F89A4005F017FE642004F04CFA2E
:1043C000D8F800300133132BC8F80030DEDDB5F823
:1043D0009A30114A1148A2FB03129B1A02EB5303B5
:1043E000C3F30F131946A5F89A3006F0E3F81D2120
:1043F0000D4805F0F9FD02210A4805F0F5FD0748D2
:10440000BDE8F04706F086B89C94FF1F3C93FF1F61
:10441000281B01006C1B010087611886D487FF1FD1
:104420004C1B010020240100701B01008894FF1F19
:104430005087FF1FF8B5874B874C884F1B68386D36
:1044400040F2513108222160E271002B00F0FD8022
:1044500008F0C0FB396A054608F010FC804908F0F6
:104460000DFC08F00DFE80B2031263727D4A7E4B94
:1044700012681B68B9692072A37228461B121512B4
:10448000E3722273657308F0F9FB754908F0F6FBD7
:1044900008F0F6FD83B21A126F497448A373E273F1
:1044A00003F0DCFB724B734A1B6812886A49A272E4
:1044B000DDB2257205EB850603EB8305760045F337
:1044C000D71540F2553E12121B122673657308264B
:1044D00000256648C4F800E0E2726372E671A573D5
:1044E000E57303F0BBFB40F2563363482360E6718B
:1044F000FEF7B0F9614908F0C1FB08F0C1FD207278
:104500005D48FEF7A7F95D4908F0B8FB08F0B8FD73
:104510005B4A5A49C0F307231068637208F062FCD3
:1045200008F088FD40FA06F203465348E272A3728F
:10453000FEF7B2F94A4908F0A1FB08F0A1FD20738B
:104540004D48FEF7A9F9464908F098FB08F098FD98
:104550004149A573C0F3072344486373E57303F02F
:104560007DFB022004F078F9464A474B11785078D9
:10457000217291786072D2789878A172597893F804
:1045800000E0E2726173DA78A07340F25A33324984
:104590003648E67184F80CE0E273236003F05EFBBA
:1045A0003A4B2D491A785878227260729A78D878E6
:1045B000A272E0721A79987993F805E02273A073D9
:1045C000DA792A4884F80DE040F25E33E273236022
:1045D000E67103F043FB022004F03EF92C4B1E4928
:1045E0001A785878227260729A78D878A272E0723B
:1045F0001A79987993F805E02273A073DA791B4849
:1046000084F80DE04FF45C73E2732360E67103F00D
:1046100025FB022004F020F9BA6DE67142FA06FE8D
:10462000012340F25F3702262273992225726572B8
:1046300084F80DE02760A672E372E373A273064963
:104640000A48BDE8F84003F009BB08F0C3FA7969ED
:10465000054601E77C92FF1FB494FF1F3C93FF1FA8
:10466000000020419894FF1F6092FF1F7CB6FF1F3F
:104670003487FF1F3887FF1FD494FF1F0000C842F4
:104680008492FF1F3893FF1F9094FF1F2C87FF1FFA
:104690005487FF1FF0B5B24CB24D83B005F03EFC1D
:1046A00023682860042B00F0E282022B7ED0082BC6
:1046B00000F00A81072B40F08381322800F0FF834D
:1046C00040F37481332800F00F84712803D1002354
:1046D000732023602860002B08BF73280CBF0120C3
:1046E0000020002860D0A04805F014FF04219F4856
:1046F00005F07AFC9C4805F00DFF10219C4805F060
:1047000073FC994805F006FF13219A4805F06CFCEC
:10471000994B9548196805F04DFF934805F0FAFE4E
:104720001421964805F060FC8F4805F0F3FE1E2129
:10473000934805F059FC8C4805F0ECFE1521914892
:1047400005F052FC884805F0E5FE1E218E4805F074
:104750004BFC854805F0DEFE20218C4805F044FC2A
:10476000814805F0D7FE1921894805F03DFC7E48B7
:1047700005F0D0FE1221874805F036FC7A4805F096
:10478000C9FE0F21844805F02FFC774805F0C2FED2
:104790000D21824805F028FC734805F0BBFE804AD5
:1047A000002101231160236003B0F0BDA0F13102AC
:1047B000422A90D801A151F822F000BF4F500000CA
:1047C000CD500000E7500000655000008B50000005
:1047D000D7460000D7460000D7460000D746000065
:1047E000D7460000D7460000D7460000D746000055
:1047F000D7460000D7460000D7460000D746000045
:10480000D7460000D7460000D7460000D746000034
:10481000D7460000D7460000D7460000D746000024
:10482000D7460000D7460000D7460000D746000014
:10483000D7460000D7460000D7460000D746000004
:10484000D7460000D7460000D7460000D7460000F4
:10485000D7460000D7460000D7460000D7460000E4
:10486000D7460000D7460000D7460000D7460000D4
:10487000D7460000D7460000D7460000D7460000C4
:10488000D7460000A9500000D7460000D7460000D8
:10489000D7460000D7460000D7460000D7460000A4
:1048A000D7460000D7460000D7460000D746000094
:1048B000D7460000D7460000D7460000CF4600008C
:1048C000D7460000B5500000322800F0E38271287E
:1048D0003FF4FDAE31287FF4FEAE05F05BFB00280F
:1048E00040F3858320482F4E05F0A8FFC0B286F81C
:1048F0004000022894BF01460021726C2A4888BFFC
:1049000086F84010FDF7AAFF012369202360286084
:10491000A0F152031F2B01F2DB81DFE813F0C50980
:10492000D909D909D909D909D909D909D909D90977
:10493000D909D909D909D909D909D9096609AF0A03
:10494000FE0881089B07D909D909D9095307D90954
:10495000AC0AD909D909D909D909D909C70900BFA8
:104960009092FF1F8092FF1FD487FF1F9C2201009F
:10497000A4220100B82201002487FF1FCC220100DD
:10498000E4220100042301001C2301003C23010058
:10499000602301007C23010090230100A02301007B
:1049A0003C87FF1F3C93FF1FD494FF1F31287FF4E7
:1049B00092AE05F0EFFA002800F3A283236828687E
:1049C000062B40F08D80A0F13102402A3FF683AEE5
:1049D00001A151F822F000BF934F0000BD4F00002D
:1049E0000D4F0000314F0000554F0000714F000087
:1049F000D7460000D7460000D7460000D746000043
:104A0000D7460000D7460000D7460000D746000032
:104A1000D7460000D7460000D7460000D746000022
:104A2000D7460000D7460000D7460000D746000012
:104A3000D7460000D7460000D7460000D746000002
:104A4000D7460000D7460000D7460000D7460000F2
:104A5000D7460000D7460000D7460000D7460000E2
:104A6000D7460000D7460000D7460000D7460000D2
:104A7000D7460000D7460000D7460000D7460000C2
:104A8000D7460000D7460000D7460000D7460000B2
:104A9000D7460000D7460000D7460000D7460000A2
:104AA000D7460000D7460000D7460000D746000092
:104AB000D7460000D7460000D7460000D746000082
:104AC000D7460000D7460000D7460000D746000072
:104AD000D7460000D7460000CF460000236828686C
:104AE000052B1AD1332801F0578140F34B8135282B
:104AF00001F06381BFF6E9AD05F04CFA00280ADD4C
:104B0000D948DA4E05F09AFE01226B23C6F8A400BC
:104B100022602B604BE123682868032B40F0A380C0
:104B2000A0F13002422A3FF6D6AD01A151F822F0A1
:104B30003D4C000083560000AB5600006D55000050
:104B400011560000335600005B560000D35600009B
:104B5000F156000015570000D7460000D746000068
:104B6000D7460000D7460000D7460000D7460000D1
:104B7000D7460000D7460000D7460000D7460000C1
:104B8000D7460000D7460000D7460000D7460000B1
:104B9000D7460000D7460000D7460000D7460000A1
:104BA000D7460000D7460000D7460000D746000091
:104BB000D7460000D7460000D7460000D746000081
:104BC000D7460000D7460000D7460000D746000071
:104BD000D7460000D7460000D7460000D746000061
:104BE000D7460000D7460000D7460000D746000051
:104BF000D74600003D570000755100004F5500009A
:104C00005B570000795700008F550000515100009C
:104C1000D7460000D7460000D7460000D746000020
:104C2000D7460000D7460000D7460000D746000010
:104C3000D7460000E5550000F155000005F0AAF93F
:104C4000002841F34E808848884E05F0F7FD012783
:104C50000346014662228648736527602A60FDF795
:104C6000FBFD23682868012B7FF435AD50E6A0F1E9
:104C70003102402A3FF62FAD01A151F822F000BFCA
:104C8000155000000D500000115000001950000098
:104C90001D50000037500000F74F0000D7460000BD
:104CA000D7460000D7460000D7460000D746000090
:104CB000D7460000D7460000D7460000D746000080
:104CC000D7460000D7460000D7460000D746000070
:104CD000D7460000D7460000D7460000D746000060
:104CE000D7460000D7460000D7460000D746000050
:104CF000D7460000D7460000D7460000D746000040
:104D0000D7460000D7460000D7460000D74600002F
:104D1000D7460000D7460000D7460000D74600001F
:104D2000D7460000D7460000D7460000D74600000F
:104D3000D7460000D7460000D7460000D7460000FF
:104D4000D7460000D7460000D7460000D7460000EF
:104D5000D7460000D7460000D7460000D7460000DF
:104D6000D7460000D7460000D7460000D7460000CF
:104D7000D7460000D7460000D7460000D7460000BF
:104D8000CF460000312800F0B38732287FF4A3AC6F
:104D900005F000F900287FF7BEAE3348334E05F02A
:104DA0004DFD01226B23C6F88C0022602B602E483B
:104DB00005F0B0FB2C4805F0ADFB2B4805F0AAFB35
:104DC000294805F0A7FB284805F0A4FB2121294824
:104DD00005F00AF9244805F09DFB1521264805F049
:104DE00003F9D6F88410204805F0E4FB022123489B
:104DF00005F0FAF81C4805F08DFB1E21204805F04F
:104E0000F3F8D6F88C10184805F0D4FB03211D48A0
:104E100005F0EAF8144805F07DFB1E211A4805F05C
:104E2000E3F8D6F88810104805F0C4FB0E4805F0EA
:104E300071FB1D21154805F0D7F8D6F8A4100A48D3
:104E400005F0B8FB084805F065FB1E21104805F089
:104E5000CBF8D6F8A810044805F0ACFB024805F0E2
:104E600059FB052323609FE4D487FF1F3C93FF1F5A
:104E7000D494FF1F941D0100B81D01000C1D0100FA
:104E8000D01D0100B01A0100F01D0100101E01002C
:104E9000301E010005F07EF8002840F3A480A148F0
:104EA000A14E05F0CBFC07F095FEA04907F0E6FE09
:104EB0000346024696F840109D48736422E505F0CB
:104EC00069F800287FF77AAD9648974E05F0B6FC52
:104ED00007F080FE954907F0D1FE61230122F063BF
:104EE00022602B60184613E505F054F800287FF780
:104EF00065AD8C488C4E05F0A1FC07F06BFE61237C
:104F00000122B06322602B60184601E505F042F8EB
:104F100000287FF7E3AD8348834E05F08FFC00EB5C
:104F20008000430001226520F36522602860EFE4E1
:104F300005F030F800287FF7D1AD7A487A4E05F0B9
:104F40007DFC00EB80004300012265203366226077
:104F50002860DDE4744AD2F8B0300133032BC8BFB7
:104F60000023C2F8B0306520012323602860CFE41D
:104F700005F010F800287FF7B1AD6A486A4E05F0D9
:104F80005DFC65230122C6F8B40022602B60184640
:104F9000BEE404F0FFFF00287FF7A0AD6148624E39
:104FA00005F04CFC07F016FE624907F01BFF652375
:104FB0000122706122602B601846A9E404F0EAFF28
:104FC00000287FF78BAD5748574E05F037FC07F0A8
:104FD00001FE584907F006FF65230122F0612260B7
:104FE0002B60184694E423682868FFF763BB4E4E95
:104FF00096F840007DE4504A1368B3FA83F35B09E6
:105000000121642013602160286081E44B4AF3E7AA
:105010004B4AF1E74B4AEFE74B4AEDE7424ED6F8F1
:10502000A030B3FA83F35B0901226420C6F8A030F4
:10503000226028606CE401233D482360FCF740FABD
:10504000424A2368106064202860FFF730BB364E68
:10505000B36FB3FA83F35B0901226320B367226065
:10506000286055E40123236004F094FF002807DD45
:105070002C482D4E05F0E2FB07F0ACFDC6F894007D
:10508000632028602368FFF715BB0123236004F029
:1050900081FF0028F4DD2348234E05F0CFFB07F005
:1050A00099FDC6F89000EBE7FFF702F9236828683E
:1050B000FFF7FDBA1C4AD36F0133032BC8BF00238F
:1050C000D367012363202360286021E4164ED6F8BD
:1050D0008030B3FA83F35B0901226320C6F8803085
:1050E0002260286014E40123236004F053FF0028A9
:1050F000E7DD0C480C4E05F0A1FBC6F8AC00E0E77C
:105100000848094E05F09AFB07F064FD074907F0CF
:10511000B5FD61230122706222602B601846FFF703
:10512000F7BB00BFD487FF1F3C93FF1F6F12833A6A
:10513000D494FF1F00007A448094FF1FC894FF1F7F
:10514000AC94FF1F6094FF1FB094FF1F8494FF1F57
:1051500004F020FF00280DDDC148C24E05F06EFBB3
:1051600007F038FDC04907F03DFE0122622330629E
:1051700022602B6004F00EFF002840F3B285B8488F
:10518000B84E05F05BFB01226223B06622602B6003
:10519000B34805F0BFF9B24805F0BCF9B04805F0D6
:1051A000B9F9AF4805F0B6F9AD4805F0B3F91521E6
:1051B000AE4804F019FFAA4805F0ACF91421AC4838
:1051C00004F012FFA64805F0A5F91B21A94804F038
:1051D0000BFFA34805F09EF91321A74804F004FF34
:1051E0009F4805F097F99E4805F094F99C4805F012
:1051F00091F92021A14804F0F7FEF0689A4907F0E0
:105200003DFD07F091F8002702460B4600979448B1
:1052100005F0DAF902219A4804F0E6FE02219948E5
:1052200004F0E2FE8E4805F075F92121964804F05D
:10523000DBFE30698C4907F021FD07F075F8009717
:1052400002460B46864805F0BFF902218C4804F05F
:10525000CBFE02218B4804F0C7FE814805F05AF9C5
:105260001F218A4804F0C0FEB06A07F05DF80225ED
:1052700002460B4600957A4805F0A6F901218448BC
:1052800004F0B2FE29467F4804F0AEFE744805F0F3
:1052900041F920217F4804F0A7FEF06A07F044F8A6
:1052A000009502460B466E4805F08EF901217848BC
:1052B00004F09AFE2946734804F096FE684805F00B
:1052C00029F92321744804F08FFEB06C664907F079
:1052D000D5FC07F029F8009702460B46604805F018
:1052E00073F92946664804F07FFE2946654804F0B4
:1052F0007BFE5B4805F00EF91F21684804F074FE40
:10530000F06C594907F0BAFC07F00EF80097024616
:105310000B46534805F058F92946594804F064FEF5
:105320002946584804F060FE4D4805F0F3F819216D
:105330005B4804F059FEB16D494805F03BF9294638
:10534000584804F051FE29464E4804F04DFE4448AA
:1053500005F0E0F81821544804F046FE706E07F09E
:1053600039FC524907F08AFC06F0DEFF0095024640
:105370000B463B4805F028F901214D4804F034FE66
:105380002946404804F030FE354805F0C3F82B218B
:10539000484804F029FEB069334907F06FFC06F075
:1053A000C3FF009702460B462D4805F00DF929462C
:1053B000334804F019FE2946324804F015FE284807
:1053C00005F0A8F81F213C4804F00EFE716D24483A
:1053D00005F0F0F829462B4804F006FE204805F0B9
:1053E00099F82021354804F0FFFD316D1C4805F087
:1053F000E1F82946234804F0F7FD194805F08AF83A
:1054000010212F4804F0F0FDB16E154805F0D2F8D8
:1054100029461B4804F0E8FD29461A4804F0E4FD3B
:105420000F4805F077F81321264804F0DDFDF16EF2
:105430000B4805F0BFF80121234804F0D5FD2946AB
:10544000104804F0D1FD064805F064F810211F480B
:1054500004F0CAFD316F024805F0ACF8294637E088
:10546000D487FF1F3C93FF1F00007A446420010093
:105470007C200100942001000C1C0100B0200100E0
:10548000081C010020240100D4200100F8200100A4
:10549000EC170100182101003C21010060210100EE
:1054A000802101009C210100A0210100CDCCCC3D38
:1054B00040200100BC210100E82101000822010078
:1054C0002C22010040220100542201005822010038
:1054D000B14804F089FD2946B04804F085FDB04884
:1054E00005F018F81421AF4804F07EFD716FAC4848
:1054F00005F060F80121AC4804F076FD2946A74884
:1055000004F072FDA64805F005F81621A74804F03E
:105510006BFD306AA64907F0B1FB06F005FF009766
:105520000B4602469E4805F04FF829469A4804F07B
:105530005BFD2946994804F057FD994804F0EAFFBD
:10554000974804F0E7FF03232360FFF72DB904F029
:1055500021FD002840F3C5839148964E05F06EF971
:1055600001226223F06622602B6011E604F012FD36
:10557000002840F3B6838A488E4E05F05FF907F0A5
:1055800029FB01226223B06222602B6000E6FDF756
:1055900045FC02218148874E04F026FD804804F036
:1055A000B9FF02217D4804F01FFD7D4804F0B2FFE1
:1055B00002217A4804F018FD794804F0ABFF172166
:1055C0007D4804F011FD764804F0A4FF02217348E1
:1055D00004F00AFD724804F09DFF0122622322605C
:1055E0002B60D5E50022732322602B60FFF77BB888
:1055F000724B6A486F4E002202211A6004F0F4FCDC
:10560000674804F087FF0B216D4804F0EDFCDDE7EF
:1056100004F0C0FC002840F364836148654E05F047
:105620000DF907F0D7FA01226223F06222602B60A5
:10563000AEE504F0AFFC002840F3538358485D4EBC
:1056400005F0FCF807F0C6FA594907F0CBFB012238
:105650006223B06422602B609AE504F09BFC002872
:1056600040F33F834E48534E05F0E8F807F0B2FA96
:105670004F4907F0B7FB01226223F06422602B60E0
:1056800086E504F087FC002840F32B834448494E0C
:1056900005F0D4F807F09EFA454907F0A3FB012274
:1056A0006223F06022602B6072E504F073FC002836
:1056B00040F317833A483F4E05F0C0F807F08AFAE6
:1056C0003B4907F08FFB01226223306122602B608F
:1056D0005EE504F05FFC002840F303833048354E5C
:1056E00005F0ACF801226223B06522602B604FE523
:1056F00004F050FC002840F3F48229482D4E05F0B8
:105700009DF800EB80004300012162227366216056
:105710002A603DE504F03EFC002840F3E282204888
:10572000244E05F08BF807F055FA214907F05AFB93
:1057300001226223B06122602B6029E504F02AFC7B
:10574000002840F3CE8216481A4E05F077F8012261
:105750006223306522602B601AE504F01BFC0028F0
:1057600040F3BF820E48134E05F068F80122622311
:10577000306722602B600BE504F00CFC002840F33E
:10578000B08207480B4E05F059F80122622370677A
:1057900022602B60FCE400BF081C010020240100F3
:1057A000D487FF1F6C2201005422010084220100D3
:1057B00000007A443C93FF1F9C1B01007492FF1F62
:1057C000B41B01008048814D04F0A4FE7E4804F023
:1057D000A1FE7D4804F09EFE7B4804F09BFE7A48C3
:1057E00004F098FE15217A4804F0FEFB764804F098
:1057F00091FE1821774804F0F7FB00230A2295F860
:105800004010714804F096FE6F4804F083FE282192
:10581000714804F0E9FB686C704907F02FFA06F054
:1058200083FD00250B4602460095674804F0CCFE38
:1058300002216B4804F0D8FB634804F06BFE13218F
:10584000684804F0D1FB604804F064FE082323603C
:10585000FEF7AABF5C485D4E04F05CFE5A4804F0B7
:1058600059FE594804F056FE574804F053FE564876
:1058700004F050FE11215C4804F0B6FB524804F0DD
:1058800049FE2821594804F0AFFB7069534907F0DD
:10589000F5F906F049FD002502460B4600954A48F9
:1058A00004F092FE02214E4804F09EFB464804F0AC
:1058B00031FE16214E4804F097FBF069474907F086
:1058C000DDF906F031FD009502460B463E4804F036
:1058D0007BFE0221424804F087FB3B4804F01AFE9D
:1058E0001D21444804F080FBF06D07F073F9424934
:1058F00007F0C4F906F018FD022502460B46009594
:10590000314804F061FE01213C4804F06DFB2E4853
:1059100004F000FE1F213A4804F066FB306E07F0E9
:1059200059F9354907F0AAF906F0FEFC00950B4637
:105930000246254804F048FE0121304804F054FB9B
:10594000214804F0E7FD11212E4804F04DFBD6F864
:10595000B030032B07D8DFE803F0312C27020D21EC
:10596000294804F041FB184804F0D4FD18212748C9
:1059700004F03AFBD6F8B410134804F01BFE0221E1
:10598000234804F031FB104804F0C4FD0E4804F035
:10599000C1FD1321134804F027FB0B4804F0BAFDA6
:1059A00006232360FEF700BF0C211A4804F01CFBFD
:1059B000D9E70C21184804F017FBD4E70421174855
:1059C00004F012FBCFE700BFD487FF1F3C93FF1FFB
:1059D00064230100C01B0100DC1B010000007A44AD
:1059E000081C01000C1C010008230100201C010000
:1059F0004C1C0100641C0100CDCCCC3D40200100BA
:105A0000841C0100A41C0100E01C0100F01C01002A
:105A10000C1D0100D01C0100C01C0100B81C0100BD
:105A2000BC4804F077FDBB4804F074FDB94804F0AD
:105A300071FDB84804F06EFDB64804F06BFD13210B
:105A4000B54804F0D1FAB34804F064FD0D21B34821
:105A500004F0CAFAAF4804F05DFD0F21B04804F02D
:105A6000C3FAB04BAB48196804F0A4FDA94804F090
:105A700051FD1321AC4804F0B7FAAC4BA5481968A6
:105A800004F098FDA34804F045FD1221A84804F055
:105A9000ABFAA84B9F48196804F08CFD9D4804F0B0
:105AA00039FD1121A44804F09FFAA44B99481968C4
:105AB00004F080FD974804F02DFD0E21A04804F06D
:105AC00093FAA04B9348D3F8A01004F073FD9148CB
:105AD00004F020FD19219C4804F086FA9B4B8D4868
