:1000000000800020BD010000399A0000F199000035
:10001000F1990000F1990000F1990000F1990000B8
:10002000F1990000F1990000F1990000399A00005F
:10003000399A0000F19900004D90000051910000A4
:10004000399A0000399A0000399A0000399A000064
:10005000399A0000399A0000399A0000399A000054
:10006000399A0000399A0000399A0000399A000044
:10007000399A0000399A0000399A0000399A000034
:10008000399A0000399A0000399A0000399A000024
:10009000399A0000399A0000399A0000399A000014
:1000A000399A0000399A0000399A0000399A000004
:1000B000399A00003D8E0000498E00004D8E0000F0
:1000C000598E00005D8E0000618E0000399A00009C
:1000D000399A0000399A0000399A0000399A0000D4
:1000E000399A0000399A0000399A0000399A0000C4
:1000F000399A0000CDBC0000399A00002DA70000FD
:10010000399A000045AA0000399A0000399A000087
:10011000399A0000399A0000399A0000399A000093
:10012000399A0000399A0000399A0000399A000083
:10013000399A0000399A0000399A0000399A000073
:10014000399A0000399A0000399A0000399A000063
:10015000399A0000399A0000399A0000399A000053
:10016000399A0000D5AC0000399A0000399A000095
:10017000399A0000399A0000399A0000399A000033
:10018000399A0000399A0000399A0000399A000023
:10019000399A0000399A0000399A0000399A000013
:1001A000399A0000399A0000399A0000399A000003
:1001B000399A0000399A0000399A0000564B4CF2E7
:1001C000205210B51A804DF628121A8000BF00BFC9
:1001D00009F036FC514B4FF010621A60504A9A6099
:1001E000504ADA60504A136813F4807304D14F49BF
:1001F0000B604FF4A85313604D4B1A78110703D5C9
:100200001A7842F008021A704A4B4B492A221A7097
:100210004A4A4B4B8B4204D252F8040F43F8040B6A
:10022000F8E7484B484900228B4202D243F8042B9E
:10023000FAE74649464A002352F8230041F82300D2
:1002400001336F2BF8D1434B434A802103F8011B44
:100250009342FBD1414B3D4A1A60414B8A221A70AE
:10026000A3F5805324225A70A0221A709A7992071B
:10027000FCD59A79D406FCD43A4A937903F00C035E
:10028000082B384BF9D103221A7140225A719A79FE
:100290009006FCD5334A9179324B4906FBD5324A58
:1002A000324911600221516020221A709A7902F0BD
:1002B0000C020C2AFAD12E4B2E4A1A602E4B2F4AD2
:1002C0001A6000225A60072243F8042C2C4AC3F813
:1002D0000C2D62B609F094FE144B1B68DA0705D5A5
:1002E000284809F071FC284B284A1A60284B1B78D3
:1002F0005B0609D5244C254B22689A4204D121483B
:1003000009F062FC002323600DF0E0FF09F09EFB82
:1003100009F0CCFAFEE700BF0E2005403080044013
:10032000823F04000100002B10D0034014D0034092
:1003300002D0074000E007403092FF1F5C3F010001
:100340002087FF1F3092FF1F40BCFF1F0082FF1F4E
:100350000000000000E400E05FE400E008ED00E0E1
:100360000050064000400640448004400000030165
:1003700004800440C010050014E000E0FF76010096
:10038000000020205807155D1CE00340A5C3945AC7
:1003900000F00740FFFFFFFFFFFFFFFFFFFFFFFF32
:1003A000FFFFFFFFFFFFFFFFFFFFFFFFFFFFFFFF5D
:1003B000FFFFFFFFFFFFFFFFFFFFFFFFFFFFFFFF4D
:1003C000FFFFFFFFFFFFFFFFFFFFFFFFFFFFFFFF3D
:1003D000FFFFFFFFFFFFFFFFFFFFFFFFFFFFFFFF2D
:1003E000FFFFFFFFFFFFFFFFFFFFFFFFFFFFFFFF1D
:1003F000FFFFFFFFFFFFFFFFFFFFFFFFFFFFFFFF0D
:10040000FFFFFFFFFFFFFFFFFFFFFFFFDEF9FFFF23
:1004100010B5054C237833B9044B13B10448AFF33E
:1004200000800123237010BD3092FF1F00000000E8
:10043000583F0100084B10B51BB108490848AFF3FD
:1004400000800848036803B910BD074B002BFBD0A0
:10045000BDE81040184700BF000000003492FF1FA5
:10046000583F01003092FF1F00000000F0B400F17F
:1004700014060F4F00243146031F00F12C0243F8ED
:10048000044FB34241F8047F4FF0000542F8044F97
:10049000F5D1084B084985640022C56405654565AA
:1004A000456683650366C16580F88420F0BC7047AB
:1004B0000000A040000048430000C8C200230360C1
:1004C00043608360C3600361436183640365436584
:1004D000836570472DE9F04190F8844084B0002393
:1004E00064008DF80530E4B2012380468DF80440A5
:1004F0008DF80630032720460AF040FA02210DF15C
:1005000005000AF045FA8DF8044002F09DFC30B376
:100510000921C9480BF074FA002310222146C7486C
:1005200008F0D4FE0121C6480BF06AFA002310221D
:100530009DF80510C14808F0C9FE0121C0480BF024
:100540005FFA002310229DF80610BC4808F0BEFE9A
:100550000121BB480BF054FAB84808F0A7FE02206E
:100560008DF8044009F0FEFC02F06EFC002840F01B
:10057000778102AE00240AF021FA002800F02681DB
:10058000042C40F0158101E00AF028FA0AF016FA6E
:100590000028F9D102F058FC10B1A84808F086FEF6
:1005A00098F884406400E4B2202204238DF80440CB
:1005B0008DF805208DF80630032720460AF0DEF975
:1005C00002210DF105000AF0E3F98DF8044002F074
:1005D0003BFC30B3092198480BF012FA002310229B
:1005E0002146964808F072FE012195480BF008FA62
:1005F000002310229DF80510904808F067FE0121A5
:100600008F480BF0FDF9002310229DF806108B484F
:1006100008F05CFE01218A480BF0F2F9874808F0E7
:1006200045FE02208DF8044009F09CFC02F00CFC11
:10063000002840F00B8102AE00240AF0BFF9002828
:1006400000F0A980072C40F0988001E00AF0C6F97C
:100650000AF0B4F90028F9D102F0F6FB10B177489E
:1006600008F024FE98F884409DF80B209DF80C308B
:100670009DF80D00C8F870206400E4B29DF80E10DB
:10068000C8F87430332201238DF80440C8F878008C
:10069000C8F87C108DF805208DF806300327204619
:1006A0000AF06CF902210DF105000AF071F98DF8DC
:1006B000044002F0C9FB30B309215F480BF0A0F9F8
:1006C0000023102221465D4808F000FE01215C480D
:1006D0000BF096F9002310229DF80510574808F0FA
:1006E000F5FD012156480BF08BF9002310229DF8EF
:1006F0000610524808F0EAFD012151480BF080F93C
:100700004E4808F0D3FD02208DF8044009F02AFC81
:1007100002F09AFB002840F09E8002AE00240AF00E
:100720004DF9F8B1042C0FD101E00AF057F90AF0A5
:1007300045F90028F9D102F087FB10B13F4808F0D5
:10074000B5FD04B0BDE8F0810AF048F9054606F8A9
:10075000010B02F079FB00285AD101340AF02EF97E
:100760000028DFD1042CE2D002F06EFB00285ED11D
:10077000013FE6D09DF8044091E70AF02FF90546C5
:1007800006F8010B02F060FB60BB01340AF016F9B9
:1007900000287FF457AF072C3FF45AAF02F054FB08
:1007A00000284FD1013F3FF45DAF9DF8044004E7BE
:1007B0000AF014F9054606F8010B02F045FBE0B912
:1007C00001340AF0FBF800287FF4DAAE042C3FF481
:1007D000DDAE02F039FB30BB013F3FF4E1AE9DF8E6
:1007E000044088E6E9B200231022144808F06EFDA8
:1007F000012113480BF004F9C7E7E9B200231022E6
:100800000E4808F063FD01210D480BF0F9F8D7E719
:10081000E9B200231022094808F058FD01210848D8
:100820000BF0EEF899E7054808F040FDD4E70348DF
:1008300008F03CFD9CE700BF98240100D087FF1F13
:10084000C82B0100094808F031FDABE70721084833
:100850000BF0D6F8EFE6072105480BF0D1F85CE77E
:10086000072103480BF0CCF883E600BFD087FF1FB9
:10087000A424010090F87400704700BF90F8700045
:10088000704700BF90F87800704700BF90F87C0078
:10089000704700BF2DE9F04390F8848085B04FEA9F
:1008A00048085FFA88F8322200238DF804808DF81A
:1008B00005208DF8063003250DF1060748F00109E3
:1008C00048460AF05BF801AE0DF1050002210AF07E
:1008D0005FF88DF804904A463346002050400824C3
:1008E00010F0800F4FEA400018BF80F00700013C75
:1008F000C0B2F5D1BB4202D013F8012FEEE70AF0E7
:100900003DF802F0A1FA00284AD102208DF80480B7
:1009100009F028FB02F098FA002840F081800DF1E0
:10092000080800240AF04AF808B3042C12D101E0A8
:100930000AF054F80AF042F80028F9D102F084FADB
:1009400010B13A4808F0B2FC022009F00BFB05B0E8
:10095000BDE8F0830AF042F808F8010B064602F001
:1009600073FA70B901340AF029F80028DDD1042C9B
:10097000E0D002F069FA78B9013DE5D09DF8048035
:100980009CE7F1B200231022284808F09FFC0121C7
:1009900027480BF035F8E5E7244808F087FCEBE73B
:1009A000092124480BF02CF82346102249461F4801
:1009B00008F08CFC01211E480BF022F8234610227F
:1009C0009DF80510194808F081FC012118480BF02A
:1009D00017F8102223469DF80610144808F076FCFC
:1009E000012113480BF00CF821460DF1070216F80F
:1009F000014B6140C9B2082311F0800F4FEA410159
:100A000018BF81F00701013BC9B2F5D1B242EED166
:100A10001022064808F05AFC044808F047FC74E726
:100A2000072105480AF0ECFF79E700BFD087FF1FD8
:100A3000C82B010098240100A42401002DE9F04FE7
:100A4000074691B097F8843002205B008DF808309B
:100A500009F088FA97F8843038465B008DF8083042
:100A6000FFF738FDB86FFC6F7B6F3A6F97F8841013
:100A70008DE81100C94802F0EDFA30223D238DF8CF
:100A800009208DF80A3003260DF10A059DF808901B
:100A900049F00108404609F071FF0DF109000221FB
:100AA00009F076FF8DF80880424602AB00205040E6
:100AB000082410F0800F4FEA400018BF80F00700B4
:100AC000013CC0B2F5D19D4202D013F8012FEEE7F0
:100AD00009F054FF02F0B8F9002840F07D820220AE
:100AE0008DF8089009F03EFA02F0AEF9002840F0C7
:100AF000B9820DF10C0AD146002409F05FFF0028ED
:100B000043D0032C34D101E009F068FF09F056FF0F
:100B10000028F9D102F098F910B1A14808F0C6FBFD
:100B2000312303268DF809308DF80A609DF808906E
:100B300049F00108404609F021FF0DF109000221AA
:100B400009F026FF8DF80880424602AB0020504095
:100B5000082410F0800F4FEA400018BF80F0070013
:100B6000013CC0B2F5D19D4228D013F8012FEEE729
:100B700009F034FF09F8010B804602F065F968B905
:100B8000013409F01BFF0028BBD1032CBED002F0BA
:100B90005BF978B9013E7FF479AFC1E75FFA88F17C
:100BA000002310227E4808F091FB01217D480AF0C5
:100BB00027FFE5E77A4808F079FBEBE709F0DEFE6E
:100BC00002F042F9002840F0C68102208DF808901A
:100BD00009F0C8F902F038F9002840F03E820DF122
:100BE0000C09002409F0EAFE002844D0032C35D17A
:100BF00001E009F0F3FE09F0E1FE0028F9D102F06E
:100C000023F910B1664808F051FB342201238DF816
:100C100009208DF80A3003269DF8089049F0010854
:100C2000404609F0ABFE0DF10900022109F0B0FECB
:100C30008DF80880424602AB00205040082410F096
:100C4000800F4FEA400018BF80F00700013CC0B29F
:100C5000F5D19D4228D013F8012FEEE709F0BEFE32
:100C600009F8010B804602F0EFF868B9013409F089
:100C7000A5FE0028BAD1032CBDD002F0E5F878B962
:100C8000013E7FF453AFC0E75FFA88F100231022E2
:100C9000434808F01BFB012142480AF0B1FEE5E79A
:100CA0003F4808F003FBEBE709F068FE02F0CCF8E0
:100CB000002840F00F8102208DF8089009F052F9C9
:100CC00002F0C2F8002840F0D7810DF10C09002491
:100CD00009F074FE002800F08580032C73D101E038
:100CE00009F07CFE09F06AFE0028F9D102F0ACF8A8
:100CF00010B12B4808F0DAFA012212238DF80920EE
:100D00008DF80A304FF003089DF80840204609F09E
:100D100035FE02210DF1090009F03AFE8DF8084078
:100D200002F092F830B309211F480AF069FE00234F
:100D3000102221461A4808F0C9FA012119480AF080
:100D40005FFE002310229DF80910154808F0BEFA36
:100D5000012114480AF054FE002310229DF80A10C5
:100D60000F4808F0B3FA01210E480AF049FE0C487A
:100D700008F09CFA06208DF8084009F0F3F802F01C
:100D800063F8002840F0738103AD002609F016FED9
:100D9000002840D0162E30D10AE000BFAC2401005C
:100DA000D087FF1FC82B01009824010009F016FE10
:100DB00009F004FE0028F9D102F046F816260028B2
:100DC0007DD1152035E009F009FE09F8010B8046B8
:100DD00002F03AF800285BD1013409F0EFFD002859
:100DE0007FF47BAF032C3FF47DAF02F02DF8002899
:100DF0006CD1013E7FF410AF7EE709F0EFFD05F8FE
:100E0000010B044602F020F800284DD1013609F00C
:100E1000D5FD0028BED1162ECAD002F015F8002844
:100E20004DD1B8F101087FF46FAF701E002840F378
:100E30002D82002303AA1C4612F8011B08254C40F2
:100E400014F0800F4FEA440418BF84F00704013DFA
:100E5000E4B2F5D101338342EEDB9DF8218089486D
:100E60004146224602F0F6F8162EC146A34602D1AC
:100E7000A04500F0138197F884108348CDF800B0A6
:100E80004B46324602F014F9002011B0BDE8F08F55
:100E90005FFA88F1002310227C4808F017FA01213C
:100EA0007B480AF0ADFD97E7E1B2002310227748B6
:100EB00008F00CFA012176480AF0A2FDA6E7734873
:100EC00008F0F4F9162EACD11520B2E76F4808F0FF
:100ED000EDF98EE709216F480AF092FD23461022B2
:100EE00041466A4808F0F2F9012169480AF088FD94
:100EF000234610229DF80910644808F0E7F9012103
:100F000063480AF07DFD102223469DF80A105F48D1
:100F100008F0DCF901215E480AF072FD21460DF16E
:100F20000B0002AA12F8014B6140C9B2082311F06C
:100F3000800F4FEA410118BF81F00701013BC9B2A0
:100F4000F5D19042EED11022504808F0BFF94F4839
:100F500008F0ACF9AFE609214E480AF051FD2346EE
:100F600010224146494808F0B1F9012148480AF0E9
:100F700047FD234610229DF80910444808F0A6F9C1
:100F8000012143480AF03CFD102223469DF80A1037
:100F90003E4808F09BF901213D480AF031FD214609
:100FA0000DF10B0002AA12F8014B6140C9B20823EF
:100FB00011F0800F4FEA410118BF81F00701013B9A
:100FC000C9B2F5D19042EED11022304808F07EF936
:100FD0002E4808F06BF9F8E509212E480AF010FDBB
:100FE000234610224146294808F070F9012128487B
:100FF0000AF006FD234610229DF80910234808F048
:1010000065F9012122480AF0FBFC102223469DF8D5
:101010000A101E4808F05AF901211D480AF0F0FC98
:1010200021460DF10B0002AA12F8014B6140C9B232
:10103000082311F0800F4FEA410118BF81F007012A
:10104000013BC9B2F5D19042EED110220F4808F011
:101050003DF90E4808F02AF941E507210E480AF04B
:10106000CFFCBCE507210C480AF0CAFC41E507218A
:1010700009480AF0C5FC87E6072107480AF0C0FCCA
:1010800023E600BFE02401002C250100D087FF1FCC
:10109000C82B010098240100A42401009DF80C3005
:1010A00097F88420B3EB420F7FF4EEAE9DF80D303D
:1010B000012B7FF4E9AE9DF80E30122B7FF4E4AEE5
:1010C0009DF810309DF80F0003EB00200CF082FE1D
:1010D0007A490CF0D3FE796EF86404460DF08AF874
:1010E00000B17C66396E20460DF066F800B13C66B2
:1010F0003D1FAB4607F1180807F130064FF006090F
:101100009AF806309AF8050003EB00200CF062FE16
:101110006B490CF0B3FE4BF8040FD8F800100446EE
:101120000DF04AF80AF1020A30B1B96E20460DF00E
:1011300057F808B1C8F80040316820460DF05AF859
:1011400008F1040800B13460B9F1010906F10406A0
:10115000D6D10020B86407F1140455F8041F0CF030
:1011600085FDAC42F9D19DF81D209DF81E30B86474
:1011700003EB022002300CF02DFE52490CF032FF3E
:10118000014651480CF02EFF50490CF06DFD5049BE
:101190000CF074FE05460AF0DFFE044628460AF00D
:1011A000DBFE4C490AF04AFF4B49054620460CF04D
:1011B00065FE4A490CF05AFD4949044628460CF0A0
:1011C0005DFE014620460CF051FD01464FF07E5079
:1011D0000CF008FF43490CF047FD9DF81F209DF8D7
:1011E0002030386503EB022009300CF0F3FD3E4956
:1011F0000CF0F8FE014634480CF0F4FE33490CF0D4
:1012000033FD33490CF03AFE05460AF0A5FE0446CC
:1012100028460AF0A1FE2F490AF010FF2E49054684
:1012200020460CF02BFE2D490CF020FD2C490446E5
:1012300028460CF023FE014620460CF017FD01461F
:101240004FF07E500CF0CEFE26490CF00DFD3D6DAA
:101250007865294604460CF0CDFFB96D30BB2046B9
:101260000CF0AAFF08B12346BB65294620460CF0C6
:10127000C1FFA0B92946F86D0CF09EFF08B12C46BD
:10128000FC651A4801F0E6FE0120FEE59DF821907C
:10129000174849464246C34601F0DCFEEBE5F96DCE
:1012A00020460CF0A7FF0028EAD1EAE728460CF018
:1012B00083FF0028F3D02B46D6E700BF6B57053BD2
:1012C0002003C839001601470AD7E33FE17A64409A
:1012D00000007A4400004040A40D8F395A80473AFC
:1012E00046A6DB3333938843002C014704250100D5
:1012F000E0240100052994BF50F821000020704728
:101300002DE9F0410B4E8046041F00F1140754F8FC
:10131000045F314628460CF04FFF30B1D8F8681012
:1013200028460CF067FF00B12E46BC42EFD1304694
:10133000BDE8F08100002041F8B50026041F00F14F
:10134000140754F8045F314628460CF053FF00B1EF
:101350002E46BC42F5D13046F8BD00BF2DE9F0471E
:10136000876E82464FF00009041F00F114064FF00B
:10137000000854F8045F394628460CF03BFF0D493D
:1013800050B128460CF018FF30B1484629460CF001
:101390006DFC08F101088146B442EAD1CAF88880A0
:1013A00040460CF017FD014648460CF01BFEBDE818
:1013B000F08700BF00007042D0F88800704700BF7F
:1013C00038B5456D046D294620460CF0F5FE00B990
:1013D0002C46204638BD00BF38B5446D056D21460A
:1013E00028460CF0E9FE00B92C46204638BD00BF67
:1013F00008B5D0F880301BB1133350F8230008BD76
:10140000416D006D0CF032FC4FF07C510CF036FD5C
:1014100008BD00BF806C704701299ABF143150F895
:1014200021000020704700BF3E2998BF80F884103B
:10143000704700BF90F86C00704700BFC0F8801084
:10144000704700BF80F86C10704700BF816670471E
:1014500070B500F50A5506461C3500F128042046F3
:101460008C34FFF703F8AC42F9D106F1B40501243E
:1014700028460021FFF7E6FF214628460134FFF702
:10148000D3FF3F2C05F18C05F2D142F2A4240025B4
:101490000548064A064B3555002130617161B2613D
:1014A000F361304670BD00BF00007A44000048433D
:1014B0000000C8C238B500F50A551C3500F1B40467
:1014C00002E08C34AC420AD02046FFF7B3FF00287C
:1014D000F7D020468C34FEF7F1FFAC42F4D138BD92
:1014E0002DE9F04142F2A82300F50A5637460022C2
:1014F0008046C2501C36283700F1B40402E08C3418
:10150000B4420DD02046FFF795FF0028F7D02046C3
:101510003D68FFF751FF8C342844B4423860F1D164
:1015200042F2A82358F80300BDE8F0812DE9F04FFE
:1015300093B0814642F2AC231046019201284FF04D
:101540000002069149F8032000F0038209F50A53CE
:101550002C33079309F1B40A4FF0010B5046FFF703
:1015600069FFC0B100263446012531465046D9F8FE
:101570000870FFF7BFFE014638460CF01DFE18B19B
:1015800005FA06F31C43E4B20136062EEDD1019BA9
:10159000012B0AD0F4B90BF1010BBBF13F0F0AF19B
:1015A0008C0ADBD113B0BDE8F08F5946BD4807F077
:1015B000CDFE0321BC480AF023FA21460023022273
:1015C000B84807F083FE0321B8480AF019FA002C46
:1015D00000F018814FEA4B03DBB21946029343F047
:1015E00001039DF8182003931D46184633238DF8F8
:1015F00026208DF825308DF8241009F0BFF90DF163
:101600002500022109F0C4F909AA05928DF8245099
:101610002A4609AB0DF1260600205040082510F09F
:10162000800F4FEA400018BF80F00700013DC0B2B4
:10163000F5D19E4202D013F8012FEEE709F09EF992
:1016400001F002FC002840F0EC809DF808308DF895
:101650002430022008F086FC01F0F6FB002840F060
:101660006E810AAB04931F46002509F0A7F90028F4
:1016700044D01E2D35D101E009F0B0F909F09EF9F2
:101680000028F9D101F0E0FB00283DD1019B012B9E
:1016900040D0039D9DF808208DF824203223284651
:1016A0008DF825308DF8264009F068F90DF12500F8
:1016B000022109F06DF98DF8245009AB2A4600206B
:1016C0005040082510F0800F4FEA400018BF80F00E
:1016D0000700013DC0B2F5D19E423BD013F8012F67
:1016E000EEE709F07BF907F8010B804601F0ACFB4F
:1016F00020BB013509F062F90028BAD11E2DBDD0FA
:1017000001F0A2FB0028C1D0664807F0CFFD019B85
:10171000012BBED1049D0BAF15F8011B61480023BE
:10172000102207F0D3FD012161480AF069F9AF42A8
:10173000F2D103215D480AF063F9AAE75FFA88F164
:1017400000231022574807F0C1FD012159480AF033
:1017500057F9CEE709F012F901F076FB002840F0C6
:10176000AD809DF808308DF82430022008F0FAFB97
:1017700001F06AFB002840F0E780049E002509F094
:101780001DF900B31E2D11D101E009F027F909F070
:1017900015F90028F9D101F057FBD0B9019B012BB5
:1017A0001DD0079A13681C441460F4E609F016F97A
:1017B00006F8010B074601F047FB38BB013509F07D
:1017C000FDF80028DED11E2DE1D001F03DFB002800
:1017D000E4D0344807F06AFD019B012BE1D1049E5F
:1017E0000BAD16F8011B2F480023102207F06EFDE9
:1017F00001212F480AF004F9AE42F2D1079A13688A
:1018000023441360274807F051FDC4E6F9B20023D2
:101810001022244807F05AFD012126480AF0F0F86A
:10182000CCE7092124480AF0EBF82B461022039953
:101830001C4807F04BFD01211E480AF0E1F82B4639
:1018400010229DF82510174807F040FD0121194886
:101850000AF0D6F810222B469DF82610114807F002
:1018600035FD012113480AF0CBF829460DF1270078
:1018700009AA12F8013B5940C9B2082311F0800FA0
:101880004FEA410118BF81F00701013BC9B2F5D110
:101890009042EED11022034807F018FD014807F0EE
:1018A00005FDD2E6D087FF1F7C25010080250100C1
:1018B00084250100C82B0100982401000921274834
:1018C0000AF09EF82B4610220399254807F0FEFCEB
:1018D000012124480AF094F82B4610229DF8251087
:1018E0001F4807F0F3FC01211E480AF089F8102276
:1018F0002B469DF826101A4807F0E8FC01211948EC
:101900000AF07EF8059829460DF1270210F8013BF0
:101910005940C9B2082311F0800F4FEA410118BFA6
:1019200081F00701013BC9B2F5D18242EED110220C
:101930000B4807F0CBFC0A4807F0B8FC11E7072179
:1019400009480AF05DF88CE6072107480AF058F8C4
:1019500013E7034807F0AAFCF8E500BF982401004C
:10196000D087FF1FC82B0100A42401002DE9F04FF0
:10197000824685B04FF0000901238DF800908DF864
:1019800001908DF802304FF003080024204608F043
:10199000F5FF02210DF1010008F0FAFF8DF800407B
:1019A00001F052FA30B30921B5480AF029F80023B2
:1019B00010222146B34807F089FC0121B2480AF001
:1019C0001FF8002310229DF80110AE4807F07EFC9E
:1019D0000121AD480AF014F8002310229DF80210EE
:1019E000A84807F073FC0121A7480AF009F8A548A8
:1019F00007F05CFC02208DF8004008F0B3FA01F01B
:101A000023FA002840F0898001AF3E46002408F008
:101A1000D5FF002867D0042C58D101E008F0DEFF84
:101A200008F0CCFF0028F9D101F00EFA10B195486A
:101A300007F03CFC9DF80430802B40F01E819DF89F
:101A40000530002B40F019819DF80640012C40F034
:101A500014818E4801F0FEFA0AF1B406254604E02E
:101A600001353F2D06F18C0686D03046FFF7E2FCAB
:101A700083460028F4D13B2265F07F0301208DF8D6
:101A800001208DF802308DF800B008F077FF0DF1DD
:101A90000100022108F07CFF01228DF80020E846B9
:101AA00058466B460DF102026040C0B2082410F0A7
:101AB000800F4FEA400018BF80F00700013CC0B221
:101AC000F5D193422ED013F8014FEDE708F086FFD1
:101AD00006F8010B054601F0B7F998B9013408F092
:101AE0006DFF002897D1042C9AD001F0ADF910B108
:101AF000644807F0DBFBB8F1010800F0BE809DF8F8
:101B0000004043E7E9B2002310225E4807F0DEFB05
:101B100001215D4809F074FFE0E707215C4809F006
:101B20006FFF71E708F02AFF01F08EF900285AD103
:101B300003208DF8009008F015FA01F085F90028CF
:101B400040F09680002408F039FFB0B30A2C27D16A
:101B500001E008F043FF08F031FF0028F9D101F05F
:101B600073F900287FD19DF80430812B7FF404AFF6
:101B70009DF805303B2B7FF4FFAE9DF80630803595
:101B8000AB427FF4F9AE30460121FFF75BFC0AF56A
:101B90000A5340481A6A01321A6201F05BFAEBE616
:101BA00008F01CFF07F8010B804601F04DF970B9F1
:101BB000013408F003FF0028C8D10A2CCBD001F073
:101BC00043F9002850D1022C7FF7D6AECBE75FFA5D
:101BD00088F1002310222B4807F078FB01212A48C6
:101BE00009F00EFFE4E70921254809F009FF234623
:101BF00010220121234807F069FB0121224809F046
:101C0000FFFE234610229DF801101E4807F05EFBE0
:101C100001211D4809F0F4FE102223469DF8021010
:101C2000184807F053FB0121174809F0E9FE214647
:101C30000DF1030218F8014B6140C9B2082311F0FD
:101C4000800F4FEA410118BF81F00701013BC9B283
:101C5000F5D14245EED110220A4807F037FB09487A
:101C600007F024FB64E70A24064807F01FFBAAE7F5
:101C70000721074809F0C4FE64E705B0BDE8F08F0E
:101C800098240100D087FF1FC82B01008825010080
:101C9000A4240100942501002DE9F04742F2A0227E
:101CA00084B000230127835082468DF804308DF8DC
:101CB000053000F1B4088DF806704FEA47095FFA65
:101CC00089F400214046FFF7BDFB20468DF8044013
:101CD00008F054FE02210DF1050008F059FE8DF8C0
:101CE000044001F0B1F830B30921494809F088FEF9
:101CF000002310222146474807F0E8FA0121464810
:101D000009F07EFE002310229DF80510414807F0DF
:101D1000DDFA0121404809F073FE002310229DF8EE
:101D200006103C4807F0D2FA01213B4809F068FE52
:101D3000384807F0BBFA14208DF8044008F012F977
:101D400001F082F800285DD102AE002408F036FED2
:101D500040B3082C19D101E008F040FE08F02EFE37
:101D60000028F9D101F070F8002846D19DF808301C
:101D70004B4522D00137052008F0F4F83F2F08F139
:101D80008C089AD104B0BDE8F08708F027FE05461C
:101D900006F8010B01F058F820BB013408F00EFEE4
:101DA0000028D6D1082CD9D001F04EF830BB042C35
:101DB000E0DD9DF808304B45DCD19DF80930002B63
:101DC000D8D19DF80A100129D4D19DF80C30002BF0
:101DD000D0D04046FFF736FB0AF50A531A6A0132A3
:101DE0001A62C7E7E9B2002310220A4807F06EFA28
:101DF0000121094809F004FECFE70824054807F04F
:101E000055FAD4E70721054809F0FAFD9CE700BF21
:101E100098240100D087FF1FC82B0100A4240100D3
:101E20002DE9F04700F50A56354684B080461C3649
:101E3000203500F1B4040027204600218C34FFF740
:101E400001FBB4422F60F7D102270DF106064FF0D7
:101E50007F093C22A5237E217F208DF805208DF867
:101E600006308DF8041001AD08F088FD0DF1050075
:101E7000022108F08DFD8DF804902B467F22002072
:101E80005040082410F0800F4FEA400018BF80F047
:101E90000700013CC0B2F5D1B34202D013F8012FC4
:101EA000EEE708F06BFD00F0CFFF00285AD17E234B
:101EB00064208DF8043008F055F800F0C5FF0028C4
:101EC00040F090800DF1080A002408F077FD20B35F
:101ED000082C15D101E008F081FD08F06FFD002805
:101EE000F9D100F0B1FFF0B99DF808307F2B21D077
:101EF000013FAED14046FFF739FD04B0BDE8F087A1
:101F000008F06CFD05460AF8010B00F09DFFF0B9E2
:101F1000013408F053FD0028DAD1082CDDD000F0A0
:101F200093FF0028E0D0324807F0C0F99DF8083050
:101F30007F2BDDD19DF809303C2BD9D19DF80A309B
:101F4000A52BD5D19DF80B30572BD1D1D2E7E9B2D3
:101F500000231022264807F0B9F90121254809F08D
:101F60004FFDD5E70921244809F04AFD23461022F8
:101F70007F211F4807F0AAF901211E4809F040FD02
:101F8000234610229DF80510194807F09FF90121FA
:101F9000184809F035FD102223469DF80610144814
:101FA00007F094F90121134809F02AFD21460DF1AB
:101FB000070215F8014B6140C9B2082311F0800FE8
:101FC0004FEA410118BF81F00701013BC9B2F5D1C9
:101FD000AA42EED11022064807F078F9044807F02B
:101FE00065F964E70721054809F00AFD6AE700BFC3
:101FF000D087FF1FC82B010098240100A4240100F2
:102000002DE9F04385B04FF07F082022FF23814661
:102010008DF804808DF805208DF8063003260DF12B
:10202000060548F00107384608F0A8FC0DF1050048
:10203000022108F0ADFC8DF804703A4601AB002097
:102040005040082410F0800F4FEA400018BF80F085
:102050000700013CC0B2F5D1AB4202D013F8012F0A
:10206000EEE708F08BFC00F0EFFE002840F07682EF
:1020700002208DF8048007F075FF00F0E5FE0028CF
:1020800040F0B2820DF10808002408F097FC002807
:1020900043D0042C34D101E008F0A0FC08F08EFC01
:1020A0000028F9D100F0D0FE10B1C14807F0FEF8C9
:1020B0004FF07F0800238DF804808DF8063003264A
:1020C00048F00107384608F059FC0DF105000221DF
:1020D00008F05EFC8DF804703A4601AB00205040D9
:1020E000082410F0800F4FEA400018BF80F007006E
:1020F000013CC0B2F5D1AB4228D013F8012FEEE776
:1021000008F06CFC08F8010B074600F09DFE70B962
:10211000013408F053FC0028BBD1042CBED000F0E1
:1021200093FE78B9013EC3D09DF8048079E7F9B2F7
:10213000002310229E4807F0C9F801219D4809F0AC
:102140005FFCE5E79A4807F0B1F8EBE708F016FC0A
:1021500000F07AFE002840F0C08102208DF8048053
:1021600007F000FF00F070FE002840F038820DF10B
:102170000808002408F022FC002846D0042C37D19F
:1021800001E008F02BFC08F019FC0028F9D100F060
:102190005BFE10B1864807F089F84FF07F082122D6
:1021A000FF238DF804808DF805208DF80630032676
:1021B00048F00107384608F0E1FB0DF10500022167
:1021C00008F0E6FB8DF804703A4601AB0020504061
:1021D000082410F0800F4FEA400018BF80F007007D
:1021E000013CC0B2F5D19D4228D013F8012FEEE793
:1021F00008F0F4FB08F8010B074600F025FE70B963
:10220000013408F0DBFB0028B8D1042CBBD000F06F
:102210001BFE78B9013EC0D09DF8048050E7F9B2AA
:1022200000231022624807F051F80121614809F0AB
:10223000E7FBE5E75E4807F039F8EBE708F09EFBBF
:1022400000F002FE002840F0078102208DF8048093
:1022500007F088FE00F0F8FD002840F0CF810DF176
:102260000808002408F0AAFB002843D0042C34D12D
:1022700001E008F0B3FB08F0A1FB0028F9D100F061
:10228000E3FD10B14A4807F011F84FF07F08002332
:102290008DF804808DF80630032648F00107384693
:1022A00008F06CFB0DF10500022108F071FB8DF8C0
:1022B00004703A4601AB00205040082410F0800F13
:1022C0004FEA400018BF80F00700013CC0B2F5D1D2
:1022D0009D4228D013F8012FEEE708F07FFB08F8A5
:1022E000010B074600F0B0FD70B9013408F066FB41
:1022F0000028BBD1042CBED000F0A6FD78B9013E69
:10230000C3D09DF8048053E7F9B200231022284877
:1023100006F0DCFF0121274809F072FBE5E72448BD
:1023200006F0C4FFEBE708F029FB00F08DFD002864
:1023300051D102208DF8048007F014FE00F084FDD6
:10234000002840F056810DF10808002408F036FB03
:1023500018B3042C14D101E008F040FB08F02EFB68
:102360000028F9D100F070FD10B1114806F09EFF71
:1023700042F2A423002209F8032005B0BDE8F0834F
:1023800008F02CFB08F8010B074600F05DFD98B93A
:10239000013408F013FB0028DBD1042CDED000F060
:1023A00053FDA0B9013EE3D09DF8048075E700BF5E
:1023B000D087FF1FC82B0100F9B2002310229248DA
:1023C00006F084FF0121914809F01AFBE0E78E48EE
:1023D00006F06CFFE6E709218D4809F011FB234662
:1023E00010223946884806F071FF0121874809F01C
:1023F00007FB234610229DF80510834806F066FF70
:102400000121824809F0FCFA102223469DF80610AB
:102410007D4806F05BFF01217C4809F0F1FA214676
:102420000DF1070001AA12F8014B6140C9B208235F
:1024300011F0800F4FEA410118BF81F00701013B05
:10244000C9B2F5D19042EED110226F4806F03EFF9E
:102450006D4806F02BFF6CE709216D4809F0D0FAB2
:10246000234610223946684806F030FF01216748AC
:1024700009F0C6FA234610229DF80510624806F0BE
:1024800025FF0121614809F0BBFA102223469DF87F
:1024900006105D4806F01AFF01215C4809F0B0FA09
:1024A00021460DF1070001AA12F8014B6140C9B2A3
:1024B000082311F0800F4FEA410118BF81F0070196
:1024C000013BC9B2F5D19042EED110224E4806F040
:1024D000FDFE4D4806F0EAFEB7E609214C4809F03A
:1024E0008FFA234610223946474806F0EFFE0121B5
:1024F000464809F085FA234610229DF80510424807
:1025000006F0E4FE0121414809F07AFA1022234640
:102510009DF806103C4806F0D9FE01213B4809F021
:102520006FFA21460DF1070001AA12F8014B614034
:10253000C9B2082311F0800F4FEA410118BF81F0A2
:102540000701013BC9B2F5D19042EED110222E48CD
:1025500006F0BCFE2C4806F0A9FEFEE509212C4839
:1025600009F04EFA234610223946274806F0AEFEFF
:102570000121264809F044FA234610229DF805104F
:10258000214806F0A3FE0121204809F039FA102263
:1025900023469DF806101C4806F098FE01211B48B2
:1025A00009F02EFA21460DF1070001AA12F8014B9D
:1025B0006140C9B2082311F0800F4FEA410118BFF2
:1025C00081F00701013BC9B2F5D19042EED1102252
:1025D0000D4806F07BFE0C4806F068FE48E5072132
:1025E0000C4809F00DFAC2E507210A4809F008FA7B
:1025F00048E50721074809F003FAA4E60721054842
:1026000009F0FEF92BE600BFD087FF1FC82B0100A1
:1026100098240100A424010038B500F50A551C35A2
:1026200000F1B40402E08C34AC420AD02046FEF73C
:1026300001FF0028F7D020468C34FEF72BF9AC427E
:10264000F4D138BD2DE9F04F0546002345F8B43BE1
:1026500000F50A5783B082462C461C3702E08C34C2
:10266000BC420AD02046FEF7E5FE0028F7D02046FF
:102670008C34FEF70FF9BC42F4D1C82007F072FC8D
:102680002C46012604E001363F2E04F18C046ED066
:102690002046FEF7CFFE0028F5D0764800F0DAFCA1
:1026A0003146754800F0D6FC2046FEF7C7F92046B3
:1026B000FEF7B0FE0AF038FF02460B466F4800F006
:1026C000C9FC2046FEF71CFE80462046FEF734FE7D
:1026D000834640460AF028FF8046584689460AF05D
:1026E00023FF42464B46CDE90001654800F0B2FCAD
:1026F00000212046FEF790FE012180462046FEF78D
:102700008BFE834640460AF00FFF804658468946B6
:102710000AF00AFF42464B46CDE90001594800F055
:1027200099FC2046FEF776FE0146DAF800000BF031
:102730009DFACAF800002046FEF742FEDAF81810AB
:102740000BF03AFD00287BD12046FEF745FEDAF873
:102750001C100BF04FFD002895D02046FEF73CFEE4
:1027600001363F2ECAF81C0004F18C0490D1DAF82F
:1027700004000BF02FFB0146DAF800000BF032FCEE
:10278000DAF81410CAF8000004460BF033FD08B163
:10279000CAF81440DAF8101020460BF00DFD08B10D
:1027A000CAF810400B2007F0A7FB42F2A4231AF846
:1027B000033000284AD1002B58D042F2A423012232
:1027C0000AF803200023CAF80C302C4602E08C34AF
:1027D000BC4215D02046FEF72DFE0028F7D020463B
:1027E000FEF7AAFDDAF80C100BF004FD0028EED07D
:1027F0002046FEF7A1FD8C34BC42CAF80C00E9D19A
:10280000214BCAF8083002E08C35BD4215D028466D
:10281000FEF710FE0028F7D02846FEF771FDDAF823
:1028200008100BF0C9FC0028EED02846FEF768FD22
:102830008C35BD42CAF80800E9D103B0BDE8F08F7D
:102840002046FEF7BDFDCAF818007DE72BB942F21D
:10285000A42300220AF80320B4E70C4800F012FC7D
:1028600042F2A42300220AF80320ABE7084800F054
:102870001FFCA2E788270100A8250100E42501002C
:10288000F8250100242601000000A0407826010060
:102890004026010042F2AC23C05870478068704760
:1028A000C06870470068704741607047F8B500F530
:1028B0000A550F4616461C3500F1B40402E08C346C
:1028C000AC420FD02046FEF7B5FD0028F7D02046D9
:1028D0003946FEF7B3FD204631468C34FEF7B6FD8F
:1028E000AC42EFD1F8BD00BF2DE9F041274A284B9B
:1028F000026200F50A5507464FF0000843621C3596
:1029000000F1B404002602E08C34A54210D0204629
:10291000FEF790FD0028F7D02046FEF769FD1D491F
:102920000BF068FC80B98C34A54206F10106EED1AB
:1029300042F2A023F858801B0BF04CFA01464046A7
:102940000BF050FBBDE8F0812046FEF751FD01463B
:1029500040460BF08BF980462046FEF749FD396A68
:102960000BF048FC60B92046FEF742FD796A0BF097
:1029700023FC0028C8D02046FEF73AFD7862C3E762
:102980002046FEF735FD3862EDE700BF0000C8C203
:1029900000C0794400008CC2006A7047406A7047EA
:1029A000F8B500F50A55074600261C3500F1B404B9
:1029B00002E08C34AC420FD02046FEF73BFD0028ED
:1029C000F7D02046FEF7CAFC014630460BF04EF920
:1029D0008C34AC420646EFD142F2A023F8580BF0FB
:1029E000F9F9014630460BF0FDFAF8BD2DE9F04F3C
:1029F00006468FB076488B4600F0D4FA744800F053
:102A0000D1FA734800F0CEFA42F2A0233046F258D1
:102A10000D92FEF765FD73680C93074630680AF067
:102A200083FD804630468946FFF7BAFF824630462E
:102A3000B468F568FFF758FF0AF076FDCDE90A01A2
:102A4000214628460BF010F962490BF017FA0AF0FC
:102A50006BFDCDE9080128460AF066FDCDE90601C7
:102A600020460AF061FDCDE9040150460AF05CFD04
:102A70000D9A0C9BCDE90201CDE90089114656481B
:102A80003A4600F08FFA524800F08CFAB43601272B
:102A90004FF0000A05E001373F2F06F18C0600F0E9
:102AA0008E803046FEF7C6FC0028F4D03046FDF795
:102AB000E1FE3046FDF7E2FE3046FDF7E3FE30462C
:102AC000FDF7E4FE0821454808F09AFF39464448DE
:102AD00006F03CFC092F75DD0221424808F090FF0A
:102AE0003046FEF797FC0AF01FFD5FFA8BF90246AD
:102AF0000B46CDF800903A4806F032FC01213A48E6
:102B000008F07EFF5546002420E00621374808F0F3
:102B100077FF2946324806F019FC0221344808F0B4
:102B20006FFF21463046FEF7E5FB0AF0FDFCCDF8CD
:102B3000009002460B462A4806F012FC013401219F
:102B4000294808F05DFF062C09D04546092D05F1FE
:102B50000108DADC0121274808F052FFD5E71121EE
:102B6000254808F04DFF00213046FEF755FC0AF0DD
:102B7000DBFC022402460B460094194806F0F0FBE9
:102B800012211E4808F03CFF01213046FEF744FCAC
:102B90000AF0CAFC009402460B46114806F0E0FB1E
:102BA0000121174808F02CFF01370D4806F07EFB85
:102BB0003F2F0AF1060A06F18C067FF472AF0FB0C0
:102BC000BDE8F08F01210B4808F01AFF84E700BF31
:102BD0008827010000007A4420290100C029010053
:102BE000D087FF1F10380100CC290100D029010037
:102BF000B82B0100C82B0100D8290100EC290100E5
:102C0000002A01002DE9F04F85B000F1B4058A4695
:102C100003929B462E464FF0010806E008F101089A
:102C2000B8F13F0F06F18C067BD03046FEF702FC70
:102C30000028F3D000230A2251467D4806F046FBC7
:102C400001217C4808F0DCFE03980AF06DFC0023AB
:102C50000246009376480B4606F082FB0121754838
:102C600008F0CEFE5946724806F070FB012171480B
:102C700008F0C6FE41466E4806F068FB01216D482B
:102C800008F0BEFE00244FF0020921463046FEF750
:102C900031FB0AF049FCCDF8009002460B4664482F
:102CA00006F05EFB01340121624808F0A9FE082C01
:102CB0004FF00207E9D100213046FEF7ADFB0AF0E4
:102CC00033FC009702460B46594806F049FB0121A8
:102CD000584808F095FE01213046FEF79DFB0AF0AA
:102CE00023FC009702460B46514806F039FB0121B0
:102CF000504808F085FE39463046FEF78DFB0AF055
:102D000013FC009702460B46494806F029FB08F1E0
:102D10000108474806F0CAFAB8F13F0F06F18C06E1
:102D200083D101274FF0000904E001373F2F05F15F
:102D30008C0579D02846FEF77DFB0028F5D00023CE
:102D40000A2251463C4806F0C1FA0121394807F0F1
:102D5000E9FB03980AF0E8FBCDF8009002460B4629
:102D6000354806F0FDFA0121324807F0DBFB5946F1
:102D7000314806F0EBFA01212E4807F0D3FB394623
:102D80002D4806F0E3FA01212A4807F0CBFB002486
:102D90004FF0020821462846FEF7ACFA0AF0C4FBC1
:102DA000CDF8008002460B46234806F0D9FA0134DC
:102DB0000121204807F0B6FB082C4FF00206E9D1AC
:102DC00000212846FEF728FB0AF0AEFB00960246DB
:102DD0000B46194806F0C4FA0121164807F0A2FB79
:102DE00001212846FEF718FB0AF09EFB00960246DA
:102DF0000B46114806F0B4FA01210E4807F092FB89
:102E000031462846FEF708FB0AF08EFB0096024684
:102E10000B46094806F0A4FA0137074806F046FABF
:102E20003F2F05F18C0585D105B0BDE8F08F00BFBF
:102E3000D087FF1F042A0100B487FF1F014B1870C1
:102E4000704700BF2087FF1F024B1878B0FA80F050
:102E5000400970472087FF1F0278002A00F0908009
:102E600070B5034682B00D46252A2AD158785C1CDD
:102E700008B325282FD0732831D0642824D069289E
:102E800022D066284FD07A2859D0782835D05828B3
:102E90002FD062283ED0422838D06C2814D0632826
:102EA00012D0742857D054285FD008F02DFE6278D5
:102EB000631C002AD8D1344802B0BDE8704006F047
:102EC000F5B918781C46F0E72B1D29682E481D46D9
:102ED00006F03CFAEBE7104608F016FEE7E72E682E
:102EE00030460BF0EDFF01463046043508F088FD12
:102EF000DDE70221254808F083FD2E1D29682248C0
:102F000000231022354606F0E1F9D0E702212048DF
:102F100008F076FD2E1D29681B4800230222354645
:102F200006F0D4F9C3E7073525F007050321D5E9F5
:102F3000002315480091083506F012FAB7E7073567
:102F400025F007050021D5E900230F480091083539
:102F500006F006FAABE7296801290EBF0D480E48B6
:102F60000121043508F04CFDA1E72B68012B07BFB8
:102F700004210A480A480521043508F041FD96E776
:102F8000014806F093B900BFD087FF1F082A01004F
:102F90000C2A0100102A0100142A0100182A01003D
:102FA000202A01000FB400B583B004A951F8040B26
:102FB0000191FFF751FF03B05DF804EB04B07047D7
:102FC00070B51B4B1B4C1B6882B00D460193019BD7
:102FD0002360194604460023164617480A2206F0C5
:102FE00075F90321154808F00BFD032C07D8DFE81D
:102FF00004F01A1510020521114808F001FD022104
:10300000104808F0FDFC31462846FFF725FF02B0C6
:1030100070BD07210C4808F0F3FCF0E704210B48D1
:1030200008F0EEFCEBE70521094808F0E9FCE6E7CB
:1030300068B9FF1F4C92FF1FD087FF1F7C2501003E
:10304000402A0100B82B0100382A0100302A010073
:10305000282A01000FB400B5094B187883B020B1BD
:1030600003B05DF804EB04B0704705AB1A46049951
:103070000193FFF7A5FF03B05DF804EB04B07047C0
:103080002087FF1F0FB4094B00B51B78012B83B0BD
:1030900004D903B05DF804EB04B0704705AB1A46E1
:1030A000049901930120FFF78BFFF2E72087FF1FB0
:1030B0000FB40B4B00B51B78032B83B004D903B0BE
:1030C0005DF804EB04B0704705AB1A460499019310
:1030D0000320FFF775FF03B05DF804EB04B0704701
:1030E0002087FF1F30B4074D074C084900232B7081
:1030F000236003654365836580F85C300B6030BCFA
:10310000704700BF5892FF1F5492FF1F5092FF1F3D
:10311000F8B53D483D4C3E4D3E4EFFF743FF3E4B1C
:103120003E4A3F483F495C6014271F703E4F3F4C6A
:10313000DA60186100223E485D615E623D4DDF62EB
:103140004FF07C560C2799619C623B493B4C1A63BB
:1031500058633B4A3B489D635E6440F61C450A2623
:103160001F65394F9964DC64022101241A62C3F897
:10317000BC00002232209D66DE6664254FF4967600
:10318000DF61DF6341F20407597059721C725C659C
:1031900083F84020C3F89C0018665E66DE659D6576
:1031A0004FF05A0C1F674FF47A7E9A67D967C3F8BD
:1031B0008020C3F88800C3F8A400244FC3F8A020DF
:1031C000C3F8AC40224EC3F8B010FF2441F288315E
:1031D000052083F8C12040F2D662C3F8B450C3F88A
:1031E00074C0C3F88CE0C3F89070C3F89460C3F85F
:1031F000A840A3F8BA00C3F88410A3F8B810A3F845
:103200009820A3F89A20F8BD482A010020A10700C1
:1032100033338340CDCCCC3D4493FF1F666686405C
:1032200000004040CDCC4C40000020C10000824254
:10323000000020420000A0409A9979400AD7233D1F
:10324000333373409A99993ECDCC4C3E000068428E
:1032500000C02044F0B54FF47A6085B006F082FEDD
:1032600000210F2006F056FE00210E2006F052FE2F
:103270000021112006F04EFE0021102006F04AFE2B
:103280000021122006F046FE0021132006F042FE27
:1032900001210B2006F03EFE01210C2006F03AFE33
:1032A0000121142006F036FE0121152006F032FE21
:1032B0000121162006F02EFE0121172006F02AFE1D
:1032C0000121052006F026FE854D864C01210620B1
:1032D00006F020FE01210D2006F01CFE28880AF0D1
:1032E00075FD0146162006F07FFD28880AF06EFD68
:1032F0000146172006F078FD28880AF067FD014690
:10330000052006F071FD28880AF060FD00250146C1
:10331000062006F069FD2B46734A744974480095EF
:1033200005F034FA20684FF0FF32102104F0E8FC79
:1033300020684FF0FF32102104F0BAFC20684FF0F3
:10334000FF32042104F0C8FC20684FF0FF32012155
:1033500004F0CCFC2A460F21206804F0DBFC0C2191
:10336000644808F04DFB644805F0A0FF1021634855
:1033700008F046FB604805F099FF40F2836006F0D4
:10338000AFFE5D4805F092FF17215D4808F038FB5D
:10339000594805F08BFF5B4B1B789A0600F1D480EF
:1033A000584B1B781B0700F1DB80564B1B785F07DF
:1033B00000F1E280534B1B789E0700F1E980524BED
:1033C0001B781D0600F1F0804F4B1B785C0600F166
:1033D000F7804D4B1B78980600F1FE804A4B1B7816
:1033E000590700F10581484B1B781A0700F10C8141
:1033F000454B1B789B0700F113813F4805F056FFB2
:1034000072B6424A4CF220534DF628112024138004
:1034100023461180013BFDD13D4D3E483E490023EE
:103420004FF480562E8003800B8032F80E3C9BB206
:1034300043F0D30322F80E3C62B69D2007F04EFA0B
:1034400021463648364D08F0DBFA2B4805F02EFFB2
:1034500005F1C4062F462C46601B06F095F904F8CA
:10346000010BB442F8D13B78142B01D0FFF750FE8A
:103470002C482D4CFEF7D4FC0420FFF7DFFC2B4B2F
:10348000284800221A60FEF707FC01210D2006F0F3
:103490002DFD796D2348FFF707FA7A6C97F84010F5
:1034A0002048FFF703FA224B22491B68224A1D4895
:1034B000126881FB0351DB17A3EB211313FB02F30B
:1034C0002380FEF79DFD1D4B1D491A68039203984A
:1034D0001B680293029A1B4B08601A6005B0F0BD8E
:1034E0002887FF1FBC94FF1F40B9FF1F20A10700C2
:1034F000A4B7FF1F682A0100D087FF1F782A0100A8
:103500008C2A010001F0074000F007400E20054022
:10351000042005400620054016200540902B0100A0
:103520004493FF1FF494FF1FC894FF1F7092FF1F66
:103530006087FF1F1F85EB515C87FF1F68B9FF1F66
:10354000F094FF1F1894FF1F2121394808F058FA02
:10355000384805F0ABFE384B1B781B077FF525AFCD
:103560000C21364808F04CFA324805F09FFE324BE9
:103570001B785F077FF51EAF0E21314808F040FA37
:103580002C4805F093FE2C4B1B789E077FF517AF58
:1035900017212C4808F034FA264805F087FE2A4BFC
:1035A0001B781D067FF510AF0E21284808F028FA79
:1035B000204805F07BFE244B1B785C067FF509AFA5
:1035C0001221234808F01CFA1A4805F06FFE1E4B22
:1035D0001B7898067FF502AF13211E4808F010FAF9
:1035E000144805F063FE184B1B7859077FF5FBAEB6
:1035F0001C21194808F004FA0E4805F057FE124B3A
:103600001B781A077FF5F4AE1921144808F0F8F971
:10361000084805F04BFE0C4B1B789B077FF5EDAE81
:1036200018210F4808F0ECF9024805F03FFEE4E6E7
:10363000A42A0100D087FF1F01F00740C82A01001B
:10364000D82A0100E82A010000F00740002B010001
:10365000102B0100242B0100382B0100582B0100F6
:10366000742B0100F8B5464C464D4748E6680023E8
:103670002B70FFF715F9014630460AF09DFD08B1A1
:1036800004232B704048FFF709F921690AF094FDE3
:1036900018B12B7843F010032B703B48FFF724F947
:1036A000A16A0AF0A7FD18B12B7843F040032B70F4
:1036B000002335486B70FFF717F9E16A314D0AF0C6
:1036C0007BFD08B101236B70304D2F4800232B7018
:1036D000FFF7E6F8616A0646E0680AF0C5FA0146B7
:1036E00030460AF087FD08B104232B702648FFF707
:1036F000D5F8616A064620690AF0B8FA01463046F4
:103700000AF05AFD18B12B7843F010032B701E48B5
:10371000FFF7EAF8A16B0646A06A0AF0A5FA01468F
:1037200030460AF067FD18B12B7843F040032B7048
:10373000002315486B70FFF7D7F8A16B134F0646AF
:10374000E06A0AF093FA014630460AF035FD08B106
:1037500001237B7000230C48EB70FFF7A1F80546AE
:1037600009480A4EFFF79AF8014628460AF07CFA03
:10377000E16B0AF03FFD08B10123F370F8BD00BF13
:103780004493FF1F4093FF1FF494FF1FB094FF1F4B
:103790002DE9F0417C4C2368012B82B031D0022B03
:1037A00000F0A880032B00F0C8803BBB774B784A21
:1037B000D3F8A410D3F8A83012685B1A632B0EDD7F
:1037C000744803FB02F380FB0302DB17C3EB6213B5
:1037D0001944062002B0BDE8F04106F007BA6E4871
:1037E00003FB022380FB0302DB17C3EB221211440D
:1037F000062002B0BDE8F04106F0F8B902B0BDE81D
:10380000F081664E33680A33B3F57A7F00F3B780F0
:10381000184633600AF0DEFA61490AF02FFB804651
:103820005A4DD5F8A4000AF0D5FA0746D5F8A800F5
:103830000AF0D0FA39460AF017FA41460AF01EFBA0
:1038400058490AF0CFFB39460AF010FA0AF0F2FCA8
:103850000146062006F0CAF90221534808F0D0F8C4
:10386000524805F023FD0621514808F0C9F8306898
:103870000AF0B0FA4A490AF001FB09F055FE0227A6
:1038800002460B460097494805F06AFD0D2149485C
:1038900008F0B6F8D5F8A4000AF09CFA8046306823
:1038A0000AF098FA3E490AF0E9FA0646D5F8A80067
:1038B0000AF090FA41460AF0D7F9014630460AF07C
:1038C000DDFA38490AF08EFB41460AF0CFF909F0DB
:1038D0002BFE00970B460246344805F041FD394661
:1038E000314808F08DF8314805F0E0FC2368022BE0
:1038F0007FF458AF294B254E00221A60D6F8A40059
:103900000AF068FA0546D6F8A8000AF063FA2946D4
:103910000AF0AAF900210AF0B1FA22490AF062FB82
:1039200029460AF0A3F90AF085FC0146062006F0B4
:103930005DF92368032B7FF438AF184B134E4FF417
:103940007A721A60D6F8A4000AF044FA0546D6F84E
:10395000A8000AF03FFA29460AF086F911490AF050
:103960008DFA10490AF03EFB29460AF07FF90AF069
:1039700061FC0146062006F039F9236815E70023AB
:103980004FF0000833604BE79C94FF1F4493FF1FE8
:103990003487FF1F1F85EB51CBF08D287492FF1FDA
:1039A000CDCCCC3D0000C84210380100D087FF1FAD
:1039B000B42B0100BC2B010070B5B548B54C05F027
:1039C00075FCB34805F072FCB14805F06FFC0D21A1
:1039D000B14808F015F8D4F8A030012B11D0AF4C45
:1039E000AB48217800230A2205F070FC2378052BD0
:1039F00067D8DFE813F006010B01100115011A0169
:103A000001010921A64807F0FBFFA648FEF746FF83
:103A100021690AF0D1FB18B10F21A34807F0F0FF8C
:103A2000A048FEF73DFFE1680AF0E4FB18B10E2163
:103A30009E4807F0E5FF9B48FEF732FF0546994890
:103A4000FEF72CFF014628460AF00EF9E16B0AF05A
:103A5000D1FB18B11121964807F0D2FF9148FEF72B
:103A600043FFA16A0AF0C6FB18B10C21914807F088
:103A7000C7FF8C48FEF738FFE16A0AF09DFB18B1DA
:103A80000D218D4807F0BCFF8C4B86481B68012B2D
:103A900000F0E880FEF702FF21697E4D0AF0AAFBE4
:103AA00078B18048FEF7FCFEE9680AF085FB40B17A
:103AB0007A4B1B78052B00F0E6800821804807F040
:103AC0009FFF02217F4807F09BFF122006F014FAA7
:103AD000012800F0AF80112006F00EFA012800F056
:103AE000B380794B1B68012B00F0B7800221754829
:103AF000764C07F085FF764B6548196805F026FC83
:103B0000634805F0D3FB0421724807F079FF0B20CE
:103B100006F0F2F9002301460A225D4805F0D6FBC3
:103B20000C2006F0E9F9002301460A22584805F066
:103B3000CDFB142006F0E0F9002301460A22544888
:103B400005F0C4FB152006F0D7F90A220023014630
:103B50004F4805F0BBFB06215F4807F051FF236883
:103B6000DD074FF001014CBF5C485D4807F048FF9E
:103B7000236898074FF001014CBF5848584807F098
:103B80003FFF23685A074FF001014CBF5348544888
:103B900007F036FF23681B074CBF504850480121EF
:103BA00007F02EFF04214F4807F02AFF112006F0EE
:103BB000A3F9002301460A22354805F087FB1020AF
:103BC00006F09AF9002301460A22314805F07EFBEF
:103BD000122006F091F9002301460A222C4805F034
:103BE00075FB132006F088F9002301460A222848B5
:103BF000BDE8704005F06ABB07213B4807F000FFB5
:103C00005FE70621394807F0FBFE5AE707213848ED
:103C100007F0F6FE55E70721364807F0F1FE50E7BA
:103C20000821354807F0ECFE4BE70B21334807F03D
:103C3000E7FE46E70E21324807F0E2FE112006F0CB
:103C40005BF901287FF44DAF0A212E4807F0D8FE1A
:103C50001D4B1B68012B7FF449AF11212A4807F047
:103C6000CFFE43E7FEF71AFE216A0AF0C3FA0028E6
:103C70003FF423AF1621254807F0C2FE0A2124484D
:103C800007F0BEFE1DE70A21214807F0B9FE18E73C
:103C9000D087FF1F4493FF1FCC2B0100AC94FF1F64
:103CA000DC2B0100F494FF1FE82B0100F82B01002E
:103CB000082C01001C2C01002C2C01008092FF1FFD
:103CC000602C010010380100C494FF1F0894FF1FEE
:103CD000A094FF1FD42C0100DC2C0100E42C010077
:103CE00098390100E82C01009C2C01006C2C01008B
:103CF000742C0100882C0100902C01007C2C010008
:103D0000A42C0100B42C0100C02C01003C2C0100AB
:103D1000542C01002DE9F04F9B4C9C4FE36F012B7D
:103D20008DB000F05981032B5AD0994E994DA36F55
:103D30009948012B09BF2968296801F100412960D0
:103D400005F0EAF83368002B40F0D880924805F07F
:103D5000B9F8E36F3860012B064600F0DC808F492C
:103D60000AF048FAB8B98E4930460AF025FA90B9F7
:103D70008C4A8D4B12680B920B9A1A60D4F8AC00E7
:103D80000AF028F831460AF079F8002338602B60F1
:103D90000DB0BDE8F08FDFF80CA2DFF80C82DAF886
:103DA00000300A930A98D8F80030DFF82492C01A3D
:103DB0000AF00CF831460AF061F87C490AF012F971
:103DC0007A490AF00FF9D9F8001009F04FFFDAF834
:103DD00000300993099BC9F80000C8F80030CDE70E
:103DE000DFF8D081724DD8F80000694E012300221F
:103DF0000F212B6003F08EFF2B68012B336800F03E
:103E00000981002B40F0AC810021D8F80000DFF8D8
:103E1000C491684D03F0D0FF33681FFA80FBC9F8E6
:103E200000B0002B40F081810021D8F80000594DEE
:103E3000DFF880A103F046FFB4F89A3040F6E44181
:103E400001FB0BF1B1FBF0F0C01A00B209F0C2FFA8
:103E500059498346D4F890000AF010F801465846B4
:103E60000AF0C0F8D9F800302860632BDFF864B19D
:103E700000F34F8100232B603368002B3FF457AFD2
:103E800002214E4807F0BCFDD9F80020D8F8000008
:103E900040F6E443002103FB02F803F013FFB8FBF4
:103EA000F0F009F093FF8046B4F89A0009F092FF11
:103EB0000146404609F0D8FE09F036FB4FF00208F3
:103EC00002460B46CDF800803D4805F049FA4146D0
:103ED0003A4807F095FD286809F026FBCDF80080E8
:103EE00002460B46364805F03BFA4146354807F096
:103EF00087FD4146314807F083FD18E7264804F066
:103F0000E1FF09F011FB022602460B4600962C4801
:103F100005F026FA1AE7264B1B68012B00F02C81CE
:103F2000022B7FF42BAF28490AF064F930B92749F6
:103F300030460AF041F9002800F05381DFF864A010
:103F4000DFF86480DAF8003007930798D8F800307B
:103F5000DFF87C90C01A09F039FF314609F08EFF76
:103F600012490AF03FF811490AF03CF8D9F800105C
:103F700009F07CFEDAF800300693069BC9F80000D1
:103F8000C8F80030FAE600BF4493FF1F8C92FF1F71
:103F9000E894FF1F7C92FF1F1C93FF1F0000FA4351
:103FA0000000FAC368B9FF1F5C92FF1F00007A444B
:103FB0005087FF1FBC94FF1F17B7D138103801007E
:103FC000D087FF1F2C2D010000C82F4800A08CC6F1
:103FD0009492FF1F3C93FF1F3D689B4928460AF0BF
:103FE000EBF830B1284699490AF004F900287FF42B
:103FF000F7AEDFF86482964DD8F80000954E0223A4
:1040000000220E212B6003F085FE2B68012B336804
:104010007FF4F7AE002B40F006810021D8F80000B5
:10402000DFF874928C4D03F0C7FE33681FFA80FBF3
:10403000C9F800B0002B40F0DB800021D8F8000068
:10404000864D03F03FFEB4F8983040F6E44A0AFB90
:104050000BFBBBFBF0F0C01A00B209F0BBFE8049BD
:104060008346D4F8940009F009FF0146584609F048
:10407000B9FFD9F8003028600021D8F800000AFB09
:1040800003FA03F01FFEB4F89830BAFBF0F00FFA11
:1040900080FAC3EB0A03002BB4F8BA20B8BF5B4226
:1040A0009342BCBF00232B603368002B3FF43FAE2C
:1040B00002216C4807F0A4FCD9F80020D8F80000D1
:1040C00040F6E443002103FB02F803F0FBFDB4F8E3
:1040D0009810B8FBF0F000B2411A634805F036F9C9
:1040E0000221604807F08CFC286809F01DFA4FF0A7
:1040F000020802460B46CDF800805B4805F030F917
:1041000003215A4807F07CFC4146564807F078FCEA
:104110000DE6DAF80000002103F0D4FDDBF80030F2
:1041200064389842FFF4A6AEA6E60021286803F0A2
:10413000C9FD40F6E44100230A2201FB0BF1B1FB6B
:10414000F0F1494805F0C2F80221464807F058FC52
:10415000B4F89A10444805F0F9F8D9F800B063E6CD
:10416000414805F0A3F80C21414807F049FC0C2117
:10417000404807F045FC47E63F490AF03BF858B98C
:104180003E4930460AF018F830B93D4A3D4B1268B6
:104190000592059A1A60F1E5DFF8E4A0DFF8E48003
:1041A000DAF8003004930498D8F80030DFF8EC9087
:1041B000C01A09F00BFE314609F060FE324909F0E1
:1041C00011FF314909F00EFFD9F8001009F04EFD3A
:1041D000DAF800300393039BC9F80000C8F80030F8
:1041E000CCE5274A274B12680892089A1A60C5E561
:1041F0000021286803F066FD40F6E44100230A220E
:1042000001FB0BF1B1FBF0F1174805F05FF801215C
:104210001E4807F0F5FBB4F89810134805F096F81F
:10422000D9F800B009E7104805F040F8E36F012B1A
:104230004FF00B010CBF1648164807F0E1FB0C21AC
:104240000C4807F0DDFBE8E600709446007094C669
:104250005087FF1FE894FF1FBC94FF1F7C92FF1F35
:1042600017B7D13810380100D087FF1F182D010073
:104270001C2D0100082D01000000FA430000FAC3C4
:1042800068B9FF1F5C92FF1F00007A44C82B010031
:10429000F02C0100FC2C01003C93FF1F9492FF1FA7
:1042A0002DE9F043894D2B6883B0002B7FD0884CDB
:1042B000884ED4F88030884F854D012B00F0B780B0
:1042C000D5F85890D7F800806D6D05FB09F54FF4CF
:1042D0007A7000FB05F009F07DFD8049DFF8F4916C
:1042E0000546404609F0CAFD294609F07BFE7C4997
:1042F00009F0C4FD09F09EFF632830604BDD2846BD
:10430000764909F06FFE6423C9F80030754B3860B8
:104310001B68002B48D0E36F6D4D012B00F0B78078
:10432000032B00F0C780022B00F0CA8002216E48E8
:1043300007F066FB6D4B186809F0F6F80224024698
:104340000B4600946A4805F00BF82146694807F0CF
:1043500057FB2146644807F053FB3168644804F07A
:10436000F5FF0621644807F04BFB38685B4909F00C
:1043700085FD09F0D9F8009402460B465C4804F02C
:10438000EFFF03215D4807F03BFB594803B0BDE850
:10439000F04304F08BBF0028BCBF0023C9F80030F5
:1043A000504B1B68002BB6D103B0BDE8F0835448D6
:1043B000474CFEF7F5FA5349A76EE66E09F05EFD2D
:1043C00009F05EFF226F636FD21B9B1B80B29A4283
:1043D000A0EB070067DC03FB00F393FBF2F333442D
:1043E0003C4E41483360022107F00AFB31684048E7
:1043F000394F04F0ABFF02213B4807F001FB326864
:10440000A06D636D02FB00F003FB00F000EB800089
:10441000400009F0DFFC314909F0E4FD01232B6085
:10442000D4F880303860012B294D7FF449AF3448EF
:10443000FEF7B6FA3349D5F86890D5F86C8009F0E4
:104440001DFD09F01DFF2A6F6B6F656DC9EB020240
:10445000C8EB030380B29A42C9EB0000D4F858902D
:10446000C6BF03FB00000132584390FBF2F040440A
:1044700000FB09F005FB00F000EB8000400009F0B4
:10448000A9FC164909F0AEFD804638601DE71E4BB9
:104490001B68012B4FF00A010CBF1C481C4807F099
:1044A000AFFAEB6F3CE703FB0000531C90FBF3F308
:1044B000334495E71021174807F0A2FAE36F32E77B
:1044C0000721154807F09CFA30E700BF7892FF1FDC
:1044D0004493FF1F3487FF1F9492FF1FE4388E3EE2
:1044E0000000C8423C87FF1F103801008C92FF1F5C
:1044F000D087FF1F2C2D0100642D01006C2D0100C1
:10450000F494FF1F00007A445087FF1F302D0100F4
:104510003C2D0100482D01005C2D010030B511201B
:1045200083B005F0E9FC012818D0122005F0E4FC66
:10453000012813D000210B2005F0D8FC00210C200D
:1045400005F0D4FC0021152005F0D0FC2649274BAE
:104550000120002208701A6003B030BD012115202F
:1045600005F0C4FC224A234C234B1268D4F8841073
:1045700001921B68019A1D4D0B4493424FF00201BA
:10458000296005D901210C2005F0B0FC03B030BD35
:10459000D4F88C0009F01EFC184B196809F00CFEC9
:1045A0000028EFD101210B2005F0A0FC94F8C030C9
:1045B00003242C6043B10C4B02221A7000210C2002
:1045C00005F094FC03B030BD122005F095FC0128E5
:1045D00008BF054B4FF0110008BF1C7005F08CFCA4
:1045E0000128EBD1E7E700BFAC94FF1FE494FF1F65
:1045F00068B9FF1F4493FF1FF094FF1F8C92FF1FA9
:10460000F0B5684E684D34682B689C4287B039D04D
:1046100014F0010155D014F0020149D014F0040146
:104620003DD0E3070ED52B68DF070BD45F4F3A6808
:10463000002A00F082805E4B1B680193019B93422D
:104640006DD83468A0070DD52B6899070AD4594F47
:104650003A68002A4CD0564B1B680393039B934245
:1046600038D8346862070DD52B685B070BD4524FDE
:104670003A68002A7ED04E4B1B680593059B9342F7
:1046800068D834680CB107B0F0BD2146162005F09B
:10469000ADFA2146172005F0A9FA07B0F0BD0520B4
:1046A00005F0A4FA2B68346803F0FB032B60B8E72D
:1046B000172005F09BFA2B68346803F0FD032B608C
:1046C000ACE7162005F092FA2B68346803F0FE037D
:1046D0002B60A0E7394B1720D3F8881005F086FA35
:1046E0002B68346843F0020300222B603A60B9E77C
:1046F000334804F0DBFD0C21324807F081F93048E3
:1047000004F0D4FDFF21172005F070FA284B2E4A43
:1047100019680291029912680A443A609CE7274B93
:104720001620D3F8881005F061FA2B68346843F03E
:10473000010300222B603A6084E7FF21162005F078
:1047400055FA1B4B204A19680091009912680A44D7
:104750003A6071E7194B0520D3F8881005F046FA46
:104760002B68346843F0040300222B603A60002C6D
:1047700089D18AE7124804F099FD0C21134807F00B
:104780003FF90F4804F092FDFF21052005F02EFAB5
:10479000074B0D4A19680491049912680A443A605B
:1047A0006AE700BFE494FF1F0894FF1F8094FF1F77
:1047B00068B9FF1F8494FF1F8894FF1F4493FF1F55
:1047C000D087FF1F702D01007087FF1F802D010013
:1047D0002DE9F047544EDFF87481DFF874913068AA
:1047E000524D00220F2103F095FA002301222221CD
:1047F0004F48C8F80030C9F8002007F001F9D8F890
:104800000030132B22DC40F6E44700213068B5F875
:1048100098A003F0D1FA00210446306803F052FA60
:10482000A4B2012107FB04F4B4FBF0F44148544462
:10483000A5F8984007F0E4F8642005F093FBD8F859
:1048400000300133132BC8F80030DEDDB5F89830A6
:10485000394A3A48A2FB03129B1A02EB5303C3F3F3
:104860000F131946A5F8983004F070FD1D21344847
:1048700007F0C6F80221334807F0C2F82F4804F0C9
:1048800015FD00231A460E213068C8F8003003F0E9
:1048900041FA022322212648C9F8003007F0B0F877
:1048A000D8F80030132B22DC40F6E44700213068B2
:1048B000B5F89A9003F080FA00210446306803F0BE
:1048C00001FAA4B2012107FB04F4B4FBF0F4194887
:1048D0004C44A5F89A4007F093F8642005F042FB99
:1048E000D8F800300133132BC8F80030DEDDB5F8FE
:1048F0009A30114A1148A2FB03129B1A02EB530390
:10490000C3F30F131946A5F89A3004F01FFD1D21BB
:104910000D4807F075F802210A4807F071F80748BA
:10492000BDE8F04704F0C2BCBC94FF1F4493FF1FD6
:10493000902D0100D42D010087611886D087FF1FBC
:10494000B42D010010380100D82D0100A494FF1FE0
:104950005087FF1FF8B5AB4BAB4CAC4E1B68306DAE
:1049600040F2513108222160E271002B40F01A819F
:1049700009F030FA7169054609F080FAA44909F096
:104980007DFA09F07DFC80B203126372A14AA24B4A
:1049900012681B68B1692072A37228461B12151297
:1049A000E3722273657309F069FA9949964D09F02B
:1049B00065FA09F065FC83B21A1229469748A37379
:1049C000E27304F0DBF896F8C13040F2553108226A
:1049D0002160E271002B40F0F680914B914A1B68F8
:1049E0001288AA72DFB203EB830107EB8700400055
:1049F00041F3D7111B1212122F72287369736B7255
:104A0000EA72814D854800232946A373E37304F0BD
:104A1000B5F896F8C130844840F25631082221603A
:104A2000E271002B00F0C380FDF73AFF07467E4895
:104A3000FDF734FF0146384609F016F97B4909F0C5
:104A40001DFA09F01DFC28727748FDF729FF07467B
:104A50007548FDF723FF0146384609F005F973490B
:104A600009F00CFA09F00CFC714B7049C0F30720F7
:104A70006872186809F0B6FA09F0DCFB0212034606
:104A80006948E272A372FDF72FFF614909F0F6F958
:104A900009F0F6FB20736448FDF726FF5C4909F036
:104AA000EDF909F0EDFB0025C0F3072356495B48FB
:104AB0006373A573E57304F061F8022005F052FA00
:104AC0005C4A5D4B177851789078277261721F7835
:104AD0005978A072987892F803E02773DA786173B6
:104AE000082740F25A33A07347494C4884F80BE03A
:104AF000E2732360E77104F041F8504B42491A78A1
:104B00005878227260729A78D878A272E0721A7914
:104B1000987993F805E02273A073DA793F4884F816
:104B20000DE040F25E33E2732360E77104F026F893
:104B3000022005F017FA424B33491A78587822724E
:104B400060729A78D878A272E0721A79987993F89C
:104B500005E02273A073DA79304884F80DE04FF451
:104B60005C73E2732360E77104F008F8022005F03B
:104B7000F9F9B26DE77142FA07FE012340F25F379F
:104B80000226227399222572657284F80DE027604F
:104B9000A672E372E373A2731B492048BDE8F84094
:104BA00003F0ECBF09F016F9316A0546E4E6FDF7BB
:104BB00079FE1E4909F062F909F062FB28721A4871
:104BC000FDF770FE4BE71848FDF764FE28721648A3
:104BD000FDF760FE124B1B68AB7202121B121248EB
:104BE0006A72EB72FDF756FE00EB800043000E4840
:104BF0002B73FDF74FFE00EB800040F3D710687376
:104C0000FFE600BF8092FF1FD494FF1F4493FF1F55
:104C100000002041B894FF1F6492FF1FA4B7FF1F3C
:104C20003487FF1F3887FF1FF494FF1F0000C8421E
:104C30008C92FF1F4093FF1FB094FF1F2C87FF1F14
:104C40005487FF1FF0B5914C914D83B006F072FE72
:104C500023682860042B00F09882092B6AD0022B6D
:104C60001FD0082B40F0F080322800F0F786712822
:104C700065D0312867D106F099FE002840F30C87F3
:104C80008448854E04F0A6FCC0B286F84000022895
:104C90008ABF0021014686F84010726C7F4800F000
:104CA000F0BEA0F13102422A4DD8DFE812F0BF0772
:104CB000830790079D07AE07BE004C004C004C00D8
:104CC0004C004C004C004C004C004C004C004C0084
:104CD0004C004C004C004C004C004C004C004C0074
:104CE0004C004C004C004C004C004C004C004C0064
:104CF0004C004C004C004C004C004C004C004C0054
:104D00004C004C004C004C004C004C004C004C0043
:104D10004C007D074C004C004C004C004C004C00FB
:104D20004C004C004C004C004C004C004C00480027
:104D30004C007107312800F04883712803D100230B
:104D4000732023602860002B08BF73280CBF01204C
:104D50000020002867D04F4804F0A8FA04215048EA
:104D600006F04EFE4B4804F0A1FA10214D4806F023
:104D700047FE484804F09AFA13214B4806F040FEDB
:104D80004A4B4448196804F0E1FA424804F08EFAAC
:104D90001421474806F034FE3E4804F087FA1E21ED
:104DA000444806F02DFE3B4804F080FA15214248A5
:104DB00006F026FE374804F079FA1E213F4806F037
:104DC0001FFE344804F072FA20213D4806F018FE18
:104DD000304804F06BFA19213A4806F011FE2D48CC
:104DE00004F064FA1221384806F00AFE294804F05B
:104DF0005DFA1921354806F003FE264804F056FAFC
:104E00000F21334806F0FCFD224804F04FFA0D2133
:104E1000304806F0F5FD1F4804F048FA2E4A0021FC
:104E200001231160236003B0F0BD0123236006F06D
:104E3000BDFD002805DD1748174E04F0CBFBA6F892
:104E4000BA00632023682860072B4BD1332801F078
:104E50006A8300F32582312801F0788332287FF4B9
:104E600072AF06F0A3FD00283ADD0A480A4E04F0AE
:104E7000B1FB08F0AFFF194909F000F861230122E6
:104E8000F06322602B601846A9E200BF9892FF1FD2
:104E90008892FF1FD087FF1F4493FF1FF494FF1FCA
:104EA00070360100783601008C3601002487FF1F20
:104EB000A0360100B8360100D8360100F0360100F6
:104EC000103701003437010050370100643701000A
:104ED00080370100903701003C87FF1F6F12833A33
:104EE00023682868062B40F08D80A0F13102402A0B
:104EF0003FF629AF01A151F822F000BF675B000027
:104F0000E15A0000435B00000B5B00002F5B0000D8
:104F1000A35A0000C55A0000474D0000474D00004D
:104F2000474D0000474D0000474D0000474D000031
:104F3000474D0000474D0000474D0000474D000021
:104F4000474D0000474D0000474D0000474D000011
:104F5000474D0000474D0000474D0000474D000001
:104F6000474D0000474D0000474D0000474D0000F1
:104F7000474D0000474D0000474D0000474D0000E1
:104F8000474D0000474D0000474D0000474D0000D1
:104F9000474D0000474D0000474D0000474D0000C1
:104FA000474D0000474D0000474D0000474D0000B1
:104FB000474D0000474D0000474D0000474D0000A1
:104FC000474D0000474D0000474D0000474D000091
:104FD000474D0000474D0000474D0000474D000081
:104FE000474D0000474D0000474D0000474D000071
:104FF000474D0000474D0000474D00003F4D000069
:1050000023682868052B15D1332801F0B58240F3B9
:105010005B81352801F0D782C1F2BF8271287FF40D
:1050200092AEB44A002373201360236028608AE69E
:1050300023682868032B40F0A480A0F13002422AA4
:105040003FF681AE01A151F822F000BF5951000096
:1050500079630000176200003F6200006162000097
:1050600083620000AB620000D3620000F1620000C6
:1050700015630000474D0000474D0000474D0000FC
:10508000474D0000474D0000474D0000474D0000D0
:10509000474D0000474D0000474D0000474D0000C0
:1050A000474D0000474D0000474D0000474D0000B0
:1050B000474D0000474D0000474D0000474D0000A0
:1050C000474D0000474D0000474D0000474D000090
:1050D000474D0000474D0000474D0000474D000080
:1050E000474D0000474D0000474D0000474D000070
:1050F000474D0000474D0000474D0000474D000060
:10510000474D0000474D0000474D0000474D00004F
:10511000B76100006F5D00003D6300005B6300004D
:10512000A1630000BF630000255D0000495D000031
:10513000474D0000474D0000474D0000474D00001F
:10514000474D0000474D0000474D0000474D00000F
:10515000D5610000E161000006F028FC002841F361
:10516000DB816548654E04F035FA012703460146A8
:1051700062226348736527602A60FDF795FB236808
:105180002868012B7FF4DFAD29E1A0F13102402A2C
:105190003FF6D9AD01A151F822F000BFE95C000053
:1051A000035D0000075D0000C95C0000CD5C0000ED
:1051B000ED5C00006B5C0000835C0000455C00005F
:1051C000474D0000474D0000474D0000474D00008F
:1051D000474D0000474D0000474D0000474D00007F
:1051E000474D0000474D0000474D0000474D00006F
:1051F000474D0000474D0000474D0000474D00005F
:10520000474D0000474D0000474D0000474D00004E
:10521000474D0000474D0000474D0000474D00003E
:10522000474D0000474D0000474D0000474D00002E
:10523000474D0000474D0000474D0000474D00001E
:10524000474D0000474D0000474D0000474D00000E
:10525000474D0000474D0000474D0000474D0000FE
:10526000474D0000474D0000474D0000474D0000EE
:10527000474D0000474D0000474D0000474D0000DE
:10528000474D0000474D0000474D0000474D0000CE
:10529000474D0000474D0000474D00003F4D0000C6
:1052A00034287FF44AAD06F081FB00287FF718AE62
:1052B0001148124E04F08EF961230122A6F8B800BD
:1052C00022602B6018468AE0312801F08A8132285A
:1052D0007FF439AD06F06AFB00287FF7A9AE0648D7
:1052E000064E04F077F901226B23C6F88C00226089
:1052F0002B6009E09C94FF1FD087FF1F4493FF1F82
:10530000F494FF1F06F016FB06F050FB0028F9D1BD
:10531000A24803F0CBFFA14803F0C8FF9F4803F069
:10532000C5FF9E4803F0C2FF9C4803F0BFFF212148
:105330009B4806F065FB994803F0B8FF1521994892
:1053400006F05EFBD6F88410944803F0FFFF0221BC
:10535000954806F055FB914803F0A8FF1E2193489D
:1053600006F04EFBD6F88C108C4803F0EFFF0321BB
:105370008F4806F045FB894803F098FF1E218D48B1
:1053800006F03EFBD6F88810844803F0DFFF834820
:1053900003F08CFF1D21884806F032FBD6F8A410DC
:1053A0007E4803F0D3FF7D4803F080FF1E21834831
:1053B00006F026FBD6F8A810784803F0C7FF774818
:1053C00003F074FF052323602DE57D4E96F8C13070
:1053D00001225340782086F8C13022602860A0F175
:1053E0005203262B01F28F80DFE813F01B088D0893
:1053F0008D088D088D088D088D088D088D088D0805
:105400008D088D088D088D088D0829009C09CC0217
:10541000EB0156018D088D088D0808018D0899094A
:105420008D088D088D088D088D0809088D088D0858
:105430008D088D088D088D089D0006F07BFA06F01A
:10544000B5FA05460028F8D154485D4E03F02EFF0A
:10545000524803F02BFF514803F028FF4F4803F058
:1054600025FF4E4803F022FF1F21564806F0C8FAD8
:105470004A4803F01BFF1C21534806F0C1FA706A2A
:10548000524908F0FBFC08F04FF8009502460B4625
:10549000424803F065FF02214D4806F0B1FA3F484B
:1054A00003F004FF23214B4806F0AAFAF06B4749AA
:1054B00008F0E4FC08F038F8009502460B4637483F
:1054C00003F04EFF0221424806F09AFA334803F0F7
:1054D000EDFE1921404806F093FAB06B08F024F86D
:1054E00002250B46024600952C4803F039FF294659
:1054F0003A4806F085FA294803F0D8FE19213848C1
:1055000006F07EFAB6F8B810244803F01FFF032116
:10551000344806F075FA214803F0C8FE07232360DB
:1055200081E406F007FA06F041FA0028F9D11B4899
:1055300003F0BCFE194803F0B9FE184803F0B6FEAC
:10554000164803F0B3FE154803F0B0FE15212648B7
:1055500006F056FA114803F0A9FE104803F0A6FE23
:105560002C21224806F04CFA0C4803F09FFE25211E
:105570001F4806F045FA124B084893F8C11003F093
:10558000E5FE064803F092FE13211A4806F038FAA9
:10559000024803F08BFE0923236044E4D087FF1FF9
:1055A000E83001000C310100F82F01002431010026
:1055B000182D0100443101006431010084310100E3
:1055C0004493FF1F443001006430010000007A441E
:1055D000DC2E010084300100A8300100C43001003D
:1055E000C8300100E430010068370100282E0100B6
:1055F000582E0100802E010006F09CF906F0D6F925
:1056000005460028F8D1BB48BB4E03F04FFEB94811
:1056100003F04CFEB74803F049FEB64803F046FEDF
:10562000B44803F043FE1521B44806F0E9F9B14847
:1056300003F03CFE1821B24806F0E2F92B460A229C
:1056400096F84010AB4803F041FEAA4803F02EFE46
:105650002821AC4806F0D4F9706CAB4908F00EFC78
:1056600007F062FF00950B460246A24803F078FE61
:105670000221A64806F0C4F99E4803F017FE132144
:10568000A34806F0BDF99B4803F010FE08232360F1
:10569000FFF7C9BB06F04EF906F088F90546002869
:1056A000F8D19448944E03F001FE924803F0FEFDB9
:1056B000904803F0FBFD8F4803F0F8FD8D4803F0A0
:1056C000F5FD1121934806F09BF98A4803F0EEFDA1
:1056D0002821914806F094F970698B4908F0CEFBB7
:1056E00007F022FF009502460B46824803F038FE81
:1056F0000221864806F084F97E4803F0D7FD162182
:10570000864806F07DF9F0697F4908F0B7FB07F09D
:105710000BFF00950B460246764803F021FE02215E
:105720007A4806F06DF9734803F0C0FDD6F8B03042
:10573000002B32DD1D217A4806F062F9F06D08F089
:1057400049FB784908F09AFB07F0EEFE0225024675
:105750000B460095674803F003FE0121724806F0EE
:105760004FF9644803F0A2FD1F21704806F048F984
:10577000306E08F02FFB6B4908F080FB07F0D4FE79
:10578000009502460B465B4803F0EAFD012166489E
:1057900006F036F9574803F089FD1121644806F0F8
:1057A0002FF9D6F8B030062B00F25886DFE813F058
:1057B000A106A6069C06970692068D06520606F0DE
:1057C000B9F806F0F3F80028F9D14A4803F06EFD65
:1057D000484803F06BFD474803F068FD454803F077
:1057E00065FD444803F062FD1321524806F008F9B4
:1057F000404803F05BFD0D214F4806F001F93D489C
:1058000003F054FD0F214D4806F0FAF84C4B39488F
:10581000196803F09BFD374803F048FD1321494800
:1058200006F0EEF8484B3348196803F08FFD314815
:1058300003F03CFD1221454806F0E2F8444B2D48A8
:10584000196803F083FD2B4803F030FD1121414816
:1058500006F0D6F8404B2748196803F077FD254835
:1058600003F024FD0E213D4806F0CAF8224B2148E2
:10587000D3F8A01003F06AFD1E4803F017FD1921AC
:10588000374806F0BDF8374B1A48196803F05EFD3B
:10589000184803F00BFD1121334806F0B1F8334BE3
:1058A0001448196803F052FD124803F0FFFC102160
:1058B0002F4806F0A5F82F4B0E48196803F046FD57
:1058C0000C4803F0F3FC1C212B4806F099F82B4BF5
:1058D0000848196803F03AFD064803F0E7FC132175
:1058E0000B4806F08DF8034803F0E0FC0423236026
:1058F000FFF799BAD087FF1F4493FF1F3837010085
:10590000942E0100B02E010000007A44DC2E01002C
:10591000802E0100DC360100E02E01000C2F01007A
:10592000242F0100CDCCCC3DC8330100442F010011
:10593000642F0100A4310100B8310100C831010019
:105940007C94FF1FD8310100E894FF1FEC31010067
:10595000CC94FF1F00320100D094FF1F14320100CD
:1059600024320100A094FF1F403201009C94FF1FCD
:10597000543201008492FF1F683201006487FF1FC8
:1059800005F0D8FF06F012F80028F9D1BE48BF4E46
:1059900003F08CFCBC4803F089FCBB4803F086FC98
:1059A000B94803F083FCB84803F080FC1F21B848D5
:1059B00006F026F8B44803F079FC1E21B54806F03D
:1059C0001FF8B14803F072FC1A21B34806F018F82A
:1059D000F36F022B00F07286032B00F06686012B1A
:1059E00000F075860921AD4806F00AF8A64803F0D4
:1059F0005DFC1421AA48A54F06F002F8B16FA24839
:105A000003F0A4FCA04803F051FC1C21A54805F0BC
:105A1000F7FFD6F880109C4803F098FC9A4803F0F2
:105A200045FC1C21A04805F0EBFFD6F8AC109648C9
:105A300003F08CFC944803F039FCF56F25F0020567
:105A4000012D00F0EC851321984805F0D9FF8E4810
:105A500003F02CFC02232360FFF7E5B905F0A6FF55
:105A6000002815DD8848894E03F0B4FD08F0B2F92E
:105A70008F4908F003FA96F84010034602468D4815
:105A80007364FCF713FF0123692023602860A6E4F8
:105A900023682868FFF7D8B97C4E96F84000FFF7D6
:105AA000F6B805F083FF00287FF7AAAA7648774E5C
:105AB00003F090FD65230122C6F8B40022602B603C
:105AC00018468CE4714B93F8C020002A00F09A85A8
:105AD000002283F8C02001236520236028607EE433
