:1000000000800020BD010000498900000189000036
:1000100001890000018900000189000001890000B8
:100020000189000001890000018900004989000060
:1000300049890000018900007DA8000081A9000015
:100040004989000049890000498900004989000068
:100050004989000049890000498900004989000058
:100060004989000049890000498900004989000048
:100070004989000049890000498900004989000038
:100080004989000049890000498900004989000028
:100090004989000049890000498900004989000018
:1000A0004989000049890000498900004989000008
:1000B00049890000E5840000F1840000F584000017
:1000C00001850000058500000985000049890000C0
:1000D00049890000498900004989000049890000D8
:1000E00049890000498900004989000049890000C8
:1000F000498900008DB0000049890000E5950000A5
:1001000049890000FD9800004989000049890000E4
:100110004989000049890000498900004989000097
:100120004989000049890000498900004989000087
:100130004989000049890000498900004989000077
:100140004989000049890000498900004989000067
:100150004989000049890000498900004989000057
:1001600049890000499B0000498900004989000035
:100170004989000049890000498900004989000037
:100180004989000049890000498900004989000027
:100190004989000049890000498900004989000017
:1001A0004989000049890000498900004989000007
:1001B000498900004989000049890000564B4CF2EA
:1001C000205210B51A804DF628121A8000BF00BFC9
:1001D00008F0BEFB514B4FF010621A60504A9A6013
:1001E000504ADA60504A136813F4807304D14F49BF
:1001F0000B604FF4A85313604D4B1A78110703D5C9
:100200001A7842F008021A704A4B4B492A221A7097
:100210004A4A4B4B8B4204D252F8040F43F8040B6A
:10022000F8E7484B484900228B4202D243F8042B9E
:10023000FAE74649464A002352F8230041F82300D2
:1002400001336F2BF8D1434B434A802103F8011B44
:100250009342FBD1414B3D4A1A60414B8A221A70AE
:10026000A3F5805324225A70A0221A709A7992071B
:10027000FCD59A79D406FCD43A4A937903F00C035E
:10028000082B384BF9D103221A7140225A719A79FE
:100290009006FCD5334A9179324B4906FBD5324A58
:1002A000324911600221516020221A709A7902F0BD
:1002B0000C020C2AFAD12E4B2E4A1A602E4B2F4AD2
:1002C0001A6000225A60072243F8042C2C4AC3F813
:1002D0000C2D62B608F0F2FD144B1B68DA0705D549
:1002E000284808F0CFFB284B284A1A60284B1B7877
:1002F0005B0609D5244C254B22689A4204D121483B
:1003000008F0C0FB002323600DF0C4F908F026FBC1
:100310000AF07CFDFEE700BF0E200540308004405F
:10032000823F04000100002B10D0034014D0034092
:1003300002D0074000E007403892FF1FAC310100B7
:100340002087FF1F3892FF1F30BCFF1F0082FF1F56
:100350000000000000E400E05FE400E008ED00E0E1
:100360000050064000400640448004400000030165
:1003700004800440C010050014E000E0FF76010096
:10038000000020206D8E3B5C1CE00340A5C3945A06
:1003900000F00740FFFFFFFFFFFFFFFFFFFFFFFF32
:1003A000FFFFFFFFFFFFFFFFFFFFFFFFFFFFFFFF5D
:1003B000FFFFFFFFFFFFFFFFFFFFFFFFFFFFFFFF4D
:1003C000FFFFFFFFFFFFFFFFFFFFFFFFFFFFFFFF3D
:1003D000FFFFFFFFFFFFFFFFFFFFFFFFFFFFFFFF2D
:1003E000FFFFFFFFFFFFFFFFFFFFFFFFFFFFFFFF1D
:1003F000FFFFFFFFFFFFFFFFFFFFFFFFFFFFFFFF0D
:10040000FFFFFFFFFFFFFFFFFFFFFFFFDEF9FFFF23
:1004100010B5054C237833B9044B13B10448AFF33E
:1004200000800123237010BD3892FF1F00000000E0
:10043000A8310100084B10B51BB108490848AFF3BB
:1004400000800848036803B910BD074B002BFBD0A0
:10045000BDE81040184700BF000000003C92FF1F9D
:10046000A83101003892FF1F00000000F0B400F135
:1004700014060F4F00243146031F00F12C0243F8ED
:10048000044FB34241F8047F4FF0000542F8044F97
:10049000F5D1084B084985640022C56405654565AA
:1004A000456683650366C16580F88420F0BC7047AB
:1004B0000000A040000048430000C8C200230360C1
:1004C00043608360C3600361436183640365436584
:1004D000836570472DE9F04190F8844084B0002393
:1004E00064008DF80530E4B2012380468DF80440A5
:1004F0008DF806300327204609F09CF902210DF102
:10050000050009F0A1F98DF8044002F0A3FB30B317
:100510000921C9480AF04CF8002310222146C74897
:100520000AF0ECFA0121C6480AF042F80023102232
:100530009DF80510C1480AF0E1FA0121C0480AF00F
:1005400037F8002310229DF80610BC480AF0D6FAAE
:100550000121BB480AF02CF8B8480AF0BFFA022083
:100560008DF8044008F05CFC02F074FB002840F0B9
:10057000778102AE002409F07DF9002800F0268181
:10058000042C40F0158101E009F084F909F072F9BA
:100590000028F9D102F05EFB10B1A8480AF09EFADB
:1005A00098F884406400E4B2202204238DF80440CB
:1005B0008DF805208DF806300327204609F03AF91A
:1005C00002210DF1050009F03FF98DF8044002F019
:1005D00041FB30B30921984809F0EAFF00231022BB
:1005E000214696480AF08AFA0121954809F0E0FF71
:1005F000002310229DF8051090480AF07FFA01218F
:100600008F4809F0D5FF002310229DF806108B4873
:100610000AF074FA01218A4809F0CAFF87480AF0F3
:100620005DFA02208DF8044008F0FAFB02F012FB9C
:10063000002840F00B8102AE002409F01BF90028CD
:1006400000F0A980072C40F0988001E009F022F921
:1006500009F010F90028F9D102F0FCFA10B177483E
:100660000AF03CFA98F884409DF80B209DF80C3075
:100670009DF80D00C8F870206400E4B29DF80E10DB
:10068000C8F87430332201238DF80440C8F878008C
:10069000C8F87C108DF805208DF806300327204619
:1006A00009F0C8F802210DF1050009F0CDF88DF828
:1006B000044002F0CFFA30B309215F4809F078FF17
:1006C0000023102221465D480AF018FA01215C48F7
:1006D00009F06EFF002310229DF8051057480AF01C
:1006E0000DFA0121564809F063FF002310229DF8FE
:1006F000061052480AF002FA0121514809F058FF49
:100700004E480AF0EBF902208DF8044008F088FB0F
:1007100002F0A0FA002840F09E8002AE002409F00A
:10072000A9F8F8B1042C0FD101E009F0B3F809F0F1
:10073000A1F80028F9D102F08DFA10B13F480AF073
:10074000CDF904B0BDE8F08109F0A4F8054606F83B
:10075000010B02F07FFA00285AD1013409F08AF81F
:100760000028DFD1042CE2D002F074FA00285ED118
:10077000013FE6D09DF8044091E709F08BF805466B
:1007800006F8010B02F066FA60BB013409F072F85A
:1007900000287FF457AF072C3FF45AAF02F05AFA03
:1007A00000284FD1013F3FF45DAF9DF8044004E7BE
:1007B00009F070F8054606F8010B02F04BFAE0B9B3
:1007C000013409F057F800287FF4DAAE042C3FF426
:1007D000DDAE02F03FFA30BB013F3FF4E1AE9DF8E1
:1007E000044088E6E9B20023102214480AF086F992
:1007F0000121134809F0DCFEC7E7E9B2002310220B
:100800000E480AF07BF901210D4809F0D1FED7E727
:10081000E9B20023102209480AF070F901210848C2
:1008200009F0C6FE99E705480AF058F9D4E70348ED
:100830000AF054F99CE700BF58180100D887FF1F41
:10084000881F010009480AF049F9ABE70721084869
:1008500009F0AEFEEFE60721054809F0A9FE5CE7C6
:100860000721034809F0A4FE83E600BFD887FF1FD5
:100870006418010090F87400704700BF90F8700091
:10088000704700BF90F87800704700BF90F87C0078
:10089000704700BF2DE9F04390F8848085B04FEA9F
:1008A00048085FFA88F8322200238DF804808DF81A
:1008B00005208DF8063003250DF1060748F00109E3
:1008C000484608F0B7FF01AE0DF10500022108F01F
:1008D000BBFF8DF804904A46334600205040082460
:1008E00010F0800F4FEA400018BF80F00700013C75
:1008F000C0B2F5D1BB4202D013F8012FEEE708F0E9
:1009000099FF02F0A7F900284AD102208DF804804F
:1009100008F086FA02F09EF9002840F081800DF17F
:100920000808002408F0A6FF08B3042C12D101E047
:1009300008F0B0FF08F09EFF0028F9D102F08AF914
:1009400010B13A480AF0CAF8022008F069FA05B076
:10095000BDE8F08308F09EFF08F8010B064602F0A0
:1009600079F970B9013408F085FF0028DDD1042C35
:10097000E0D002F06FF978B9013DE5D09DF8048030
:100980009CE7F1B20023102228480AF0B7F80121B1
:10099000274809F00DFEE5E724480AF09FF8EBE749
:1009A0000921244809F004FE2346102249461F4825
:1009B0000AF0A4F801211E4809F0FAFD234610228E
:1009C0009DF8051019480AF099F80121184809F016
:1009D000EFFD102223469DF8061014480AF08EF809
:1009E0000121134809F0E4FD21460DF1070216F834
:1009F000014B6140C9B2082311F0800F4FEA410159
:100A000018BF81F00701013BC9B2F5D1B242EED166
:100A1000102206480AF072F804480AF05FF874E7FA
:100A20000721054809F0C4FD79E700BFD887FF1FFB
:100A3000881F010058180100641801002DE9F04FCB
:100A4000074691B097F8843002205B008DF808309B
:100A500008F0E6F997F8843038465B008DF80830E6
:100A6000FFF738FDB86FFC6F7B6F3A6F97F8841013
:100A70008DE81100C94802F0F3F930223D238DF8CA
:100A800009208DF80A3003260DF10A059DF808901B
:100A900049F00108404608F0CDFE0DF109000221A1
:100AA00008F0D2FE8DF80880424602AB002050408C
:100AB000082410F0800F4FEA400018BF80F00700B4
:100AC000013CC0B2F5D19D4202D013F8012FEEE7F0
:100AD00008F0B0FE02F0BEF8002840F07D8202204F
:100AE0008DF8089008F09CF902F0B4F8002840F066
:100AF000B9820DF10C0AD146002408F0BBFE002893
:100B000043D0032C34D101E008F0C4FE08F0B2FE5B
:100B10000028F9D102F09EF810B1A14809F0DEFFDB
:100B2000312303268DF809308DF80A609DF808906E
:100B300049F00108404608F07DFE0DF10900022150
:100B400008F082FE8DF80880424602AB002050403B
:100B5000082410F0800F4FEA400018BF80F0070013
:100B6000013CC0B2F5D19D4228D013F8012FEEE729
:100B700008F090FE09F8010B804602F06BF868B9A6
:100B8000013408F077FE0028BBD1032CBED002F060
:100B900061F878B9013E7FF479AFC1E75FFA88F177
:100BA000002310227E4809F0A9FF01217D4809F0A9
:100BB000FFFCE5E77A4809F091FFEBE708F03AFE21
:100BC00002F048F8002840F0C68102208DF8089015
:100BD00008F026F902F03EF8002840F03E820DF1C0
:100BE0000C09002408F046FE002844D0032C35D11F
:100BF00001E008F04FFE08F03DFE0028F9D102F0B8
:100C000029F810B1664809F069FF342201238DF8F4
:100C100009208DF80A3003269DF8089049F0010854
:100C2000404608F007FE0DF10900022108F00CFE15
:100C30008DF80880424602AB00205040082410F096
:100C4000800F4FEA400018BF80F00700013CC0B29F
:100C5000F5D19D4228D013F8012FEEE708F01AFED7
:100C600009F8010B804601F0F5FF68B9013408F07E
:100C700001FE0028BAD1032CBDD001F0EBFF78B9FA
:100C8000013E7FF453AFC0E75FFA88F100231022E2
:100C9000434809F033FF0121424809F089FCE5E7A8
:100CA0003F4809F01BFFEBE708F0C4FD01F0D2FF5D
:100CB000002840F00F8102208DF8089008F0B0F86D
:100CC00001F0C8FF002840F0D7810DF10C09002485
:100CD00008F0D0FD002800F08580032C73D101E0DE
:100CE00008F0D8FD08F0C6FD0028F9D101F0B2FFE8
:100CF00010B12B4809F0F2FE012212238DF80920D1
:100D00008DF80A304FF003089DF80840204608F09F
:100D100091FD02210DF1090008F096FD8DF80840C3
:100D200001F098FF30B309211F4809F041FC00236E
:100D3000102221461A4809F0E1FE0121194809F064
:100D400037FC002310229DF80910154809F0D6FE43
:100D50000121144809F02CFC002310229DF80A10F0
:100D60000F4809F0CBFE01210E4809F021FC0C4888
:100D700009F0B4FE06208DF8084008F051F801F0A3
:100D800069FF002840F0738103AD002608F072FD72
:100D9000002840D0162E30D10AE000BF6C180100A8
:100DA000D887FF1F881F01005818010008F072FD46
:100DB00008F060FD0028F9D101F04CFF162600284C
:100DC0007DD1152035E008F065FD09F8010B80465E
:100DD00001F040FF00285BD1013408F04BFD0028F2
:100DE0007FF47BAF032C3FF47DAF01F033FF00288D
:100DF0006CD1013E7FF410AF7EE708F04BFD05F8A3
:100E0000010B044601F026FF00284DD1013608F001
:100E100031FD0028BED1162ECAD001F01BFF0028DC
:100E20004DD1B8F101087FF46FAF701E002840F378
:100E30002D82002303AA1C4612F8011B08254C40F2
:100E400014F0800F4FEA440418BF84F00704013DFA
:100E5000E4B2F5D101338342EEDB9DF8218089486D
:100E60004146224601F0FCFF162EC146A34602D1A0
:100E7000A04500F0138197F884108348CDF800B0A6
:100E80004B46324602F01AF8002011B0BDE8F08F50
:100E90005FFA88F1002310227C4809F02FFE01211F
:100EA0007B4809F085FB97E7E1B2002310227748E1
:100EB00009F024FE0121764809F07AFBA6E7734881
:100EC00009F00CFE162EACD11520B2E76F4809F0E0
:100ED00005FE8EE709216F4809F06AFB23461022C0
:100EE00041466A4809F00AFE0121694809F060FBA1
:100EF000234610229DF80910644809F0FFFD0121E6
:100F0000634809F055FB102223469DF80A105F48FC
:100F100009F0F4FD01215E4809F04AFB21460DF17C
:100F20000B0002AA12F8014B6140C9B2082311F06C
:100F3000800F4FEA410118BF81F00701013BC9B2A0
:100F4000F5D19042EED11022504809F0D7FD4F481C
:100F500009F0C4FDAFE609214E4809F029FB2346FC
:100F600010224146494809F0C9FD0121484809F0CD
:100F70001FFB234610229DF80910444809F0BEFDCE
:100F80000121434809F014FB102223469DF80A1062
:100F90003E4809F0B3FD01213D4809F009FB214617
:100FA0000DF10B0002AA12F8014B6140C9B20823EF
:100FB00011F0800F4FEA410118BF81F00701013B9A
:100FC000C9B2F5D19042EED11022304809F096FD19
:100FD0002E4809F083FDF8E509212E4809F0E8FACA
:100FE000234610224146294809F088FD012128485E
:100FF00009F0DEFA234610229DF80910234809F073
:101000007DFD0121224809F0D3FA102223469DF8E4
:101010000A101E4809F072FD01211D4809F0C8FAA6
:1010200021460DF10B0002AA12F8014B6140C9B232
:10103000082311F0800F4FEA410118BF81F007012A
:10104000013BC9B2F5D19042EED110220F4809F010
:1010500055FD0E4809F042FD41E507210E4809F013
:10106000A7FABCE507210C4809F0A2FA41E50721DF
:10107000094809F09DFA87E60721074809F098FA20
:1010800023E600BFA0180100EC180100D887FF1F5D
:10109000881F010058180100641801009DF80C30E9
:1010A00097F88420B3EB420F7FF4EEAE9DF80D303D
:1010B000012B7FF4E9AE9DF80E30122B7FF4E4AEE5
:1010C0009DF810309DF80F0003EB00200CF066F83F
:1010D0007A490CF0B7F8796EF86404460CF06EFAB1
:1010E00000B17C66396E20460CF04AFA00B13C66CD
:1010F0003D1FAB4607F1180807F130064FF006090F
:101100009AF806309AF8050003EB00200CF046F838
:101110006B490CF097F84BF8040FD8F80010044610
:101120000CF02EFA0AF1020A30B1B96E20460CF02A
:101130003BFA08B1C8F80040316820460CF03EFA8E
:1011400008F1040800B13460B9F1010906F10406A0
:10115000D6D10020B86407F1140455F8041F0BF031
:1011600069FFAC42F9D19DF81D209DF81E30B8648E
:1011700003EB022002300CF011F852490CF016F982
:10118000014651480CF012F950490BF051FF5049FB
:101190000CF058F805460AF0C3F8044628460AF051
:1011A000BFF84C490AF02EF94B49054620460CF091
:1011B00049F84A490BF03EFF4949044628460CF0DD
:1011C00041F8014620460BF035FF01464FF07E50B6
:1011D0000CF0ECF843490BF02BFF9DF81F209DF815
:1011E0002030386503EB022009300BF0D7FF3E4971
:1011F0000CF0DCF8014634480CF0D8F833490BF019
:1012000017FF33490CF01EF805460AF089F804462A
:1012100028460AF085F82F490AF0F4F82E490546C9
:1012200020460CF00FF82D490BF004FF2C49044622
:1012300028460CF007F8014620460BF0FBFE01465D
:101240004FF07E500CF0B2F826490BF0F1FE3D6DE8
:101250007865294604460CF0B1F9B96D30BB2046DB
:101260000CF08EF908B12346BB65294620460CF0E8
:10127000A5F9A0B92946F86D0CF082F908B12C4601
:10128000FC651A4801F0ECFD0120FEE59DF8219077
:10129000174849464246C34601F0E2FDEBE5F96DC9
:1012A00020460CF08BF90028EAD1EAE728460CF03A
:1012B00067F90028F3D02B46D6E700BF6B57053BF4
:1012C0002003C839001601470AD7E33FE17A64409A
:1012D00000007A4400004040A40D8F395A80473AFC
:1012E00046A6DB3333938843002C0147C418010022
:1012F000A0180100052994BF50F821000020704774
:101300002DE9F0410B4E8046041F00F1140754F8FC
:10131000045F314628460CF033F930B1D8F8681034
:1013200028460CF04BF900B12E46BC42EFD13046B6
:10133000BDE8F08100002041F8B50026041F00F14F
:10134000140754F8045F314628460CF037F900B111
:101350002E46BC42F5D13046F8BD00BF2DE9F0471E
:10136000876E82464FF00009041F00F114064FF00B
:10137000000854F8045F394628460CF01FF90D495F
:1013800050B128460CF0FCF830B1484629460BF025
:1013900051FE08F101088146B442EAD1CAF88880BA
:1013A00040460BF0FBFE014648460BF0FFFFBDE850
:1013B000F08700BF00007042D0F88800704700BF7F
:1013C00038B5456D046D294620460CF0D9F800B9B2
:1013D0002C46204638BD00BF38B5446D056D21460A
:1013E00028460CF0CDF800B92C46204638BD00BF89
:1013F00008B5D0F880301BB1133350F8230008BD76
:10140000416D006D0BF016FE4FF07C510BF01AFF92
:1014100008BD00BF806C704701299ABF143150F895
:1014200021000020704700BF3E2998BF80F884103B
:10143000704700BF90F86C00704700BFC0F8801084
:10144000704700BF80F86C10704700BF816670471E
:1014500070B500F50A550646143500F12004204603
:101460008C34FFF703F8AC42F9D106F1AC05012446
:1014700028460021FFF7E6FF214628460134FFF702
:10148000D3FF3F2C05F18C05F2D142F29C240025BC
:101490000548064A064B3555002130617161B2613D
:1014A000F361304670BD00BF00007A44000048433D
:1014B0000000C8C238B500F50A55143500F1AC0477
:1014C00002E08C34AC420AD02046FFF7B3FF00287C
:1014D000F7D020468C34FEF7F1FFAC42F4D138BD92
:1014E0002DE9F04142F2A02300F50A5637460022CA
:1014F0008046C2501436203700F1AC0402E08C3430
:10150000B4420DD02046FFF795FF0028F7D02046C3
:101510003D68FFF751FF8C342844B4423860F1D164
:1015200042F2A02358F80300BDE8F0812DE9F04F06
:1015300091B0012A00928146059100F0F68109F1EF
:10154000AC0A4FF0010B5046FFF774FFC0B1002505
:101550002C46012629465046D9F80870FFF7CAFEE6
:10156000014638460CF00CF818B106FA05F31C4396
:10157000E4B20135062DEDD1009B012B0AD0F4B960
:101580000BF1010BBBF13F0F0AF18C0ADBD111B05B
:10159000BDE8F08F5946B94809F0F0FA0321B84880
:1015A00009F006F8214600230222B44809F0A6FA01
:1015B0000321B44808F0FCFF002C00F0F7804FEA4C
:1015C0004B03DBB21946019343F001039DF814204D
:1015D00002931D46184633238DF81E208DF81D30CA
:1015E0008DF81C1008F026F90DF11D00022108F0FD
:1015F0002BF907AA04928DF81C502A4607AB0DF16F
:101600001E0600205040082510F0800F4FEA4000D1
:1016100018BF80F00700013DC0B2F5D19E4202D054
:1016200013F8012FEEE708F005F901F013FB00288D
:1016300040F0E2809DF804308DF81C30022007F065
:10164000EFFB01F007FB002840F06A8108AB039331
:101650001F46002508F00EF9002844D01E2D35D174
:1016600001E008F017F908F005F90028F9D101F0B8
:10167000F1FA00283DD1009B012B40D08DF81E408F
:10168000029C9DF804208DF81C20322320468DF802
:101690001D3008F0CFF80DF11D00022108F0D4F83C
:1016A0008DF81C4007AB224600205040082410F063
:1016B000800F4FEA400018BF80F00700013CC0B225
:1016C000F5D19E423BD013F8012FEEE708F0E2F887
:1016D00007F8010B804601F0BDFA20BB013508F088
:1016E000C9F80028BAD11E2DBDD001F0B3FA0028E8
:1016F000C1D0624809F0F2F9009B012BBED1039DD5
:1017000009AF15F8011B5D480023102209F0F6F916
:1017100001215D4808F04CFFBD42F2D10321594838
:1017200008F046FFAAE75FFA88F100231022534829
:1017300009F0E4F90121554808F03AFFCEE708F036
:1017400079F801F087FA002840F0A4809DF8043071
:101750008DF81C30022007F063FB01F07BFA0028B3
:1017600040F0D980039D002408F084F878B31E2C43
:1017700020D101E008F08EF808F07CF80028F9D1BB
:1017800001F068FA48BB009B012B7FF4F9AE039D82
:1017900009AC15F8011B39480023102209F0AEF9F5
:1017A0000121394808F004FFA542F2D1334809F07D
:1017B00095F9E5E608F06EF805F8010B064601F02C
:1017C00049FA70B9013408F055F80028CFD11E2C21
:1017D000D2D001F03FFA0028D5D0284809F07EF990
:1017E000D1E7F1B200231022244809F087F9012142
:1017F000264808F0DDFEE5E70921254808F0D8FE77
:101800002B46102202991D4809F078F901211F4842
:1018100008F0CEFE2B4610229DF81D10174809F047
:101820006DF90121194808F0C3FE10222B469DF8DE
:101830001E10124809F062F90121144808F0B8FEA0
:1018400029460DF11F0007AA12F8013B5940C9B201
:10185000082311F0800F4FEA410118BF81F0070102
:10186000013BC9B2F5D19042EED11022034809F0F4
:1018700045F9024809F032F9DCE600BFD887FF1FBE
:101880003C1901004019010044190100881F0100A2
:10189000581801000921274808F08AFE2346102223
:1018A0000299254809F02AF90121244808F080FE10
:1018B000234610229DF81D101F4809F01FF9012131
:1018C0001E4808F075FE102223469DF81E101A4887
:1018D00009F014F90121194808F06AFE049821461C
:1018E0000DF11F0210F8013B5940C9B2082311F055
:1018F000800F4FEA410118BF81F00701013BC9B2D7
:10190000F5D18242EED110220B4809F0F7F80A48CF
:1019100009F0E4F81AE70721094808F049FE21E731
:101920000721074808F044FE90E6034809F0D6F87E
:1019300005E600BF58180100D887FF1F881F010067
:10194000641801002DE9F04F824685B04FF0000980
:1019500001238DF800908DF801908DF802304FF042
:1019600003080024204607F065FF02210DF1010065
:1019700007F06AFF8DF8004001F06CF930B30921DF
:10198000B54808F015FE002310222146B34809F09F
:10199000B5F80121B24808F00BFE002310229DF893
:1019A0000110AE4809F0AAF80121AD4808F000FE88
:1019B000002310229DF80210A84809F09FF8012189
:1019C000A74808F0F5FDA54809F088F802208DF831
:1019D000004007F025FA01F03DF9002840F0898029
:1019E00001AF3E46002407F045FF002867D0042CD5
:1019F00058D101E007F04EFF07F03CFF0028F9D175
:101A000001F028F910B1954809F068F89DF8043004
:101A1000802B40F01E819DF80530002B40F019818D
:101A20009DF80640012C40F014818E4801F018FA10
:101A30000AF1AC06254604E001353F2D06F18C067F
:101A400086D03046FFF7F6FC83460028F4D13B22CF
:101A500065F07F0301208DF801208DF802308DF8AC
:101A600000B007F0E7FE0DF10100022107F0ECFEE7
:101A700001228DF80020E84658466B460DF102021F
:101A80006040C0B2082410F0800F4FEA400018BF39
:101A900080F00700013CC0B2F5D193422ED013F87C
:101AA000014FEDE707F0F6FE06F8010B054601F0E1
:101AB000D1F898B9013407F0DDFE002897D1042C45
:101AC0009AD001F0C7F810B1644809F007F8B8F1EE
:101AD000010800F0BE809DF8004043E7E9B2002312
:101AE00010225E4809F00AF801215D4808F060FD07
:101AF000E0E707215C4808F05BFD71E707F09AFE1C
:101B000001F0A8F800285AD103208DF8009007F0C2
:101B100087F901F09FF8002840F09680002407F034
:101B2000A9FEB0B30A2C27D101E007F0B3FE07F0FD
:101B3000A1FE0028F9D101F08DF800287FD19DF891
:101B40000430812B7FF404AF9DF805303B2B7FF4EC
:101B5000FFAE9DF806308035AB427FF4F9AE3046DB
:101B60000121FFF76FFC0AF50A5340489A690132D8
:101B70009A6101F075F9EBE607F08CFE07F8010BAE
:101B8000804601F067F870B9013407F073FE002851
:101B9000C8D10A2CCBD001F05DF8002850D1022C1E
:101BA0007FF7D6AECBE75FFA88F1002310222B48EF
:101BB00008F0A4FF01212A4808F0FAFCE4E7092113
:101BC000254808F0F5FC234610220121234808F09F
:101BD00095FF0121224808F0EBFC234610229DF8D6
:101BE00001101E4808F08AFF01211D4808F0E0FCA2
:101BF000102223469DF80210184808F07FFF0121AB
:101C0000174808F0D5FC21460DF1030218F8014BE6
:101C10006140C9B2082311F0800F4FEA410118BF9B
:101C200081F00701013BC9B2F5D14245EED1102246
:101C30000A4808F063FF094808F050FF64E70A24E7
:101C4000064808F04BFFAAE70721074808F0B0FC58
:101C500064E705B0BDE8F08F58180100D887FF1F72
:101C6000881F01004819010064180100541901007F
:101C70002DE9F04742F2982284B0002301278350D7
:101C800082468DF804308DF8053000F1AC088DF8EF
:101C900006704FEA47095FFA89F400214046FFF7D2
:101CA000D1FB20468DF8044007F0C4FD02210DF160
:101CB000050007F0C9FD8DF8044000F0CBFF30B3FC
:101CC0000921494808F074FC0023102221464748A6
:101CD00008F014FF0121464808F06AFC0023102296
:101CE0009DF80510414808F009FF0121404808F01F
:101CF0005FFC002310229DF806103C4808F0FEFE11
:101D000001213B4808F054FC384808F0E7FE142055
:101D10008DF8044007F084F800F09CFF00285DD1A6
:101D200002AE002407F0A6FD40B3082C19D101E053
:101D300007F0B0FD07F09EFD0028F9D100F08AFF02
:101D4000002846D19DF808304B4522D001370520A8
:101D500007F066F83F2F08F18C089AD104B0BDE86F
:101D6000F08707F097FD054606F8010B00F072FFBB
:101D700020BB013407F07EFD0028D6D1082CD9D035
:101D800000F068FF30BB042CE0DD9DF808304B45C7
:101D9000DCD19DF80930002BD8D19DF80A1001291B
:101DA000D4D19DF80C30002BD0D04046FFF74AFB31
:101DB0000AF50A539A6901329A61C7E7E9B200232A
:101DC00010220A4808F09AFE0121094808F0F0FBA9
:101DD000CFE70824054808F081FED4E7072105482D
:101DE00008F0E6FB9CE700BF58180100D887FF1FEA
:101DF000881F0100641801002DE9F04700F50A561C
:101E0000354684B080461436183500F1AC040027FE
:101E1000204600218C34FFF715FBB4422F60F7D128
:101E200002270DF106064FF07F093C22A5237E21F3
:101E30007F208DF805208DF806308DF8041001AD57
:101E400007F0F8FC0DF10500022107F0FDFC8DF80C
:101E500004902B467F2200205040082410F0800F71
:101E60004FEA400018BF80F00700013CC0B2F5D136
:101E7000B34202D013F8012FEEE707F0DBFC00F0CD
:101E8000E9FE00285AD17E2364208DF8043006F044
:101E9000C7FF00F0DFFE002840F090800DF1080A37
:101EA000002407F0E7FC20B3082C15D101E007F06F
:101EB000F1FC07F0DFFC0028F9D100F0CBFEF0B90F
:101EC0009DF808307F2B21D0013FAED14046FFF76F
:101ED00039FD04B0BDE8F08707F0DCFC05460AF8E0
:101EE000010B00F0B7FEF0B9013407F0C3FC002885
:101EF000DAD1082CDDD000F0ADFE0028E0D0324869
:101F000008F0ECFD9DF808307F2BDDD19DF80930FD
:101F10003C2BD9D19DF80A30A52BD5D19DF80B309B
:101F2000572BD1D1D2E7E9B200231022264808F07E
:101F3000E5FD0121254808F03BFBD5E709212448B0
:101F400008F036FB234610227F211F4808F0D6FDFB
:101F500001211E4808F02CFB234610229DF8051095
:101F6000194808F0CBFD0121184808F021FB102288
:101F700023469DF80610144808F0C0FD01211348BF
:101F800008F016FB21460DF1070215F8014B6140E0
:101F9000C9B2082311F0800F4FEA410118BF81F048
:101FA0000701013BC9B2F5D1AA42EED11022064881
:101FB00008F0A4FD044808F091FD64E707210548F6
:101FC00008F0F6FA6AE700BFD887FF1F881F0100F4
:101FD00058180100641801002DE9F04385B04FF056
:101FE0007F082022FF2381468DF804808DF805208C
:101FF0008DF8063003260DF1060548F00107384636
:1020000007F018FC0DF10500022107F01DFC8DF80A
:1020100004703A4601AB00205040082410F0800FB5
:102020004FEA400018BF80F00700013CC0B2F5D174
:10203000AB4202D013F8012FEEE707F0FBFB00F0F4
:1020400009FE002840F0768202208DF8048006F018
:10205000E7FE00F0FFFD002840F0B2820DF1080815
:10206000002407F007FC002843D0042C34D101E001
:1020700007F010FC07F0FEFB0028F9D100F0EAFDA4
:1020800010B1C14808F02AFD4FF07F0800238DF8F9
:1020900004808DF80630032648F00107384607F023
:1020A000C9FB0DF10500022107F0CEFB8DF804708D
:1020B0003A4601AB00205040082410F0800F4FEA50
:1020C000400018BF80F00700013CC0B2F5D1AB4220
:1020D00028D013F8012FEEE707F0DCFB08F8010B1E
:1020E000074600F0B7FD70B9013407F0C3FB0028C4
:1020F000BBD1042CBED000F0ADFD78B9013EC3D0F9
:102100009DF8048079E7F9B2002310229E4808F078
:10211000F5FC01219D4808F04BFAE5E79A4808F0E4
:10212000DDFCEBE707F086FB00F094FD002840F0B3
:10213000C08102208DF8048006F072FE00F08AFD56
:10214000002840F038820DF10808002407F092FBC7
:10215000002846D0042C37D101E007F09BFB07F0A4
:1021600089FB0028F9D100F075FD10B1864808F010
:10217000B5FC4FF07F082122FF238DF804808DF8F5
:1021800005208DF80630032648F00107384607F091
:1021900051FB0DF10500022107F056FB8DF804708C
:1021A0003A4601AB00205040082410F0800F4FEA5F
:1021B000400018BF80F00700013CC0B2F5D19D423D
:1021C00028D013F8012FEEE707F064FB08F8010BA5
:1021D000074600F03FFD70B9013407F04BFB0028C3
:1021E000B8D1042CBBD000F035FD78B9013EC0D089
:1021F0009DF8048050E7F9B200231022624808F0ED
:102200007DFC0121614808F0D3F9E5E75E4808F05C
:1022100065FCEBE707F00EFB00F01CFD002840F02A
:10222000078102208DF8048006F0FAFD00F012FD0F
:10223000002840F0CF810DF10808002407F01AFBB8
:10224000002843D0042C34D101E007F023FB07F031
:1022500011FB0028F9D100F0FDFC10B14A4808F04C
:102260003DFC4FF07F0800238DF804808DF8063088
:10227000032648F00107384607F0DCFA0DF10500A7
:10228000022107F0E1FA8DF804703A4601AB002014
:102290005040082410F0800F4FEA400018BF80F033
:1022A0000700013CC0B2F5D19D4228D013F8012FA0
:1022B000EEE707F0EFFA08F8010B074600F0CAFC5A
:1022C00070B9013407F0D6FA0028BBD1042CBED077
:1022D00000F0C0FC78B9013EC3D09DF8048053E7FC
:1022E000F9B200231022284808F008FC01212748F1
:1022F00008F05EF9E5E7244808F0F0FBEBE707F0AB
:1023000099FA00F0A7FC002851D102208DF8048032
:1023100006F086FD00F09EFC002840F056810DF18D
:102320000808002407F0A6FA18B3042C14D101E021
:1023300007F0B0FA07F09EFA0028F9D100F08AFC05
:1023400010B1114808F0CAFB42F29C23002209F8A0
:10235000032005B0BDE8F08307F09CFA08F8010BF4
:10236000074600F077FC98B9013407F083FA00289B
:10237000DBD1042CDED000F06DFCA0B9013EE3D02F
:102380009DF8048075E700BFD887FF1F881F0100F4
:10239000F9B200231022924808F0B0FB01219148C5
:1023A00008F006F9E0E78E4808F098FBE6E7092117
:1023B0008D4808F0FDF8234610223946884808F079
:1023C0009DFB0121874808F0F3F8234610229DF871
:1023D0000510834808F092FB0121824808F0E8F8D4
:1023E000102223469DF806107D4808F087FB012146
:1023F0007C4808F0DDF821460DF1070001AA12F82B
:10240000014B6140C9B2082311F0800F4FEA41012E
:1024100018BF81F00701013BC9B2F5D19042EED15E
:1024200010226F4808F06AFB6D4808F057FB6CE714
:1024300009216D4808F0BCF8234610223946684847
:1024400008F05CFB0121674808F0B2F8234610222F
:102450009DF80510624808F051FB0121614808F021
:10246000A7F8102223469DF806105D4808F046FBA9
:1024700001215C4808F09CF821460DF1070001AAF3
:1024800012F8014B6140C9B2082311F0800F4FEAE6
:10249000410118BF81F00701013BC9B2F5D190425B
:1024A000EED110224E4808F029FB4D4808F016FBEB
:1024B000B7E609214C4808F07BF82346102239463C
:1024C000474808F01BFB0121464808F071F82346F5
:1024D00010229DF80510424808F010FB01214148E8
:1024E00008F066F8102223469DF806103C4808F0D4
:1024F00005FB01213B4808F05BF821460DF1070080
:1025000001AA12F8014B6140C9B2082311F0800FF3
:102510004FEA410118BF81F00701013BC9B2F5D173
:102520009042EED110222E4808F0E8FA2C4808F02C
:10253000D5FAFEE509212C4808F03AF82346102286
:102540003946274808F0DAFA0121264808F030F821
:10255000234610229DF80510214808F0CFFA0121EA
:10256000204808F025F8102223469DF806101C4844
:1025700008F0C4FA01211B4808F01AF821460DF1B1
:10258000070001AA12F8014B6140C9B2082311F0FB
:10259000800F4FEA410118BF81F00701013BC9B22A
:1025A000F5D19042EED110220D4808F0A7FA0C4860
:1025B00008F094FA48E507210C4807F0F9FFC2E556
:1025C00007210A4807F0F4FF48E50721074807F00C
:1025D000EFFFA4E60721054807F0EAFF2BE600BF5E
:1025E000D887FF1F881F01005818010064180100D8
:1025F00038B500F50A55143500F1AC0402E08C340E
:10260000AC420AD02046FEF715FF0028F7D020463E
:102610008C34FEF73FF9AC42F4D138BD2DE9F04FD0
:102620000546002345F8AC3B00F50A5783B08246C7
:102630002C46143702E08C34BC420AD02046FEF708
:10264000F9FE0028F7D020468C34FEF723F9BC426F
:10265000F4D1C82006F0E4FB2C46012604E0013644
:102660003F2E04F18C046ED02046FEF7E3FE0028D6
:10267000F5D0764800F0F4FB3146754800F0F0FBE9
:102680002046FEF7DBF92046FEF7C4FE0AF030F9DB
:1026900002460B466F4800F0E3FB2046FEF730FE93
:1026A00080462046FEF748FE834640460AF020F961
:1026B0008046584689460AF01BF942464B46CDE90A
:1026C0000001654800F0CCFB00212046FEF7A4FE87
:1026D000012180462046FEF79FFE834640460AF0D1
:1026E00007F98046584689460AF002F942464B46A9
:1026F000CDE90001594800F0B3FB2046FEF78AFE01
:102700000146DAF800000AF095FCCAF800002046FD
:10271000FEF756FEDAF818100AF032FF00287BD1D7
:102720002046FEF759FEDAF81C100AF047FF002891
:1027300095D02046FEF750FE01363F2ECAF81C0009
:1027400004F18C0490D1DAF804000AF027FD014668
:10275000DAF800000AF02AFEDAF81410CAF80000CD
:1027600004460AF02BFF08B1CAF81440DAF810103A
:1027700020460AF005FF08B1CAF810400B2006F009
:1027800019FB42F29C231AF8033000284AD1002B8F
:1027900058D042F29C2301220AF803200023CAF8F1
:1027A0000C302C4602E08C34BC4215D02046FEF79B
:1027B00041FE0028F7D02046FEF7BEFDDAF80C10E7
:1027C0000AF0FCFE0028EED02046FEF7B5FD8C3462
:1027D000BC42CAF80C00E9D1214BCAF8083002E02B
:1027E0008C35BD4215D02846FEF724FE0028F7D0D0
:1027F0002846FEF785FDDAF808100AF0C1FE002829
:10280000EED02846FEF77CFD8C35BD42CAF80800A4
:10281000E9D103B0BDE8F08F2046FEF7D1FDCAF83C
:1028200018007DE72BB942F29C2300220AF803200E
:10283000B4E70C4800F02CFB42F29C2300220AF87B
:102840000320ABE7084800F039FBA2E7481B010072
:1028500068190100A4190100B8190100E419010068
:102860000000A040381A0100001A0100806870477B
:10287000C06870470068704741607047F8B500F560
:102880000A550F461646143500F1AC0402E08C34AC
:10289000AC420FD02046FEF7CDFD0028F7D02046F1
:1028A0003946FEF7CBFD204631468C34FEF7CEFD8F
:1028B000AC42EFD1F8BD00BF2DE9F04100F50A555B
:1028C00080460027143500F1AC04002602E08C3469
:1028D000A54210D02046FEF7ADFD0028F7D02046D7
:1028E000FEF786FD0F490AF069FE88B98C34A542CF
:1028F00006F10106EED142F2982358F80300801B3E
:102900000AF04CFC014638460AF050FDBDE8F08163
:102910002046FEF76DFD014638460AF08BFB074660
:10292000D5E700BF00008CC2F8B500F50A55074690
:102930000026143500F1AC0402E08C34AC420FD018
:102940002046FEF777FD0028F7D02046FEF706FD6B
:10295000014630460AF06EFB8C34AC420646EFD19D
:1029600042F29823F8580AF019FC014630460AF062
:102970001DFDF8BD2DE9F04F06468FB076488B4619
:1029800000F016FA744800F013FA734800F010FAD9
:1029900042F298233046F2580D92FEF7A1FD73687B
:1029A0000C930746306809F0A3FF804630468946FD
:1029B000FFF7BAFF82463046B468F568FFF77CFF40
:1029C00009F096FFCDE90A01214628460AF030FBBE
:1029D00062490AF037FC09F08BFFCDE9080128466F
:1029E00009F086FFCDE90601204609F081FFCDE917
:1029F0000401504609F07CFF0D9A0C9BCDE90201C1
:102A0000CDE90089114656483A4600F0D1F95248BE
:102A100000F0CEF9AC3601274FF0000A05E001378F
:102A20003F2F06F18C0600F08E803046FEF702FD47
:102A30000028F4D03046FDF71DFF3046FDF71EFF9D
:102A40003046FDF71FFF3046FDF720FF08214548BF
:102A500007F0AEFD3946444808F090F8092F75DDBF
:102A60000221424807F0A4FD3046FEF7D3FC09F0EE
:102A70003FFF5FFA8BF902460B46CDF800903A48CB
:102A800008F086F801213A4807F092FD55460024E7
:102A900020E00621374807F08BFD2946324808F030
:102AA0006DF80221344807F083FD21463046FEF7D9
:102AB00021FC09F01DFFCDF8009002460B462A4884
:102AC00008F066F801340121294807F071FD062C51
:102AD00009D04546092D05F10108DADC0121274816
:102AE00007F066FDD5E71121254807F061FD0021BB
:102AF0003046FEF791FC09F0FBFE022402460B462D
:102B00000094194808F044F812211E4807F050FDBF
:102B100001213046FEF780FC09F0EAFE00940246EF
:102B20000B46114808F034F80121174807F040FD22
:102B300001370D4807F0D2FF3F2F0AF1060A06F1D0
:102B40008C067FF472AF0FB0BDE8F08F01210B4807
:102B500007F02EFD84E700BF481B010000007A4407
:102B6000E01C0100801D0100D887FF1FF42A01002E
:102B70008C1D0100901D0100781F0100881F0100BD
:102B8000981D0100AC1D0100C01D01002DE9F041A0
:102B900000F1AC0582B0012604E001363F2E05F1BC
:102BA0008C0549D02846FEF745FC0028F5D0314673
:102BB000234807F0E3FF0121224807F0F9FC002435
:102BC0004FF0020821462846FEF794FB09F090FEDC
:102BD000CDF8008002460B46194807F0D9FF0134B2
:102BE0000121184807F0E4FC062C4FF00207E9D158
:102BF00000212846FEF710FC09F07AFE00970246F5
:102C00000B460F4807F0C4FF01210E4807F0D0FC27
:102C100001212846FEF700FC09F06AFE00970246F3
:102C20000B46074807F0B4FF0136054807F056FF8A
:102C30003F2E05F18C05B5D102B0BDE8F08100BF93
:102C4000D887FF1FC41D0100014B1870704700BFDB
:102C50002087FF1F024B1878B0FA80F040097047B8
:102C60002087FF1F0278002A00F0908070B503468D
:102C700082B00D46252A2AD158785C1C08B3252835
:102C80002FD0732831D0642824D0692822D0662818
:102C90004FD07A2859D0782835D058282FD062289C
:102CA0003ED0422838D06C2814D0632812D0742823
:102CB00057D054285FD007F0FFFC6278631C002ACD
:102CC000D8D1344802B0BDE8704007F007BF18788B
:102CD0001C46F0E72B1D29682E481D4607F04EFFC5
:102CE000EBE7104607F0E8FCE7E72E6830460BF00C
:102CF000C7FA01463046043507F05AFCDDE70221E9
:102D0000254807F055FC2E1D296822480023102273
:102D1000354607F0F3FED0E70221204807F048FCD3
:102D20002E1D29681B4800230222354607F0E6FEC7
:102D3000C3E7073525F007050321D5E9002315482A
:102D40000091083507F024FFB7E7073525F00705A0
:102D50000021D5E900230F480091083507F018FF3E
:102D6000ABE7296801290EBF0D480E480121043543
:102D700007F01EFCA1E72B68012B07BF04210A48BE
:102D80000A480521043507F013FC96E7014807F0CF
:102D9000A5BE00BFD887FF1FC81D0100CC1D0100C4
:102DA000D01D0100D41D0100D81D0100E01D01004F
:102DB0000FB400B583B004A951F8040B0191FFF7DB
:102DC00051FF03B05DF804EB04B0704770B51B4BC6
:102DD0001B4C1B6882B00D460193019B2360194672
:102DE00004460023164617480A2207F087FE0321EF
:102DF000154807F0DDFB032C07D8DFE804F01A15AF
:102E000010020521114807F0D3FB0221104807F0FA
:102E1000CFFB31462846FFF725FF02B070BD0721E2
:102E20000C4807F0C5FBF0E704210B4807F0C0FB96
:102E3000EBE70521094807F0BBFBE6E738B9FF1FC0
:102E40005492FF1FD887FF1F3C190100001E01008C
:102E5000781F0100F81D0100F01D0100E81D0100B0
:102E60000FB400B5094B187883B020B103B05DF8FA
:102E700004EB04B0704705AB1A4604990193FFF7C1
:102E8000A5FF03B05DF804EB04B070472087FF1F77
:102E90000FB4094B00B51B78012B83B004D903B0E4
:102EA0005DF804EB04B0704705AB1A460499019332
:102EB0000120FFF78BFFF2E72087FF1F0FB40B4BBA
:102EC00000B51B78032B83B004D903B05DF804EB85
:102ED00004B0704705AB1A46049901930320FFF72D
:102EE00075FF03B05DF804EB04B070472087FF1F47
:102EF00030B4074D074C084900232B70236003654D
:102F00004365836580F85C300B6030BC704700BF60
:102F10006092FF1F5C92FF1F5892FF1FF8B53A485E
:102F20003A4C3B4D3B4EFFF743FF3B4B3B493C4844
:102F30003C4A5C6014271F703B4F3C4CD9601861C1
:102F400000213B485D615E623A4DDF624FF07C5686
:102F50000C279A619C62384A384C19635863384987
:102F60009D6340F61C400A255E641F6541F204061D
:102F7000344F9A64DC6402220124196298660021AD
:102F80003220DD661E6764254FF49676DF61DF63CD
:102F90005A275A705A7283F84010C3F89C0018667A
:102FA0005E66DE651C725C659D654FF47A7C5F67CA
:102FB000DFF898E09967DA67C3F88010C3F88800F3
:102FC000C3F8A400204FC3F8A010FF2641F28831B7
:102FD0000520C3F8B02040F2D662C3F8AC40C3F875
:102FE000B450C3F88CC0C3F890E0C3F89470C3F831
:102FF000A860A3F8BA00C3F88410A3F8B810A3F827
:103000009820A3F89A20F8BD081E010020A107000F
:1030100033338340CDCCCC3D4C93FF1F6666864056
:1030200000004040CDCC4C40000020C10000824256
:10303000000020420000A0409A9979400AD7233D21
:1030400033337340CDCC4C3E00C020440000684276
:10305000F0B54FF47A6085B005F0E2FE00210F2054
:1030600005F0B6FE00210E2005F0B2FE0021112071
:1030700005F0AEFE0021102005F0AAFE002112206E
:1030800005F0A6FE0021132005F0A2FE01210B2071
:1030900005F09EFE01210C2005F09AFE012114206E
:1030A00005F096FE0121152005F092FE0121162063
:1030B00005F08EFE0121172005F08AFE0121052072
:1030C00005F086FE854D864C0121062005F080FE28
:1030D00001210D2005F07CFE28880AF05BF80146EE
:1030E000162005F0DFFD28880AF054F80146172065
:1030F00005F0D8FD28880AF04DF80146052005F0B6
:10310000D1FD28880AF046F800250146062005F082
:10311000C9FD2B46734A74497448009504F08AFE31
:1031200020684FF0FF32102104F05CF920684FF066
:10313000FF32102104F02EF920684FF0FF320421F5
:1031400004F03CF920684FF0FF32012104F040F90F
:103150002A460F21206804F04FF90C21644807F03B
:1031600027FA644807F0BAFC1021634807F020FAF8
:10317000604807F0B3FC44F6206005F00FFF5D489F
:1031800007F0ACFC17215D4807F012FA594807F028
:10319000A5FC5B4B1B789A0600F1D480584B1B783A
:1031A0001B0700F1DB80564B1B785F0700F1E280C4
:1031B000534B1B789E0700F1E980524B1B781D068C
:1031C00000F1F0804F4B1B785C0600F1F7804D4B0F
:1031D0001B78980600F1FE804A4B1B78590700F1D6
:1031E0000581484B1B781A0700F10C81454B1B7871
:1031F0009B0700F113813F4807F070FC72B6424A0A
:103200004CF220534DF628112024138023461180C0
:10321000013BFDD13D4D3E483E4900234FF48056D1
:103220002E8003800B8032F80E3C9BB243F0D30318
:1032300022F80E3C62B69D2006F0ACFA21463648D4
:10324000364D07F0B5F92B4807F048FC05F1BC06F0
:103250002F462C46601B05F0C1FA04F8010BB4425E
:10326000F8D13B78142B01D0FFF758FE2C482D4C99
:10327000FEF7C2FD0420FFF7E7FC2B4B2848002295
:103280001A60FEF7F5FC01210D2005F08DFD796D2A
:103290002348FFF7F1FA7A6C97F840102048FFF7BF
:1032A000EDFA224B22491B68224A1D48126881FB15
:1032B0000351DB17A3EB211313FB02F32380FEF76B
:1032C0008BFE1D4B1D491A68039203981B680293DD
:1032D000029A1B4B08601A6005B0F0BD2887FF1FDB
:1032E000B494FF1F2CB9FF1F20A1070090B7FF1F48
:1032F000281E0100D887FF1F381E01004C1E010048
:1033000001F0074000F007400E2005400420054072
:103310000620054016200540501F01004C93FF1F5A
:10332000EC94FF1FC094FF1F7892FF1F6087FF1F60
:103330001F85EB515C87FF1F38B9FF1FE894FF1F03
:103340001094FF1F2121394807F032F9384807F05F
:10335000C5FB384B1B781B077FF525AF0C21364882
:1033600007F026F9324807F0B9FB324B1B785F07AC
:103370007FF51EAF0E21314807F01AF92C4807F0EF
:10338000ADFB2C4B1B789E077FF517AF17212C4800
:1033900007F00EF9264807F0A1FB2A4B1B781D0603
:1033A0007FF510AF0E21284807F002F9204807F0FA
:1033B00095FB244B1B785C067FF509AF122123484F
:1033C00007F0F6F81A4807F089FB1E4B1B789806A1
:1033D0007FF502AF13211E4807F0EAF8144807F002
:1033E0007DFB184B1B7859077FF5FBAE1C21194854
:1033F00007F0DEF80E4807F071FB124B1B781A0736
:103400007FF5F4AE1921144807F0D2F8084807F008
:1034100065FB0C4B1B789B077FF5EDAE18210F4821
:1034200007F0C6F8024807F059FBE4E6641E010005
:10343000D887FF1F01F00740881E0100981E010079
:10344000A81E010000F00740C01E0100D01E0100B0
:10345000E41E0100F81E0100181F0100341F0100C6
:10346000F8B5464C464D4748E66800232B70FFF7F9
:10347000FFF9014630460AF083F808B104232B70A7
:103480004048FFF7F3F921690AF07AF818B12B7870
:1034900043F010032B703B48FFF70EFAA16A0AF0C5
:1034A0008DF818B12B7843F040032B70002335487A
:1034B0006B70FFF701FAE16A314D0AF061F808B16B
:1034C00001236B70304D2F4800232B70FFF7D0F98C
:1034D000616A0646E06809F0ABFD014630460AF035
:1034E0006DF808B104232B702648FFF7BFF9616A15
:1034F0000646206909F09EFD014630460AF040F874
:1035000018B12B7843F010032B701E48FFF7D4F945
:10351000A16B0646A06A09F08BFD014630460AF011
:103520004DF818B12B7843F040032B700023154859
:103530006B70FFF7C1F9A16B134F0646E06A09F003
:1035400079FD014630460AF01BF808B101237B7073
:1035500000230C48EB70FFF78BF9054609480A4E2B
:10356000FFF784F90146284609F062FDE16B0AF095
:1035700025F808B10123F370F8BD00BF4C93FF1F7D
:103580004893FF1FEC94FF1FA894FF1F2DE9F04103
:103590007C4C2368012B82B031D0022B00F0A88034
:1035A000032B00F0C8803BBB774B784AD3F8A410BC
:1035B000D3F8A83012685B1A632B0EDD744803FB46
:1035C00002F380FB0302DB17C3EB621319440620EE
:1035D00002B0BDE8F04105F067BA6E4803FB022374
:1035E00080FB0302DB17C3EB22121144062002B05A
:1035F000BDE8F04105F058BA02B0BDE8F081664E72
:1036000033680A33B3F57A7F00F3B7801846336026
:1036100009F0C4FD614909F015FE80465A4DD5F800
:10362000A40009F0BBFD0746D5F8A80009F0B6FDD7
:10363000394609F0FDFC414609F004FE584909F0FD
:10364000B5FE394609F0F6FC09F0D8FF0146062020
:1036500005F02AFA0221534806F0AAFF524807F063
:103660003DFA0621514806F0A3FF306809F096FDA7
:103670004A4909F0E7FD09F03BF9022702460B46EB
:103680000097494807F084FA0D21494806F090FF59
:10369000D5F8A40009F082FD8046306809F07EFD6F
:1036A0003E4909F0CFFD0646D5F8A80009F076FDA1
:1036B000414609F0BDFC0146304609F0C3FD3849DA
:1036C00009F074FE414609F0B5FC09F011F90097C4
:1036D0000B460246344807F05BFA3946314806F09B
:1036E00067FF314807F0FAF92368022B7FF458AFDF
:1036F000294B254E00221A60D6F8A40009F04EFD91
:103700000546D6F8A80009F049FD294609F090FCC5
:10371000002109F097FD224909F048FE294609F0E9
:1037200089FC09F06BFF0146062005F0BDF923680E
:10373000032B7FF438AF184B134E4FF47A721A6094
:10374000D6F8A40009F02AFD0546D6F8A80009F02D
:1037500025FD294609F06CFC114909F073FD10495B
:1037600009F024FE294609F065FC09F047FF0146EF
:10377000062005F099F9236815E700234FF00008AB
:1037800033604BE79494FF1F4C93FF1F3487FF1F58
:103790001F85EB51CBF08D287C92FF1FCDCCCC3D0B
:1037A0000000C842F42A0100D887FF1F741F0100DF
:1037B0007C1F010070B5A248A24C07F08FF9A04809
:1037C00007F08CF99E4807F089F90D219E4806F014
:1037D000EFFED4F8A030012B11D09C4C98482178F2
:1037E00000230A2207F08AF92378052B67D8DFE83F
:1037F00013F0E900EE00F300F800FD00E4000921F9
:10380000934806F0D5FE9348FFF730F8216909F098
:10381000B7FE18B10F21904806F0CAFE8D48FFF799
:1038200027F8E16809F0CAFE18B10E218B4806F0AE
:10383000BFFE8848FFF71CF805468648FFF716F8D4
:103840000146284609F0F4FBE16B09F0B7FE18B118
:103850001121834806F0ACFE7E48FFF72DF8A16ADF
:1038600009F0ACFE18B10C217E4806F0A1FE7948A3
:10387000FFF722F8E16A09F083FE18B10D217A48BA
:1038800006F096FE794B73481B68012B00F0C2804E
:10389000FEF7ECFF21696B4D09F090FE78B16D48A1
:1038A000FEF7E6FFE96809F06BFE40B1674B1B7855
:1038B000052B00F0C08008216D4806F079FE02213A
:1038C0006C4806F075FE122005F074FA012800F02D
:1038D0009C80112005F06EFA012800F09180664B63
:1038E0001B68012B00F087800221624806F060FE11
:1038F000624B5348196807F041F9514807F0EEF858
:1039000004215F4806F054FE0B2005F053FA002313
:1039100001460A224A4807F0F1F80C2005F04AFA5D
:10392000002301460A22464807F0E8F8142005F073
:1039300041FA002301460A22414807F0DFF815202A
:1039400005F038FA002301460A223D4807F0D6F870
:1039500006214C4806F02CFE4B4B394819680222D0
:10396000002307F0CBF80421484806F021FE11207F
:1039700005F020FA002301460A22314807F0BEF87C
:10398000102005F017FA002301460A222C4807F000
:10399000B5F8122005F00EFA002301460A22284845
:1039A00007F0ACF8132005F005FA002301460A22BF
:1039B0002348BDE8704007F0A1B80721344806F05D
:1039C000F7FD7CE70621334806F0F2FD77E7072193
:1039D000314806F0EDFD72E70721304806F0E8FDBA
:1039E0006DE708212E4806F0E3FD68E70B212D481E
:1039F00006F0DEFD63E711212B4806F0D9FD73E7E1
:103A00000A212A4806F0D4FD69E70E21284806F06D
:103A1000CFFD5EE7FEF72AFF216A09F0CFFD0028FF
:103A20003FF449AF1621234806F0C2FD0A2122487F
:103A300006F0BEFD43E70A211F4806F0B9FD3EE748
:103A4000D887FF1F4C93FF1F8C1F0100A494FF1FFA
:103A50009C1F0100EC94FF1FA81F0100B81F01006C
:103A6000C81F0100DC1F0100EC1F01008892FF1F2E
:103A700020200100F42A0100BC94FF1F9894FF1F2E
:103A8000942001009C2001000894FF1FA420010045
:103A90005C2001002C20010034200100482001009E
:103AA000502001003C200100802001007420010012
:103AB00064200100FC1F0100142001002DE9F04FDB
:103AC000934C944FE36F012B8DB000F04981032B91
:103AD00050D0914E914DA36F9148012B09BF296899
:103AE000296801F10041296004F06AFD3368002B68
:103AF00040F0CE808A4804F039FDE36F3860012B36
:103B0000064600F0D280874909F058FD78B9864909
:103B1000304609F035FD50B9844A854B12680B9246
:103B20000B9A1A6000232B600DB0BDE8F08FDFF810
:103B3000FC817F4CD8F800300A930A9823687D4FA7
:103B4000C01A09F027FB314609F07CFB7A4909F0DD
:103B50002DFC794909F02AFC396809F06BFAD8F88C
:103B600000300993099B2360002338602B600DB05F
:103B7000BDE8F08FDFF8C881704DD8F80000664EC0
:103B8000012300220F212B6003F036FC2B68012B50
:103B9000336800F00381002B40F0A6810021D8F8A3
:103BA0000000DFF8B891664D03F078FC33681FFA27
:103BB00080FBC9F800B0002B40F07B810021D8F8D1
:103BC0000000564DDFF878A103F0EEFBB4F89A3010
:103BD00040F6E44101FB0BF1B1FBF0F0C01A00B27A
:103BE00009F0DCFA57498346D4F8900009F02AFB23
:103BF0000146584609F0DAFBD9F800302860632BFB
:103C0000DFF858B100F3498100232B603368002BA3
:103C10003FF461AF02214C4806F0CAFCD9F80020FD
:103C2000D8F8000040F6E443002103FB02F803F05B
:103C3000BBFBB8FBF0F009F0ADFA8046B4F89A008F
:103C400009F0ACFA0146404609F0F2F908F050FEDE
:103C50004FF0020802460B46CDF800803B4806F0C4
:103C600097FF4146384806F0A3FC286808F040FE5C
:103C7000CDF8008002460B46344806F089FF4146E5
:103C8000334806F095FC41462F4806F091FC22E7A8
:103C9000234804F06BFC08F02BFE022602460B467C
:103CA00000962A4806F074FF24E7244B1B68012B7A
:103CB00000F02681022B7FF435AF264909F07EFC07
:103CC00030B92549304609F05BFC002800F04781F7
:103CD000DFF85880164CD8F800300793079823680F
:103CE000144FC01A09F056FA314609F0ABFA1249DE
:103CF00009F05CFB104909F059FB396809F09AF9A1
:103D0000D8F800300693069B386023600AE700BFAE
:103D10004C93FF1F9492FF1FE094FF1F8492FF1F9C
:103D20002493FF1F0000FA430000FAC338B9FF1FB5
:103D30006492FF1F9C92FF1F00007A445087FF1F70
:103D4000B494FF1F17B7D138F42A0100D887FF1F9A
:103D5000E820010000C82F4800A08CC64493FF1F34
:103D60003D689849284609F00BFC30B12846964931
:103D700009F024FC00287FF4FDAEDFF85882934D53
:103D8000D8F80000924E022300220E212B6003F08F
:103D900033FB2B68012B33687FF4FDAE002B40F022
:103DA00000810021D8F80000DFF86C92894D03F003
:103DB00075FB33681FFA80FBC9F800B0002B40F098
:103DC000D5800021D8F80000834D03F0EDFAB4F857
:103DD000983040F6E44A0AFB0BFBBBFBF0F0C01A3C
:103DE00000B209F0DBF97D498346D4F8940009F06C
:103DF00029FA0146584609F0D9FAD9F80030286066
:103E00000021D8F800000AFB03FA03F0CDFAB4F859
:103E10009830BAFBF0F00FFA80FAC3EB0A03002BDC
:103E2000B4F8BA20B8BF5B429342BCBF00232B60FA
:103E30003368002B3FF44FAE0221694806F0B8FB0F
:103E4000D9F80020D8F8000040F6E443002103FB35
:103E500002F803F0A9FAB4F89810B8FBF0F000B239
:103E6000411A604806F08AFE02215D4806F0A0FB78
:103E7000286808F03DFD4FF0020802460B46CDF8D9
:103E80000080584806F084FE0321574806F090FB56
:103E90004146534806F08CFB1DE6DAF8000000218D
:103EA00003F082FADBF8003064389842FFF4ACAEDD
:103EB000ACE60021286803F077FA40F6E4410023DD
:103EC0000A2201FB0BF1B1FBF0F1464806F016FEA9
:103ED0000221434806F06CFBB4F89A10414806F002
:103EE0004DFED9F800B069E63E4806F0F7FD0C211A
:103EF0003E4806F05DFB0C213D4806F059FB4DE6BF
:103F00003C4909F05BFB58B93B49304609F038FBA6
:103F100030B93A4A3A4B12680592059A1A6001E69E
:103F2000DFF8D880364CD8F8003004930498236822
:103F3000344FC01A09F02EF9314609F083F932499D
:103F400009F034FA304909F031FA396809F072F8A9
:103F5000D8F800300393039B38602360E2E5274ADA
:103F6000274B12680892089A1A60DBE5002128683E
:103F700003F01AFA40F6E44100230A2201FB0BF198
:103F8000B1FBF0F1174806F0B9FD01211F4806F01A
:103F90000FFBB4F89810134806F0F0FDD9F800B004
:103FA0000FE7104806F09AFDE36F012B4FF00B016D
:103FB0000CBF1748174806F0FBFA0C210C4806F016
:103FC000F7FAEEE600709446007094C65087FF1F23
:103FD000E094FF1FB494FF1F8492FF1F17B7D138DE
:103FE000F42A0100D887FF1FD4200100D820010047
:103FF000C42001000000FA430000FAC338B9FF1FD3
:104000006492FF1F9C92FF1F00007A44881F0100EA
:10401000AC200100B82001004493FF1F2DE9F043BC
:10402000AB4D2B6883B0002B00F08780A94CAA4EC3
:10403000E36FAA4FA74D012B00F0BF80D4F880306A
:10404000DFF89082012B00F0ED80D8F85850D7F8B7
:104050000090D8F8548005FB08F54FF47A7000FB07
:1040600005F009F09BF89E49DFF86C82054648464A
:1040700009F0E8F8294609F099F99A4909F0E2F8B7
:1040800009F0BCFA632830604BDD2846944909F0FA
:104090008DF96423C8F80030934B38601B68002BFF
:1040A00048D0E36F8B4D012B00F0ED80032B00F027
:1040B000FD80022B00F0008102218C4806F078FA86
:1040C0008B4B186808F014FC022402460B4600943F
:1040D000884806F05DFD2146874806F069FA2146CA
:1040E000824806F065FA3168824806F047FD0621ED
:1040F000824806F05DFA3868794909F0A3F808F0BB
:10410000F7FB009402460B467A4806F041FD032176
:104110007B4806F04DFA774803B0BDE8F04306F05F
:10412000DDBC0028BCBF0023C8F800306E4B1B6804
:10413000002BB6D103B0BDE8F0837248654CFEF7A2
:10414000F3FB7149A76EE66E09F07CF809F07CFA82
:10415000226F636FD21B9B1B80B29342A0EB0700C0
:10416000C0F29D8003FB00F393FBF2F333445A4EFD
:104170005E483360022106F01BFA31685D48574FF4
:1041800006F0FCFC0221594806F012FA3268A06DD4
:10419000636D02FB00F003FB00F000EB80004000C9
:1041A00008F0FCFF4E4909F001F901232B60E36F91
:1041B0003860012B474D7FF441AF5248FEF7B4FB06
:1041C0005149D5F86890D5F86C8009F03BF809F0B2
:1041D0003BFA2A6F6B6FC9EB0202C8EB030380B294
:1041E0009A42C9EB00006CDD03FB0000531C90FBFE
:1041F000F3F303EB0800A26D636D306002FB00F087
:1042000003FB00F000EB8000400008F0C7FF3449DA
:10421000DFF8C08009F0CAF8D4F880303860012B8C
:104220007FF413AF3748FEF77FFB3749D8F8689023
:10423000D8F86C5009F006F809F006FAD8F87020A2
:10424000D8F87430D4F85480C9EB02025B1B80B2FA
:104250009A42C9EB0000C6BF03FB0000013258437D
:1042600090FBF2F02844A56D00FB05F008FB00F080
:1042700000EB8000400008F091FF194909F096F822
:1042800081463860E7E6214B1B68012B4FF00A019D
:104290000CBF1F481F4806F08BF9EB6F06E703FBC6
:1042A0000000531C90FBF3F3334460E710211A48DD
:1042B00006F07EF9E36FFCE60721184806F078F96E
:1042C000FAE603FB00F393FBF2F303EB080092E73B
:1042D0008092FF1F4C93FF1F3487FF1F9C92FF1F8C
:1042E000E4388E3E0000C8423C87FF1FF42A0100DC
:1042F0009492FF1FD887FF1FE820010020210100B2
:1043000028210100EC94FF1F00007A445087FF1F12
:10431000EC200100F8200100042101001821010017
:10432000F0B5112083B004F045FD012813D0002121
:104330000B2004F039FD00210C2004F035FD002194
:10434000152004F031FD1D491D4B0120002208708D
:104350001A6003B0F0BD01460446152004F024FDA8
:104360001849194A194B09680191D2F884001B6851
:104370000199134D034402268B422E6017D8D2F8C0
:104380008C0008F00BFF124B196809F0F9F807468A
:1043900068B921460B2004F007FD084A032339467B
:1043A0000C2016702B6004F0FFFC03B0F0BD01215F
:1043B0000C2004F0F9FC03B0F0BD00BFA494FF1F73
:1043C000DC94FF1F38B9FF1F4C93FF1FE894FF1FB9
:1043D0009492FF1FF0B56E4E6E4D34682B689C4270
:1043E00087B03AD014F0010156D014F002014AD03F
:1043F00014F004013ED0E3070ED52B68DF070BD481
:10440000654F664C3B68002B00F082802268019269
:10441000019A9A426ED83468A0070DD52B68990787
:104420000AD45F4F3B68002B4DD05C4C226803924E
:10443000039A9A4239D8346862070ED52B685B0715
:104440000CD4584F3B68002B00F08A80534C2268F4
:104450000592059A9A4272D834680CB107B0F0BD43
:104460002146162004F020FB2146172004F01CFBF7
:1044700007B0F0BD052004F017FB2B68346803F08B
:10448000FB032B60B7E7172004F00EFB2B683468A2
:1044900003F0FD032B60ABE7162004F005FB2B684F
:1044A000346803F0FE032B609FE73F4B1720D3F8DF
:1044B000881004F0F9FA2B68346843F002030022F4
:1044C0002B603A60B8E73948344C06F007FB0C2102
:1044D000374806F06DF8354806F000FBFF2117203D
:1044E00004F0E2FA2268334B0292029A1B681344EA
:1044F0003B609BE72C4B1620D3F8881004F0D4FACD
:104500002B68346843F0010300222B603A6083E794
:10451000FF21162004F0C8FA2368264A0093126887
:10452000009B224813443B6006F0D8FA0C21224835
:1045300006F03EF81D4806F0D1FA3B6866E71A4BD4
:104540000520D3F8881004F0AFFA2B68346843F0E4
:10455000040300222B603A60002C7FF47FAF7FE7DA
:1045600012480E4C06F0BAFA0C21144806F020F856
:104570000E4806F0B3FAFF21052004F095FA2268F0
:104580000C4B0492049A1B6813443B605FE700BF26
:10459000DC94FF1F0894FF1F7894FF1F38B9FF1F9A
:1045A0007C94FF1F8094FF1F4C93FF1FD887FF1F31
:1045B0003C2101007487FF1F2C2101004C210100C8
:1045C0002DE9F047544EDFF87481DFF874913068BC
:1045D000524D00220F2102F00FFF00230122222161
:1045E0004F48C8F80030C9F8002005F0E1FFD8F8BE
:1045F0000030132B22DC40F6E44700213068B5F888
:1046000098A002F04BFF00210446306802F0CCFE77
:10461000A4B2012107FB04F4B4FBF0F44148544474
:10462000A5F8984005F0C4FF642004F0F9FBD8F821
:1046300000300133132BC8F80030DEDDB5F89830B8
:10464000394A3A48A2FB03129B1A02EB5303C3F305
:104650000F131946A5F8983006F090FA1D2134483A
:1046600005F0A6FF0221334805F0A2FF2F4806F00F
:1046700035FA00231A460E213068C8F8003002F0DF
:10468000BBFE022322212648C9F8003005F090FF26
:10469000D8F80030132B22DC40F6E44700213068C4
:1046A000B5F89A9002F0FAFE00210446306802F054
:1046B0007BFEA4B2012107FB04F4B4FBF0F419481B
:1046C0004C44A5F89A4005F073FF642004F0A8FB61
:1046D000D8F800300133132BC8F80030DEDDB5F810
:1046E0009A30114A1148A2FB03129B1A02EB5303A2
:1046F000C3F30F131946A5F89A3006F03FFA1D21AF
:104700000D4805F055FF02210A4805F051FF074802
:10471000BDE8F04706F0E2B9B494FF1F4C93FF1FC9
:104720005C210100A021010087611886D887FF1F46
:1047300080210100F42A0100A42101009C94FF1FA4
:104740005087FF1FF8B5874B874C884F1B68386D23
:1047500040F2513108222160E271002B00F0FD800F
:1047600008F01CFD396A054608F06CFD804908F028
:1047700069FD08F069FF80B2031263727D4A7E4BC7
:1047800012681B68B9692072A37228461B121512A1
:10479000E3722273657308F055FD754908F052FD08
:1047A00008F052FF83B21A126F497448A373E27380
:1047B00003F038FD724B734A1B6812886A49A27273
:1047C000DDB2257205EB850603EB8305760045F324
:1047D000D71540F2553E12121B1226736573082638
:1047E00000256648C4F800E0E2726372E671A573C2
:1047F000E57303F017FD40F2563363482360E6711A
:10480000FEF738F8614908F01DFD08F01DFF207221
:104810005D48FEF72FF85D4908F014FD08F014FF1D
:104820005B4A5A49C0F307231068637208F0BEFD63
:1048300008F0E4FE40FA06F203465348E272A3721F
:10484000FEF73AF84A4908F0FDFC08F0FDFE207337
:104850004D48FEF731F8464908F0F4FC08F0F4FE44
:104860004149A573C0F3072344486373E57303F01C
:10487000D9FC022004F0D4FA464A474B117850780C
:10488000217291786072D2789878A172597893F8F1
:1048900000E0E2726173DA78A07340F25A33324971
:1048A0003648E67184F80CE0E273236003F0BAFC4A
:1048B0003A4B2D491A785878227260729A78D878D3
:1048C000A272E0721A79987993F805E02273A073C6
:1048D000DA792A4884F80DE040F25E33E27323600F
:1048E000E67103F09FFC022004F09AFA2C4B1E495B
:1048F0001A785878227260729A78D878A272E07228
:104900001A79987993F805E02273A073DA791B4835
:1049100084F80DE04FF45C73E2732360E67103F0FA
:1049200081FC022004F07CFABA6DE67142FA06FEC0
:10493000012340F25F3702262273992225726572A5
:1049400084F80DE02760A672E372E373A273064950
:104950000A48BDE8F84003F065BC08F01FFC79691F
:10496000054601E78892FF1FCC94FF1F4C93FF1F61
:1049700000002041B094FF1F6C92FF1F90B7FF1FF3
:104980003487FF1F3887FF1FEC94FF1F0000C842C9
:104990009492FF1F4893FF1FA894FF1F2C87FF1FAF
:1049A0005487FF1FF0B59C4C9C4D83B005F09AFDD9
:1049B00023682860042B00F0AC82022B4BD0082B1C
:1049C00000F09280072B40F05181332801F06A8378
:1049D00000F3AD80312801F03D83322840F0B080F3
:1049E00005F0BCFD002840F33F818D488D4E06F058
:1049F00009FA08F0D3FB8C4908F024FC612301225A
:104A0000F06322602B601846A0F152031F2B01F2C5
:104A10001183DFE813F0620A0F0B0F0B0F0B0F0B64
:104A20000F0B0F0B0F0B0F0B0F0B0F0B0F0B0F0BB6
:104A30000F0B0F0BF3095C0C640A170989080F0BA5
:104A40000F0B0F0B41080F0B5F0C0F0B0F0B0F0B16
:104A50000F0B0F0B1608A0F13102422A70D8DFE8C5
:104A600012F013045404F9031F04320441046F00CC
:104A70006F006F006F006F006F006F006F006F00BE
:104A80006F006F006F006F006F006F006F006F00AE
:104A90006F006F006F006F006F006F006F006F009E
:104AA0006F006F006F006F006F006F006F006F008E
:104AB0006F006F006F006F006F006F006F006F007E
:104AC0006F006F006F004E046F006F006F006F008B
:104AD0006F006F006F006F006F006F006F006F005E
:104AE0006F006B006F000B04322800F027837128E1
:104AF00022D0312824D105F031FD002840F3A283D3
:104B00004748484E06F07EF9C0B286F840000228B9
:104B100094BF01460021726C444888BF86F840105B
:104B2000FDF7ACFE01236920236028606CE7342880
:104B300001F0A682712803D100237320236028602E
:104B4000002B08BF73280CBF01200020002860D074
:104B5000334805F0C3FF0421354805F029FD3048EE
:104B600005F0BCFF1021334805F022FD2C4805F06C
:104B7000B5FF1321304805F01BFD304B284819685C
:104B800005F0FCFF264805F0A9FF14212C4805F08C
:104B90000FFD234805F0A2FF1E212A4805F008FD5D
:104BA0001F4805F09BFF1521274805F001FD1C4813
:104BB00005F094FF1E21254805F0FAFC184805F081
:104BC0008DFF2021224805F0F3FC154805F086FFF3
:104BD0001921204805F0ECFC114805F07FFF122157
:104BE0001D4805F0E5FC0E4805F078FF0F211B4835
:104BF00005F0DEFC0A4805F071FF0D21184805F0AC
:104C0000D7FC074805F06AFF164A0021012311600E
:104C1000236003B0F0BD00BFA092FF1F9092FF1F62
:104C2000D887FF1F4C93FF1F6F12833AEC94FF1F2E
:104C300070290100782901008C2901002487FF1FB9
:104C4000A0290100B8290100D8290100F02901009C
:104C5000102A0100342A0100502A0100642A0100B0
:104C6000742A01003C87FF1F23682868062B40F048
:104C70008D80A0F13102402A3FF662AF01A151F8C8
:104C800022F000BF67510000B551000091510000B3
:104C90001F520000DF510000FB510000414B00009B
:104CA000414B0000414B0000414B0000414B0000D4
:104CB000414B0000414B0000414B0000414B0000C4
:104CC000414B0000414B0000414B0000414B0000B4
:104CD000414B0000414B0000414B0000414B0000A4
:104CE000414B0000414B0000414B0000414B000094
:104CF000414B0000414B0000414B0000414B000084
:104D0000414B0000414B0000414B0000414B000073
:104D1000414B0000414B0000414B0000414B000063
:104D2000414B0000414B0000414B0000414B000053
:104D3000414B0000414B0000414B0000414B000043
:104D4000414B0000414B0000414B0000414B000033
:104D5000414B0000414B0000414B0000414B000023
:104D6000414B0000414B0000414B0000414B000013
:104D7000414B0000414B0000414B0000414B000003
:104D8000414B0000394B000023682868052B15D1E2
:104D9000332801F0AB8140F34781352801F00682CA
:104DA000C1F2EE8171287FF4CBAED84A0023732084
:104DB000136023602860C3E623682868032B40F053
:104DC000A480A0F13002422A3FF6BAAE01A151F808
:104DD00022F000BFE14E00001B5A0000FB5700000C
:104DE0002358000045580000675800008F58000005
:104DF000B7580000D5580000F9580000414B00009A
:104E0000414B0000414B0000414B0000414B000072
:104E1000414B0000414B0000414B0000414B000062
:104E2000414B0000414B0000414B0000414B000052
:104E3000414B0000414B0000414B0000414B000042
:104E4000414B0000414B0000414B0000414B000032
:104E5000414B0000414B0000414B0000414B000022
:104E6000414B0000414B0000414B0000414B000012
:104E7000414B0000414B0000414B0000414B000002
:104E8000414B0000414B0000414B0000414B0000F2
:104E9000414B0000414B000021590000215400000B
:104EA0007B5900003F5900005D59000099590000EE
:104EB000FD530000414B0000414B0000414B0000FE
:104EC000414B0000414B0000414B0000414B0000B2
:104ED000414B0000414B0000EF590000FB5900001E
:104EE00005F03CFB002841F3AE808948894E05F06F
:104EF00089FF0127034601466222874873652760C0
:104F00002A60FDF7B9FC23682868012B7FF418AEEE
:104F10007AE5A0F13102402A3FF612AE01A151F824
:104F200022F000BFC153000065530000A3530000EE
:104F3000695300006D530000895300009F53000027
:104F4000275300003F530000414B0000414B00003D
:104F5000414B0000414B0000414B0000414B000021
:104F6000414B0000414B0000414B0000414B000011
:104F7000414B0000414B0000414B0000414B000001
:104F8000414B0000414B0000414B0000414B0000F1
:104F9000414B0000414B0000414B0000414B0000E1
:104FA000414B0000414B0000414B0000414B0000D1
:104FB000414B0000414B0000414B0000414B0000C1
:104FC000414B0000414B0000414B0000414B0000B1
:104FD000414B0000414B0000414B0000414B0000A1
:104FE000414B0000414B0000414B0000414B000091
:104FF000414B0000414B0000414B0000414B000081
:10500000414B0000414B0000414B0000414B000070
:10501000414B0000414B0000414B0000414B000060
:10502000414B0000394B0000312801F04E803228FE
:105030007FF486AD05F092FA00287FF7BDAE3448C4
:10504000344E05F0DFFE01226B23C6F88C0022608F
:105050002B602F4805F042FD2D4805F03FFD2C4800
:1050600005F03CFD2A4805F039FD294805F036FDDC
:1050700021212A4805F09CFA254805F02FFD15212D
:10508000274805F095FAD6F88410214805F076FDFA
:105090000221244805F08CFA1D4805F01FFD1E2151
:1050A000214805F085FAD6F88C10194805F066FD00
:1050B00003211E4805F07CFA154805F00FFD1E215E
:1050C0001B4805F075FAD6F88810114805F056FD12
:1050D0000F4805F003FD1D21164805F069FAD6F8C2
:1050E000A4100B4805F04AFD094805F0F7FC1E2105
:1050F000114805F05DFAD6F8A810054805F03EFD08
:10510000034805F0EBFC0523236082E59494FF1F20
:10511000D887FF1F4C93FF1FEC94FF1F1024010042
:1051200034240100682301004C240100D420010034
:105130006C2401008C240100AC24010005F00EFA5F
:10514000002840F383809F489F4E05F05BFE08F0E7
:1051500025F89E4908F076F80346024696F8401076
:105160009B487364DCE405F0F9F900287FF70CAE86
:105170009448954E05F046FE08F010F8954908F061
:1051800015F965230122706122602B6018463BE40B
:1051900005F0E4F900287FF7F7AD8A488A4E05F05C
:1051A00031FE00EB8000430001226520F3652260A0
:1051B000286029E405F0D2F900287FF7E5AD8148A1
:1051C000814E05F01FFE07F0E9FF824908F0EEF876
:1051D00065230122F06122602B60184614E47A4AAC
:1051E000D2F8B0300133052BC8BF0023C2F8B0306D
:1051F000652001232360286006E405F0AFF900284C
:105200007FF7C2AD6F48704E05F0FCFD65230122AB
:10521000C6F8B40022602B601846FFF7F5BB05F016
:105220009DF900287FF7B0AD6648674E05F0EAFDAE
:1052300000EB800043000122652033662260286075
:10524000FFF7E2BB604E96F8400060E423682868F0
:10525000FFF7B8BB0123236005F080F9002805DDC6
:105260005848594E05F0CEFDC6F8AC000123632026
:1052700023602860FFF7C8BB534AD36F0133032B69
:10528000C8BF0023D367F1E74F4EB36FB3FA83F380
:105290005B0901226320B36722602860FFF7B4BB7B
:1052A0000123236005F05AF9002807DD4548464EE2
:1052B00005F0A8FD07F072FFC6F89400632028608F
:1052C0002368FFF77FBB0123236005F047F900281F
:1052D000F4DD3C483C4E05F095FD07F05FFFC6F855
:1052E0009000EBE70123236005F038F90028E5DDA5
:1052F0003448354E05F086FDA6F8BA00DEE7FFF724
:105300005FF923682868FFF75ABB2F4ED6F8803024
:10531000B3FA83F35B0901226320C6F88030226070
:105320002860FFF771BB2C4A1368B3FA83F35B095B
:1053300001216420136021602860FFF765BB012311
:10534000236005F00BF9002800F33E87234B1A6811
:10535000042AC4BF02221A6064232B6023686420DD
:10536000FFF72DBB1E4ADFE71E4ADDE7164ED6F8D3
:10537000A030B3FA83F35B0901226420C6F8A030A1
:1053800022602860FFF740BB012311482360FCF72F
:10539000A7F8154A2368106064222A60DFE7134AE1
:1053A000C2E7134A134F1368002B0CBF01230023DD
:1053B0004FF001001360206040F03D870346EBE7AB
:1053C0000D4AB1E7D887FF1F4C93FF1F6F12833A36
:1053D000EC94FF1F00007A448C92FF1F6887FF1F28
:1053E000E094FF1FC894FF1F9894FF1F9494FF1F21
:1053F000C494FF1FA092FF1F7494FF1F05F0AEF826
:1054000000280DDDC148C24E05F0FCFC07F0C6FEC9
:10541000C04907F0CBFF01226223306222602B607B
:1054200005F09CF8002840F30E86B848B84E05F009
:10543000E9FC01226223B06622602B60B34805F0CC
:105440004DFBB24805F04AFBB04805F047FBAF48BA
:1054500005F044FBAD4805F041FB1521AE4805F0D1
:10546000A7F8AA4805F03AFB1421AC4805F0A0F8CB
:10547000A64805F033FB1B21A94805F099F8A3487D
:1054800005F02CFB1321A74805F092F89F4805F082
:1054900025FB9E4805F022FB9C4805F01FFB2021C0
:1054A000A14805F085F8F0689A4907F0CBFE07F0AF
:1054B0001FFA002702460B460097944805F068FB48
:1054C00002219A4805F074F80221994805F070F815
:1054D0008E4805F003FB2121964805F069F83069F4
:1054E0008C4907F0AFFE07F003FA009702460B461F
:1054F000864805F04DFB02218C4805F059F8022141
:105500008B4805F055F8814805F0E8FA1F218A48D4
:1055100005F04EF8B06A07F0EBF9022502460B469B
:1055200000957A4805F034FB0121844805F040F8E5
:1055300029467F4805F03CF8744805F0CFFA202151
:105540007F4805F035F8F06A07F0D2F90095024679
:105550000B466E4805F01CFB0121784805F028F841
:105560002946734805F024F8684805F0B7FA232166
:10557000744805F01DF8B06C664907F063FE07F04B
:10558000B7F9009702460B46604805F001FB294633
:10559000664805F00DF82946654805F009F85B48AE
:1055A00005F09CFA1F21684805F002F8F06C594993
:1055B00007F048FE07F09CF9009702460B46534857
:1055C00005F0E6FA2946594804F0F2FF2946584802
:1055D00004F0EEFF4D4805F081FA19215B4804F014
:1055E000E7FFB16D494805F0C9FA2946584804F06B
:1055F000DFFF29464E4804F0DBFF444805F06EFA11
:105600001821544804F0D4FF706E07F0C7FD5249CA
:1056100007F018FE07F06CF9009502460B463B4870
:1056200005F0B6FA01214D4804F0C2FF2946404872
:1056300004F0BEFF354805F051FA2B21484804F02C
:10564000B7FFB069334907F0FDFD07F051F9009746
:1056500002460B462D4805F09BFA2946334804F0D4
:10566000A7FF2946324804F0A3FF284805F036FA80
:105670001F213C4804F09CFF716D244805F07EFA20
:1056800029462B4804F094FF204805F027FA2021F2
:10569000354804F08DFF316D1C4805F06FFA29463E
:1056A000234804F085FF194805F018FA10212F4807
:1056B00004F07EFFB16E154805F060FA29461B48DC
:1056C00004F076FF29461A4804F072FF0F4805F0EF
:1056D00005FA1321264804F06BFFF16E0B4805F024
:1056E0004DFA0121234804F063FF2946104804F0D5
:1056F0005FFF064805F0F2F910211F4804F058FF3B
:10570000316F024805F03AFA294637E0D887FF1F83
:105710004C93FF1F00007A443827010050270100F6
:105720006827010040220100842701003C2201007B
:10573000F42A0100A8270100CC270100C01D0100A8
:10574000EC27010010280100342801005428010032
:105750007028010074280100CDCCCC3DF02601005A
:1057600090280100BC280100DC280100002901006C
:1057700014290100282901002C290100BA4804F04D
:1057800017FF2946B94804F013FFB94805F0A6F9F8
:105790001421B84804F00CFF716FB54805F0EEF91C
:1057A0000121B54804F004FF2946B04804F000FF89
:1057B000AF4805F093F91621B04804F0F9FE306ABD
:1057C000AF4907F03FFD07F093F800970B460246FC
:1057D000A74805F0DDF92946A34804F0E9FE29466B
:1057E000A24804F0E5FEA24805F078F9A04805F0CB
:1057F00075F903232360FFF70CBA04F0AFFE00280D
:1058000040F321849A489F4E05F0FCFA07F0C6FC4D
:105810009B4907F0CBFD01226223306122602B609F
:105820000CE604F09BFE002840F30D849048954E52
:1058300005F0E8FA07F0B2FC01226223B0622260B0
:105840002B60FBE504F08AFE002840F3FC838848C7
:105850008C4E05F0D7FA07F0A1FC01226223F0621A
:1058600022602B60EAE504F079FE002840F3EB8328
:105870007F48844E05F0C6FA07F090FC804907F097
:1058800095FD01226223B06422602B60D6E504F00E
:1058900065FE002840F3D78375487A4E05F0B2FACA
:1058A00007F07CFC764907F081FD01226223F06459
:1058B00022602B60C2E504F051FE002840F3C38350
:1058C0006B48704E05F09EFA01226223B06522609B
:1058D0002B60B3E504F042FE002840F3B483644833
:1058E000684E05F08FFA00EB800043000121622230
:1058F000736621602A60A1E504F030FE002840F3C1
:10590000A2835B485F4E05F07DFA07F047FC5C49D7
:1059100007F04CFD01226223B06122602B608DE50F
:1059200004F01CFE002840F38E835148554E05F0CC
:1059300069FA01226223306522602B607EE504F063
:105940000DFE002840F37F8349484E4E05F05AFA79
:1059500001226223306722602B606FE504F0FEFDB8
:10596000002840F370834248464E05F04BFA01226E
:105970006223706722602B6060E504F0EFFD002871
:1059800040F361833A483F4E05F03CFA012262231E
:10599000F06622602B6051E5FDF7C0FA0221334822
:1059A000384E04F005FE324805F098F802212F48E1
:1059B00004F0FEFD2E4805F091F802212B4804F07A
:1059C000F7FD2B4805F08AF817212F4804F0F0FD69
:1059D000274805F083F80221244804F0E9FD244813
:1059E00005F07CF80122622322602B6026E500226C
:1059F000732322602B60FFF7ABB8244B1B48214E6A
:105A0000002202211A6004F0D3FD194805F066F85F
:105A10000B211F4804F0CCFDDDE704F09FFD0028BA
:105A200040F311831248174E05F0ECF907F0B6FB6E
:105A3000134907F0BBFC01226223F06022602B6057
:105A4000FCE4BC2200210F4802F0E2FE2868114A63
:105A5000A0F1730001210023B0FA80F04009116029
:105A60002360FFF773B800BF3C220100F42A010055
:105A7000D887FF1F4029010028290100582901006B
:105A800000007A444C93FF1FD02101008092FF1F39
:105A9000E82101003C87FF1FB548B64D05F01EF810
:105AA000B34805F01BF8B24805F018F8B04805F007
:105AB00015F8AF4805F012F81521AF4804F078FD4D
:105AC000AB4805F00BF81821AC4804F071FD002339
:105AD0000A2295F84010A64805F010F8A44804F0F2
