:1000000000800020BD010000658300001D8300000A
:100010001D8300001D8300001D8300001D83000060
:100020001D8300001D8300001D8300006583000008
:10003000658300001D83000099A200009DA30000BD
:100040006583000065830000658300006583000010
:100050006583000065830000658300006583000000
:1000600065830000658300006583000065830000F0
:1000700065830000658300006583000065830000E0
:1000800065830000658300006583000065830000D0
:1000900065830000658300006583000065830000C0
:1000A00065830000658300006583000065830000B0
:1000B00065830000017F00000D7F0000117F0000BC
:1000C0001D7F0000217F0000257F00006583000068
:1000D0006583000065830000658300006583000080
:1000E0006583000065830000658300006583000070
:1000F00065830000A5AA0000658300000190000050
:10010000658300001993000065830000658300008B
:10011000658300006583000065830000658300003F
:10012000658300006583000065830000658300002F
:10013000658300006583000065830000658300001F
:10014000658300006583000065830000658300000F
:1001500065830000658300006583000065830000FF
:1001600065830000659500006583000065830000DD
:1001700065830000658300006583000065830000DF
:1001800065830000658300006583000065830000CF
:1001900065830000658300006583000065830000BF
:1001A00065830000658300006583000065830000AF
:1001B000658300006583000065830000564B4CF2A8
:1001C000205210B51A804DF628121A8000BF00BFC9
:1001D00008F0CCF8514B4FF010621A60504A9A6008
:1001E000504ADA60504A136813F4807304D14F49BF
:1001F0000B604FF4A85313604D4B1A78110703D5C9
:100200001A7842F008021A704A4B4B492A221A7097
:100210004A4A4B4B8B4204D252F8040F43F8040B6A
:10022000F8E7484B484900228B4202D243F8042B9E
:10023000FAE74649464A002352F8230041F82300D2
:1002400001336F2BF8D1434B434A802103F8011B44
:100250009342FBD1414B3D4A1A60414B8A221A70AE
:10026000A3F5805324225A70A0221A709A7992071B
:10027000FCD59A79D406FCD43A4A937903F00C035E
:10028000082B384BF9D103221A7140225A719A79FE
:100290009006FCD5334A9179324B4906FBD5324A58
:1002A000324911600221516020221A709A7902F0BD
:1002B0000C020C2AFAD12E4B2E4A1A602E4B2F4AD2
:1002C0001A6000225A60072243F8042C2C4AC3F813
:1002D0000C2D62B608F000FB144B1B68DA0705D53D
:1002E000284808F0DDF8284B284A1A60284B1B786C
:1002F0005B0609D5244C254B22689A4204D121483B
:1003000008F0CEF8002323600CF0D0FE08F034F89B
:100310000AF088FAFEE700BF0E2005403080044056
:10032000823F04000100002B10D0034014D0034092
:1003300002D0074000E007402892FF1F3C2A01003E
:100340002087FF1F2892FF1F14BBFF1F0082FF1F83
:100350000000000000E400E05FE400E008ED00E0E1
:100360000050064000400640448004400000030165
:1003700004800440C010050014E000E0FF76010096
:1003800000002020E912F05B1CE00340A5C3945A52
:1003900000F00740FFFFFFFFFFFFFFFFFFFFFFFF32
:1003A000FFFFFFFFFFFFFFFFFFFFFFFFFFFFFFFF5D
:1003B000FFFFFFFFFFFFFFFFFFFFFFFFFFFFFFFF4D
:1003C000FFFFFFFFFFFFFFFFFFFFFFFFFFFFFFFF3D
:1003D000FFFFFFFFFFFFFFFFFFFFFFFFFFFFFFFF2D
:1003E000FFFFFFFFFFFFFFFFFFFFFFFFFFFFFFFF1D
:1003F000FFFFFFFFFFFFFFFFFFFFFFFFFFFFFFFF0D
:10040000FFFFFFFFFFFFFFFFFFFFFFFFDEF9FFFF23
:1004100010B5054C237833B9044B13B10448AFF33E
:1004200000800123237010BD2892FF1F00000000F0
:10043000382A0100084B10B51BB108490848AFF332
:1004400000800848036803B910BD074B002BFBD0A0
:10045000BDE81040184700BF000000002C92FF1FAD
:10046000382A01002892FF1F00000000F0B400F1BC
:1004700014060F4F00243146031F00F12C0243F8ED
:10048000044FB34241F8047F4FF0000542F8044F97
:10049000F5D1084B084985640022C56405650566E9
:1004A0004365C365816580F88020F0BC704700BF5C
:1004B0000000A040000048430000C8C200230360C1
:1004C00043608360C360036143618364C364036505
:1004D000436570472DE9F04190F8804084B00023D7
:1004E00064008DF80530E4B2012380468DF80440A5
:1004F0008DF806300327204608F0AAFE02210DF1F0
:10050000050008F0AFFE8DF8044002F02FFB30B379
:100510000921C94809F05AFD002310222146C74885
:1005200009F0FAFF0121C64809F050FD002310220E
:100530009DF80510C14809F0EFFF0121C04809F0FE
:1005400045FD002310229DF80610BC4809F0E4FF89
:100550000121BB4809F03AFDB84809F0CDFF02205F
:100560008DF8044008F06AF902F000FB002840F022
:10057000778102AE002408F08BFE002800F026816F
:10058000042C40F0158101E008F092FE08F080FE96
:100590000028F9D102F0EAFA10B1A84809F0ACFF3E
:1005A00098F880406400E4B2202204238DF80440CF
:1005B0008DF805208DF806300327204608F048FE08
:1005C00002210DF1050008F04DFE8DF8044002F007
:1005D000CDFA30B30921984809F0F8FC0023102225
:1005E0002146964809F098FF0121954809F0EEFC54
:1005F000002310229DF80510904809F08DFF01217D
:100600008F4809F0E3FC002310229DF806108B4868
:1006100009F082FF01218A4809F0D8FC874809F0D7
:100620006BFF02208DF8044008F008F902F09EFAF2
:10063000002840F00B8102AE002408F029FE0028BB
:1006400000F0A980072C40F0988001E008F030FE0F
:1006500008F01EFE0028F9D102F088FA10B17748A0
:1006600009F04AFF98F880409DF80B209DF80C3067
:100670009DF80D00C8F86C206400E4B29DF80E10DF
:10068000C8F87030332201238DF80440C8F8740094
:10069000C8F878108DF805208DF80630032720461D
:1006A00008F0D6FD02210DF1050008F0DBFD8DF804
:1006B000044002F05BFA30B309215F4809F086FC80
:1006C0000023102221465D4809F026FF01215C48E5
:1006D00009F07CFC002310229DF80510574809F012
:1006E0001BFF0121564809F071FC002310229DF8E0
:1006F0000610524809F010FF0121514809F066FC2C
:100700004E4809F0F9FE02208DF8044008F096F8F2
:1007100002F02CFA002840F09E8002AE002408F07F
:10072000B7FDF8B1042C0FD101E008F0C1FD08F0CD
:10073000AFFD0028F9D102F019FA10B13F4809F0D5
:10074000DBFE04B0BDE8F08108F0B2FD054606F816
:10075000010B02F00BFA00285AD1013408F098FD81
:100760000028DFD1042CE2D002F000FA00285ED18C
:10077000013FE6D09DF8044091E708F099FD054659
:1007800006F8010B02F0F2F960BB013408F080FDBD
:1007900000287FF457AF072C3FF45AAF02F0E6F978
:1007A00000284FD1013F3FF45DAF9DF8044004E7BE
:1007B00008F07EFD054606F8010B02F0D7F9E0B916
:1007C000013408F065FD00287FF4DAAE042C3FF414
:1007D000DDAE02F0CBF930BB013F3FF4E1AE9DF856
:1007E000044088E6E9B200231022144809F094FE80
:1007F0000121134809F0EAFBC7E7E9B20023102200
:100800000E4809F089FE01210D4809F0DFFBD7E70A
:10081000E9B200231022094809F07EFE01210848B0
:1008200009F0D4FB99E7054809F066FED4E70348D0
:1008300009F062FE9CE700BF58120100CC87FF1F41
:1008400070190100094809F057FEABE70721084875
:1008500009F0BCFBEFE60721054809F0B7FB5CE7B0
:100860000721034809F0B2FB83E600BFCC87FF1FD6
:100870006412010090F87000704700BF90F86C009F
:10088000704700BF90F87400704700BF90F8780080
:10089000704700BF2DE9F04390F8808085B04FEAA3
:1008A00048085FFA88F8322200238DF804808DF81A
:1008B00005208DF8063003250DF1060748F00109E3
:1008C000484608F0C5FC01AE0DF10500022108F014
:1008D000C9FC8DF804904A46334600205040082455
:1008E00010F0800F4FEA400018BF80F00700013C75
:1008F000C0B2F5D1BB4202D013F8012FEEE708F0E9
:10090000A7FC02F033F900284AD102208DF80480B8
:1009100007F094FF02F02AF9002840F081800DF1E1
:100920000808002408F0B4FC08B3042C12D101E03C
:1009300008F0BEFC08F0ACFC0028F9D102F016F972
:1009400010B13A4809F0D8FD022007F077FF05B052
:10095000BDE8F08308F0ACFC08F8010B064602F095
:1009600005F970B9013408F093FC0028DDD1042C9E
:10097000E0D002F0FBF878B9013DE5D09DF80480A5
:100980009CE7F1B200231022284809F0C5FD01219F
:10099000274809F01BFBE5E7244809F0ADFDEBE72C
:1009A0000921244809F012FB2346102249461F481A
:1009B00009F0B2FD01211E4809F008FB2346102270
:1009C0009DF80510194809F0A7FD0121184809F004
:1009D000FDFA102223469DF80610144809F09CFDEC
:1009E0000121134809F0F2FA21460DF1070216F829
:1009F000014B6140C9B2082311F0800F4FEA410159
:100A000018BF81F00701013BC9B2F5D1B242EED166
:100A10001022064809F080FD044809F06DFD74E7D6
:100A20000721054809F0D2FA79E700BFCC87FF1FFC
:100A30007019010058120100641201002DE9F04FF5
:100A4000074691B097F8803002205B008DF808309F
:100A500007F0F4FE97F8803038465B008DF80830D8
:100A6000FFF738FD786FBC6F3B6FFA6E97F8801018
:100A70008DE81100C94802F073F930223D238DF84A
:100A800009208DF80A3003260DF10A059DF808901B
:100A900049F00108404608F0DBFB0DF10900022196
:100AA00008F0E0FB8DF80880424602AB0020504081
:100AB000082410F0800F4FEA400018BF80F00700B4
:100AC000013CC0B2F5D19D4202D013F8012FEEE7F0
:100AD00008F0BEFB02F04AF8002840F07D820220B8
:100AE0008DF8089007F0AAFE02F040F8002840F0C8
:100AF000B9820DF10C0AD146002408F0C9FB002888
:100B000043D0032C34D101E008F0D2FB08F0C0FB45
:100B10000028F9D102F02AF810B1A14809F0ECFC44
:100B2000312303268DF809308DF80A609DF808906E
:100B300049F00108404608F08BFB0DF10900022145
:100B400008F090FB8DF80880424602AB0020504030
:100B5000082410F0800F4FEA400018BF80F0070013
:100B6000013CC0B2F5D19D4228D013F8012FEEE729
:100B700008F09EFB09F8010B804601F0F7FF68B909
:100B8000013408F085FB0028BBD1032CBED001F056
:100B9000EDFF78B9013E7FF479AFC1E75FFA88F1E4
:100BA000002310227E4809F0B7FC01217D4809F09E
:100BB0000DFAE5E77A4809F09FFCEBE708F048FBFF
:100BC00001F0D4FF002840F0C68102208DF8089083
:100BD00007F034FE01F0CAFF002840F03E820DF11C
:100BE0000C09002408F054FB002844D0032C35D114
:100BF00001E008F05DFB08F04BFB0028F9D101F0A3
:100C0000B5FF10B1664809F077FC342201238DF856
:100C100009208DF80A3003269DF8089049F0010854
:100C2000404608F015FB0DF10900022108F01AFBFF
:100C30008DF80880424602AB00205040082410F096
:100C4000800F4FEA400018BF80F00700013CC0B29F
:100C5000F5D19D4228D013F8012FEEE708F028FBCC
:100C600009F8010B804601F081FF68B9013408F0F2
:100C70000FFB0028BAD1032CBDD001F077FF78B963
:100C8000013E7FF453AFC0E75FFA88F100231022E2
:100C9000434809F041FC0121424809F097F9E5E792
:100CA0003F4809F029FCEBE708F0D2FA01F05EFFBB
:100CB000002840F00F8102208DF8089007F0BEFD5B
:100CC00001F054FF002840F0D7810DF10C090024F9
:100CD00008F0DEFA002800F08580032C73D101E0D3
:100CE00008F0E6FA08F0D4FA0028F9D101F03EFF46
:100CF00010B12B4809F000FC012212238DF80920C5
:100D00008DF80A304FF003089DF80840204608F09F
:100D10009FFA02210DF1090008F0A4FA8DF80840AD
:100D200001F024FF30B309211F4809F04FF90023D7
:100D3000102221461A4809F0EFFB0121194809F059
:100D400045F9002310229DF80910154809F0E4FB2D
:100D50000121144809F03AF9002310229DF80A10E5
:100D60000F4809F0D9FB01210E4809F02FF90C4872
:100D700009F0C2FB06208DF8084007F05FFD01F086
:100D8000F5FE002840F0738103AD002608F080FADC
:100D9000002840D0162E30D10AE000BF6C120100AE
:100DA000CC87FF1F701901005812010008F080FA6B
:100DB00008F06EFA0028F9D101F0D8FE16260028B6
:100DC0007DD1152035E008F073FA09F8010B804653
:100DD00001F0CCFE00285BD1013408F059FA00285C
:100DE0007FF47BAF032C3FF47DAF01F0BFFE002802
:100DF0006CD1013E7FF410AF7EE708F059FA05F898
:100E0000010B044601F0B2FE00284DD1013608F076
:100E10003FFA0028BED1162ECAD001F0A7FE002846
:100E20004DD1B8F101087FF46FAF701E002840F378
:100E30002182002303AA1C4612F8011B08254C40FE
:100E400014F0800F4FEA440418BF84F00704013DFA
:100E5000E4B2F5D101338342EEDB9DF8218089486D
:100E60004146224601F07CFF162EC146A34602D120
:100E7000A04500F0138197F880108348CDF800B0AA
:100E80004B46324601F09AFF002011B0BDE8F08FCA
:100E90005FFA88F1002310227C4809F03DFB012114
:100EA0007B4809F093F897E7E1B2002310227748D6
:100EB00009F032FB0121764809F088F8A6E773486B
:100EC00009F01AFB162EACD11520B2E76F4809F0D5
:100ED00013FB8EE709216F4809F078F823461022AA
:100EE00041466A4809F018FB0121694809F06EF88B
:100EF000234610229DF80910644809F00DFB0121DA
:100F0000634809F063F8102223469DF80A105F48F1
:100F100009F002FB01215E4809F058F821460DF165
:100F20000B0002AA12F8014B6140C9B2082311F06C
:100F3000800F4FEA410118BF81F00701013BC9B2A0
:100F4000F5D19042EED11022504809F0E5FA4F4811
:100F500009F0D2FAAFE609214E4809F037F82346E6
:100F600010224146494809F0D7FA0121484809F0C2
:100F70002DF8234610229DF80910444809F0CCFAB8
:100F80000121434809F022F8102223469DF80A1057
:100F90003E4809F0C1FA01213D4809F017F8214601
:100FA0000DF10B0002AA12F8014B6140C9B20823EF
:100FB00011F0800F4FEA410118BF81F00701013B9A
:100FC000C9B2F5D19042EED11022304809F0A4FA0E
:100FD0002E4809F091FAF8E509212E4808F0F6FFAD
:100FE000234610224146294809F096FA0121284853
:100FF00008F0ECFF234610229DF80910234809F061
:101000008BFA0121224808F0E1FF102223469DF8C7
:101010000A101E4809F080FA01211D4808F0D6FF89
:1010200021460DF10B0002AA12F8014B6140C9B232
:10103000082311F0800F4FEA410118BF81F007012A
:10104000013BC9B2F5D19042EED110220F4809F010
:1010500063FA0E4809F050FA41E507210E4808F0FE
:10106000B5FFBCE507210C4808F0B0FF41E50721BA
:10107000094808F0ABFF87E60721074808F0A6FFFC
:1010800023E600BFA0120100EC120100CC87FF1F75
:101090007019010058120100641201009DF80C3013
:1010A00097F88020B3EB420F7FF4EEAE9DF80D3041
:1010B000012B7FF4E9AE9DF80E30122B7FF4E4AEE5
:1010C0009DF810309DF80F0003EB00200BF072FD2F
:1010D00074490BF0C3FD396EB86404460BF07AFF17
:1010E00000B13C66F96D20460BF056FF00B1FC657F
:1010F000A7F1040907F1180607F130054FF00008C1
:101100009AF806309AF8050003EB00200BF052FD28
:1011100065490BF0A3FD49F8040F316804460BF054
:101120003BFF08F101080AF1020A28B1796E204656
:101130000BF046FF00B13460296820460BF04AFFEF
:10114000043600B12C60B8F1060F05F10405D7D1C3
:101150009DF81E309DF81D0003EB002002300BF0BF
:1011600029FD52490BF02EFE014651480BF02AFE94
:1011700050490BF069FC50490BF070FD054609F031
:10118000DBFD0446284609F0D7FD4C4909F046FE30
:101190004B49054620460BF061FD4A490BF056FCD1
:1011A0004949044628460BF059FD014620460BF0FC
:1011B0004DFC01464FF07E500BF004FE43490BF00E
:1011C00043FC9DF81F209DF82030F86403EB0220BB
:1011D00009300BF0EFFC3E490BF0F4FD01463448BA
:1011E0000BF0F0FD33490BF02FFC33490BF036FDCB
:1011F000054609F0A1FD0446284609F09DFD2F494A
:1012000009F00CFE2E49054620460BF027FD2D491E
:101210000BF01CFC2C49044628460BF01FFD014630
:1012200020460BF013FC01464FF07E500BF0CAFD38
:1012300026490BF009FCFD6C3865294604460BF085
:10124000C9FE796D30BB20460BF0A6FE08B12346DF
:101250007B65294620460BF0BDFEA0B92946B86D36
:101260000BF09AFE08B12C46BC651A4801F078FDD7
:1012700001200AE69DF82190174849464246C34698
:1012800001F06EFDF7E5B96D20460BF0A3FE0028D6
:10129000EAD1EAE728460BF07FFE0028F3D02B4680
:1012A000D6E700BF1357053B2003C8390016014796
:1012B0000AD7E33FE17A644000007A4400004040EE
:1012C000A40D8F395A80473A46A6DB3333938843BF
:1012D000002C0147C4120100A0120100052994BF8F
:1012E00050F82100002070472DE9F0410B4E804658
:1012F000041F00F1140754F8045F314628460BF030
:101300004BFE30B1D8F8641028460BF063FE00B1F4
:101310002E46BC42EFD13046BDE8F08100002041AE
:10132000F8B50026041F00F1140754F8045F314695
:1013300028460BF04FFE00B12E46BC42F5D1304698
:10134000F8BD00BF2DE9F047476E82464FF0000917
:10135000041F00F114064FF0000854F8045F3946EA
:1013600028460BF037FE0D4950B128460BF014FE0D
:1013700030B1484629460BF069FB08F10108814667
:10138000B442EAD1CAF8848040460BF013FC01460F
:1013900048460BF017FDBDE8F08700BF0000704223
:1013A000D0F88400704700BF38B5056DC46C29467D
:1013B00020460BF0F1FD00B92C46204638BD00BF99
:1013C00038B5046DC56C214628460BF0E5FD00B923
:1013D0002C46204638BD00BF08B5C36F1BB100EBDB
:1013E0008300806C08BD016DC06C0BF02FFB4FF0CB
:1013F0007C510BF033FC08BD806C704701299ABF0B
:1014000000EB8101C86C0020704700BF3E2998BFE7
:1014100080F88010704700BF90F86800704700BFE8
:10142000C167704780F86810704700BF4166704719
:1014300070B500F506550646183500F12004204623
:101440008834FFF713F8AC42F9D106F1A80501245E
:1014500028460021FFF7E6FF214628460134FFF722
:10146000D5FF3F2C05F18805F2D142F2A0140025EA
:101470000548064A064B3555002130617161B2615D
:10148000F361304670BD00BF00007A44000048435D
:101490000000C8C238B500F50655183500F1A8049B
:1014A00002E08834AC420AD02046FFF7B5FF00289E
:1014B000F7D020468834FFF701F8AC42F4D138BDAC
:1014C0002DE9F04142F2A41300F5065637460022FA
:1014D0008046C2501836243700F1A80402E0883450
:1014E000B4420DD02046FFF797FF0028F7D02046E2
:1014F0003D68FFF755FF88342844B4423860F1D185
:1015000042F2A41358F80300BDE8F0812DE9F04F32
:1015100091B0012A00928146059100F0F68109F10F
:10152000A80A4FF0010B5046FFF776FFC0B1002527
:101530002C46012629465046D9F80870FFF7CEFE02
:10154000014638460BF028FD18B106FA05F31C4396
:10155000E4B20135062DEDD1009B012B0AD0F4B980
:101560000BF1010BBBF13F0F0AF1880ADBD111B07F
:10157000BDE8F08F5946B94809F00EF80321B84884
:1015800008F024FD214600230222B44808F0C4FFDD
:101590000321B44808F01AFD002C00F0F7804FEA50
:1015A0004B03DBB21946019343F001039DF814206D
:1015B00002931D46184633238DF81E208DF81D30EA
:1015C0008DF81C1007F044FE0DF11D00022107F0FC
:1015D00049FE07AA04928DF81C502A4607AB0DF16C
:1015E0001E0600205040082510F0800F4FEA4000F2
:1015F00018BF80F00700013DC0B2F5D19E4202D075
:1016000013F8012FEEE707F023FE01F0AFFA0028F0
:1016100040F0E2809DF804308DF81C30022007F085
:101620000DF901F0A3FA002840F06A8108AB03939A
:101630001F46002507F02CFE002844D01E2D35D172
:1016400001E007F035FE07F023FE0028F9D101F094
:101650008DFA00283DD1009B012B40D08DF81E4013
:10166000029C9DF804208DF81C20322320468DF822
:101670001D3007F0EDFD0DF11D00022107F0F2FD18
:101680008DF81C4007AB224600205040082410F083
:10169000800F4FEA400018BF80F00700013CC0B245
:1016A000F5D19E423BD013F8012FEEE707F000FE84
:1016B00007F8010B804601F059FA20BB013507F00D
:1016C000E7FD0028BAD11E2DBDD001F04FFA002849
:1016D000C1D0624808F010FF009B012BBED1039DD2
:1016E00009AF15F8011B5D480023102208F014FF14
:1016F00001215D4808F06AFCBD42F2D1032159483E
:1017000008F064FCAAE75FFA88F10023102253482E
:1017100008F002FF0121554808F058FCCEE707F019
:1017200097FD01F023FA002840F0A4809DF80430D2
:101730008DF81C30022007F081F801F017FA00281C
:1017400040F0D980039D002407F0A2FD78B31E2C41
:1017500020D101E007F0ACFD07F09AFD0028F9D197
:1017600001F004FA48BB009B012B7FF4F9AE039D06
:1017700009AC15F8011B39480023102208F0CCFEF3
:101780000121394808F022FCA542F2D1334808F083
:10179000B3FEE5E607F08CFD05F8010B064601F007
:1017A000E5F970B9013407F073FD0028CFD11E2C84
:1017B000D2D001F0DBF90028D5D0284808F09CFEF3
:1017C000D1E7F1B200231022244808F0A5FE012140
:1017D000264808F0FBFBE5E70921254808F0F6FB61
:1017E0002B46102202991D4808F096FE01211F4841
:1017F00008F0ECFB2B4610229DF81D10174808F04E
:101800008BFE0121194808F0E1FB10222B469DF8C0
:101810001E10124808F080FE0121144808F0D6FB83
:1018200029460DF11F0007AA12F8013B5940C9B221
:10183000082311F0800F4FEA410118BF81F0070122
:10184000013BC9B2F5D19042EED11022034808F015
:1018500063FE024808F050FEDCE600BFCC87FF1FA5
:101860003C130100401301004413010070190100F2
:10187000581201000921274808F0A8FB234610222E
:101880000299254808F048FE0121244808F09EFBF3
:10189000234610229DF81D101F4808F03DFE01212F
:1018A0001E4808F093FB102223469DF81E101A488C
:1018B00008F032FE0121194808F088FB04982146FF
:1018C0000DF11F0210F8013B5940C9B2082311F075
:1018D000800F4FEA410118BF81F00701013BC9B2F7
:1018E000F5D18242EED110220B4808F015FE0A48CD
:1018F00008F002FE1AE70721094808F067FB21E714
:101900000721074808F062FB90E6034808F0F4FD61
:1019100005E600BF58120100CC87FF1F70190100B7
:10192000641201002DE9F04F824685B04FF00009A6
:1019300001238DF800908DF801908DF802304FF062
:1019400003080024204607F083FC02210DF101006A
:1019500007F088FC8DF8004001F008F930B3092148
:10196000B54808F033FB002310222146B34808F0A5
:10197000D3FD0121B24808F029FB002310229DF875
:101980000110AE4808F0C8FD0121AD4808F01EFB6B
:10199000002310229DF80210A84808F0BDFD012187
:1019A000A74808F013FBA54808F0A6FD02208DF813
:1019B000004006F043FF01F0D9F8002840F089808C
:1019C00001AF3E46002407F063FC002867D0042CDA
:1019D00058D101E007F06CFC07F05AFC0028F9D15F
:1019E00001F0C4F810B1954808F086FD9DF8043068
:1019F000802B40F01E819DF80530002B40F01981AE
:101A00009DF80640012C40F014818E4801F0A8F9A1
:101A10000AF1A806254604E001353F2D06F18806A7
:101A200086D03046FFF7F8FC83460028F4D13B22ED
:101A300065F07F0301208DF801208DF802308DF8CC
:101A400000B007F005FC0DF10100022107F00AFCCF
:101A500001228DF80020E84658466B460DF102023F
:101A60006040C0B2082410F0800F4FEA400018BF59
:101A700080F00700013CC0B2F5D193422ED013F89C
:101A8000014FEDE707F014FC06F8010B054601F0E5
:101A90006DF898B9013407F0FBFB002897D1042CAE
:101AA0009AD001F063F810B1644808F025FDB8F150
:101AB000010800F0BE809DF8004043E7E9B2002332
:101AC00010225E4808F028FD01215D4808F07EFAEA
:101AD000E0E707215C4808F079FA71E707F0B8FB06
:101AE00001F044F800285AD103208DF8009006F048
:101AF000A5FE01F03BF8002840F09680002407F096
:101B0000C7FBB0B30A2C27D101E007F0D1FB07F0E7
:101B1000BFFB0028F9D101F029F800287FD19DF8FA
:101B20000430812B7FF404AF9DF805303B2B7FF40C
:101B3000FFAE9DF806308035AB427FF4F9AE3046FB
:101B40000121FFF76FFC0AF506534048DA690132BC
:101B5000DA6101F005F9EBE607F0AAFB07F8010BE3
:101B6000804601F003F870B9013407F091FB0028BA
:101B7000C8D10A2CCBD000F0F9FF002850D1022C9C
:101B80007FF7D6AECBE75FFA88F1002310222B480F
:101B900008F0C2FC01212A4808F018FAE4E70921FC
:101BA000254808F013FA234610220121234808F0A3
:101BB000B3FC0121224808F009FA234610229DF8BF
:101BC00001101E4808F0A8FC01211D4808F0FEF98C
:101BD000102223469DF80210184808F09DFC0121B0
:101BE000174808F0F3F921460DF1030218F8014BEC
:101BF0006140C9B2082311F0800F4FEA410118BFBC
:101C000081F00701013BC9B2F5D14245EED1102266
:101C10000A4808F081FC094808F06EFC64E70A24D1
:101C2000064808F069FCAAE70721074808F0CEF942
:101C300064E705B0BDE8F08F58120100CC87FF1FA4
:101C400070190100481301006412010054130100CF
:101C50002DE9F04742F29C1284B000230127835003
:101C600082468DF804308DF8053000F1A8088DF813
:101C700006704FEA47095FFA89F400214046FFF7F2
:101C8000D1FB20468DF8044007F0E2FA02210DF165
:101C9000050007F0E7FA8DF8044000F067FF30B365
:101CA0000921494808F092F90023102221464748AB
:101CB00008F032FC0121464808F088F90023102280
:101CC0009DF80510414808F027FC0121404808F024
:101CD0007DF9002310229DF806103C4808F01CFCFA
:101CE00001213B4808F072F9384808F005FC14203F
:101CF0008DF8044006F0A2FD00F038FF00285DD109
:101D000002AE002407F0C4FA40B3082C19D101E058
:101D100007F0CEFA07F0BCFA0028F9D100F026FF50
:101D2000002846D19DF808304B4522D001370520C8
:101D300006F084FD3F2F08F188089AD104B0BDE871
:101D4000F08707F0B5FA054606F8010B00F00EFF24
:101D500020BB013407F09CFA0028D6D1082CD9D03A
:101D600000F004FF30BB042CE0DD9DF808304B454B
:101D7000DCD19DF80930002BD8D19DF80A1001293B
:101D8000D4D19DF80C30002BD0D04046FFF74AFB51
:101D90000AF50653DA690132DA61C7E7E9B20023CE
:101DA00010220A4808F0B8FB0121094808F00EF992
:101DB000CFE70824054808F09FFBD4E70721054832
:101DC00008F004F99CE700BF58120100CC87FF1F00
:101DD00070190100641201002DE9F04700F5065664
:101DE000354684B0804618361C3500F1A80400271B
:101DF000204600218834FFF715FBB4422F60F7D14D
:101E000002270DF106064FF07F093C22A5237E2113
:101E10007F208DF805208DF806308DF8041001AD77
:101E200007F016FA0DF10500022107F01BFA8DF8F4
:101E300004902B467F2200205040082410F0800F91
:101E40004FEA400018BF80F00700013CC0B2F5D156
:101E5000B34202D013F8012FEEE707F0F9F900F0D2
:101E600085FE00285AD17E2364208DF8043006F0C8
:101E7000E5FC00F07BFE002840F090800DF1080AA0
:101E8000002407F005FA20B3082C15D101E007F073
:101E90000FFA07F0FDF90028F9D100F067FEF0B95C
:101EA0009DF808307F2B21D0013FAED14046FFF78F
:101EB00039FD04B0BDE8F08707F0FAF905460AF8E5
:101EC000010B00F053FEF0B9013407F0E1F90028EE
:101ED000DAD1082CDDD000F049FE0028E0D03248ED
:101EE00008F00AFB9DF808307F2BDDD19DF8093002
:101EF0003C2BD9D19DF80A30A52BD5D19DF80B30BC
:101F0000572BD1D1D2E7E9B200231022264808F09E
:101F100003FB0121254808F059F8D5E70921244899
:101F200008F054F8234610227F211F4808F0F4FAE5
:101F300001211E4808F04AF8234610229DF805109A
:101F4000194808F0E9FA0121184808F03FF8102272
:101F500023469DF80610144808F0DEFA01211348C4
:101F600008F034F821460DF1070215F8014B6140E5
:101F7000C9B2082311F0800F4FEA410118BF81F068
:101F80000701013BC9B2F5D1AA42EED110220648A1
:101F900008F0C2FA044808F0AFFA64E707210548E0
:101FA00008F014F86AE700BFCC87FF1F7019010022
:101FB00058120100641201002DE9F04385B04FF082
:101FC0007F082022FF2381468DF804808DF80520AC
:101FD0008DF8063003260DF1060548F00107384656
:101FE00007F036F90DF10500022107F03BF98DF8F5
:101FF00004703A4601AB00205040082410F0800FD6
:102000004FEA400018BF80F00700013CC0B2F5D194
:10201000AB4202D013F8012FEEE707F019F900F0F8
:10202000A5FD002840F0768202208DF8048006F09D
:1020300005FC00F09BFD002840F0B2820DF108087D
:10204000002407F025F9002843D0042C34D101E006
:1020500007F02EF907F01CF90028F9D100F086FDF1
:1020600010B1C14808F048FA4FF07F0800238DF8FE
:1020700004808DF80630032648F00107384607F043
:10208000E7F80DF10500022107F0ECF88DF8047077
:102090003A4601AB00205040082410F0800F4FEA70
:1020A000400018BF80F00700013CC0B2F5D1AB4240
:1020B00028D013F8012FEEE707F0FAF808F8010B23
:1020C000074600F053FD70B9013407F0E1F800282D
:1020D000BBD1042CBED000F049FD78B9013EC3D07D
:1020E0009DF8048079E7F9B2002310229E4808F099
:1020F00013FA01219D4807F069FFE5E79A4808F0C7
:10210000FBF9EBE707F0A4F800F030FD002840F001
:10211000C08102208DF8048006F090FB00F026FDBF
:10212000002840F038820DF10808002407F0B0F8CC
:10213000002846D0042C37D101E007F0B9F807F0A9
:10214000A7F80028F9D100F011FD10B1864808F079
:10215000D3F94FF07F082122FF238DF804808DF8FA
:1021600005208DF80630032648F00107384607F0B1
:102170006FF80DF10500022107F074F88DF8047076
:102180003A4601AB00205040082410F0800F4FEA7F
:10219000400018BF80F00700013CC0B2F5D19D425D
:1021A00028D013F8012FEEE707F082F808F8010BAA
:1021B000074600F0DBFC70B9013407F069F800282D
:1021C000B8D1042CBBD000F0D1FC78B9013EC0D00E
:1021D0009DF8048050E7F9B200231022624808F00D
:1021E0009BF90121614807F0F1FEE5E75E4808F040
:1021F00083F9EBE707F02CF800F0B8FC002840F07A
:10220000078102208DF8048006F018FB00F0AEFC78
:10221000002840F0CF810DF10808002407F038F8BD
:10222000002843D0042C34D101E007F041F807F036
:102230002FF80028F9D100F099FC10B14A4808F0B5
:102240005BF94FF07F0800238DF804808DF806308D
:10225000032648F00107384606F0FAFF0DF10500A5
:10226000022106F0FFFF8DF804703A4601AB002012
:102270005040082410F0800F4FEA400018BF80F053
:102280000700013CC0B2F5D19D4228D013F8012FC0
:10229000EEE707F00DF808F8010B074600F066FCC2
:1022A00070B9013406F0F4FF0028BBD1042CBED075
:1022B00000F05CFC78B9013EC3D09DF8048053E780
:1022C000F9B200231022284808F026F901212748F6
:1022D00007F07CFEE5E7244808F00EF9EBE706F08E
:1022E000B7FF00F043FC002851D102208DF8048094
:1022F00006F0A4FA00F03AFC002840F056810DF1F7
:102300000808002406F0C4FF18B3042C14D101E01F
:1023100006F0CEFF06F0BCFF0028F9D100F026FC45
:1023200010B1114808F0E8F842F2A013002209F8B1
:10233000032005B0BDE8F08306F0BAFF08F8010BF2
:10234000074600F013FC98B9013406F0A1FF0028FD
:10235000DBD1042CDED000F009FCA0B9013EE3D0B3
:102360009DF8048075E700BFCC87FF1F701901003E
:10237000F9B200231022924808F0CEF801219148CA
:1023800007F024FEE0E78E4808F0B6F8E6E70921FA
:102390008D4807F01BFE234610223946884808F076
:1023A000BBF80121874807F011FE234610229DF853
:1023B0000510834808F0B0F80121824807F006FEB6
:1023C000102223469DF806107D4808F0A5F801214B
:1023D0007C4807F0FBFD21460DF1070001AA12F829
:1023E000014B6140C9B2082311F0800F4FEA41014F
:1023F00018BF81F00701013BC9B2F5D19042EED17F
:1024000010226F4808F088F86D4808F075F86CE7FE
:1024100009216D4807F0DAFD234610223946684845
:1024200008F07AF80121674807F0D0FD2346102212
:102430009DF80510624808F06FF80121614807F027
:10244000C5FD102223469DF806105D4808F064F88B
:1024500001215C4807F0BAFD21460DF1070001AAF1
:1024600012F8014B6140C9B2082311F0800F4FEA06
:10247000410118BF81F00701013BC9B2F5D190427B
:10248000EED110224E4808F047F84D4808F034F8D5
:10249000B7E609214C4807F099FD2346102239463A
:1024A000474808F039F80121464807F08FFD2346D8
:1024B00010229DF80510424808F02EF801214148ED
:1024C00007F084FD102223469DF806103C4808F0D2
:1024D00023F801213B4807F079FD21460DF1070063
:1024E00001AA12F8014B6140C9B2082311F0800F14
:1024F0004FEA410118BF81F00701013BC9B2F5D194
:102500009042EED110222E4808F006F82C4807F031
:10251000F3FFFEE509212C4807F058FD2346102261
:102520003946274807F0F8FF0121264807F04EFDFD
:10253000234610229DF80510214807F0EDFF0121E8
:10254000204807F043FD102223469DF806101C4842
:1025500007F0E2FF01211B4807F038FD21460DF18D
:10256000070001AA12F8014B6140C9B2082311F01B
:10257000800F4FEA410118BF81F00701013BC9B24A
:10258000F5D19042EED110220D4807F0C5FF0C485E
:1025900007F0B2FF48E507210C4807F017FDC2E538
:1025A00007210A4807F012FD48E50721074807F010
:1025B0000DFDA4E60721054807F008FD2BE600BF46
:1025C000CC87FF1F7019010058120100641201002E
:1025D00038B500F50655183500F1A80402E0883436
:1025E000AC420AD02046FEF717FF0028F7D020465D
:1025F0008834FEF74FF9AC42F4D138BD2DE9F04FE5
:102600000546002345F8A83B00F5065783B08246EF
:102610002C46183702E08834BC420AD02046FEF728
:10262000FBFE0028F7D020468834FEF733F9BC4281
:10263000F4D1C82006F002F92C46012604E0013648
:102640003F2E04F188046ED02046FEF7E5FE0028F8
:10265000F5D0764800F084FB3146754800F080FBE9
:102660002046FEF7EBF92046FEF7C6FE09F04CFEC9
:1026700002460B466F4800F073FB2046FEF734FE1F
:1026800080462046FEF74CFE8346404609F03CFE5D
:1026900080465846894609F037FE42464B46CDE90A
:1026A0000001654800F05CFB00212046FEF7A6FE15
:1026B000012180462046FEF7A1FE8346404609F0F0
:1026C00023FE80465846894609F01EFE42464B4688
:1026D000CDE90001594800F043FB2046FEF78CFE8F
:1026E0000146DAF800000AF0B1F9CAF80000204605
:1026F000FEF75AFEDAF818100AF04EFC00287BD1DB
:102700002046FEF75DFEDAF81C100AF063FC002894
:1027100095D02046FEF754FE01363F2ECAF81C0025
:1027200004F1880490D1DAF804000AF043FA014673
:10273000DAF800000AF046FBDAF81410CAF80000D4
:1027400004460AF047FC08B1CAF81440DAF8101041
:1027500020460AF021FC08B1CAF810400B2006F010
:1027600037F842F2A0131AF8033000284AD1002BA0
:1027700058D042F2A01301220AF803200023CAF81D
:102780000C302C4602E08834BC4215D02046FEF7BF
:1027900043FE0028F7D02046FEF7C2FDDAF80C1001
:1027A0000AF018FC0028EED02046FEF7B9FD883468
:1027B000BC42CAF80C00E9D1214BCAF8083002E04B
:1027C0008835BD4215D02846FEF726FE0028F7D0F2
:1027D0002846FEF789FDDAF808100AF0DDFB00282C
:1027E000EED02846FEF780FD8835BD42CAF80800C5
:1027F000E9D103B0BDE8F08F2046FEF7D5FDCAF859
:1028000018007DE72BB942F2A01300220AF803203A
:10281000B4E70C4800F0BCFA42F2A01300220AF818
:102820000320ABE7084800F0C9FAA2E74815010009
:1028300068130100A4130100B8130100E4130100A0
:102840000000A040381401000014010080687047A7
:10285000C06870470068704741607047F8B500F580
:1028600006550F461646183500F1A80402E08834D4
:10287000AC420FD02046FEF7CFFD0028F7D020460F
:102880003946FEF7CDFD204631468834FEF7CEFDB1
:10289000AC42EFD1F8BD00BF2DE9F04100F506557F
:1028A00080460027183500F1A804002602E088348D
:1028B000A54210D02046FEF7AFFD0028F7D02046F5
:1028C000FEF78AFD0F490AF085FB88B98834A542D6
:1028D00006F10106EED142F29C1358F80300801B6A
:1028E0000AF068F9014638460AF06CFABDE8F08152
:1028F0002046FEF771FD014638460AF0A7F8074664
:10290000D5E700BF00008CC2F8B500F506550746B4
:102910000026183500F1A80402E08834AC420FD03C
:102920002046FEF779FD0028F7D02046FEF70AFD85
:10293000014630460AF08AF88834AC420646EFD1A8
:1029400042F29C13F8580AF035F9014630460AF075
:1029500039FAF8BD2DE9F04F04468FB0744800F005
:10296000A7F9734800F0A4F9714800F0A1F942F208
:102970009C132046E2580D92FEF7A2FD0546206802
:10298000D4F804B009F0C0FCCDE90A012046FFF7F5
:10299000BBFF8246A06809F0B7FC8046E068894624
:1029A00009F0B2FC064620460F46FFF775FF09F016
:1029B000ABFCCDE908015046CDE90489CDE90667B5
:1029C00009F0A2FCDDE90A23CDE900230D9ACDE947
:1029D00002015B46114657482A4600F069F95448FF
:1029E00000F066F9A8344FF001084FF0000A07E044
:1029F00008F10108B8F13F0F04F1880400F08F805E
:102A00002046FEF709FD0028F2D02046FDF732FFF0
:102A10002046FDF733FF2046FDF734FF2046FDF743
:102A200035FF0821444807F0D1FA4146434807F0F2
:102A3000B3FDB8F1090F75DD0221414807F0C6FA70
:102A40002046FEF7D9FC09F05FFC022502460B4642
:102A500000953A4807F0A8FD01213A4807F0B6FA78
:102A6000564600251FE00621374807F0AFFA3146E9
:102A7000324807F091FD0221344807F0A7FA2946B1
:102A80002046FEF72BFC09F03FFC009702460B4660
:102A90002A4807F089FD013501212A4807F096FAF6
:102AA000062D0BD04E46092E4FF0020706F1010904
:102AB000D9DC0121264807F089FAD4E711212548FD
:102AC00007F084FA00212046FEF798FC09F01CFC70
:102AD000009702460B46194807F066FD12211E4872
:102AE00007F074FA01212046FEF788FC09F00CFC7F
:102AF000009702460B46114807F056FD0121174882
:102B000007F064FA08F101080C4807F0F5FCB8F189
:102B10003F0F0AF1060A04F188047FF471AF0FB089
:102B2000BDE8F08F01210A4807F050FA84E700BFA2
:102B300048150100E01601006C170100CC87FF1F4B
:102B400084230100781701007C170100601901003F
:102B5000701901008417010098170100AC170100DB
:102B6000014B1870704700BF2087FF1F024B187879
:102B7000B0FA80F0400970472087FF1F0278002AD2
:102B800000F0858070B5034682B00D4621E058788C
:102B90005C1C68B3252831D0732833D064281DD03D
:102BA00069281BD0662851D0782839D0582833D0CE
:102BB000622842D042283CD06C280FD063280DD028
:102BC00074284FD0542857D007F084FA6278631CD9
:102BD00072B1252ADBD018781C46F5E72B1D296831
:102BE0002C481D4607F0D8FC6278631C002AF0D1FF
:102BF000284802B0BDE8704007F07EBC104607F0E0
:102C000069FAE3E72E6830460BF03AF801463046A1
:102C1000043507F0DBF9D9E702211F4807F0D6F9A0
:102C20002E1D29681B4800231022354607F074FC2E
:102C3000CCE70221194807F0C9F92E1D296815486B
:102C400000230222354607F067FCBFE7073525F071
:102C500007050321D5E900230E480091083507F048
:102C6000A3FCB3E7296801290EBF0D480D480121D7
:102C7000043507F0ABF9A9E72B68012B07BF042146
:102C800009480A480521043507F0A0F99EE70148E4
:102C900007F032BCCC87FF1FB0170100B41701004A
:102CA000B8170100BC170100C0170100C8170100C8
:102CB0000FB400B583B004A951F8040B0191FFF7DC
:102CC0005DFF03B05DF804EB04B0704770B51B4BBB
:102CD0001B4C1B6882B00D460193019B2360194673
:102CE00004460023164617480A2207F015FC032164
:102CF000154807F06BF9032C07D8DFE804F01A1524
:102D000010020521114807F061F90221104807F06F
:102D10005DF931462846FFF731FF02B070BD07214B
:102D20000C4807F053F9F0E704210B4807F04EF97F
:102D3000EBE70521094807F049F9E6E71CB8FF1F52
:102D40004492FF1FCC87FF1F3C130100E8170100CE
:102D500060190100E0170100D8170100D017010029
:102D60000FB400B5094B187883B020B103B05DF8FB
:102D700004EB04B0704705AB1A4604990193FFF7C2
:102D8000A5FF03B05DF804EB04B070472087FF1F78
:102D90000FB4094B00B51B78012B83B004D903B0E5
:102DA0005DF804EB04B0704705AB1A460499019333
:102DB0000120FFF78BFFF2E72087FF1F0FB40B4BBB
:102DC00000B51B78032B83B004D903B05DF804EB86
:102DD00004B0704705AB1A46049901930320FFF72E
:102DE00075FF03B05DF804EB04B070472087FF1F48
:102DF00030B4074D074C084900232B70236003654E
:102E00004365836580F85C300B6030BC704700BF61
:102E10005092FF1F4C92FF1F4892FF1FF8B5374892
:102E2000374C384D384EFFF743FF384B3849394857
:102E3000394A5C6014271F70384F394CD9601861CB
:102E4000002138485D615E62374DDF624FF07C568D
:102E50000C279A619C62354A354C19635863354991
:102E60009D6340F61C400A255E641F6541F204061E
:102E7000314F9A64DC6402220124196298660021B1
:102E80003220DD661E6764254FF49676DF61DF63CE
:102E90005A275A705A7283F84010C3F89C0018667B
:102EA0005E66DE651C725C659D6541F2883E5F670B
:102EB000224E99674FF47A77DA67C3F88010C3F827
:102EC0008800C3F8A400C3F8A0101D48C3F8B020C0
:102ED000FF2140F2D662C3F8AC40C3F8B450C3F847
:102EE00084E0C3F88C70C3F89060C3F89400C3F812
:102EF000A810A3F89820A3F89A20F8BDF0170100B5
:102F000020A1070033338340CDCCCC3D3493FF1F49
:102F10006666864000004040CDCC4C40000020C199
:102F200000008242000020420000A0409A997940AF
:102F30000AD7233D33337340CDCC4C3E000068426A
:102F400000C02044F0B54FF47A6085B005F076FCFF
:102F500000210F2005F04AFC00210E2005F046FC60
:102F60000021112005F042FC0021102005F03EFC5C
:102F70000021122005F03AFC0021132005F036FC58
:102F800001210B2005F032FC01210C2005F02EFC64
:102F90000121142005F02AFC0121152005F026FC52
:102FA0000121162005F022FC0121172005F01EFC4E
:102FB0000121052005F01AFC854D864C01210620D3
:102FC00005F014FC01210D2005F010FC288809F003
:102FD000EDFD0146162005F073FB288809F0E6FD9B
:102FE0000146172005F06CFB288809F0DFFD01463B
:102FF000052005F065FB288809F0D8FD002501466D
:10300000062005F05DFB2B46734A74497448009511
:1030100004F01EFC20684FF0FF32102103F0F0FE98
:1030200020684FF0FF32102103F0C2FE20684FF0FD
:10303000FF32042103F0D0FE20684FF0FF3201215F
:1030400003F0D4FE2A460F21206803F0E3FE0C2192
:10305000644806F0BBFF644807F04EFA102163484D
:1030600006F0B4FF604807F047FA44F6206005F028
:10307000A3FC5D4807F040FA17215D4806F0A6FF63
:10308000594807F039FA5B4B1B789A0600F1D48057
:10309000584B1B781B0700F1DB80564B1B785F07F2
:1030A00000F1E280534B1B789E0700F1E980524B00
:1030B0001B781D0600F1F0804F4B1B785C0600F179
:1030C000F7804D4B1B78980600F1FE804A4B1B7829
:1030D000590700F10581484B1B781A0700F10C8154
:1030E000454B1B789B0700F113813F4807F004FA1A
:1030F00072B6424A4CF220534DF628112024138018
:1031000023461180013BFDD13D4D3E483E49002301
:103110004FF480562E8003800B8032F80E3C9BB219
:1031200043F0D30322F80E3C62B69D2006F040F82F
:1031300021463648364D06F049FF2B4807F0DCF9AA
:1031400005F1B8062F462C46601B05F055F804F82B
:10315000010BB442F8D13B78142B01D0FFF75EFE8F
:103160002C482D4CFEF738FE0420FFF7F9FC2B4BC2
:10317000284800221A60FEF76BFD01210D2005F0A2
:1031800021FB796D2348FFF767FB7A6C97F84010B5
:103190002048FFF763FB224B22491B68224A1D4847
:1031A000126881FB0351DB17A3EB211313FB02F31E
:1031B0002380FEF701FF1D4B1D491A6803920398F7
:1031C0001B680293029A1B4B08601A6005B0F0BDA1
:1031D0002287FF1F9494FF1F10B8FF1F20A1070034
:1031E00074B6FF1F10180100CC87FF1F20180100C4
:1031F0003418010001F0074000F007400E200540A0
:10320000042005400620054016200540381901001D
:103210003493FF1FCC94FF1FA094FF1F6492FF1FE5
:103220005887FF1F1F85EB515487FF1F1CB8FF1FD6
:10323000C894FF1FF493FF1F2121394806F0C6FEF2
:10324000384807F059F9384B1B781B077FF525AF35
:103250000C21364806F0BAFE324807F04DF9324BE1
:103260001B785F077FF51EAF0E21314806F0AEFEDA
:103270002C4807F041F92C4B1B789E077FF517AFC0
:1032800017212C4806F0A2FE264807F035F92A4BF4
:103290001B781D067FF510AF0E21284806F096FE1C
:1032A000204807F029F9244B1B785C067FF509AF0D
:1032B0001221234806F08AFE1A4807F01DF91E4B1A
:1032C0001B7898067FF502AF13211E4806F07EFE9C
:1032D000144807F011F9184B1B7859077FF5FBAE1E
:1032E0001C21194806F072FE0E4807F005F9124B32
:1032F0001B781A077FF5F4AE1921144806F066FE14
:10330000084807F0F9F80C4B1B789B077FF5EDAEEA
:1033100018210F4806F05AFE024807F0EDF8E4E6DF
:103320004C180100CC87FF1F01F007407018010006
:10333000801801009018010000F00740A818010053
:10334000B8180100CC180100E018010000190100B4
:103350001C190100F8B5464C464D4748E668002365
:103360002B70FFF775FA0146304609F015FE08B1DB
:1033700004232B704048FFF769FA216909F00CFE1D
:1033800018B12B7843F010032B703B48FFF784FAF9
:10339000A16A09F01FFE18B12B7843F040032B708F
:1033A000002335486B70FFF777FAE16A314D09F079
:1033B000F3FD08B101236B70304D2F4800232B70B3
:1033C000FFF746FA616A0646E06809F03DFB0146F0
:1033D000304609F0FFFD08B104232B702648FFF7A3
:1033E00035FA616A0646206909F030FB014630462D
:1033F00009F0D2FD18B12B7843F010032B701E4852
:10340000FFF74AFAA16B0646A06A09F01DFB0146C8
:10341000304609F0DFFD18B12B7843F040032B70E4
:10342000002315486B70FFF737FAA16B134F064660
:10343000E06A09F00BFB0146304609F0ADFD08B12A
:1034400001237B7000230C48EB70FFF701FA05465F
:1034500009480A4EFFF7FAF90146284609F0F4FA3E
:10346000E16B09F0B7FD08B10123F370F8BD00BFAF
:103470003493FF1F3093FF1FCC94FF1F8894FF1FCE
:10348000514B1B68002B74D0F0B5504D2B680533A1
:10349000B3F57A7F83B040F38E80002300272B6042
:1034A0004B4CD4F8A40009F085FB0646D4F8A800DC
:1034B00009F080FB314609F0C7FA394609F0CEFB26
:1034C000444909F07FFC314609F0C0FA09F0A2FD39
:1034D0000146062004F0F6FF02213F4806F076FD83
:1034E0003E4807F009F806213D4806F06FFD2868C0
:1034F00009F060FB3B4909F0B1FB08F005FF02262B
:1035000002460B460096354807F04EF80D21364826
:1035100006F05CFDD4F8A40009F04CFB07462868CF
:1035200009F048FB2F4909F099FB0546D4F8A8009B
:1035300009F040FB394609F087FA0146284609F0B0
:103540008DFB244909F03EFC394609F07FFA08F06A
:10355000DBFE009602460B46204807F025F8314670
:103560001D4806F033FD1D4803B0BDE8F04006F0ED
:10357000C3BF174B1D4AD3F8A410D3F8A830126864
:103580005B1A632B0BDD1A4803FB02F380FB03027B
:10359000DB17C3EB62131944062004F093BF1548F0
:1035A00003FB022380FB0302DB17C3EB221211444F
:1035B000062004F087BF18462B6009F0FBFA094982
:1035C00009F04CFB07466BE77894FF1F6892FF1FDA
:1035D0003493FF1F0000C84284230100CC87FF1FE3
:1035E0005C190100CDCCCC3D641901002C87FF1F74
:1035F0001F85EB51CBF08D2838B55C485C4C06F04C
:103600007BFF5A4806F078FF584806F075FF0D21F9
:10361000584806F0DBFCD4F8A030012B0ED0564CF5
:103620005248217800230A2206F076FF2378052BE2
:1036300039D8DFE803F05A5F64696E5509214F48B5
:1036400006F0C4FC4E48FFF701F9216909F0A4FC1B
:1036500018B10F214B4806F0B9FC4948FFF7F8F8BC
:10366000E16809F0B7FC18B10E21474806F0AEFC3E
:10367000464B43481B68012B63D0FFF7E7F82169ED
:103680003B4D09F0A7FC70B13D48FFF7E1F8E96850
:1036900009F082FC38B1384B1B78052B61D008212A
:1036A0003B4806F093FC02213A4806F08FFC1220BA
:1036B00005F08EF8012836D0112005F089F8012890
:1036C0003AD0354B1B68012B28D00221314806F037
:1036D0007DFC324B25481968BDE8384006F05CBFD8
:1036E00007212F4806F072FCDDE706212D4806F081
:1036F0006DFCD8E707212C4806F068FCD3E70721CA
:103700002A4806F063FCCEE70821294806F05EFC53
:10371000C9E70B21274806F059FCC4E711212648C8
:1037200006F054FCD1E70E21244806F04FFC11208E
:1037300005F04EF80128C4D10A21214806F046FCC4
:10374000BFE7FFF783F8216A09F044FC0028A6D000
:1037500016211C4806F03AFC0A211B4806F036FCEC
:10376000A1E70A21184806F031FC9CE7CC87FF1F2F
:103770003493FF1F741901008494FF1F8419010002
:10378000CC94FF1F90190100A01901007492FF1F33
:10379000D4190100842301009C94FF1F7C94FF1F17
:1037A000101A0100E0190100E8190100FC190100DC
:1037B000041A0100F0190100341A0100181A01005E
:1037C000281A0100B0190100C81901002DE9F04FB5
:1037D000B24CB34FE56F012D8DB000F08D80B14E2E
:1037E000B14DA36FB148012B09BF2968296801F1C8
:1037F0000041296004F0F2FB3368002B3ED1AB4856
:1038000004F0C2FBE36F3860012B064643D0A849A1
:1038100009F0E0FB78B9A749304609F0BDFB50B983
:10382000A54AA64B12680B920B9A1A6000232B60D4
:103830000DB0BDE8F08FDFF88082A04CD8F80030E2
:103840000A930A9823689E4FC01A09F0AFF93146CF
:1038500009F004FA9B4909F0B5FA9A4909F0B2FA5D
:10386000396809F0F3F8D8F800300993099B236010
:10387000002338602B600DB0BDE8F08F8B4804F05A
:1038800083FB08F041FD022602460B4600968E4857
:1038900006F08AFEB3E78D4B1B68012B00F09D817B
:1038A000022BC3D18A4909F095FB30B989493046CA
:1038B00009F072FB002800F0BF81DFF8FC817F4C2B
:1038C000D8F800300793079823687D4FC01A09F095
:1038D0006DF9314609F0C2F97A4909F073FA79496C
:1038E00009F070FA396809F0B1F8D8F80030069399
:1038F000069B3860236099E73E687749DFF8E081EE
:10390000304609F049FB68B13046744909F062FB62
:1039100040B16E4ED8F80000356000220F2103F050
:1039200079FA08E0694ED8F80000022300220E213F
:10393000336003F06FFA33685A4E012B336800F09E
:10394000DD80002B40F09E800021D8F80000DFF8D9
:10395000A891634D03F0B0FA33681FFA80FBC9F8F1
:1039600000B0002B68D10021D8F800004E4DDFF8E0
:1039700070A103F027FAB4F89A3040F6E44101FB55
:103980000BF1B1FBF0F0C01A00B209F013F9554980
:103990008346D4F8900009F061F90146584609F0D1
:1039A00011FAD9F800302860632BDFF84CB15EDCE7
:1039B00000232B603368002B3FF413AF02214A48E9
:1039C00006F004FBD9F80020D8F8000040F6E443E4
:1039D000002103FB02F803F0F5F9B8FBF0F009F061
:1039E000E5F88046B4F89A0009F0E4F8014640464C
:1039F00009F02AF808F088FC4FF0020802460B464E
:103A0000CDF80080304806F0CFFD4146364806F03C
:103A1000DDFA286808F078FCCDF8008002460B46F5
:103A2000294806F0C1FD4146304806F0CFFA41462C
:103A30002D4806F0CBFAD4E60021286803F0C2F93D
:103A400040F6E44100230A2201FB0BF1B1FBF0F147
:103A50001D4806F061FD0221234806F0B7FAB4F8CC
:103A60009A10194806F098FDD9F800B07BE7DAF80B
:103A70000000002103F0A6F9DBF80030643898421A
:103A800096D397E7104806F037FD0C21184806F04A
:103A90009DFA0C21174806F099FA55E73493FF1F59
:103AA0007C92FF1FC094FF1F7092FF1F0C93FF1F9B
:103AB0000000FA430000FAC31CB8FF1F5492FF1F16
:103AC0008492FF1F00007A44CC87FF1F4887FF1FA6
:103AD00000C82F4800A08CC600709446007094C6A1
:103AE0009494FF1F17B7D13884230100781A01007E
:103AF000681A0100541A01002C93FF1F002B40F09C
:103B0000A2800021D8F80000DFF8DC91674D03F0B7
:103B1000D3F933681FFA80FBC9F800B0002B40F0DE
:103B2000AA800021D8F80000614DDFF880A103F0E1
:103B300049F9B4F8983040F6E44101FB0BF1B1FBD0
:103B4000F0F0C01A00B209F035F85A498346D4F8AB
:103B5000940009F083F80146584609F033F9D9F882
:103B600000302860632BDFF880B178DC00232B6005
:103B70003368002B3FF435AE02214F4806F026FA99
:103B8000D9F80020D8F8000040F6E443002103FBF8
:103B900002F803F017F9B4F89810B8FBF0F000B28F
:103BA000411A464806F0F8FC0221434806F00EFA96
:103BB000286808F0A9FB4FF0020802460B46CDF832
:103BC00000803E4806F0F0FC03213D4806F0FEF977
:103BD0004146394806F0FAF903E63A4909F0FAF99C
:103BE00058B93949304609F0D7F930B9374A384B16
:103BF00012680592059A1A6018E6DFF8D080344CF6
:103C0000D8F80030049304982368324FC01A08F0A3
:103C1000CDFF314609F022F82F4909F0D3F82E499B
:103C200009F0D0F8396808F011FFD8F80030039394
:103C3000039B38602360F9E5244A254B12680892FB
:103C4000089A1A60F2E51D4806F056FC0B2123483D
:103C500006F0BCF90C21224806F0B8F951E7DAF871
:103C60000000002103F0AEF8DBF800306438984221
:103C7000FFF47CAF7CE70021286803F0A3F840F64E
:103C8000E44100230A2201FB0BF1B1FBF0F10B48E8
:103C900006F042FC0121134806F098F9B4F8981098
:103CA000064806F079FCD9F800B03AE79494FF1F73
:103CB0007092FF1F17B7D13884230100CC87FF1FF4
:103CC000641A01000000FA430000FAC31CB8FF1F89
:103CD0005492FF1F8492FF1F00007A44481A01008B
:103CE000541A0100701901002C93FF1F2DE9F043B5
:103CF000A14D2B6883B0002B00F08C809F4CA04E10
:103D0000E36FA04F9D4D012B00F0C480D4F88030AC
:103D10009A4D012B00F0F280D5F85890D7F800802A
:103D20006D6D05FB09F54FF47A7000FB05F008F0A6
:103D300041FF9549DFF848920546404608F08EFF5E
:103D4000294609F03FF8914908F088FF09F062F927
:103D50006328306047DD28468B4909F033F8642337
:103D6000C9F800308A4B38601B68002B44D0E36FE1
:103D7000012B44D00721874806F028F90221864804
:103D800006F024F9854B186808F0BEFA02240246B2
:103D90000B460094824806F007FC2146814806F055
:103DA00015F921467C4806F011F931687C4806F087
:103DB000F3FB06217C4806F009F93868724908F0DF
:103DC0004DFF08F0A1FA009402460B46744806F035
:103DD000EBFB0321754806F0F9F8714803B0BDE824
:103DE000F04306F089BB0028BCBF0023C9F80030AF
:103DF000674B1B68002BBAD103B0BDE8F0836C4B56
:103E00001B68012B4FF00A010CBF6A486A4806F094
:103E1000DDF8B3E76948594CFEF776FD6849A76EAF
:103E2000E66E08F01BFF09F01BF9226F636FD21BCF
:103E30009B1B80B29342A0EB0700C0F28F8003FB74
:103E400000F393FBF2F333444D4E534833600221A9
:103E500006F0BCF8316852484A4F06F09DFB02213B
:103E60004D4806F0B3F83268A06D636D02FB00F0B8
:103E700003FB00F000EB8000400008F09BFE42498D
:103E800008F0A0FF01232B60E36F3860012B3B4D4E
:103E90007FF43CAF4948FEF737FD4949D5F86890B3
:103EA000D5F86C8008F0DAFE09F0DAF82A6F6B6F4B
:103EB000C9EB0202C8EB030380B29A42C9EB0000CF
:103EC00053DD03FB0000531C90FBF3F303EB0800EE
:103ED000A26D636D306002FB00F003FB00F000EBAD
:103EE0008000400008F066FE2749244D08F06AFF74
:103EF000D4F880303860012B7FF40EAF2F48FEF7E6
:103F000003FD2F49D5F86890D5F86C8008F0A6FE1F
:103F100009F0A6F82A6F6B6F656DC9EB0202C8EB5A
:103F2000030380B29A42C9EB0000D4F85890C6BF90
:103F300003FB00000132584390FBF2F0404400FBC9
:103F400009F005FB00F000EB8000400008F032FEB5
:103F50000D4908F037FF80463860E2E603FB0000B9
:103F6000531C90FBF3F333446EE703FB00F393FB26
:103F7000F2F303EB0800ABE76C92FF1F3493FF1FD3
:103F80002C87FF1F8492FF1FE4388E3E0000C8423A
:103F90003487FF1F941A0100842301007C92FF1FC5
:103FA000CC87FF1F781A01009C1A0100A41A010097
:103FB0004887FF1F7C1A0100881A0100CC94FF1F5C
:103FC00000007A44F0B5112083B004F001FC012810
:103FD00013D000210B2004F0F5FB00210C2004F08D
:103FE000F1FB0021152004F0EDFB1D491D4B0120C4
:103FF000002208701A6003B0F0BD01460446152087
:1040000004F0E0FB1849194A194B09680191D2F8EC
:1040100084001B680199134D034402268B422E60D5
:1040200017D8D2F88C0008F0C5FD124B196808F0BB
:10403000B3FF074668B921460B2004F0C3FB084ACA
:10404000032339460C2016702B6004F0BBFB03B031
:10405000F0BD01210C2004F0B5FB03B0F0BD00BFA2
:104060008494FF1FBC94FF1F1CB8FF1F3493FF1FD5
:10407000C894FF1F7C92FF1FF0B5684E684D3468EE
:104080002B689C4287B039D014F0010155D014F050
:10409000020149D014F004013DD0E3070ED52B688E
:1040A000DF070BD45F4F3A68002A00F082805E4B36
:1040B0001B680193019B93426DD83468A0070DD50E
:1040C0002B6899070AD4594F3A68002A4CD0564BAE
:1040D0001B680393039B934238D8346862070DD55D
:1040E0002B685B070BD4524F3A68002A7ED04E4BA8
:1040F0001B680593059B934268D834680CB107B0E0
:10410000F0BD2146162004F0DDF92146172004F009
:10411000D9F907B0F0BD052004F0D4F92B68346854
:1041200003F0FB032B60B8E7172004F0CBF92B68F2
:10413000346803F0FD032B60ACE7162004F0C2F9ED
:104140002B68346803F0FE032B60A0E7394B17207F
:10415000D3F8881004F0B6F92B68346843F00203F2
:1041600000222B603A60B9E7334806F0C5F90C210C
:10417000324805F02BFF304806F0BEF9FF2117202A
:1041800004F0A0F9284B2E4A19680291029912688E
:104190000A443A609CE7274B1620D3F8881004F0B5
:1041A00091F92B68346843F0010300222B603A60D8
:1041B00084E7FF21162004F085F91B4B204A19687B
:1041C0000091009912680A443A6071E7194B052082
:1041D000D3F8881004F076F92B68346843F00403B0
:1041E00000222B603A60002C89D18AE7124806F041
:1041F00083F90C21134805F0E9FE0F4806F07CF91D
:10420000FF21052004F05EF9074B0D4A196804915F
:10421000049912680A443A606AE700BFBC94FF1F21
:10422000EC93FF1F5C94FF1F1CB8FF1F6094FF1FDF
:104230006494FF1F3493FF1FCC87FF1FA81A01004F
:104240006887FF1FB81A01002DE9F047544EDFF8C8
:104250007481DFF874913068524D00220F2102F012
:10426000D9FD0023012222214F48C8F80030C9F8A7
:10427000002005F0ABFED8F80030132B22DC40F60E
:10428000E44700213068B5F898A002F015FE00213F
:104290000446306802F096FDA4B2012107FB04F445
:1042A000B4FBF0F441485444A5F8984005F08EFE64
:1042B000642004F0C3FAD8F800300133132BC8F897
:1042C0000030DEDDB5F89830394A3A48A2FB0312D7
:1042D0009B1A02EB5303C3F30F131946A5F898304A
:1042E00006F05AF91D21344805F070FE02213348CA
:1042F00005F06CFE2F4806F0FFF800231A460E2149
:104300003068C8F8003002F085FD022322212648DB
:10431000C9F8003005F05AFED8F80030132B22DC23
:1043200040F6E44700213068B5F89A9002F0C4FDE9
:1043300000210446306802F045FDA4B2012107FBCC
:1043400004F4B4FBF0F419484C44A5F89A4005F085
:104350003DFE642004F072FAD8F800300133132BCC
:10436000C8F80030DEDDB5F89A30114A1148A2FBDA
:1043700003129B1A02EB5303C3F30F131946A5F85C
:104380009A3006F009F91D210D4805F01FFE0221A3
:104390000A4805F01BFE0748BDE8F04706F0ACB838
:1043A0009494FF1F3493FF1FC81A01000C1B0100D7
:1043B00087611886CC87FF1FEC1A01008423010057
:1043C000101B01008094FF1F4887FF1FF8B5874B23
:1043D000874C884F1B68386D40F2513108222160AC
:1043E000E271002B00F0FD8008F0E4FB396A05461D
:1043F00008F034FC804908F031FC08F031FE80B24E
:10440000031263727D4A7E4B12681B68B969207281
:10441000A37228461B121512E3722273657308F00B
:104420001DFC754908F01AFC08F01AFE83B21A1236
:104430006F497448A373E27303F002FC724B734A32
:104440001B6812886A49A272DDB2257205EB8506E7
:1044500003EB8305760045F3D71540F2553E121263
:104460001B1226736573082600256648C4F800E011
:10447000E2726372E671A573E57303F0E1FB40F24B
:10448000563363482360E671FEF7E4F9614908F0AA
:10449000E5FB08F0E5FD20725D48FEF7DBF95D49BC
:1044A00008F0DCFB08F0DCFD5B4A5A49C0F3072347
:1044B0001068637208F086FC08F0ACFD40FA06F262
:1044C00003465348E272A372FEF7E6F94A4908F040
:1044D000C5FB08F0C5FD20734D48FEF7DDF94649E0
:1044E00008F0BCFB08F0BCFD4149A573C0F30723ED
:1044F00044486373E57303F0A3FB022004F09EF9C4
:10450000464A474B11785078217291786072D27880
:104510009878A172597893F800E0E2726173DA78C2
:10452000A07340F25A3332493648E67184F80CE001
:10453000E273236003F084FB3A4B2D491A785878D4
:10454000227260729A78D878A272E0721A79987999
:1045500093F805E02273A073DA792A4884F80DE015
:1045600040F25E33E2732360E67103F069FB0220E0
:1045700004F064F92C4B1E491A7858782272607244
:104580009A78D878A272E0721A79987993F805E04F
:104590002273A073DA791B4884F80DE04FF45C7342
:1045A000E2732360E67103F04BFB022004F046F94E
:1045B000BA6DE67142FA06FE012340F25F37022629
:1045C000227399222572657284F80DE02760A67225
:1045D000E372E373A27306490A48BDE8F84003F0AA
:1045E0002FBB08F0E7FA7969054601E77492FF1FCF
:1045F000AC94FF1F3493FF1F000020419094FF1FD5
:104600005892FF1F74B6FF1F2C87FF1F3087FF1FB4
:10461000CC94FF1F0000C8427C92FF1F3093FF1F05
:104620008894FF1F2487FF1F4C87FF1FF0B5AC4CF9
:10463000AC4D83B005F064FC23682860042B00F0C7
:10464000D282022B72D0082B00F0FE80072B40F0A4
:104650007381322800F0EF8340F36481332800F047
:10466000FF83712803D10023732023602860002B6F
:1046700008BF73280CBF01200020002854D09A489E
:1046800005F03AFF0421994805F0A0FC964805F092
:1046900033FF1021964805F099FC934805F02CFF54
:1046A0001421944805F092FC8F4805F025FF1E2147
:1046B000914805F08BFC8C4805F01EFF15218F48B2
:1046C00005F084FC884805F017FF1E218C4805F092
:1046D0007DFC854805F010FF20218A4805F076FC16
:1046E000814805F009FF1921874805F06FFC7E48D5
:1046F00005F002FF1221854805F068FC7A4805F0B4
:10470000FBFE0F21824805F061FC774805F0F4FEBE
:104710000D21804805F05AFC734805F0EDFE7E4AF5
:10472000002101231160236003B0F0BDA0F131022C
:10473000422A9CD801A151F822F000BFC74F0000C7
:104740006750000081500000DD4F00000350000062
:104750006F4600006F4600006F4600006F46000085
:104760006F4600006F4600006F4600006F46000075
:104770006F4600006F4600006F4600006F46000065
:104780006F4600006F4600006F4600006F46000055
:104790006F4600006F4600006F4600006F46000045
:1047A0006F4600006F4600006F4600006F46000035
:1047B0006F4600006F4600006F4600006F46000025
:1047C0006F4600006F4600006F4600006F46000015
:1047D0006F4600006F4600006F4600006F46000005
:1047E0006F4600006F4600006F4600006F460000F5
:1047F0006F4600006F4600006F4600006F460000E5
:104800006F460000215000006F4600006F46000018
:104810006F4600006F4600006F4600006F460000C4
:104820006F4600006F4600006F4600006F460000B4
:104830006F4600006F4600006F46000067460000AC
:104840006F4600002D500000322800F0DF827128F2
:104850003FF409AF31287FF40AAF05F08DFB002843
:1048600040F3818320482D4E05F0D8FFC0B286F872
:104870004000022894BF01460021726C284888BF7E
:1048800086F84010FDF7EAFF0123692023602860C5
:10489000A0F152031F2B01F20982DFE813F0050A91
:1048A000070A070A070A070A070A070A070A070A80
:1048B000070A070A070A070A070A070AA609A00A39
:1048C0002209A508BF07070A070A070A7707070A88
:1048D000A30A070A070A070A070A070A4C0700BFC4
:1048E0008892FF1F7892FF1FCC87FF1F14220100C0
:1048F0001C22010030220100482201006822010030
:1049000080220100A0220100C4220100E022010057
:10491000F4220100042301003487FF1F3493FF1F9A
:10492000CC94FF1F31287FF4A2AE05F025FB0028B0
:1049300000F3B38323682868062B40F08D80A0F134
:104940003102402A3FF693AE01A151F822F000BF98
:104950000B4F0000354F0000854E0000A94E0000AF
:10496000CD4E0000E94E00006F4600006F4600008B
:104970006F4600006F4600006F4600006F46000063
:104980006F4600006F4600006F4600006F46000053
:104990006F4600006F4600006F4600006F46000043
:1049A0006F4600006F4600006F4600006F46000033
:1049B0006F4600006F4600006F4600006F46000023
:1049C0006F4600006F4600006F4600006F46000013
:1049D0006F4600006F4600006F4600006F46000003
:1049E0006F4600006F4600006F4600006F460000F3
:1049F0006F4600006F4600006F4600006F460000E3
:104A00006F4600006F4600006F4600006F460000D2
:104A10006F4600006F4600006F4600006F460000C2
:104A20006F4600006F4600006F4600006F460000B2
:104A30006F4600006F4600006F4600006F460000A2
:104A40006F4600006F4600006F4600006F46000092
:104A50006746000023682868052B1AD1332801F027
:104A60008C8140F34B81352801F07681BFF6F9AD9A
:104A700005F082FA00280ADDD948DA4E05F0CEFEAC
:104A800001226B23C6F8A40022602B604BE123684F
:104A90002868032B40F0A380A0F13002422A3FF6A1
:104AA000E6AD01A151F822F0B54B0000835500009E
:104AB000AB550000EF5400001155000033550000C5
:104AC0005B550000D3550000F1550000155600005D
:104AD0006F4600006F4600006F4600006F46000002
:104AE0006F4600006F4600006F4600006F460000F2
:104AF0006F4600006F4600006F4600006F460000E2
:104B00006F4600006F4600006F4600006F460000D1
:104B10006F4600006F4600006F4600006F460000C1
:104B20006F4600006F4600006F4600006F460000B1
:104B30006F4600006F4600006F4600006F460000A1
:104B40006F4600006F4600006F4600006F46000091
:104B50006F4600006F4600006F4600006F46000081
:104B60006F4600006F4600006F4600003D56000093
:104B700015510000195700005B56000079560000DF
:104B800097560000F15000006F4600006F4600008D
:104B90006F4600006F4600006F4600006F46000041
:104BA0006F4600006F4600006F460000ED560000A3
:104BB000F956000005F0E0F9002841F380808848AC
:104BC000884E05F02BFE01270346014662228648E7
:104BD000736527602A60FDF73FFE23682868012B74
:104BE0007FF445AD54E6A0F13102402A3FF63FADD7
:104BF00001A151F822F000BF8D4F0000854F000049
:104C0000894F0000914F0000954F0000AF4F00000A
:104C10006F4F00006F4600006F4600006F460000B7
:104C20006F4600006F4600006F4600006F460000B0
:104C30006F4600006F4600006F4600006F460000A0
:104C40006F4600006F4600006F4600006F46000090
:104C50006F4600006F4600006F4600006F46000080
:104C60006F4600006F4600006F4600006F46000070
:104C70006F4600006F4600006F4600006F46000060
:104C80006F4600006F4600006F4600006F46000050
:104C90006F4600006F4600006F4600006F46000040
:104CA0006F4600006F4600006F4600006F46000030
:104CB0006F4600006F4600006F4600006F46000020
:104CC0006F4600006F4600006F4600006F46000010
:104CD0006F4600006F4600006F4600006F46000000
:104CE0006F4600006F4600006F4600006F460000F0
:104CF0006F4600006F46000067460000312801F053
:104D00004D8032287FF4B3AC05F036F900287FF7E8
:104D1000BEAE3348334E05F081FD01226B23C6F849
:104D20008C0022602B602E4805F0E6FB2C4805F035
:104D3000E3FB2B4805F0E0FB294805F0DDFB2848A4
:104D400005F0DAFB2121294805F040F9244805F057
:104D5000D3FB1521264805F039F9D6F884102048F0
:104D600005F01AFC0221234805F030F91C4805F033
:104D7000C3FB1E21204805F029F9D6F88C101848ED
:104D800005F00AFC01211D4805F020F9144805F042
:104D9000B3FB1E211A4805F019F9D6F888101048FF
:104DA00005F0FAFB0E4805F0A7FB1D21154805F09C
:104DB0000DF9D6F8A4100A4805F0EEFB084805F0F6
:104DC0009BFB1E21104805F001F9D6F8A8100448F5
:104DD00005F0E2FB024805F08FFB05232360A3E406
:104DE000CC87FF1F3493FF1FCC94FF1F681D010069
:104DF0008C1D0100E01C0100A41D0100B81F010072
:104E0000C41D0100E41D0100041E010005F0B4F8FA
:104E1000002840F3A480A948A94E05F0FFFC07F044
:104E2000C9FEA84907F01AFF0346024696F840104B
:104E3000A548736426E505F09FF800287FF77AAD52
:104E40009E489F4E05F0EAFC07F0B4FE9D4907F02E
:104E500005FF61230122F06322602B60184617E5ED
:104E600005F08AF800287FF765AD9448944E05F068
:104E7000D5FC07F09FFE61230122B06322602B6006
:104E8000184605E505F078F800287FF7E3AD8B4874
:104E90008B4E05F0C3FC00EB80004300012265202F
:104EA000F36522602860F3E405F066F800287FF7D8
:104EB000D1AD8248824E05F0B1FC00EB800043008A
:104EC00001226520336622602860E1E47C4AD2F842
:104ED000B0300133032BC8BF0023C2F8B0306520C7
:104EE000012323602860D3E405F046F800287FF70B
:104EF000B1AD7248724E05F091FC65230122C6F8EF
:104F0000B40022602B601846C2E405F035F8002892
:104F10007FF7A0AD69486A4E05F080FC07F04AFEB5
:104F20006A4907F04FFF65230122706122602B6000
:104F30001846ADE405F020F800287FF78BAD5F48F8
:104F40005F4E05F06BFC07F035FE604907F03AFF55
:104F500065230122F06122602B60184698E42368E3
:104F60002868FFF773BB564E96F8400081E4584A14
:104F70001368B3FA83F35B09012164201360216095
:104F8000286085E4534AF3E7534AF1E7534AEFE7D1
:104F9000534AEDE74A4ED6F8A030B3FA83F35B09E3
:104FA00001226420C6F8A0302260286070E401234A
:104FB00045482360FCF784FA4A4A2368106064205D
:104FC0002860FFF740BB3E4EB36FB3FA83F35B0933
:104FD00001226320B3672260286059E40123236023
:104FE00004F0CAFF002807DD3448354E05F016FCF2
:104FF00007F0E0FDC6F89400632028602368FFF7FF
:1050000025BB0123236004F0B7FF0028F4DD2B4803
:105010002B4E05F003FC07F0CDFDC6F89000EBE742
:10502000FFF712F923682868FFF70DBB244BDA6FEE
:10503000012A00F0C486012202212B48DA6704F01D
:10504000C5FF1E4805F058FA1921284804F0BEFF94
:105050000221254804F0BAFF184805F04DFA2368EC
:105060002868FFF7F0BA164ED6F88030B3FA83F30B
:105070005B0901226320C6F880302260286007E4C3
:105080000123236004F078FF0028B5DD0B480C4EA7
:1050900005F0C4FBC6F8AC00AEE70848084E05F0C2
:1050A000BDFB07F087FD074907F0D8FD612301220A
:1050B000706222602B601846FFF7EABBCC87FF1FA7
:1050C0003493FF1F6F12833ACC94FF1F00007A4481
:1050D0007894FF1FC094FF1FA494FF1F5894FF1FD4
:1050E000A894FF1F7C94FF1F84230100541B010020
:1050F00004F042FF00280DDDC148C24E05F08EFBD2
:1051000007F058FDC04907F05DFE012262233062BE
:1051100022602B6004F030FF002840F3D085B848AF
:10512000B84E05F07BFB01226223B06622602B6043
:10513000B34805F0E1F9B24805F0DEF9B04805F0F2
:10514000DBF9AF4805F0D8F9AD4805F0D5F91521E0
:10515000AE4804F03BFFAA4805F0CEF91421AC4854
:1051600004F034FFA64805F0C7F91B21A94804F054
:105170002DFFA34805F0C0F91321A74804F026FF2E
:105180009F4805F0B9F99E4805F0B6F99C4805F02E
:10519000B3F92021A14804F019FFF0689A4907F0FB
:1051A0005DFD07F0B1F8002702460B4600979448D2
:1051B00005F0FAF902219A4804F008FF0221994803
:1051C00004F004FF8E4805F097F92121964804F079
:1051D000FDFE30698C4907F041FD07F095F8009716
:1051E00002460B46864805F0DFF902218C4804F0A0
:1051F000EDFE02218B4804F0E9FE814805F07CF9C0
:105200001F218A4804F0E2FEB06A07F07DF802250B
:1052100002460B4600957A4805F0C6F901218448FC
:1052200004F0D4FE29467F4804F0D0FE744805F00F
:1052300063F920217F4804F0C9FEF06A07F064F8A2
:10524000009502460B466E4805F0AEF901217848FC
:1052500004F0BCFE2946734804F0B8FE684805F027
:105260004BF92321744804F0B1FEB06C664907F095
:10527000F5FC07F049F8009702460B46604805F038
:1052800093F92946664804F0A1FE2946654804F0D2
:105290009DFE5B4805F030F91F21684804F096FE3A
:1052A000F06C594907F0DAFC07F02EF80097024637
:1052B0000B46534805F078F92946594804F086FE14
:1052C0002946584804F082FE4D4805F015F9192189
:1052D0005B4804F07BFEB16D494805F05DF9294655
:1052E000584804F073FE29464E4804F06FFE4448C7
:1052F00005F002F91821544804F068FE706E07F0BA
:1053000059FC524907F0AAFC06F0FEFF0095024640
:105310000B463B4805F048F901214D4804F056FE84
:105320002946404804F052FE354805F0E5F82B21A7
:10533000484804F04BFEB069334907F08FFC06F093
:10534000E3FF009702460B462D4805F02DF929464C
:10535000334804F03BFE2946324804F037FE284823
:1053600005F0CAF81F213C4804F030FE716D244856
:1053700005F012F929462B4804F028FE204805F0D4
:10538000BBF82021354804F021FE316D1C4805F0A2
:1053900003F92946234804F019FE194805F0ACF832
:1053A00010212F4804F012FEB16E154805F0F4F8F4
:1053B00029461B4804F00AFE29461A4804F006FE56
:1053C0000F4805F099F81321264804F0FFFDF16E0F
:1053D0000B4805F0E1F80121234804F0F7FD2946C8
:1053E000104804F0F3FD064805F086F810211F4828
:1053F00004F0ECFD316F024805F0CEF8294637E0A5
:10540000CC87FF1F3493FF1F00007A44DC1F01008C
:10541000F41F01000C200100E01B01002820010006
:10542000DC1B0100842301004C20010070200100DE
:10543000AC17010090200100B4200100D820010029
:10544000F82001001421010018210100CDCCCC3D31
:10545000B81F0100342101006021010080210100FA
:10546000A4210100B8210100CC210100D0210100BC
:10547000BA4804F0ABFD2946B94804F0A7FDB94885
:1054800005F03AF81421B84804F0A0FD716FB54852
:1054900005F082F80121B54804F098FD2946B0488E
:1054A00004F094FDAF4805F027F81621B04804F049
:1054B0008DFD306AAF4907F0D1FB06F025FF00975C
:1054C0000B460246A74805F06FF82946A34804F0AA
:1054D0007DFD2946A24804F079FDA24805F00CF8AC
:1054E000A04805F009F803232360FFF71DB904F075
:1054F00043FD002840F3E3839A489F4E05F08EF960
:1055000007F058FB01226223B06222602B600FE695
:1055100004F032FD002840F3D2839248964E05F005
:105520007DF907F047FB01226223F06222602B60C5
:10553000FEE504F021FD002840F3C18389488E4E2A
:1055400005F06CF907F036FB8A4907F03BFC0122B5
:105550006223B06422602B60EAE504F00DFD0028B0
:1055600040F3AD837F48844E05F058F907F022FBE5
:10557000804907F027FC01226223F06422602B603F
:10558000D6E504F0F9FC002840F3998375487A4E7B
:1055900005F044F907F00EFB764907F013FC0122F1
:1055A0006223F06022602B60C2E504F0E5FC002875
:1055B00040F385836B48704E05F030F907F0FAFA36
:1055C0006C4907F0FFFB01226223306122602B60EF
:1055D000AEE504F0D1FC002840F371836148664ECB
:1055E00005F01CF901226223B06522602B609FE563
:1055F00004F0C2FC002840F362835A485E4E05F076
:105600000DF900EB800043000121622273662160E6
:105610002A608DE504F0B0FC002840F35083514827
:10562000554E05F0FBF807F0C5FA524907F0CAFBE2
:1056300001226223B06122602B6079E504F09CFCBA
:10564000002840F33C8347484B4E05F0E7F8012221
:105650006223306522602B606AE504F08DFC00282F
:1056600040F32D833F48444E05F0D8F801226223D1
:10567000306722602B605BE504F07EFC002840F37D
:105680001E8338483C4E05F0C9F80122622370673A
:1056900022602B604CE5FDF7C1FB02213048364EFD
:1056A00004F094FC2F4804F027FF02212C4804F05A
:1056B0008DFC2C4804F020FF0221294804F086FCD0
:1056C000284804F019FF17212C4804F07FFC2548D6
:1056D00004F012FF0221224804F078FC214804F073
:1056E0000BFF0122622322602B6021E5002273233D
:1056F00022602B60FEF7C3BF214B19481E4E0022CB
:1057000002211A6004F062FC164804F0F5FE0B2139
:105710001C4804F05BFCDDE704F02EFC002840F39D
:10572000CE821048144E05F079F801226223F0660B
:1057300022602B60FCE4B82200210F4802F076FDC5
:105740002868114AA0F1730001210023B0FA80F00B
:10575000400911602360FEF790BF00BFDC1B010011
:1057600084230100CC87FF1FE4210100CC2101002C
:10577000FC21010000007A443493FF1F701B0100DC
:105780006C92FF1F881B01003487FF1F8048814DEA
:1057900004F0B2FE7E4804F0AFFE7D4804F0ACFE9B
:1057A0007B4804F0A9FE7A4804F0A6FE15217A4849
:1057B00004F00CFC764804F09FFE1821774804F0B2
:1057C00005FC00230A2295F84010714804F0A4FE5D
:1057D0006F4804F091FE2821714804F0F7FB686CD3
:1057E000704907F03BFA06F08FFD00250B46024694
:1057F0000095674804F0D8FE02216B4804F0E6FBF0
:10580000634804F079FE1321684804F0DFFB604828
:1058100004F072FE08232360FEF786BF5C485D4EED
:1058200004F06AFE5A4804F067FE594804F064FE2A
:10583000574804F061FE564804F05EFE11215C48B2
:1058400004F0C4FB524804F057FE2821594804F0E4
:10585000BDFB7069534907F001FA06F055FD0025BC
:1058600002460B4600954A4804F09EFE02214E482F
:1058700004F0ACFB464804F03FFE16214E4804F00D
:10588000A5FBF069474907F0E9F906F03DFD0095F1
:1058900002460B463E4804F087FE0221424804F0CF
:1058A00095FB3B4804F028FE1D21444804F08EFB84
:1058B000F06D07F07FF9424907F0D0F906F024FDBA
:1058C000022502460B460095314804F06DFE012189
:1058D0003C4804F07BFB2E4804F00EFE1F213A48A2
:1058E00004F074FB306E07F065F9354907F0B6F93E
:1058F00006F00AFD00950B460246254804F054FECA
:105900000121304804F062FB214804F0F5FD11212B
:105910002E4804F05BFBD6F8B030032B07D8DFE845
:1059200003F0312C27020D21294804F04FFB1848C1
:1059300004F0E2FD1821274804F048FBD6F8B41023
:10594000134804F029FE0221234804F03FFB1048CD
:1059500004F0D2FD0E4804F0CFFD1321134804F0EB
:1059600035FB0B4804F0C8FD06232360FEF7DCBEC0
:105970000C211A4804F02AFBD9E70C21184804F03E
:1059800025FBD4E70421174804F020FBCFE700BF34
:10599000CC87FF1F3493FF1FC8220100941B010016
:1059A000B01B010000007A44DC1B0100E01B010079
:1059B0006C220100F41B0100201C0100381C0100B6
:1059C000CDCCCC3DB81F0100581C0100781C010053
:1059D000B41C0100C41C0100E01C0100A41C010057
:1059E000941C01008C1C0100B84804F085FDB748E8
:1059F00004F082FDB54804F07FFDB44804F07CFD5E
:105A0000B24804F079FD1321B14804F0DFFAAF4841
:105A100004F072FD0D21AF4804F0D8FAAB4804F051
:105A20006BFD0F21AC4804F0D1FAAC4BA7481968C4
:105A300004F0B2FDA54804F05FFD1321A84804F06E
:105A4000C5FAA84BA148196804F0A6FD9F4804F0C8
:105A500053FD1221A44804F0B9FAA44B9B481968DD
:105A600004F09AFD994804F047FD1121A04804F084
:105A7000ADFAA04B9548196804F08EFD934804F0E8
:105A80003BFD0E219C4804F0A1FA9C4B8F48D3F8B3
:105A9000A01004F081FD8D4804F02EFD19219848D6
:105AA00004F094FA974B8948196804F075FD87480B
:105AB00004F022FD1121944804F088FA934B8348A6
:105AC000196804F069FD814804F016FD132190481F
:105AD00004F07CFA7D4804F00FFD04232360FEF7F8
