:1000000000800020BD01000081AD00003DAD00007A
:100010003DAD00003DAD00003DAD00003DAD000038
:100020003DAD00003DAD00003DAD000081AD0000E4
:1000300081AD00003DAD000049A200004DA20000CE
:1000400081AD000081AD000081AD000081AD0000F8
:1000500081AD000081AD000081AD000081AD0000E8
:1000600081AD000081AD000081AD000081AD0000D8
:1000700081AD000081AD000081AD000081AD0000C8
:1000800081AD000081AD000081AD000081AD0000B8
:100090009D88000081AD000081AD000081AD0000B1
:1000A00081AD000081AD000081AD000081AD000098
:1000B00081AD0000B59E0000C19E0000C59E0000FD
:1000C000D19E0000D59E0000D99E000081AD0000A9
:1000D00081AD000081AD000081AD000081AD000068
:1000E00081AD000081AD000081AD000081AD000058
:1000F00081AD000081AD000081AD0000A5BC000015
:1001000081AD0000CDC3000081AD000081AD0000D5
:1001100081AD000081AD000081AD000081AD000027
:1001200081AD000081AD000081AD000081AD000017
:1001300081AD000081AD000081AD000081AD000007
:1001400081AD000081AD000081AD000081AD0000F7
:1001500081AD000081AD000081AD000081AD0000E7
:1001600081AD0000CDC6000081AD000081AD000072
:1001700081AD000081AD000081AD000081AD0000C7
:1001800081AD000081AD000081AD000081AD0000B7
:1001900081AD000081AD000081AD000081AD0000A7
:1001A00081AD000081AD000081AD000081AD000097
:1001B00081AD000081AD000081AD0000574B4CF2D5
:1001C000205210B5DA814DF62812DA8100BF00BF47
:1001D0000AF0DAFD524B4FF010621A63514A9A63EB
:1001E000514ADA63514A136913F4807303D153619E
:1001F0004FF4A85313614E4B9A78110703D59A78A0
:1002000042F008029A704B4B4B482A221A704B4B13
:10021000DA1C121AC11E22F00302994288BF002282
:1002200047490AF0B7FC474B4748DA1C121AC11E6F
:1002300022F00302994288BF002200210FF0E4FC63
:10024000424943484FF4DE720AF0A4FC414B424A53
:10025000802103F8011B9342FBD14FF0E0233C4A7D
:10026000C3F8082D3D4B8A221A70A3F5805324222F
:100270005A70A0221A709A799207FCD59A79D406FE
:10028000FCD4374B9A7902F00C02082AFAD10322E7
:100290001A7140225A719A799006FCD5304A9379A6
:1002A0005906FCD51E4B2F4959640221996420211F
:1002B0001170917901F00C010C29FAD12A4A5A6087
:1002C0004FF0E023294A5A6100229A6107221A61FD
:1002D000274AC3F8202D62B60AF080FE134B5B69F3
:1002E000DA0705D523480AF06DFE234B234ADA616D
:1002F000234B1B785B0609D51F4C204BE2699A42C1
:1003000004D11C480AF05EFE0023E3610AF042FDBE
:100310000FF070FD0AF036FCFEE700BF002005403C
:1003200000800440823F04000100002B00D0034005
:1003300000D0074000E007402087FF1F7091FF1F9B
:10034000BC76010084BFFF1F7091FF1F00000000FA
:100350000082FF1F00E400E05FE400E00050064080
:100360000040064000000301C0100500FF760100B8
:100370000000202054665D6400E00340A5C3945A49
:1003800000F00740FFFFFFFFFFFFFFFFFFFFFFFF42
:10039000FFFFFFFFFFFFFFFFFFFFFFFFFFFFFFFF6D
:1003A000FFFFFFFFFFFFFFFFFFFFFFFFFFFFFFFF5D
:1003B000FFFFFFFFFFFFFFFFFFFFFFFFFFFFFFFF4D
:1003C000FFFFFFFFFFFFFFFFFFFFFFFFFFFFFFFF3D
:1003D000FFFFFFFFFFFFFFFFFFFFFFFFFFFFFFFF2D
:1003E000FFFFFFFFFFFFFFFFFFFFFFFFFFFFFFFF1D
:1003F000FFFFFFFFFFFFFFFFFFFFFFFFFFFFFFFF0D
:10040000FFFFFFFFFFFFFFFFFFFFFFFFDEF9FFFF23
:100410000548064B1B1AD90F01EBA301491002D066
:10042000034B03B1184770477091FF1F7091FF1F76
:100430000000000008B5054B1BB105490548AFF3A6
:100440000080BDE80840FFF7E3BF00BF00000000E8
:100450007091FF1FBC7601002DE9F04F87B0784EF8
:10046000109C0493002CB4BFE31D2346DB10013322
:100470005B00039303230093431C0293714F01928B
:100480004B1E804689460593019B98F800A04BB30C
:100490004AF0010528460BF0C5FEDDF808B00599C5
:1004A00058460BF0C9FE88F800502B46B9F1000FF2
:1004B00000F09780594608EB090C002058400822AC
:1004C000430010F0800F08BF400083F0070314BF03
:1004D000D8B2C0B2013AF3D1614500F0838011F87F
:1004E000013BEBE750460BF09DFE059902980BF09F
:1004F000A3FE554688F800A002F076FA002849D1FC
:10050000039888F800A00AF0C7FF02F06DFA0028EF
:100510003BD1049D4FF0000A02E00AF1010A0135C7
:100520000BF0C2FE98B1544511DD0BF0D1FE2870DE
:1005300002F05AFA0028F0D0297800231022304621
:100540000AF05EF8012138460CF088FDE5E75445D5
:100550000DD002F049FA00286DD1009B013B0093B9
:1005600092D1504607B0BDE8F08F0BF0B1FE0BF012
:100570009BFE0028F9D102F037FA10B130480AF09A
:1005800027F8504607B0BDE8F08F07212E480CF041
:1005900065FDBEE709212D480CF060FD29460023CA
:1005A000102230460AF02CF8012138460CF056FD96
:1005B000B9F1010F19DD029D08EB090B15F8011BBC
:1005C0000023102230460AF01BF8012138460CF0B7
:1005D00045FD5D45F2D1019B7BB9304609F0F8FF3E
:1005E0008EE748460BF01EFE86E7019B002BF4D0F9
:1005F000B9F1010F18BF002117D108F1FF30002118
:10060000C8F1010510F8013F082259404B0011F0D4
:10061000800F08BF490083F0070314BFD9B2C9B2E5
:10062000013AF3D12B189945ECDC00231022304617
:1006300009F0E6FFD1E7304609F0CAFF8DE700BFB9
:10064000F889FF1F846A0100585801004C580100C6
:1006500038B5182504462A4600210FF0D5FA0E4B6E
:10066000A361E36123626362A362E3622A4600211D
:1006700004F130000FF0C8FA00210023074A0848AF
:1006800084F88410E065A364E36423656365A26570
:1006900022666366204638BD0000A0400000484343
:1006A0000000C8C20023036043608360C36003612D
:1006B0004361836403654365704700BFF0B590F8FC
:1006C000843087B00446002504265B0001278DF89E
:1006D0000C302A4604AB0096032103A88DF80D5078
:1006E0008DF80E70FFF7B8FE94F884308DF80E6028
:1006F000BB408DF80C302020072300932A4604AB22
:100700008DF80D00032103A8FFF7A6FE00962A46E8
:1007100094F884508DF80E70BD408DF80C509DF803
:10072000135025679DF8145065679DF81550A5670F
:100730009DF81650E56704AB032103A833248DF818
:100740000D40FFF789FE07B0F0BD00BF90F87400C0
:10075000704700BF90F87000704700BF90F87800B5
:10076000704700BF90F87C00704700BF00B590F85C
:10077000841087B00423490000204FF0320C00930E
:10078000012204AB8DF80C108DF80E00032103A894
:100790008DF80DC0FFF760FE02200AF07DFE07B065
:1007A0005DF804FB2DE9F047054690B095F88430DC
:1007B00002205B008DF808300AF06EFE95F8843058
:1007C00028465B008DF80830FFF778FFE86FA96FC7
:1007D0006B6F2A6F0190009195F88410B04802F079
:1007E00033FA032430223D2003AB8DF80920214643
:1007F00001228DF80A00009402A8FFF72DFE0126C1
:10080000312332468DF80930214603AB009402A80B
:100810008DF80A40FFF720FE3420324603AB214614
:100820008DF80900009402A88DF80A60FFF714FE05
:1008300012238DF80A3016230093214602A803AB39
:1008400000228DF80960FFF707FE0128064639DD12
:100850000DF10B0303A91818002411F8013B08221D
:100860005C40630014F0800F08BF640083F007034E
:1008700014BFDCB2E4B2013AF3D18842EDD127468D
:100880009DF8211087483A4602F0DEF9162E9DF8B1
:10089000213001D1A3420AD095F8841082480097F4
:1008A000324602F0F7F9002010B0BDE8F0879DF85D
:1008B0000C3095F88420B3EB420F06D0002010B026
:1008C000BDE8F08700273C46DAE79DF80D30012BA4
:1008D000F4D19DF80E30122BF0D19DF810309DF818
:1008E0000F0003EB00200EF0A3F870490EF0F4F8AF
:1008F000696EE86404460EF0ABFA00B16C66296ECE
:1009000020460EF087FA00B12C662F1FDFF8A0A159
:1009100003AC05F114083E46A379607903EB00208F
:100920000EF086F851460EF0D7F846F8040FB1697C
:10093000814602340EF06EFA30B1A96E48460EF0D0
:100940007DFA08B1C6F81890316B48460EF080FA6F
:1009500008B1C6F83090B045DED10020A86457F841
:10096000041F0DF0B1FFB845F9D19DF81D209DF889
:100970001E30A86403EB0223981C0EF059F84D4971
:100980000EF05EF901464C480EF05AF94B490DF055
:1009900099FF4B490EF0A0F806460CF067FD04469F
:1009A00030460CF063FD47490CF08AFD4649064687
:1009B00020460EF091F845490DF086FF4449044663
:1009C00030460EF089F8014620460DF07DFF0146C5
:1009D0004FF07E500EF034F93E490DF073FF9DF854
:1009E0001F209DF82030286503EB0223064603F103
:1009F00009000EF01DF838490EF022F901462E4884
:100A00000EF01EF92D490DF05DFF2D490EF064F832
:100A100007460CF02BFD044638460CF027FD29490B
:100A20000CF04EFD2849074620460EF055F82749A0
:100A30000DF04AFF2649044638460EF04DF80146AF
:100A400020460DF041FF01464FF07E500EF0F8F8C1
:100A500020490DF037FFD5F8803068650446002B3B
:100A600046D1014630460EF0D5F9002838D0A86DA1
:100A700031460EF0EDF938B13346AB6521463046CC
:100A80000EF0C8F900B93446E86D21460EF0C2F9FF
:100A900000B1EC65114802F0D7F8012004E700BF6F
:100AA0006058010094580100E05801006B57053B65
:100AB0002003C839001601470AD7E33FE17A6440B2
:100AC00000007A4400004040A40D8F395A80473A14
:100AD00046A6DB3333938843002C0147B858010006
:100AE000A96D20460EF096F90028C7D02346C4E72A
:100AF0001333A96D55F8234020460EF08BF90028DA
:100B0000C2D0AC65C0E700BF052994BF50F82100F2
:100B1000002070472DE9F0410B4E0746051F00F1FC
:100B2000140855F8044F314620460EF073F9034679
:100B3000204623B1B96E0EF08BF900B1264645452B
:100B4000EFD13046BDE8F081000020412DE9F041B1
:100B5000DFF830800027051F00F1140655F8044F18
:100B6000394620460EF074F90346414620461BB133
:100B70000EF050F900B12746B542EFD13846BDE836
:100B8000F08100BF000090402DE9F84FD0F868A038
:100B9000DFF8708006460027051F00F114094FF0AA
:100BA000000B55F8044F514620460EF051F903460C
:100BB000414620464BB10EF02DF930B13846214662
:100BC0000DF082FE0BF1010B07464D45E9D1D6F839
:100BD00088305B4511D0D6F88C30022BD6BF01335C
:100BE000C6F888B0C6F88C3058460DF021FF014693
:100BF00038460EF025F8BDE8F88F0023C6F88C3093
:100C0000F2E700BF00007042D0F88800704700BFD4
:100C100038B5D0F8803043B9456D046D294620467B
:100C20000EF0F8F830B1204638BD133350F82340A9
:100C3000204638BD2C46204638BD00BF38B5D0F818
:100C4000803043B9446D056D214628460EF0E2F828
:100C500030B1204638BD133350F82340204638BD0C
:100C60002C46204638BD00BF08B5D0F8803043B9C7
:100C7000416D006D0DF028FE4FF07C510DF02CFF02
:100C800008BD133350F8230008BD00BF806C7047C7
:100C900001299ABF143150F821000020704700BF8D
:100CA0003E2998BF80F88410704700BF90F86C0010
:100CB000704700BFC0F88010704700BF80F86C100C
:100CC000704700BF8166704770B500F50E55064647
:100CD00000F12804183520469034FFF7B9FCAC42E7
:100CE000F9D106F1B805012428460021FFF7E6FFF7
:100CF000214628460134FFF7D3FF3F2C05F190052C
:100D0000F2D10749316106F50053002272610548AE
:100D10000549B0610022F161304683F8A02370BD1F
:100D200000007A44000048430000C8C238B500F50E
:100D30000E5500F1B804183502E09034AC420AD0E8
:100D40002046FFF7B3FF0028F7D020469034FFF786
:100D5000A9FCAC42F4D138BDF8B500F5005700232A
:100D600000F50E56C7F8A43300F1B804183602E0B7
:100D70009034B4420FD02046FFF798FF0028F7D0F8
:100D80002046D7F8A453FFF73FFF90340544B44200
:100D9000C7F8A453EFD1D7F8A403F8BD2DE9F04F5D
:100DA000804693B000F500500023012A079000927E
:100DB000C0F8A833069100F00F82DFF8F09208F136
:100DC000B80A4FF0010B07E00BF1010BBBF13F0F2D
:100DD0000AF1900A00F025815046FFF767FF0028CE
:100DE000F2D0002634460125D8F808703146504626
:100DF000FFF78AFE39460EF02BF818B105FA06F314
:100E00001C43E4B20136062EEED1009B012B00F00C
:100E10002D81002CD8D04FEA4B03DBB21A4642F0AA
:100E20000106019333238DF825303046069B8DF85B
:100E300024208DF826300BF0F5F90DF12500022164
:100E40000BF0FAF909AB04931A468DF82460059665
:100E50003346002058400825430010F0800F08BF9B
:100E6000400083F0070314BFD8B2C0B2013DF3D1F4
:100E70000DF126039A4202D012F8013FEAE70BF087
:100E8000D1F901F0B1FD002840F06381019B8DF89C
:100E9000243002200AF000FB01F0A6FD002840F0FB
:100EA00053810AAB02931F460025039400E00135ED
:100EB0000BF0FAF9B0B11E2D00F0F1800BF008FA3A
:100EC00007F8010B044601F08FFD0028EFD0E1B2D6
:100ED00000231022484609F093FB012174480CF0CE
:100EE000BDF8E4E71E2D039C31D001F07DFD002804
:100EF00035D1009B012B38D0019B8DF82430304632
:100F000032238DF825308DF826400BF08BF90DF14A
:100F1000250002210BF090F98DF8246009AA002029
:100F200070400825430010F0800F08BF400083F098
:100F3000070314BFD8B2C0B2013DF3D10DF12603AF
:100F40009A4226D012F8016FEAE70BF0C1F90BF0D4
:100F5000ABF90028F9D101F047FD0028C9D0484677
:100F600009F036FB009B012BC6D1029D2F1D15F801
:100F7000011B00231022484609F042FB4D48012185
:100F80000CF06CF8AF42F2D103214B480CF066F83C
:100F9000B2E70BF047F901F027FD002840F09280FE
:100FA000019B8DF8243002200AF076FA01F01CFD36
:100FB000002876D1029E002500E001350BF074F97F
:100FC00090B31E2D15D00BF083F906F8010B0746E0
:100FD00001F00AFD0028F0D0F9B2002310224846A3
:100FE00009F00EFB012132480CF038F8E5E70BF070
:100FF0006FF90BF059F90028F9D101F0F5FCC8B9E7
:10100000009B012B1CD0079AD2F8A8330BF1010BDF
:101010002344BBF13F0FC2F8A8330AF1900A7FF4D2
:10102000DBAE13B0BDE8F08F1E2DE2D001F0DCFC8A
:101030000028E5D0484609F0CBFA009B012BE2D10D
:10104000029E351D16F8011B00231022484609F0A8
:10105000D7FA184801210CF001F8B542F2D1079AED
:10106000D2F8A8332344C2F8A83314E059464846BE
:1010700009F0A6FA032111480BF0F0FF21460023E6
:101080000222484609F0BCFA0B4803210BF0E6FFA8
:10109000002C7FF4C0AE484609F09AFA94E6039C0F
:1010A00055E7072106480BF0D9FF83E7F889FF1FB2
:1010B000846A010038590100345901003059010097
:1010C00058580100092146480BF0C8FF2B46102252
:1010D0000599484609F094FA012142480BF0BEFFF9
:1010E0002B4610229DF82510484609F089FA012167
:1010F0003C480BF0B3FF9DF826102B4610224846C3
:1011000009F07EFA012137480BF0A8FF04990DF190
:10111000270011F8013B5D4008236A0015F0800F9D
:1011200008BF6D0082F0070214BFD5B2EDB2013BDB
:10113000F3D18842EDD129461022484609F060FAE1
:10114000484609F045FA2BE7072127480BF086FFB0
:10115000A7E6092122480BF081FF2B4610223146D9
:10116000484609F04DFA01211E480BF077FF2B4647
:1011700010229DF82510484609F042FA012119482D
:101180000BF06CFF2B469DF826101022484609F004
:1011900037FA144801210BF061FF09AB0DF1270765
:1011A000184610F8013B5D4008236A0015F0800FD7
:1011B00008BF6D0082F0070214BFD5B2EDB2013B4B
:1011C000F3D1B842EDD129461022484609F018FA69
:1011D000484609F0FDF959E6044809F0F9F9ECE54B
:1011E0004C580100846A010058580100F889FF1F1B
:1011F0002DE9F04F87B04FF0000B0190DFF82CA3E2
:10120000CB4FADF808B001238DF80A304FF0030939
:10121000002420460BF006F802210DF109000BF026
:101220000BF88DF8084001F0DFFB002840F09D80AE
:1012300002208DF808400AF02FF901F0D5FB0028B4
:1012400040F08E800DF10C084646002500E0013587
:101250000BF02AF8002875D0042D15D00BF038F8C3
:1012600006F8010B044601F0BFFB0028EFD0E1B205
:1012700000231022504609F0C3F9012138460BF033
:10128000EDFEE4E70BF024F80BF00EF8054600281D
:10129000F8D101F0A9FB10B1504609F099F99DF879
:1012A0000C30802B40F03E819DF80D40002C40F02A
:1012B00039819DF80E90B9F1010F40F033819D48BE
:1012C00001F0C2FC019B4E4603F1B80704E0013671
:1012D0003F2E07F1900793D03846FFF7E7FC002830
:1012E000F5D14FF46C520090ADF80820012066F063
:1012F0007F028DF80A200AF095FF02210DF1090006
:101300000AF09AFF009B01220DF1080A8DF80820CF
:1013100018460DF10A01524680EA09004FF008090B
:10132000430010F0800F08BF400083F0070314BF94
:10133000D8B2C0B2B9F10109F2D191423DD012F850
:10134000019FE9E7042D9FD001F04EFB002840F0FB
:10135000E280B9F1010900F0E5809DF8084058E706
:10136000072175480BF07AFE6CE7092173480BF0F2
:1013700075FE002310222146504609F041F9012153
:1013800038460BF06BFE9DF80910002310225046E2
:1013900009F036F9012138460BF060FE9DF80A107D
:1013A00000231022504609F02BF9012138460BF09A
:1013B00055FE504609F00CF93AE70AF033FF01F008
:1013C00013FB002862D103208DF808B00AF064F8FE
:1013D00001F00AFB002854D1DFF85091544C00E092
:1013E00001350AF061FF002841D00A2D16D00AF01D
:1013F0006FFF08F8010B824601F0F6FA0028EFD0E3
:101400005FFA8AF100231022484609F0F9F8012119
:1014100020460BF023FEE3E70AF05AFF0AF044FFF0
:101420000028F9D101F0E0FA002840F08B809DF807
:101430000C30812B7FF4E2AE9DF80D303B2B7FF416
:10144000DDAE9DF80E308036B3427FF4D7AE38461D
:101450000121FFF733FC019B394803F50052D2F814
:101460009C330133C2F89C3301F0EEFBC6E60A2D33
:10147000D4D001F0B9FA002849D1022D7FF7BEAED1
:10148000D5E707212C480BF0E9FDA5E709212B48FA
:101490000BF0E4FD4B4610220121244809F0B0F87E
:1014A000012123480BF0DAFD4B4610229DF809106C
:1014B0001E4809F0A5F801211D480BF0CFFD9DF84D
:1014C0000A101A484B46102209F09AF801211848D0
:1014D0000BF0C4FD0DF10B011AF8012B0823544049
:1014E000620014F0800F08BF640082F0070214BF8E
:1014F000D4B2E4B2013BF3D18A45EDD121461022AA
:101500000A4809F07DF8094809F062F85BE70748E6
:1015100009F05EF8B1E7504609F05AF8B9F101094F
:101520007FF41BAF07B0BDE8F08F00BFF889FF1F45
:10153000846A01003C590100585801004C580100D0
:1015400048590100014809F043F870E7F889FF1F86
:101550002DE9F04F00F5005B85B000230122DFF894
:101560007081DFF87091CBF89C33ADF804308DF8C2
:10157000062000F1B80A022700215046FFF79EFB23
:10158000FCB238468DF804400AF04CFE02210DF101
:1015900005000AF051FE8DF8044001F025FA0028FC
:1015A00065D114208DF8044009F076FF01F01CFA93
:1015B000002857D10DF10706002500E001350AF09B
:1015C00073FE70B3082D15D00AF082FE06F8010FE5
:1015D000044601F009FA0028F0D0E1B200231022FD
:1015E000404609F00DF8012148460BF037FDE5E7CC
:1015F0000AF06EFE0AF058FE0028F9D101F0F4F965
:10160000002860D19DF80830BB4216D00520023773
:1016100009F042FF7E2F0AF1900AADD105B0BDE876
:10162000F08F082DE6D001F0DFF9002847D1042D16
:10163000ECDD9DF80830BB42E8D19DF80930002B65
:10164000E4D19DF80A100129E0D19DF80C30002B5F
:10165000DCD05046FFF732FBDBF89C330133CBF88C
:101660009C33D3E707211C480BF0F8FCA2E70921C3
:101670001A480BF0F3FC002310223946404608F0CC
:10168000BFFF012148460BF0E9FC9DF8051000233F
:101690001022404608F0B4FF012148460BF0DEFC62
:1016A0009DF8061000231022404608F0A9FF0121F2
:1016B00048460BF0D3FC404608F08AFF71E74046ED
:1016C00008F086FFB3E7404608F082FF9AE700BFC4
:1016D000F889FF1F846A0100585801004C58010026
:1016E0002DE9F04F00F50E5585B0814600F1B804A4
:1016F000183500F500570026204600219034FFF7EA
:10170000DDFAAC42C7F89C63F6D14FF0020A0DF146
:10171000060643F67E43ADF804307F20A5238DF8FE
:1017200006300AF07FFD0DF1050002210AF084FD6C
:1017300001AC4FF07F038DF804307F222346002058
:1017400050400825420010F0800F08BF400082F092
:10175000070214BFD0B2C0B2013DF3D19E4202D005
:1017600013F8012FECE70AF05DFD01F03DF90028C8
:101770005FD17E2364208DF8043009F08DFE01F0E6
:1017800033F9002840F09680DFF834B1DFF8348177
:101790000DF10707002500E001350AF085FD58B37B
:1017A000082D15D00AF094FD07F8010F044601F04A
:1017B0001BF90028F0D0E1B200231022584608F0AF
:1017C0001FFF012140460BF049FCE5E70AF080FDD0
:1017D0000AF06AFD0028F9D101F006F990B99DF8E8
:1017E00008307F2B15D0BAF1010F1FD14846FFF703
:1017F000FFFC05B0BDE8F08F082DE9D001F0F4F84A
:101800000028ECD02E4808F0E3FE9DF808307F2B2E
:10181000E9D19DF809303C2BE5D19DF80A30A52B84
:10182000E1D19DF80B30572BDDD1DFE74FF0010AF6
:101830006FE7092124480BF011FC2B4610227F2171
:101840001F4808F0DDFE01211E480BF007FC2B4667
:1018500010229DF805101A4808F0D2FE01211948FF
:101860000BF0FCFB9DF8061015482B46102208F0E3
:10187000C7FE012113480BF0F1FB29460DF10700CB
:1018800014F8013B594008234A0011F0800F08BFAB
:10189000490082F0070214BFD1B2C9B2013BF3D1B3
:1018A0008442EDD11022064808F0AAFE044808F050
:1018B0008FFE5EE7072105480BF0D0FB64E700BF11
:1018C000F889FF1F846A01004C5801005858010034
:1018D0002DE9F04F87B042F27F02FF23DFF8E0A24C
:1018E000B84CB94D0190ADF80C208DF80E3003279F
:1018F0004FF07F080DF10E0648F0010B58460AF034
:1019000091FC0DF10D0002210AF096FCD9468DF8EC
:101910000CB003AA002001E012F801BF8BEA00001E
:101920004FF0080B430010F0800F08BF400083F019
:10193000070314BFD8B2C0B2BBF1010BF2D1B2425F
:10194000EAD10AF06FFC01F04FF8002840F0D68190
:1019500002208DF80C8009F09FFD01F045F8002869
:1019600040F014820DF1100B4FF0000901E009F175
:1019700001090AF099FC002800F0B181B9F1040FC7
:1019800016D00AF0A5FC0BF8010B804601F02CF8EC
:101990000028ECD05FFA88F100231022204608F0DE
:1019A0002FFE012128460BF059FBE0E70AF090FCDE
:1019B0000AF07AFC0028F9D101F016F810B181483C
:1019C00008F006FE7F270023DFF8F4A17D4C7E4D52
:1019D0008DF80C708DF80E304FF0030847F0010BB6
:1019E00058460AF01FFC0DF10D0002210AF024FCFC
:1019F000D9468DF80CB003AA002001E012F801BF0F
:101A00008BEA00004FF0080B430010F0800F08BF76
:101A1000400083F0070314BFD8B2C0B2BBF1010B82
:101A2000F2D1B242EAD10AF0FDFB00F0DDFF00285E
:101A300040F0508202208DF80C7009F02DFD00F06E
:101A4000D3FF002840F041820DF1100B4FF0000948
:101A500001E009F101090AF027FC002800F02F81BC
:101A6000B9F1040F15D00AF033FC0BF8010B07464F
:101A700000F0BAFF0028ECD0F9B200231022204673
:101A800008F0BEFD012128460BF0E8FAE1E70AF074
:101A90001FFC0AF009FC0028F9D100F0A5FF10B1E5
:101AA000484808F095FD42F27F13ADF80C30DFF89E
:101AB0001481DFF81491FF238DF80E304FF0030AE4
:101AC0007F2545F0010B58460AF0ACFB0DF10D00E7
:101AD00002210AF0B1FB5F468DF80CB003AC002088
:101AE00001E014F801BF8BEA00004FF0080B43003F
:101AF00010F0800F08BF400083F0070314BFD8B276
:101B0000C0B2BBF1010BF2D1A642EAD10AF08AFBC6
:101B100000F06AFF002840F08B8102208DF80C5005
:101B200009F0BAFC00F060FF002840F0C9810DF117
:101B3000100B002700E001370AF0B6FB002800F088
:101B4000AF80042F15D00AF0C3FB0BF8010B05463C
:101B500000F04AFF0028EED0E9B2002310224046F0
:101B600008F04EFD012148460BF078FAE3E70AF051
:101B7000AFFB0AF099FB0028F9D100F035FF10B156
:101B8000104808F025FD7F270023DFF834A00D4D15
:101B90000D4E8DF80C708DF80E304FF0030847F0A5
:101BA000010B58460AF03EFB0DF10D0002210AF030
:101BB00043FBD9468DF80CB003AA002008E000BF13
:101BC0004C580100F889FF1F846A010012F801BF18
:101BD0008BEA00004FF0080B430010F0800F08BFA5
:101BE000400083F0070314BFD8B2C0B2BBF1010BB1
:101BF000F2D1A242EAD10AF015FB00F0F5FE00286E
:101C000040F0CE8002208DF80C7009F045FC00F009
:101C1000EBFE002840F0BF800DF1100B4FF00009E3
:101C200001E009F101090AF03FFB58B3B9F1040FD3
:101C300015D00AF04DFB0BF8010B074600F0D4FE5F
:101C40000028EED0F9B200231022284608F0D8FC74
:101C5000012130460BF002FAE3E70AF039FB0AF003
:101C600023FB0028F9D100F0BFFE10B1C54808F0F1
:101C7000AFFC019B03F50053002283F8A02307B0BB
:101C8000BDE8F08FB9F1040FE9D000F0ADFE0028F7
:101C900040F06881B8F10108EBD09DF80C707EE748
:101CA000042F3FF466AF00F09FFE002840F05E81F5
:101CB000BAF1010A3FF467AF9DF80C5001E7B9F1A2
:101CC000040F3FF4E6AE00F08FFE002840F0528192
:101CD000B8F101083FF4E7AE9DF80C707EE6B9F16B
:101CE000040F3FF465AE00F07FFE002840F046810F
:101CF000013F3FF467AE9DF80C80FDE50921504699
:101D00000BF0ACF95B4610224946204608F078FCFF
:101D1000012128460BF0A2F95B4610229DF80D1018
:101D2000204608F06DFC012128460BF097F95B4630
:101D30009DF80E101022204608F062FC0121284672
:101D40000BF08CF903AB0DF10F0C184610F8013BAA
:101D500083EA0B0B08234FEA4B021BF0800F08BFEE
:101D60004FEA4B0B82F0070214BF5FFA82FB5FFA67
:101D70008BFB013BEFD16045E8D15946102220464C
:101D800008F03EFC204608F023FCE1E507217E48F0
:101D90000BF064F9E6E507217B480BF05FF93BE7C0
:101DA000092150460BF05AF95B4610224946284655
:101DB00008F026FC012130460BF050F95B4610225A
:101DC0009DF80D10284608F01BFC012130460BF051
:101DD00045F95B469DF80E101022284608F010FCCD
:101DE000012130460BF03AF903AB0DF10F0C184608
:101DF00010F8013B83EA0B0B08234FEA4B021BF060
:101E0000800F08BF4FEA4B0B82F0070214BF5FFA46
:101E100082FB5FFA8BFB013BEFD16045E8D159466D
:101E20001022284608F0ECFB284608F0D1FBE9E632
:101E3000092156480BF012F95B46394610224046FC
:101E400008F0DEFB012148460BF008F95B46102242
:101E50009DF80D10404608F0D3FB012148460BF0D9
:101E6000FDF85B469DF80E101022404608F0C8FBB6
:101E7000012148460BF0F2F803AB0DF10F071846AD
:101E800010F8013B83EA0B0B08234FEA4B021BF0CF
:101E9000800F08BF4FEA4B0B82F0070214BF5FFAB6
:101EA00082FB5FFA8BFB013BEFD1B842E8D1594688
:101EB0001022404608F0A4FB404608F089FB2CE6BF
:101EC000072131480BF0CAF831E607212E480BF004
:101ED000C5F8B9E5092150460BF0C0F85B46102261
:101EE0004946204608F08CFB012128460BF0B6F845
:101EF0005B4610229DF80D10204608F081FB012161
:101F000028460BF0ABF85B469DF80E1010222046D9
:101F100008F076FB012128460BF0A0F803AB0DF189
:101F20000F0C184610F8013B83EA0B0B08234FEA0D
:101F30004B021BF0800F08BF4FEA4B0B82F00702E9
:101F400014BF5FFA82FB5FFA8BFB013BEFD1844544
:101F5000E8D159461022204608F052FB204608F0EE
:101F600037FB67E5284608F033FB93E6404608F068
:101F70002FFB9DE6204608F02BFBA9E6204608F043
:101F800027FBB5E6F889FF1F585801004C5801009F
:101F900038B500F50E5500F1B804183502E090345C
:101FA000AC420AD02046FEF781FE0028F7D020463A
:101FB0009034FEF7DBFBAC42F4D138BD2DE9F04F95
:101FC0000546002345F8B83B00F50E5787B080461C
:101FD00018372C4602E09034BC420AD02046FEF767
:101FE00065FE0028F7D020469034FEF7BFFBBC42C8
:101FF000F4D108F500530493D3F89C33072B00F376
:102000000881C82009F048FADFF820A2DFF8209202
:1020100005952C46012604E001363F2E04F190047C
:102020007DD02046FEF742FE0028F5D0504600F055
:102030000BFE3146484600F007FE2046FEF7B2FB95
:102040002046FEF723FE0CF023FB02460B467948A0
:1020500000F0FAFD2046FEF75DFD05462046FEF73E
:1020600075FD834628460CF013FB02460B46584686
:10207000CDE902230CF00CFB8C468346CDE900BC75
:10208000DDE902236C4800F0DFFD00212046FEF769
:10209000FFFD012105462046FEF7FAFD834628464E
:1020A0000CF0F6FA02460B465846CDE902230CF036
:1020B000EFFADDE90223CDE90001604800F0C4FD3C
:1020C0002046FEF7E3FD0146D8F800000CF0FCFBCB
:1020D000C8F800002046FEF79BFDD8F818100CF059
:1020E00099FE002840F083802046FEF7A7FDD8F82F
:1020F0001C100CF0ADFE00288ED02046FEF788FDA7
:102100004F490CF0A5FE002886D02046FEF796FD2C
:1021100001363F2EC8F81C0004F1900481D1D8F894
:102120000400059D0CF084FC0146D8F800000CF07A
:1021300087FDD8F81410C8F8000004460CF088FE9B
:1021400008B1C8F81440D8F8101020460CF062FE10
:1021500008B1C8F810400B2009F034F9049B93F83B
:10216000A033002852D1002B5CD00123049A82F8BE
:10217000A0330023C8F80C302C4602E09034BC4257
:1021800015D02046FEF792FD0028F7D02046FEF736
:10219000DDFCD8F80C100CF05BFE0028EED02046D9
:1021A000FEF7D4FC9034BC42C8F80C00E9D1254BB2
:1021B000C8F8083002E09035BD4215D02846FEF739
:1021C00075FD0028F7D02846FEF7A4FCD8F80810C3
:1021D0000CF020FE0028EED02846FEF79BFC903540
:1021E000BD42C8F80800E9D107B0BDE8F08F20462D
:1021F000FEF70EFD12490CF02BFE00283FF474AFE1
:102200002046FEF705FDC8F818006DE72BB900233E
:10221000ACE7322009F040F9F6E60B4800F026FD65
:102220000023A3E7094800F035FD9EE7D45D0100D7
:102230005C59010098590100AC590100D8590100BE
:1022400000008CC20000A0402C5A0100F45901008B
:1022500000F50050D0F8A803704700BF80687047B1
:1022600000F50050D0F89C03704700BFC06870476D
:102270000068704741607047F8B500F50E550F468D
:10228000164600F1B804183502E09034AC420FD085
:102290002046FEF70BFD0028F7D020463946FEF712
:1022A00009FD204631469034FEF70CFDAC42EFD1DB
:1022B000F8BD00BF2DE9F8432A4A2B4BDFF8AC905C
:1022C000426200F50E558046036200F1B8041835ED
:1022D0000026002702E09034A54210D02046FEF7E9
:1022E000E5FC0028F7D02046FEF7BEFC49460CF07E
:1022F000AFFD88B99034A54206F10106EED108F58C
:102300000058D8F89C03801B0CF092FB014638461D
:102310000CF096FCBDE8F8832046FEF7A5FC0146CC
:1023200038460CF0D1FA07462046FEF787FCD8F86D
:1023300020100CF08DFD70B92046FEF769FCD8F82E
:1023400024100CF067FD0028C5D02046FEF760FC85
:10235000C8F82400BFE72046FEF770FCC8F820004C
:10236000EAE700BF00C0794400C079C400008CC215
:10237000006A7047406A7047F8B500F50E56074688
:10238000002500F1B804183602E09034B4420FD0B2
:102390002046FEF78BFC0028F7D02046FEF7F4FB22
:1023A000014628460CF090FA9034B4420546EFD12D
:1023B00007F50057D7F89C030CF03AFB0146284676
:1023C0000CF03EFCF8BD00BF2DE9F04F93B0804605
:1023D0009B480D9108F5005700F0DCFB984800F091
:1023E000D9FB974800F0D6FB08F1B804D7F89C2336
:1023F0000C92002308F50E55C7F8A433183526466D
:10240000A14602E09036AE420FD03046FEF74EFCB9
:102410000028F7D03046D7F8A443FEF7F5FB9036F6
:102420002044AE42C7F8A403EFD1D8F800000CF066
:102430002FF94C46CDE90E01D7F8A4B3D8F804A083
:10244000002603E009F19009A94510D04846FEF79F
:102450002DFC0028F6D04846FEF796FB0146304694
:102460000CF032FA09F19009A9450646EED1D7F8E9
:102470009C03744F0CF0DCFA014630460CF0E0FB94
:102480000CF006F902460B464046CDE91023D8F879
:102490000C60D8F80850FFF70DFF0CF0F9F8CDE903
:1024A0000A01294630460CF00DFA67490CF014FB7E
:1024B0000CF0EEF8CDE9080130460CF0E9F8CDE972
:1024C000060128460CF0E4F8DDE91023CDE90223EB
:1024D000DDE90E23CDE90401CDE900230C995B4829
:1024E00053465A4600F056FB554800F053FB002374
:1024F00001260C9305E001363F2E04F1900400F014
:1025000096802046FEF7D2FB0028F4D02046FEF746
:102510001DF92046FEF71EF92046FEF71FF920465A
:10252000FEF720F908214A480AF098FD314638465E
:1025300008F046F8092E7DDD02214648DFF818B183
:102540000AF08CFD2046FEF7A1FB0CF0A1F89DF8E7
:102550003490CDF800900B460246384608F05CF8FF
:102560003E4801210AF07AFD2346DDF830A04C46B2
:10257000002599461FE0062139480AF06FFD5146B3
:10258000384608F01DF8022136480AF067FD294652
:102590004846FEF7B9FA0CF07BF8009402460B4669
:1025A000384608F039F801352C4801210AF056FD6B
:1025B000062D0AD0C246BAF1090F0AF10108DADC89
:1025C000012158460AF04AFDD5E7112126480AF0B4
:1025D00045FD00214846FEF75BFB0CF059F802254B
:1025E00002460B460095384608F016F812211F489F
:1025F0000AF034FD01214846FEF74AFB0CF048F88A
:10260000009502460B46384608F006F801211848A6
:102610000AF024FD0C9B3846063301364C460C93D9
:1026200007F0D6FF3F2E04F190047FF46AAF13B099
:10263000BDE8F08F012108480AF010FD7CE700BFDB
:10264000D45D0100F889FF1F00007A44545A01004C
:10265000F45A0100EC6B0100846A0100005B010088
:10266000045B0100A05B01000C5B0100205B01002A
:10267000345B01002DE9F04F87B000F1B8052E461C
:102680000595109FDFF84493DFF844A3DFF844B3C7
:102690000491029203934FF001080D4607E008F100
:1026A0000108B8F13F0F06F1900600F08680304631
:1026B000FEF7FCFA0028F2D000230A2229464846F9
:1026C00007F09EFF012F00F01081012150460AF013
:1026D000C5FC02980BF0DCFF0B460021024600917E
:1026E000484607F099FF012150460AF0B7FC0399CC
:1026F000484607F065FF012150460AF0AFFC41460D
:10270000484607F05DFF012150460AF0A7FC00246F
:1027100021463046FEF7F8F90BF0BAFF0B460221CE
:1027200002460091484607F077FF012F4FF0010164
:10273000504604BF3946584601340AF08FFC082C35
:10274000E6D100213046FEF7A3FA0BF0A1FF0224E8
:1027500002460B460094484607F05EFF012F00F04A
:10276000E780012150460AF079FC01213046FEF74E
:102770008FFA0BF08DFF009402460B46484607F097
:102780004BFF012150460AF069FC02213046FEF75A
:102790007FFA0BF07DFF0B4602210246009148466E
:1027A00007F03AFF08F10108484607F011FFB8F1B9
:1027B0003F0F06F190067FF47AAF059DDFF818828F
:1027C000DFF80C92DFF80CA2DDF810B0012605E06E
:1027D00001363F2E05F1900500F084802846FEF773
:1027E00065FA0028F4D000230A225946404607F033
:1027F00007FF012F00F0B1800121484609F002F9DE
:1028000002980BF045FF0B4600210246009140461E
:1028100007F002FF0121484609F0F4F80399404609
:1028200007F0CEFE0121484609F0ECF8314640465B
:1028300007F0C6FE0121484609F0E4F800242146CD
:102840002846FEF761F90BF023FF0B4602210246F2
:102850000091404607F0E0FE012F4FF0010148468D
:1028600004BF39465046013409F0CCF8082CE6D1B3
:1028700000212846FEF70CFA0BF00AFF022402465C
:102880000B460094404607F0C7FE012F00F08880F9
:102890000121484609F0B6F801212846FEF7F8F96B
:1028A0000BF0F6FE009402460B46404607F0B4FEDD
:1028B0000121484609F0A6F802212846FEF7E8F96A
:1028C0000BF0E6FE0B46022102460091404607F05F
:1028D000A3FE0136404607F07BFE3F2E05F1900532
:1028E0007FF47CAF07B0BDE8F08F394658460AF058
:1028F000B5FB02980BF0CCFE0B460021024600917E
:10290000484607F089FE394658460AF0A7FB039966
:10291000484607F055FE394658460AF09FFB4146A7
:10292000484607F04DFE394658460AF097FBEEE65A
:10293000394658460AF092FB39463046FEF7A8F968
:102940000BF0A6FE009402460B46484607F064FED4
:10295000394658460AF082FB17E73946504609F0D7
:1029600051F802980BF094FE0B46002102460091AC
:10297000404607F051FE3946504609F043F80399A6
:10298000404607F01DFE3946504609F03BF83146F7
:10299000404607F015FE3946504609F033F84DE73A
:1029A0003946504609F02EF839462846FEF770F9A8
:1029B0000BF06EFE009402460B46404607F02CFEDC
:1029C0003946504609F01EF876E700BFF889FF1F28
:1029D000385B0100846A0100B888FF1F014B187042
:1029E000704700BF2488FF1F024B1878B0FA80F0B0
:1029F000400970472488FF1F0278002A00F0B88041
:102A00002DE9F0435C4FDFF874815D4E83B00346DF
:102A10000D46252A34D158785C1C002838D0A0F106
:102A20002503552B2ED8DFE803F09F2D2D2D2D2DBE
:102A30002D2D2D2D2D2D2D2D2D2D2D2D2D2D2D2DC6
:102A40002D2D2D2D2D2D2D932D2D2D2D2D2D2D2D50
:102A50002D2D2D2D2D2D2D2D2D882D2D2D7C2D2DFC
:102A60002D2D2D2D2D2D2D7439392D5E2D2D392DFA
:102A70002D392D2D2D2D2D2D493F2D2D2D562D69E7
:102A800018781C460AF06EFB6278631C002AC0D1DD
:102A90003C4803B0BDE8F04307F09ABD55F8041B6D
:102AA000384807F08DFDEFE755F8041B01290EBFEC
:102AB0003548012130460AF0D1FAE5E755F8049B84
:102AC000B9F1000FE0D048460DF0DAF9014648466A
:102AD0000AF0C4FAD8E755F8041B2A48002310224C
:102AE00007F08EFDD0E7073525F007050321F5E84F
:102AF00002232448009107F08FFDC5E7073525F034
:102B000007050021F5E802231E48009107F084FD27
:102B1000BAE755F8041B1B480023022207F070FD9A
:102B2000B2E7022119480AF099FA55F8041B154832
:102B30000023102207F064FDA6E755F8043B012BA3
:102B400007BF04214046052138460AF087FA9BE773
:102B500002210F480AF082FA55F8041B09480023A5
:102B6000022207F04DFD8FE725200AF0FBFA8BE7E4
:102B7000044807F02DBD00BF545B01004C5B010011
:102B8000485B0100F889FF1F445B01003C5B0100CA
:102B9000405B01000FB400B583B004A951F8040BE9
:102BA0000191FFF729FF03B05DF804EB04B0704713
:102BB000F0B51C4B1C4F1B6883B004460193019B6E
:102BC0003B600D46164619460A220023174807F0B7
:102BD00017FD032116480AF041FA032C07D8DFE855
:102BE00004F01B160211134807210AF037FA0221DC
:102BF00011480AF033FA3146284603B0BDE8F040E8
:102C0000FFF7FABE05210D480AF028FAEFE7042184
:102C10000B480AF023FAEAE705210A480AF01EFAEF
:102C2000E5E700BF38BAFF1F8891FF1FF889FF1F33
:102C3000305901006C5B0100A05B0100745B010076
:102C4000645B01005C5B01000FB400B5064B1878B3
:102C500083B020B905AA04990192FFF7A9FF03B038
:102C60005DF804EB04B070472488FF1F0FB4084BD5
:102C700000B51B78012B83B005D805AA04990192F1
:102C80000120FFF795FF03B05DF804EB04B0704737
:102C90002488FF1F0FB4084B00B51B78032B83B0AB
:102CA00005D805AA049901920320FFF781FF03B01C
:102CB0005DF804EB04B070472488FF1F30B4074D63
:102CC000074C084900232B702360036530BC436523
:102CD000836580F85C300B60704700BF9091FF1FE8
:102CE0008C91FF1F9491FF1F70B5132008F06AFBB1
:102CF00058B9114C08F0B0FB2268104B801A80B212
:102D0000188008F0A9FB206070BD0C4D0A4B2C8880
:102D10001E6808F0A1FBA4B23444201A2A8808498E
:102D2000C0EB00139B0092B2A3F63403B3FBF2F3A3
:102D30009BB20B8070BD00BF34B7FF1F3EB6FF1FB4
:102D4000DC91FF1FDDF800C0521AACEB030C1CD065
:102D5000401ABCF1000F0CFB00F002EBD27109DB52
:102D600000EB610000FB02F1002990FBF2F0184437
:102D700010DB7047A0EB610000FB02F1002990FB23
:102D8000F2F01844F5DB013070470CEBDC7C03EB10
:102D90006C0070470138704738B5044649B10846A1
:102DA0000D460DF06DF8236802465B682946204603
:102DB00098472046BDE8384007F00ABC38B5474878
:102DC000474CFFF7E7FE474B4748DC60474C1C6128
:102DD000474C9C61474C9C62474CDC61474CDC6231
:102DE000474C1C6300249C634FF4FA749C86454C4A
:102DF000DC63454C1C64454C5C6040F201241C8142
:102E0000434C5C625524C3F8DC404FF07C54DC64D6
:102E1000404C1C65404C5C650C249C653F4C5C66DA
:102E20003F4C18624FF40575586158649C663D48E4
:102E30001D8040F61C4400220121C3F8D000C3F8D5
:102E4000D400F0256420DC660A2483F84820C3F807
:102E5000E050D96518661C67C3F88410C3F8B81031
:102E600083F8D8103049DA67C3F88820C3F8AC205B
:102E700083F8CD2083F8CE20C3F89810322244F690
:102E800020612A4CC3F8C000C3F890202848C3F83A
:102E9000A010C3F8A820FF21C3F8B0200222DFF859
:102EA00094C0C3F8C44041F20405C3F8C8004FF40D
:102EB0007A742148C3F8B410C3F8802041F28831F5
:102EC000C3F8BC205A225D67C3F89440C3F89CC085
:102ED000C3F8A400C3F88C109A6738BD7C5B01006E
:102EE000666686403CB7FF1FCDCC4C3E000040409C
:102EF00033338340CDCCCC3DCDCC4C40000082421E
:102F0000000020C1000020420000A04020A10700D6
:102F1000333373409A9979400AD7233D2C019600A8
:102F200032002C0158028813000011448813050058
:102F30009A99993E00F0C845D606D60670B5454D1B
:102F4000454C4648E66800232B70FFF78FF9014691
:102F500030460BF05FFF08B104232B703F48FFF7AA
:102F60007DF921690BF056FF18B12B7843F010035F
:102F70002B703A48FFF7FCF9E16A0BF069FF18B1D2
:102F80002B7843F040032B70002334486B70FFF71D
:102F9000F1F9216B0BF03EFF08B101236B700023A8
:102FA000EB702E48FFF762F906462C48FFF756F9FA
:102FB000014630460BF086FC616C0BF049FF08B10E
:102FC0000123EB70264D254800232B70FFF74EF9A7
:102FD000A16A0646E0680BF075FC014630460BF02E
:102FE00037FF08B104232B701C48FFF737F9A16A9B
:102FF000064620690BF068FC014630460BF00AFFDC
:1030000018B12B7843F010032B701448FFF7B0F978
:10301000216C0646E06A0BF055FC014630460BF089
:1030200017FF18B12B7843F040032B7000236B700F
:103030000A48FFF79FF9216C0346206B1C460BF0F2
:1030400043FC014620460BF0E5FE08B101236B70FE
:1030500070BD00BFE491FF1F3CB7FF1FF091FF1F41
:103060003CB8FF1F2DE9F0417E4C2368012B82B054
:1030700047D0022B74D0032B03D02BB302B0BDE892
:10308000F081794B794E4FF47A721A60D6F8B0001D
:103090000BF0CEFC0546D6F8B4000BF0C9FC29466F
:1030A0000BF010FC72490BF017FD71490BF0C8FDD5
:1030B00029460BF009FC0BF0EBFE0146062007F059
:1030C000DFFF2368002BD9D1684B6A48D3F8B010D2
:1030D000D3F8B42003686848521A002A02FB03F3AD
:1030E00064DB323380FB0320DA17C2EB6012002B63
:1030F0001144C0F2B580062002B0BDE8F04107F0EF
:10310000BFBF594F38680A30B0F57A7F49DC386064
:103110000BF08EFC59490BF0DFFC8046534ED6F87D
:10312000B0000BF085FC0546D6F8B4000BF080FC2F
:1031300029460BF0C7FB41460BF0CEFC4C490BF087
:103140007FFD29460BF0C0FB0BF0A2FE01460620D6
:1031500007F096FF4A4B1B689BBB2368022B8AD162
:10316000414B424E00221A60D6F8B0000BF060FCD2
:103170000546D6F8B4000BF05BFC29460BF0A2FB29
:1031800000210BF0A9FC3A490BF05AFD29460BF03F
:103190009BFB0BF07DFE0146062007F071FF2368C4
:1031A00069E700234FF000083B60B7E7323B80FB44
:1031B0000320DA17C2EB6012002B11449BDB0131B4
:1031C00099E702212F4809F049FF2F4807F000FA3C
:1031D00006212E4809F042FF38680BF029FC2749E8
:1031E0000BF07AFC0BF054FA4FF0020802460B4643
:1031F000CDF80080244807F00FFA0D21244809F08B
:103200002DFFD6F8B0000BF013FC054638680BF024
:103210000FFC1A490BF060FC0346D6F8B4001E46BA
:103220000BF006FC29460BF04DFB014630460BF037
:1032300053FC0F490BF004FD29460BF045FB0BF046
:1032400027FACDF8008002460B460F4807F0E4F954
:1032500041460C4809F002FF0B4807F0B9F97CE73A
:10326000013948E740B6FF1FD491FF1F3CB7FF1F4D
:103270000000C8422888FF1F1F85EB51CDCCCC3DF4
:103280004888FF1FEC6B0100F889FF1F9C5B010061
:10329000A45B010030B5AA48AA4C83B007F098F9A6
:1032A000A74807F095F9A84BA548196807F088F9D1
:1032B000A34807F08DF9A5480D2109F0CFFED4F8F9
:1032C000AC30012B11D0A24D9D48297800230A2251
:1032D00007F096F92B78052B4FD8DFE813F0AA01F9
:1032E000AF01B401A001A5019B010921994809F092
:1032F000B5FE9948FEF7B2FF21690BF08BFD00285F
:1033000040F0C4819448FEF7B1FFE1680BF0A0FDE6
:10331000002840F0CF819048FEF7A8FF05468E4870
:10332000FEF79CFF014628460BF0CCFA616C0BF0CF
:103330008FFD002840F0B9818748FEF7BBFFE16AA6
:103340000BF086FD002840F0AB818348FEF7B2FF0A
:10335000216B0BF05FFD002840F09D817F4B7E4884
:103360001B68012B00F08681FEF778FF21690BF0C6
:103370006FFD002840F06C81754D7948022109F0FD
:103380006DFE122008F01EF8012800F00D811120BA
:1033900008F018F8012800F01181724B1B68012B0E
:1033A00000F0158102216E486F4C09F057FE6F4BFB
:1033B0006348196807F004F9614807F009F9042126
:1033C0006B4809F04BFE0B2007F0FCFF0023014681
:1033D0000A225B4807F014F90C2007F0F3FF0023E2
:1033E00001460A22564807F00BF9142007F0EAFFBD
:1033F000002301460A22524807F002F9152007F07F
:10340000E1FF0A22014600234D4807F0F9F80621A2
:10341000584809F023FE2368D8074BBF012101213A
:103420005548564809F01AFE236899074BBF0121F9
:1034300001215148514809F011FE23685A074BBF3A
:10344000012101214C484D4809F008FE23681B0763
:103450004BBF012101214848484809F0FFFD0421E4
:10346000474809F0FBFD112007F0ACFF002301469F
:103470000A22334807F0C4F8102007F0A3FF002306
:1034800001460A222E4807F0BBF8122007F09AFFE7
:10349000002301460A222A4807F0B2F8132007F059
:1034A00091FF0A2201460023254807F0A9F81821B8
:1034B000344809F0D3FD344B18880BF0B9FA33497E
:1034C0000BF00AFB0BF0E4F8002402460B460094D4
:1034D0001B4807F0A1F81D212D4809F0BFFD2D4B19
:1034E00018880BF0A5FA29490BF0F6FA0BF0D0F882
:1034F00000940B4602461248274C07F08DF82748E7
:10350000022109F0ABFD2B78032B02D023889BB25C
:103510009BB11721224809F0A1FD2188084889B2F2
:1035200007F04EF81D48022109F098FD2B78032B77
:1035300003D11C4B1B78002B4ED103B030BD00BF14
:10354000F889FF1F3CB7FF1F28B8FF1FB45B0100BD
:103550009CB5FF1FC45B0100F091FF1F20B8FF1F47
:10356000EC6B0100EC91FF1F20B6FF1FA4B5FF1FFD
:10357000BC5C0100C45C0100CC5C0100D05C0100BB
:10358000D45C0100DC5C0100A8B5FF1FCDCCCC3DB4
:10359000F85C01003CB6FF1FDC91FF1F185D0100C5
:1035A0001C5D01009C91FF1F0E214B4809F056FD48
:1035B000112007F007FF01287FF4EFAE47480A21EA
:1035C00009F04CFD464B1B68012B7FF4EBAE11213B
:1035D000444809F043FDE5E60B21434809F03EFD70
:1035E000424B4348198889B206F0EAFF112141484D
:1035F00009F034FD404B3E48198806F0E1FF3F4B8F
:103600001B78002B65D13E48192103B0BDE830403E
:1036100009F024BD07213B4809F020FDADE6082153
:10362000394809F01BFDA8E60B21384809F016FDC2
:10363000A3E60621364809F011FD9EE6072135482C
:1036400009F00CFD99E60721334809F007FD94E6DF
:103650003248334DFEF70AFEE1680BF0DBFB002831
:103660003FF48BAE2B78052B0BD10A212D4809F0A6
:10367000F5FC82E6FEF7F2FD616A0BF0E9FBF0B9BA
:10368000274D2948082109F0E9FC76E60F21274853
:1036900009F0E4FC36E60D21254809F0DFFC5DE683
:1036A0000C21244809F0DAFC4FE61121224809F0E8
:1036B000D5FC41E60E21214809F0D0FC2BE616216D
:1036C0001F48174D09F0CAFC16480A2109F0C6FC2C
:1036D00053E61C481D2198E78C5C01009C5C0100AE
:1036E000EC91FF1FA85C0100345D01003EB6FF1F96
:1036F000F889FF1F405D0100B4B5FF1FAAB5FF1F89
:10370000545D0100845C0100785C0100645C010090
:10371000545C01005C5C0100705C0100F091FF1FD3
:103720009CB5FF1F3C5C0100485C0100D05B0100C0
:10373000145C0100045C0100F05B0100E05B01002F
:10374000245C0100705D01002DE9F047B54CD4F810
:103750008060012E8CB000F04481032E5CD0DFF835
:10376000C882B24FB24EE36FB248012B09BF316835
:10377000316801F10041316006F0CEFC3B68002B5E
:1037800040F01581AB4806F09BFC3B68C8F8000090
:103790000546002B40F0FB80D4F88030012B00F070
:1037A000BA80A54928460BF053FB30B9A3492846F7
:1037B0000BF030FB002800F0E081DFF884A2DFF896
:1037C0008492DAF800300A930A98D9F800309E4FB4
:1037D000C01A0BF029F929460BF07EF99B490BF032
:1037E0002FFA9A490BF02CFA39680BF06DF8DAF8D9
:1037F00000300993099B3860C9F80030D4F8B8004C
:103800000BF016F929460BF067F90023C8F8000001
:1038100033600CB0BDE8F0878D4D8E4F2A68DFF81D
:103820000882D2F8840001230F213B6005F014FECA
:103830003B687E4F012B3B6800F02C81002B40F051
:10384000AF812B68DFF81092D3F88400436B1E69B8
:10385000B6B2C9F8006005F047FBB4F8A62040F600
:10386000E44306FB03F3B3FBF0F0801A00B20BF065
:10387000DFF87A490646D4F898000BF02DF9014696
:1038800030460BF0DDF9D9F80030694E632B30601B
:1038900000F37A81002333603B68002B3FF463AF71
:1038A00002216F4809F0DAFB2B68D9F80050D3F8F1
:1038B000840040F6E44303FB05F505F015FBB5FB7A
:1038C000F0F00BF0B1F80546B4F8A6000BF0B0F834
:1038D000014628460AF0F6FF0AF0DAFE0225024603
:1038E0000B4600955F4806F097FE29465C4809F0B4
:1038F000B5FB30680AF0CCFE009502460B465948ED
:1039000006F08AFE2946584809F0A8FB2946544883
:1039100009F0A4FB27E74F4B1B68012B00F07581D2
:10392000022B7FF46BAFD4F8A07038460BF080F810
:1039300029460BF06FFA40B978420BF079F8294626
:103940000BF086FA002800F0CE81DFF8F4A0DFF853
:10395000F490DAF8003007930798D9F800303A4F1E
:10396000C01A0BF061F829460BF0B6F837490BF096
:1039700067F936490BF064F939680AF0A5FFDAF8FF
:1039800000300693069B3860C9F8003036E70AF02D
:103990007FFE0B46022102460091324806F03CFEB3
:1039A0003248042109F05AFBD8F80050F4E62148C7
:1039B00006F086FB0AF06CFE0B46022102460091DF
:1039C000284806F029FE0321294809F047FBD4F8CE
:1039D000A010244806F0F4FD0321254809F03EFB21
:1039E000D0E6DFF84480D4F8A070D8F8005038460C
:1039F0000BF01EF829460BF02BFA00283AD078423B
:103A00000BF016F8014628460BF022FA90B3104D41
:103A1000104F2B683E60D3F884000F2105F01CFD89
:103A200006E700BF3CB7FF1F30B6FF1F34B6FF1FCD
:103A3000C491FF1F70B6FF1F0000FA430000FAC3D5
:103A400038BAFF1F64B6FF1FE891FF1F00007A44D9
:103A5000E091FF1F7488FF1F30B8FF1F9175DD369E
:103A6000EC6B0100F889FF1FCC5D0100D05D010007
:103A7000345901009F4FA04D02233B602B680E215B
:103A8000D3F8840005F0E8FC3B689C4F012B3B68B1
:103A90007FF4D4AE002B40F0E5802B68DFF8609215
:103AA000D3F88400436B1E69B6B2C9F8006005F014
:103AB0001BFAB4F8A43040F6E44A0AFB06F6B6FB5B
:103AC000F0F6F01A00B20AF0B3FF8E490646D4F8B9
:103AD0009C000BF001F8014630460BF0B1F82B6862
:103AE000894E0246D3F88400D9F8003032600AFBD0
:103AF00003FA05F0F9F9B4F8A420BAFBF0F31BB20D
:103B00009B1A002BB4F8C620B8BF5B429A42C4BFD0
:103B1000002333603B68002B3FF425AE02217B4835
:103B200009F09CFA2B68D9F80050D3F8840040F6CD
:103B3000E44303FB05F505F0D7F9B4F8A410B5FB91
:103B4000F0F52DB2691A724806F03AFD02216F486D
:103B500009F084FA30680AF09BFD022502460B4604
:103B600000956B4806F058FD03216A4809F076FA83
:103B70002946664809F072FAF5E5674B1B680B9316
:103B8000664B0B9A1A6039E62B68D3F8840005F06F
:103B9000ABF9D9F8003064389842FFF47BAE7BE68D
:103BA0005B48DFF85C9106F013FD0C215C4809F0DE
:103BB00055FA5C480C2109F051FA2B683A68D3F8A1
:103BC0008400436B1E69B6B2C9F80060002A3FF456
:103BD00042AE05F089F940F6E442002306FB02F20A
:103BE000B2FBF0F10A224A4806F00AFD02214748DA
:103BF00009F034FAB4F8A610454806F0E1FC2B6849
:103C0000D9F80060D3F8840025E6474928460BF030
:103C10001FF928B9454928460BF0FCF800285BD06D
:103C2000DFF8F4A0DFF8F490DAF800300493049899
:103C3000D9F800303E4FC01A0AF0F6FE29460AF0C5
:103C40004BFF3C490AF0FCFF3A490AF0F9FF39689A
:103C50000AF03AFEDAF800300393039B3860C9F8A3
:103C60000030CBE52A48DFF8989006F0B1FCD4F894
:103C70008030012B0CBF304830480B2109F0EEF9A1
:103C800028480C2109F0EAF92A683B68D2F8840038
:103C9000426B1669B6B2C9F80060002B3FF407AF5B
:103CA00005F022F940F6E44306FB03F30A22B3FBD6
:103CB000F0F10023164806F0A3FC0121204809F08A
:103CC000CDF9B4F8A410124806F07AFC2B68D9F8A4
:103CD0000060D3F88400EAE60F4B1B6805930F4B96
:103CE000059A1A608AE50C4B1B6808930B4B089ADF
:103CF0001A6083E57488FF1FE091FF1F34B6FF1F31
:103D000030B8FF1F9175DD36C491FF1FEC6B0100C9
:103D1000F889FF1FB85D010038BAFF1F64B6FF1FA6
:103D2000BC5D0100A85D01000000FA430000FAC379
:103D3000E891FF1F00007A44905D01009C5D010046
:103D4000846A01002DE9F04FB24DB34C2B68012B72
:103D500087B000F0C580B14EB14FDFF8C892D9F8F6
:103D60000030002B00F0A6803868256ED4F85CB0D7
:103D7000DFF8B482AD490AF0AFFE05FB0BF58146D2
:103D80004FF47A7005FB00F00AF052FE01464846F7
:103D90000AF056FFA6490AF09FFE0BF079F8D4F816
:103DA00088303060012B054656D0D4F88030002B87
:103DB00052D0632D73DDE36D206E03FB00F04FF4F2
:103DC0007A7303FB00F00AF033FE98490AF038FFDB
:103DD00064233360D8F800303860002B67D0D4F803
:103DE0008030012B00F0A380032B00F0AE80022B6B
:103DF00000F0B48002218F4809F030F98E4B18682A
:103E00000AF046FC022402460B4600948B4806F05A
:103E100003FC21468A4809F021F92146854809F02A
:103E20001DF93168854806F0CBFB0621854809F06D
:103E300015F938687D490AF04FFE0AF029FC009414
:103E400002460B467D4806F0E7FB7F48032107B09A
:103E5000BDE8F04F09F002B97C48FEF7FFF97C4954
:103E60000AF03AFE0BF03AF8A56F626FE16E236F2D
:103E7000009580B2FEF766FF05463060206EE36D68
:103E800005FB00F003FB00F000EB800040000AF0AF
:103E9000CFFD66490AF0D4FE632D38608BDC002D1F
:103EA000BCBF00233360D8F80030002B97D107B097
:103EB000BDE8F08FDFF89CA1DAF800303BB9664A24
:103EC00012680492049941F2883291424BD8256ECF
:103ED000D4F85CB0DFF85081012B76D0386849E720
:103EE0005A48FEF7BBF95A49666F276F0AF0F4FD8E
:103EF0000AF0F4FF3246A66FE16E00963B4680B2B0
:103F0000FEF720FF454E236E306003FB00F0E36DAB
:103F1000434F03FB00F000EB800040000AF088FDF7
:103F200042490AF08DFE002338602B6015E74B4BA9
:103F30001B68012B0CBF4A484A480A2109F08EF839
:103F4000D4F88030032B7FF452AF4748102109F09A
:103F500085F8D4F88030022B7FF44CAF072143481A
:103F600009F07CF846E73948DFF8BC80FEF776F9BF
:103F700037490AF0B1FD0AF0B1FFA56F236F626FF8
:103F8000E16E009580B2FEF7DDFE256ED4F85CB0E0
:103F9000306005FB00F00BFB00F000EB8000400000
:103FA0000AF046FD21490AF04BFED8F8003038608F
:103FB0000122C9F80020002B6FD1D4F8AC30012BBE
:103FC0007FF4D8AE2A4A137088E73068039305FB64
:103FD00000F00BFB00F000EB800040000AF028FD31
:103FE00012490AF02DFE1C4A3860126805920599A4
:103FF00041F2883291427FF6BDAE039BC9F8003092
:10400000D8F80030B3BBD4F8AC30012B04BF184A49
:104010001370AFE6CC91FF1F3CB7FF1F2888FF1F2E
:10402000E891FF1FD091FF1F4888FF1FE4388E3EA4
:104030000000C842EC6B010030B6FF1FF889FF1F7B
:10404000CC5D0100685E0100705E0100F091FF1F11
:1040500000007A44C891FF1F38BAFF1F7488FF1F01
:10406000345E0100405E01004C5E0100605E0100B4
:104070009CB5FF1F0221184808F0F0FF174806F012
:10408000A7FA5921164808F0E9FF144806F0A0FAEB
:104090003868256ED4F85CB0B5E702210E4808F008
:1040A000DDFF0E4806F094FA59210D4808F0D6FFBE
:1040B0000A4806F08DFAD4F8AC30256ED4F85CB01E
:1040C000012B04BF074A1370D9F80030002B7FF48E
:1040D00005AFDAF80030FFE6EC6B0100F889FF1F4E
:1040E000D85D01009CB5FF1F30B5112083B007F0EB
:1040F00069F9012804D0122007F064F9012822D1BF
:104100000121152007F038F92B4B2C4A2C4C1B6849
:104110002C4D116801930222D4F88C302A60019A48
:104120000B44934208D8D4F894000AF081FC264B43
:1041300019680AF06FFED0B101210C2003B0BDE870
:10414000304007F019B900210B2007F015F90021C4
:104150000C2007F011F90021152007F00DF91B497B
:10416000184B0120002208701A6003B030BD0121F5
:104170000B2007F001F994F8CC300324012B2C60BC
:1041800014D0122007F01EF9012808BF0F4B4FF082
:10419000110008BF1C7007F015F9012806D0002196
:1041A0000C2003B0BDE8304007F0E6B8074B022210
:1041B0001A700021F4E700BF38BAFF1FBC91FF1F3F
:1041C0003CB7FF1F1CB6FF1F30B6FF1F9CB5FF1F7B
:1041D000F0B5754E754C33682568AB4287B02CD06E
:1041E00013F001014AD013F002015ED013F0040174
:1041F00050D0DA070FD52268D7070CD46C4D2A6847
:10420000002A00F0AE806B4B1B680193019B934228
:1042100000F29A8033689D0712D4590720D522688E
:1042200052070BD4644F3A68002A5ED0614B1B687A
:104230000593059B934276D83568A5B107B0F0BDCC
:10424000226890073DD45D4D2A68002A3CD0594B26
:104250001B680393039B9A4258D333685907DED4F3
:104260001D46002DEAD12946162006F009FF2946F1
:10427000172007B0BDE8F04006F002BF162006F098
:10428000FFFE2268336802F0FE0213F00201226092
:10429000ACD10AE0052006F0F3FE2268336802F094
:1042A000FB022260DA07B6D5A5E7172006F0E8FE84
:1042B0002268336802F0FD0213F00401226098D1F5
:1042C000E8E75B07ACD4B9E73D4B1B68002B55D141
:1042D000FF21172006F0D4FE364B3A491A680292A5
:1042E000029A09680A442A60B2E7354B1B68002B22
:1042F0004FD1FF21052006F0C3FE2E4B31491A682D
:104300000492049A09680A443A6090E72E4B1720F9
:10431000D3F8901006F0B4FE2368002243F00203A5
:1043200023602A6099E7284B0520D3F8901006F007
:10433000A7FE23683568002243F0040323603A6037
:10434000002D7FF47BAF8EE71F4B1620D3F8901023
:1043500006F096FE2368002243F0010323602A60E2
:1043600058E7FF21162006F08BFE124B15491A68FC
:104370000092009A09680A442A6045E7134806F04B
:1043800027F90C21124808F069FE104806F020F9C0
:104390009EE70E4806F01CF90C210E4808F05EFE60
:1043A0000A4806F015F9A4E71CB6FF1F20B6FF1F48
:1043B00024B6FF1F38BAFF1F2CB6FF1F28B6FF1FF9
:1043C0004888FF1F6488FF1F3CB7FF1FF889FF1F45
:1043D000745E0100845E01002DE9F84F534EDFF852
:1043E00050A13068DFF84C91534D00220F2104F0AA
:1043F00025FD0123CAF80030504800232221C9F8C6
:10440000003008F02BFED9F80030132B21DC4C4F84
:1044100040F6E4483368B5F8A4B0D3F88400436BA1
:104420001C6904F061FDA4B2012108FB04F4B4FB93
:10443000F0F43846A344A5F8A4B008F00FFE6420B9
:1044400007F02AF8D9F800300133132BC9F80030EF
:10445000E0DDB5F8A4303B493B48A1FB03215B1AE2
:1044600001EB5301C1F30F11A5F8A41006F0A8F851
:104470001D21364808F0F2FD0221354808F0EEFD16
:10448000314806F0A5F80023C9F8003033680E2142
:10449000D3F8840004F0E0FF02232848CAF8003073
:1044A000222108F0DBFDD9F80030132B22DCDFF8E5
:1044B000908040F6E4473368B5F8A6A0D3F88400AE
:1044C000436B1C6904F010FDA4B2012107FB04F446
:1044D000B4FBF0F44046A244A5F8A6A008F0BEFD47
:1044E000642006F0D9FFD9F800300133132BC9F846
:1044F0000030E0DDB5F8A63012491348A1FB0321D6
:104500005B1A01EB5301C1F30F11A5F8A61006F0D9
:1045100057F81D210F4808F0A1FD0D48022108F0B1
:104520009DFDBDE8F84F084806F052B8E091FF1F26
:104530007488FF1F40B8FF1F3CB7FF1F945E010047
:10454000B85E010087611886F889FF1FBC5E010014
:10455000EC6B0100DC5E01002DE9F843BE4BBF4C63
:10456000BF4D1B68A86D40F2513108222160E271F5
:10457000002B40F06D810AF05BFAA96906460AF04B
:10458000ABFAB8490AF0A8FA0AF0A8FCC2B2227243
:10459000B54AE969C0F30723637213886381B34B9B
:1045A00030461B88A3810AF097FAAE490AF094FAC4
:1045B0000AF094FCA9490346AD48E38105F09EFA50
:1045C000AC4AAB4813681288228103EB83030826A8
:1045D0005B00A94A237340F25531334112882160B0
:1045E00063739E4962810023E381E67105F086FAD8
:1045F000D5F8BC30A148E67140F25632072B226054
:1046000004D095F8CE30012B40F00E81FDF730FE3E
:1046100094490AF061FA0AF061FC03469748237254
:10462000FDF726FE8F490AF057FA0AF057FCC0F34F
:104630000723934A9349106863720AF001FB0AF05A
:1046400027FC03468D486381FDF734FE85490AF057
:1046500043FA0AF01DFC034688482373FDF72AFE3F
:1046600080490AF039FA0AF013FC40F307200027CA
:104670007A4960737E48E78105F040FA022006F02F
:104680000BFF814A814B12681B68A260082640F22A
:104690005A32724976482260E360E67105F02EFADC
:1046A00040F25E3323607A4B6C491A6870485B684D
:1046B000A260E360E67105F021FA022006F0ECFE4C
:1046C0004FF45C732360734B64491A6868485B68F5
:1046D000A260E360E67105F011FA022006F0DCFE4C
:1046E00040F2733365482360E671FDF7B7FD6A4910
:1046F0000AF0F2F90AF0F2FB20726048FDF7AEFD15
:1047000065490AF0E9F90AF0E9FBC0F30720607295
:104710005A48FDF7ABFD60490AF0DEF90AF0DEFB0E
:10472000A0725648FDF7A2FD5B490AF0D5F90AF0E0
:10473000D5FBC0F30720E0725048FDF71BFE574938
:104740000AF0C2F80AF0CAFB20734C48FDF712FECB
:1047500052490AF0B9F80AF0C1FBC0F307206073B0
:104760004648FDF705FE4D490AF0AEF80AF0B6FBE3
:10477000A0734248FDF7FCFD48490AF0A5F80AF08D
:10478000ADFBC0F307203549E073394805F0B6F9B1
:10479000022006F081FE40F279332A6E2360EB6D31
:1047A000E67113FB02F3C3F3072223723C4B6272E0
:1047B0001B68A3720B2006F005FE80460C2006F055
:1047C00001FE8146142006F0FDFD8500152006F04F
:1047D000F9FD45EA490545EA0805324B1F491B78B2
:1047E00023736DB245EAC0052148E5726773E7811E
:1047F00005F084F9022006F04FFE40F272331F48A4
:104800002360E671FDF72CFD03461C482372FDF77B
:1048100027FD40FA06F363726781E7600F49144889
:10482000BDE8F84305F06AB9FDF722FD15490AF025
:1048300053F90AF053FB034610482372FDF718FDA5
:1048400010490AF049F90AF049FBC0F30723F0E6E2
:104850000AF0EEF8696A91E620B8FF1F98B6FF1FCC
:104860003CB7FF1F00002041A8B5FF1F3CB6FF1F4B
:1048700044B8FF1F2888FF1F2C88FF1FF091FF1FDF
:1048800030B6FF1F0000C842E491FF1F3CB8FF1F75
:104890003888FF1F3088FF1F00007A443393884315
:1048A00020B6FF1F9CB5FF1FF0B5D84DD84F83B081
:1048B00008F066FB2B683860042B044600F0AC80DF
:1048C000092B17D1D34E96F8CD30012B02D90023F6
:1048D00086F8CD30312C00F03981712C40F03181D7
:1048E000002273232A603B602B68002B00F07F823C
:1048F00003B0F0BD022B40F0D184A0F13103422B74
:1049000000F21F8101A252F823F000BF775300008C
:10491000655100007F51000099510000DD510000F9
:10492000FB5100001552000031520000434B0000C3
:10493000434B0000434B0000434B0000434B00003F
:10494000434B0000434B0000434B0000434B00002F
:10495000434B0000434B0000434B0000434B00001F
:10496000434B0000434B0000434B0000434B00000F
:10497000434B0000434B0000434B0000434B0000FF
:10498000434B0000434B0000434B0000434B0000EF
:10499000434B0000434B0000434B0000434B0000DF
:1049A000434B0000434B0000434B0000434B0000CF
:1049B000434B0000434B0000434B0000434B0000BF
:1049C000434B0000434B0000434B0000434B0000AF
:1049D000434B000095520000434B0000434B000046
:1049E000434B0000434B0000434B0000434B00008F
:1049F000434B0000434B0000434B0000434B00007F
:104A0000434B0000434B0000434B0000E1480000D3
:104A1000434B00006B500000A0F13003412B00F22B
:104A2000908001A252F823F0C34E0000D54E000042
:104A3000EB4E0000A54F0000C14F000037500000B2
:104A400051500000C54F0000C94F0000CD4F00007D
:104A5000434B0000434B0000434B0000434B00001E
:104A6000434B0000434B0000434B0000434B00000E
:104A7000434B0000434B0000434B0000434B0000FE
:104A8000434B0000434B0000434B0000434B0000EE
:104A9000434B0000434B0000434B0000434B0000DE
:104AA000434B0000434B0000434B0000434B0000CE
:104AB000434B0000434B0000434B0000434B0000BE
:104AC000434B0000434B0000434B0000434B0000AE
:104AD000434B0000434B0000434B0000434B00009E
:104AE000434B0000434B0000434B0000434B00008E
:104AF000434B0000434B0000FF4F0000434B0000BE
:104B0000434B0000434B0000434B0000434B00006D
:104B1000434B0000434B0000434B0000434B00005D
:104B2000434B0000434B0000434B0000E1480000B2
:104B300008F062FA002801F3B6862B683C68012B66
:104B40000FD0732C3FF4D0AE03B0F0BD96F8CD304B
:104B5000B3FA83F3782401225B092A6086F8CD300A
:104B60003C60A4F15203262BEBD801A252F823F0AB
:104B7000AB530000434B0000434B0000434B00008D
:104B8000434B0000434B0000434B0000434B0000ED
:104B9000434B0000434B0000434B0000434B0000DD
:104BA000434B0000434B0000434B000029690000C9
:104BB00017690000D95100001D4C00002369000056
:104BC000434B0000434B0000434B00001D690000B5
:104BD000434B00002F690000434B0000434B000093
:104BE000434B0000434B0000434B00008D5300003B
:104BF000434B0000434B0000434B0000434B00007D
:104C0000434B0000434B0000714D000094B6FF1F62
:104C100058B6FF1F3CB7FF1F08F0B2F908F0ECF9D7
:104C20000028F9D1B24805F0D3FCB14805F0D0FC1A
:104C3000AF4805F0CDFCAE4805F0CAFCAC4805F025
:104C4000C7FC1321AB4808F009FAA94805F0C0FCDD
:104C50000F21A94808F002FAA54805F0B9FC102177
:104C6000A64808F0FBF9A64BA148196805F0A8FC76
:104C70009F4805F0ADFC1421A24808F0EFF9A24BC3
:104C80009B48196805F09CFC994805F0A1FC13218C
:104C90009E4808F0E3F99E4B9548196805F090FC92
:104CA000934805F095FC12219A4808F0D7F99A4BE1
:104CB0008F48196805F084FC8D4805F089FC0F21A8
:104CC000964808F0CBF9964B8948D3F8AC1005F01C
:104CD00077FC874805F07CFC1A21924808F0BEF961
:104CE000914B8348196805F06BFC814805F070FC16
:104CF00012218E4808F0B2F98D4B7D48196805F0F5
:104D00005FFC7B4805F064FC11218A4808F0A6F995
:104D1000894B7748196805F053FC754805F058FC35
:104D20001D21864808F09AF9854B7148196805F0ED
:104D300047FC6F4805F04CFC1421824808F08EF9BE
:104D4000814B1B68012B0BBF052105217F48804843
:104D500008F084F9664805F03BFC13217D4808F013
:104D60007DF9634805F034FC04233DE008F008F9C0
:104D700008F042F904460028F8D15D4805F028FC07
:104D80005B4805F025FC5A4805F022FC584805F020
:104D90001FFC574805F01CFC15216F4808F05EF910
:104DA000534805F015FC524805F012FC2C216B48C5
:104DB00008F054F94E4805F00BFC2521684808F02E
:104DC0004DF957494A4891F8CD1023460A2205F07B
:104DD00017FC474805F0FCFB13215E4808F03EF93C
:104DE000434805F0F5FB09232B6003B0F0BD5D4C93
:104DF0003F4805F0EDFB04215B4808F02FF93C48E3
:104E000005F0E6FB1021594808F028F9384805F06C
:104E1000DFFB1321564808F021F9564B3448196836
:104E200005F0CEFB324805F0D3FB1421524808F0C0
:104E300015F92F4805F0CCFB1E21504808F00EF95B
:104E40002B4805F0C5FB15214D4808F007F9284807
:104E500005F0BEFB1E214B4808F000F9244805F080
:104E6000B7FB2021484808F0F9F8214805F0B0FBCD
:104E70001921464808F0F2F81D4805F0A9FB122157
:104E8000434808F0EBF81A4805F0A2FB1921414805
:104E900008F0E4F8164805F09BFB0F213E4808F0A7
:104EA000DDF8134805F094FB0D213C4808F0D6F8D6
:104EB0000F4805F08DFB0022012322602B6003B018
:104EC000F0BD374A1378012164244B4029601370E8
:104ED0003C6046E60A4A1368B3FA83F3642401216E
:104EE0005B09296013603C603BE6074AF3E700BFBB
:104EF000F889FF1F586501006C6501007C650100A1
:104F0000A0B5FF1F9065010034B6FF1FA865010022
:104F100028B7FF1FBC6501005CB6FF1FD06501000C
:104F20003CB7FF1FE0650100A4B5FF1FFC65010051
:104F300040B6FF1F10660100A091FF1F246601000C
:104F40004C88FF1F4466010038B6FF1F5C660100F5
:104F500064660100785F010020650100205F0100A8
:104F6000505F01004888FF1F286401003064010081
:104F7000446401005488FF1F5864010070640100FC
:104F800090640100A8640100C8640100EC640100A1
:104F9000086501001C6501003865010048650100D5
:104FA0009C91FF1FA94B1A680121002A0CBF0A46D9
:104FB000002229601A6041F0FB8364243C60D0E544
:104FC000A34A88E7A34A86E7A34A84E701232B6024
:104FD00008F012F8002801F3C583A04B18680428D4
:104FE000C4BF02221A602B686424092B3C6018D0CD
:104FF000082B3FF47DAC072B3FF47AACFBE1012397
:105000002B6007F0F9FF002801F3B383944B186875
:105010000128C4BF00221A602B686422092B3A6061
:10502000E6D1904B93F8CD20012A7FF661AC0022A7
:1050300083F8CD205CE48B4ED6F8AC30B3FA83F322
:10504000642401225B092A60C6F8AC303C6088E524
:10505000012385482B60FBF77FFE2B68834A64247D
:10506000092B10603C60C3D1DBE77E4ED6F8803060
:1050700001221344042B2A60A8BF00236322C6F830
:1050800080303A6001E007F07BFF07F0B5FF0028B1
:10509000F9D1774805F09CFA754805F099FA7448FB
:1050A00005F096FA724805F093FA714805F090FA07
:1050B0001F21704807F0D2FF6D4805F089FA1E21C4
:1050C0006D4807F0CBFF6A4805F082FA6B481A2159
:1050D00007F0C4FFD6F88030022B01F09583032B34
:1050E00001F08983012B01F098836548092107F0BD
:1050F000B5FF5F4805F06CFA1521624807F0AEFF76
:10510000F16F5B4805F05CFA594805F061FA1D2122
:105110005D4807F0A3FFD6F88810554805F050FA0F
:10512000534805F055FA1D21584807F097FFD6F867
:10513000B8104F4805F044FA4D4805F049FAD6F842
:10514000803023F00202012A01F09482022B01F048
:10515000958313214E4807F081FF454805F038FA42
:10516000022341E63F4ED6F88830B3FA83F35B0959
:105170000122C6F8883063232A603B6085E701235B
:105180002B6007F039FF002801F3E482354E01223D
:1051900063232A603B6078E701232B6007F02CFF34
:1051A000002807DD32482F4E05F072FB09F040FC65
:1051B000C6F89C002B686322072B3A603FF498AB3B
:1051C000062B00F03A86052B3FF492AB032B01F03F
:1051D0007C81012B7FF48CAB224E56E701232B60A0
:1051E00007F00AFF0028E5DD21481E4E05F050FBC0
:1051F00009F01EFCC6F89800DCE701232B6007F0DD
:10520000FBFE0028D6DD1A48164E05F041FBA6F835
:10521000C600CFE7134ED6F8843001221344052B85
:10522000A8BF13462A606322C6F884303A602CE790
:1052300001232B6007F0E0FE0028A7DD0C48094E93
:1052400005F026FBC6F8A000A1E700BF28B7FF1FA6
:105250005CB6FF1F40B6FF1FA091FF1F4C88FF1FC9
:1052600038B6FF1F3CB7FF1FF091FF1FA4B5FF1F0B
:10527000F889FF1F6C6601008C660100AC660100B6
:10528000246701003067010048670100686701007A
:10529000785F0100FFF7A0F82B683C68082B40F00E
:1052A0009280322C00F08880712C3FF419AB312CA5
:1052B0007FF447AC07F0A0FE002800F3DA859E4E8D
:1052C00096F84810F26C022984BF002186F8481035
:1052D0009A48FCF7D1FF012269232A603B6001E074
:1052E00007F04EFE07F088FE04460028F8D19448E7
:1052F00005F06EF9924805F06BF9914805F068F9F0
:105300008F4805F065F98E4805F062F915218D4842
:1053100007F0A4FE8A4805F05BF918218A4807F0D7
:105320009DFE23460A2296F84810854805F068F944
:10533000834805F04DF92821844807F08FFEF06C72
:10534000834909F0C9FB09F0A3F900940B46024612
:105350007B4805F061F902217E4807F07FFE78481E
:1053600005F036F913217C4807F078FE744805F003
:105370002FF9082338E5704EF36FB3FA83F35B0916
:105380000122F36763232A603B607EE6E42200216A
:105390006948724C05F078FB3B6800210122732BB1
:1053A000296022607FF4A4AA22E54FF0E0236C4A32
:1053B000C3F80C2DFFF79CBA07F01EFE002800F37F
:1053C00061852B683C68072B15D1342C3FF785AAE3
:1053D000302C7FF7B6AB323C022C01F2FC82DFE8C6
:1053E00014F097000300350107F006FE002800F3D3
:1053F00058852B683C68062B40F03E81A4F13103B0
:10540000402B3FF69EAB01A252F823F03F5C000018
:10541000675C0000195C0000B75B00009B5B00004C
:105420007B5B0000415B0000035B0000E15A000071
:10543000434B0000434B0000434B0000434B000034
:10544000434B0000434B0000434B0000434B000024
:10545000434B0000434B0000434B0000434B000014
:10546000434B0000434B0000434B0000434B000004
:10547000434B0000434B0000434B0000434B0000F4
:10548000434B0000434B0000434B0000434B0000E4
:10549000434B0000434B0000434B0000434B0000D4
:1054A000434B0000434B0000434B0000434B0000C4
:1054B000434B0000434B0000434B0000434B0000B4
:1054C000434B0000434B0000434B00008D5900004C
:1054D0006B5600003B5E00001D5B0000434B00006C
:1054E000434B0000434B0000434B0000434B000084
:1054F000434B0000434B0000434B0000434B000074
:10550000434B0000434B0000434B0000E1480000C8
:1055100007F072FD00287FF76CAF0948064E05F0D2
:10552000B7F909F085FA0F4909F0D6FA01232B6083
:10553000612370643B6019E03CB7FF1FF091FF1FCF
:10554000F889FF1FF06401008C5F0100A85F010073
:1055500000007A44D45F0100785F01004888FF1F93
:105560000400FA056F12833A07F00AFD07F044FDC4
:1055700004460028F8D1854805F02AF8834805F04C
:1055800027F8824805F024F8804805F021F87F4884
:1055900005F01EF81F217E4807F060FD7B4805F0EE
:1055A00017F81C217B4807F059FDB06A7A4909F0C9
:1055B00093FA09F06DF8009402460B46734805F023
:1055C0002BF80221754807F049FD704805F000F8F6
:1055D0002321734807F042FD706C6F4909F07CFA93
:1055E00009F056F8009402460B46684805F014F896
:1055F00002216A4807F032FD644804F0E9FF1921EE
:10560000684807F02BFD306C09F042F802240B4685
:10561000024600945D4804F0FFFF2146624807F00F
:105620001DFD5A4804F0D4FF2221604807F016FD02
:10563000B18E564804F0C4FF03215D4807F00EFD0B
:10564000524804F0C5FF0723FFF7CEBB07F0D4FC98
:1056500000287FF7CEAE4D48564E05F019F90123CC
:105660002B606123B0863B6080E707F0C5FC002813
:1056700001F392802B683C68052B40F0B480372CF6
:1056800000F3EB83302C7FF733A9323C052C01F279
:105690009181DFE814F05E0139014901A1000600A3
:1056A0006E01444E96F8D8300122B3FA83F32A6093
:1056B0005B096B2286F8D8303A6001E007F060FCA5
:1056C00007F09AFC0028F9D1304804F081FF2F48F8
:1056D00004F07EFF2D4804F07BFF2C4804F078FF97
:1056E0002A4804F075FF2121334807F0B7FC27480A
:1056F00004F06EFF1521314807F0B0FCD6F88C108D
:10570000224804F05DFF02212D4807F0A7FC1F4846
:1057100004F05EFF1E212B4807F0A0FCD6F8941081
:105720001A4804F04DFF0321274807F097FC17485B
:1057300004F04EFF2121254807F090FCD6F8901088
:10574000124804F03DFF114804F042FF2021204898
:1057500007F084FCD6F8B0100C4804F031FF0B4879
:1057600004F036FF21211B4807F078FCD6F8B4106E
:10577000064804F025FF054804F02AFFD6F8AC30AF
:10578000012B01F05B800523FFF72EBBF889FF1F7B
:10579000306201005062010000007A44D45F0100D1
:1057A00070620100946201008C610100B06201002E
:1057B000D46201003CB7FF1FD8620100FC62010007
:1057C0000461010014630100B85D0100346301004D
:1057D000586301007C63010007F00EFC002800F311
:1057E0006D832B683C68032B7FF4A9A9A4F13003D7
:1057F000422B3FF6A6A901A252F823F061650000F2
:10580000AD6500008D6500005B660000416600002C
:1058100021660000CD6500004B6500002D6500008D
:105820000D650000434B0000434B0000434B00005C
:10583000434B0000434B0000434B0000434B000030
:10584000434B0000434B0000434B0000434B000020
:10585000434B0000434B0000434B0000434B000010
:10586000434B0000434B0000434B0000434B000000
:10587000434B0000434B0000434B0000434B0000F0
:10588000434B0000434B0000434B0000434B0000E0
:10589000434B0000434B0000434B0000434B0000D0
:1058A000434B0000434B0000434B0000434B0000C0
:1058B000434B0000434B0000434B0000434B0000B0
:1058C000F7640000E1640000CB640000B5640000F0
:1058D0009F6400003F6400001F6400007D640000BE
:1058E000434B000005640000314B0000434B0000B7
:1058F000434B0000434B0000434B0000434B000070
:10590000F7630000CF5E000007F076FB00287FF70A
:1059100068AFB248B24E04F0BBFF01232B606B238B
:10592000C6F890003B60CBE607F066FB00287FF7E7
:1059300058AFAA48AA4E04F0ABFFAA4BC6F8B00075
:1059400002221A60FDF78EFB01226B232A603B6066
:10595000B6E607F051FB00287FF743AF9F48A04E03
:1059600004F096FF01232B606B23C6F894003B6084
:10597000A6E69B4E96F8CC3001229B1A2A6018BFEF
:1059800001236B2286F8CC303A6099E607F034FBAD
:1059900000287FF76FAE9148914E04F079FF00EB3D
:1059A000800043000122A6F8663065232A603B6030
:1059B00001E007F0E5FA07F01FFB04460028F8D1E4
:1059C000864804F005FE854804F002FE834804F092
:1059D000FFFD824804F0FCFD804804F0F9FD112130
:1059E000814807F03BFB7D4804F0F2FD28217F4809
:1059F00007F034FBB0697E4909F06EF808F048FE04
:105A0000009402460B46754804F006FE02217948D0
:105A100007F024FB714804F0DBFD1621764807F0FF
:105A20001DFB306A724909F057F808F031FE009406
:105A30000B460246694804F0EFFD02216D4807F06D
:105A40000DFB664804F0C4FDD6F8BC30002B34DDF5
:105A50001D216A4807F002FBB6F8640008F0E8FF71
:105A6000674909F039F808F013FE022402460B4694
:105A70005A48009404F0D0FD0121624807F0EEFA84
:105A8000564804F0A5FD1F215F4807F0E7FAB6F875
:105A9000680008F0CDFF5A4909F01EF808F0F8FD3B
:105AA000009402460B464D4804F0B6FD55480121CE
:105AB00007F0D4FA494804F08BFD5448112107F04F
:105AC000CDFAD6F8BC30072B00F2E580DFE813F002
:105AD000A101A6019C01B001AB0197019201DF0079
