:1000000000800020BD010000999800005198000078
:10001000519800005198000051980000519800003C
:1000200051980000519800005198000099980000E4
:100030009998000051980000AD8E0000B18F00002B
:1000400099980000999800009998000099980000EC
:1000500099980000999800009998000099980000DC
:1000600099980000999800009998000099980000CC
:1000700099980000999800009998000099980000BC
:1000800099980000999800009998000099980000AC
:10009000999800009998000099980000999800009C
:1000A000999800009998000099980000999800008C
:1000B000999800009D8C0000A98C0000AD8C000078
:1000C000B98C0000BD8C0000C18C00009998000024
:1000D000999800009998000099980000999800005C
:1000E000999800009998000099980000999800004C
:1000F000999800002DBB0000999800008DA5000084
:1001000099980000A5A8000099980000999800000F
:10011000999800009998000099980000999800001B
:10012000999800009998000099980000999800000B
:1001300099980000999800009998000099980000FB
:1001400099980000999800009998000099980000EB
:1001500099980000999800009998000099980000DB
:100160009998000035AB000099980000999800001C
:1001700099980000999800009998000099980000BB
:1001800099980000999800009998000099980000AB
:10019000999800009998000099980000999800009B
:1001A000999800009998000099980000999800008B
:1001B000999800009998000099980000564B4CF2CD
:1001C000205210B51A804DF628121A8000BF00BFC9
:1001D00009F066FB514B4FF010621A60504A9A606A
:1001E000504ADA60504A136813F4807304D14F49BF
:1001F0000B604FF4A85313604D4B1A78110703D5C9
:100200001A7842F008021A704A4B4B492A221A7097
:100210004A4A4B4B8B4204D252F8040F43F8040B6A
:10022000F8E7484B484900228B4202D243F8042B9E
:10023000FAE74649464A002352F8230041F82300D2
:1002400001336F2BF8D1434B434A802103F8011B44
:100250009342FBD1414B3D4A1A60414B8A221A70AE
:10026000A3F5805324225A70A0221A709A7992071B
:10027000FCD59A79D406FCD43A4A937903F00C035E
:10028000082B384BF9D103221A7140225A719A79FE
:100290009006FCD5334A9179324B4906FBD5324A58
:1002A000324911600221516020221A709A7902F0BD
:1002B0000C020C2AFAD12E4B2E4A1A602E4B2F4AD2
:1002C0001A6000225A60072243F8042C2C4AC3F813
:1002D0000C2D62B609F0C4FD144B1B68DA0705D576
:1002E000284809F0A1FB284B284A1A60284B1B78A4
:1002F0005B0609D5244C254B22689A4204D121483B
:1003000009F092FB002323600DF010FF09F0CEFAF4
:1003100009F0FCF9FEE700BF0E20054030800440E4
:10032000823F04000100002B10D0034014D0034092
:1003300002D0074000E007403092FF1F043D01005B
:100340002087FF1F3092FF1F3CBCFF1F0082FF1F52
:100350000000000000E400E05FE400E008ED00E0E1
:100360000050064000400640448004400000030165
:1003700004800440C010050014E000E0FF76010096
:100380000000202008A9ED5C1CE00340A5C3945A9E
:1003900000F00740FFFFFFFFFFFFFFFFFFFFFFFF32
:1003A000FFFFFFFFFFFFFFFFFFFFFFFFFFFFFFFF5D
:1003B000FFFFFFFFFFFFFFFFFFFFFFFFFFFFFFFF4D
:1003C000FFFFFFFFFFFFFFFFFFFFFFFFFFFFFFFF3D
:1003D000FFFFFFFFFFFFFFFFFFFFFFFFFFFFFFFF2D
:1003E000FFFFFFFFFFFFFFFFFFFFFFFFFFFFFFFF1D
:1003F000FFFFFFFFFFFFFFFFFFFFFFFFFFFFFFFF0D
:10040000FFFFFFFFFFFFFFFFFFFFFFFFDEF9FFFF23
:1004100010B5054C237833B9044B13B10448AFF33E
:1004200000800123237010BD3092FF1F00000000E8
:10043000003D0100084B10B51BB108490848AFF357
:1004400000800848036803B910BD074B002BFBD0A0
:10045000BDE81040184700BF000000003492FF1FA5
:10046000003D01003092FF1F00000000F0B400F1D9
:1004700014060F4F00243146031F00F12C0243F8ED
:10048000044FB34241F8047F4FF0000542F8044F97
:10049000F5D1084B084985640022C56405654565AA
:1004A000456683650366C16580F88420F0BC7047AB
:1004B0000000A040000048430000C8C200230360C1
:1004C00043608360C3600361436183640365436584
:1004D000836570472DE9F04190F8844084B0002393
:1004E00064008DF80530E4B2012380468DF80440A5
:1004F0008DF80630032720460AF070F902210DF12D
:1005000005000AF075F98DF8044002F085FC30B35F
:100510000921C9480BF0A4F9002310222146C7483D
:1005200008F004FE0121C6480BF09AF900231022BE
:100530009DF80510C14808F0F9FD0121C0480BF0F5
:100540008FF9002310229DF80610BC4808F0EEFD3C
:100550000121BB480BF084F9B84808F0D7FD022010
:100560008DF8044009F02EFC02F056FC002840F003
:10057000778102AE00240AF051F9002800F02681AC
:10058000042C40F0158101E00AF058F90AF046F910
:100590000028F9D102F040FC10B1A84808F0B6FDDF
:1005A00098F884406400E4B2202204238DF80440CB
:1005B0008DF805208DF80630032720460AF00EF945
:1005C00002210DF105000AF013F98DF8044002F044
:1005D00023FC30B3092198480BF042F90023102284
:1005E0002146964808F0A2FD012195480BF038F904
:1005F000002310229DF80510904808F097FD012176
:100600008F480BF02DF9002310229DF806108B481F
:1006100008F08CFD01218A480BF022F9874808F088
:1006200075FD02208DF8044009F0CCFB02F0F4FBCC
:10063000002840F00B8102AE00240AF0EFF80028F9
:1006400000F0A980072C40F0988001E00AF0F6F84D
:100650000AF0E4F80028F9D102F0DEFB10B1774887
:1006600008F054FD98F884409DF80B209DF80C305C
:100670009DF80D00C8F870206400E4B29DF80E10DB
:10068000C8F87430332201238DF80440C8F878008C
:10069000C8F87C108DF805208DF806300327204619
:1006A0000AF09CF802210DF105000AF0A1F88DF87E
:1006B000044002F0B1FB30B309215F480BF0D0F8E1
:1006C0000023102221465D4808F030FD01215C48DE
:1006D0000BF0C6F8002310229DF80510574808F0CB
:1006E00025FD012156480BF0BBF8002310229DF890
:1006F0000610524808F01AFD012151480BF0B0F8DD
:100700004E4808F003FD02208DF8044009F05AFB22
:1007100002F082FB002840F09E8002AE00240AF026
:100720007DF8F8B1042C0FD101E00AF087F80AF047
:1007300075F80028F9D102F06FFB10B13F4808F0BE
:10074000E5FC04B0BDE8F0810AF078F8054606F84B
:10075000010B02F061FB00285AD101340AF05EF867
:100760000028DFD1042CE2D002F056FB00285ED135
:10077000013FE6D09DF8044091E70AF05FF8054696
:1007800006F8010B02F048FB60BB01340AF046F8A2
:1007900000287FF457AF072C3FF45AAF02F03CFB20
:1007A00000284FD1013F3FF45DAF9DF8044004E7BE
:1007B0000AF044F8054606F8010B02F02DFBE0B9FB
:1007C00001340AF02BF800287FF4DAAE042C3FF451
:1007D000DDAE02F021FB30BB013F3FF4E1AE9DF8FE
:1007E000044088E6E9B200231022144808F09EFC79
:1007F000012113480BF034F8C7E7E9B200231022B7
:100800000E4808F093FC01210D480BF029F8D7E7BA
:10081000E9B200231022094808F088FC01210848A9
:100820000BF01EF899E7054808F070FCD4E7034880
:1008300008F06CFC9CE700BFD8220100D087FF1FA6
:10084000082A0100094808F061FCABE707210848C5
:100850000BF006F8EFE6072105480BF001F85CE71E
:10086000072103480AF0FCFF83E600BFD087FF1F83
:10087000E422010090F87400704700BF90F8700007
:10088000704700BF90F87800704700BF90F87C0078
:10089000704700BF2DE9F04390F8848085B04FEA9F
:1008A00048085FFA88F8322200238DF804808DF81A
:1008B00005208DF8063003250DF1060748F00109E3
:1008C000484609F08BFF01AE0DF10500022109F049
:1008D0008FFF8DF804904A4633460020504008248C
:1008E00010F0800F4FEA400018BF80F00700013C75
:1008F000C0B2F5D1BB4202D013F8012FEEE709F0E8
:100900006DFF02F089FA00284AD102208DF8048098
:1009100009F058FA02F080FA002840F081800DF1C9
:100920000808002409F07AFF08B3042C12D101E072
:1009300009F084FF09F072FF0028F9D102F06CFA87
:1009400010B13A4808F0E2FB022009F03BFA05B08A
:10095000BDE8F08309F072FF08F8010B064602F0CB
:100960005BFA70B9013409F059FF0028DDD1042C7D
:10097000E0D002F051FA78B9013DE5D09DF804804D
:100980009CE7F1B200231022284808F0CFFB012198
:1009900027480AF065FFE5E7244808F0B7FBEBE7D6
:1009A000092124480AF05CFF2346102249461F48CB
:1009B00008F0BCFB01211E480AF052FF234610221A
:1009C0009DF80510194808F0B1FB012118480AF0FC
:1009D00047FF102223469DF80610144808F0A6FB96
:1009E000012113480AF03CFF21460DF1070216F8D9
:1009F000014B6140C9B2082311F0800F4FEA410159
:100A000018BF81F00701013BC9B2F5D1B242EED166
:100A10001022064808F08AFB044808F077FB74E7C8
:100A2000072105480AF01CFF79E700BFD087FF1FA8
:100A3000082A0100D8220100E42201002DE9F04F2C
:100A4000074691B097F8843002205B008DF808309B
:100A500009F0B8F997F8843038465B008DF8083013
:100A6000FFF738FDB86FFC6F7B6F3A6F97F8841013
:100A70008DE81100C94802F0D5FA30223D238DF8E7
:100A800009208DF80A3003260DF10A059DF808901B
:100A900049F00108404609F0A1FE0DF109000221CC
:100AA00009F0A6FE8DF80880424602AB00205040B7
:100AB000082410F0800F4FEA400018BF80F00700B4
:100AC000013CC0B2F5D19D4202D013F8012FEEE7F0
:100AD00009F084FE02F0A0F9002840F07D82022097
:100AE0008DF8089009F06EF902F096F9002840F0B0
:100AF000B9820DF10C0AD146002409F08FFE0028BE
:100B000043D0032C34D101E009F098FE09F086FEB1
:100B10000028F9D102F080F910B1A14808F0F6FAE6
:100B2000312303268DF809308DF80A609DF808906E
:100B300049F00108404609F051FE0DF1090002217B
:100B400009F056FE8DF80880424602AB0020504066
:100B5000082410F0800F4FEA400018BF80F0070013
:100B6000013CC0B2F5D19D4228D013F8012FEEE729
:100B700009F064FE09F8010B804602F04DF968B9EE
:100B8000013409F04BFE0028BBD1032CBED002F08B
:100B900043F978B9013E7FF479AFC1E75FFA88F194
:100BA000002310227E4808F0C1FA01217D480AF096
:100BB00057FEE5E77A4808F0A9FAEBE709F00EFEE0
:100BC00002F02AF9002840F0C68102208DF8089032
:100BD00009F0F8F802F020F9002840F03E820DF10B
:100BE0000C09002409F01AFE002844D0032C35D14A
:100BF00001E009F023FE09F011FE0028F9D102F00E
:100C00000BF910B1664808F081FA342201238DF8FF
:100C100009208DF80A3003269DF8089049F0010854
:100C2000404609F0DBFD0DF10900022109F0E0FD6D
:100C30008DF80880424602AB00205040082410F096
:100C4000800F4FEA400018BF80F00700013CC0B29F
:100C5000F5D19D4228D013F8012FEEE709F0EEFD03
:100C600009F8010B804602F0D7F868B9013409F0A1
:100C7000D5FD0028BAD1032CBDD002F0CDF878B94B
:100C8000013E7FF453AFC0E75FFA88F100231022E2
:100C9000434808F04BFA012142480AF0E1FDE5E73C
:100CA0003F4808F033FAEBE709F098FD02F0B4F89A
:100CB000002840F00F8102208DF8089009F082F89A
:100CC00002F0AAF8002840F0D7810DF10C090024A9
:100CD00009F0A4FD002800F08580032C73D101E009
:100CE00009F0ACFD09F09AFD0028F9D102F094F862
:100CF00010B12B4808F00AFA012212238DF80920BE
:100D00008DF80A304FF003089DF80840204609F09E
:100D100065FD02210DF1090009F06AFD8DF808401A
:100D200002F07AF830B309211F480AF099FD002338
:100D3000102221461A4808F0F9F9012119480AF051
:100D40008FFD002310229DF80910154808F0EEF9D8
:100D5000012114480AF084FD002310229DF80A1096
:100D60000F4808F0E3F901210E480AF079FD0C481C
:100D700008F0CCF906208DF8084009F023F802F0BD
:100D80004BF8002840F0738103AD002609F046FDC2
:100D9000002840D0162E30D10AE000BFEC2201001E
:100DA000D087FF1F082A0100D822010009F046FD64
:100DB00009F034FD0028F9D102F02EF8162600289B
:100DC0007DD1152035E009F039FD09F8010B804689
:100DD00002F022F800285BD1013409F01FFD002841
:100DE0007FF47BAF032C3FF47DAF02F015F80028B1
:100DF0006CD1013E7FF410AF7EE709F01FFD05F8CE
:100E0000010B044602F008F800284DD1013609F024
:100E100005FD0028BED1162ECAD001F0FDFF002826
:100E20004DD1B8F101087FF46FAF701E002840F378
:100E30002D82002303AA1C4612F8011B08254C40F2
:100E400014F0800F4FEA440418BF84F00704013DFA
:100E5000E4B2F5D101338342EEDB9DF8218089486D
:100E60004146224602F0DEF8162EC146A34602D1C4
:100E7000A04500F0138197F884108348CDF800B0A6
:100E80004B46324602F0FCF8002011B0BDE8F08F6E
:100E90005FFA88F1002310227C4808F047F901210D
:100EA0007B480AF0DDFC97E7E1B200231022774887
:100EB00008F03CF9012176480AF0D2FCA6E7734815
:100EC00008F024F9162EACD11520B2E76F4808F0CF
:100ED0001DF98EE709216F480AF0C2FC2346102253
:100EE00041466A4808F022F9012169480AF0B8FC35
:100EF000234610229DF80910644808F017F90121D3
:100F000063480AF0ADFC102223469DF80A105F48A2
:100F100008F00CF901215E480AF0A2FC21460DF10F
:100F20000B0002AA12F8014B6140C9B2082311F06C
:100F3000800F4FEA410118BF81F00701013BC9B2A0
:100F4000F5D19042EED11022504808F0EFF84F480A
:100F500008F0DCF8AFE609214E480AF081FC234690
:100F600010224146494808F0E1F8012148480AF0BA
:100F700077FC234610229DF80910444808F0D6F863
:100F8000012143480AF06CFC102223469DF80A1008
:100F90003E4808F0CBF801213D480AF061FC2146AB
:100FA0000DF10B0002AA12F8014B6140C9B20823EF
:100FB00011F0800F4FEA410118BF81F00701013B9A
:100FC000C9B2F5D19042EED11022304808F0AEF807
:100FD0002E4808F09BF8F8E509212E480AF040FC5D
:100FE000234610224146294808F0A0F8012128484C
:100FF0000AF036FC234610229DF80910234808F019
:1010000095F8012122480AF02BFC102223469DF876
:101010000A101E4808F08AF801211D480AF020FC39
:1010200021460DF10B0002AA12F8014B6140C9B232
:10103000082311F0800F4FEA410118BF81F007012A
:10104000013BC9B2F5D19042EED110220F4808F011
:101050006DF80E4808F05AF841E507210E480AF0ED
:10106000FFFBBCE507210C480AF0FAFB41E507212C
:1010700009480AF0F5FB87E6072107480AF0F0FB6C
:1010800023E600BF202301006C230100D087FF1F4F
:10109000082A0100D8220100E42201009DF80C304A
:1010A00097F88420B3EB420F7FF4EEAE9DF80D303D
:1010B000012B7FF4E9AE9DF80E30122B7FF4E4AEE5
:1010C0009DF810309DF80F0003EB00200CF0B2FDEE
:1010D0007A490CF003FE796EF86404460CF0BAFF0E
:1010E00000B17C66396E20460CF096FF00B13C667C
:1010F0003D1FAB4607F1180807F130064FF006090F
:101100009AF806309AF8050003EB00200CF092FDE7
:101110006B490CF0E3FD4BF8040FD8F800100446BF
:101120000CF07AFF0AF1020A30B1B96E20460CF0D9
:1011300087FF08B1C8F80040316820460CF08AFFEC
:1011400008F1040800B13460B9F1010906F10406A0
:10115000D6D10020B86407F1140455F8041F0CF030
:10116000B5FCAC42F9D19DF81D209DF81E30B86445
:1011700003EB022002300CF05DFD52490CF062FEE0
:10118000014651480CF05EFE50490CF09DFC504960
:101190000CF0A4FD05460AF00FFE044628460AF0AE
:1011A0000BFE4C490AF07AFE4B49054620460CF0EE
:1011B00095FD4A490CF08AFC4949044628460CF042
:1011C0008DFD014620460CF081FC01464FF07E501B
:1011D0000CF038FE43490CF077FC9DF81F209DF879
:1011E0002030386503EB022009300CF023FD3E4926
:1011F0000CF028FE014634480CF024FE33490CF074
:1012000063FC33490CF06AFD05460AF0D5FD04463F
:1012100028460AF0D1FD2F490AF040FE2E49054626
:1012200020460CF05BFD2D490CF050FC2C49044687
:1012300028460CF053FD014620460CF047FC0146C1
:101240004FF07E500CF0FEFD26490CF03DFC3D6D4C
:101250007865294604460CF0FDFEB96D30BB20468A
:101260000CF0DAFE08B12346BB65294620460CF097
:10127000F1FEA0B92946F86D0CF0CEFE08B12C465F
:10128000FC651A4801F0CEFE0120FEE59DF8219094
:10129000174849464246C34601F0C4FEEBE5F96DE6
:1012A00020460CF0D7FE0028EAD1EAE728460CF0E9
:1012B000B3FE0028F3D02B46D6E700BF6B57053BA3
:1012C0002003C839001601470AD7E33FE17A64409A
:1012D00000007A4400004040A40D8F395A80473AFC
:1012E00046A6DB3333938843002C01474423010097
:1012F00020230100052994BF50F8210000207047E9
:101300002DE9F0410B4E8046041F00F1140754F8FC
:10131000045F314628460CF07FFE30B1D8F86810E3
:1013200028460CF097FE00B12E46BC42EFD1304665
:10133000BDE8F08100002041F8B50026041F00F14F
:10134000140754F8045F314628460CF083FE00B1C0
:101350002E46BC42F5D13046F8BD00BF2DE9F0471E
:10136000876E82464FF00009041F00F114064FF00B
:10137000000854F8045F394628460CF06BFE0D490E
:1013800050B128460CF048FE30B1484629460CF0D2
:101390009DFB08F101088146B442EAD1CAF8888071
:1013A00040460CF047FC014648460CF04BFDBDE8BA
:1013B000F08700BF00007042D0F88800704700BF7F
:1013C00038B5456D046D294620460CF025FE00B960
:1013D0002C46204638BD00BF38B5446D056D21460A
:1013E00028460CF019FE00B92C46204638BD00BF37
:1013F00008B5D0F880301BB1133350F8230008BD76
:10140000416D006D0CF062FB4FF07C510CF066FCFE
:1014100008BD00BF806C704701299ABF143150F895
:1014200021000020704700BF3E2998BF80F884103B
:10143000704700BF90F86C00704700BFC0F8801084
:10144000704700BF80F86C10704700BF816670471E
:1014500070B500F50A5506461C3500F128042046F3
:101460008C34FFF703F8AC42F9D106F1B40501243E
:1014700028460021FFF7E6FF214628460134FFF702
:10148000D3FF3F2C05F18C05F2D142F2A4240025B4
:101490000548064A064B3555002130617161B2613D
:1014A000F361304670BD00BF00007A44000048433D
:1014B0000000C8C238B500F50A551C3500F1B40467
:1014C00002E08C34AC420AD02046FFF7B3FF00287C
:1014D000F7D020468C34FEF7F1FFAC42F4D138BD92
:1014E0002DE9F04142F2A82300F50A5637460022C2
:1014F0008046C2501C36283700F1B40402E08C3418
:10150000B4420DD02046FFF795FF0028F7D02046C3
:101510003D68FFF751FF8C342844B4423860F1D164
:1015200042F2A82358F80300BDE8F0812DE9F04FFE
:1015300091B0012A00928146059100F0F68109F1EF
:10154000B40A4FF0010B5046FFF774FFC0B10025FD
:101550002C46012629465046D9F80870FFF7CAFEE6
:10156000014638460CF058FD18B106FA05F31C4345
:10157000E4B20135062DEDD1009B012B0AD0F4B960
:101580000BF1010BBBF13F0F0AF18C0ADBD111B05B
:10159000BDE8F08F5946B94807F008FE0321B84866
:1015A0000AF05EF9214600230222B44807F0BEFD8E
:1015B0000321B4480AF054F9002C00F0F7804FEAF8
:1015C0004B03DBB21946019343F001039DF814204D
:1015D00002931D46184633238DF81E208DF81D30CA
:1015E0008DF81C1009F0FAF80DF11D00022109F028
:1015F000FFF807AA04928DF81C502A4607AB0DF19C
:101600001E0600205040082510F0800F4FEA4000D1
:1016100018BF80F00700013DC0B2F5D19E4202D054
:1016200013F8012FEEE709F0D9F801F0F5FB0028D7
:1016300040F0E2809DF804308DF81C30022008F064
:10164000C1FB01F0E9FB002840F06A8108AB03937D
:101650001F46002509F0E2F8002844D01E2D35D1A0
:1016600001E009F0EBF809F0D9F80028F9D101F010
:10167000D3FB00283DD1009B012B40D08DF81E40AC
:10168000029C9DF804208DF81C20322320468DF802
:101690001D3009F0A3F80DF11D00022109F0A8F892
:1016A0008DF81C4007AB224600205040082410F063
:1016B000800F4FEA400018BF80F00700013CC0B225
:1016C000F5D19E423BD013F8012FEEE709F0B6F8B2
:1016D00007F8010B804601F09FFB20BB013509F0A4
:1016E0009DF80028BAD11E2DBDD001F095FB002831
:1016F000C1D0624807F00AFD009B012BBED1039DBB
:1017000009AF15F8011B5D480023102207F00EFDFC
:1017100001215D480AF0A4F8BD42F2D103215948E5
:101720000AF09EF8AAE75FFA88F1002310225348D6
:1017300007F0FCFC012155480AF092F8CEE709F0C9
:101740004DF801F069FB002840F0A4809DF80430BA
:101750008DF81C30022008F035FB01F05DFB0028FD
:1017600040F0D980039D002409F058F878B31E2C6E
:1017700020D101E009F062F809F050F80028F9D111
:1017800001F04AFB48BB009B012B7FF4F9AE039D9F
:1017900009AC15F8011B39480023102207F0C6FCDC
:1017A000012139480AF05CF8A542F2D1334807F02C
:1017B000ADFCE5E609F042F805F8010B064601F03C
:1017C0002BFB70B9013409F029F80028CFD11E2C69
:1017D000D2D001F021FB0028D5D0284807F096FC94
:1017E000D1E7F1B200231022244807F09FFC012129
:1017F00026480AF035F8E5E7092125480AF030F8CF
:101800002B46102202991D4807F090FC01211F4829
:101810000AF026F82B4610229DF81D10174807F0F5
:1018200085FC012119480AF01BF810222B469DF86F
:101830001E10124807F07AFC012114480AF010F833
:1018400029460DF11F0007AA12F8013B5940C9B201
:10185000082311F0800F4FEA410118BF81F0070102
:10186000013BC9B2F5D19042EED11022034807F0F6
:101870005DFC024807F04AFCDCE600BFD087FF1F92
:10188000BC230100C0230100C4230100082A010079
:10189000D82201000921274809F0E2FF234610223F
:1018A0000299254807F042FC0121244809F0D8FF9D
:1018B000234610229DF81D101F4807F037FC012118
:1018C0001E4809F0CDFF102223469DF81E101A482D
:1018D00007F02CFC0121194809F0C2FF04982146A9
:1018E0000DF11F0210F8013B5940C9B2082311F055
:1018F000800F4FEA410118BF81F00701013BC9B2D7
:10190000F5D18242EED110220B4807F00FFC0A48B5
:1019100007F0FCFB1AE70721094809F0A1FF21E7BE
:101920000721074809F09CFF90E6034807F0EEFB0B
:1019300005E600BFD8220100D087FF1F082A01005A
:10194000E42201002DE9F04F824685B04FF00009F6
:1019500001238DF800908DF801908DF802304FF042
:1019600003080024204608F039FF02210DF1010090
:1019700008F03EFF8DF8004001F04EFA30B3092127
:10198000B54809F06DFF002310222146B34807F047
:10199000CDFB0121B24809F063FF002310229DF81E
:1019A0000110AE4807F0C2FB0121AD4809F058FF15
:1019B000002310229DF80210A84807F0B7FB012170
:1019C000A74809F04DFFA54807F0A0FB02208DF8BD
:1019D000004008F0F7F901F01FFA002840F0898074
:1019E00001AF3E46002408F019FF002867D0042C00
:1019F00058D101E008F022FF08F010FF0028F9D1CB
:101A000001F00AFA10B1954807F080FB9DF8043008
:101A1000802B40F01E819DF80530002B40F019818D
:101A20009DF80640012C40F014818E4801F0FAFA2E
:101A30000AF1B406254604E001353F2D06F18C0677
:101A400086D03046FFF7F6FC83460028F4D13B22CF
:101A500065F07F0301208DF801208DF802308DF8AC
:101A600000B008F0BBFE0DF10100022108F0C0FE3D
:101A700001228DF80020E84658466B460DF102021F
:101A80006040C0B2082410F0800F4FEA400018BF39
:101A900080F00700013CC0B2F5D193422ED013F87C
:101AA000014FEDE708F0CAFE06F8010B054601F00C
:101AB000B3F998B9013408F0B1FE002897D1042C8D
:101AC0009AD001F0A9F910B1644807F01FFBB8F1F2
:101AD000010800F0BE809DF8004043E7E9B2002312
:101AE00010225E4807F022FB01215D4809F0B8FE94
:101AF000E0E707215C4809F0B3FE71E708F06EFEED
:101B000001F08AF900285AD103208DF8009008F0DE
:101B100059F901F081F9002840F09680002408F07E
:101B20007DFEB0B30A2C27D101E008F087FE08F053
:101B300075FE0028F9D101F06FF900287FD19DF8DA
:101B40000430812B7FF404AF9DF805303B2B7FF4EC
:101B5000FFAE9DF806308035AB427FF4F9AE3046DB
:101B60000121FFF76FFC0AF50A5340481A6A013257
:101B70001A6201F057FAEBE608F060FE07F8010B75
:101B8000804601F049F970B9013408F047FE002899
:101B9000C8D10A2CCBD001F03FF9002850D1022C3B
:101BA0007FF7D6AECBE75FFA88F1002310222B48EF
:101BB00007F0BCFA01212A4809F052FEE4E70921A6
:101BC000254809F04DFE234610220121234807F045
:101BD000ADFA0121224809F043FE234610229DF868
:101BE00001101E4807F0A2FA01211D4809F038FE35
:101BF000102223469DF80210184807F097FA012199
:101C0000174809F02DFE21460DF1030218F8014B8B
:101C10006140C9B2082311F0800F4FEA410118BF9B
:101C200081F00701013BC9B2F5D14245EED1102246
:101C30000A4807F07BFA094807F068FA64E70A24C3
:101C4000064807F063FAAAE70721074809F008FEEB
:101C500064E705B0BDE8F08FD8220100D087FF1FF0
:101C6000082A0100C8230100E4220100D423010056
:101C70002DE9F04742F2A02284B0002301278350CF
:101C800082468DF804308DF8053000F1B4088DF8E7
:101C900006704FEA47095FFA89F400214046FFF7D2
:101CA000D1FB20468DF8044008F098FD02210DF18B
:101CB000050008F09DFD8DF8044001F0ADF830B34B
:101CC0000921494809F0CCFD00231022214647484C
:101CD00007F02CFA0121464809F0C2FD002310222A
:101CE0009DF80510414807F021FA0121404809F00C
:101CF000B7FD002310229DF806103C4807F016FAA5
:101D000001213B4809F0ACFD384807F0FFF91420E9
:101D10008DF8044008F056F801F07EF800285DD1F7
:101D200002AE002408F07AFD40B3082C19D101E07E
:101D300008F084FD08F072FD0028F9D101F06CF87C
:101D4000002846D19DF808304B4522D001370520A8
:101D500008F038F83F2F08F18C089AD104B0BDE89C
:101D6000F08708F06BFD054606F8010B01F054F80A
:101D700020BB013408F052FD0028D6D1082CD9D060
:101D800001F04AF830BB042CE0DD9DF808304B45EB
:101D9000DCD19DF80930002BD8D19DF80A1001291B
:101DA000D4D19DF80C30002BD0D04046FFF74AFB31
:101DB0000AF50A531A6A01321A62C7E7E9B2002328
:101DC00010220A4807F0B2F90121094809F048FD3C
:101DD000CFE70824054807F099F9D4E7072105481B
:101DE00009F03EFD9CE700BFD8220100D087FF1F0D
:101DF000082A0100E42201002DE9F04700F50A5607
:101E0000354684B080461C36203500F1B4040027E6
:101E1000204600218C34FFF715FBB4422F60F7D128
:101E200002270DF106064FF07F093C22A5237E21F3
:101E30007F208DF805208DF806308DF8041001AD57
:101E400008F0CCFC0DF10500022108F0D1FC8DF862
:101E500004902B467F2200205040082410F0800F71
:101E60004FEA400018BF80F00700013CC0B2F5D136
:101E7000B34202D013F8012FEEE708F0AFFC00F0F8
:101E8000CBFF00285AD17E2364208DF8043007F060
:101E900099FF00F0C1FF002840F090800DF1080A82
:101EA000002408F0BBFC20B3082C15D101E008F099
:101EB000C5FC08F0B3FC0028F9D100F0ADFFF0B983
:101EC0009DF808307F2B21D0013FAED14046FFF76F
:101ED00039FD04B0BDE8F08708F0B0FC05460AF80B
:101EE000010B00F099FFF0B9013408F097FC0028CD
:101EF000DAD1082CDDD000F08FFF0028E0D0324886
:101F000007F004F99DF808307F2BDDD19DF80930EA
:101F10003C2BD9D19DF80A30A52BD5D19DF80B309B
:101F2000572BD1D1D2E7E9B200231022264807F07F
:101F3000FDF80121254809F093FCD5E70921244843
:101F400009F08EFC234610227F211F4807F0EEF88F
:101F500001211E4809F084FC234610229DF805103B
:101F6000194807F0E3F80121184809F079FC10221C
:101F700023469DF80610144807F0D8F801211348AD
:101F800009F06EFC21460DF1070215F8014B614086
:101F9000C9B2082311F0800F4FEA410118BF81F048
:101FA0000701013BC9B2F5D1AA42EED11022064881
:101FB00007F0BCF8044807F0A9F864E707210548D2
:101FC00009F04EFC6AE700BFD087FF1F082A010016
:101FD000D8220100E42201002DE9F04385B04FF042
:101FE0007F082022FF2381468DF804808DF805208C
:101FF0008DF8063003260DF1060548F00107384636
:1020000008F0ECFB0DF10500022108F0F1FB8DF862
:1020100004703A4601AB00205040082410F0800FB5
:102020004FEA400018BF80F00700013CC0B2F5D174
:10203000AB4202D013F8012FEEE708F0CFFB00F01F
:10204000EBFE002840F0768202208DF8048007F035
:10205000B9FE00F0E1FE002840F0B2820DF1080860
:10206000002408F0DBFB002843D0042C34D101E02D
:1020700008F0E4FB08F0D2FB0028F9D100F0CCFE18
:1020800010B1C14807F042F84FF07F0800238DF8E7
:1020900004808DF80630032648F00107384608F022
:1020A0009DFB0DF10500022108F0A2FB8DF80470E4
:1020B0003A4601AB00205040082410F0800F4FEA50
:1020C000400018BF80F00700013CC0B2F5D1AB4220
:1020D00028D013F8012FEEE708F0B0FB08F8010B49
:1020E000074600F099FE70B9013408F097FB00280C
:1020F000BBD1042CBED000F08FFE78B9013EC3D016
:102100009DF8048079E7F9B2002310229E4807F079
:102110000DF801219D4809F0A3FBE5E79A4806F078
:10212000F5FFEBE708F05AFB00F076FE002840F0E0
:10213000C08102208DF8048007F044FE00F06CFEA0
:10214000002840F038820DF10808002408F066FBF2
:10215000002846D0042C37D101E008F06FFB08F0CE
:102160005DFB0028F9D100F057FE10B1864806F05B
:10217000CDFF4FF07F082122FF238DF804808DF8DA
:1021800005208DF80630032648F00107384608F090
:1021900025FB0DF10500022108F02AFB8DF80470E3
:1021A0003A4601AB00205040082410F0800F4FEA5F
:1021B000400018BF80F00700013CC0B2F5D19D423D
:1021C00028D013F8012FEEE708F038FB08F8010BD0
:1021D000074600F021FE70B9013408F01FFB00280B
:1021E000B8D1042CBBD000F017FE78B9013EC0D0A6
:1021F0009DF8048050E7F9B200231022624806F0EF
:1022000095FF0121614809F02BFBE5E75E4806F0E8
:102210007DFFEBE708F0E2FA00F0FEFD002840F059
:10222000078102208DF8048007F0CCFD00F0F4FD5A
:10223000002840F0CF810DF10808002408F0EEFAE4
:10224000002843D0042C34D101E008F0F7FA08F05C
:10225000E5FA0028F9D100F0DFFD10B14A4806F098
:1022600055FF4FF07F0800238DF804808DF806306D
:10227000032648F00107384608F0B0FA0DF10500D2
:10228000022108F0B5FA8DF804703A4601AB00203F
:102290005040082410F0800F4FEA400018BF80F033
:1022A0000700013CC0B2F5D19D4228D013F8012FA0
:1022B000EEE708F0C3FA08F8010B074600F0ACFDA2
:1022C00070B9013408F0AAFA0028BBD1042CBED0A2
:1022D00000F0A2FD78B9013EC3D09DF8048053E719
:1022E000F9B200231022284806F020FF01212748D8
:1022F00009F0B6FAE5E7244806F008FFEBE708F036
:102300006DFA00F089FD002851D102208DF804807B
:1023100007F058FD00F080FD002840F056810DF1D7
:102320000808002408F07AFA18B3042C14D101E04C
:1023300008F084FA08F072FA0028F9D100F06CFD78
:1023400010B1114806F0E2FE42F2A423002209F87F
:10235000032005B0BDE8F08308F070FA08F8010B1F
:10236000074600F059FD98B9013408F057FA0028E3
:10237000DBD1042CDED000F04FFDA0B9013EE3D04C
:102380009DF8048075E700BFD087FF1F082A010071
:10239000F9B200231022924806F0C8FE01219148AC
:1023A00009F05EFAE0E78E4806F0B0FEE6E70921A4
:1023B0008D4809F055FA234610223946884806F020
:1023C000B5FE0121874809F04BFA234610229DF8FB
:1023D0000510834806F0AAFE0121824809F040FA60
:1023E000102223469DF806107D4806F09FFE01212D
:1023F0007C4809F035FA21460DF1070001AA12F8D0
:10240000014B6140C9B2082311F0800F4FEA41012E
:1024100018BF81F00701013BC9B2F5D19042EED15E
:1024200010226F4806F082FE6D4806F06FFE6CE7E2
:1024300009216D4809F014FA2346102239466848EC
:1024400006F074FE0121674809F00AFA23461022BB
:102450009DF80510624806F069FE0121614809F007
:10246000FFF9102223469DF806105D4806F05EFE37
:1024700001215C4809F0F4F921460DF1070001AA99
:1024800012F8014B6140C9B2082311F0800F4FEAE6
:10249000410118BF81F00701013BC9B2F5D190425B
:1024A000EED110224E4806F041FE4D4806F02EFEB9
:1024B000B7E609214C4809F0D3F9234610223946E2
:1024C000474806F033FE0121464809F0C9F9234682
:1024D00010229DF80510424806F028FE01214148CF
:1024E00009F0BEF9102223469DF806103C4806F07C
:1024F0001DFE01213B4809F0B3F921460DF107000B
:1025000001AA12F8014B6140C9B2082311F0800FF3
:102510004FEA410118BF81F00701013BC9B2F5D173
:102520009042EED110222E4806F000FE2C4806F014
:10253000EDFDFEE509212C4809F092F92346102211
:102540003946274806F0F2FD0121264809F088F9AE
:10255000234610229DF80510214806F0E7FD0121D1
:10256000204809F07DF9102223469DF806101C48EA
:1025700006F0DCFD01211B4809F072F921460DF13E
:10258000070001AA12F8014B6140C9B2082311F0FB
:10259000800F4FEA410118BF81F00701013BC9B22A
:1025A000F5D19042EED110220D4806F0BFFD0C4847
:1025B00006F0ACFD48E507210C4809F051F9C2E5E9
:1025C00007210A4809F04CF948E50721074809F0B6
:1025D00047F9A4E60721054809F042F92BE600BFB8
:1025E000D087FF1F082A0100D8220100E422010041
:1025F00038B500F50A551C3500F1B40402E08C34FE
:10260000AC420AD02046FEF715FF0028F7D020463E
:102610008C34FEF73FF9AC42F4D138BD2DE9F04FD0
:102620000546002345F8B43B00F50A5783B08246BF
:102630002C461C3702E08C34BC420AD02046FEF700
:10264000F9FE0028F7D020468C34FEF723F9BC426F
:10265000F4D1C82007F0B6FB2C46012604E0013671
:102660003F2E04F18C046ED02046FEF7E3FE0028D6
:10267000F5D0764800F0D6FC3146754800F0D2FC23
:102680002046FEF7DBF92046FEF7C4FE0AF07CFE8A
:1026900002460B466F4800F0C5FC2046FEF730FEB0
:1026A00080462046FEF748FE834640460AF06CFE10
:1026B0008046584689460AF067FE42464B46CDE9B9
:1026C0000001654800F0AEFC00212046FEF7A4FEA4
:1026D000012180462046FEF79FFE834640460AF0D1
:1026E00053FE8046584689460AF04EFE42464B4607
:1026F000CDE90001594800F095FC2046FEF78AFE1E
:102700000146DAF800000BF0E1F9CAF800002046B3
:10271000FEF756FEDAF818100BF07EFC00287BD18D
:102720002046FEF759FEDAF81C100BF093FC002847
:1027300095D02046FEF750FE01363F2ECAF81C0009
:1027400004F18C0490D1DAF804000BF073FA01461E
:10275000DAF800000BF076FBDAF81410CAF8000083
:1027600004460BF077FC08B1CAF81440DAF81010F0
:1027700020460BF051FC08B1CAF810400B2007F0BE
:10278000EBFA42F2A4231AF8033000284AD1002BB6
:1027900058D042F2A42301220AF803200023CAF8E9
:1027A0000C302C4602E08C34BC4215D02046FEF79B
:1027B00041FE0028F7D02046FEF7BEFDDAF80C10E7
:1027C0000BF048FC0028EED02046FEF7B5FD8C3417
:1027D000BC42CAF80C00E9D1214BCAF8083002E02B
:1027E0008C35BD4215D02846FEF724FE0028F7D0D0
:1027F0002846FEF785FDDAF808100BF00DFC0028DE
:10280000EED02846FEF77CFD8C35BD42CAF80800A4
:10281000E9D103B0BDE8F08F2046FEF7D1FDCAF83C
:1028200018007DE72BB942F2A42300220AF8032006
:10283000B4E70C4800F00EFC42F2A42300220AF890
:102840000320ABE7084800F01BFCA2E7C825010005
:10285000E82301002424010038240100642401003D
:102860000000A040B8240100802401008068704767
:10287000C06870470068704741607047F8B500F560
:102880000A550F4616461C3500F1B40402E08C349C
:10289000AC420FD02046FEF7CDFD0028F7D02046F1
:1028A0003946FEF7CBFD204631468C34FEF7CEFD8F
:1028B000AC42EFD1F8BD00BF2DE9F041274A284BCB
:1028C000026200F50A5507464FF0000843621C35C6
:1028D00000F1B404002602E08C34A54210D020465A
:1028E000FEF7A8FD0028F7D02046FEF781FD1D4920
:1028F0000BF0B0FB80B98C34A54206F10106EED195
:1029000042F2A023F858801B0BF094F90146404690
:102910000BF098FABDE8F0812046FEF769FD01460C
:1029200040460BF0D3F880462046FEF761FD396A39
:102930000BF090FB60B92046FEF75AFD796A0BF068
:102940006BFB0028C8D02046FEF752FD7862C3E733
:102950002046FEF74DFD3862EDE700BF0000C8C21B
:1029600000C0794400008CC2006A7047406A70471A
:10297000F8B500F50A55074600261C3500F1B404E9
:1029800002E08C34AC420FD02046FEF753FD002805
:10299000F7D02046FEF7E2FC014630460BF096F8F1
:1029A0008C34AC420646EFD142F2A023F8580BF02B
:1029B00041F9014630460BF045FAF8BD2DE9F04FDC
:1029C00006468FB076488B4600F0D4FA744800F083
:1029D000D1FA734800F0CEFA42F2A0233046F25802
:1029E0000D92FEF77DFD73680C93074630680AF080
:1029F000CBFC804630468946FFF7BAFF8246304618
:102A0000B468F568FFF758FF0AF0BEFCCDE90A018B
:102A1000214628460BF058F862490BF05FF90AF09E
:102A2000B3FCCDE9080128460AF0AEFCCDE9060169
:102A300020460AF0A9FCCDE9040150460AF0A4FCA6
:102A40000D9A0C9BCDE90201CDE90089114656484B
:102A50003A4600F08FFA524800F08CFAB43601275B
:102A60004FF0000A05E001373F2F06F18C0600F019
:102A70008E803046FEF7DEFC0028F4D03046FDF7AD
:102A8000F9FE3046FDF7FAFE3046FDF7FBFE304614
:102A9000FDF7FCFE0821454808F0E2FE39464448AF
:102AA00006F084FB092F75DD0221424808F0D8FEAC
:102AB0003046FEF7AFFC0AF067FC5FFA8BF902467E
:102AC0000B46CDF800903A4806F07AFB01213A48CF
:102AD00008F0C6FE5546002420E00621374808F0DD
:102AE000BFFE2946324806F061FB0221344808F057
:102AF000B7FE21463046FEF7FDFB0AF045FCCDF857
:102B0000009002460B462A4806F05AFB0134012188
:102B1000294808F0A5FE062C09D04546092D05F1E7
:102B20000108DADC0121274808F09AFED5E71121D7
:102B3000254808F095FE00213046FEF76DFC0AF0AE
:102B400023FC022402460B460094194806F038FB89
:102B500012211E4808F084FE01213046FEF75CFC7D
:102B60000AF012FC009402460B46114806F028FBBE
:102B70000121174808F074FE01370D4806F0C6FA27
:102B80003F2F0AF1060A06F18C067FF472AF0FB0F0
:102B9000BDE8F08F01210B4808F062FE84E700BF1A
:102BA000C825010000007A446027010000280100C8
:102BB000D087FF1FDC3501000C2801001028010020
:102BC000F8290100082A0100182801002C2801001A
:102BD000402801002DE9F04F85B000F1B4058A4688
:102BE00003929B462E464FF0010806E008F10108CB
:102BF000B8F13F0F06F18C067BD03046FEF71AFC89
:102C00000028F3D000230A2251467D4806F08EFAB0
:102C100001217C4808F024FE03980AF0B5FB00234C
:102C20000246009376480B4606F0CAFA0121754821
:102C300008F016FE5946724806F0B8FA01217148AC
:102C400008F00EFE41466E4806F0B0FA01216D48CC
:102C500008F006FE00244FF0020921463046FEF738
:102C600049FB0AF091FBCDF8009002460B46644800
:102C700006F0A6FA01340121624808F0F1FD082CA3
:102C80004FF00207E9D100213046FEF7C5FB0AF0FC
:102C90007BFB009702460B46594806F091FA01214A
:102CA000584808F0DDFD01213046FEF7B5FB0AF07B
:102CB0006BFB009702460B46514806F081FA012152
:102CC000504808F0CDFD39463046FEF7A5FB0AF026
:102CD0005BFB009702460B46494806F071FA08F183
:102CE0000108474806F012FAB8F13F0F06F18C06CA
:102CF00083D101274FF0000904E001373F2F05F190
:102D00008C0579D02846FEF795FB0028F5D00023E6
:102D10000A2251463C4806F009FA0121394807F0D9
:102D200031FB03980AF030FBCDF8009002460B46C9
:102D3000354806F045FA0121324807F023FB594691
:102D4000314806F033FA01212E4807F01BFB3946C3
:102D50002D4806F02BFA01212A4807F013FB002426
:102D60004FF0020821462846FEF7C4FA0AF00CFB91
:102D7000CDF8008002460B46234806F021FA0134C4
:102D80000121204807F0FEFA082C4FF00206E9D195
:102D900000212846FEF740FB0AF0F6FA00960246AC
:102DA0000B46194806F00CFA0121164807F0EAFA1A
:102DB00001212846FEF730FB0AF0E6FA00960246AB
:102DC0000B46114806F0FCF901210E4807F0DAFA2B
:102DD00031462846FEF720FB0AF0D6FA0096024656
:102DE0000B46094806F0ECF90137074806F08EF962
:102DF0003F2F05F18C0585D105B0BDE8F08F00BFF0
:102E0000D087FF1F44280100B487FF1F014B1870B3
:102E1000704700BF2087FF1F024B1878B0FA80F080
:102E2000400970472087FF1F0278002A00F0908039
:102E300070B5034682B00D46252A2AD158785C1C0D
:102E400008B325282FD0732831D0642824D06928CE
:102E500022D066284FD07A2859D0782835D05828E3
:102E60002FD062283ED0422838D06C2814D0632856
:102E700012D0742857D054285FD008F075FD6278BE
:102E8000631C002AD8D1344802B0BDE8704006F077
:102E90003DB918781C46F0E72B1D29682E481D46C1
:102EA00006F084F9EBE7104608F05EFDE7E72E68D0
:102EB00030460BF025FF01463046043508F0D0FCC3
:102EC000DDE70221254808F0CBFC2E1D29682248A9
:102ED00000231022354606F029F9D0E702212048C8
:102EE00008F0BEFC2E1D29681B480023022235462F
:102EF00006F01CF9C3E7073525F007050321D5E9DE
:102F0000002315480091083506F05AF9B7E7073550
:102F100025F007050021D5E900230F480091083569
:102F200006F04EF9ABE7296801290EBF0D480E489F
:102F30000121043508F094FCA1E72B68012B07BFA1
:102F400004210A480A480521043508F089FC96E75F
:102F5000014806F0DBB800BFD087FF1F48280100FA
:102F60004C28010050280100542801005828010075
:102F7000602801000FB400B583B004A951F8040B18
:102F80000191FFF751FF03B05DF804EB04B0704707
:102F900070B51B4B1B4C1B6882B00D460193019B07
:102FA0002360194604460023164617480A2206F0F5
:102FB000BDF80321154808F053FC032C07D8DFE8BF
:102FC00004F01A1510020521114808F049FC0221ED
:102FD000104808F045FC31462846FFF725FF02B0AF
:102FE00070BD07210C4808F03BFCF0E704210B48BA
:102FF00008F036FCEBE70521094808F031FCE6E76C
:1030000064B9FF1F4C92FF1FD087FF1FBC23010034
:1030100080280100F82901007828010070280100AB
:10302000682801000FB400B5094B187883B020B1AF
:1030300003B05DF804EB04B0704705AB1A46049981
:103040000193FFF7A5FF03B05DF804EB04B07047F0
:103050002087FF1F0FB4094B00B51B78012B83B0ED
:1030600004D903B05DF804EB04B0704705AB1A4611
:10307000049901930120FFF78BFFF2E72087FF1FE0
:103080000FB40B4B00B51B78032B83B004D903B0EE
:103090005DF804EB04B0704705AB1A460499019340
:1030A0000320FFF775FF03B05DF804EB04B0704731
:1030B0002087FF1F30B4074D074C084900232B70B1
:1030C000236003654365836580F85C300B6030BC2A
:1030D000704700BF5892FF1F5492FF1F5092FF1F6E
:1030E000F8B53C483C4C3D4D3D4EFFF743FF3D4B52
:1030F0003D493E483E4A5C6014271F703D4F3E4CA0
:10310000D960186100213D485D615E623C4DDF621F
:103110004FF07C560C279A619C623A4A3A4C1963EC
:1031200058633A493A489D635E6440F61C450A2656
:103130001F65384F9A64DC64022201241962C3F8C7
:10314000BC00002132209D66DE6664254FF4967631
:10315000DF61DF6341F204075A705A721C725C65CA
:1031600083F84010C3F89C0018665E66DE659D65B6
:103170004FF05A0C1F674FF47A7E9967DA67C3F8ED
:103180008010C3F88800C3F8A400234FC3F8A01030
:10319000224EC3F8AC4041F28831FF24C3F8B0207E
:1031A000052040F2D662C3F8B450C3F874C0C3F827
:1031B0008CE0C3F89070C3F89460C3F8A840A3F8FB
:1031C000BA00C3F88410A3F8B810A3F89820A3F8A5
:1031D0009A20F8BD8828010020A1070033338340DE
:1031E000CDCCCC3D4493FF1F666686400000404036
:1031F000CDCC4C40000020C10000824200002042A3
:103200000000A0409A9979400AD7233D3333734098
:103210009A99993ECDCC4C3E0000684200C02044B3
:10322000F0B54FF47A6085B006F0CCFD00210F2098
:1032300006F0A0FD00210E2006F09CFD00211120CB
:1032400006F098FD0021102006F094FD00211220C8
:1032500006F090FD0021132006F08CFD01210B20CB
:1032600006F088FD01210C2006F084FD01211420C8
:1032700006F080FD0121152006F07CFD01211620BD
:1032800006F078FD0121172006F074FD01210520CC
:1032900006F070FD854D864C0121062006F06AFD82
:1032A00001210D2006F066FD28880AF0BFFC0146CA
:1032B000162006F0C9FC28880AF0B8FC0146172041
:1032C00006F0C2FC28880AF0B1FC0146052006F091
:1032D000BBFC28880AF0AAFC00250146062006F05F
:1032E000B3FC2B46734A74497448009505F07EF987
:1032F00020684FF0FF32102104F032FC20684FF0BC
:10330000FF32102104F004FC20684FF0FF3204214A
:1033100004F012FC20684FF0FF32012104F016FC8B
:103320002A460F21206804F025FC0C21644808F08F
:1033300097FA644805F0EAFE1021634808F090FA15
:10334000604805F0E3FE40F2836006F0F9FD5D4859
:1033500005F0DCFE17215D4808F082FA594805F0B7
:10336000D5FE5B4B1B789A0600F1D480584B1B7836
:103370001B0700F1DB80564B1B785F0700F1E280F2
:10338000534B1B789E0700F1E980524B1B781D06BA
:1033900000F1F0804F4B1B785C0600F1F7804D4B3D
:1033A0001B78980600F1FE804A4B1B78590700F104
:1033B0000581484B1B781A0700F10C81454B1B789F
:1033C0009B0700F113813F4805F0A0FE72B6424A08
:1033D0004CF220534DF628112024138023461180EF
:1033E000013BFDD13D4D3E483E4900234FF4805600
:1033F0002E8003800B8032F80E3C9BB243F0D30347
:1034000022F80E3C62B69D2007F098F92146364816
:10341000364D08F025FA2B4805F078FE05F1C40674
:103420002F462C46601B06F0DFF804F8010BB4426F
:10343000F8D13B78142B01D0FFF752FE2C482D4CCD
:10344000FEF7DAFC0420FFF7E1FC2B4B28480022B2
:103450001A60FEF70DFC01210D2006F077FC796D56
:103460002348FFF709FA7A6C97F840102048FFF7D5
:1034700005FA224B22491B68224A1D48126881FB2B
:103480000351DB17A3EB211313FB02F32380FEF799
:10349000A3FD1D4B1D491A68039203981B680293F4
:1034A000029A1B4B08601A6005B0F0BD2887FF1F09
:1034B000BC94FF1F3CB9FF1F20A10700A0B7FF1F4E
:1034C000A8280100D087FF1FB8280100CC280100E0
:1034D00001F0074000F007400E20054004200540A1
:1034E0000620054016200540D02901004493FF1F07
:1034F000F494FF1FC894FF1F7092FF1F6087FF1F87
:103500001F85EB515C87FF1F64B9FF1FF094FF1FFD
:103510001894FF1F2121394808F0A2F9384805F016
:10352000F5FD384B1B781B077FF525AF0C2136487E
:1035300008F096F9324805F0E9FD324B1B785F0739
:103540007FF51EAF0E21314808F08AF92C4805F0AE
:10355000DDFD2C4B1B789E077FF517AF17212C48FC
:1035600008F07EF9264805F0D1FD2A4B1B781D0690
:103570007FF510AF0E21284808F072F9204805F0B9
:10358000C5FD244B1B785C067FF509AF122123484B
:1035900008F066F91A4805F0B9FD1E4B1B7898062D
:1035A0007FF502AF13211E4808F05AF9144805F0C0
:1035B000ADFD184B1B7859077FF5FBAE1C21194850
:1035C00008F04EF90E4805F0A1FD124B1B781A07C2
:1035D0007FF5F4AE1921144808F042F9084805F0C7
:1035E00095FD0C4B1B789B077FF5EDAE18210F481E
:1035F00008F036F9024805F089FDE4E6E428010008
:10360000D087FF1F01F00740082901001829010099
:103610002829010000F0074040290100502901003D
:10362000642901007829010098290100B4290100CA
:10363000F8B5464C464D4748E66800232B70FFF727
:1036400017F9014630460AF0E7FC08B104232B7055
:103650004048FFF70BF921690AF0DEFC18B12B781E
:1036600043F010032B703B48FFF726F9A16A0AF0DC
:10367000F1FC18B12B7843F040032B700023354840
:103680006B70FFF719F9E16A314D0AF0C5FC08B11A
:1036900001236B70304D2F4800232B70FFF7E8F8A3
:1036A000616A0646E0680AF00FFA014630460AF001
:1036B000D1FC08B104232B702648FFF7D7F8616AC4
:1036C000064620690AF002FA014630460AF0A4FCD8
:1036D00018B12B7843F010032B701E48FFF7ECF85D
:1036E000A16B0646A06A0AF0EFF9014630460AF0DF
:1036F000B1FC18B12B7843F040032B700023154820
:103700006B70FFF7D9F8A16B134F0646E06A0AF019
:10371000DDF9014630460AF07FFC08B101237B70D9
:1037200000230C48EB70FFF7A3F8054609480A4E42
:10373000FFF79CF8014628460AF0C6F9E16B0AF04B
:1037400089FC08B10123F370F8BD00BF4493FF1F4B
:103750004093FF1FF494FF1FB094FF1F2DE9F04129
:103760007C4C2368012B82B031D0022B00F0A88062
:10377000032B00F0C8803BBB774B784AD3F8A410EA
:10378000D3F8A83012685B1A632B0EDD744803FB74
:1037900002F380FB0302DB17C3EB6213194406201C
:1037A00002B0BDE8F04106F051B96E4803FB0223B8
:1037B00080FB0302DB17C3EB22121144062002B088
:1037C000BDE8F04106F042B902B0BDE8F081664EB6
:1037D00033680A33B3F57A7F00F3B7801846336055
:1037E0000AF028FA61490AF079FA80465A4DD5F86C
:1037F000A4000AF01FFA0746D5F8A8000AF01AFA42
:1038000039460AF061F941460AF068FA58490AF067
:1038100019FB39460AF05AF90AF03CFC0146062029
:1038200006F014F90221534808F01AF8524805F03E
:103830006DFC0621514808F013F830680AF0FAF9D7
:103840004A490AF04BFA09F09FFD022702460B464F
:103850000097494805F0B4FC0D21494808F000F8EC
:10386000D5F8A4000AF0E6F9804630680AF0E2F9DB
:103870003E490AF033FA0646D5F8A8000AF0DAF90C
:1038800041460AF021F9014630460AF027FA384944
:103890000AF0D8FA41460AF019F909F075FD0097C7
:1038A0000B460246344805F08BFC3946314807F098
:1038B000D7FF314805F02AFC2368022B7FF458AF6C
:1038C000294B254E00221A60D6F8A4000AF0B2F95E
:1038D0000546D6F8A8000AF0ADF929460AF0F4F832
:1038E00000210AF0FBF922490AF0ACFA29460AF055
:1038F000EDF80AF0CFFB0146062006F0A7F8236892
:10390000032B7FF438AF184B134E4FF47A721A60C2
:10391000D6F8A4000AF08EF90546D6F8A8000AF0F9
:1039200089F929460AF0D0F811490AF0D7F9104967
:103930000AF088FA29460AF0C9F80AF0ABFB0146FA
:10394000062006F083F8236815E700234FF00008EF
:1039500033604BE79C94FF1F4493FF1F3487FF1F86
:103960001F85EB51CBF08D287492FF1FCDCCCC3D41
:103970000000C842DC350100D087FF1FF429010098
:10398000FC29010070B5B548B54C05F0BFFBB34844
:1039900005F0BCFBB14805F0B9FB0D21B14807F0BB
:1039A0005FFFD4F8A030012B11D0AF4CAB48217889
:1039B00000230A2205F0BAFB2378052B67D8DFE83D
:1039C00013F006010B01100115011A010101092173
:1039D000A64807F045FFA648FEF748FF21690AF010
:1039E0001BFB18B10F21A34807F03AFFA048FEF7D0
:1039F0003FFFE1680AF02EFB18B10E219E4807F048
:103A00002FFF9B48FEF734FF05469948FEF72EFF2F
:103A1000014628460AF058F8E16B0AF01BFB18B182
:103A20001121964807F01CFF9148FEF745FFA16A57
:103A30000AF010FB18B10C21914807F011FF8C48D7
:103A4000FEF73AFFE16A0AF0E7FA18B10D218D4856
:103A500007F006FF8C4B86481B68012B00F0E880BE
:103A6000FEF704FF21697E4D0AF0F4FA78B1804830
:103A7000FEF7FEFEE9680AF0CFFA40B17A4B1B78F8
:103A8000052B00F0E6800821804807F0E9FE0221BE
:103A90007F4807F0E5FE122006F05EF9012800F0ED
:103AA000AF80112006F058F9012800F0B380794B5F
:103AB0001B68012B00F0B78002217548764C07F097
:103AC000CFFE764B6548196805F070FB634805F03A
:103AD0001DFB0421724807F0C3FE0B2006F03CF9E1
:103AE000002301460A225D4805F020FB0C2006F069
:103AF00033F9002301460A22584805F017FB142029
:103B000006F02AF9002301460A22544805F00EFB6C
:103B1000152006F021F90A22002301464F4805F03E
:103B200005FB06215F4807F09BFE2368DD074FF089
:103B300001014CBF5C485D4807F092FE236898077E
:103B40004FF001014CBF5848584807F089FE2368E0
:103B50005A074FF001014CBF5348544807F080FE0C
:103B600023681B074CBF50485048012107F078FEDE
:103B700004214F4807F074FE112006F0EDF80023F1
:103B800001460A22354805F0D1FA102006F0E4F883
:103B9000002301460A22314805F0C8FA122006F037
:103BA000DBF8002301460A222C4805F0BFFA132057
:103BB00006F0D2F8002301460A222848BDE87040EA
:103BC00005F0B4BA07213B4807F04AFE5FE706213B
:103BD000394807F045FE5AE70721384807F040FE0C
:103BE00055E70721364807F03BFE50E708213548E6
:103BF00007F036FE4BE70B21334807F031FE46E76E
:103C00000E21324807F02CFE112006F0A5F80128FD
:103C10007FF44DAF0A212E4807F022FE1D4B1B6892
:103C2000012B7FF449AF11212A4807F019FE43E721
:103C3000FEF71CFE216A0AF00DFA00283FF423AFBC
:103C40001621254807F00CFE0A21244807F008FE3B
:103C50001DE70A21214807F003FE18E7D087FF1F60
:103C60004493FF1F0C2A0100AC94FF1F1C2A010083
:103C7000F494FF1F282A0100382A0100482A010075
:103C80005C2A01006C2A01008092FF1FA02A01001B
:103C9000DC350100C494FF1F0894FF1FA094FF1F90
:103CA000142B01001C2B0100242B010044370100C0
:103CB000282B0100DC2A0100AC2A0100B42A0100F3
:103CC000C82A0100D02A0100BC2A0100E42A010010
:103CD000F42A0100002B01007C2A0100942A010033
:103CE0002DE9F04F9B4C9C4FE36F012B8DB000F002
:103CF0005981032B5AD0994E994DA36F9948012BA6
:103D000009BF2968296801F10041296005F034F8EC
:103D10003368002B40F0D880924805F003F8E36F39
:103D20003860012B064600F0DC808F490AF092F9DA
:103D3000B8B98E4930460AF06FF990B98C4A8D4B6C
:103D400012680B920B9A1A60D4F8AC0009F072FF5B
:103D5000314609F0C3FF002338602B600DB0BDE889
:103D6000F08FDFF80CA2DFF80C82DAF800300A934B
:103D70000A98D8F80030DFF82492C01A09F056FFEC
:103D8000314609F0ABFF7C490AF05CF87A490AF049
:103D900059F8D9F8001009F099FEDAF800300993C3
:103DA000099BC9F80000C8F80030CDE7DFF8D081E2
:103DB000724DD8F80000694E012300220F212B60BC
:103DC00003F0D8FE2B68012B336800F00981002B2B
:103DD00040F0AC810021D8F80000DFF8C491684DB4
:103DE00003F01AFF33681FFA80FBC9F800B0002BFC
:103DF00040F081810021D8F80000594DDFF880A102
:103E000003F090FEB4F89A3040F6E44101FB0BF168
:103E1000B1FBF0F0C01A00B209F00CFF594983461B
:103E2000D4F8900009F05AFF014658460AF00AF803
:103E3000D9F800302860632BDFF864B100F34F81BC
:103E400000232B603368002B3FF457AF02214E480C
:103E500007F006FDD9F80020D8F8000040F6E4434A
:103E6000002103FB02F803F05DFEB8FBF0F009F05F
:103E7000DDFE8046B4F89A0009F0DCFE01464046BB
:103E800009F022FE09F080FA4FF0020802460B46C4
:103E9000CDF800803D4805F093F941463A4807F0D7
:103EA000DFFC286809F070FACDF8008002460B4666
:103EB000364805F085F94146354807F0D1FC4146C2
:103EC000314807F0CDFC18E7264804F02BFF09F035
:103ED0005BFA022602460B4600962C4805F070F964
:103EE0001AE7264B1B68012B00F02C81022B7FF474
:103EF0002BAF28490AF0AEF830B9274930460AF00E
:103F00008BF8002800F05381DFF864A0DFF86480AC
:103F1000DAF8003007930798D8F80030DFF87C9083
:103F2000C01A09F083FE314609F0D8FE124909F0A3
:103F300089FF114909F086FFD9F8001009F0C6FD84
:103F4000DAF800300693069BC9F80000C8F8003084
:103F5000FAE600BF4493FF1F8C92FF1FE894FF1FF7
:103F60007C92FF1F1C93FF1F0000FA430000FAC35E
:103F700064B9FF1F5C92FF1F00007A445087FF1F47
:103F8000BC94FF1F17B7D138DC350100D087FF1F65
:103F90006C2B010000C82F4800A08CC69492FF1F14
:103FA0003C93FF1F3D689B4928460AF035F830B125
:103FB000284699490AF04EF800287FF4F7AEDFF85A
:103FC0006482964DD8F80000954E022300220E21FF
:103FD0002B6003F0CFFD2B68012B33687FF4F7AE25
:103FE000002B40F006810021D8F80000DFF8749221
:103FF0008C4D03F011FE33681FFA80FBC9F800B046
:10400000002B40F0DB800021D8F80000864D03F043
:1040100089FDB4F8983040F6E44A0AFB0BFBBBFB81
:10402000F0F0C01A00B209F005FE80498346D4F8CA
:10403000940009F053FE0146584609F003FFD9F8F1
:10404000003028600021D8F800000AFB03FA03F0D2
:1040500069FDB4F89830BAFBF0F00FFA80FAC3EBC0
:104060000A03002BB4F8BA20B8BF5B429342BCBF2E
:1040700000232B603368002B3FF43FAE02216C48D5
:1040800007F0EEFBD9F80020D8F8000040F6E44332
:10409000002103FB02F803F045FDB4F89810B8FBCB
:1040A000F0F000B2411A634805F080F80221604840
:1040B00007F0D6FB286809F067F94FF002080246BE
:1040C0000B46CDF800805B4805F07AF803215A488A
:1040D00007F0C6FB4146564807F0C2FB0DE6DAF88A
:1040E0000000002103F01EFDDBF800306438984228
:1040F000FFF4A6AEA6E60021286803F013FD40F603
:10410000E44100230A2201FB0BF1B1FBF0F1494825
:1041100005F00CF80221464807F0A2FBB4F89A100B
:10412000444805F043F8D9F800B063E6414804F08C
:10413000EDFF0C21414807F093FB0C21404807F0AC
:104140008FFB47E63F4909F085FF58B93E493046A5
:1041500009F062FF30B93D4A3D4B12680592059A5D
:104160001A60F1E5DFF8E4A0DFF8E480DAF8003067
:1041700004930498D8F80030DFF8EC90C01A09F0E6
:1041800055FD314609F0AAFD324909F05BFE31497F
:1041900009F058FED9F8001009F098FCDAF8003060
:1041A0000393039BC9F80000C8F80030CCE5274A08
:1041B000274B12680892089A1A60C5E50021286802
:1041C00003F0B0FC40F6E44100230A2201FB0BF1AE
:1041D000B1FBF0F1174804F0A9FF01211E4807F0D8
:1041E0003FFBB4F89810134804F0E0FFD9F800B092
:1041F00009E7104804F08AFFE36F012B4FF00B0131
:104200000CBF1648164807F02BFB0C210C4807F092
:1042100027FBE8E600709446007094C65087FF1FA5
:10422000E894FF1FBC94FF1F7C92FF1F17B7D13883
:10423000DC350100D087FF1F582B01005C2B0100EB
:10424000482B01000000FA430000FAC364B9FF1FC5
:104250005C92FF1F00007A44082A0100302B010005
:104260003C2B01003C93FF1F9492FF1F2DE9F0436C
:10427000AB4D2B6883B0002B00F08780A94CAA4E71
:10428000E36FAA4FA74D012B00F0BF80D4F8803018
:10429000DFF89082012B00F0ED80D8F85850D7F865
:1042A0000090D8F8548005FB08F54FF47A7000FBB5
:1042B00005F009F0BFFC9E49DFF86C8205464846D0
:1042C00009F00CFD294609F0BDFD9A4909F006FDEB
:1042D00009F0E0FE632830604BDD2846944909F080
:1042E000B1FD6423C8F80030934B38601B68002B85
:1042F00048D0E36F8B4D012B00F0ED80032B00F0D5
:10430000FD80022B00F0008102218C4807F0A8FA02
:104310008B4B186809F038F8022402460B460094CB
:10432000884804F04DFF2146874807F099FA214656
:10433000824807F095FA3168824804F037FF062179
:10434000824807F08DFA3868794909F0C7FC09F00E
:104350001BF8009402460B467A4804F031FF032113
:104360007B4807F07DFA774803B0BDE8F04304F0DE
:10437000CDBE0028BCBF0023C8F800306E4B1B68C0
:10438000002BB6D103B0BDE8F0837248654CFEF750
:10439000EFFA7149A76EE66E09F0A0FC09F0A0FEE5
:1043A000226F636FD21B9B1B80B29342A0EB07006E
:1043B000C0F29D8003FB00F393FBF2F333445A4EAB
:1043C0005E483360022107F04BFA31685D48574F71
:1043D00004F0ECFE0221594807F042FA3268A06D61
:1043E000636D02FB00F003FB00F000EB8000400077
:1043F00009F020FC4E4909F025FD01232B60E36FF5
:104400003860012B474D7FF441AF5248FEF7B0FAB8
:104410005149D5F86890D5F86C8009F05FFC09F037
:104420005FFE2A6F6B6FC9EB0202C8EB030380B219
:104430009A42C9EB00006CDD03FB0000531C90FBAB
:10444000F3F303EB0800A26D636D306002FB00F034
:1044500003FB00F000EB8000400009F0EBFB344967
:10446000DFF8C08009F0EEFCD4F880303860012B12
:104470007FF413AF3748FEF77BFA3749D8F86890D6
:10448000D8F86C5009F02AFC09F02AFED8F8702000
:10449000D8F87430D4F85480C9EB02025B1B80B2A8
:1044A0009A42C9EB0000C6BF03FB0000013258432B
:1044B00090FBF2F02844A56D00FB05F008FB00F02E
:1044C00000EB8000400009F0B5FB194909F0BAFC87
:1044D00081463860E7E6214B1B68012B4FF00A014B
:1044E0000CBF1F481F4807F0BBF9EB6F06E703FB43
:1044F0000000531C90FBF3F3334460E710211A488B
:1045000007F0AEF9E36FFCE60721184807F0A8F9B9
:10451000FAE603FB00F393FBF2F303EB080092E7E8
:104520007892FF1F4493FF1F3487FF1F9492FF1F51
:10453000E4388E3E0000C8423C87FF1FDC35010096
:104540008C92FF1FD087FF1F6C2B0100A42B010052
:10455000AC2B0100F494FF1F00007A445087FF1F2A
:10456000702B01007C2B0100882B01009C2B01008B
:1045700030B5112083B005F0EFFB012818D01220D0
:1045800005F0EAFB012813D000210B2005F0DEFB2B
:1045900000210C2005F0DAFB0021152005F0D6FBE8
:1045A0002649274B0120002208701A6003B030BD55
:1045B0000121152005F0CAFB224A234C234B126827
:1045C000D4F8841001921B68019A1D4D0B4493424C
:1045D0004FF00201296005D901210C2005F0B6FB3E
:1045E00003B030BDD4F88C0009F024FB184B1968D7
:1045F00009F012FD0028EFD101210B2005F0A6FBE8
:1046000094F8C03003242C6043B10C4B02221A7082
:1046100000210C2005F09AFB03B030BD122005F0FC
:104620009BFB012808BF054B4FF0110008BF1C7011
:1046300005F092FB0128EBD1E7E700BFAC94FF1F28
:10464000E494FF1F64B9FF1F4493FF1FF094FF1F02
:104650008C92FF1FF0B5684E684D34682B689C4201
:1046600087B039D014F0010155D014F0020149D0BF
:1046700014F004013DD0E3070ED52B68DF070BD4FF
:104680005F4F3A68002A00F082805E4B1B680193FE
:10469000019B93426DD83468A0070DD52B6899070C
:1046A0000AD4594F3A68002A4CD0564B1B680393E2
:1046B000039B934238D8346862070DD52B685B079B
:1046C0000BD4524F3A68002A7ED04E4B1B6805939C
:1046D000059B934268D834680CB107B0F0BD214601
:1046E000162005F0B3F92146172005F0AFF907B001
:1046F000F0BD052005F0AAF92B68346803F0FB0330
:104700002B60B8E7172005F0A1F92B68346803F097
:10471000FD032B60ACE7162005F098F92B68346890
:1047200003F0FE032B60A0E7394B1720D3F8881065
:1047300005F08CF92B68346843F0020300222B60EB
:104740003A60B9E7334804F0E1FC0C21324807F045
:1047500087F8304804F0DAFCFF21172005F076F9DD
:10476000284B2E4A19680291029912680A443A604D
:104770009CE7274B1620D3F8881005F067F92B68C3
:10478000346843F0010300222B603A6084E7FF2184
:10479000162005F05BF91B4B204A1968009100991F
:1047A00012680A443A6071E7194B0520D3F8881063
:1047B00005F04CF92B68346843F0040300222B60A9
:1047C0003A60002C89D18AE7124804F09FFC0C2142
:1047D000134807F045F80F4804F098FCFF21052026
:1047E00005F034F9074B0D4A1968049104991268D1
:1047F0000A443A606AE700BFE494FF1F0894FF1F71
:104800008094FF1F64B9FF1F8494FF1F8894FF1FCB
:104810004493FF1FD087FF1FB02B01007087FF1F3D
:10482000C02B01002DE9F047544EDFF87481DFF80A
:1048300074913068524D00220F2103F09BF9002340
:10484000012222214F48C8F80030C9F8002007F0A3
:1048500007F8D8F80030132B22DC40F6E44700219B
:104860003068B5F898A003F0D7F900210446306805
:1048700003F058F9A4B2012107FB04F4B4FBF0F4EF
:1048800041485444A5F8984006F0EAFF642005F03A
:1048900099FAD8F800300133132BC8F80030DEDD68
:1048A000B5F89830394A3A48A2FB03129B1A02EB3A
:1048B0005303C3F30F131946A5F8983004F076FCA0
:1048C0001D21344806F0CCFF0221334806F0C8FF12
:1048D0002F4804F01BFC00231A460E213068C8F84C
:1048E000003003F047F9022322212648C9F800309E
:1048F00006F0B6FFD8F80030132B22DC40F6E44770
:1049000000213068B5F89A9003F086F9002104463A
:10491000306803F007F9A4B2012107FB04F4B4FBEB
:10492000F0F419484C44A5F89A4006F099FF642029
:1049300005F048FAD8F800300133132BC8F80030DE
:10494000DEDDB5F89A30114A1148A2FB03129B1A1A
:1049500002EB5303C3F30F131946A5F89A3004F082
:1049600025FC1D210D4806F07BFF02210A4806F0B8
:1049700077FF0748BDE8F04704F0C8BBBC94FF1FB1
:104980004493FF1FD02B0100142C0100876118866F
:10499000D087FF1FF42B0100DC350100182C01002B
:1049A000A494FF1F5087FF1FF8B5874B874C884F93
:1049B0001B68386D40F2513108222160E271002BF2
:1049C00000F0FD8009F036F9396A054609F086F9EC
:1049D000804909F083F909F083FB80B20312637206
:1049E0007D4A7E4B12681B68B9692072A372284603
:1049F0001B121512E3722273657309F06FF9754982
:104A000009F06CF909F06CFB83B21A126F49744813
:104A1000A373E27303F0E2FF724B734A1B681288C0
:104A20006A49A272DDB2257205EB850603EB8305A8
:104A3000760045F3D71540F2553E12121B1226732D
:104A40006573082600256648C4F800E0E2726372C8
:104A5000E671A573E57303F0C1FF40F25633634876
:104A60002360E671FDF706FF614909F037F909F0A7
:104A700037FB20725D48FDF7FDFE5D4909F02EF918
:104A800009F02EFB5B4A5A49C0F307231068637292
:104A900009F0D8F909F0FEFA40FA06F20346534845
:104AA000E272A372FDF708FF4A4909F017F909F00D
:104AB00017FB20734D48FDF7FFFE464909F00EF93C
:104AC00009F00EFB4149A573C0F307234448637303
:104AD000E57303F083FF022005F074F9464A474B63
:104AE00011785078217291786072D2789878A1729A
:104AF000597893F800E0E2726173DA78A07340F2BB
:104B00005A3332493648E67184F80CE0E273236088
:104B100003F064FF3A4B2D491A785878227260727C
:104B20009A78D878A272E0721A79987993F805E0A9
:104B30002273A073DA792A4884F80DE040F25E33DC
:104B4000E2732360E67103F049FF022005F03AF9B1
:104B50002C4B1E491A785878227260729A78D8784D
:104B6000A272E0721A79987993F805E02273A07323
:104B7000DA791B4884F80DE04FF45C73E27323602C
:104B8000E67103F02BFF022005F01CF9BA6DE67107
:104B900042FA06FE012340F25F3702262273992271
:104BA0002572657284F80DE02760A672E372E373E4
:104BB000A27306490A48BDE8F84003F00FBF09F0A8
:104BC00039F87969054601E78092FF1FD494FF1FE9
:104BD0004493FF1F00002041B894FF1F6492FF1F01
:104BE000A0B7FF1F3487FF1F3887FF1FF494FF1FF4
:104BF0000000C8428C92FF1F4093FF1FB094FF1F1C
:104C00002C87FF1F5487FF1FF0B59C4C9C4D83B031
:104C100006F0C0FD23682860042B00F0AC82022B54
:104C20004BD0082B00F09280072B40F051813328A5
:104C300001F0F98300F3AD80312801F007843228B8
:104C400040F0B08006F0E2FD002840F33F818D483F
:104C50008D4E04F0EFFB08F0EDFF8C4909F03EF8B3
:104C600061230122F06322602B601846A0F15203F9
:104C70001F2B01F2B683DFE813F0420BB40BB40B29
:104C8000B40BB40BB40BB40BB40BB40BB40BB40B2C
:104C9000B40BB40BB40BB40BB203D20C3B05A90597
:104CA0007304B40BB40BB40B2604B40BD50CB40BC7
:104CB000B40BB40BB40BB40B300BA0F13102422A8D
:104CC00070D8DFE812F0F206FE060C0719072C0771
:104CD0003B076F006F006F006F006F006F006F0089
:104CE0006F006F006F006F006F006F006F006F004C
:104CF0006F006F006F006F006F006F006F006F003C
:104D00006F006F006F006F006F006F006F006F002B
:104D10006F006F006F006F006F006F006F006F001B
:104D20006F006F006F006F006F00DF066F006F0095
:104D30006F006F006F006F006F006F006F006F00FB
:104D40006F006F006F006B006F00E506322800F007
:104D50002F83712822D0312824D106F057FD002856
:104D600040F3D1854748484E04F064FBC0B286F852
:104D70004000022894BF01460021726C444888BF5D
:104D800086F84010FDF77AFD012369202360286032
:104D90006CE7342801F03583712803D10023732098
:104DA00023602860002B08BF73280CBF012000205F
:104DB000002860D0334804F0A9F90421354806F0F2
:104DC0004FFD304804F0A2F91021334806F048FDA9
:104DD0002C4804F09BF91321304806F041FD304B7C
:104DE0002848196804F0E2F9264804F08FF91421E4
:104DF0002C4806F035FD234804F088F91E212A4886
:104E000006F02EFD1F4804F081F91521274806F011
:104E100027FD1C4804F07AF91E21254806F020FDE4
:104E2000184804F073F92021224806F019FD1548AE
:104E300004F06CF91921204806F012FD114804F025
:104E400065F912211D4806F00BFD0E4804F05EF9CD
:104E50000F211B4806F004FD0A4804F057F90D2104
:104E6000184806F0FDFC074804F050F9164A0021E6
:104E700001231160236003B0F0BD00BF9892FF1FB3
:104E80008892FF1FD087FF1F4493FF1F6F12833A42
:104E9000F494FF1F583401006034010074340100A1
:104EA0002487FF1F88340100A0340100C0340100B2
:104EB000D8340100F83401001C35010038350100F8
:104EC0004C3501005C3501003C87FF1F23682868D2
:104ED000062B40F08D80A0F13102402A3FF662AFF0
:104EE00001A151F822F000BF115900003D59000006
:104EF000695900008F590000B5590000D3590000CE
:104F0000715A0000A54D0000A54D0000A54D000000
:104F1000A54D0000A54D0000A54D0000A54D0000C9
:104F2000A54D0000A54D0000A54D0000A54D0000B9
:104F3000A54D0000A54D0000A54D0000A54D0000A9
:104F4000A54D0000A54D0000A54D0000A54D000099
:104F5000A54D0000A54D0000A54D0000A54D000089
:104F6000A54D0000A54D0000A54D0000A54D000079
:104F7000A54D0000A54D0000A54D0000A54D000069
:104F8000A54D0000A54D0000A54D0000A54D000059
:104F9000A54D0000A54D0000A54D0000A54D000049
:104FA000A54D0000A54D0000A54D0000A54D000039
:104FB000A54D0000A54D0000A54D0000A54D000029
:104FC000A54D0000A54D0000A54D0000A54D000019
:104FD000A54D0000A54D0000A54D0000A54D000009
:104FE000A54D0000A54D00009D4D000023682868D8
:104FF000052B15D1332801F0508240F34781352825
:1050000001F07282C1F25A8271287FF4CBAEDC4A81
:1050100000237320136023602860C3E62368286898
:10502000032B40F0A480A0F13002422A3FF6BAAE32
:1050300001A151F822F000BF45510000E5610000D8
:1050400093600000BB600000DD600000FF600000B6
:105050000D620000356200005362000077620000BC
:10506000A54D0000A54D0000A54D0000A54D000078
:10507000A54D0000A54D0000A54D0000A54D000068
:10508000A54D0000A54D0000A54D0000A54D000058
:10509000A54D0000A54D0000A54D0000A54D000048
:1050A000A54D0000A54D0000A54D0000A54D000038
:1050B000A54D0000A54D0000A54D0000A54D000028
:1050C000A54D0000A54D0000A54D0000A54D000018
:1050D000A54D0000A54D0000A54D0000A54D000008
:1050E000A54D0000A54D0000A54D0000A54D0000F8
:1050F000A54D0000A54D0000A54D00002761000052
:105100003F5C00009F620000BD62000087610000FC
:10511000A5610000F55B0000195C0000A54D0000D2
:10512000A54D0000A54D0000A54D0000A54D0000B7
:10513000A54D0000A54D0000A54D000045610000F3
:105140005161000006F062FB002841F353818D4855
:105150008D4E04F06FF901270346014662228B4809
:10516000736527602A60FDF787FB23682868012B99
:105170007FF418AE7AE5A0F13102402A3FF612AE74
:1051800001A151F822F000BF575B00006F5B0000E7
:10519000735B0000995B00009D5B0000B95B000041
:1051A000CB5B0000CF5B0000D35B0000A54D00008F
:1051B000A54D0000A54D0000A54D0000A54D000027
:1051C000A54D0000A54D0000A54D0000A54D000017
:1051D000A54D0000A54D0000A54D0000A54D000007
:1051E000A54D0000A54D0000A54D0000A54D0000F7
:1051F000A54D0000A54D0000A54D0000A54D0000E7
:10520000A54D0000A54D0000A54D0000A54D0000D6
:10521000A54D0000A54D0000A54D0000A54D0000C6
:10522000A54D0000A54D0000A54D0000A54D0000B6
:10523000A54D0000A54D0000A54D0000A54D0000A6
:10524000A54D0000A54D0000A54D0000A54D000096
:10525000A54D0000A54D0000A54D0000A54D000086
:10526000A54D0000A54D0000A54D0000A54D000076
:10527000A54D0000A54D0000A54D0000A54D000066
:10528000A54D0000A54D00009D4D0000312801F006
:10529000F38032287FF486AD06F0B8FA00287FF755
:1052A000BDAE3848384E04F0C5F801226B23C6F86D
:1052B0008C0022602B6001E006F06CFA06F0A6FA82
:1052C0000028F9D12F4803F021FF2E4803F01EFFDC
:1052D0002C4803F01BFF2B4803F018FF294803F06C
:1052E00015FF21212A4806F0BBFA264803F00EFFDD
:1052F0001521284806F0B4FAD6F88410214803F0A6
:1053000055FF0221244806F0ABFA1E4803F0FEFECA
:105310001E21224806F0A4FAD6F88C10194803F092
:1053200045FF03211E4806F09BFA164803F0EEFEE7
:105330001E211C4806F094FAD6F88810114803F094
:1053400035FF104803F0E2FE1D21174806F088FAE9
:10535000D6F8A4100B4803F029FF0A4803F0D6FE44
:105360001E21124806F07CFAD6F8A810054803F072
:105370001DFF044803F0CAFE052323607BE500BF40
:105380009C94FF1FD087FF1F4493FF1FF494FF1FBF
:10539000D02E0100F42E0100E02D01000C2F0100A1
:1053A000582B01002C2F01004C2F01006C2F010005
:1053B00006F02CFA002840F3A282B348B34E04F062
:1053C00039F808F037FCB24908F088FC0346024679
:1053D00096F84010AF487364D4E406F0DBF906F0A9
:1053E00015FA05460028F8D1A748A84E03F08EFE0E
:1053F000A54803F08BFEA44803F088FEA24803F002
:1054000085FEA14803F082FE1F21A34806F028FA7A
:105410009D4803F07BFE1C21A04806F021FA706A2B
:105420009F4908F05BFC07F0AFFF009502460B4672
:10543000954803F0C5FE02219A4806F011FA9248F9
:1054400003F064FE2321984806F00AFAF06B9449B1
:1054500008F044FC07F098FF009502460B468A4886
:1054600003F0AEFE02218F4806F0FAF9864803F0F9
:105470004DFE19218D4806F0F3F9B06B07F084FF5B
:1054800002250B46024600957F4803F099FE294607
:10549000874806F0E5F97C4803F038FE1921854875
:1054A00006F0DEF9B6F8B810774803F07FFE032166
:1054B000814806F0D5F9744803F028FE07232360DD
:1054C000D9E406F067F906F0A1F905460028F8D1FD
:1054D0006D486E4E03F01AFE6B4803F017FE6A48E3
:1054E00003F014FE684803F011FE674803F00EFE57
:1054F0001521724806F0B4F9634803F007FE18213D
:105500006F4806F0ADF92B460A2296F840105E4827
:1055100003F00CFE5C4803F0F9FD2821694806F011
:105520009FF9706C5E4908F0D9FB07F02DFF0095DC
:105530000B460246544803F043FE0221594806F048
:105540008FF9514803F0E2FD13215F4806F088F916
:105550004D4803F0DBFD082323608CE406F01AF9C4
:1055600006F054F905460028F8D14748474E03F0A5
:10557000CDFD454803F0CAFD434803F0C7FD42484E
:1055800003F0C4FD404803F0C1FD11214F4806F06F
:1055900067F93D4803F0BAFD28214D4806F060F94F
:1055A00070693F4908F09AFB07F0EEFE009502464D
:1055B0000B46354803F004FE02213A4806F050F944
:1055C000314803F0A3FD1621424806F049F9F0697D
:1055D000334908F083FB07F0D7FE00950B460246DF
:1055E000294803F0EDFD02212E4806F039F926483E
:1055F00003F08CFDD6F8B030002B32DD1D2136488B
:1056000006F02EF9F06D08F015FB344908F066FB42
:1056100007F0BAFE022502460B4600951A4803F031
:10562000CFFD01212E4806F01BF9174803F06EFD4F
:105630001F212C4806F014F9306E08F0FBFA2749B8
:1056400008F04CFB07F0A0FE009502460B460E4802
:1056500003F0B6FD0121224806F002F90A4803F0E2
:1056600055FD1121204806F0FBF8D6F8B030062B86
:1056700000F26286DFE813F09C0697065C06B0062F
:10568000AB06A606A10600BFD087FF1F4493FF1FED
:105690006F12833AF494FF1F2C2E01004C2E010050
:1056A00000007A44B02C01006C2E0100902E010005
:1056B000AC2E0100B02E0100CC2E010020350100DF
:1056C000682C0100842C0100B42C0100C4340100BA
:1056D000C82C0100F42C01000C2D0100CDCCCC3DD8
:1056E000B03101002C2D01004C2D010006F052F8C4
:1056F00006F08CF80028F9D1BF48C04E03F006FD33
:10570000BD4803F003FDBC4803F000FDBA4803F0B8
:10571000FDFCB94803F0FAFC1F21B94806F0A0F8D7
:10572000B54803F0F3FC1E21B64806F099F8B248DC
:1057300003F0ECFC1A21B44806F092F8F36F022B48
:1057400000F03C87032B00F03087012B00F03F87EF
:105750000921AE4806F084F8A74803F0D7FC1421CD
:10576000AB48A64F06F07CF8B16FA34803F01EFDCE
:10577000A14803F0CBFC1C21A64806F071F8D6F82E
:1057800080109D4803F012FD9B4803F0BFFC1C21D4
:10579000A14806F065F8D6F8AC10974803F006FD6E
:1057A000954803F0B3FCF56F25F00205012D00F0DC
:1057B000B6861321994806F053F88F4803F0A6FCEB
:1057C00002232360FFF757BB05F0E4FF06F01EF845
:1057D0000028F9D1884803F099FC874803F096FC2B
:1057E000854803F093FC844803F090FC824803F062
:1057F0008DFC13218A4806F033F87F4803F086FCBD
:105800000D21884806F02CF87B4803F07FFC0F211F
:10581000854806F025F8854B7748196803F0C6FCE3
:10582000754803F073FC1321814806F019F8814B89
:105830007148196803F0BAFC6F4803F067FC122145
:105840007D4806F00DF87D4B6B48196803F0AEFCFF
:10585000694803F05BFC1121794806F001F8794BA7
:105860006548196803F0A2FC634803F04FFC0E2161
:10587000754805F0F5FF614B5F48D3F8A01003F0C1
:1058800095FC5D4803F042FC1921704805F0E8FFE3
:105890006F4B5948196803F089FC574803F036FCF0
:1058A00011216C4805F0DCFF6B4B5348196803F07D
:1058B0007DFC514803F02AFC1021684805F0D0FF18
:1058C000674B4D48196803F071FC4B4803F01EFC10
:1058D0001C21644805F0C4FF634B4748196803F076
:1058E00065FC454803F012FC13214C4805F0B8FF55
:1058F000414803F00BFC04232360FFF7BCBA236884
:105900002868FFF791B93D4E96F84000FFF731BA8D
:1059100005F07CFF00287FF769AB3748374E03F06E
:1059200089FD08F087F9514908F08CFA65230122B6
:10593000706122602B601846FFF798B905F066FF8A
:1059400000287FF753AB2C482C4E03F073FD08F072
:1059500071F9464908F076FA65230122F061226068
:105960002B601846FFF782B905F050FF00287FF73B
:105970003DAB2148214E03F05DFD00EB800043006C
:1059800001226520F36522602860FFF76FB905F0FA
:105990003DFF00287FF72AAB1748184E03F04AFD59
:1059A00000EB8000430001226520336622602860FE
:1059B000FFF75CB9114AD2F8B0300133062BC8BFEB
:1059C0000023C2F8B0300123652023602860FFF770
:1059D0004DB905F01BFF00287FF708AB0648074EBE
:1059E00003F028FD65230122C6F8B40022602B6075
:1059F0001846FFF73BB900BFD087FF1F4493FF1F36
:105A00007030010090300100B030010028310100F9
:105A1000343101004C3101006C310100B42C010023
:105A20008C2F0100A02F0100B02F01007C94FF1FDC
:105A3000C02F0100E894FF1FD42F0100CC94FF1F5A
:105A4000E82F0100D094FF1FFC2F01000C30010053
:105A5000A094FF1F283001009C94FF1F3C300100E0
:105A60008492FF1F503001006487FF1F00007A44BA
:105A70007A4B93F8C020002A00F04485002283F876
:105A8000C020A0E7FEF7CEFE23682868FFF7C9B85C
:105A9000724AD36F0133032BC8BF0023D36701239E
:105AA000632023602860FFF7E1B86C4EB36FB3FA50
:105AB00083F35B0901226320B36722602860FFF74C
:105AC000D5B8664ED6F88030B3FA83F35B0901226D
:105AD0006320C6F8803022602860FFF7C7B8012332
