:1000000000800020BD010000799E0000319E0000AC
:10001000319E0000319E0000319E0000319E0000A4
:10002000319E0000319E0000319E0000799E00004C
:10003000799E0000319E00008D9400009195000093
:10004000799E0000799E0000799E0000799E000054
:10005000799E0000799E0000799E0000799E000044
:10006000799E0000799E0000799E0000799E000034
:10007000799E0000799E0000799E0000799E000024
:10008000799E0000799E0000799E0000799E000014
:10009000799E0000799E0000799E0000799E000004
:1000A000799E0000799E0000799E0000799E0000F4
:1000B000799E0000FD910000099200000D92000061
:1000C000199200001D92000021920000799E00000C
:1000D000799E0000799E0000799E0000799E0000C4
:1000E000799E0000799E0000799E0000799E0000B4
:1000F000799E00000DC10000799E00006DAB0000EC
:10010000799E000085AE0000799E0000799E000077
:10011000799E0000799E0000799E0000799E000083
:10012000799E0000799E0000799E0000799E000073
:10013000799E0000799E0000799E0000799E000063
:10014000799E0000799E0000799E0000799E000053
:10015000799E0000799E0000799E0000799E000043
:10016000799E000015B10000799E0000799E000084
:10017000799E0000799E0000799E0000799E000023
:10018000799E0000799E0000799E0000799E000013
:10019000799E0000799E0000799E0000799E000003
:1001A000799E0000799E0000799E0000799E0000F3
:1001B000799E0000799E0000799E0000564B4CF21B
:1001C000205210B51A804DF628121A8000BF00BFC9
:1001D00009F056FE514B4FF010621A60504A9A6077
:1001E000504ADA60504A136813F4807304D14F49BF
:1001F0000B604FF4A85313604D4B1A78110703D5C9
:100200001A7842F008021A704A4B4B492A221A7097
:100210004A4A4B4B8B4204D252F8040F43F8040B6A
:10022000F8E7484B484900228B4202D243F8042B9E
:10023000FAE74649464A002352F8230041F82300D2
:1002400001336F2BF8D1434B434A802103F8011B44
:100250009342FBD1414B3D4A1A60414B8A221A70AE
:10026000A3F5805324225A70A0221A709A7992071B
:10027000FCD59A79D406FCD43A4A937903F00C035E
:10028000082B384BF9D103221A7140225A719A79FE
:100290009006FCD5334A9179324B4906FBD5324A58
:1002A000324911600221516020221A709A7902F0BD
:1002B0000C020C2AFAD12E4B2E4A1A602E4B2F4AD2
:1002C0001A6000225A60072243F8042C2C4AC3F813
:1002D0000C2D62B60AF0B4F8144B1B68DA0705D58A
:1002E000284809F091FE284B284A1A60284B1B78B1
:1002F0005B0609D5244C254B22689A4204D121483B
:1003000009F082FE002323600EF000FA09F0BEFD22
:1003100009F0ECFCFEE700BF0E20054030800440F1
:10032000823F04000100002B10D0034014D0034092
:1003300002D0074000E007403092FF1FB4430100A5
:100340002087FF1F3092FF1FCCBCFF1F0082FF1FC2
:100350000000000000E400E05FE400E008ED00E0E1
:100360000050064000400640448004400000030165
:1003700004800440C010050014E000E0FF76010096
:10038000000020201C66D85D1CE00340A5C3945AE1
:1003900000F00740FFFFFFFFFFFFFFFFFFFFFFFF32
:1003A000FFFFFFFFFFFFFFFFFFFFFFFFFFFFFFFF5D
:1003B000FFFFFFFFFFFFFFFFFFFFFFFFFFFFFFFF4D
:1003C000FFFFFFFFFFFFFFFFFFFFFFFFFFFFFFFF3D
:1003D000FFFFFFFFFFFFFFFFFFFFFFFFFFFFFFFF2D
:1003E000FFFFFFFFFFFFFFFFFFFFFFFFFFFFFFFF1D
:1003F000FFFFFFFFFFFFFFFFFFFFFFFFFFFFFFFF0D
:10040000FFFFFFFFFFFFFFFFFFFFFFFFDEF9FFFF23
:1004100010B5054C237833B9044B13B10448AFF33E
:1004200000800123237010BD3092FF1F00000000E8
:10043000B0430100084B10B51BB108490848AFF3A1
:1004400000800848036803B910BD074B002BFBD0A0
:10045000BDE81040184700BF000000003492FF1FA5
:10046000B04301003092FF1F00000000F0B400F123
:1004700014060F4F00243146031F00F12C0243F8ED
:10048000044FB34241F8047F4FF0000542F8044F97
:10049000F5D1084B084985640022C56405654565AA
:1004A000456683650366C16580F88420F0BC7047AB
:1004B0000000A040000048430000C8C200230360C1
:1004C00043608360C3600361436183640365436584
:1004D000836570472DE9F04190F8844084B0002393
:1004E00064008DF80530E4B2012380468DF80440A5
:1004F0008DF80630032720460AF060FC02210DF13A
:1005000005000AF065FC8DF8044002F0DBFC30B316
:100510000921C9480BF094FC002310222146C7484A
:1005200009F0F4F80121C6480BF08AFC00231022E0
:100530009DF80510C14809F0E9F80121C0480BF009
:100540007FFC002310229DF80610BC4809F0DEF85D
:100550000121BB480BF074FCB84809F0C7F8022031
:100560008DF8044009F01EFF02F0ACFC002840F0BA
:10057000778102AE00240AF041FC002800F02681B9
:10058000042C40F0158101E00AF048FC0AF036FC2A
:100590000028F9D102F096FC10B1A84809F0A6F89D
:1005A00098F884406400E4B2202204238DF80440CB
:1005B0008DF805208DF80630032720460AF0FEFB53
:1005C00002210DF105000AF003FC8DF8044002F051
:1005D00079FC30B3092198480BF032FC002310223B
:1005E0002146964809F092F8012195480BF028FC25
:1005F000002310229DF80510904809F087F801218A
:100600008F480BF01DFC002310229DF806108B482C
:1006100009F07CF801218A480BF012FC874809F0A8
:1006200065F802208DF8044009F0BCFE02F04AFC97
:10063000002840F00B8102AE00240AF0DFFB002806
:1006400000F0A980072C40F0988001E00AF0E6FB5A
:100650000AF0D4FB0028F9D102F034FC10B177483D
:1006600009F044F898F884409DF80B209DF80C3070
:100670009DF80D00C8F870206400E4B29DF80E10DB
:10068000C8F87430332201238DF80440C8F878008C
:10069000C8F87C108DF805208DF806300327204619
:1006A0000AF08CFB02210DF105000AF091FB8DF898
:1006B000044002F007FC30B309215F480BF0C0FB97
:1006C0000023102221465D4809F020F801215C48F2
:1006D0000BF0B6FB002310229DF80510574809F0D7
:1006E00015F8012156480BF0ABFB002310229DF8B2
:1006F0000610524809F00AF8012151480BF0A0FBFE
:100700004E4808F0F3FF02208DF8044009F04AFE3D
:1007100002F0D8FB002840F09E8002AE00240AF0D0
:100720006DFBF8B1042C0FD101E00AF077FB0AF061
:1007300065FB0028F9D102F0C5FB10B13F4808F075
:10074000D5FF04B0BDE8F0810AF068FB054606F865
:10075000010B02F0B7FB00285AD101340AF04EFB1E
:100760000028DFD1042CE2D002F0ACFB00285ED1DF
:10077000013FE6D09DF8044091E70AF04FFB0546A3
:1007800006F8010B02F09EFB60BB01340AF036FB59
:1007900000287FF457AF072C3FF45AAF02F092FBCA
:1007A00000284FD1013F3FF45DAF9DF8044004E7BE
:1007B0000AF034FB054606F8010B02F083FBE0B9B2
:1007C00001340AF01BFB00287FF4DAAE042C3FF45E
:1007D000DDAE02F077FB30BB013F3FF4E1AE9DF8A8
:1007E000044088E6E9B200231022144808F08EFF86
:1007F000012113480BF024FBC7E7E9B200231022C4
:100800000E4808F083FF01210D480BF019FBD7E7D4
:10081000E9B200231022094808F078FF01210848B6
:100820000BF00EFB99E7054808F060FFD4E703489A
:1008300008F05CFF9CE700BFD8280100D087FF1FAD
:1008400008300100094808F051FFABE707210848CC
:100850000BF0F6FAEFE6072105480BF0F1FA5CE73A
:10086000072103480BF0ECFA83E600BFD087FF1F97
:10087000E428010090F87400704700BF90F8700001
:10088000704700BF90F87800704700BF90F87C0078
:10089000704700BF2DE9F04390F8848085B04FEA9F
:1008A00048085FFA88F8322200238DF804808DF81A
:1008B00005208DF8063003250DF1060748F00109E3
:1008C00048460AF07BFA01AE0DF1050002210AF05C
:1008D0007FFA8DF804904A463346002050400824A1
:1008E00010F0800F4FEA400018BF80F00700013C75
:1008F000C0B2F5D1BB4202D013F8012FEEE70AF0E7
:100900005DFA02F0DFFA00284AD102208DF8048057
:1009100009F048FD02F0D6FA002840F081800DF180
:10092000080800240AF06AFA08B3042C12D101E086
:100930000AF074FA0AF062FA0028F9D102F0C2FA59
:1009400010B13A4808F0D2FE022009F02BFD05B0A4
:10095000BDE8F0830AF062FA08F8010B064602F0DF
:10096000B1FA70B901340AF049FA0028DDD1042C3B
:10097000E0D002F0A7FA78B9013DE5D09DF80480F7
:100980009CE7F1B200231022284808F0BFFE0121A5
:1009900027480BF055FAE5E7244808F0A7FEEBE7F7
:1009A000092124480BF04CFA2346102249461F48DF
:1009B00008F0ACFE01211E480BF042FA234610223B
:1009C0009DF80510194808F0A1FE012118480BF008
:1009D00037FA102223469DF80610144808F096FEB8
:1009E000012113480BF02CFA21460DF1070216F8ED
:1009F000014B6140C9B2082311F0800F4FEA410159
:100A000018BF81F00701013BC9B2F5D1B242EED166
:100A10001022064808F07AFE044808F067FE74E7E2
:100A2000072105480BF00CFA79E700BFD087FF1FBC
:100A300008300100D8280100E42801002DE9F04F1A
:100A4000074691B097F8843002205B008DF808309B
:100A500009F0A8FC97F8843038465B008DF8083020
:100A6000FFF738FDB86FFC6F7B6F3A6F97F8841013
:100A70008DE81100C94802F02BFB30223D238DF890
:100A800009208DF80A3003260DF10A059DF808901B
:100A900049F0010840460AF091F90DF109000221E0
:100AA0000AF096F98DF80880424602AB00205040CB
:100AB000082410F0800F4FEA400018BF80F00700B4
:100AC000013CC0B2F5D1AB4202D013F8012FEEE7E2
:100AD0000AF074F902F0F6F9002840F07D82022055
:100AE0008DF8089009F05EFC02F0ECF9002840F067
:100AF000B9820DF10C0AD14600240AF07FF90028D2
:100B000043D0032C34D101E00AF088F90AF076F9D9
:100B10000028F9D102F0D6F910B1A14808F0E6FD9D
:100B2000312303268DF809308DF80A609DF808906E
:100B300049F0010840460AF041F90DF1090002218F
:100B40000AF046F98DF80880424602AB002050407A
:100B5000082410F0800F4FEA400018BF80F0070013
:100B6000013CC0B2F5D19D4228D013F8012FEEE729
:100B70000AF054F909F8010B804602F0A3F968B9AC
:100B800001340AF03BF90028BBD1032CBED002F09F
:100B900099F978B9013E7FF479AFC1E75FFA88F13E
:100BA000002310227E4808F0B1FD01217D480BF0A2
:100BB00047F9E5E77A4808F099FDEBE70AF0FEF817
:100BC00002F080F9002840F0C68102208DF80890DC
:100BD00009F0E8FB02F076F9002840F03E820DF1C2
:100BE0000C0900240AF00AF9002844D0032C35D15E
:100BF00001E00AF013F90AF001F90028F9D102F036
:100C000061F910B1664808F071FD342201238DF8B6
:100C100009208DF80A3003269DF8089049F0010854
:100C200040460AF0CBF80DF1090002210AF0D0F895
:100C30008DF80880424602AB00205040082410F096
:100C4000800F4FEA400018BF80F00700013CC0B29F
:100C5000F5D1AB4228D013F8012FEEE70AF0DEF809
:100C600009F8010B804602F02DF968B901340AF049
:100C7000C5F80028BAD1032CBDD002F023F978B909
:100C8000013E7FF453AFC0E75FFA88F100231022E2
:100C9000434808F03BFD012142480BF0D1F8E5E75D
:100CA0003F4808F023FDEBE70AF088F802F00AF964
:100CB000002840F00F8102208DF8089009F072FBA7
:100CC00002F000F9002840F0D7810DF10C09002452
:100CD0000AF094F8002800F08580032C73D101E01D
:100CE0000AF09CF80AF08AF80028F9D102F0EAF834
:100CF00010B12B4808F0FAFC012212238DF80920CC
:100D00008DF80A304FF003089DF8084020460AF09D
:100D100055F802210DF109000AF05AF88DF8084043
:100D200002F0D0F830B309211F480BF089F80023F6
:100D3000102221461A4808F0E9FC012119480BF05D
:100D40007FF8002310229DF80910154808F0DEFCFA
:100D5000012114480BF074F8002310229DF80A10AA
:100D60000F4808F0D3FC01210E480BF069F80C483D
:100D700008F0BCFC06208DF8084009F013FB02F0D7
:100D8000A1F8002840F0738103AD00260AF036F880
:100D9000002840D0162E30D10AE000BFEC28010018
:100DA000D087FF1F08300100D82801000AF036F86C
:100DB0000AF024F80028F9D102F084F81626002859
:100DC0007DD1152035E00AF029F809F8010B80469D
:100DD00002F078F800285BD101340AF00FF80028FF
:100DE0007FF47BAF032C3FF47DAF02F06BF800285B
:100DF0006CD1013E7FF410AF7EE70AF00FF805F8E2
:100E0000010B044602F05EF800284DD1013609F0CE
:100E1000F5FF0028BED1162ECAD002F053F80028E4
:100E20004DD1B8F101087FF46FAF701E002840F378
:100E30003582002303AA1C4612F8011B08254C40EA
:100E400014F0800F4FEA440418BF84F00704013DFA
:100E5000E4B2F5D101338342EEDB9DF8218089486D
:100E60004146224602F034F9162EC146A34602D16D
:100E7000A04500F0138197F884108348CDF800B0A6
:100E80004B46324602F052F9002011B0BDE8F08F17
:100E90005FFA88F1002310227C4808F037FC01211A
:100EA0007B480AF0CDFF97E7E1B200231022774894
:100EB00008F02CFC012176480AF0C2FFA6E773482F
:100EC00008F014FC162EACD11520B2E76F4808F0DC
:100ED0000DFC8EE709216F480AF0B2FF234610226D
:100EE00041466A4808F012FC012169480AF0A8FF4F
:100EF000234610229DF80910644808F007FC0121E0
:100F000063480AF09DFF102223469DF80A105F48AF
:100F100008F0FCFB01215E480AF092FF21460DF12A
:100F20000B0002AA12F8014B6140C9B2082311F06C
:100F3000800F4FEA410118BF81F00701013BC9B2A0
:100F4000F5D19042EED11022504808F0DFFB4F4817
:100F500008F0CCFBAFE609214E480AF071FF2346AA
:100F600010224146494808F0D1FB012148480AF0C7
:100F700067FF234610229DF80910444808F0C6FB7D
:100F8000012143480AF05CFF102223469DF80A1015
:100F90003E4808F0BBFB01213D480AF051FF2146C5
:100FA0000DF10B0002AA12F8014B6140C9B20823EF
:100FB00011F0800F4FEA410118BF81F00701013B9A
:100FC000C9B2F5D19042EED11022304808F09EFB14
:100FD0002E4808F08BFBF8E509212E480AF030FF77
:100FE000234610224146294808F090FB0121284859
:100FF0000AF026FF234610229DF80910234808F026
:1010000085FB012122480AF01BFF102223469DF890
:101010000A101E4808F07AFB01211D480AF010FF53
:1010200021460DF10B0002AA12F8014B6140C9B232
:10103000082311F0800F4FEA410118BF81F007012A
:10104000013BC9B2F5D19042EED110220F4808F011
:101050005DFB0E4808F04AFB41E507210E480AF007
:10106000EFFEBCE507210C480AF0EAFE41E5072146
:1010700009480AF0E5FE87E6072107480AF0E0FE86
:1010800023E600BF202901006C290100D087FF1F43
:1010900008300100D8280100E42801009DF80C3038
:1010A00097F88420B3EB420F7FF4EEAE9DF80D303D
:1010B000012B7FF4E9AE9DF80E30122B7FF4E4AEE5
:1010C0009DF810309DF80F0003EB00200DF0A2F802
:1010D0008B490DF0F3F8796EF86404460DF0AAFA26
:1010E00000B17C66396E20460DF086FA00B13C6690
:1010F0003D1FAB4607F1180807F130064FF0000915
:101100009AF806309AF8050003EB00200DF082F8FB
:101110007C490DF0D3F84BF8040FD8F800100446C2
:101120000DF06AFA09F101090AF1020A30B1B96E4B
:1011300020460DF075FA08B1C8F800403168204625
:101140000DF078FA08F1040800B13460B9F1060F27
:1011500006F10406D4D10020B86407F1140455F850
:10116000041F0CF0A3FFAC42F9D19DF81D209DF89F
:101170001E30B86403EB022002300DF04BF86249D8
:101180000DF050F9014661480DF04CF960490CF042
:101190008BFF60490DF092F805460BF0FDF8044610
:1011A00028460BF0F9F85C490BF068F95B490546F5
:1011B00020460DF083F85A490CF078FF594904464F
:1011C00028460DF07BF8014620460CF06FFF0146E3
:1011D0004FF07E500DF026F953490CF065FF9DF855
:1011E0001F209DF82030386503EB022009300DF0F8
:1011F00011F84E490DF016F9014644480DF012F968
:1012000043490CF051FF43490DF058F805460BF0E7
:10121000C3F8044628460BF0BFF83F490BF02EF9FF
:101220003E49054620460DF049F83D490CF03EFF89
:101230003C49044628460DF041F8014620460CF092
:1012400035FF01464FF07E500DF0ECF836490CF0BA
:101250002BFFD7F8808078650446B8F1000F3BD1AA
:101260003D6D29462E460DF0E5F968B32946B86D67
:101270000DF0E0F9E0B1BD65B8F1000F17D008F14D
:10128000130657F82640F96D20460DF0D3F900B14A
:10129000FC65274801F01CFF0120F6E59DF8219030
:1012A000244849464246C34601F012FFE3E53E6D3D
:1012B000314620460DF0BEF9C8B1F96D20460DF05B
:1012C000B9F90028E4D1E4E7B96D20460DF094F9AE
:1012D0000028EDD02546CEE708F11306B96D57F882
:1012E000265028460DF088F90028C4D1C9E73146B8
:1012F000F86D0DF081F90028CBD03446C8E700BF67
:101300006B57053B2003C839001601470AD7E33F56
:10131000E17A644000007A4400004040A40D8F3917
:101320005A80473A46A6DB3333938843002C014763
:101330004429010020290100052994BF50F821000B
:10134000002070472DE9F0410B4E8046041F00F14C
:10135000140754F8045F314628460DF04DF930B1BA
:10136000D8F8681028460DF065F900B12E46BC4249
:10137000EFD13046BDE8F08100002041F8B50026ED
:10138000041F00F1140754F8045F314628460DF09D
:1013900051F900B12E46BC42F5D13046F8BD00BF30
:1013A0002DE9F047876E82464FF00009041F00F1D7
:1013B00014064FF0000854F8045F394628460DF033
:1013C00039F90D4950B128460DF016F930B14846AB
:1013D00029460CF06BFE08F101088146B442EAD1BF
:1013E000CAF8888040460CF015FF014648460DF0CB
:1013F00019F8BDE8F08700BF00007042D0F88800FF
:10140000704700BF38B5D0F8803043B9456D046DE2
:10141000294620460DF0F0F830B1204638BD133390
:1014200050F82340204638BD2C46204638BD00BF2A
:1014300038B5D0F8803043B9446D056D2146284653
:101440000DF0DAF830B1204638BD133350F82340A0
:10145000204638BD2C46204638BD00BF08B5D0F820
:1014600080301BB1133350F8230008BD416D006D6F
:101470000CF01CFE4FF07C510CF020FF08BD00BFAB
:10148000806C704701299ABF143150F82100002068
:10149000704700BF3E2998BF80F88410704700BF96
:1014A00090F86C00704700BFC0F88010704700BF14
:1014B00080F86C10704700BF8166704770B500F50A
:1014C0000A5506461C3500F1280420468C34FEF7E8
:1014D000CDFFAC42F9D106F1B40501242846002124
:1014E000FFF7E6FF214628460134FFF7D3FF3F2CE4
:1014F00005F18C05F2D142F2A42400250548064AE4
:10150000064B3555002130617161B261F36130469F
:1015100070BD00BF00007A44000048430000C8C20C
:1015200038B500F50A551C3500F1B40402E08C34DE
:10153000AC420AD02046FFF7B3FF0028F7D0204680
:101540008C34FEF7BBFFAC42F4D138BD2DE9F0413D
:1015500042F2A82300F50A56374600228046C250C0
:101560001C36283700F1B40402E08C34B4420DD0AC
:101570002046FFF795FF0028F7D020463D68FFF78B
:101580003DFF8C342844B4423860F1D142F2A823A4
:1015900058F80300BDE8F0812DE9F04F93B0814683
:1015A00042F2AC231046019201284FF0000206914E
:1015B00049F8032000F0038209F50A532C330793FE
:1015C00009F1B40A4FF0010B5046FFF769FFC0B1B3
:1015D00000263446012531465046D9F80870FFF7F9
:1015E000ABFE014638460DF007F818B105FA06F3D0
:1015F0001C43E4B20136062EEDD1019B012B0AD02B
:10160000F4B90BF1010BBBF13F0F0AF18C0ADBD1EE
:1016100013B0BDE8F08F5946BD4808F0B7F8032174
:10162000BC480AF00DFC214600230222B84808F00D
:101630006DF80321B8480AF003FC002C00F0188173
:101640004FEA4B03DBB21946029343F001039DF8C6
:10165000182003931D46184633238DF826208DF855
:1016600025308DF8241009F0A9FB0DF12500022189
:1016700009F0AEFB09AA05928DF824502A4609AB61
:101680000DF1260600205040082510F0800F4FEA8B
:10169000400018BF80F00700013DC0B2F5D19E4266
:1016A00002D013F8012FEEE709F088FB01F00AFCE5
:1016B000002840F0EC809DF808308DF8243002209E
:1016C00008F070FE01F0FEFB002840F06E810AABCE
:1016D00004931F46002509F091FB002844D01E2DDD
:1016E00035D101E009F09AFB09F088FB0028F9D117
:1016F00001F0E8FB00283DD1019B012B40D0039D68
:101700009DF808208DF82420322328468DF82530B6
:101710008DF8264009F052FB0DF12500022109F059
:1017200057FB8DF8245009AB2A460020504008256D
:1017300010F0800F4FEA400018BF80F00700013D15
:10174000C0B2F5D19E423BD013F8012FEEE709F06D
:1017500065FB07F8010B804601F0B4FB20BB0135A7
:1017600009F04CFB0028BAD11E2DBDD001F0AAFB18
:101770000028C1D0664807F0B9FF019B012BBED1FC
:10178000049D0BAF15F8011B61480023102207F0E0
:10179000BDFF012161480AF053FBAF42F2D10321A2
:1017A0005D480AF04DFBAAE75FFA88F1002310229A
:1017B000574807F0ABFF012159480AF041FBCEE73B
:1017C00009F0FCFA01F07EFB002840F0AD809DF8A6
:1017D00008308DF82430022008F0E4FD01F072FB9F
:1017E000002840F0E780049E002509F007FB00B3C5
:1017F0001E2D11D101E009F011FB09F0FFFA0028BC
:10180000F9D101F05FFBD0B9019B012B1DD0079AE4
:1018100013681C441460F4E609F000FB06F8010BA1
:10182000074601F04FFB38BB013509F0E7FA002805
:10183000DED11E2DE1D001F045FB0028E4D0344874
:1018400007F054FF019B012BE1D1049E0BAD16F86C
:10185000011B2F480023102207F058FF01212F48B9
:101860000AF0EEFAAE42F2D1079A136823441360ED
:10187000274807F03BFFC4E6F9B2002310222448B2
:1018800007F044FF012126480AF0DAFACCE70921E3
:1018900024480AF0D5FA2B46102203991C4807F079
:1018A00035FF01211E480AF0CBFA2B4610229DF885
:1018B0002510174807F02AFF012119480AF0C0FA3D
:1018C00010222B469DF82610114807F01FFF01211A
:1018D00013480AF0B5FA29460DF1270009AA12F8B3
:1018E000013B5940C9B2082311F0800F4FEA410172
:1018F00018BF81F00701013BC9B2F5D19042EED18A
:101900001022034807F002FF014807F0EFFED2E67D
:10191000D087FF1FBC290100C0290100C429010094
:1019200008300100D8280100092127480AF088FA68
:101930002B4610220399254807F0E8FE0121244890
:101940000AF07EFA2B4610229DF825101F4807F05A
:10195000DDFE01211E480AF073FA10222B469DF885
:1019600026101A4807F0D2FE012119480AF068FA39
:10197000059829460DF1270210F8013B5940C9B2DC
:10198000082311F0800F4FEA410118BF81F00701D1
:10199000013BC9B2F5D18242EED110220B4807F0CB
:1019A000B5FE0A4807F0A2FE11E7072109480AF030
:1019B00047FA8CE6072107480AF042FA13E7034882
:1019C00007F094FEF8E500BFD8280100D087FF1F7C
:1019D00008300100E42801002DE9F04F824685B06F
:1019E0004FF0000901238DF800908DF801908DF8DB
:1019F00002304FF003080024204609F0DFF90221ED
:101A00000DF1010009F0E4F98DF8004001F05AFAF7
:101A100030B30921B5480AF013FA002310222146F9
:101A2000B34807F073FE0121B2480AF009FA002317
:101A300010229DF80110AE4807F068FE0121AD4864
:101A40000AF0FEF9002310229DF80210A84807F0C2
:101A50005DFE0121A7480AF0F3F9A54807F046FE0C
:101A600002208DF8004008F09DFC01F02BFA0028C0
:101A700040F0898001AF3E46002409F0BFF90028FC
:101A800067D0042C58D101E009F0C8F909F0B6F983
:101A90000028F9D101F016FA10B1954807F026FE9A
:101AA0009DF80430802B40F01E819DF80530002BFE
:101AB00040F019819DF80640012C40F014818E48B9
:101AC00001F006FB0AF1B406254604E001353F2D7E
:101AD00006F18C0686D03046FFF7E2FC83460028EC
:101AE000F4D13B2265F07F0301208DF801208DF8B1
:101AF00002308DF800B009F061F90DF1010002210A
:101B000009F066F901228DF80020E84658466B4638
:101B10000DF102026040C0B2082410F0800F4FEABD
:101B2000400018BF80F00700013CC0B2F5D19342DD
:101B30002ED013F8014FEDE709F070F906F8010B0C
:101B4000054601F0BFF998B9013409F057F90028AA
:101B500097D1042C9AD001F0B5F910B1644807F080
:101B6000C5FDB8F1010800F0BE809DF8004043E7D4
:101B7000E9B2002310225E4807F0C8FD01215D484C
:101B80000AF05EF9E0E707215C480AF059F971E7CD
:101B900009F014F901F096F900285AD103208DF8C4
:101BA000009008F0FFFB01F08DF9002840F09680CE
:101BB000002409F023F9B0B30A2C27D101E009F081
:101BC0002DF909F01BF90028F9D101F07BF9002863
:101BD0007FD19DF80430812B7FF404AF9DF8053050
:101BE0003B2B7FF4FFAE9DF806308035AB427FF48F
:101BF000F9AE30460121FFF75BFC0AF50A53404875
:101C00001A6A01321A6201F063FAEBE609F006F98A
:101C100007F8010B804601F055F970B9013409F05D
:101C2000EDF80028C8D10A2CCBD001F04BF90028E0
:101C300050D1022C7FF7D6AECBE75FFA88F10023B4
:101C400010222B4807F062FD01212A480AF0F8F81B
:101C5000E4E7092125480AF0F3F823461022012180
:101C6000234807F053FD012122480AF0E9F82346F2
:101C700010229DF801101E4807F048FD01211D4863
:101C80000AF0DEF8102223469DF80210184807F0EB
:101C90003DFD012117480AF0D3F821460DF103025A
:101CA00018F8014B6140C9B2082311F0800F4FEAC8
:101CB000410118BF81F00701013BC9B2F5D142458E
:101CC000EED110220A4807F021FD094807F00EFD69
:101CD00064E70A24064807F009FDAAE70721074838
:101CE0000AF0AEF864E705B0BDE8F08FD82801002F
:101CF000D087FF1F08300100C8290100E428010037
:101D0000D42901002DE9F04742F2A02284B000233B
:101D10000127835082468DF804308DF8053000F19C
:101D2000B4088DF806704FEA47095FFA89F400217C
:101D30004046FFF7BDFB20468DF8044009F03EF811
:101D400002210DF1050009F043F88DF8044001F07F
:101D5000B9F830B3092149480AF072F8002310227B
:101D60002146474807F0D2FC012146480AF068F8AE
:101D7000002310229DF80510414807F0C7FC0121FF
:101D800040480AF05DF8002310229DF806103C48F8
:101D900007F0BCFC01213B480AF052F8384807F034
:101DA000A5FC14208DF8044008F0FCFA01F08AF834
:101DB00000285DD102AE002409F020F840B3082CC1
:101DC00019D101E009F02AF809F018F80028F9D132
:101DD00001F078F8002846D19DF808304B4522D014
:101DE0000137052008F0DEFA3F2F08F18C089AD160
:101DF00004B0BDE8F08709F011F8054606F8010BBC
:101E000001F060F820BB013408F0F8FF0028D6D1BB
:101E1000082CD9D001F056F830BB042CE0DD9DF839
:101E200008304B45DCD19DF80930002BD8D19DF806
:101E30000A100129D4D19DF80C30002BD0D0404697
:101E4000FFF736FB0AF50A531A6A01321A62C7E72E
:101E5000E9B2002310220A4807F058FC0121094882
:101E600009F0EEFFCFE70824054807F03FFCD4E770
:101E70000721054809F0E4FF9CE700BFD8280100CE
:101E8000D087FF1F08300100E42801002DE9F0474A
:101E900000F50A56354684B080461C36203500F1E0
:101EA000B4040027204600218C34FFF701FBB44224
:101EB0002F60F7D102270DF106064FF07F093C2273
:101EC000A5237E217F208DF805208DF806308DF822
:101ED000041001AD08F072FF0DF10500022108F0B9
:101EE00077FF8DF804902B467F2200205040082475
:101EF00010F0800F4FEA400018BF80F00700013C4F
:101F0000C0B2F5D1B34202D013F8012FEEE708F0CA
:101F100055FF00F0D7FF00285AD17E2364208DF8AA
:101F2000043008F03FFA00F0CDFF002840F0908028
:101F30000DF1080A002408F061FF20B3082C15D128
:101F400001E008F06BFF08F059FF0028F9D100F01C
:101F5000B9FFF0B99DF808307F2B21D0013FAED1F9
:101F60004046FFF739FD04B0BDE8F08708F056FFA2
:101F700005460AF8010B00F0A5FFF0B9013408F09E
:101F80003DFF0028DAD1082CDDD000F09BFF0028AF
:101F9000E0D0324807F0AAFB9DF808307F2BDDD156
:101FA0009DF809303C2BD9D19DF80A30A52BD5D10D
:101FB0009DF80B30572BD1D1D2E7E9B20023102284
:101FC000264807F0A3FB0121254809F039FFD5E792
:101FD0000921244809F034FF234610227F211F489D
:101FE00007F094FB01211E4809F02AFF2346102226
:101FF0009DF80510194807F089FB0121184809F0E0
:102000001FFF102223469DF80610144807F07EFBA0
:102010000121134809F014FF21460DF1070215F8BC
:10202000014B6140C9B2082311F0800F4FEA410112
:1020300018BF81F00701013BC9B2F5D1AA42EED128
:102040001022064807F062FB044807F04FFB64E7E4
:102050000721054809F0F4FE6AE700BFD087FF1F9B
:1020600008300100D8280100E42801002DE9F043E0
:1020700085B04FF07F082022FF2381468DF8048031
:102080008DF805208DF8063003260DF1060548F081
:102090000107384608F092FE0DF10500022108F014
:1020A00097FE8DF804703A4601AB0020504008249A
:1020B00010F0800F4FEA400018BF80F00700013C8D
:1020C000C0B2F5D1AB4202D013F8012FEEE708F011
:1020D00075FE00F0F7FE002840F0768202208DF8B1
:1020E000048008F05FF900F0EDFE002840F0B282B5
:1020F0000DF10808002408F081FE002843D0042CCC
:1021000034D101E008F08AFE08F078FE0028F9D109
:1021100000F0D8FE10B1C14807F0E8FA4FF07F0890
:1021200000238DF804808DF80630032648F001075F
:10213000384608F043FE0DF10500022108F048FE84
:102140008DF804703A4601AB00205040082410F08E
:10215000800F4FEA400018BF80F00700013CC0B27A
:10216000F5D1AB4228D013F8012FEEE708F056FE68
:1021700008F8010B074600F0A5FE70B9013408F01D
:102180003DFE0028BBD1042CBED000F09BFE78B9E8
:10219000013EC3D09DF8048079E7F9B200231022F4
:1021A0009E4807F0B3FA01219D4809F049FEE5E792
:1021B0009A4807F09BFAEBE708F000FE00F082FE79
:1021C000002840F0C08102208DF8048008F0EAF871
:1021D00000F078FE002840F038820DF10808002455
:1021E00008F00CFE002846D0042C37D101E008F09E
:1021F00015FE08F003FE0028F9D100F063FE10B1CF
:10220000864807F073FA4FF07F082122FF238DF8EC
:1022100004808DF805208DF80630032648F001076C
:10222000384608F0CBFD0DF10500022108F0D0FD85
:102230008DF804703A4601AB00205040082410F09D
:10224000800F4FEA400018BF80F00700013CC0B289
:10225000F5D19D4228D013F8012FEEE708F0DEFDFE
:1022600008F8010B074600F02DFE70B9013408F0A4
:10227000C5FD0028B8D1042CBBD000F023FE78B9EE
:10228000013EC0D09DF8048050E7F9B2002310222F
:10229000624807F03BFA0121614809F0D1FDE5E70A
:1022A0005E4807F023FAEBE708F088FD00F00AFE2D
:1022B000002840F0078102208DF8048008F072F8B1
:1022C00000F000FE002840F0CF810DF10808002446
:1022D00008F094FD002843D0042C34D101E008F02C
:1022E0009DFD08F08BFD0028F9D100F0EBFD10B149
:1022F0004A4807F0FBF94FF07F0800238DF804806F
:102300008DF80630032648F00107384608F056FDE0
:102310000DF10500022108F05BFD8DF804703A46CE
:1023200001AB00205040082410F0800F4FEA40001D
:1023300018BF80F00700013CC0B2F5D19D4228D003
:1023400013F8012FEEE708F069FD08F8010B0746C6
:1023500000F0B8FD70B9013408F050FD0028BBD181
:10236000042CBED000F0AEFD78B9013EC3D09DF87C
:10237000048053E7F9B200231022284807F0C6F979
:102380000121274809F05CFDE5E7244807F0AEF994
:10239000EBE708F013FD00F095FD002851D1022075
:1023A0008DF8048007F0FEFF00F08CFD002840F05F
:1023B00056810DF10808002408F020FD18B3042C04
:1023C00014D101E008F02AFD08F018FD0028F9D129
:1023D00000F078FD10B1114807F088F942F2A4230B
:1023E000002209F8032005B0BDE8F08308F016FDCF
:1023F00008F8010B074600F065FD98B9013408F0B4
:10240000FDFC0028DBD1042CDED000F05BFDA0B980
:10241000013EE3D09DF8048075E700BFD087FF1F21
:1024200008300100F9B200231022924807F06EF93B
:102430000121914809F004FDE0E78E4807F056F9C4
:10244000E6E709218D4809F0FBFC234610223946B6
:10245000884807F05BF90121874809F0F1FC234621
:1024600010229DF80510834807F050F90121824899
:1024700009F0E6FC102223469DF806107D4807F07F
:1024800045F901217C4809F0DBFC21460DF10700EC
:1024900001AA12F8014B6140C9B2082311F0800F64
:1024A0004FEA410118BF81F00701013BC9B2F5D1E4
:1024B0009042EED110226F4807F028F96D4807F0DE
:1024C00015F96CE709216D4809F0BAFC2346102282
:1024D0003946684807F01AF90121674809F0B0FC4D
:1024E000234610229DF80510624807F00FF90121DC
:1024F000614809F0A5FC102223469DF806105D48AE
:1025000007F004F901215C4809F09AFC21460DF11D
:10251000070001AA12F8014B6140C9B2082311F06B
:10252000800F4FEA410118BF81F00701013BC9B29A
:10253000F5D19042EED110224E4807F0E7F84D4811
:1025400007F0D4F8B7E609214C4809F079FC234696
:1025500010223946474807F0D9F80121464809F0CA
:102560006FFC234610229DF80510424807F0CEF874
:102570000121414809F064FC102223469DF8061011
:102580003C4807F0C3F801213B4809F059FC2146BB
:102590000DF1070001AA12F8014B6140C9B20823EE
:1025A00011F0800F4FEA410118BF81F00701013B94
:1025B000C9B2F5D19042EED110222E4807F0A6F80C
:1025C0002C4807F093F8FEE509212C4809F038FC67
:1025D000234610223946274807F098F8012126485B
:1025E00009F02EFC234610229DF80510214807F023
:1025F0008DF80121204809F023FC102223469DF884
:1026000006101C4807F082F801211B4809F018FC4D
:1026100021460DF1070001AA12F8014B6140C9B231
:10262000082311F0800F4FEA410118BF81F0070124
:10263000013BC9B2F5D19042EED110220D4807F00E
:1026400065F80C4807F052F848E507210C4809F0F6
:10265000F7FBC2E507210A4809F0F2FB48E507212C
:10266000074809F0EDFBA4E60721054809F0E8FB5F
:102670002BE600BFD087FF1F08300100D8280100DB
:10268000E428010038B500F50A551C3500F1B40402
:1026900002E08C34AC420AD02046FEF701FF00284D
:1026A000F7D020468C34FEF7F5F8AC42F4D138BDB3
:1026B0002DE9F04F00218C4A8C4B016000F1B405EC
:1026C00000F50A5783B08246426203622C461C37EB
:1026D00002E08C34BC420AD02046FEF7E1FE00281E
:1026E000F7D020468C34FEF7D5F8BC42F4D1C82090
:1026F00007F058FE2C46012604E001363F2E04F177
:102700008C046ED02046FEF7CBFE0028F5D078482A
:1027100000F0DEFC3146774800F0DAFC2046FEF798
:102720008DF92046FEF7ACFE0BF01EF902460B4673
:10273000714800F0CDFC2046FEF704FE804620469E
:10274000FEF71CFE834640460BF00EF980465846C5
:1027500089460BF009F942464B46CDE9000167482E
:1027600000F0B6FC00212046FEF78CFE01218046D9
:102770002046FEF787FE834640460BF0F5F880467C
:10278000584689460BF0F0F842464B46CDE9000129
:102790005B4800F09DFC2046FEF772FE0146DAF829
:1027A00000000BF083FCCAF800002046FEF72AFE6A
:1027B000DAF818100BF020FF00287BD12046FEF736
:1027C00037FEDAF81C100BF035FF002895D02046B4
:1027D000FEF72EFE01363F2ECAF81C0004F18C04D1
:1027E00090D1DAF804000BF015FD0146DAF800008C
:1027F0000BF018FEDAF81410CAF8000004460BF0CB
:1028000019FF08B1CAF81440DAF8101020460BF08E
:10281000F3FE08B1CAF810400B2007F08DFD42F21C
:10282000A4231AF8033000284AD1002B58D042F2D2
:10283000A42301220AF803200023CAF80C302C46F6
:1028400002E08C34BC4215D02046FEF729FE002859
:10285000F7D02046FEF792FDDAF80C100BF0EAFEF6
:102860000028EED02046FEF789FD8C34BC42CAF821
:102870000C00E9D1234BCAF8083002E08C35BD4288
:1028800015D02846FEF70CFE0028F7D02846FEF7A4
:1028900059FDDAF808100BF0AFFE0028EED02846FC
:1028A000FEF750FD8C35BD42CAF80800E9D103B0EF
:1028B000BDE8F08F2046FEF7A5FDCAF818007DE7B9
:1028C0002BB942F2A42300220AF80320B4E70E48F1
:1028D00000F016FC42F2A42300220AF80320ABE722
:1028E0000A4800F023FCA2E700C0794400C079C484
:1028F000C82B0100E8290100242A0100382A010020
:10290000642A01000000A040B82A0100802A0100CA
:1029100042F2AC23C058704780687047C068704767
:102920000068704741607047F8B500F50A550F46DA
:1029300016461C3500F1B40402E08C34AC420FD0D2
:102940002046FEF7ADFD0028F7D020463946FEF7B9
:10295000ABFD204631468C34FEF7AEFDAC42EFD1E4
:10296000F8BD00BF2DE9F041274A284B426200F52F
:102970000A5507464FF0000803621C3500F1B40405
:10298000002602E08C34A54210D02046FEF788FDD8
:102990000028F7D02046FEF761FD1D490BF04AFEE6
:1029A00080B98C34A54206F10106EED142F2A02393
:1029B000F858801B0BF02EFC014640460BF032FD10
:1029C000BDE8F0812046FEF749FD014640460BF088
:1029D0006DFB80462046FEF741FD396A0BF02AFE6A
:1029E00060B92046FEF73AFD796A0BF005FE002833
:1029F000C8D02046FEF732FD7862C3E72046FEF7D6
:102A00002DFD3862EDE700BF00C0794400C079C4F5
:102A100000008CC2006A7047406A7047F8B500F544
:102A20000A55074600261C3500F1B40402E08C3438
:102A3000AC420FD02046FEF733FD0028F7D02046E9
:102A4000FEF7AEFC014630460BF030FB8C34AC4256
:102A50000646EFD142F2A023F8580BF0DBFB01460B
:102A600030460BF0DFFCF8BD2DE9F04F06468FB085
:102A700076488B4600F0D4FA744800F0D1FA7348D7
:102A800000F0CEFA42F2A0233046F2580D92FEF743
:102A90005DFD73680C93074630680AF065FF804659
:102AA00030468946FFF7BAFF82463046B468F5687B
:102AB000FFF758FF0AF058FFCDE90A0121462846E2
:102AC0000BF0F2FA62490BF0F9FB0AF04DFFCDE989
:102AD000080128460AF048FFCDE9060120460AF021
:102AE00043FFCDE9040150460AF03EFF0D9A0C9BCE
:102AF000CDE90201CDE90089114656483A4600F079
:102B00008FFA524800F08CFAB43601274FF0000AD1
:102B100005E001373F2F06F18C0600F08E8030462D
:102B2000FEF7BEFC0028F4D03046FDF7A3FE304689
:102B3000FDF7A4FE3046FDF7A5FE3046FDF7A6FEE4
:102B40000821454809F07CF93946444806F01EFE44
:102B5000092F75DD0221424809F072F93046FEF76F
:102B60008FFC0AF001FF5FFA8BF902460B46CDF8A5
:102B700000903A4806F014FE01213A4809F060F945
:102B80005546002420E00621374809F059F9294626
:102B9000324806F0FBFD0221344809F051F9214684
:102BA0003046FEF7C9FB0AF0DFFECDF80090024682
:102BB0000B462A4806F0F4FD01340121294809F0AA
:102BC0003FF9062C09D04546092D05F10108DADC4C
:102BD0000121274809F034F9D5E71121254809F0EA
:102BE0002FF900213046FEF74DFC0AF0BDFE02240D
:102BF00002460B460094194806F0D2FD12211E48E9
:102C000009F01EF901213046FEF73CFC0AF0ACFE4B
:102C1000009402460B46114806F0C2FD01211748F8
:102C200009F00EF901370D4806F060FD3F2F0AF15B
:102C3000060A06F18C067FF472AF0FB0BDE8F08F84
:102C400001210B4809F0FCF884E700BFC82B010004
:102C500000007A44602D0100002E0100D087FF1F84
:102C6000E43C01000C2E0100102E0100F82F0100A1
:102C700008300100182E01002C2E0100402E01000A
:102C80002DE9F04F85B000F1B4058A4603929B46CA
:102C90002E464FF0010806E008F10108B8F13F0F99
:102CA00006F18C067BD03046FEF7FAFB0028F3D005
:102CB00000230A2251467D4806F028FD01217C4868
:102CC00009F0BEF803980AF04FFE00230246009375
:102CD00076480B4606F064FD0121754809F0B0F80E
:102CE0005946724806F052FD0121714809F0A8F8D2
:102CF00041466E4806F04AFD01216D4809F0A0F8F2
:102D000000244FF0020921463046FEF715FB0AF079
:102D10002BFECDF8009002460B46644806F040FDBD
:102D200001340121624809F08BF8082C4FF00207AA
:102D3000E9D100213046FEF7A5FB0AF015FE009709
:102D400002460B46594806F02BFD0121584809F070
:102D500077F801213046FEF795FB0AF005FE009753
:102D600002460B46514806F01BFD0121504809F070
:102D700067F839463046FEF785FB0AF0F5FD009707
:102D800002460B46494806F00BFD08F1010847488A
:102D900006F0ACFCB8F13F0F06F18C0683D1012799
:102DA0004FF0000904E001373F2F05F18C0579D081
:102DB0002846FEF775FB0028F5D000230A2251466D
:102DC0003C4806F0A3FC0121394807F0CBFD0398ED
:102DD0000AF0CAFDCDF8009002460B46354806F0D1
:102DE000DFFC0121324807F0BDFD5946314806F0AD
:102DF000CDFC01212E4807F0B5FD39462D4806F0DF
:102E0000C5FC01212A4807F0ADFD00244FF002085F
:102E100021462846FEF790FA0AF0A6FDCDF800807C
:102E200002460B46234806F0BBFC01340121204832
:102E300007F098FD082C4FF00206E9D10021284642
:102E4000FEF720FB0AF090FD009602460B4619485B
:102E500006F0A6FC0121164807F084FD0121284652
:102E6000FEF710FB0AF080FD009602460B46114863
:102E700006F096FC01210E4807F074FD3146284605
:102E8000FEF700FB0AF070FD009602460B4609486B
:102E900006F086FC0137074806F028FC3F2F05F1B5
:102EA0008C0585D105B0BDE8F08F00BFD087FF1F2E
:102EB000442E0100B487FF1F014B1870704700BFFC
:102EC0002087FF1F024B1878B0FA80F04009704746
:102ED0002087FF1F0278002A00F0908070B503461B
:102EE00082B00D46252A2AD158785C1C08B32528C3
:102EF0002FD0732831D0642824D0692822D06628A6
:102F00004FD07A2859D0782835D058282FD0622829
:102F10003ED0422838D06C2814D0632812D07428B0
:102F200057D054285FD009F00FF86278631C002A4C
:102F3000D8D1344802B0BDE8704006F0D7BB18784D
:102F40001C46F0E72B1D29682E481D4606F01EFC86
:102F5000EBE7104608F0F8FFE7E72E6830460CF084
:102F6000CFF901463046043508F06AFFDDE702215B
:102F7000254808F065FF2E1D2968224800231022ED
:102F8000354606F0C3FBD0E70221204808F058FF81
:102F90002E1D29681B4800230222354606F0B6FB89
:102FA000C3E7073525F007050321D5E900231548B8
:102FB0000091083506F0F4FBB7E7073525F0070563
:102FC0000021D5E900230F480091083506F0E8FB01
:102FD000ABE7296801290EBF0D480E4801210435D1
:102FE00008F02EFFA1E72B68012B07BF04210A4838
:102FF0000A480521043508F023FF96E7014806F04A
:1030000075BB00BFD087FF1F482E01004C2E01006A
:10301000502E0100542E0100582E0100602E010098
:103020000FB400B583B004A951F8040B0191FFF768
:1030300051FF03B05DF804EB04B0704770B51B4B53
:103040001B4C1B6882B00D460193019B23601946FF
:1030500004460023164617480A2206F057FB0321B0
:10306000154808F0EDFE032C07D8DFE804F01A1528
:1030700010020521114808F0E3FE0221104808F073
:10308000DFFE31462846FFF725FF02B070BD07215D
:103090000C4808F0D5FEF0E704210B4808F0D0FEFC
:1030A000EBE70521094808F0CBFEE6E7F4B9FF1F7E
:1030B0004C92FF1FD087FF1FBC290100802E01000A
:1030C000F82F0100782E0100702E0100682E0100FB
:1030D0000FB400B5094B187883B020B103B05DF888
:1030E00004EB04B0704705AB1A4604990193FFF74F
:1030F000A5FF03B05DF804EB04B070472087FF1F05
:103100000FB4094B00B51B78012B83B004D903B071
:103110005DF804EB04B0704705AB1A4604990193BF
:103120000120FFF78BFFF2E72087FF1F0FB40B4B47
:1031300000B51B78032B83B004D903B05DF804EB12
:1031400004B0704705AB1A46049901930320FFF7BA
:1031500075FF03B05DF804EB04B070472087FF1FD4
:1031600030B4074D074C084900232B7023600365DA
:103170004365836580F85C300B6030BC704700BFEE
:103180005892FF1F5492FF1F5092FF1F38B50446FC
:1031900008460D460CF0B4F82368024629465B68E1
:1031A000204698470546204606F0A0FA284438BD38
:1031B0002DE9F84349484A4F4A4C4B4D4B4EFFF7D7
:1031C0002FFF4B4B4B495F6014274B484B4ADFF8AE
:1031D00050E11F70596100274FF07C51D8601C618D
:1031E0004748484C5A629D61474A484D9E62C3F821
:1031F0002CE00C26DFF82CE11F635964444F45494D
:1032000058639C63022001249A64DD640022322505
:103210001E65C3F820E064264FF4967EC3F8C070A4
:10322000D9614FF41677D96341F2883158705872DA
:103230001C725C6583F84020C3F8A0501D66C3F87B
:1032400064E0C3F85CE0A3F8C870A3F8CA109E65F8
:1032500040F61C4CA3F8CC704FF00A0EA3F8CE1029
:103260009A67D867C3F88040C3F88420C3F88810F1
:10327000C3F88C50C3F8A85041F20407C3F8A42047
:10328000C3F8B0404FF05A08C3F8B4004FF47A794D
:10329000214DA3F8BC10214C83F8C52083F8C6202B
:1032A000FF2040F2D6620521C3F8B860C3F868C0B9
:1032B000C3F86CE01F67C3F87480C3F89090C3F83C
:1032C0009450C3F89840C3F8AC00A3F8BE10A3F81C
:1032D0009C20A3F89E20BDE8F88300BF882E010043
:1032E00020A1070000004040CDCC4C4000008242AD
:1032F0005893FF1F3333834066668640CDCCCC3D68
:10330000000020420000A0409A9979400AD7233D4E
:103310009A99993ECDCC4C3E0000684200C02044B2
:10332000000020C133337340F0B54FF47A6085B0AC
:1033300007F038F800210F2007F00CF800210E20CC
:1033400007F008F80021112007F004F800211020F0
:1033500007F000F80021122006F0FCFF00211320E6
:1033600006F0F8FF01210B2006F0F4FF01210C20EC
:1033700006F0F0FF0121142006F0ECFF01211520DA
:1033800006F0E8FF0121162006F0E4FF01211720D6
:1033900006F0E0FF01210520AE4CAF4D06F0DAFF4C
:1033A0000121062006F0D6FF01210D2006F0D2FFF4
:1033B00020880AF02BFF0146162006F035FF2088F2
:1033C0000AF024FF0146172006F02EFF20880AF09D
:1033D0001DFF0146052006F027FF20880AF016FF92
:1033E0000146062006F020FF05F1D0062F462C46A8
:1033F000601B06F0E9FB04F8010BB442F8D13B78FE
:10340000142B01D0FFF7D4FE944C7968944A954868
:1034100000252B46009505F099FB20684FF0FF3200
:10342000102104F03BFE20684FF0FF32102104F021
:103430000DFE20684FF0FF32042104F01BFE2068CF
:103440004FF0FF32012104F01FFE2A460F212068B1
:1034500004F02EFE0C21844808F0F2FC834806F0AC
:1034600045F91021824808F0EBFC804806F03EF94F
:1034700040F2836007F054F87C4806F037F91721D2
:103480007C4808F0DDFC794806F030F97A4B1B786F
:10349000990600F1D680784B1B781A0700F1C98095
:1034A000754B1B785B0700F1BC80734B1B789E0744
:1034B00000F1A380714B1B781D0600F1AA806F4BB1
:1034C0001B785C0600F191806C4B1B78980600F12C
:1034D00084806A4B1B78590777D4684B1B781A078E
:1034E0006BD4664B1B789B0706D51821644808F0FF
:1034F000A7FC5E4806F0FAF85C4806F0F7F872B6EA
:10350000604A4CF220534DF62811202513802B469B
:103510001180013BFDD15C485C495D4B00244FF4B8
:10352000805606800C801C8032F80E3C9BB243F023
:10353000D30322F80E3C62B69D2007F0EFFB29462C
:10354000544808F07DFC494806F0D0F85248FEF790
:103550009DFC0420FFF7B0FC504B4F481C60FEF769
:10356000D1FB01210D2006F0E1FE796D4A484C4C5B
:10357000FFF7D8F97A6C97F840104748FFF7D4F96D
:10358000484B49491B68494A4348126881FB03512B
:10359000DB17A3EB211313FB02F32380FEF766FD79
:1035A000434B44491A68039203981B680293029A9A
:1035B000414B08601A6005B0F0BD19213F4808F082
:1035C0003FFC2A4806F092F88BE71C213C4808F0A3
:1035D00037FC264806F08AF87FE71321394808F0BF
:1035E0002FFC224806F082F873E71221364808F0D3
:1035F00027FC1E4806F07AF866E71721334808F0E2
:103600001FFC1A4806F072F81C4B1B781D067FF54C
:1036100056AF0E212E4808F013FC144806F066F849
:103620004DE70E212B4808F00BFC104806F05EF821
:103630003BE70C21284808F003FC0C4806F056F83C
:103640002EE72121254808F0FBFB084806F04EF83C
:1036500021E700BF2887FF1F5893FF1FE094FF1F3B
:10366000CCB9FF1F30B8FF1FA82E0100D087FF1F65
:10367000B82E0100CC2E010001F0074000F00740F9
:10368000B42F01000E20054004200540062005400F
:1036900016200540D02F01008095FF1F7092FF1F5C
:1036A000EC94FF1F6487FF1F1F85EB516087FF1F8E
:1036B000F4B9FF1F1895FF1F9894FF1F982F010062
:1036C000782F0100642F0100502F0100282F0100E6
:1036D000402F0100182F0100082F0100E42E0100E7
:1036E00070B5464C464D4748E66800232B70FFF7FF
:1036F00015F9014630460AF07FFF08B104232B700C
:103700004048FFF709F921690AF076FF18B12B78D4
:1037100043F010032B703B48FFF77CF9A16A0AF0D5
:1037200089FF18B12B7843F040032B7000233548F4
:103730006B70FFF771F9E16A314E0AF05DFF08B175
:103740000123737000232F48EB70FFF7E7F805465D
:103750002C482B4EFFF7E0F8014628460AF0A4FC5F
:10376000E16B0AF067FF08B10123F370264D25488D
:1037700000232B70FFF7D2F8616A0646E0680AF072
:1037800093FC014630460AF055FF08B104232B7024
:103790001C48FFF7C1F8616A064620690AF086FCFA
:1037A000014630460AF028FF18B12B7843F0100389
:1037B0002B701448FFF72EF9A16B0646A06A0AF099
:1037C00073FC014630460AF035FF18B12B7843F000
:1037D00040032B7000230B486B70FFF71DF9A16BA2
:1037E0000546E06A084C0AF061FC014628460AF0EA
:1037F00003FF08B10123637070BD00BF5893FF1F22
:103800005493FF1F8095FF1FD494FF1F2DE9F041B3
:103810007C4C2368012B82B031D0022B00F0A880B1
:10382000032B00F0C8803BBB774B784AD3F8A81035
:10383000D3F8AC3012685B1A632B0EDD744803FBBF
:1038400002F380FB0302DB17C3EB6213194406206B
:1038500002B0BDE8F04106F0E9BB6E4803FB02236D
:1038600080FB0302DB17C3EB22121144062002B0D7
:10387000BDE8F04106F0DABB02B0BDE8F081664E6B
:1038800033680A33B3F57A7F00F3B78018463360A4
:103890000AF0C0FC61490AF011FD80465A4DD5F886
:1038A000A8000AF0B7FC0746D5F8AC000AF0B2FC55
:1038B00039460AF0F9FB41460AF000FD58490AF082
:1038C000B1FD39460AF0F2FB0AF0D4FE01460620AB
:1038D00006F0ACFB0221534808F0B2FA524805F05A
:1038E00005FF0621514808F0ABFA30680AF092FC57
:1038F0004A490AF0E3FC0AF037F8022702460B4671
:103900000097494805F04CFF0D21494808F098FA06
:10391000D5F8A8000AF07EFC804630680AF07AFCF0
:103920003E490AF0CBFC0646D5F8AC000AF072FC22
:1039300041460AF0B9FB014630460AF0BFFC38495F
:103940000AF070FD41460AF0B1FB0AF00DF800974D
:103950000B460246344805F023FF3946314808F04B
:103960006FFA314805F0C2FE2368022B7FF458AF8E
:10397000294B254E00221A60D6F8A8000AF04AFC0E
:103980000546D6F8AC000AF045FC29460AF08CFB47
:1039900000210AF093FC22490AF044FD29460AF06E
:1039A00085FB0AF067FE0146062006F03FFB236810
:1039B000032B7FF438AF184B134E4FF47A721A6012
:1039C000D6F8A8000AF026FC0546D6F8AC000AF0A6
:1039D00021FC29460AF068FB11490AF06FFC1049E6
:1039E0000AF020FD29460AF061FB0AF043FE014679
:1039F000062006F01BFB236815E700234FF00008A4
:103A000033604BE7C094FF1F5893FF1F3887FF1F99
:103A10001F85EB51CBF08D287492FF1FCDCCCC3D90
:103A20000000C842E43C0100D087FF1FF42F0100D2
:103A3000FC2F010070B5B548B54C05F057FEB348F2
:103A400005F054FEB14805F051FE0D21B14808F0D3
:103A5000F7F9D4F8A430012B11D0AF4CAB48217842
:103A600000230A2205F052FE2378052B67D8DFE8F1
:103A700013F006010B01100115011A0101010921C2
:103A8000A64808F0DDF9A648FEF746FF21690AF0CE
:103A9000B3FD18B10F21A34808F0D2F9A048FEF7F2
:103AA0003DFFE1680AF0C6FD18B10E219E4808F0FE
:103AB000C7F99B48FEF732FF05469948FEF72CFFF1
:103AC000014628460AF0F0FAE16B0AF0B3FD18B19E
:103AD0001121964808F0B4F99148FEF743FFA16A16
:103AE0000AF0A8FD18B10C21914808F0A9F98C48FA
:103AF000FEF738FFE16A0AF07FFD18B10D218D480D
:103B000008F09EF98C4B86481B68012B00F0E8807A
:103B1000FEF702FF21697E4D0AF08CFD78B18048E6
:103B2000FEF7FCFEE9680AF067FD40B17A4B1B78AE
:103B3000052B00F0E6800821804808F081F9022179
:103B40007F4808F07DF9122006F0F6FB012800F00E
:103B5000AF80112006F0F0FB012800F0B380794B14
:103B60001B68012B00F0B78002217548764C08F0E5
:103B700067F9764B6548196805F008FE634805F05B
:103B8000B5FD0421724808F05BF90B2006F0D4FB68
:103B9000002301460A225D4805F0B8FD0C2006F01E
:103BA000CBFB002301460A22584805F0AFFD142044
:103BB00006F0C2FB002301460A22544805F0A6FD88
:103BC000152006F0B9FB0A22002301464F4805F0F4
:103BD0009DFD06215F4808F033F92368DD074FF0AB
:103BE00001014CBF5C485D4808F02AF9236898073A
:103BF0004FF001014CBF5848584808F021F923689C
:103C00005A074FF001014CBF5348544808F018F9C7
:103C100023681B074CBF50485048012108F010F999
:103C200004214F4808F00CF9112006F085FB002311
:103C300001460A22354805F069FD102006F07CFB9C
:103C4000002301460A22314805F060FD122006F0EB
:103C500073FB002301460A222C4805F057FD132070
:103C600006F06AFB002301460A222848BDE870409E
:103C700005F04CBD07213B4808F0E2F85FE706215C
:103C8000394808F0DDF85AE70721384808F0D8F835
:103C900055E70721364808F0D3F850E708213548A2
:103CA00008F0CEF84BE70B21334808F0C9F846E797
:103CB0000E21324808F0C4F8112006F03DFB01281F
:103CC0007FF44DAF0A212E4808F0BAF81D4B1B684F
:103CD000012B7FF449AF11212A4808F0B1F843E7DE
:103CE000FEF71AFE216A0AF0A5FC00283FF423AF74
:103CF0001621254808F0A4F80A21244808F0A0F865
:103D00001DE70A21214808F09BF818E7D087FF1F1C
:103D10005893FF1F0C300100D094FF1F1C3001008E
:103D20008095FF1F28300100383001004830010025
:103D30005C3001006C3001008892FF1FA030010050
:103D4000E43C0100E894FF1F2894FF1FC494FF1F68
:103D5000143101001C31010024310100283101001F
:103D60002C310100DC300100AC300100B430010026
:103D7000C8300100D0300100BC300100E430010047
:103D8000F4300100003101007C300100943001006A
:103D90002DE9F04F9B4C9C4FE36F012B8DB000F051
:103DA0005981032B5AD0994E994DA36F9948012BF5
:103DB00009BF2968296801F10041296005F08CFAE2
:103DC0003368002B40F0D880924805F05BFAE36F2F
:103DD0003860012B064600F0DC808F490AF02AFC8F
:103DE000B8B98E4930460AF007FC90B98C4A8D4B21
:103DF00012680B920B9A1A60D4F8B0000AF00AFA13
:103E000031460AF05BFA002338602B600DB0BDE844
:103E1000F08FDFF80CA2DFF80C82DAF800300A939A
:103E20000A98D8F80030DFF82492C01A0AF0EEF9A8
:103E300031460AF043FA7C490AF0F4FA7A490AF06A
:103E4000F1FAD9F800100AF031F9DAF800300993E4
:103E5000099BC9F80000C8F80030CDE7DFF8D08131
:103E6000724DD8F80000694E012300220F212B600B
:103E700004F01EF92B68012B336800F00981002B38
:103E800040F0AC810021D8F80000DFF8C491684D03
:103E900004F060F933681FFA80FBC9F800B0002B0A
:103EA00040F081810021D8F80000594DDFF880A151
:103EB00004F0D6F8B4F89E3040F6E44101FB0BF173
:103EC000B1FBF0F0C01A00B20AF0A4F959498346D8
:103ED000D4F894000AF0F2F9014658460AF0A2FA22
:103EE000D9F800302860632BDFF864B100F34F810C
:103EF00000232B603368002B3FF457AF02214E485C
:103F000007F09EFFD9F80020D8F8000040F6E443FF
:103F1000002103FB02F804F0A3F8B8FBF0F00AF06C
:103F200075F98046B4F89E000AF074F901464046DF
:103F30000AF0BAF809F018FD4FF0020802460B46E5
:103F4000CDF800803D4805F02BFC41463A4807F08B
:103F500077FF286809F008FDCDF8008002460B467F
:103F6000364805F01DFC4146354807F069FF4146DB
:103F7000314807F065FF18E7264805F083F909F096
:103F8000F3FC022602460B4600962C4805F008FC7E
:103F90001AE7264B1B68012B00F02C81022B7FF4C3
:103FA0002BAF28490AF046FB30B9274930460AF0C2
:103FB00023FB002800F05381DFF864A0DFF8648061
:103FC000DAF8003007930798D8F80030DFF87C90D3
:103FD000C01A0AF01BF931460AF070F912490AF0CA
:103FE00021FA11490AF01EFAD9F800100AF05EF819
:103FF000DAF800300693069BC9F80000C8F80030D4
:10400000FAE600BF5893FF1F9892FF1F0C95FF1F01
:104010008492FF1F3093FF1F0000FA430000FAC391
:10402000F4B9FF1F5C92FF1F00007A445487FF1F02
:10403000E094FF1F17B7D138E43C0100D087FF1F81
:104040007031010000C82F4800A08CC6A892FF1F45
:104050005093FF1F3D689B4928460AF0CDFA30B1C6
:10406000284699490AF0E6FA00287FF4F7AEDFF80F
:104070006482964DD8F80000954E022300220E214E
:104080002B6004F015F82B68012B33687FF4F7AE32
:10409000002B40F006810021D8F80000DFF8749270
:1040A0008C4D04F057F833681FFA80FBC9F800B054
:1040B000002B40F0DB800021D8F80000864D03F093
:1040C000CFFFB4F89C3040F6E44A0AFB0BFBBBFB85
:1040D000F0F0C01A00B20AF09DF880498346D4F887
:1040E00098000AF0EBF8014658460AF09BF9D9F817
:1040F000003028600021D8F800000AFB03FA03F022
:10410000AFFFB4F89C30BAFBF0F00FFA80FAC3EBC3
:104110000A03002BB4F8BE20B8BF5B429342BCBF79
:1041200000232B603368002B3FF43FAE02216C4824
:1041300007F086FED9F80020D8F8000040F6E443E6
:10414000002103FB02F803F08BFFB4F89C10B8FBCE
:10415000F0F000B2411A634805F018FB02216048F4
:1041600007F06EFE286809F0FFFB4FF002080246D8
:104170000B46CDF800805B4805F012FB03215A483E
:1041800007F05EFE4146564807F05AFE0DE6DAF8A3
:104190000000002103F064FFDBF80030643898422F
:1041A000FFF4A6AEA6E60021286803F059FF40F60A
:1041B000E44100230A2201FB0BF1B1FBF0F1494875
:1041C00005F0A4FA0221464807F03AFEB4F89E1022
:1041D000444805F0DBFAD9F800B063E6414805F041
:1041E00085FA0C21414807F02BFE0C21404807F0CE
:1041F00027FE47E63F490AF01DFA58B93E493046C6
:104200000AF0FAF930B93D4A3D4B12680592059A19
:104210001A60F1E5DFF8E4A0DFF8E480DAF80030B6
:1042200004930498D8F80030DFF8EC90C01A09F035
:10423000EDFF31460AF042F832490AF0F3F831490D
:104240000AF0F0F8D9F8001009F030FFDAF8003081
:104250000393039BC9F80000C8F80030CCE5274A57
:10426000274B12680892089A1A60C5E50021286851
:1042700003F0F6FE40F6E44100230A2201FB0BF1B5
:10428000B1FBF0F1174805F041FA01211E4807F093
:10429000D7FDB4F89C10134805F078FAD9F800B0AF
:1042A00009E7104805F022FAE36F012B4FF00B01EC
:1042B0000CBF1648164807F0C3FD0C210C4807F048
:1042C000BFFDE8E600709446007094C65487FF1F57
:1042D0000C95FF1FE094FF1F8492FF1F17B7D13882
:1042E000E43C0100D087FF1F5C3101006031010018
:1042F0004C3101000000FA430000FAC3F4B9FF1F7B
:104300005C92FF1F00007A44083001003431010044
:10431000403101005093FF1FA892FF1F2DE9F04389
:10432000894D2B6883B0002B7FD0884C884ED4F801
:104330008430884F854D012B00F0B780D5F8589018
:10434000D7F800806D6D05FB09F54FF47A7000FB1E
:1043500005F009F05FFF8049DFF8F491054640461B
:1043600009F0ACFF29460AF05DF87C4909F0A6FF88
:104370000AF080F9632830604BDD284676490AF060
:1043800051F86423C9F80030754B38601B68002B66
:1043900048D0E36F6D4D012B00F0B780032B00F088
:1043A000C780022B00F0CA8002216E4807F048FD4A
:1043B0006D4B186809F0D8FA022402460B460094A7
:1043C0006A4805F0EDF92146694807F039FD2146B4
:1043D000644807F035FD3168644805F0D7F90621D7
:1043E000644807F02DFD38685B4909F067FF09F064
:1043F000BBFA009402460B465C4805F0D1F9032154
:104400005D4807F01DFD594803B0BDE8F04305F0D5
:104410006DB90028BCBF0023C9F80030504B1B68A1
:10442000002BB6D103B0BDE8F0835448474CFEF7EB
:10443000F5FA5349A76EE66E09F040FF0AF040F91D
:10444000226F636FD21B9B1B80B29A42A0EB0700C6
:1044500067DC03FB00F393FBF2F333443C4E41482B
:104460003360022107F0ECFC31684048394F05F019
:104470008DF902213B4807F0E3FC3268A06D636DC3
:1044800002FB00F003FB00F000EB8000400009F0AD
:10449000C1FE314909F0C6FF01232B60D4F88430F6
:1044A0003860012B294D7FF449AF3448FEF7B6FA46
:1044B0003349D5F86890D5F86C8009F0FFFE0AF012
:1044C000FFF82A6F6B6F656DC9EB0202C8EB03033F
:1044D00080B29A42C9EB0000D4F85890C6BF03FBE3
:1044E00000000132584390FBF2F0404400FB09F019
:1044F00005FB00F000EB8000400009F08BFE164940
:1045000009F090FF804638601DE71E4B1B68012BA9
:104510004FF00A010CBF1C481C4807F091FCEB6FE0
:104520003CE703FB0000531C90FBF3F3334495E797
:104530001021174807F084FCE36F32E70721154884
:1045400007F07EFC30E700BF8092FF1F5893FF1FEB
:104550003887FF1FA892FF1FE4388E3E0000C84234
:104560004087FF1FE43C01009892FF1FD087FF1F88
:1045700070310100A8310100B03101008095FF1FAA
:1045800000007A445487FF1F74310100803101001C
:104590008C310100A031010030B5112083B005F04D
:1045A000CBFE012818D0122005F0C6FE012813D03A
:1045B00000210B2005F0BAFE00210C2005F0B6FE0C
:1045C0000021152005F0B2FE2649274B01200022CC
:1045D00008701A6003B030BD0121152005F0A6FE59
:1045E000224A234C234B1268D4F8881001921B688E
:1045F000019A1D4D0B4493424FF00201296005D9E9
:1046000001210C2005F092FE03B030BDD4F89000DB
:1046100009F000FE184B196809F0EEFF0028EFD1F1
:1046200001210B2005F082FE94F8C43003242C6095
:1046300043B10C4B02221A7000210C2005F076FECB
:1046400003B030BD122005F077FE012808BF054BEE
:104650004FF0110008BF1C7005F06EFE0128EBD171
:10466000E7E700BFD094FF1F0895FF1FF4B9FF1FB5
:104670005893FF1F1895FF1F9892FF1FF0B5684EC3
:10468000684D34682B689C4287B039D014F0010122
:1046900055D014F0020149D014F004013DD0E307D5
:1046A0000ED52B68DF070BD45F4F3A68002A00F065
:1046B00082805E4B1B680193019B93426DD83468E6
:1046C000A0070DD52B6899070AD4594F3A68002ADC
:1046D0004CD0564B1B680393039B934238D83468E5
:1046E00062070DD52B685B070BD4524F3A68002A3E
:1046F0007ED04E4B1B680593059B934268D8346867
:104700000CB107B0F0BD2146162005F08FFC214604
:10471000172005F08BFC07B0F0BD052005F086FCE6
:104720002B68346803F0FB032B60B8E7172005F013
:104730007DFC2B68346803F0FD032B60ACE716208A
:1047400005F074FC2B68346803F0FE032B60A0E7CF
:10475000394B1720D3F88C1005F068FC2B683468AF
:1047600043F0020300222B603A60B9E7334804F0BB
:10477000BDFF0C21324807F063FB304804F0B6FF60
:10478000FF21172005F052FC284B2E4A1968029190
:10479000029912680A443A609CE7274B1620D3F826
:1047A0008C1005F043FC2B68346843F001030022B1
:1047B0002B603A6084E7FF21162005F037FC1B4B85
:1047C000204A19680091009912680A443A6071E71A
:1047D000194B0520D3F88C1005F028FC2B683468A1
:1047E00043F0040300222B603A60002C89D18AE751
:1047F000124804F07BFF0C21134807F021FB0F48FF
:1048000004F074FFFF21052005F010FC074B0D4A52
:1048100019680491049912680A443A606AE700BF73
:104820000895FF1F2894FF1FA494FF1FF4B9FF1FD2
:10483000A894FF1FAC94FF1F5893FF1FD087FF1F42
:10484000B43101007087FF1FC43101002DE9F0472A
:10485000544EDFF87481DFF874913068524D0022B5
:104860000F2103F025FC0023012222214F48C8F824
:104870000030C9F8002007F0E3FAD8F80030132B15
:1048800022DC40F6E44700213068B5F89CA003F034
:1048900061FC00210446306803F0E2FBA4B2012170
:1048A00007FB04F4B4FBF0F441485444A5F89C40E1
:1048B00007F0C6FA642005F075FDD8F80030013322
:1048C000132BC8F80030DEDDB5F89C30394A3A4881
:1048D000A2FB03129B1A02EB5303C3F30F131946F7
:1048E000A5F89C3004F052FF1D21344807F0A8FAC7
:1048F0000221334807F0A4FA2F4804F0F7FE002302
:104900001A460E213068C8F8003003F0D1FB0223AC
:1049100022212648C9F8003007F092FAD8F8003072
:10492000132B22DC40F6E44700213068B5F89E9056
:1049300003F010FC00210446306803F091FBA4B2A0
:10494000012107FB04F4B4FBF0F419484C44A5F82A
:104950009E4007F075FA642005F024FDD8F8003079
:104960000133132BC8F80030DEDDB5F89E30114A54
:104970001148A2FB03129B1A02EB5303C3F30F135C
:104980001946A5F89E3004F001FF1D210D4807F0DF
:1049900057FA02210A4807F053FA0748BDE8F047E2
:1049A00004F0A4BEE094FF1F5893FF1FD431010010
:1049B0001832010087611886D087FF1FF831010087
:1049C000E43C01001C320100C894FF1F5487FF1F04
:1049D000F8B5AB4BAB4CAC4E1B68306D40F251316F
:1049E00008222160E271002B40F01A8109F012FCCC
:1049F0007169054609F062FCA44909F05FFC09F001
:104A00005FFE80B203126372A14AA24B12681B6858
:104A1000B1692072A37228461B121512E372227329
:104A2000657309F04BFC9949964D09F047FC09F074
:104A300047FE83B21A1229469748A373E27304F023
:104A40007DFA96F8C53040F2553108222160E271B6
:104A5000002B40F0F680914B914A1B681288AA7295
:104A6000DFB203EB830107EB8700400041F3D7116E
:104A70001B1212122F72287369736B72EA72814DC6
:104A8000854800232946A373E37304F057FA96F888
:104A9000C530844840F2563108222160E271002B73
:104AA00000F0C380FDF73AFF07467E48FDF734FF6C
:104AB0000146384609F0F8FA7B4909F0FFFB09F096
:104AC000FFFD28727748FDF729FF07467548FDF777
:104AD00023FF0146384609F0E7FA734909F0EEFB77
:104AE00009F0EEFD714B7049C0F307206872186839
:104AF00009F098FC09F0BEFD021203466948E27213
:104B0000A372FDF72FFF614909F0D8FB09F0D8FD2A
:104B100020736448FDF726FF5C4909F0CFFB09F0DC
:104B2000CFFD0025C0F3072356495B486373A57387
:104B3000E57304F003FA022005F034FC5C4A5D4B97
:104B4000177851789078277261721F785978A0721F
:104B5000987892F803E02773DA786173082740F2B7
:104B60005A33A07347494C4884F80BE0E273236042
:104B7000E77104F0E3F9504B42491A7858782272F1
:104B800060729A78D878A272E0721A79987993F85C
:104B900005E02273A073DA793F4884F80DE040F213
:104BA0005E33E2732360E77104F0C8F9022005F078
:104BB000F9FB424B33491A785878227260729A781E
:104BC000D878A272E0721A79987993F805E0227386
:104BD000A073DA79304884F80DE04FF45C73E27327
:104BE0002360E77104F0AAF9022005F0DBFBB26D47
:104BF000E77142FA07FE012340F25F370226227373
:104C000099222572657284F80DE02760A672E3721E
:104C1000E373A2731B492048BDE8F84004F08EB945
:104C200009F0F8FA316A0546E4E6FDF779FE1E4917
:104C300009F044FB09F044FD28721A48FDF770FEA4
:104C40004BE71848FDF764FE28721648FDF760FE32
:104C5000124B1B68AB7202121B1212486A72EB7283
:104C6000FDF756FE00EB800043000E482B73FDF766
:104C70004FFE00EB800040F3D7106873FFE600BFE3
:104C80008892FF1FF894FF1F5893FF1F00002041D8
:104C9000DC94FF1F6492FF1F30B8FF1F3887FF1F8F
:104CA0003C87FF1F8095FF1F0000C8429892FF1F9E
:104CB0005493FF1FD494FF1F2C87FF1F5887FF1F9B
:104CC0002DE9F041874C884D82B007F053F82368F6
:104CD0002860042B00F08382092B00F00B83022B49
:104CE0004DD1A0F13102422A00F28980DFE812F0B2
:104CF000F4070D081B0865002D086208710887007D
:104D0000870087008700870087008700870087006B
:104D1000870087008700870087008700870087005B
:104D2000870087008700870087008700870087004B
:104D3000870087008700870087008700870087003B
:104D4000870087008700870087008700870087002B
:104D5000870087004300870087008700870087005F
:104D6000870087008700870087008700870087000B
:104D7000830087009008FFF769FD23682868082BE7
:104D80002CD1322800F09583712834D0312836D1C7
:104D900007F02CF8002840F3E1865448544E04F004
:104DA00039FEC0B286F8400002288ABF00210146C1
:104DB00086F84010726C4F488FE30123236007F0A0
:104DC00015F8002807DD4948494E04F023FE09F094
:104DD00021FAC6F89800632023682860072B40F06A
:104DE000AB80332801F0668440F3C582342801F09B
:104DF0003984712803D10023732023602860002B9D
:104E000008BF73280CBF01200020002867D0374856
:104E100004F06CFC0421384807F012F8334804F021
:104E200065FC1021354807F00BF8304804F05EFCB3
:104E30001321334807F004F8324B2C48196804F06A
:104E4000A5FC2A4804F052FC14212F4806F0F8FF74
:104E5000264804F04BFC1E212C4806F0F1FF2348A5
:104E600004F044FC15212A4806F0EAFF1F4804F02C
:104E70003DFC1E21274806F0E3FF1C4804F036FCE9
:104E80002021254806F0DCFF184804F02FFC1921EA
:104E9000224806F0D5FF154804F028FC12212048CE
:104EA00006F0CEFF114804F021FC19211D4806F040
:104EB000C7FF0E4804F01AFC0F211B4806F0C0FF84
:104EC0000A4804F013FC0D21184806F0B9FF074802
:104ED00004F00CFC164A002101231160236002B08B
:104EE000BDE8F081AC92FF1F9492FF1FD087FF1F97
:104EF0005893FF1F8095FF1F443B01004C3B01006E
:104F0000603B01002487FF1F743B01008C3B0100C4
:104F1000AC3B0100C43B0100E43B0100083C010044
:104F2000243C0100383C0100543C0100643C010079
:104F30004087FF1F23682868062B40F08D80A0F172
:104F40003102402A3FF65BAF01A151F822F000BFC9
:104F50008D5B00003D5C0000F15B0000175C000011
:104F60006F5B0000CD5B0000695C0000B95B000076
:104F7000FF4D0000FF4D0000FF4D0000FF4D000001
:104F8000FF4D0000FF4D0000FF4D0000FF4D0000F1
:104F9000FF4D0000FF4D0000FF4D0000FF4D0000E1
:104FA000FF4D0000FF4D0000FF4D0000FF4D0000D1
:104FB000FF4D0000FF4D0000FF4D0000FF4D0000C1
:104FC000FF4D0000FF4D0000FF4D0000FF4D0000B1
:104FD000FF4D0000FF4D0000FF4D0000FF4D0000A1
:104FE000FF4D0000FF4D0000FF4D0000FF4D000091
:104FF000FF4D0000FF4D0000FF4D0000FF4D000081
:10500000FF4D0000FF4D0000FF4D0000FF4D000070
:10501000FF4D0000FF4D0000FF4D0000FF4D000060
:10502000FF4D0000FF4D0000FF4D0000FF4D000050
:10503000FF4D0000FF4D0000FF4D0000FF4D000040
:10504000FF4D0000FF4D0000FF4D0000FF4D000030
:10505000F74D000023682868052B15D1332801F08F
:105060003C8340F3AD81352801F05E83C1F2468375
:1050700071287FF4C4AECD4A0023732013602360EF
:105080002860BCE623682868032B40F0A480A0F1C8
:105090003002422A3FF6B3AE01A151F822F000BF20
:1050A000AD510000C7620000EF620000176300000E
:1050B000396300005B63000083630000AB630000A2
:1050C000C9630000ED630000FF4D0000FF4D0000CC
:1050D000FF4D0000FF4D0000FF4D0000FF4D0000A0
:1050E000FF4D0000FF4D0000FF4D0000FF4D000090
:1050F000FF4D0000FF4D0000FF4D0000FF4D000080
:10510000FF4D0000FF4D0000FF4D0000FF4D00006F
:10511000FF4D0000FF4D0000FF4D0000FF4D00005F
:10512000FF4D0000FF4D0000FF4D0000FF4D00004F
:10513000FF4D0000FF4D0000FF4D0000FF4D00003F
:10514000FF4D0000FF4D0000FF4D0000FF4D00002F
:10515000FF4D0000FF4D0000FF4D0000FF4D00001F
:10516000FF4D00001564000033640000875E0000FE
:10517000516400006F6400008D6400003D5E00001B
:10518000615E0000FF4D0000FF4D0000FF4D00007C
:10519000FF4D0000FF4D0000FF4D0000FF4D0000DF
:1051A000FF4D0000E3640000EF64000006F01EFE07
:1051B000002841F350827E487E4E04F02BFC0127EC
:1051C0000346014662227C48736527602A60FDF72A
:1051D000A9FB23682868012B7FF411AE9DE0A0F1A4
:1051E0003102402A3FF60BAE01A151F822F000BF78
:1051F0000D5E0000E75D0000EB5D0000095E000051
:10520000215E0000F15C0000075D00009B5C000077
:10521000B35C0000FF4D0000FF4D0000FF4D00009B
:10522000FF4D0000FF4D0000FF4D0000FF4D00004E
:10523000FF4D0000FF4D0000FF4D0000FF4D00003E
:10524000FF4D0000FF4D0000FF4D0000FF4D00002E
:10525000FF4D0000FF4D0000FF4D0000FF4D00001E
:10526000FF4D0000FF4D0000FF4D0000FF4D00000E
:10527000FF4D0000FF4D0000FF4D0000FF4D0000FE
:10528000FF4D0000FF4D0000FF4D0000FF4D0000EE
:10529000FF4D0000FF4D0000FF4D0000FF4D0000DE
:1052A000FF4D0000FF4D0000FF4D0000FF4D0000CE
:1052B000FF4D0000FF4D0000FF4D0000FF4D0000BE
:1052C000FF4D0000FF4D0000FF4D0000FF4D0000AE
:1052D000FF4D0000FF4D0000FF4D0000FF4D00009E
:1052E000FF4D0000FF4D0000FF4D0000FF4D00008E
:1052F000F74D0000322800F0258471283FF47BAD83
:1053000031287FF47CAD2B4E96F8C53001225340F6
:10531000782086F8C53022602860A0F15203262B41
:1053200001F29081DFE813F0F3088E098E098E09EF
:105330008E098E098E098E098E098E098E098E09B5
:105340008E098E098E09E200170B9E03BD0228020A
:105350008E098E098E09DA018E09140B8E098E09C9
:105360008E098E098E09F5088E098E098E098E091F
:105370008E098E095601312801F0868132287FF48A
:105380003EAD06F033FD00287FF7D4AD0848094E46
:1053900004F040FB08F03EFF084908F08FFF61234E
:1053A0000122F06322602B601846B6E7C094FF1F0D
:1053B000D087FF1F5893FF1F8095FF1F6F12833AFE
:1053C000312801F0BF8132287FF419AD06F00EFDBF
:1053D00000287FF757AEA548A54E04F01BFB01221D
:1053E0006B23C6F8900022602B6001E006F0C2FC3F
:1053F00006F0FCFC0028F9D19C4804F077F99B48A2
:1054000004F074F9994804F071F9984804F06EF9C1
:10541000964804F06BF92121964806F011FD934857
:1054200004F064F91521944806F00AFDD6F88810B6
:105430008E4804F0ABF90221904806F001FD8B483C
:1054400004F054F91E218E4806F0FAFCD6F89010AC
:10545000864804F09BF903218A4806F0F1FC834852
:1054600004F044F91E21884806F0EAFCD6F88C10B6
:105470007E4804F08BF97D4804F038F91D218348FB
:1054800006F0DEFCD6F8A810784804F07FF97748DB
:1054900004F02CF91E217E4806F0D2FCD6F8AC10A0
:1054A000724804F073F9714804F020F90523236071
:1054B00015E506F09BFC002840F355836B486C4EC5
:1054C00004F0A8FA08F0A6FE724908F0F7FE96F874
:1054D00040100346024670487364FDF725FA012325
:1054E00069202360286018E706F044FC06F07EFC83
:1054F00005460028F8D15D485D4E04F0F7F85B489A
:1055000004F0F4F8594804F0F1F8584804F0EEF8C3
:10551000564804F0EBF81F21604806F091FC534810
:1055200004F0E4F81C215E4806F08AFC706A5D49CC
:1055300008F0C4FE08F018FA009502460B464B48E6
:1055400004F02EF90221584806F07AFC474804F08E
:10555000CDF82321554806F073FCF06B514908F053
:10556000ADFE08F001FA009502460B463F4804F0F4
:1055700017F902214C4806F063FC3C4804F0B6F8E9
:1055800019214B4806F05CFCB06B08F0EDF90225E0
:105590000B4602460095354804F002F92946454875
:1055A00006F04EFC314804F0A1F81921424806F0FB
:1055B00047FCB6F8BC102D4804F0E8F803213F483A
:1055C00006F03EFC294804F091F80723236086E4A6
:1055D00006F0D0FB06F00AFC0028F9D12348244D40
:1055E00004F084F8214804F081F8204804F07EF8A3
:1055F0001E4804F07BF81D4804F078F81521304867
:1056000006F01EFC194804F071F8184804F06EF812
:105610002C212C4806F014FC144804F067F82521CE
:10562000294806F00DFC95F8C510104804F0AEF8B6
:105630000E4804F05BF81921244806F001FC95F8A7
:10564000C630002B41F09C800E21214806F0F8FB6B
:10565000064804F04BF813211E4806F0F1FB0348FE
:1056600004F044F80923236039E400BFD087FF1F0A
:105670005893FF1F7C350100A035010070340100F4
:10568000B83501005C310100D8350100F835010062
:10569000183601006F12833A8095FF1FD83401003D
:1056A000F834010000007A44543301001835010039
:1056B0003C350100583501005C35010078350100AA
:1056C0003C3C01006032010090320100B832010020
:1056D000D4320100F832010006F04CFB06F086FBE4
:1056E00005460028F8D1BB48BB4E03F0FFFFB94880
:1056F00003F0FCFFB74803F0F9FFB64803F0F6FFEC
:10570000B44803F0F3FF1521B44806F099FBB14803
:1057100003F0ECFF1821B24806F092FB2B460A2258
:1057200096F84010AB4803F0F1FFAA4803F0DEFF03
:105730002821AC4806F084FB706CAB4908F0BEFD34
:1057400008F012F900950B460246A24804F028F82A
:105750000221A64806F074FB9E4803F0C7FF132100
:10576000A34806F06DFB9B4803F0C0FF08232360AD
:10577000FFF7B5BB06F0FEFA06F038FB0546002839
:10578000F8D19448944E03F0B1FF924803F0AEFF75
:10579000904803F0ABFF8F4803F0A8FF8D4803F05B
:1057A000A5FF1121934806F04BFB8A4803F09EFFAA
:1057B0002821914806F044FB70698B4908F07EFD72
:1057C00008F0D2F8009502460B46824803F0E8FF45
:1057D0000221864806F034FB7E4803F087FF16213D
:1057E000864806F02DFBF0697F4908F067FD08F058
:1057F000BBF800950B460246764803F0D1FF022124
:105800007A4806F01DFB734803F070FFD6F8B430F9
:10581000002B32DD1D217A4806F012FBF06D08F0F6
:10582000F9FC784908F04AFD08F09EF80225024686
:105830000B460095674803F0B3FF0121724806F05C
:10584000FFFA644803F052FF1F21704806F0F8FA8F
:10585000306E08F0DFFC6B4908F030FD08F084F88A
:10586000009502460B465B4803F09AFF012166480B
:1058700006F0E6FA574803F039FF1121644806F0B4
:10588000DFFAD6F8B430062B00F27086DFE813F0AA
:10589000D006D506CB06C606C106BC066A0606F0CB
:1058A00069FA06F0A3FA0028F9D14A4803F01EFF6E
:1058B000484803F01BFF474803F018FF454803F032
:1058C00015FF444803F012FF1321524806F0B8FABE
:1058D000404803F00BFF0D214F4806F0B1FA3D4858
:1058E00003F004FF0F214D4806F0AAFA4C4B39484B
:1058F000196803F04BFF374803F0F8FE13214948BD
:1059000006F09EFA484B3348196803F03FFF3148D0
:1059100003F0ECFE1221454806F092FA444B2D4864
:10592000196803F033FF2B4803F0E0FE11214148D2
:1059300006F086FA404B2748196803F027FF2548F0
:1059400003F0D4FE0E213D4806F07AFA224B21489E
:10595000D3F8A41003F01AFF1E4803F0C7FE192164
:10596000374806F06DFA374B1A48196803F00EFFF6
:10597000184803F0BBFE1121334806F061FA334B9F
:105980001448196803F002FF124803F0AFFE10211B
:105990002F4806F055FA2F4B0E48196803F0F6FE13
:1059A0000C4803F0A3FE1C212B4806F049FA2B4BB0
:1059B0000848196803F0EAFE064803F097FE132131
:1059C0000B4806F03DFA034803F090FE04232360E1
:1059D000FFF785BAD087FF1F5893FF1F0C3C0100CB
:1059E0000C3301002833010000007A4454330100D5
:1059F000F8320100B03B010058330100843301004C
:105A00009C330100CDCCCC3D5C380100BC3301009F
:105A1000DC330100383601004C3601005C360100F1
:105A2000A094FF1F6C3601000C95FF1F803601000B
:105A3000F094FF1F94360100F494FF1FA836010074
:105A4000B8360100C494FF1FD4360100C094FF1F74
:105A5000E83601008C92FF1FFC3601006887FF1FAB
:105A600006F088F906F0C2F90028F9D1BF48C04E07
:105A700003F03CFEBD4803F039FEBC4803F036FE9F
:105A8000BA4803F033FEB94803F030FE1F21B9488D
:105A900006F0D6F9B54803F029FE1E21B64806F0F7
:105AA000CFF9B24803F022FE1A21B44806F0C8F933
:105AB000F36F022B00F0C886032B00F0BC86012B8D
:105AC00000F0B0860921AE4806F0BAF9A74803F005
:105AD0000DFE1421AB48DFF8988206F0B1F9B16FE2
