:1000000000800020BD010000D19B0000899B000002
:10001000899B0000899B0000899B0000899B000050
:10002000899B0000899B0000899B0000D19B0000F8
:10003000D19B0000899B0000E5910000E99200003F
:10004000D19B0000D19B0000D19B0000D19B000000
:10005000D19B0000D19B0000D19B0000D19B0000F0
:10006000D19B0000D19B0000D19B0000D19B0000E0
:10007000D19B0000D19B0000D19B0000D19B0000D0
:10008000D19B0000D19B0000D19B0000D19B0000C0
:10009000D19B0000D19B0000D19B0000D19B0000B0
:1000A000D19B0000D19B0000D19B0000D19B0000A0
:1000B000D19B0000298F0000358F0000398F000090
:1000C0003D8F0000418F0000458F0000D19B000054
:1000D000D19B0000D19B0000D19B0000D19B000070
:1000E000D19B0000D19B0000D19B0000D19B000060
:1000F000D19B000061BE0000D19B0000C1A80000A0
:10010000D19B0000D9AB0000D19B0000D19B000027
:10011000D19B0000D19B0000D19B0000D19B00002F
:10012000D19B0000D19B0000D19B0000D19B00001F
:10013000D19B0000D19B0000D19B0000D19B00000F
:10014000D19B0000D19B0000D19B0000D19B0000FF
:10015000D19B0000D19B0000D19B0000D19B0000EF
:10016000D19B000069AE0000D19B0000D19B000034
:10017000D19B0000D19B0000D19B0000D19B0000CF
:10018000D19B0000D19B0000D19B0000D19B0000BF
:10019000D19B0000D19B0000D19B0000D19B0000AF
:1001A000D19B0000D19B0000D19B0000D19B00009F
:1001B000D19B0000D19B0000D19B0000564B4CF21C
:1001C000205210B51A804DF628121A8000BF00BFC9
:1001D00009F002FD514B4FF010621A60504A9A60CC
:1001E000504ADA60504A136813F4807304D14F49BF
:1001F0000B604FF4A85313604D4B1A78110703D5C9
:100200001A7842F008021A704A4B4B492A221A7097
:100210004A4A4B4B8B4204D252F8040F43F8040B6A
:10022000F8E7484B484900228B4202D243F8042B9E
:10023000FAE74649464A002352F8230041F82300D2
:1002400001336F2BF8D1434B434A802103F8011B44
:100250009342FBD1414B3D4A1A60414B8A221A70AE
:10026000A3F5805324225A70A0221A709A7992071B
:10027000FCD59A79D406FCD43A4A937903F00C035E
:10028000082B384BF9D103221A7140225A719A79FE
:100290009006FCD5334A9179324B4906FBD5324A58
:1002A000324911600221516020221A709A7902F0BD
:1002B0000C020C2AFAD12E4B2E4A1A602E4B2F4AD2
:1002C0001A6000225A60072243F8042C2C4AC3F813
:1002D0000C2D62B609F05EFF144B1B68DA0705D5DA
:1002E000284809F03BFD284B284A1A60284B1B7808
:1002F0005B0609D5244C254B22689A4204D121483B
:1003000009F02CFD002323600EF0A8F809F06AFC28
:1003100009F098FBFEE700BF0E2005403080044046
:10032000823F04000100002B10D0034014D0034092
:1003300002D0074000E007403092FF1FF440010068
:100340002087FF1F3092FF1F98BFFF1F0082FF1FF3
:100350000000000000E400E05FE400E008ED00E0E1
:100360000050064000400640448004400000030165
:1003700004800440C010050014E000E0FF76010096
:1003800000002020C3ABB85D1CE00340A5C3945A15
:1003900000F00740FFFFFFFFFFFFFFFFFFFFFFFF32
:1003A000FFFFFFFFFFFFFFFFFFFFFFFFFFFFFFFF5D
:1003B000FFFFFFFFFFFFFFFFFFFFFFFFFFFFFFFF4D
:1003C000FFFFFFFFFFFFFFFFFFFFFFFFFFFFFFFF3D
:1003D000FFFFFFFFFFFFFFFFFFFFFFFFFFFFFFFF2D
:1003E000FFFFFFFFFFFFFFFFFFFFFFFFFFFFFFFF1D
:1003F000FFFFFFFFFFFFFFFFFFFFFFFFFFFFFFFF0D
:10040000FFFFFFFFFFFFFFFFFFFFFFFFDEF9FFFF23
:1004100010B5054C237833B9044B13B10448AFF33E
:1004200000800123237010BD3092FF1F00000000E8
:10043000F0400100084B10B51BB108490848AFF364
:1004400000800848036803B910BD074B002BFBD0A0
:10045000BDE81040184700BF000000003492FF1FA5
:10046000F04001003092FF1F00000000F0B400F1E6
:1004700014060F4F00243146031F00F12C0243F8ED
:10048000044FB34241F8047F4FF0000542F8044F97
:10049000F5D1084B084985640022C56405654565AA
:1004A000456683650366C16580F88420F0BC7047AB
:1004B0000000A040000048430000C8C200230360C1
:1004C00043608360C3600361436183640365436584
:1004D000836570472DE9F04190F8844084B0002393
:1004E00064008DF80530E4B2012380468DF80440A5
:1004F0008DF80630032720460AF00AFB02210DF191
:1005000005000AF00FFB8DF8044002F09DFC30B3AB
:100510000921C9480BF03EFB002310222146C748A1
:1005200008F0A0FF0121C6480BF034FB0023102285
:100530009DF80510C14808F095FF0121C0480BF057
:1005400029FB002310229DF80610BC4808F08AFF02
:100550000121BB480BF01EFBB84808F073FF0220D6
:100560008DF8044009F0C8FD02F06EFC002840F050
:10057000778102AE00240AF0EBFA002800F0268111
:10058000042C40F0158101E00AF0F2FA0AF0E0FADA
:100590000028F9D102F058FC10B1A84808F052FF29
:1005A00098F884406400E4B2202204238DF80440CB
:1005B0008DF805208DF80630032720460AF0A8FAAA
:1005C00002210DF105000AF0ADFA8DF8044002F0A9
:1005D0003BFC30B3092198480BF0DCFA00231022D1
:1005E0002146964808F03EFF012195480BF0D2FACB
:1005F000002310229DF80510904808F033FF0121D8
:100600008F480BF0C7FA002310229DF806108B4884
:1006100008F028FF01218A480BF0BCFA874808F04F
:1006200011FF02208DF8044009F066FD02F00CFC79
:10063000002840F00B8102AE00240AF089FA00285D
:1006400000F0A980072C40F0988001E00AF090FAB1
:100650000AF07EFA0028F9D102F0F6FB10B17748D3
:1006600008F0F0FE98F884409DF80B209DF80C30BF
:100670009DF80D00C8F870206400E4B29DF80E10DB
:10068000C8F87430332201238DF80440C8F878008C
:10069000C8F87C108DF805208DF806300327204619
:1006A0000AF036FA02210DF105000AF03BFA8DF846
:1006B000044002F0C9FB30B309215F480BF06AFA2D
:1006C0000023102221465D4808F0CCFE01215C4841
:1006D0000BF060FA002310229DF80510574808F02F
:1006E000C1FE012156480BF055FA002310229DF857
:1006F0000610524808F0B6FE012151480BF04AFAA4
:100700004E4808F09FFE02208DF8044009F0F4FCEA
:1007100002F09AFB002840F09E8002AE00240AF00E
:1007200017FAF8B1042C0FD101E00AF021FA0AF00F
:100730000FFA0028F9D102F087FB10B13F4808F00A
:1007400081FE04B0BDE8F0810AF012FA054606F811
:10075000010B02F079FB00285AD101340AF0F8F9B4
:100760000028DFD1042CE2D002F06EFB00285ED11D
:10077000013FE6D09DF8044091E70AF0F9F90546FB
:1007800006F8010B02F060FB60BB01340AF0E0F9EF
:1007900000287FF457AF072C3FF45AAF02F054FB08
:1007A00000284FD1013F3FF45DAF9DF8044004E7BE
:1007B0000AF0DEF9054606F8010B02F045FBE0B948
:1007C00001340AF0C5F900287FF4DAAE042C3FF4B6
:1007D000DDAE02F039FB30BB013F3FF4E1AE9DF8E6
:1007E000044088E6E9B200231022144808F03AFEDB
:1007F000012113480BF0CEF9C7E7E9B2002310221C
:100800000E4808F02FFE01210D480BF0C3F9D7E781
:10081000E9B200231022094808F024FE012108480B
:100820000BF0B8F999E7054808F00CFED4E7034847
:1008300008F008FE9CE700BF18260100D087FF1FC4
:10084000482D0100094808F0FDFDABE707210848E5
:100850000BF0A0F9EFE6072105480BF09BF95CE7E8
:10086000072103480BF096F983E600BFD087FF1FEE
:100870002426010090F87400704700BF90F87000C3
:10088000704700BF90F87800704700BF90F87C0078
:10089000704700BF2DE9F04390F8848085B04FEA9F
:1008A00048085FFA88F8322200238DF804808DF81A
:1008B00005208DF8063003250DF1060748F00109E3
:1008C00048460AF025F901AE0DF1050002210AF0B3
:1008D00029F98DF804904A463346002050400824F8
:1008E00010F0800F4FEA400018BF80F00700013C75
:1008F000C0B2F5D1BB4202D013F8012FEEE70AF0E7
:1009000007F902F0A1FA00284AD102208DF80480EC
:1009100009F0F2FB02F098FA002840F081800DF116
:10092000080800240AF014F908B3042C12D101E0DD
:100930000AF01EF90AF00CF90028F9D102F084FA45
:1009400010B13A4808F07EFD022009F0D5FB05B051
:10095000BDE8F0830AF00CF908F8010B064602F036
:1009600073FA70B901340AF0F3F80028DDD1042CD1
:10097000E0D002F069FA78B9013DE5D09DF8048035
:100980009CE7F1B200231022284808F06BFD0121FA
:1009900027480BF0FFF8E5E7244808F053FDEBE7A4
:1009A000092124480BF0F6F82346102249461F4837
:1009B00008F058FD01211E480BF0ECF823461022E8
:1009C0009DF80510194808F04DFD012118480BF05D
:1009D000E1F8102223469DF80610144808F042FD65
:1009E000012113480BF0D6F821460DF1070216F845
:1009F000014B6140C9B2082311F0800F4FEA410159
:100A000018BF81F00701013BC9B2F5D1B242EED166
:100A10001022064808F026FD044808F013FD74E78C
:100A2000072105480BF0B6F879E700BFD087FF1F14
:100A3000482D010018260100242601002DE9F04F61
:100A4000074691B097F8843002205B008DF808309B
:100A500009F052FB97F8843038465B008DF8083077
:100A6000FFF738FDB86FFC6F7B6F3A6F97F8841013
:100A70008DE81100C94802F0EDFA30223D238DF8CF
:100A800009208DF80A3003260DF10A059DF808901B
:100A900049F0010840460AF03BF80DF10900022137
:100AA0000AF040F88DF80880424602AB0020504022
:100AB000082410F0800F4FEA400018BF80F00700B4
:100AC000013CC0B2F5D19D4202D013F8012FEEE7F0
:100AD0000AF01EF802F0B8F9002840F07D820220EA
:100AE0008DF8089009F008FB02F0AEF9002840F0FC
:100AF000B9820DF10C0AD14600240AF029F8002829
:100B000043D0032C34D101E00AF032F80AF020F887
:100B10000028F9D102F098F910B1A14808F092FC30
:100B2000312303268DF809308DF80A609DF808906E
:100B300049F00108404609F0EBFF0DF109000221E0
:100B400009F0F0FF8DF80880424602AB00205040CB
:100B5000082410F0800F4FEA400018BF80F0070013
:100B6000013CC0B2F5D19D4228D013F8012FEEE729
:100B700009F0FEFF09F8010B804602F065F968B93B
:100B8000013409F0E5FF0028BBD1032CBED002F0F0
:100B90005BF978B9013E7FF479AFC1E75FFA88F17C
:100BA000002310227E4808F05DFC01217D480AF0F8
:100BB000F1FFE5E77A4808F045FCEBE709F0A8FF0C
:100BC00002F042F9002840F0C68102208DF808901A
:100BD00009F092FA02F038F9002840F03E820DF157
:100BE0000C09002409F0B4FF002844D0032C35D1AF
:100BF00001E009F0BDFF09F0ABFF0028F9D102F0D8
:100C000023F910B1664808F01DFC342201238DF849
:100C100009208DF80A3003269DF8089049F0010854
:100C2000404609F075FF0DF10900022109F07AFF35
:100C30008DF80880424602AB00205040082410F096
:100C4000800F4FEA400018BF80F00700013CC0B29F
:100C5000F5D19D4228D013F8012FEEE709F088FF67
:100C600009F8010B804602F0EFF868B9013409F089
:100C70006FFF0028BAD1032CBDD002F0E5F878B997
:100C8000013E7FF453AFC0E75FFA88F100231022E2
:100C9000434808F0E7FB012142480AF07BFFE5E703
:100CA0003F4808F0CFFBEBE709F032FF02F0CCF849
:100CB000002840F00F8102208DF8089009F01CFAFE
:100CC00002F0C2F8002840F0D7810DF10C09002491
:100CD00009F03EFF002800F08580032C73D101E06D
:100CE00009F046FF09F034FF0028F9D102F0ACF812
:100CF00010B12B4808F0A6FB012212238DF8092021
:100D00008DF80A304FF003089DF80840204609F09E
:100D1000FFFE02210DF1090009F004FF8DF80840E3
:100D200002F092F830B309211F480AF033FF002384
:100D3000102221461A4808F095FB012119480AF0B3
:100D400029FF002310229DF80910154808F08AFB9E
:100D5000012114480AF01EFF002310229DF80A10FA
:100D60000F4808F07FFB01210E480AF013FF0C48E2
:100D700008F068FB06208DF8084009F0BDF902F084
:100D800063F8002840F0738103AD002609F0E0FE0F
:100D9000002840D0162E30D10AE000BF2C260100DA
:100DA000D087FF1F482D01001826010009F0E0FE42
:100DB00009F0CEFE0028F9D102F046F816260028E8
:100DC0007DD1152035E009F0D3FE09F8010B8046EE
:100DD00002F03AF800285BD1013409F0B9FE00288E
:100DE0007FF47BAF032C3FF47DAF02F02DF8002899
:100DF0006CD1013E7FF410AF7EE709F0B9FE05F833
:100E0000010B044602F020F800284DD1013609F00C
:100E10009FFE0028BED1162ECAD002F015F8002879
:100E20004DD1B8F101087FF46FAF701E002840F378
:100E30002D82002303AA1C4612F8011B08254C40F2
:100E400014F0800F4FEA440418BF84F00704013DFA
:100E5000E4B2F5D101338342EEDB9DF8218089486D
:100E60004146224602F0F6F8162EC146A34602D1AC
:100E7000A04500F0138197F884108348CDF800B0A6
:100E80004B46324602F014F9002011B0BDE8F08F55
:100E90005FFA88F1002310227C4808F0E3FA012170
:100EA0007B480AF077FE97E7E1B2002310227748EB
:100EB00008F0D8FA012176480AF06CFEA6E77348DC
:100EC00008F0C0FA162EACD11520B2E76F4808F032
:100ED000B9FA8EE709216F480AF05CFE234610221A
:100EE00041466A4808F0BEFA012169480AF052FEFC
:100EF000234610229DF80910644808F0B3FA012136
:100F000063480AF047FE102223469DF80A105F4806
:100F100008F0A8FA01215E480AF03CFE21460DF1D6
:100F20000B0002AA12F8014B6140C9B2082311F06C
:100F3000800F4FEA410118BF81F00701013BC9B2A0
:100F4000F5D19042EED11022504808F08BFA4F486C
:100F500008F078FAAFE609214E480AF01BFE234656
:100F600010224146494808F07DFA012148480AF01C
:100F700011FE234610229DF80910444808F072FA29
:100F8000012143480AF006FE102223469DF80A106C
:100F90003E4808F067FA01213D480AF0FBFD214672
:100FA0000DF10B0002AA12F8014B6140C9B20823EF
:100FB00011F0800F4FEA410118BF81F00701013B9A
:100FC000C9B2F5D19042EED11022304808F04AFA69
:100FD0002E4808F037FAF8E509212E480AF0DAFD24
:100FE000234610224146294808F03CFA01212848AE
:100FF0000AF0D0FD234610229DF80910234808F07E
:1010000031FA012122480AF0C5FD102223469DF83D
:101010000A101E4808F026FA01211D480AF0BAFD00
:1010200021460DF10B0002AA12F8014B6140C9B232
:10103000082311F0800F4FEA410118BF81F007012A
:10104000013BC9B2F5D19042EED110220F4808F011
:1010500009FA0E4808F0F6F941E507210E480AF0B2
:1010600099FDBCE507210C480AF094FD41E50721F4
:1010700009480AF08FFD87E6072107480AF08AFD34
:1010800023E600BF60260100AC260100D087FF1FC9
:10109000482D010018260100242601009DF80C307F
:1010A00097F88420B3EB420F7FF4EEAE9DF80D303D
:1010B000012B7FF4E9AE9DF80E30122B7FF4E4AEE5
:1010C0009DF810309DF80F0003EB00200CF04AFF54
:1010D0007A490CF09BFF796EF86404460DF052F9E2
:1010E00000B17C66396E20460DF02EF900B13C66E9
:1010F0003D1FAB4607F1180807F130064FF006090F
:101100009AF806309AF8050003EB00200CF02AFF4D
:101110006B490CF07BFF4BF8040FD8F80010044625
:101120000DF012F90AF1020A30B1B96E20460DF045
:101130001FF908B1C8F80040316820460DF022F9C7
:1011400008F1040800B13460B9F1010906F10406A0
:10115000D6D10020B86407F1140455F8041F0CF030
:101160004DFEAC42F9D19DF81D209DF81E30B864AB
:1011700003EB022002300CF0F5FE52490CF0FAFFAE
:10118000014651480CF0F6FF50490CF035FE50492D
:101190000CF03CFF05460AF0A7FF044628460AF07B
:1011A000A3FF4C490BF012F84B49054620460CF0C2
:1011B0002DFF4A490CF022FE4949044628460CF00E
:1011C00025FF014620460CF019FE01464FF07E50E7
:1011D0000CF0D0FF43490CF00FFE9DF81F209DF846
:1011E0002030386503EB022009300CF0BBFE3E498D
:1011F0000CF0C0FF014634480CF0BCFF33490CF042
:10120000FBFD33490CF002FF05460AF06DFF044672
:1012100028460AF069FF2F490AF0D8FF2E490546F3
:1012200020460CF0F3FE2D490CF0E8FD2C49044655
:1012300028460CF0EBFE014620460CF0DFFD01468F
:101240004FF07E500CF096FF26490CF0D5FD3D6D19
:101250007865294604460DF095F8B96D30BB2046F7
:101260000DF072F808B12346BB65294620460DF003
:1012700089F8A0B92946F86D0DF066F808B12C463A
:10128000FC651A4801F0E6FE0120FEE59DF821907C
:10129000174849464246C34601F0DCFEEBE5F96DCE
:1012A00020460DF06FF80028EAD1EAE728460DF055
:1012B0004BF80028F3D02B46D6E700BF6B57053B11
:1012C0002003C839001601470AD7E33FE17A64409A
:1012D00000007A4400004040A40D8F395A80473AFC
:1012E00046A6DB3333938843002C01478426010054
:1012F00060260100052994BF50F8210000207047A6
:101300002DE9F0410B4E8046041F00F1140754F8FC
:10131000045F314628460DF017F830B1D8F8681050
:1013200028460DF02FF800B12E46BC42EFD13046D2
:10133000BDE8F08100002041F8B50026041F00F14F
:10134000140754F8045F314628460DF01BF800B12D
:101350002E46BC42F5D13046F8BD00BF2DE9F0471E
:10136000876E82464FF00009041F00F114064FF00B
:10137000000854F8045F394628460DF003F80D497B
:1013800050B128460CF0E0FF30B1484629460CF039
:1013900035FD08F101088146B442EAD1CAF88880D7
:1013A00040460CF0DFFD014648460CF0E3FEBDE888
:1013B000F08700BF00007042D0F88800704700BF7F
:1013C00038B5456D046D294620460CF0BDFF00B9C7
:1013D0002C46204638BD00BF38B5446D056D21460A
:1013E00028460CF0B1FF00B92C46204638BD00BF9E
:1013F00008B5D0F880301BB1133350F8230008BD76
:10140000416D006D0CF0FAFC4FF07C510CF0FEFDCC
:1014100008BD00BF806C704701299ABF143150F895
:1014200021000020704700BF3E2998BF80F884103B
:10143000704700BF90F86C00704700BFC0F8801084
:10144000704700BF80F86C10704700BF816670471E
:1014500070B500F50A5506461C3500F128042046F3
:101460008C34FFF703F8AC42F9D106F1B40501243E
:1014700028460021FFF7E6FF214628460134FFF702
:10148000D3FF3F2C05F18C05F2D142F2A4240025B4
:101490000548064A064B3555002130617161B2613D
:1014A000F361304670BD00BF00007A44000048433D
:1014B0000000C8C238B500F50A551C3500F1B40467
:1014C00002E08C34AC420AD02046FFF7B3FF00287C
:1014D000F7D020468C34FEF7F1FFAC42F4D138BD92
:1014E0002DE9F04142F2A82300F50A5637460022C2
:1014F0008046C2501C36283700F1B40402E08C3418
:10150000B4420DD02046FFF795FF0028F7D02046C3
:101510003D68FFF751FF8C342844B4423860F1D164
:1015200042F2A82358F80300BDE8F0812DE9F04FFE
:1015300093B0814642F2AC231046019201284FF04D
:101540000002069149F8032000F0038209F50A53CE
:101550002C33079309F1B40A4FF0010B5046FFF703
:1015600069FFC0B100263446012531465046D9F8FE
:101570000870FFF7BFFE014638460CF0E5FE18B1D3
:1015800005FA06F31C43E4B20136062EEDD1019BA9
:10159000012B0AD0F4B90BF1010BBBF13F0F0AF19B
:1015A0008C0ADBD113B0BDE8F08F5946BD4807F077
:1015B00099FF0321BC480AF0EDFA214600230222DC
:1015C000B84807F04FFF0321B8480AF0E3FA002CAF
:1015D00000F018814FEA4B03DBB21946029343F047
:1015E00001039DF8182003931D46184633238DF8F8
:1015F00026208DF825308DF8241009F089FA0DF198
:101600002500022109F08EFA09AA05928DF82450CE
:101610002A4609AB0DF1260600205040082510F09F
:10162000800F4FEA400018BF80F00700013DC0B2B4
:10163000F5D19E4202D013F8012FEEE709F068FAC7
:1016400001F002FC002840F0EC809DF808308DF895
:101650002430022008F050FD01F0F6FB002840F095
:101660006E810AAB04931F46002509F071FA002829
:1016700044D01E2D35D101E009F07AFA09F068FA5C
:101680000028F9D101F0E0FB00283DD1019B012B9E
:1016900040D0039D9DF808208DF824203223284651
:1016A0008DF825308DF8264009F032FA0DF125002D
:1016B000022109F037FA8DF8245009AB2A460020A0
:1016C0005040082510F0800F4FEA400018BF80F00E
:1016D0000700013DC0B2F5D19E423BD013F8012F67
:1016E000EEE709F045FA07F8010B804601F0ACFB84
:1016F00020BB013509F02CFA0028BAD11E2DBDD02F
:1017000001F0A2FB0028C1D0664807F09BFE019BB8
:10171000012BBED1049D0BAF15F8011B61480023BE
:10172000102207F09FFE012161480AF033FAAF4210
:10173000F2D103215D480AF02DFAAAE75FFA88F199
:1017400000231022574807F08DFE012159480AF066
:1017500021FACEE709F0DCF901F076FB002840F031
:10176000AD809DF808308DF82430022008F0C4FCCC
:1017700001F06AFB002840F0E780049E002509F094
:10178000E7F900B31E2D11D101E009F0F1F909F0DC
:10179000DFF90028F9D101F057FBD0B9019B012BEB
:1017A0001DD0079A13681C441460F4E609F0E0F9B0
:1017B00006F8010B074601F047FB38BB013509F07D
:1017C000C7F90028DED11E2DE1D001F03DFB002835
:1017D000E4D0344807F036FE019B012BE1D1049E92
:1017E0000BAD16F8011B2F480023102207F03AFE1C
:1017F00001212F480AF0CEF9AE42F2D1079A1368C0
:1018000023441360274807F01DFEC4E6F9B2002305
:101810001022244807F026FE012126480AF0BAF9D2
:10182000CCE7092124480AF0B5F92B461022039988
:101830001C4807F017FE01211E480AF0ABF92B46A1
:1018400010229DF82510174807F00CFE01211948B9
:101850000AF0A0F910222B469DF82610114807F037
:1018600001FE012113480AF095F929460DF12700E0
:1018700009AA12F8013B5940C9B2082311F0800FA0
:101880004FEA410118BF81F00701013BC9B2F5D110
:101890009042EED11022034807F0E4FD014807F022
:1018A000D1FDD2E6D087FF1FFC26010000270100F2
:1018B00004270100482D01001826010009212748AE
:1018C0000AF068F92B4610220399254807F0CAFD53
:1018D000012124480AF05EF92B4610229DF82510BC
:1018E0001F4807F0BFFD01211E480AF053F91022DE
:1018F0002B469DF826101A4807F0B4FD012119481F
:101900000AF048F9059829460DF1270210F8013B25
:101910005940C9B2082311F0800F4FEA410118BFA6
:1019200081F00701013BC9B2F5D18242EED110220C
:101930000B4807F097FD0A4807F084FD11E70721DF
:1019400009480AF027F98CE6072107480AF022F92E
:1019500013E7034807F076FDF8E500BF18260100FD
:10196000D087FF1F482D0100242601002DE9F04FEC
:10197000824685B04FF0000901238DF800908DF864
:1019800001908DF802304FF003080024204609F042
:10199000BFF802210DF1010009F0C4F88DF80040F4
:1019A00001F052FA30B30921B5480AF0F3F80023E8
:1019B00010222146B34807F055FD0121B2480AF034
:1019C000E9F8002310229DF80110AE4807F04AFD07
:1019D0000121AD480AF0DEF8002310229DF8021024
:1019E000A84807F03FFD0121A7480AF0D3F8A54811
:1019F00007F028FD02208DF8004008F07DFB01F083
:101A000023FA002840F0898001AF3E46002409F007
:101A10009FF8002867D0042C58D101E009F0A8F8FD
:101A200009F096F80028F9D101F00EFA10B19548A6
:101A300007F008FD9DF80430802B40F01E819DF8D2
:101A40000530002B40F019819DF80640012C40F034
:101A500014818E4801F0FEFA0AF1B406254604E02E
:101A600001353F2D06F18C0686D03046FFF7E2FCAB
:101A700083460028F4D13B2265F07F0301208DF8D6
:101A800001208DF802308DF800B009F041F80DF119
:101A90000100022109F046F801228DF80020E846F5
:101AA00058466B460DF102026040C0B2082410F0A7
:101AB000800F4FEA400018BF80F00700013CC0B221
:101AC000F5D193422ED013F8014FEDE709F050F80D
:101AD00006F8010B054601F0B7F998B9013409F091
:101AE00037F8002897D1042C9AD001F0ADF910B145
:101AF000644807F0A7FCB8F1010800F0BE809DF82B
:101B0000004043E7E9B2002310225E4807F0AAFC38
:101B100001215D480AF03EF8E0E707215C480AF041
:101B200039F871E708F0F4FF01F08EF900285AD176
:101B300003208DF8009008F0DFFA01F085F9002805
:101B400040F09680002409F003F8B0B30A2C27D1A6
:101B500001E009F00DF808F0FBFF0028F9D101F0D1
:101B600073F900287FD19DF80430812B7FF404AFF6
:101B70009DF805303B2B7FF4FFAE9DF80630803595
:101B8000AB427FF4F9AE30460121FFF75BFC0AF56A
:101B90000A5340481A6A01321A6201F05BFAEBE616
:101BA00008F0E6FF07F8010B804601F04DF970B927
:101BB000013408F0CDFF0028C8D10A2CCBD001F0A9
:101BC00043F9002850D1022C7FF7D6AECBE75FFA5D
:101BD00088F1002310222B4807F044FC01212A48F9
:101BE00009F0D8FFE4E70921254809F0D3FF23468F
:101BF00010220121234807F035FC0121224809F079
:101C0000C9FF234610229DF801101E4807F02AFC48
:101C100001211D4809F0BEFF102223469DF8021045
:101C2000184807F01FFC0121174809F0B3FF2146AF
:101C30000DF1030218F8014B6140C9B2082311F0FD
:101C4000800F4FEA410118BF81F00701013BC9B283
:101C5000F5D14245EED110220A4807F003FC0948AD
:101C600007F0F0FB64E70A24064807F0EBFBAAE75D
:101C70000721074809F08EFF64E705B0BDE8F08F43
:101C800018260100D087FF1F482D010008270100FA
:101C900024260100142701002DE9F04742F2A0227A
:101CA00084B000230127835082468DF804308DF8DC
:101CB000053000F1B4088DF806704FEA47095FFA65
:101CC00089F400214046FFF7BDFB20468DF8044013
:101CD00008F01EFF02210DF1050008F023FF8DF82A
:101CE000044001F0B1F830B30921494809F052FF2E
:101CF000002310222146474807F0B4FB0121464843
:101D000009F048FF002310229DF80510414807F014
:101D1000A9FB0121404809F03DFF002310229DF856
:101D200006103C4807F09EFB01213B4809F032FFBA
:101D3000384807F087FB14208DF8044008F0DCF9E0
:101D400001F082F800285DD102AE002408F000FF07
:101D500040B3082C19D101E008F00AFF08F0F8FEA2
:101D60000028F9D101F070F8002846D19DF808301C
:101D70004B4522D00137052008F0BEF93F2F08F16E
:101D80008C089AD104B0BDE8F08708F0F1FE054652
:101D900006F8010B01F058F820BB013408F0D8FE1A
:101DA0000028D6D1082CD9D001F04EF830BB042C35
:101DB000E0DD9DF808304B45DCD19DF80930002B63
:101DC000D8D19DF80A100129D4D19DF80C30002BF0
:101DD000D0D04046FFF736FB0AF50A531A6A0132A3
:101DE0001A62C7E7E9B2002310220A4807F03AFB5B
:101DF0000121094809F0CEFECFE70824054807F085
:101E000021FBD4E70721054809F0C4FE9CE700BF89
:101E100018260100D087FF1F482D0100242601004D
:101E20002DE9F04700F50A56354684B080461C3649
:101E3000203500F1B4040027204600218C34FFF740
:101E400001FBB4422F60F7D102270DF106064FF0D7
:101E50007F093C22A5237E217F208DF805208DF867
:101E600006308DF8041001AD08F052FE0DF10500AA
:101E7000022108F057FE8DF804902B467F220020A7
:101E80005040082410F0800F4FEA400018BF80F047
:101E90000700013CC0B2F5D1B34202D013F8012FC4
:101EA000EEE708F035FE00F0CFFF00285AD17E2380
:101EB00064208DF8043008F01FF900F0C5FF0028F9
:101EC00040F090800DF1080A002408F041FE20B394
:101ED000082C15D101E008F04BFE08F039FE00286F
:101EE000F9D100F0B1FFF0B99DF808307F2B21D077
:101EF000013FAED14046FFF739FD04B0BDE8F087A1
:101F000008F036FE05460AF8010B00F09DFFF0B917
:101F1000013408F01DFE0028DAD1082CDDD000F0D5
:101F200093FF0028E0D0324807F08CFA9DF8083083
:101F30007F2BDDD19DF809303C2BD9D19DF80A309B
:101F4000A52BD5D19DF80B30572BD1D1D2E7E9B2D3
:101F500000231022264807F085FA0121254809F0C0
:101F600019FED5E70921244809F014FE2346102262
:101F70007F211F4807F076FA01211E4809F00AFE6A
:101F8000234610229DF80510194807F06BFA01212D
:101F9000184809F0FFFD102223469DF8061014484A
:101FA00007F060FA0121134809F0F4FD21460DF114
:101FB000070215F8014B6140C9B2082311F0800FE8
:101FC0004FEA410118BF81F00701013BC9B2F5D1C9
:101FD000AA42EED11022064807F044FA044807F05E
:101FE00031FA64E70721054809F0D4FD6AE700BF2C
:101FF000D087FF1F482D010018260100242601006C
:102000002DE9F04385B04FF07F082022FF23814661
:102010008DF804808DF805208DF8063003260DF12B
:10202000060548F00107384608F072FD0DF105007D
:10203000022108F077FD8DF804703A4601AB0020CC
:102040005040082410F0800F4FEA400018BF80F085
:102050000700013CC0B2F5D1AB4202D013F8012F0A
:10206000EEE708F055FD00F0EFFE002840F0768224
:1020700002208DF8048008F03FF800F0E5FE00280B
:1020800040F0B2820DF10808002408F061FD00283C
:1020900043D0042C34D101E008F06AFD08F058FD6B
:1020A0000028F9D100F0D0FE10B1C14807F0CAF9FC
:1020B0004FF07F0800238DF804808DF8063003264A
:1020C00048F00107384608F023FD0DF10500022114
:1020D00008F028FD8DF804703A4601AB002050400E
:1020E000082410F0800F4FEA400018BF80F007006E
:1020F000013CC0B2F5D1AB4228D013F8012FEEE776
:1021000008F036FD08F8010B074600F09DFE70B997
:10211000013408F01DFD0028BBD1042CBED000F016
:1021200093FE78B9013EC3D09DF8048079E7F9B2F7
:10213000002310229E4807F095F901219D4809F0DF
:1021400029FDE5E79A4807F07DF9EBE708F0E0FCA8
:1021500000F07AFE002840F0C08102208DF8048053
:1021600007F0CAFF00F070FE002840F038820DF141
:102170000808002408F0ECFC002846D0042C37D1D5
:1021800001E008F0F5FC08F0E3FC0028F9D100F0CC
:102190005BFE10B1864807F055F94FF07F08212209
:1021A000FF238DF804808DF805208DF80630032676
:1021B00048F00107384608F0ABFC0DF1050002219C
:1021C00008F0B0FC8DF804703A4601AB0020504096
:1021D000082410F0800F4FEA400018BF80F007007D
:1021E000013CC0B2F5D19D4228D013F8012FEEE793
:1021F00008F0BEFC08F8010B074600F025FE70B998
:10220000013408F0A5FC0028B8D1042CBBD000F0A4
:102210001BFE78B9013EC0D09DF8048050E7F9B2AA
:1022200000231022624807F01DF90121614809F0DE
:10223000B1FCE5E75E4807F005F9EBE708F068FC5C
:1022400000F002FE002840F0078102208DF8048093
:1022500007F052FF00F0F8FD002840F0CF810DF1AB
:102260000808002408F074FC002843D0042C34D162
:1022700001E008F07DFC08F06BFC0028F9D100F0CB
:10228000E3FD10B14A4807F0DDF84FF07F08002366
:102290008DF804808DF80630032648F00107384693
:1022A00008F036FC0DF10500022108F03BFC8DF82A
:1022B00004703A4601AB00205040082410F0800F13
:1022C0004FEA400018BF80F00700013CC0B2F5D1D2
:1022D0009D4228D013F8012FEEE708F049FC08F8DA
:1022E000010B074600F0B0FD70B9013408F030FC76
:1022F0000028BBD1042CBED000F0A6FD78B9013E69
:10230000C3D09DF8048053E7F9B200231022284877
:1023100007F0A8F80121274809F03CFCE5E724482C
:1023200007F090F8EBE708F0F3FB00F08DFD0028D4
:1023300051D102208DF8048007F0DEFE00F084FD0C
:10234000002840F056810DF10808002408F000FC38
:1023500018B3042C14D101E008F00AFC08F0F8FBD3
:102360000028F9D100F070FD10B1114807F06AF8AB
:1023700042F2A423002209F8032005B0BDE8F0834F
:1023800008F0F6FB08F8010B074600F05DFD98B970
:10239000013408F0DDFB0028DBD1042CDED000F096
:1023A00053FDA0B9013EE3D09DF8048075E700BF5E
:1023B000D087FF1F482D0100F9B200231022924858
:1023C00007F050F80121914809F0E4FBE0E78E485E
:1023D00007F038F8E6E709218D4809F0DBFB2346D2
:1023E00010223946884807F03DF80121874809F056
:1023F000D1FB234610229DF80510834807F032F8E0
:102400000121824809F0C6FB102223469DF80610E0
:102410007D4807F027F801217C4809F0BBFB2146E5
:102420000DF1070001AA12F8014B6140C9B208235F
:1024300011F0800F4FEA410118BF81F00701013B05
:10244000C9B2F5D19042EED110226F4807F00AF8D8
:102450006D4806F0F7FF6CE709216D4809F09AFB1B
:10246000234610223946684806F0FCFF01216748E0
:1024700009F090FB234610229DF80510624806F0F3
:10248000F1FF0121614809F085FB102223469DF8E8
:1024900006105D4806F0E6FF01215C4809F07AFB72
:1024A00021460DF1070001AA12F8014B6140C9B2A3
:1024B000082311F0800F4FEA410118BF81F0070196
:1024C000013BC9B2F5D19042EED110224E4806F040
:1024D000C9FF4D4806F0B6FFB7E609214C4809F0A0
:1024E00059FB234610223946474806F0BBFF01211D
:1024F000464809F04FFB234610229DF8051042483C
:1025000006F0B0FF0121414809F044FB10222346A8
:102510009DF806103C4806F0A5FF01213B4809F054
:1025200039FB21460DF1070001AA12F8014B614069
:10253000C9B2082311F0800F4FEA410118BF81F0A2
:102540000701013BC9B2F5D19042EED110222E48CD
:1025500006F088FF2C4806F075FFFEE509212C489F
:1025600009F018FB234610223946274806F07AFF67
:102570000121264809F00EFB234610229DF8051084
:10258000214806F06FFF0121204809F003FB1022CB
:1025900023469DF806101C4806F064FF01211B48E5
:1025A00009F0F8FA21460DF1070001AA12F8014BD3
:1025B0006140C9B2082311F0800F4FEA410118BFF2
:1025C00081F00701013BC9B2F5D19042EED1102252
:1025D0000D4806F047FF0C4806F034FF48E5072198
:1025E0000C4809F0D7FAC2E507210A4809F0D2FAE7
:1025F00048E50721074809F0CDFAA4E60721054878
:1026000009F0C8FA2BE600BFD087FF1F482D010054
:10261000182601002426010038B500F50A551C359E
:1026200000F1B40402E08C34AC420AD02046FEF73C
:1026300001FF0028F7D020468C34FEF72BF9AC427E
:10264000F4D138BD2DE9F04F0546002345F8B43BE1
:1026500000F50A5783B082462C461C3702E08C34C2
:10266000BC420AD02046FEF7E5FE0028F7D02046FF
:102670008C34FEF70FF9BC42F4D1C82007F03CFDC2
:102680002C46012604E001363F2E04F18C046ED066
:102690002046FEF7CFFE0028F5D0764800F0DAFCA1
:1026A0003146754800F0D6FC2046FEF7C7F92046B3
:1026B000FEF7B0FE0BF000F802460B466F4800F044
:1026C000C9FC2046FEF71CFE80462046FEF734FE7D
:1026D000834640460AF0F0FF8046584689460AF095
:1026E000EBFF42464B46CDE90001654800F0B2FCE5
:1026F00000212046FEF790FE012180462046FEF78D
:102700008BFE834640460AF0D7FF804658468946EE
:102710000AF0D2FF42464B46CDE90001594800F08D
:1027200099FC2046FEF776FE0146DAF800000BF031
:1027300065FBCAF800002046FEF742FEDAF81810E2
:102740000BF002FE00287BD12046FEF745FEDAF8AA
:102750001C100BF017FE002895D02046FEF73CFE1B
:1027600001363F2ECAF81C0004F18C0490D1DAF82F
:1027700004000BF0F7FB0146DAF800000BF0FAFC5E
:10278000DAF81410CAF8000004460BF0FBFD08B19B
:10279000CAF81440DAF8101020460BF0D5FD08B145
:1027A000CAF810400B2007F071FC42F2A4231AF87B
:1027B000033000284AD1002B58D042F2A423012232
:1027C0000AF803200023CAF80C302C4602E08C34AF
:1027D000BC4215D02046FEF72DFE0028F7D020463B
:1027E000FEF7AAFDDAF80C100BF0CCFD0028EED0B5
:1027F0002046FEF7A1FD8C34BC42CAF80C00E9D19A
:10280000214BCAF8083002E08C35BD4215D028466D
:10281000FEF710FE0028F7D02846FEF771FDDAF823
:1028200008100BF091FD0028EED02846FEF768FD59
:102830008C35BD42CAF80800E9D103B0BDE8F08F7D
:102840002046FEF7BDFDCAF818007DE72BB942F21D
:10285000A42300220AF80320B4E70C4800F012FC7D
:1028600042F2A42300220AF80320ABE7084800F054
:102870001FFCA2E7082901002827010064270100A6
:1028800078270100A42701000000A040F8270100DC
:10289000C027010042F2AC23C058704780687047DF
:1028A000C06870470068704741607047F8B500F530
:1028B0000A550F4616461C3500F1B40402E08C346C
:1028C000AC420FD02046FEF7B5FD0028F7D02046D9
:1028D0003946FEF7B3FD204631468C34FEF7B6FD8F
:1028E000AC42EFD1F8BD00BF2DE9F041274A284B9B
:1028F000026200F50A5507464FF0000843621C3596
:1029000000F1B404002602E08C34A54210D0204629
:10291000FEF790FD0028F7D02046FEF769FD1D491F
:102920000BF030FD80B98C34A54206F10106EED1E2
:1029300042F2A023F858801B0BF014FB01464046DE
:102940000BF018FCBDE8F0812046FEF751FD014672
:1029500040460BF053FA80462046FEF749FD396A9F
:102960000BF010FD60B92046FEF742FD796A0BF0CE
:10297000EBFC0028C8D02046FEF73AFD7862C3E79A
:102980002046FEF735FD3862EDE700BF0000C8C203
:1029900000C0794400008CC2006A7047406A7047EA
:1029A000F8B500F50A55074600261C3500F1B404B9
:1029B00002E08C34AC420FD02046FEF73BFD0028ED
:1029C000F7D02046FEF7CAFC014630460BF016FA57
:1029D0008C34AC420646EFD142F2A023F8580BF0FB
:1029E000C1FA014630460BF0C5FBF8BD2DE9F04FAA
:1029F00006468FB076488B4600F0D4FA744800F053
:102A0000D1FA734800F0CEFA42F2A0233046F258D1
:102A10000D92FEF765FD73680C93074630680AF067
:102A20004BFE804630468946FFF7BAFF8246304665
:102A3000B468F568FFF758FF0AF03EFECDE90A01D9
:102A4000214628460BF0D8F962490BF0DFFA0AF06C
:102A500033FECDE9080128460AF02EFECDE9060135
:102A600020460AF029FECDE9040150460AF024FE72
:102A70000D9A0C9BCDE90201CDE90089114656481B
:102A80003A4600F08FFA524800F08CFAB43601272B
:102A90004FF0000A05E001373F2F06F18C0600F0E9
:102AA0008E803046FEF7C6FC0028F4D03046FDF795
:102AB000E1FE3046FDF7E2FE3046FDF7E3FE30462C
:102AC000FDF7E4FE0821454809F064F8394644481A
:102AD00006F008FD092F75DD0221424809F05AF879
:102AE0003046FEF797FC0AF0E7FD5FFA8BF90246E5
:102AF0000B46CDF800903A4806F0FEFC01213A481A
:102B000009F048F85546002420E00621374809F02E
:102B100041F82946324806F0E5FC0221344809F024
:102B200039F821463046FEF7E5FB0AF0C5FDCDF841
:102B3000009002460B462A4806F0DEFC01340121D3
:102B4000294809F027F8062C09D04546092D05F13A
:102B50000108DADC0121274809F01CF8D5E711212A
:102B6000254809F017F800213046FEF755FC0AF019
:102B7000A3FD022402460B460094194806F0BCFC53
:102B800012211E4809F006F801213046FEF744FCE8
:102B90000AF092FD009402460B46114806F0ACFC88
:102BA0000121174808F0F6FF01370D4806F04AFCEE
:102BB0003F2F0AF1060A06F18C067FF472AF0FB0C0
:102BC000BDE8F08F01210B4808F0E4FF84E700BF67
:102BD0000829010000007A44A02A0100402B0100CE
:102BE000D087FF1F243A01004C2B0100502B01001D
:102BF000382D0100482D0100582B01006C2B0100DD
:102C0000802B01002DE9F04F85B000F1B4058A4614
:102C100003929B462E464FF0010806E008F101089A
:102C2000B8F13F0F06F18C067BD03046FEF702FC70
:102C30000028F3D000230A2251467D4806F012FCFA
:102C400001217C4808F0A6FF03980AF035FD002317
:102C50000246009376480B4606F04EFC012175486B
:102C600008F098FF5946724806F03CFC0121714873
:102C700008F090FF41466E4806F034FC01216D4893
:102C800008F088FF00244FF0020921463046FEF785
:102C900031FB0AF011FDCDF8009002460B46644866
:102CA00006F02AFC01340121624808F073FF082C69
:102CB0004FF00207E9D100213046FEF7ADFB0AF0E4
:102CC000FBFC009702460B46594806F015FC012113
:102CD000584808F05FFF01213046FEF79DFB0AF0DF
:102CE000EBFC009702460B46514806F005FC01211B
:102CF000504808F04FFF39463046FEF78DFB0AF08A
:102D0000DBFC009702460B46494806F0F5FB08F14C
:102D10000108474806F096FBB8F13F0F06F18C0614
:102D200083D101274FF0000904E001373F2F05F15F
:102D30008C0579D02846FEF77DFB0028F5D00023CE
:102D40000A2251463C4806F08DFB0121394807F024
:102D5000B3FC03980AF0B0FCCDF8009002460B4695
:102D6000354806F0C9FB0121324807F0A5FC594659
:102D7000314806F0B7FB01212E4807F09DFC39468B
:102D80002D4806F0AFFB01212A4807F095FC0024EE
:102D90004FF0020821462846FEF7ACFA0AF08CFCF8
:102DA000CDF8008002460B46234806F0A5FB01340F
:102DB0000121204807F080FC082C4FF00206E9D1E1
:102DC00000212846FEF728FB0AF076FC0096024612
:102DD0000B46194806F090FB0121164807F06CFCE1
:102DE00001212846FEF718FB0AF066FC0096024611
:102DF0000B46114806F080FB01210E4807F05CFCF1
:102E000031462846FEF708FB0AF056FC00960246BB
:102E10000B46094806F070FB0137074806F012FB25
:102E20003F2F05F18C0585D105B0BDE8F08F00BFBF
:102E3000D087FF1F842B0100B487FF1F014B187040
:102E4000704700BF2087FF1F024B1878B0FA80F050
:102E5000400970472087FF1F0278002A00F0908009
:102E600070B5034682B00D46252A2AD158785C1CDD
:102E700008B325282FD0732831D0642824D069289E
:102E800022D066284FD07A2859D0782835D05828B3
:102E90002FD062283ED0422838D06C2814D0632826
:102EA00012D0742857D054285FD008F0F7FE62780B
:102EB000631C002AD8D1344802B0BDE8704006F047
:102EC000C1BA18781C46F0E72B1D29682E481D460C
:102ED00006F008FBEBE7104608F0E0FEE7E72E6897
:102EE00030460CF0ADF801463046043508F052FE8D
:102EF000DDE70221254808F04DFE2E1D29682248F5
:102F000000231022354606F0ADFAD0E70221204812
:102F100008F040FE2E1D29681B480023022235467A
:102F200006F0A0FAC3E7073525F007050321D5E928
:102F3000002315480091083506F0DEFAB7E707359B
:102F400025F007050021D5E900230F480091083539
:102F500006F0D2FAABE7296801290EBF0D480E48EA
:102F60000121043508F016FEA1E72B68012B07BFED
:102F700004210A480A480521043508F00BFE96E7AB
:102F8000014806F05FBA00BFD087FF1F882B010001
:102F90008C2B0100902B0100942B0100982B010039
:102FA000A02B01000FB400B583B004A951F8040BA5
:102FB0000191FFF751FF03B05DF804EB04B07047D7
:102FC00070B51B4B1B4C1B6882B00D460193019BD7
:102FD0002360194604460023164617480A2206F0C5
:102FE00041FA0321154808F0D5FD032C07D8DFE886
:102FF00004F01A1510020521114808F0CBFD02213A
:10300000104808F0C7FD31462846FFF725FF02B0FB
:1030100070BD07210C4808F0BDFDF0E704210B4806
:1030200008F0B8FDEBE70521094808F0B3FDE6E735
:10303000C0BCFF1F4C92FF1FD087FF1FFC26010062
:10304000C02B0100382D0100B82B0100B02B01006E
:10305000A82B01000FB400B5094B187883B020B13C
:1030600003B05DF804EB04B0704705AB1A46049951
:103070000193FFF7A5FF03B05DF804EB04B07047C0
:103080002087FF1F0FB4094B00B51B78012B83B0BD
:1030900004D903B05DF804EB04B0704705AB1A46E1
:1030A000049901930120FFF78BFFF2E72087FF1FB0
:1030B0000FB40B4B00B51B78032B83B004D903B0BE
:1030C0005DF804EB04B0704705AB1A460499019310
:1030D0000320FFF775FF03B05DF804EB04B0704701
:1030E0002087FF1F30B4074D074C084900232B7081
:1030F000236003654365836580F85C300B6030BCFA
:10310000704700BF5892FF1F5492FF1F5092FF1F3D
:1031100038B5044608460D460BF092FF2368024678
:1031200029465B68204698470546204606F08AF9FE
:10313000284438BD2DE9F84349484A4F4A4C4B4D85
:103140004B4EFFF72FFF4B4B4B495F6014274B480B
:103150004B4ADFF850E11F70596100274FF07C5156
:10316000D8601C614748484C5A629D61474A484DA7
:103170009E62C3F82CE00C26DFF82CE11F63596433
:10318000444F454958639C63022001249A64DD64DE
:10319000002232251E65C3F820E064264FF4967E97
:1031A000C3F8C070D9614FF41677D96341F2883102
:1031B000587058721C725C6583F84020C3F8A050A8
:1031C0001D66C3F864E0C3F85CE0A3F8C870A3F818
:1031D000CA109E6540F61C4CA3F8CC704FF00A0E46
:1031E000A3F8CE109A67D867C3F88040C3F884204C
:1031F000C3F88810C3F88C50C3F8A85041F20407F4
:10320000C3F8A420C3F8B0404FF05A08C3F8B40084
:103210004FF47A79214DA3F8BC10214C83F8C520D6
:1032200083F8C620FF2040F2D6620521C3F8B860BB
:10323000C3F868C0C3F86CE01F67C3F87480C3F8B4
:103240009090C3F89450C3F89840C3F8AC00A3F82A
:10325000BE10A3F89C20A3F89E20BDE8F88300BF11
:10326000C82B010020A1070000004040CDCC4C40FD
:10327000000082425893FF1F3333834066668640C6
:10328000CDCCCC3D000020420000A0409A9979406E
:103290000AD7233D9A99993ECDCC4C3E0000684216
:1032A00000C02044000020C133337340F0B54FF418
:1032B0007A6085B006F020FF00210F2006F0F4FEB2
:1032C00000210E2006F0F0FE0021112006F0ECFE99
:1032D0000021102006F0E8FE0021122006F0E4FE96
:1032E0000021132006F0E0FE01210B2006F0DCFE99
:1032F00001210C2006F0D8FE0121142006F0D4FE96
:103300000121152006F0D0FE0121162006F0CCFE8A
:103310000121172006F0C8FE01210520AE4CAF4D5B
:1033200006F0C2FE0121062006F0BEFE01210D209E
:1033300006F0BAFE20880AF011FE0146162006F0BB
:103340001DFE20880AF00AFE0146172006F016FE30
:1033500020880AF003FE0146052006F00FFE2088B3
:103360000AF0FCFD0146062006F008FE05F1D00635
:103370002F462C46601B06F0D3FA04F8010BB4422A
:10338000F8D13B78142B01D0FFF7D4FE944C796828
:10339000944A954800252B46009505F081FA20684F
:1033A0004FF0FF32102104F035FE20684FF0FF325D
:1033B000102104F007FE20684FF0FF32042104F0D2
:1033C00015FE20684FF0FF32012104F019FE2A4655
:1033D0000F21206804F028FE0C21844808F0DAFB55
:1033E000834806F02FF81021824808F0D3FB80486C
:1033F00006F028F840F2836006F03CFF7C4806F0B7
:1034000021F817217C4808F0C5FB794806F01AF826
:103410007A4B1B78990600F1D680784B1B781A07F7
:1034200000F1C980754B1B785B0700F1BC80734BC2
:103430001B789E0700F1A380714B1B781D0600F1DD
:10344000AA806F4B1B785C0600F191806C4B1B7857
:10345000980600F184806A4B1B78590777D4684B33
:103460001B781A076BD4664B1B789B0706D518216F
:10347000644808F08FFB5E4805F0E4FF5C4805F007
:10348000E1FF72B6604A4CF220534DF62811202518
:1034900013802B461180013BFDD15C485C495D4B9C
:1034A00000244FF4805606800C801C8032F80E3CBD
:1034B0009BB243F0D30322F80E3C62B69D2007F086
:1034C000D7FA2946544808F065FB494805F0BAFF89
:1034D0005248FEF7A5FC0420FFF7B0FC504B4F48C4
:1034E0001C60FEF7D9FB01210D2006F0C9FD796DA6
:1034F0004A484C4CFFF7D8F97A6C97F84010474887
:10350000FFF7D4F9484B49491B68494A43481268B8
:1035100081FB0351DB17A3EB211313FB02F3238081
:10352000FEF76EFD434B44491A68039203981B68EB
:103530000293029A414B08601A6005B0F0BD192150
:103540003F4808F027FB2A4805F07CFF8BE71C2149
:103550003C4808F01FFB264805F074FF7FE7132165
:10356000394808F017FB224805F06CFF73E7122179
:10357000364808F00FFB1E4805F064FF66E7172188
:10358000334808F007FB1A4805F05CFF1C4B1B781A
:103590001D067FF556AF0E212E4808F0FBFA1448A1
:1035A00005F050FF4DE70E212B4808F0F3FA1048C4
:1035B00005F048FF3BE70C21284808F0EBFA0C48DF
:1035C00005F040FF2EE72121254808F0E3FA0848DE
:1035D00005F038FF21E700BF2887FF1F5893FF1F22
:1035E000E494FF1F98BCFF1F38B8FF1FE82B0100B1
:1035F000D087FF1FF82B01000C2C010001F00740C1
:1036000000F00740F42C01000E2005400420054086
:103610000620054016200540102D01008895FF1F4B
:103620007092FF1FF094FF1F6487FF1F1F85EB51EF
:103630006087FF1FC0BCFF1F2095FF1F9894FF1FCE
:10364000D82C0100B82C0100A42C0100902C010002
:10365000682C0100802C0100582C0100482C01002E
:10366000242C0100F8B5464C464D4748E668002337
:103670002B70FFF715F9014630460AF065FE08B1D8
:1036800004232B704048FFF709F921690AF05CFE1A
:1036900018B12B7843F010032B703B48FFF724F947
:1036A000A16A0AF06FFE18B12B7843F040032B702B
:1036B000002335486B70FFF717F9E16A314D0AF0C6
:1036C00043FE08B101236B70304D2F4800232B704F
:1036D000FFF7E6F8616A0646E0680AF08DFB0146EE
:1036E00030460AF04FFE08B104232B702648FFF73E
:1036F000D5F8616A064620690AF080FB014630462B
:103700000AF022FE18B12B7843F010032B701E48EC
:10371000FFF7EAF8A16B0646A06A0AF06DFB0146C6
:1037200030460AF02FFE18B12B7843F040032B707F
:10373000002315486B70FFF7D7F8A16B134F0646AF
:10374000E06A0AF05BFB014630460AF0FDFD08B175
:1037500001237B7000230C48EB70FFF7A1F80546AE
:1037600009480A4EFFF79AF8014628460AF044FB3A
:10377000E16B0AF007FE08B10123F370F8BD00BF4A
:103780005893FF1F5493FF1F8895FF1FD894FF1F66
:103790002DE9F0417C4C2368012B82B031D0022B03
:1037A00000F0A880032B00F0C8803BBB774B784A21
:1037B000D3F8A810D3F8AC3012685B1A632B0EDD77
:1037C000744803FB02F380FB0302DB17C3EB6213B5
:1037D0001944062002B0BDE8F04106F0D1BA6E48A7
:1037E00003FB022380FB0302DB17C3EB221211440D
:1037F000062002B0BDE8F04106F0C2BA02B0BDE852
:10380000F081664E33680A33B3F57A7F00F3B780F0
:10381000184633600AF0A6FB61490AF0F7FB8046C0
:103820005A4DD5F8A8000AF09DFB0746D5F8AC0024
:103830000AF098FB39460AF0DFFA41460AF0E6FB47
:1038400058490AF097FC39460AF0D8FA0AF0BAFD4E
:103850000146062006F094FA0221534808F09AF92E
:10386000524805F0EFFD0621514808F093F9306801
:103870000AF078FB4A490AF0C9FB09F01DFF02274C
:1038800002460B460097494805F036FE0D2149488F
:1038900008F080F9D5F8A8000AF064FB804630688B
:1038A0000AF060FB3E490AF0B1FB0646D5F8AC00D1
:1038B0000AF058FB41460AF09FFA014630460AF0EA
:1038C000A5FB38490AF056FC41460AF097FA09F080
:1038D000F3FE00970B460246344805F00DFE3946CC
:1038E000314808F057F9314805F0ACFD2368022B48
:1038F0007FF458AF294B254E00221A60D6F8A80055
:103900000AF030FB0546D6F8AC000AF02BFB29463E
:103910000AF072FA00210AF079FB22490AF02AFC27
:1039200029460AF06BFA0AF04DFD0146062006F022
:1039300027FA2368032B7FF438AF184B134E4FF44C
:103940007A721A60D6F8A8000AF00CFB0546D6F881
:10395000AC000AF007FB29460AF04EFA11490AF0BA
:1039600055FB10490AF006FC29460AF047FA0AF00E
:1039700029FD0146062006F003FA236815E7002317
:103980004FF0000833604BE7C494FF1F5893FF1FAC
:103990003887FF1F1F85EB51CBF08D287492FF1FD6
:1039A000CDCCCC3D0000C842243A0100D087FF1F97
:1039B000342D01003C2D010070B5B548B54C05F023
:1039C00041FDB34805F03EFDB14805F03BFD0D213A
:1039D000B14808F0DFF8D4F8A430012B11D0AF4C77
:1039E000AB48217800230A2205F03CFD2378052B03
:1039F00067D8DFE813F006010B01100115011A0169
:103A000001010921A64808F0C5F8A648FEF746FFBF
:103A100021690AF099FC18B10F21A34808F0BAF8FF
:103A2000A048FEF73DFFE1680AF0ACFC18B10E219A
:103A30009E4808F0AFF89B48FEF732FF05469948CC
:103A4000FEF72CFF014628460AF0D6F9E16B0AF092
:103A500099FC18B11121964808F09CF89148FEF79E
:103A600043FFA16A0AF08EFC18B10C21914808F0BE
:103A700091F88C48FEF738FFE16A0AF065FC18B14E
:103A80000D218D4808F086F88C4B86481B68012B69
:103A900000F0E880FEF702FF21697E4D0AF072FC1B
:103AA00078B18048FEF7FCFEE9680AF04DFC40B1B1
:103AB0007A4B1B78052B00F0E6800821804808F03F
:103AC00069F802217F4808F065F8122006F0DEFA56
:103AD000012800F0AF80112006F0D8FA012800F08C
:103AE000B380794B1B68012B00F0B7800221754829
:103AF000764C08F04FF8764B6548196805F0F2FCF3
:103B0000634805F09FFC0421724808F043F80B203D
:103B100006F0BCFA002301460A225D4805F0A2FC2B
:103B20000C2006F0B3FA002301460A22584805F09B
:103B300099FC142006F0AAFA002301460A225448F0
:103B400005F090FC152006F0A1FA0A220023014698
:103B50004F4805F087FC06215F4808F01BF82368F2
:103B6000DD074FF001014CBF5C485D4808F012F8DA
:103B7000236898074FF001014CBF5848584808F097
:103B800009F823685A074FF001014CBF53485448C5
:103B900008F000F823681B074CBF5048504801212B
:103BA00007F0F8FF04214F4807F0F4FF112006F05A
:103BB0006DFA002301460A22354805F053FC102017
:103BC00006F064FA002301460A22314805F04AFC57
:103BD000122006F05BFA002301460A222C4805F069
:103BE00041FC132006F052FA002301460A2228481D
:103BF000BDE8704005F036BC07213B4807F0CAFF1E
:103C00005FE70621394807F0C5FF5AE70721384822
:103C100007F0C0FF55E70721364807F0BBFF50E724
:103C20000821354807F0B6FF4BE70B21334807F072
:103C3000B1FF46E70E21324807F0ACFF112006F035
:103C400025FA01287FF44DAF0A212E4807F0A2FF84
:103C50001D4B1B68012B7FF449AF11212A4807F047
:103C600099FF43E7FEF71AFE216A0AF08BFB002852
:103C70003FF423AF1621254807F08CFF0A21244882
:103C800007F088FF1DE70A21214807F083FF18E7A6
:103C9000D087FF1F5893FF1F4C2D0100D494FF1FA6
:103CA0005C2D01008895FF1F682D0100782D010013
:103CB000882D01009C2D0100AC2D01008892FF1F72
:103CC000E02D0100243A0100EC94FF1F2894FF1F0F
:103CD000C894FF1F542E01005C2E0100642E0100C9
:103CE000682E01006C2E01001C2E0100EC2D01003D
:103CF000F42D0100082E0100102E0100FC2D010002
:103D0000242E0100342E0100402E0100BC2D0100A4
:103D1000D42D01002DE9F04F9B4C9C4FE36F012BFC
:103D20008DB000F05981032B5AD0994E994DA36F55
:103D30009948012B09BF2968296801F100412960D0
:103D400005F076F93368002B40F0D880924805F0F2
:103D500045F9E36F3860012B064600F0DC808F499F
:103D60000AF010FBB8B98E4930460AF0EDFA90B966
:103D70008C4A8D4B12680B920B9A1A60D4F8B000E3
:103D80000AF0F0F831460AF041F9002338602B6060
:103D90000DB0BDE8F08FDFF80CA2DFF80C82DAF886
:103DA00000300A930A98D8F80030DFF82492C01A3D
:103DB0000AF0D4F831460AF029F97C490AF0DAF918
:103DC0007A490AF0D7F9D9F800100AF017F8DAF8AA
:103DD00000300993099BC9F80000C8F80030CDE70E
:103DE000DFF8D081724DD8F80000694E012300221F
:103DF0000F212B6004F018F92B68012B336800F0B9
:103E00000981002B40F0AC810021D8F80000DFF8D8
:103E1000C491684D04F05AF933681FFA80FBC9F861
:103E200000B0002B40F081810021D8F80000594DEE
:103E3000DFF880A104F0D0F8B4F89E3040F6E441F9
:103E400001FB0BF1B1FBF0F0C01A00B20AF08AF8E6
:103E500059498346D4F894000AF0D8F801465846E8
:103E60000AF088F9D9F800302860632BDFF864B1D4
:103E700000F34F8100232B603368002B3FF457AFD2
:103E800002214E4807F086FED9F80020D8F800003D
:103E900040F6E443002103FB02F804F09DF8B8FB70
:103EA000F0F00AF05BF88046B4F89E000AF05AF889
:103EB0000146404609F0A0FF09F0FEFB4FF0020862
:103EC00002460B46CDF800803D4805F015FB414603
:103ED0003A4807F05FFE286809F0EEFBCDF8008055
:103EE00002460B46364805F007FB4146354807F0C9
:103EF00051FE4146314807F04DFE18E7264805F0CF
:103F00006DF809F0D9FB022602460B4600962C48B4
:103F100005F0F2FA1AE7264B1B68012B00F02C8102
:103F2000022B7FF42BAF28490AF02CFA30B927492D
:103F300030460AF009FA002800F05381DFF864A047
:103F4000DFF86480DAF8003007930798D8F800307B
:103F5000DFF87C90C01A0AF001F831460AF056F8F2
:103F600012490AF007F911490AF004F9D9F80010CA
:103F700009F044FFDAF800300693069BC9F8000008
:103F8000C8F80030FAE600BF5893FF1F9892FF1F51
:103F90001495FF1F8492FF1F3093FF1F0000FA4308
:103FA0000000FAC3C0BCFF1F5C92FF1F00007A44F0
:103FB0005487FF1FE494FF1F17B7D138243A01003C
:103FC000D087FF1FB02E010000C82F4800A08CC66C
:103FD000A892FF1F5093FF1F3D689B4928460AF097
:103FE000B3F930B1284699490AF0CCF900287FF49A
:103FF000F7AEDFF86482964DD8F80000954E0223A4
:1040000000220E212B6004F00FF82B68012B33687F
:104010007FF4F7AE002B40F006810021D8F80000B5
:10402000DFF874928C4D04F051F833681FFA80FB6E
:10403000C9F800B0002B40F0DB800021D8F8000068
:10404000864D03F0C9FFB4F89C3040F6E44A0AFB01
:104050000BFBBBFBF0F0C01A00B209F083FF8049F4
:104060008346D4F8980009F0D1FF014658460AF07B
:1040700081F8D9F8003028600021D8F800000AFB48
:1040800003FA03F0A9FFB4F89C30BAFBF0F00FFA82
:1040900080FAC3EB0A03002BB4F8BE20B8BF5B4222
:1040A0009342BCBF00232B603368002B3FF43FAE2C
:1040B00002216C4807F06EFDD9F80020D8F8000006
:1040C00040F6E443002103FB02F803F085FFB4F857
:1040D0009C10B8FBF0F000B2411A634805F002FAF8
:1040E0000221604807F056FD286809F0E5FA4FF014
:1040F000020802460B46CDF800805B4805F0FCF94B
:1041000003215A4807F046FD4146564807F042FD54
:104110000DE6DAF80000002103F05EFFDBF8003066
:1041200064389842FFF4A6AEA6E60021286803F0A2
:1041300053FF40F6E44100230A2201FB0BF1B1FBDF
:10414000F0F1494805F08EF90221464807F022FDBA
:10415000B4F89E10444805F0C5F9D9F800B063E6FC
:10416000414805F06FF90C21414807F013FD0C217F
:10417000404807F00FFD47E63F490AF003F958B9F8
:104180003E4930460AF0E0F830B93D4A3D4B1268EE
:104190000592059A1A60F1E5DFF8E4A0DFF8E48003
:1041A000DAF8003004930498D8F80030DFF8EC9087
:1041B000C01A09F0D3FE314609F028FF324909F050
:1041C000D9FF314909F0D6FFD9F8001009F016FEE1
:1041D000DAF800300393039BC9F80000C8F80030F8
:1041E000CCE5274A274B12680892089A1A60C5E561
:1041F0000021286803F0F0FE40F6E44100230A2283
:1042000001FB0BF1B1FBF0F1174805F02BF901218F
:104210001E4807F0BFFCB4F89C10134805F062F983
:10422000D9F800B009E7104805F00CF9E36F012B4D
:104230004FF00B010CBF1648164807F0ABFC0C21E1
:104240000C4807F0A7FCE8E600709446007094C69E
:104250005487FF1F1495FF1FE494FF1F8492FF1FD4
:1042600017B7D138243A0100D087FF1F9C2E0100D8
:10427000A02E01008C2E01000000FA430000FAC3BA
:10428000C0BCFF1F5C92FF1F00007A44482D010054
:10429000742E0100802E01005093FF1FA892FF1F73
:1042A0002DE9F043894D2B6883B0002B7FD0884CDB
:1042B000884ED4F88430884F854D012B00F0B780AC
:1042C000D5F85890D7F800806D6D05FB09F54FF4CF
:1042D0007A7000FB05F009F045FE8049DFF8F491A3
:1042E0000546404609F092FE294609F043FF7C4905
:1042F00009F08CFE0AF066F8632830604BDD284632
:10430000764909F037FF6423C9F80030754B3860EF
:104310001B68002B48D0E36F6D4D012B00F0B78078
:10432000032B00F0C780022B00F0CA8002216E48E8
:1043300007F030FC6D4B186809F0BEF90224024604
:104340000B4600946A4805F0D7F82146694807F003
:1043500021FC2146644807F01DFC3168644805F0E3
:10436000C1F80621644807F015FC38685B4909F07C
:104370004DFE09F0A1F9009402460B465C4805F099
:10438000BBF803215D4807F005FC594803B0BDE8C0
:10439000F04305F057B80028BCBF0023C9F800302F
:1043A000504B1B68002BB6D103B0BDE8F0835448D6
:1043B000474CFEF7F5FA5349A76EE66E09F026FE64
:1043C0000AF026F8226F636FD21B9B1B80B29A42C1
:1043D000A0EB070067DC03FB00F393FBF2F333442D
:1043E0003C4E41483360022107F0D4FB316840481D
:1043F000394F05F077F802213B4807F0CBFB3268D4
:10440000A06D636D02FB00F003FB00F000EB800089
:10441000400009F0A7FD314909F0ACFE01232B60F3
:10442000D4F884303860012B294D7FF449AF3448EB
:10443000FEF7B6FA3349D5F86890D5F86C8009F0E4
:10444000E5FD09F0E5FF2A6F6B6F656DC9EB0202B0
:10445000C8EB030380B29A42C9EB0000D4F858902D
:10446000C6BF03FB00000132584390FBF2F040440A
:1044700000FB09F005FB00F000EB8000400009F0B4
:1044800071FD164909F076FE804638601DE71E4B27
:104490001B68012B4FF00A010CBF1C481C4807F099
:1044A00079FBEB6F3CE703FB0000531C90FBF3F33D
:1044B000334495E71021174807F06CFBE36F32E7B0
:1044C0000721154807F066FB30E700BF8092FF1F09
:1044D0005893FF1F3887FF1FA892FF1FE4388E3EB6
:1044E0000000C8424087FF1F243A01009892FF1F36
:1044F000D087FF1FB02E0100E82E0100F02E010032
:104500008895FF1F00007A445487FF1FB42E0100D6
:10451000C02E0100CC2E0100E02E010030B511208C
:1045200083B005F0B3FD012818D0122005F0AEFDD0
:10453000012813D000210B2005F0A2FD00210C2042
:1045400005F09EFD0021152005F09AFD2649274B18
:104550000120002208701A6003B030BD012115202F
:1045600005F08EFD224A234C234B1268D4F88810A4
:1045700001921B68019A1D4D0B4493424FF00201BA
:10458000296005D901210C2005F07AFD03B030BD6A
:10459000D4F8900009F0E6FC184B196809F0D4FE35
:1045A0000028EFD101210B2005F06AFD94F8C430FA
:1045B00003242C6043B10C4B02221A7000210C2002
:1045C00005F05EFD03B030BD122005F05FFD01284F
:1045D00008BF054B4FF0110008BF1C7005F056FDD9
:1045E0000128EBD1E7E700BFD494FF1F1095FF1F10
:1045F000C0BCFF1F5893FF1F2095FF1F9892FF1FFD
:10460000F0B5684E684D34682B689C4287B039D04D
:1046100014F0010155D014F0020149D014F0040146
:104620003DD0E3070ED52B68DF070BD45F4F3A6808
:10463000002A00F082805E4B1B680193019B93422D
:104640006DD83468A0070DD52B6899070AD4594F47
:104650003A68002A4CD0564B1B680393039B934245
:1046600038D8346862070DD52B685B070BD4524FDE
:104670003A68002A7ED04E4B1B680593059B9342F7
:1046800068D834680CB107B0F0BD2146162005F09B
:1046900077FB2146172005F073FB07B0F0BD05201E
:1046A00005F06EFB2B68346803F0FB032B60B8E762
:1046B000172005F065FB2B68346803F0FD032B60C1
:1046C000ACE7162005F05CFB2B68346803F0FE03B2
:1046D0002B60A0E7394B1720D3F88C1005F050FB66
:1046E0002B68346843F0020300222B603A60B9E77C
:1046F000334804F0A7FE0C21324807F04BFA30484B
:1047000004F0A0FEFF21172005F03AFB284B2E4AAB
:1047100019680291029912680A443A609CE7274B93
:104720001620D3F88C1005F02BFB2B68346843F06F
:10473000010300222B603A6084E7FF21162005F078
:104740001FFB1B4B204A19680091009912680A440C
:104750003A6071E7194B0520D3F88C1005F010FB77
:104760002B68346843F0040300222B603A60002C6D
:1047700089D18AE7124804F065FE0C21134807F03E
:1047800009FA0F4804F05EFEFF21052005F0F8FA53
:10479000074B0D4A19680491049912680A443A605B
:1047A0006AE700BF1095FF1F2894FF1FA494FF1F06
:1047B000C0BCFF1FA894FF1FAC94FF1F5893FF1F9E
:1047C000D087FF1FF42E01007087FF1F042F010008
:1047D0002DE9F047544EDFF87481DFF874913068AA
:1047E000524D00220F2103F01FFC00230122222141
:1047F0004F48C8F80030C9F8002007F0CBF9D8F8C6
:104800000030132B22DC40F6E44700213068B5F875
:104810009CA003F05BFC00210446306803F0DCFB45
:10482000A4B2012107FB04F4B4FBF0F44148544462
:10483000A5F89C4007F0AEF9642005F05DFCD8F8BF
:1048400000300133132BC8F80030DEDDB5F89C30A2
:10485000394A3A48A2FB03129B1A02EB5303C3F3F3
:104860000F131946A5F89C3004F03CFE1D21344876
:1048700007F090F90221334807F08CF92F4804F033
:10488000E1FD00231A460E213068C8F8003003F01D
:10489000CBFB022322212648C9F8003007F07AF921
:1048A000D8F80030132B22DC40F6E44700213068B2
:1048B000B5F89E9003F00AFC00210446306803F02E
:1048C0008BFBA4B2012107FB04F4B4FBF0F41948FC
:1048D0004C44A5F89E4007F05DF9642005F00CFCFF
:1048E000D8F800300133132BC8F80030DEDDB5F8FE
:1048F0009E30114A1148A2FB03129B1A02EB53038C
:10490000C3F30F131946A5F89E3004F0EBFD1D21EB
:104910000D4807F03FF902210A4807F03BF9074824
:10492000BDE8F04704F08EBDE494FF1F5893FF1FCD
:10493000142F0100582F010087611886D087FF1FB0
:10494000382F0100243A01005C2F0100CC94FF1F96
:104950005487FF1FF8B5AB4BAB4CAC4E1B68306DAA
:1049600040F2513108222160A271002B40F01A81DF
:1049700009F0F8FA7169054609F048FBA44909F005
:1049800045FB09F045FD80B20312E372A14AA24B38
:1049900012681B68B169A072237328461B12151296
:1049A0006373A273E57309F031FB9949964D09F0E1
:1049B0002DFB09F02DFD83B21A1229469748237466
:1049C000627404F03FF996F8C53040F25531082280
:1049D0002160A271002B40F0F680914B914A1B6838
:1049E00012882A73DFB203EB830107EB87004000D4
:1049F00041F3D7111B121212AF72A873E973EB7255
:104A00006A73814D8548002329462374637404F03A
:104A100019F996F8C530844840F2563108222160D1
:104A2000A271002B00F0C380FDF73AFF07467E48D5
:104A3000FDF734FF0146384609F0DEF97B4909F0FD
:104A4000E5FA09F0E5FCA8727748FDF729FF07466B
:104A50007548FDF723FF0146384609F0CDF9734943
:104A600009F0D4FA09F0D4FC714B7049C0F3072067
:104A7000E872186809F07EFB09F0A4FC02120346F4
:104A8000694862732373FDF72FFF614909F0BEFA8D
:104A900009F0BEFCA0736448FDF726FF5C4909F0ED
:104AA000B5FA09F0B5FC0025C0F3072356495B4869
:104AB000E3732574657404F0C5F8022005F01CFB4F
:104AC0005C4A5D4B177851789078A772E1721F7835
:104AD00059782073987892F803E0A773DA78E17335
:104AE000082740F25A33207447494C4884F80DE0B7
:104AF00062742360A77104F0A5F8504B42491A78FC
:104B00005878A272E0729A78D878227360731A7912
:104B1000987993F805E0A2732074DA793F4884F815
:104B20000FE040F25E3362742360A77104F08AF8EC
:104B3000022005F0E1FA424B33491A785878A27204
:104B4000E0729A78D878227360731A79987993F81A
:104B500005E0A2732074DA79304884F80FE04FF44E
:104B60005C7362742360A77104F06CF8022005F096
:104B7000C3FAB26DA77142FA07FE012340F25F3714
:104B80000226A2739922A572E57284F80FE02760CD
:104B900026736373637422741B492048BDE8F84090
:104BA00004F050B809F0DEF9316A0546E4E6FDF795
:104BB00079FE1E4909F02AFA09F02AFCA8721A485F
:104BC000FDF770FE4BE71848FDF764FEA872164823
:104BD000FDF760FE124B1B682B7302121B1212486A
:104BE000EA726B73FDF756FE00EB800043000E483F
:104BF000AB73FDF74FFE00EB800040F3D710E87376
:104C0000FFE600BF8892FF1FFC94FF1F5893FF1F11
:104C100000002041E094FF1F6492FF1F38B8FF1F7F
:104C20003887FF1F3C87FF1F8895FF1F0000C84281
:104C30009892FF1F5493FF1FD894FF1F2C87FF1FCC
:104C40005887FF1F2DE9F041874C884D82B006F050
:104C50003BFF23682860042B00F08382092B00F0BF
:104C60000B83022B4DD1A0F13102422A00F2898040
:104C7000DFE812F0F4070D081B0865002D08620834
:104C800071088700870087008700870087008700FA
:104C900087008700870087008700870087008700DC
:104CA00087008700870087008700870087008700CC
:104CB00087008700870087008700870087008700BC
:104CC00087008700870087008700870087008700AC
:104CD00087008700870087004300870087008700E0
:104CE000870087008700870087008700870087008C
:104CF00087008700830087009008FFF769FD23681D
:104D00002868082B2CD1322800F09583712834D0E4
:104D1000312836D106F014FF002840F3E1865448CC
:104D2000544E04F023FDC0B286F8400002288ABF2A
:104D30000021014686F84010726C4F488FE3012332
:104D4000236006F0FDFE002807DD4948494E04F0C7
:104D50000DFD09F007F9C6F8980063202368286064
:104D6000072B40F0AB80332801F0668440F3C58206
:104D7000342801F03984712803D100237320236083
:104D80002860002B08BF73280CBF012000200028DA
:104D900067D0374804F056FB0421384806F0FAFE85
:104DA000334804F04FFB1021354806F0F3FE30483D
:104DB00004F048FB1321334806F0ECFE324B2C483C
:104DC000196804F08FFB2A4804F03CFB14212F489B
:104DD00006F0E0FE264804F035FB1E212C4806F0C4
:104DE000D9FE234804F02EFB15212A4806F0D2FEF6
:104DF0001F4804F027FB1E21274806F0CBFE1C4865
:104E000004F020FB2021254806F0C4FE184804F0D9
:104E100019FB1921224806F0BDFE154804F012FBCB
:104E20001221204806F0B6FE114804F00BFB1921B0
:104E30001D4806F0AFFE0E4804F004FB0F211B488E
:104E400006F0A8FE0A4804F0FDFA0D21184806F005
:104E5000A1FE074804F0F6FA164A0021012311606A
:104E6000236002B0BDE8F081AC92FF1F9492FF1F57
:104E7000D087FF1F5893FF1F8895FF1F84380100BC
:104E80008C380100A03801002487FF1FB4380100CE
:104E9000CC380100EC38010004390100243901004C
:104EA0004839010064390100783901009439010062
:104EB000A43901004087FF1F23682868062B40F0B3
:104EC0008D80A0F13102402A3FF65BAF01A151F87D
:104ED00022F000BF115B0000C15B0000755B0000A9
:104EE0009B5B0000F35A0000515B0000ED5B00008B
:104EF0003D5B0000834D0000834D0000834D0000AA
:104F0000834D0000834D0000834D0000834D000061
:104F1000834D0000834D0000834D0000834D000051
:104F2000834D0000834D0000834D0000834D000041
:104F3000834D0000834D0000834D0000834D000031
:104F4000834D0000834D0000834D0000834D000021
:104F5000834D0000834D0000834D0000834D000011
:104F6000834D0000834D0000834D0000834D000001
:104F7000834D0000834D0000834D0000834D0000F1
:104F8000834D0000834D0000834D0000834D0000E1
:104F9000834D0000834D0000834D0000834D0000D1
:104FA000834D0000834D0000834D0000834D0000C1
:104FB000834D0000834D0000834D0000834D0000B1
:104FC000834D0000834D0000834D0000834D0000A1
:104FD000834D00007B4D000023682868052B15D108
:104FE000332801F03C8340F3AD81352801F05E8326
:104FF000C1F2468371287FF4C4AECD4A00237320EA
:10500000136023602860BCE623682868032B40F007
:10501000A480A0F13002422A3FF6B3AE01A151F8BC
:1050200022F000BF315100004B62000073620000AB
:105030009B620000BD620000DF62000007630000A9
:105040002F6300004D63000071630000834D00007A
:10505000834D0000834D0000834D0000834D000010
:10506000834D0000834D0000834D0000834D000000
:10507000834D0000834D0000834D0000834D0000F0
:10508000834D0000834D0000834D0000834D0000E0
:10509000834D0000834D0000834D0000834D0000D0
:1050A000834D0000834D0000834D0000834D0000C0
:1050B000834D0000834D0000834D0000834D0000B0
:1050C000834D0000834D0000834D0000834D0000A0
:1050D000834D0000834D0000834D0000834D000090
:1050E000834D0000834D000099630000B76300000A
:1050F0000B5E0000D5630000F36300001164000044
:10510000C15D0000E55D0000834D0000834D00009F
:10511000834D0000834D0000834D0000834D00004F
:10512000834D0000834D000067640000736400003D
:1051300006F006FD002841F350827E487E4E04F0C2
:1051400015FB01270346014662227C4873652760F0
:105150002A60FDF7A9FB23682868012B7FF411AEB4
:105160009DE0A0F13102402A3FF60BAE01A151F8BB
:1051700022F000BF915D00006B5D00006F5D0000DC
:105180008D5D0000A55D0000755C00008B5C00007B
:105190001F5C0000375C0000834D0000834D000061
:1051A000834D0000834D0000834D0000834D0000BF
:1051B000834D0000834D0000834D0000834D0000AF
:1051C000834D0000834D0000834D0000834D00009F
:1051D000834D0000834D0000834D0000834D00008F
:1051E000834D0000834D0000834D0000834D00007F
:1051F000834D0000834D0000834D0000834D00006F
:10520000834D0000834D0000834D0000834D00005E
:10521000834D0000834D0000834D0000834D00004E
:10522000834D0000834D0000834D0000834D00003E
:10523000834D0000834D0000834D0000834D00002E
:10524000834D0000834D0000834D0000834D00001E
:10525000834D0000834D0000834D0000834D00000E
:10526000834D0000834D0000834D0000834D0000FE
:10527000834D00007B4D0000322800F0258471280A
:105280003FF47BAD31287FF47CAD2B4E96F8C530D2
:1052900001225340782086F8C53022602860A0F1B2
:1052A0005203262B01F29081DFE813F0F3088E09F8
:1052B0008E098E098E098E098E098E098E098E0936
:1052C0008E098E098E098E098E09E200170B9E0346
:1052D000BD0228028E098E098E09DA018E09140B8F
:1052E0008E098E098E098E098E09F5088E098E09A0
:1052F0008E098E098E098E095601312801F08681AA
:1053000032287FF43EAD06F01BFC00287FF7D4ADB9
:105310000848094E04F02AFA08F024FE084908F06B
:1053200075FE61230122F06322602B601846B6E708
:10533000C494FF1FD087FF1F5893FF1F8895FF1F3E
:105340006F12833A312801F0BF8132287FF419AD02
:1053500006F0F6FB00287FF757AEA548A54E04F0EF
:1053600005FA01226B23C6F8900022602B6001E051
:1053700006F0AAFB06F0E4FB0028F9D19C4804F0F3
:1053800061F89B4804F05EF8994804F05BF898488F
:1053900004F058F8964804F055F82121964806F094
:1053A000F9FB934804F04EF81521944806F0F2FBFF
:1053B000D6F888108E4804F095F80221904806F03F
:1053C000E9FB8B4804F03EF81E218E4806F0E2FB14
:1053D000D6F89010864804F085F803218A4806F034
:1053E000D9FB834804F02EF81E21884806F0D2FB32
:1053F000D6F88C107E4804F075F87D4804F022F849
:105400001D21834806F0C6FBD6F8A810784804F0A2
:1054100069F8774804F016F81E217E4806F0BAFBBA
:10542000D6F8AC10724804F05DF8714804F00AF840
:105430000523236015E506F083FB002840F3558320
:105440006B486C4E04F092F908F08CFD724908F03C
:10545000DDFD96F840100346024670487364FDF780
:1054600025FA012369202360286018E706F02CFB49
:1054700006F066FB05460028F8D15D485D4E03F056
:10548000E1FF5B4803F0DEFF594803F0DBFF5848BB
:1054900003F0D8FF564803F0D5FF1F21604806F0FF
:1054A00079FB534803F0CEFF1C215E4806F072FBE7
:1054B000706A5D4908F0AAFD08F0FEF80095024602
:1054C0000B464B4804F018F80221584806F062FBDE
:1054D000474803F0B7FF2321554806F05BFBF06B0C
:1054E000514908F093FD08F0E7F8009502460B4695
:1054F0003F4804F001F802214C4806F04BFB3C48C1
:1055000003F0A0FF19214B4806F044FBB06B08F0F4
:10551000D3F802250B4602460095354803F0ECFF10
:105520002946454806F036FB314803F08BFF192128
:10553000424806F02FFBB6F8BC102D4803F0D2FF0E
:1055400003213F4806F026FB294803F07BFF072391
:10555000236086E406F0B8FA06F0F2FA0028F9D1E2
:105560002348244D03F06EFF214803F06BFF2048D1
:1055700003F068FF1E4803F065FF1D4803F062FF5B
:105580001521304806F006FB194803F05BFF184868
:1055900003F058FF2C212C4806F0FCFA144803F0C5
:1055A00051FF2521294806F0F5FA95F8C510104855
:1055B00003F098FF0E4803F045FF1921244806F038
:1055C000E9FA95F8C630002B41F09C800E21214865
:1055D00006F0E0FA064803F035FF13211E4806F0F6
:1055E000D9FA034803F02EFF0923236039E400BFF2
:1055F000D087FF1F5893FF1FBC320100E03201002B
:10560000B0310100F83201009C2E01001833010076
:1056100038330100583301006F12833A8895FF1F19
:10562000183201003832010000007A449430010041
:10563000583201007C320100983201009C32010096
:10564000B83201007C390100A02F0100D02F0100E9
:10565000F82F0100143001003830010006F034FA50
:1056600006F06EFA05460028F8D1BB48BB4E03F0A1
:10567000E9FEB94803F0E6FEB74803F0E3FEB6489A
:1056800003F0E0FEB44803F0DDFE1521B44806F057
:1056900081FAB14803F0D6FE1821B24806F07AFA32
:1056A0002B460A2296F84010AB4803F0DBFEAA48CE
:1056B00003F0C8FE2821AC4806F06CFA706CAB49C8
:1056C00008F0A4FC07F0F8FF00950B460246A2483C
:1056D00003F012FF0221A64806F05CFA9E4803F090
:1056E000B1FE1321A34806F055FA9B4803F0AAFE29
:1056F00008232360FFF7B5BB06F0E6F906F020FAB1
:1057000005460028F8D19448944E03F09BFE924839
:1057100003F098FE904803F095FE8F4803F092FE48
:105720008D4803F08FFE1121934806F033FA8A4822
:1057300003F088FE2821914806F02CFA70698B4905
:1057400008F064FC07F0B8FF009502460B4682485B
:1057500003F0D2FE0221864806F01CFA7E4803F0D0
:1057600071FE1621864806F015FAF0697F4908F0A7
:105770004DFC07F0A1FF00950B460246764803F06A
:10578000BBFE02217A4806F005FA734803F05AFE80
:10579000D6F8B430002B32DD1D217A4806F0FAF934
:1057A000F06D08F0DFFB784908F030FC07F084FF6B
:1057B000022502460B460095674803F09DFE012135
:1057C000724806F0E7F9644803F03CFE1F21704878
:1057D00006F0E0F9306E08F0C5FB6B4908F016FCE6
:1057E00007F06AFF009502460B465B4803F084FE13
:1057F0000121664806F0CEF9574803F023FE112137
:10580000644806F0C7F9D6F8B430062B00F270866B
:10581000DFE813F0D006D506CB06C606C106BC06E7
:105820006A0606F051F906F08BF90028F9D14A48CA
:1058300003F008FE484803F005FE474803F002FE67
:10584000454803F0FFFD444803F0FCFD1321524896
:1058500006F0A0F9404803F0F5FD0D214F4806F091
:1058600099F93D4803F0EEFD0F214D4806F092F9FD
:105870004C4B3948196803F035FE374803F0E2FD18
:105880001321494806F086F9484B3348196803F05C
:1058900029FE314803F0D6FD1221454806F07AF979
:1058A000444B2D48196803F01DFE2B4803F0CAFD38
:1058B0001121414806F06EF9404B2748196803F062
:1058C00011FE254803F0BEFD0E213D4806F062F9A9
:1058D000224B2148D3F8A41003F004FE1E4803F025
:1058E000B1FD1921374806F055F9374B1A481968A8
:1058F00003F0F8FD184803F0A5FD1121334806F028
:1059000049F9334B1448196803F0ECFD124803F0D1
:1059100099FD10212F4806F03DF92F4B0E481968CC
:1059200003F0E0FD0C4803F08DFD1C212B4806F030
:1059300031F92B4B0848196803F0D4FD064803F0F1
:1059400081FD13210B4806F025F9034803F07AFD89
:1059500004232360FFF785BAD087FF1F5893FF1FEA
:105960004C3901004C3001006830010000007A44DD
:105970009430010038300100F03801009830010007
:10598000C4300100DC300100CDCCCC3D9C350100A1
:10599000FC3001001C310100783301008C33010020
:1059A0009C330100A094FF1FAC3301001495FF1F2E
:1059B000C0330100F494FF1FD4330100F894FF1F9B
:1059C000E8330100F8330100C894FF1F14340100CC
:1059D000C494FF1F283401008C92FF1F3C34010047
:1059E0006887FF1F06F070F806F0AAF80028F9D1C2
:1059F000BF48C04E03F026FDBD4803F023FDBC4860
:105A000003F020FDBA4803F01DFDB94803F01AFD6C
:105A10001F21B94806F0BEF8B54803F013FD1E215A
:105A2000B64806F0B7F8B24803F00CFD1A21B448A6
:105A300006F0B0F8F36F022B00F0C886032B00F0DD
:105A4000BC86012B00F0B0860921AE4806F0A2F812
:105A5000A74803F0F7FC1421AB48DFF8988206F062
:105A600099F8B16FA24803F03DFDA14803F0EAFCAC
:105A70001C21A64806F08EF8D6F884109C4803F046
:105A800031FD9B4803F0DEFC1C21A14806F082F8A2
:105A9000D6F8B010964803F025FD954803F0D2FCE7
:105AA000F56F25F00207012F00F03586022D00F07A
:105AB00096861321974806F06DF88D4803F0C2FCD6
:105AC00002232360FFF7CDB98A4E96F8C630012233
:105AD0005340782086F8C63022602860FFF7DFBB8D
