:1000000000800020BD010000C5AB00007DAB0000FA
:100010007DAB00007DAB00007DAB00007DAB000040
:100020007DAB00007DAB00007DAB0000C5AB0000E8
:10003000C5AB00007DAB000059D100005DD10000D0
:10004000C5AB0000C5AB0000C5AB0000C5AB0000F0
:10005000C5AB0000C5AB0000C5AB0000C5AB0000E0
:10006000C5AB0000C5AB0000C5AB0000C5AB0000D0
:10007000C5AB0000C5AB0000C5AB0000C5AB0000C0
:10008000C5AB0000C5AB0000C5AB0000C5AB0000B0
:10009000CD8E0000C5AB0000C5AB0000C5AB0000B5
:1000A000C5AB0000C5AB0000C5AB0000C5AB000090
:1000B000C5AB0000EDA40000F9A40000FDA4000001
:1000C00009A500000DA5000011A50000C5AB0000AA
:1000D000C5AB0000C5AB0000C5AB0000C5AB000060
:1000E000C5AB0000C5AB0000C5AB0000C5AB000050
:1000F000C5AB0000C5AB0000C5AB000089BA00006D
:10010000C5AB00009DC10000C5AB0000C5AB000041
:10011000C5AB0000C5AB0000C5AB0000C5AB00001F
:10012000C5AB0000C5AB0000C5AB0000C5AB00000F
:10013000C5AB0000C5AB0000C5AB0000C5AB0000FF
:10014000C5AB0000C5AB0000C5AB0000C5AB0000EF
:10015000C5AB0000C5AB0000C5AB0000C5AB0000DF
:10016000C5AB00008DC40000C5AB0000C5AB0000EE
:10017000C5AB0000C5AB0000C5AB0000C5AB0000BF
:10018000C5AB0000C5AB0000C5AB0000C5AB0000AF
:10019000C5AB0000C5AB0000C5AB0000C5AB00009F
:1001A000C5AB0000C5AB0000C5AB0000C5AB00008F
:1001B000C5AB0000C5AB0000C5AB0000564B4CF210
:1001C000205210B51A804DF628121A8000BF00BFC9
:1001D0000AF0FCFC514B4FF010621A60504A9A60D2
:1001E000504ADA60504A136813F4807304D14F49BF
:1001F0000B604FF4A85313604D4B1A78110703D5C9
:100200001A7842F008021A704A4B4B492A221A7097
:100210004A4A4B4B8B4204D252F8040F43F8040B6A
:10022000F8E7484B484900228B4202D243F8042B9E
:10023000FAE74649464A002352F8230041F82300D2
:1002400001336F2BF8D1434B434A802103F8011B44
:100250009342FBD1414B3D4A1A60414B8A221A70AE
:10026000A3F5805324225A70A0221A709A7992071B
:10027000FCD59A79D406FCD43A4A937903F00C035E
:10028000082B384BF9D103221A7140225A719A79FE
:100290009006FCD5334A9179324B4906FBD5324A58
:1002A000324911600221516020221A709A7902F0BD
:1002B0000C020C2AFAD12E4B2E4A1A602E4B2F4AD2
:1002C0001A6000225A60072243F8042C2C4AC3F813
:1002D0000C2D62B60AF0B0FF144B1B68DA0705D587
:1002E00028480AF08BFD284B284A1A60284B1B78B7
:1002F0005B0609D5244C254B22689A4204D121483B
:100300000AF07CFD002323600AF066FC0FF02AFF50
:100310000DF038FAFEE700BF0E20054030800440A3
:10032000823F04000100002B10D0034014D0034092
:1003300002D0074000E007403894FF1FE85E01004C
:100340002087FF1F3894FF1FA4BEFF1F0082FF1FDE
:100350000000000000E400E05FE400E008ED00E0E1
:100360000050064000400640448004400000030165
:1003700004800440C010050014E000E0FF76010096
:100380000000202049A6C6621CE00340A5C3945A81
:1003900000F00740FFFFFFFFFFFFFFFFFFFFFFFF32
:1003A000FFFFFFFFFFFFFFFFFFFFFFFFFFFFFFFF5D
:1003B000FFFFFFFFFFFFFFFFFFFFFFFFFFFFFFFF4D
:1003C000FFFFFFFFFFFFFFFFFFFFFFFFFFFFFFFF3D
:1003D000FFFFFFFFFFFFFFFFFFFFFFFFFFFFFFFF2D
:1003E000FFFFFFFFFFFFFFFFFFFFFFFFFFFFFFFF1D
:1003F000FFFFFFFFFFFFFFFFFFFFFFFFFFFFFFFF0D
:10040000FFFFFFFFFFFFFFFFFFFFFFFFDEF9FFFF23
:1004100010B5054C237833B9044B13B10448AFF33E
:1004200000800123237010BD3894FF1F00000000DE
:10043000E45E0100084B10B51BB108490848AFF352
:1004400000800848036803B910BD074B002BFBD0A0
:10045000BDE81040184700BF000000003C94FF1F9B
:10046000E45E01003894FF1F00000000F0B400F1CA
:1004700014060F4F00243146031F00F12C0243F8ED
:10048000044FB34241F8047F4FF0000542F8044F97
:10049000F5D1084B084985640022C56405654565AA
:1004A000456683650366C16580F88420F0BC7047AB
:1004B0000000A040000048430000C8C200230360C1
:1004C00043608360C3600361436183640365436584
:1004D000704700BF2DE9F04190F8844084B00023BC
:1004E00064008DF80530E4B2012380468DF80440A5
:1004F0008DF80630032720460BF080FD02210DF118
:1005000005000BF085FD8DF8044002F0F1FC30B3DE
:100510000921C9480CF0FAFC002310222146C748E3
:100520000CF0A8FF0121C6480CF0F0FC00231022BB
:100530009DF80510C1480CF09DFF0121C0480CF04A
:10054000E5FC002310229DF80610BC480CF092FF39
:100550000121BB480CF0DAFCB8480CF077FF022010
:100560008DF804400AF01AFE02F0C2FC002840F0A8
:10057000778102AE00240BF085FD002800F0268173
:10058000042C40F0158101E00BF090FD0BF07AFD9A
:100590000028F9D102F0ACFC10B1A8480CF056FFCD
:1005A00098F884406400E4B2202204238DF80440CB
:1005B0008DF805208DF80630032720460BF01EFD30
:1005C00002210DF105000BF023FD8DF8044002F02F
:1005D0008FFC30B3092198480CF098FC00231022BE
:1005E000214696480CF046FF012195480CF08EFC00
:1005F000002310229DF8051090480CF03BFF0121CC
:100600008F480CF083FC002310229DF806108B48C5
:100610000CF030FF01218A480CF078FC87480CF080
:1006200015FF02208DF804400AF0B8FD02F060FCCE
:10063000002840F00B8102AE00240BF023FD0028BF
:1006400000F0A980072C40F0988001E00BF02EFD0F
:100650000BF018FD0028F9D102F04AFC10B17748E0
:100660000CF0F4FE98F884409DF80B209DF80C30B7
:100670009DF80D00C8F870206400E4B29DF80E10DB
:10068000C8F87430332201238DF80440C8F878008C
:10069000C8F87C108DF805208DF806300327204619
:1006A0000BF0ACFC02210DF105000BF0B1FC8DF854
:1006B000044002F01DFC30B309215F480CF026FC19
:1006C0000023102221465D480CF0D4FE01215C4835
:1006D0000CF01CFC002310229DF8051057480CF06C
:1006E000C9FE012156480CF011FC002310229DF890
:1006F000061052480CF0BEFE012151480CF006FCD9
:100700004E480CF0A3FE02208DF804400AF046FD8E
:1007100002F0EEFB002840F09E8002AE00240BF0B9
:10072000B1FCF8B1042C0FD101E00BF0BFFC0BF0D1
:10073000A9FC0028F9D102F0DBFB10B13F480CF016
:1007400085FE04B0BDE8F0810BF0B0FC054606F86C
:10075000010B02F0CDFB00285AD101340BF092FCC2
:100760000028DFD1042CE2D002F0C2FB00285ED1C9
:10077000013FE6D09DF8044091E70BF097FC054659
:1007800006F8010B02F0B4FB60BB01340BF07AFCFD
:1007900000287FF457AF072C3FF45AAF02F0A8FBB4
:1007A00000284FD1013F3FF45DAF9DF8044004E7BE
:1007B0000BF07CFC054606F8010B02F099FBE0B952
:1007C00001340BF05FFC00287FF4DAAE042C3FF418
:1007D000DDAE02F08DFB30BB013F3FF4E1AE9DF892
:1007E000044088E6E9B20023102214480CF042FECF
:1007F000012113480CF08AFBC7E7E9B2002310225D
:100800000E480CF037FE01210D480CF07FFBD7E7B6
:10081000E9B20023102209480CF02CFE01210848FF
:100820000CF074FB99E705480CF010FED4E7034880
:100830000CF00CFE9CE700BF00400100D489FF1FB4
:10084000E845010009480CF001FEABE70721084824
:100850000CF05CFBEFE6072105480CF057FB5CE76A
:10086000072103480CF052FB83E600BFD489FF1F29
:100870000C40010090F87400704700BF90F87000C1
:10088000704700BF90F87800704700BF90F87C0078
:10089000704700BF2DE9F04390F8848085B04FEA9F
:1008A00048085FFA88F8322200238DF804808DF81A
:1008B00005208DF8063003250DF1060748F00109E3
:1008C00048460BF09BFB01AE0DF1050002210BF039
:1008D0009FFB8DF804904A46334600205040082480
:1008E00010F0800F4FEA400018BF80F00700013C75
:1008F000C0B2F5D1BB4202D013F8012FEEE70BF0E6
:100900007DFB02F0F5FA00284AD102208DF8048020
:100910000AF044FC02F0ECFA002840F081800DF16E
:10092000080800240BF0AEFB08B3042C12D101E040
:100930000BF0BCFB0BF0A6FB0028F9D102F0D8FAB3
:1009400010B13A480CF082FD02200AF027FC05B0F5
:10095000BDE8F0830BF0AAFB08F8010B064602F095
:10096000C7FA70B901340BF08DFB0028DDD1042CDF
:10097000E0D002F0BDFA78B9013DE5D09DF80480E1
:100980009CE7F1B20023102228480CF073FD0121EE
:1009900027480CF0BBFAE5E724480CF057FDEBE7DD
:1009A000092124480CF0B2FA2346102249461F4878
:1009B0000CF060FD01211E480CF0A8FA234610221D
:1009C0009DF8051019480CF055FD012118480CF050
:1009D0009DFA102223469DF8061014480CF04AFD9B
:1009E000012113480CF092FA21460DF1070216F886
:1009F000014B6140C9B2082311F0800F4FEA410159
:100A000018BF81F00701013BC9B2F5D1B242EED166
:100A1000102206480CF02EFD04480CF017FD74E778
:100A2000072105480CF072FA79E700BFD489FF1F4F
:100A3000E8450100004001000C4001002DE9F04FA5
:100A4000074691B097F8843002205B008DF808309B
:100A50000AF0A4FB97F8843038465B008DF8083024
:100A6000FFF738FDB86FFC6F7B6F3A6F97F8841013
:100A70008DE81100C94802F041FB30223D238DF87A
:100A800009208DF80A3003260DF10A059DF808901B
:100A900049F0010840460BF0B1FA0DF109000221BE
:100AA0000BF0B6FA8DF80880424602AB00205040A9
:100AB000082410F0800F4FEA400018BF80F00700B4
:100AC000013CC0B2F5D1AB4202D013F8012FEEE7E2
:100AD0000BF094FA02F00CFA002840F07D8202201C
:100AE0008DF808900AF05AFB02F002FA002840F054
:100AF000B9820DF10C0AD14600240BF0C3FA00288C
:100B000043D0032C34D101E00BF0D0FA0BF0BAFA49
:100B10000028F9D102F0ECF910B1A1480CF096FCD4
:100B2000312303268DF809308DF80A609DF808906E
:100B300049F0010840460BF061FA0DF1090002216D
:100B40000BF066FA8DF80880424602AB0020504058
:100B5000082410F0800F4FEA400018BF80F0070013
:100B6000013CC0B2F5D19D4228D013F8012FEEE729
:100B70000BF09CFA09F8010B804602F0B9F968B94C
:100B800001340BF07FFA0028BBD1032CBED002F059
:100B9000AFF978B9013E7FF479AFC1E75FFA88F128
:100BA000002310227E480CF065FC01217D480CF0EA
:100BB000ADF9E5E77A480CF049FCEBE70BF01EFADB
:100BC00002F096F9002840F0C68102208DF80890C6
:100BD0000AF0E4FA02F08CF9002840F03E820DF1B0
:100BE0000C0900240BF04EFA002844D0032C35D118
:100BF00001E00BF05BFA0BF045FA0028F9D102F0A6
:100C000077F910B166480CF021FC342201238DF8ED
:100C100009208DF80A3003269DF8089049F0010854
:100C200040460BF0EBF90DF1090002210BF0F0F951
:100C30008DF80880424602AB00205040082410F096
:100C4000800F4FEA400018BF80F00700013CC0B29F
:100C5000F5D1AB4228D013F8012FEEE70BF026FABE
:100C600009F8010B804602F043F968B901340BF032
:100C700009FA0028BAD1032CBDD002F039F978B9AD
:100C8000013E7FF453AFC0E75FFA88F100231022E2
:100C900043480CF0EFFB012142480CF037F9E5E73F
:100CA0003F480CF0D3FBEBE70BF0A8F902F020F97A
:100CB000002840F00F8102208DF808900AF06EFAAB
:100CC00002F016F9002840F0D7810DF10C0900243C
:100CD0000BF0D8F9002800F08580032C73D101E0D7
:100CE0000BF0E4F90BF0CEF90028F9D102F000F98D
:100CF00010B12B480CF0AAFB012212238DF8092019
:100D00008DF80A304FF003089DF8084020460BF09C
:100D100075F902210DF109000BF07AF98DF8084000
:100D200002F0E6F830B309211F480CF0EFF8002379
:100D3000102221461A480CF09DFB012119480CF0A5
:100D4000E5F8002310229DF8091015480CF092FBDD
:100D5000012114480CF0DAF8002310229DF80A1043
:100D60000F480CF087FB01210E480CF0CFF80C481F
:100D70000CF06CFB06208DF808400AF00FFA02F028
:100D8000B7F8002840F0738103AD00260BF07AF924
:100D9000002840D0162E30D10AE000BF14400100D8
:100DA000D489FF1FE8450100004001000BF07EF9E7
:100DB0000BF068F90028F9D102F09AF816260028FD
:100DC0007DD1152035E00BF071F909F8010B804653
:100DD00002F08EF800285BD101340BF053F90028A3
:100DE0007FF47BAF032C3FF47DAF02F081F8002845
:100DF0006CD1013E7FF410AF7EE70BF057F905F898
:100E0000010B044602F074F800284DD101360BF0B6
:100E100039F90028BED1162ECAD002F069F8002890
:100E20004DD1B8F101087FF46FAF701E002840F378
:100E30003582002303AA1C4612F8011B08254C40EA
:100E400014F0800F4FEA440418BF84F00704013DFA
:100E5000E4B2F5D101338342EEDB9DF8218089486D
:100E60004146224602F04AF9162EC146A34602D157
:100E7000A04500F0138197F884108348CDF800B0A6
:100E80004B46324602F068F9002011B0BDE8F08F01
:100E90005FFA88F1002310227C480CF0EBFA012164
:100EA0007B480CF033F897E7E1B200231022774833
:100EB0000CF0E0FA012176480CF028F8A6E7734818
:100EC0000CF0C4FA162EACD11520B2E76F480CF026
:100ED000BDFA8EE709216F480CF018F8234610225E
:100EE00041466A480CF0C6FA012169480CF00EF838
:100EF000234610229DF8091064480CF0BBFA01212A
:100F000063480CF003F8102223469DF80A105F484E
:100F10000CF0B0FA01215E480BF0F8FF21460DF10C
:100F20000B0002AA12F8014B6140C9B2082311F06C
:100F3000800F4FEA410118BF81F00701013BC9B2A0
:100F4000F5D19042EED1102250480CF093FA4F4860
:100F50000CF07CFAAFE609214E480BF0D7FF234690
:100F60001022414649480CF085FA012148480BF00F
:100F7000CDFF234610229DF8091044480CF07AFA60
:100F8000012143480BF0C2FF102223469DF80A10AE
:100F90003E480CF06FFA01213D480BF0B7FF2146A7
:100FA0000DF10B0002AA12F8014B6140C9B20823EF
:100FB00011F0800F4FEA410118BF81F00701013B9A
:100FC000C9B2F5D19042EED1102230480CF052FA5D
:100FD0002E480CF03BFAF8E509212E480BF096FF5D
:100FE00023461022414629480CF044FA01212848A2
:100FF0000BF08CFF234610229DF8091023480CF0BB
:1010000039FA012122480BF081FF102223469DF876
:101010000A101E480CF02EFA01211D480BF076FF35
:1010200021460DF10B0002AA12F8014B6140C9B232
:10103000082311F0800F4FEA410118BF81F007012A
:10104000013BC9B2F5D19042EED110220F480CF00D
:1010500011FA0E480CF0FAF941E507210E480BF0A1
:1010600055FFBCE507210C480BF050FF41E5072177
:1010700009480BF04BFF87E6072107480BF046FFB6
:1010800023E600BF4840010094400100D489FF1FBF
:10109000E8450100004001000C4001009DF80C30C3
:1010A00097F88420B3EB420F7FF4EEAE9DF80D303D
:1010B000012B7FF4E9AE9DF80E30122B7FF4E4AEE5
:1010C0009DF810309DF80F0003EB00200EF042FC5D
:1010D0008B490EF093FC796EF86404460EF04AFEDC
:1010E00000B17C66396E20460EF026FE00B13C66EB
:1010F0003D1FAB4607F1180807F130064FF0000915
:101100009AF806309AF8050003EB00200EF022FC56
:101110007C490EF073FC4BF8040FD8F8001004461D
:101120000EF00AFE09F101090AF1020A30B1B96EA6
:1011300020460EF015FE08B1C8F800403168204680
:101140000EF018FE08F1040800B13460B9F1060F82
:1011500006F10406D4D10020B86407F1140455F850
:10116000041F0EF043FBAC42F9D19DF81D209DF801
:101170001E30B86403EB022002300EF0EBFB624934
:101180000EF0F0FC014661480EF0ECFC60490EF0F8
:101190002BFB60490EF032FC05460CF09DFC04462A
:1011A00028460CF099FC5C490CF008FD5B490546AB
:1011B00020460EF023FC5A490EF018FB594904460C
:1011C00028460EF01BFC014620460EF00FFB0146A0
:1011D0004FF07E500EF0C6FC53490EF005FB9DF813
:1011E0001F209DF82030386503EB022009300EF0F7
:1011F000B1FB4E490EF0B6FC014644480EF0B2FC7D
:1012000043490EF0F1FA43490EF0F8FB05460CF0A5
:1012100063FC044628460CF05FFC3F490CF0CEFC12
:101220003E49054620460EF0E9FB3D490EF0DEFA48
:101230003C49044628460EF0E1FB014620460EF0EC
:10124000D5FA01464FF07E500EF08CFC36490EF078
:10125000CBFAD7F8808078650446B8F1000F3BD10F
:101260003D6D29462E460EF085FD68B32946B86DC2
:101270000EF080FDE0B1BD65B8F1000F17D008F1A8
:10128000130657F82640F96D20460EF073FD00B1A5
:10129000FC65274801F032FF0120F6E59DF821901A
:1012A000244849464246C34601F028FFE3E53E6D27
:1012B000314620460EF05EFDC8B1F96D20460EF0B5
:1012C00059FD0028E4D1E4E7B96D20460EF034FD65
:1012D0000028EDD02546CEE708F11306B96D57F882
:1012E000265028460EF028FD0028C4D1C9E7314613
:1012F000F86D0EF021FD0028CBD03446C8E700BFC2
:101300006B57053B2003C839001601470AD7E33F56
:10131000E17A644000007A4400004040A40D8F3917
:101320005A80473A46A6DB3333938843002C014763
:101330006C40010048400100052994BF50F821008D
:10134000002070472DE9F0410B4E8046041F00F14C
:10135000140754F8045F314628460EF0EDFC30B116
:10136000D8F8681028460EF005FD00B12E46BC42A4
:10137000EFD13046BDE8F08100002041F8B50027EC
:10138000041F00F1140654F8045F394628460EF095
:10139000F1FC054920B128460EF0CEFC00B12F46E5
:1013A000B442F0D13846F8BD000090402DE9F04736
:1013B000876E82464FF00009041F00F114064FF0BB
:1013C000000854F8045F394628460EF0D3FC0D4956
:1013D00050B128460EF0B0FC30B1484629460EF018
:1013E00005FA08F101088146B442EAD1CAF88880BA
:1013F00040460EF0AFFA014648460EF0B3FBBDE89A
:10140000F08700BF00007042D0F88800704700BF2E
:1014100038B5D0F8803043B9456D046D2946204673
:101420000EF08AFC30B1204638BD133350F823400B
:10143000204638BD2C46204638BD00BF38B5D0F810
:10144000803043B9446D056D214628460EF074FC8A
:1014500030B1204638BD133350F82340204638BD04
:101460002C46204638BD00BF08B5D0F880301BB1EF
:10147000133350F8230008BD416D006D0EF0B6F92E
:101480004FF07C510EF0BAFA08BD00BF806C704777
:1014900001299ABF143150F821000020704700BF85
:1014A0003E2998BF80F88410704700BF90F86C0008
:1014B000704700BFC0F88010704700BF80F86C1004
:1014C000704700BF8166704770B500F50A55064643
:1014D0001C3500F1280420468C34FEF7C7FFAC42CF
:1014E000F9D106F1B405012428460021FFF7E6FFF3
:1014F000214628460134FFF7D3FF3F2C05F18C0528
:10150000F2D142F2A42400250548064A064B35557F
:10151000002130617161B261F361304670BD00BF7E
:1015200000007A44000048430000C8C238B500F506
:101530000A551C3500F1B40402E08C34AC420AD0E8
:101540002046FFF7B3FF0028F7D020468C34FEF783
:10155000B5FFAC42F4D138BD2DE9F04142F2A823E9
:1015600000F50A56374600228046C2501C362837FE
:1015700000F1B40402E08C34B4420DD02046FFF7F1
:1015800095FF0028F7D020463D68FFF73DFF8C34DB
:101590002844B4423860F1D142F2A82358F803003D
:1015A000BDE8F0812DE9F04F93B0814642F2AC23C3
:1015B0001046019201284FF00002069149F80320DD
:1015C00000F0038209F50A532C33079309F1B40A9A
:1015D0004FF0010B5046FFF769FFC0B100263446BB
:1015E000012531465046D9F80870FFF7A5FE01469F
:1015F00038460EF0A1FB18B105FA06F31C43E4B21D
:101600000136062EEDD1019B012B0AD0F4B90BF166
:10161000010BBBF13F0F0AF18C0ADBD113B0BDE81F
:10162000F08F5946BD480BF065FF0321BC480BF015
:101630006DFC214600230222B8480BF01BFF03215A
:10164000B8480BF063FC002C00F018814FEA4B0304
:10165000DBB21946029343F001039DF8182003936F
:101660001D46184633238DF826208DF825308DF839
:1016700024100AF0C3FC0DF1250002210AF0C8FC79
:1016800009AA05928DF824502A4609AB0DF12606C9
:1016900000205040082510F0800F4FEA400018BF8E
:1016A00080F00700013DC0B2F5D19E4202D013F890
:1016B000012FEEE70AF0A2FC01F01AFC002840F02E
:1016C000EC809DF808308DF82430022009F066FD8A
:1016D00001F00EFC002840F06E810AAB04931F4617
:1016E00000250AF0CFFC002844D01E2D35D101E0A2
:1016F0000AF0DCFC0AF0C6FC0028F9D101F0F8FB86
:1017000000283DD1019B012B40D0039D9DF808206E
:101710008DF82420322328468DF825308DF8264078
:101720000AF06CFC0DF1250002210AF071FC8DF825
:10173000245009AB2A4600205040082510F0800FA5
:101740004FEA400018BF80F00700013DC0B2F5D15C
:101750009E423BD013F8012FEEE70AF0A7FC07F8F2
:10176000010B804601F0C4FB20BB01350AF08AFC66
:101770000028BAD11E2DBDD001F0BAFB0028C1D07F
:1017800066480BF063FE019B012BBED1049D0BAF9D
:1017900015F8011B6148002310220BF06BFE01219C
:1017A00061480BF0B3FBAF42F2D103215D480BF06F
:1017B000ADFBAAE75FFA88F10023102257480BF02F
:1017C00059FE012159480BF0A1FBCEE70AF016FCA7
:1017D00001F08EFB002840F0AD809DF808308DF8B8
:1017E0002430022009F0DAFC01F082FB002840F0EE
:1017F000E780049E00250AF045FC00B31E2D11D1A0
:1018000001E00AF053FC0AF03DFC0028F9D101F098
:101810006FFBD0B9019B012B1DD0079A13681C44A4
:101820001460F4E60AF042FC06F8010B074601F0EA
:101830005FFB38BB01350AF025FC0028DED11E2DE8
:10184000E1D001F055FB0028E4D034480BF0FEFD58
:10185000019B012BE1D1049E0BAD16F8011B2F4813
:10186000002310220BF006FE01212F480BF04EFB47
:10187000AE42F2D1079A13682344136027480BF055
:10188000E5FDC4E6F9B20023102224480BF0F2FD76
:10189000012126480BF03AFBCCE7092124480BF044
:1018A00035FB2B46102203991C480BF0E3FD012168
:1018B0001E480BF02BFB2B4610229DF825101748D5
:1018C0000BF0D8FD012119480BF020FB10222B460C
:1018D0009DF8261011480BF0CDFD012113480BF0A7
:1018E00015FB29460DF1270009AA12F8013B5940C2
:1018F000C9B2082311F0800F4FEA410118BF81F0EF
:101900000701013BC9B2F5D19042EED11022034844
:101910000BF0B0FD01480BF099FDD2E6D489FF1F12
:10192000E4400100E8400100EC400100E84501000E
:1019300000400100092127480BF0E8FA2B4610224D
:10194000039925480BF096FD012124480BF0DEFA9F
:101950002B4610229DF825101F480BF08BFD01210E
:101960001E480BF0D3FA10222B469DF826101A4879
:101970000BF080FD012119480BF0C8FA05982946A3
:101980000DF1270210F8013B5940C9B2082311F0AC
:10199000800F4FEA410118BF81F00701013BC9B236
:1019A000F5D18242EED110220B480BF063FD0A48BC
:1019B0000BF04CFD11E7072109480BF0A7FA8CE664
:1019C000072107480BF0A2FA13E703480BF03EFD8E
:1019D000F8E500BF00400100D489FF1FE845010081
:1019E0000C4001002DE9F04F824685B04FF0000910
:1019F00001238DF800908DF801908DF802304FF0A2
:101A00000308002420460AF0F9FA02210DF1010032
:101A10000AF0FEFA8DF8004001F06AFA30B30921AD
:101A2000B5480BF073FA002310222146B3480BF09F
:101A300021FD0121B2480BF069FA002310229DF824
:101A40000110AE480BF016FD0121AD480BF05EFA17
:101A5000002310229DF80210A8480BF00BFD012175
:101A6000A7480BF053FAA5480BF0F0FC02208DF8C4
:101A7000004009F093FB01F03BFA002840F0898018
:101A800001AF3E4600240AF0FDFA002867D0042C7E
:101A900058D101E00AF00AFB0AF0F4FA0028F9D163
:101AA00001F026FA10B195480BF0D0FC9DF80430F7
:101AB000802B40F01E819DF80530002B40F01981ED
:101AC0009DF80640012C40F014818E4801F016FB71
:101AD0000AF1B406254604E001353F2D06F18C06D7
:101AE00086D03046FFF7E2FC83460028F4D13B2243
:101AF00065F07F0301208DF801208DF802308DF80C
:101B000000B00AF07BFA0DF1010002210AF080FA20
:101B100001228DF80020E84658466B460DF102027E
:101B20006040C0B2082410F0800F4FEA400018BF98
:101B300080F00700013CC0B2F5D193422ED013F8DB
:101B4000014FEDE70AF0B2FA06F8010B054601F085
:101B5000CFF998B901340AF095FA002897D1042CEE
:101B60009AD001F0C5F910B164480BF06FFCB8F1E0
:101B7000010800F0BE809DF8004043E7E9B2002371
:101B800010225E480BF076FC01215D480BF0BEF997
:101B9000E0E707215C480BF0B9F971E70AF02EFA8B
:101BA00001F0A6F900285AD103208DF8009009F021
:101BB000F5FA01F09DF9002840F0968000240AF023
:101BC00061FAB0B30A2C27D101E00AF06FFA0AF0EB
:101BD00059FA0028F9D101F08BF900287FD19DF83E
:101BE0000430812B7FF404AF9DF805303B2B7FF44C
:101BF000FFAE9DF806308035AB427FF4F9AE30463B
:101C00000121FFF75BFC0AF50A5340481A6A0132CA
:101C10001A6201F073FAEBE60AF048FA07F8010BD2
:101C2000804601F065F970B901340AF02BFA0028FA
:101C3000C8D10A2CCBD001F05BF9002850D1022C7E
:101C40007FF7D6AECBE75FFA88F1002310222B484E
:101C50000BF010FC01212A480BF058F9E4E70921A8
:101C600025480BF053F923461022012123480BF09D
:101C700001FC012122480BF049F9234610229DF86E
:101C800001101E480BF0F6FB01211D480BF03EF938
:101C9000102223469DF8021018480BF0EBFB01219F
:101CA00017480BF033F921460DF1030218F8014BE8
:101CB0006140C9B2082311F0800F4FEA410118BFFB
:101CC00081F00701013BC9B2F5D14245EED11022A6
:101CD0000A480BF0CFFB09480BF0B8FB64E70A2475
:101CE00006480BF0B3FBAAE7072107480BF00EF9F3
:101CF00064E705B0BDE8F08F00400100D489FF1F04
:101D0000E8450100F04001000C400100FC400100EA
:101D10002DE9F04742F2A02284B00023012783502E
:101D200082468DF804308DF8053000F1B4088DF846
:101D300006704FEA47095FFA89F400214046FFF731
:101D4000BDFB20468DF804400AF058F902210DF140
:101D500005000AF05DF98DF8044001F0C9F830B3D0
:101D6000092149480BF0D2F80023102221464748A8
:101D70000BF080FB012146480BF0C8F8002310222D
:101D80009DF8051041480BF075FB012140480BF010
:101D9000BDF8002310229DF806103C480BF06AFBAA
:101DA00001213B480BF0B2F838480BF04FFB1420F0
:101DB0008DF8044009F0F2F901F09AF800285DD19D
:101DC00002AE00240AF05EF940B3082C19D101E0FC
:101DD0000AF06CF90AF056F90028F9D101F088F8F8
:101DE000002846D19DF808304B4522D00137052008
:101DF00009F0D4F93F2F08F18C089AD104B0BDE85E
:101E0000F0870AF053F9054606F8010B01F070F867
:101E100020BB01340AF036F90028D6D1082CD9D0DD
:101E200001F066F830BB042CE0DD9DF808304B452E
:101E3000DCD19DF80930002BD8D19DF80A1001297A
:101E4000D4D19DF80C30002BD0D04046FFF736FBA4
:101E50000AF50A531A6A01321A62C7E7E9B2002387
:101E600010220A480BF006FB012109480BF04EF83E
:101E7000CFE7082405480BF0E9FAD4E70721054825
:101E80000BF044F89CE700BF00400100D489FF1F1D
:101E9000E84501000C4001002DE9F04700F50A5625
:101EA000354684B080461C36203500F1B404002746
:101EB000204600218C34FFF701FBB4422F60F7D19C
:101EC00002270DF106064FF07F093C22A5237E2153
:101ED0007F208DF805208DF806308DF8041001ADB7
:101EE0000AF08CF80DF1050002210AF091F88DF846
:101EF00004902B467F2200205040082410F0800FD1
:101F00004FEA400018BF80F00700013CC0B2F5D195
:101F1000B34202D013F8012FEEE70AF06FF800F099
:101F2000E7FF00285AD17E2364208DF8043009F0A1
:101F300035F900F0DDFF002840F090800DF1080A2F
:101F400000240AF09FF820B3082C15D101E00AF014
:101F5000ADF80AF097F80028F9D100F0C9FFF0B900
:101F60009DF808307F2B21D0013FAED14046FFF7CE
:101F700039FD04B0BDE8F0870AF098F805460AF884
:101F8000010B00F0B5FFF0B901340AF07BF800282E
:101F9000DAD1082CDDD000F0ABFF0028E0D03248C9
:101FA0000BF054FA9DF808307F2BDDD19DF80930F5
:101FB0003C2BD9D19DF80A30A52BD5D19DF80B30FB
:101FC000572BD1D1D2E7E9B20023102226480BF0DB
:101FD00051FA012125480AF099FFD5E70921244843
:101FE0000AF094FF234610227F211F480BF042FA8B
:101FF00001211E480AF08AFF234610229DF8051091
:1020000019480BF037FA012118480AF07FFF102217
:1020100023469DF8061014480BF02CFA01211348B2
:102020000AF074FF21460DF1070215F8014B6140DB
:10203000C9B2082311F0800F4FEA410118BF81F0A7
:102040000701013BC9B2F5D1AA42EED110220648E0
:102050000BF010FA04480BF0F9F964E70721054882
:102060000AF054FF6AE700BFD489FF1FE84501006A
:10207000004001000C4001002DE9F04385B04FF015
:102080007F082022FF2381468DF804808DF80520EB
:102090008DF8063003260DF1060548F00107384695
:1020A00009F0ACFF0DF10500022109F0B1FF8DF838
:1020B00004703A4601AB00205040082410F0800F15
:1020C0004FEA400018BF80F00700013CC0B2F5D1D4
:1020D000AB4202D013F8012FEEE709F08FFF00F0BA
:1020E00007FF002840F0768202208DF8048009F076
:1020F00055F800F0FDFE002840F0B2820DF108080E
:10210000002409F0BFFF002843D0042C34D101E0A3
:1021100009F0CCFF09F0B6FF0028F9D100F0E8FE85
:1021200010B1C1480BF092F94FF07F0800238DF8F1
:1021300004808DF80630032648F00107384609F080
:102140005DFF0DF10500022109F062FF8DF80470BA
:102150003A4601AB00205040082410F0800F4FEAAF
:10216000400018BF80F00700013CC0B2F5D1AB427F
:1021700028D013F8012FEEE709F098FF08F8010BBB
:10218000074600F0B5FE70B9013409F07BFF002866
:10219000BBD1042CBED000F0ABFE78B9013EC3D059
:1021A0009DF8048079E7F9B2002310229E480BF0D5
:1021B00061F901219D480AF0A9FEE5E79A480BF074
:1021C00045F9EBE709F01AFF00F092FE002840F015
:1021D000C08102208DF8048008F0E0FF00F088FE46
:1021E000002840F038820DF10808002409F04AFF69
:1021F000002846D0042C37D101E009F057FF09F040
:1022000041FF0028F9D100F073FE10B186480BF0B1
:102210001DF94FF07F082122FF238DF804808DF8EF
:1022200005208DF80630032648F00107384609F0EE
:10223000E5FE0DF10500022109F0EAFE8DF80470BB
:102240003A4601AB00205040082410F0800F4FEABE
:10225000400018BF80F00700013CC0B2F5D19D429C
:1022600028D013F8012FEEE709F020FF08F8010B42
:10227000074600F03DFE70B9013409F003FF002865
:10228000B8D1042CBBD000F033FE78B9013EC0D0E9
:102290009DF8048050E7F9B20023102262480BF049
:1022A000E9F8012161480AF031FEE5E75E480BF0EC
:1022B000CDF8EBE709F0A2FE00F01AFE002840F08E
:1022C000078102208DF8048008F068FF00F010FEFE
:1022D000002840F0CF810DF10808002409F0D2FE5B
:1022E000002843D0042C34D101E009F0DFFE09F0CE
:1022F000C9FE0028F9D100F0FBFD10B14A480BF0EF
:10230000A5F84FF07F0800238DF804808DF8063083
:10231000032648F00107384609F070FE0DF105006C
:10232000022109F075FE8DF804703A4601AB0020D9
:102330005040082410F0800F4FEA400018BF80F092
:102340000700013CC0B2F5D19D4228D013F8012FFF
:10235000EEE709F0ABFE08F8010B074600F0C8FDF8
:1023600070B9013409F08EFE0028BBD1042CBED018
:1023700000F0BEFD78B9013EC3D09DF8048053E75C
:10238000F9B20023102228480BF074F801212748E5
:102390000AF0BCFDE5E724480BF058F8EBE709F03C
:1023A0002DFE00F0A5FD002851D102208DF80480FB
:1023B00008F0F4FE00F09CFD002840F056810DF17D
:1023C0000808002409F05EFE18B3042C14D101E0C3
:1023D00009F06CFE09F056FE0028F9D100F088FDE6
:1023E00010B111480BF032F842F2A423002209F890
:1023F000032005B0BDE8F08309F058FE08F8010B92
:10240000074600F075FD98B9013409F03BFE00283D
:10241000DBD1042CDED000F06BFDA0B9013EE3D08F
:102420009DF8048075E700BFD489FF1FE8450100CF
:10243000F9B20023102292480BF01CF801219148B8
:102440000AF064FDE0E78E480BF000F8E6E70921AA
:102450008D480AF05BFD23461022394688480BF070
:1024600009F8012187480AF051FD234610229DF802
:10247000051083480AF0FEFF012182480AF046FD5C
:10248000102223469DF806107D480AF0F3FF012133
:102490007C480AF03BFD21460DF1070001AA12F825
:1024A000014B6140C9B2082311F0800F4FEA41018E
:1024B00018BF81F00701013BC9B2F5D19042EED1BE
:1024C00010226F480AF0D6FF6D480AF0BFFF6CE794
:1024D00009216D480AF01AFD234610223946684842
:1024E0000AF0C8FF012167480AF010FD23461022B8
:1024F0009DF8051062480AF0BDFF012161480AF00D
:1025000005FD102223469DF806105D480AF0B2FF33
:1025100001215C480AF0FAFC21460DF1070001AAEE
:1025200012F8014B6140C9B2082311F0800F4FEA45
:10253000410118BF81F00701013BC9B2F5D19042BA
:10254000EED110224E480AF095FF4D480AF07EFF6A
:10255000B7E609214C480AF0D9FC23461022394637
:1025600047480AF087FF012146480AF0CFFC23467E
:1025700010229DF8051042480AF07CFF01214148D5
:102580000AF0C4FC102223469DF806103C480AF0CD
:1025900071FF01213B480AF0B9FC21460DF107000B
:1025A00001AA12F8014B6140C9B2082311F0800F53
:1025B0004FEA410118BF81F00701013BC9B2F5D1D3
:1025C0009042EED110222E480AF054FF2C480AF017
:1025D0003DFFFEE509212C480AF098FC2346102215
:1025E000394627480AF046FF012126480AF08EFCAA
:1025F000234610229DF8051021480AF03BFF0121D7
:1026000020480AF083FC102223469DF806101C483F
:102610000AF030FF01211B480AF078FC21460DF139
:10262000070001AA12F8014B6140C9B2082311F05A
:10263000800F4FEA410118BF81F00701013BC9B289
:10264000F5D19042EED110220D480AF013FF0C484C
:102650000AF0FCFE48E507210C480AF057FCC2E5E9
:1026600007210A480AF052FC48E5072107480AF00A
:102670004DFCA4E6072105480AF048FC2BE600BF04
:10268000D489FF1FE8450100004001000C40010013
:1026900038B500F50A551C3500F1B40402E08C345D
:1026A000AC420AD02046FEF701FF0028F7D02046B2
:1026B0008C34FEF7EFF8AC42F4D138BD2DE9F04F81
:1026C0000546002345F8B43B00F50A5783B082461F
:1026D0002C461C3702E08C34A7420AD02046FEF775
:1026E000E5FE0028F7D020468C34FEF7D3F8A74249
:1026F000F4D1C82008F052FD2C46012604E0013632
:102700003F2E04F18C0477D02046FEF7CFFE002840
:10271000F5D07F4800F0F2FC31467E4800F0EEFC38
:102720002046FEF78BF92046FEF7B0FE0CF0BCFC0D
:1027300002460B46784800F0E1FC2046FEF702FE18
:1027400080462046FEF71AFE834640460CF0ACFC5D
:102750008046584689460CF0A7FC42464B46CDE9D8
:1027600000016E4800F0CAFC00212046FEF790FEF2
:10277000012180462046FEF78BFE834640460CF042
:1027800093FC8046584689460CF08EFC42464B46E8
:10279000CDE90001624800F0B1FC2046FEF776FE6C
:1027A0000146DAF800000DF021F8CAF800002046D2
:1027B000FEF72EFEDAF818100DF0BEFA002840F0F1
:1027C00084802046FEF73AFEDAF81C100DF0D2FAAB
:1027D000002894D02046FEF71BFE52490DF0CAFA9D
:1027E00000288CD02046FEF729FE01363F2ECAF87D
:1027F0001C0004F18C0487D1DAF804000DF0AAF86B
:102800000146DAF800000DF0ADF9DAF81410CAF854
:10281000000004460DF0AEFA08B1CAF81440DAF828
:10282000101020460DF088FA08B1CAF810400B20AD
:1028300008F07EFC42F2A4231AF80330002853D19A
:10284000002B61D042F2A42301220AF803200023C6
:10285000CAF80C302C4602E08C34A74215D0204632
:10286000FEF724FE0028F7D02046FEF787FDDAF8B1
:102870000C100DF07FFA0028EED02046FEF77EFD0A
:102880008C34A742CAF80C00E9D1274BCAF80830AB
:1028900002E08C35BD4215D02846FEF707FE002821
:1028A000F7D02846FEF74EFDDAF808100DF044FA8E
:1028B0000028EED02846FEF745FD8C35BD42CAF80B
:1028C0000800E9D103B0BDE8F08F2046FEF7A0FD77
:1028D00014490DF04FFA00283FF473AF2046FEF77D
:1028E00097FDCAF818006CE72BB942F2A423002226
:1028F0000AF80320ABE70D4800F018FC42F2A423CD
:1029000000220AF80320A2E7094800F025FC99E715
:102910000C480100104101004C41010060410100E0
:102920008C41010000008CC20000A040E041010089
:10293000A841010042F2AC23C0587047806870473C
:1029400042F2A023C0587047C068704700687047C3
:1029500041607047F8B500F50A550F4616461C351C
:1029600000F1B40402E08C34AC420FD02046FEF7F4
:102970009DFD0028F7D020463946FEF79BFD2046F6
:1029800031468C34FEF79EFDAC42EFD1F8BD00BF5E
:102990002DE9F041274A284B426200F50A550746C7
:1029A0004FF0000803621C3500F1B404002602E079
:1029B0008C34A54210D02046FEF778FD0028F7D0D1
:1029C0002046FEF751FD1D490DF0D4F980B98C3435
:1029D000A54206F10106EED142F2A023F858801B71
:1029E0000CF0B8FF014640460DF0BCF8BDE8F081A0
:1029F0002046FEF739FD014640460CF0F7FE8046C2
:102A00002046FEF71BFD396A0DF0B4F960B9204687
:102A1000FEF7FEFC796A0DF08FF90028C8D0204639
:102A2000FEF7F6FC7862C3E72046FEF707FD386242
:102A3000EDE700BF00C0794400C079C400008CC23B
:102A4000006A7047406A7047F8B500F50A550746B6
:102A500000261C3500F1B40402E08C34AC420FD0E7
:102A60002046FEF723FD0028F7D02046FEF79EFC07
:102A7000014630460CF0BAFE8C34AC420646EFD12B
:102A800042F2A023F8580CF065FF014630460DF0E5
:102A900069F8F8BD2DE9F04F06468FB076488B46B1
:102AA00000F0D4FA744800F0D1FA734800F0CEFA7E
:102AB00042F2A0233046F2580D92FEF74DFD7368A6
:102AC0000C93074630680CF0EFFA80463046894692
:102AD000FFF7BAFF82463046B468F568FFF758FF43
:102AE0000CF0E2FACDE90A01214628460CF07CFE02
:102AF00062490CF083FF0CF0D7FACDE908012846B3
:102B00000CF0D2FACDE9060120460CF0CDFACDE961
:102B1000040150460CF0C8FA0D9A0C9BCDE9020155
:102B2000CDE90089114656483A4600F08FFA5248DE
:102B300000F08CFAB43601274FF0000A05E00137A7
:102B40003F2F06F18C0600F08E803046FEF7AEFC7B
:102B50000028F4D03046FDF78DFE3046FDF78EFE9E
:102B60003046FDF78FFE3046FDF790FE08214548C0
:102B70000AF0CCF9394644480AF0BCFC092F75DD4F
:102B8000022142480AF0C2F93046FEF77FFC0CF001
:102B90008BFA5FFA8BF902460B46CDF800903A4863
:102BA0000AF0B2FC01213A480AF0B0F95546002477
:102BB00020E0062137480AF0A9F9294632480AF0F0
:102BC00099FC022134480AF0A1F921463046FEF76B
:102BD000B3FB0CF069FACDF8009002460B462A4888
:102BE0000AF092FC0134012129480AF08FF9062CE1
:102BF00009D04546092D05F10108DADC01212748F5
:102C00000AF084F9D5E7112125480AF07FF900215F
:102C10003046FEF73DFC0CF047FA022402460B4614
:102C2000009419480AF070FC12211E480AF06EF94F
:102C300001213046FEF72CFC0CF036FA00940246D7
:102C40000B4611480AF060FC012117480AF05EF9B2
:102C500001370D480AF0FAFB3F2F0AF1060A06F188
:102C60008C067FF472AF0FB0BDE8F08F01210B48E6
:102C70000AF04CF984E700BF0C48010000007A44D8
:102C80008844010028450100D489FF1FB055010088
:102C90003445010038450100D8450100E8450100F0
:102CA0004045010054450100684501002DE9F04F01
:102CB00085B000F1B4058A4603929B462E464FF03C
:102CC000010806E008F10108B8F13F0F06F18C0693
:102CD0007BD03046FEF7EAFB0028F3D000230A221F
:102CE00051467D480AF0C6FB01217C480AF00EF9E6
:102CF00003980CF0D9F900230246009376480B465E
:102D00000AF002FC012175480AF000F959467248A0
:102D10000AF0F0FB012171480AF0F8F841466E48CC
:102D20000AF0E8FB01216D480AF0F0F800244FF0AA
:102D3000020921463046FEF7FFFA0CF0B5F9CDF84E
:102D4000009002460B4664480AF0DEFB0134012184
:102D500062480AF0DBF8082C4FF00207E9D10021A5
:102D60003046FEF795FB0CF09FF9009702460B46A4
:102D700059480AF0C9FB012158480AF0C7F8012157
:102D80003046FEF785FB0CF08FF9009702460B46A4
:102D900051480AF0B9FB012150480AF0B7F839460A
:102DA0003046FEF775FB0CF07FF9009702460B46A4
:102DB00049480AF0A9FB08F1010847480AF046FB18
:102DC000B8F13F0F06F18C0683D101274FF00009BF
:102DD00004E001373F2F05F18C0579D02846FEF736
:102DE00065FB0028F5D000230A2251463C480AF032
:102DF00041FB0121394808F0F3FC03980CF054F929
:102E0000CDF8009002460B4635480AF07DFB0121C3
:102E1000324808F0E5FC594631480AF06BFB0121C5
:102E20002E4808F0DDFC39462D480AF063FB0121ED
:102E30002A4808F0D5FC00244FF002082146284615
:102E4000FEF77AFA0CF030F9CDF8008002460B4616
:102E500023480AF059FB01340121204808F0C0FC46
:102E6000082C4FF00206E9D100212846FEF710FB9E
:102E70000CF01AF9009602460B4619480AF044FB7A
:102E80000121164808F0ACFC01212846FEF700FBA2
:102E90000CF00AF9009602460B4611480AF034FB82
:102EA00001210E4808F09CFC31462846FEF7F0FA56
:102EB0000CF0FAF8009602460B4609480AF024FB8B
:102EC000013707480AF0C2FA3F2F05F18C0585D17A
:102ED00005B0BDE8F08F00BFD489FF1F6C4501002D
:102EE000A889FF1F014B1870704700BFFC87FF1FA8
:102EF000024B1878B0FA80F040097047FC87FF1F3A
:102F00000278002A00F0908070B5034682B00D462A
:102F1000252A2AD158785C1C08B325282FD073287D
:102F200031D0642824D0692822D066284FD07A284E
:102F300059D0782835D058282FD062283ED0422842
:102F400038D06C2814D0632812D0742857D0542855
:102F50005FD00AF05FF86278631C002AD8D1344849
:102F600002B0BDE870400AF071BA18781C46F0E76C
:102F70002B1D29682E481D460AF0BCFAEBE71046C7
:102F80000AF048F8E7E72E6830460DF0D9FE014612
:102F90003046043509F0BAFFDDE70221254809F083
:102FA000B5FF2E1D296822480023102235460AF05D
:102FB00061FAD0E70221204809F0A8FF2E1D2968F8
:102FC0001B480023022235460AF054FAC3E70735AE
:102FD00025F007050321D5E90023154800910835A0
:102FE0000AF092FAB7E7073525F007050021D5E981
:102FF00000230F48009108350AF086FAABE72968EC
:1030000001290EBF0D480E480121043509F07EFF4D
:10301000A1E72B68012B07BF04210A480A480521B4
:10302000043509F073FF96E701480AF00FBA00BFB4
:10303000D489FF1F704501007445010078450100E7
:103040007C45010080450100884501000FB400B5B2
:1030500083B004A951F8040B0191FFF751FF03B0AD
:103060005DF804EB04B0704770B51B4B1B4C1B683C
:1030700082B00D460193019B23601946044600234C
:10308000164617480A220AF0F5F90321154809F0F7
:103090003DFF032C07D8DFE804F01A1510020521C4
:1030A000114809F033FF0221104809F02FFF314683
:1030B0002846FFF725FF02B070BD07210C4809F034
:1030C00025FFF0E704210B4809F020FFEBE705217D
:1030D000094809F01BFFE6E72CBCFF1F5494FF1FB3
:1030E000D489FF1FE4400100A8450100D845010034
:1030F000A045010098450100904501000FB400B5BE
:10310000094B187883B020B103B05DF804EB04B02C
:10311000704705AB1A4604990193FFF7A5FF03B06A
:103120005DF804EB04B07047FC87FF1F0FB4094B38
:1031300000B51B78012B83B004D903B05DF804EB14
:1031400004B0704705AB1A46049901930120FFF7BC
:103150008BFFF2E7FC87FF1F0FB40B4B00B51B780A
:10316000032B83B004D903B05DF804EB04B07047BF
:1031700005AB1A46049901930320FFF775FF03B0CE
:103180005DF804EB04B07047FC87FF1F30B4074DB7
:10319000074C084900232B70236003654365836552
:1031A00080F85C300B6030BC704700BF6094FF1F3C
:1031B0005C94FF1F5894FF1F70B5132007F0B8FFF1
:1031C000A8B1114E114B35881C6807F0C5FFADB290
:1031D0002C44201A33880E4AC0EB00108000A0F661
:1031E00034009BB2B0FBF3F39BB2138070BD074C6D
:1031F00007F0B2FF2368044AC01A80B2108007F0BB
:10320000ABFF206070BD00BF8AB9FF1F4CBAFF1F23
:1032100064BAFF1F0A4A0B49106ED36D03FB00F31B
:103220004FF47A7000FB03F0642310B50B600CF0D0
:1032300091FB0549054C0CF095FC206010BD00BFCA
:1032400098B8FF1F1088FF1FE4388E3ED8B9FF1FC3
:1032500010B4019C521AA4EB030412D0401A002CA3
:1032600004FB00F002EBD27111DB00EB610101FB0A
:1032700002F0002891FBF2F10B4414DB184610BC5D
:10328000704704EBD47003EB600010BC7047A0EBF8
:10329000610000FB02F1002990FBF2F01844EEDB24
:1032A000013010BC7047581E10BC704710B5074C59
:1032B00020460AF0CBF8064B204619680AF01AF9A6
:1032C00003210448BDE8104009F020BED489FF1F47
:1032D0000C95FF1FB045010070B5044608460D4629
:1032E0000DF02EFD23680246294620465B68BDE8A6
:1032F0007040184738B5044608460D460DF020FDCD
:103300002368024629465B682046984705462046C2
:103310000AF09CF8284438BD2DE9F0415148524C40
:10332000524E534FFFF792FE524B5349534A544863
:103330005960142553491D70DA60534D1C610022F9
:103340004FF4FA749E619F62504E514FD861D9621A
:103350004FF07C504F491D639A634F4D9C860C2261
:103360004E4CDE631F644E4ED864962702201965CA
:103370005D6501214B4D9A655C6200223224C3F8E1
:10338000C860A3F8667064264FF496775870587238
:103390001D625D615D6483F84820C3F8A8401E6625
:1033A000A3F86A70A3F864703F4D19725A27D96563
:1033B000A3F86840DA67C3F88000C3F88820C3F830
:1033C0009040C3F8B040C3F8AC20C3F8BC00C3F8C9
:1033D000C06083F8CD204FF47A7683F8CE20334C4A
:1033E0009F6744F62062FF20C3F89460C3F89850AA
:1033F000C3F89C40C3F8A0204FF4167441F2883201
:10340000C3F8B40040F61C4840F2D6604FF00A0CF6
:1034100041F2040E5527F0260525C3F88410C3F8A1
:10342000B810C3F86C80C3F870C0C3F874E0C3F878
:10343000DC70C3F8E060A3F8C650A3F8D040A3F84E
:10344000D440A3F8D220A3F8D620C3F88C20A3F848
:10345000C420A3F8A400A3F8A60083F8D810BDE800
:10346000F08100BFB4450100000040403333834089
:10347000CDCCCC3D98B8FF1F20A1070066668640E2
:10348000CDCC4C4000008242000020C10000204210
:103490000000A0409A9979400AD7233D3333734006
:1034A0009A99993ECDCC4C3E0000114400F0C8459D
:1034B00070B5464C464D4748E66800232B70FFF731
:1034C00043FA014630460CF037FC08B104232B7058
:1034D0004048FFF733FA21690CF02EFC18B12B7825
:1034E00043F010032B703B48FFF7AAFAE16A0CF097
:1034F00041FC18B12B7843F040032B700023354872
:103500006B70FFF79FFA216B314E0CF015FC08B180
:103510000123737000232F48EB70FFF715FA05465F
:103520002C482B4EFFF70AFA014628460CF05CF9AE
:10353000616C0CF01FFC08B10123F370264D254887
:1035400000232B70FFF700FAA16A0646E0680CF032
:103550004BF9014630460CF00DFC08B104232B70EA
:103560001C48FFF7EBF9A16A064620690CF03EF90A
:10357000014630460CF0E0FB18B12B7843F0100305
:103580002B701448FFF75CFA216C0646E06A0CF0D9
:103590002BF9014630460CF0EDFB18B12B7843F0C7
:1035A00040032B7000230B486B70FFF74BFA216C24
:1035B0000546206B084C0CF019F9014628460CF022
:1035C000BBFB08B10123637070BD00BF98B8FF1F3B
:1035D00080B8FF1F1C95FF1F6894FF1F2DE9F04165
:1035E000844C2368012B82B025D0022B54D0032BAE
:1035F00074D0EBB9804B8148D3F8B020D3F8B41025
:103600000368891A002903FB01F37D49C0F2888011
:10361000323381FB0301D817C0EB6111002B114439
:10362000C0F29380062002B0BDE8F04107F0FABB7B
:1036300002B0BDE8F081734E33680A33B3F57A7F88
:103640007EDC184633600CF085F96F490CF0D6F932
:103650008046694DD5F8B0000CF07CF90746D5F8E6
:10366000B4000CF077F939460CF0BEF841460CF086
:10367000C5F966490CF076FA39460CF0B7F80CF04B
:1036800099FB0146062007F0CDFB614B1B68002B20
:1036900062D12368022BAAD15A4B574E00221A60DE
:1036A000D6F8B0000CF056F90546D6F8B4000CF088
:1036B00051F929460CF098F800210CF09FF9534974
:1036C0000CF050FA29460CF091F80CF073FB01460F
:1036D000062007F0A7FB2368032B8AD1494B464EEF
:1036E0004FF47A721A60D6F8B0000CF033F9054640
:1036F000D6F8B4000CF02EF929460CF075F84349C1
:103700000CF07CF941490CF02DFA29460CF06EF8CA
:103710000CF050FB0146062007F084FB236868E7A5
:10372000323B81FB0310D917C1EB6011002B0A4417
:103730005DDB511C062002B0BDE8F04107F072BB12
:1037400000234FF00008336083E70139062002B000
:10375000BDE8F04107F066BB02212E4809F0D6FB18
:103760002D4809F073FE06212C4809F0CFFB306884
:103770000CF0F0F824490CF041F90BF095FC02270D
:1037800002460B460097244809F0BEFE0D2124484E
:1037900009F0BCFBD5F8B0000CF0DCF880463068CE
:1037A0000CF0D8F818490CF029F90646D5F8B40001
:1037B0000CF0D0F841460CF017F8014630460CF0FA
:1037C0001DF912490CF0CEF941460CF00FF80BF040
:1037D0006BFC009702460B460F4809F095FE3946F0
:1037E0000C4809F093FB0C4809F030FE51E71146F4
:1037F00018E700BF9C94FF1F98B8FF1F1088FF1F99
:103800001F85EB5180B9FF1FCDCCCC3D0000C842D5
:103810000088FF1FB0550100D489FF1FD445010067
:10382000DC45010030B51548154C83B009F00EFE9B
:10383000124809F00BFE134B1048196809F05AFEA4
:103840000E4809F003FE0D210F4809F05FFBD4F884
:10385000AC30012B1CD00D4D0848297800230A22DA
:1038600009F008FE2B78052B74D8DFE813F07401FB
:103870007901CB01D001D501DA0100BFD489FF1F46
:1038800098B8FF1F7094FF1FEC45010088B8FF1F18
:103890000921B64809F03AFBB548FFF74FF821690E
:1038A0000CF04AFA18B10F21B24809F02FFBB048CA
:1038B000FFF74AF8E1680CF05DFA18B10E21AE4846
:1038C00009F024FBAA48FFF73FF80546A848FFF790
:1038D00035F8014628460BF087FF616C0CF04AFA78
:1038E00018B11121A54809F011FBA148FFF750F8C4
:1038F000E16A0CF03FFA18B10C21A14809F006FB6F
:103900009B48FFF745F8216B0CF016FA18B10D2112
:103910009C4809F0FBFA9C4B95481B68012B00F072
:103920009881FFF70BF82169984D0CF023FA0028D5
:1039300000F00F818E48FFF707F8E968944D0CF00E
:10394000FBF938B12B78052B00F0988108219148BC
:1039500009F0DCFA0221904809F0D8FA122007F0A9
:10396000E7FB012800F07081112007F0E1FB01283E
:1039700000F05C81894B1B68012B00F06081022103
:103980008548874C09F0C2FA864B8748196809F0C8
:10399000B1FD854809F05AFD0421844809F0B6FAC2
:1039A0000B2007F0C5FB002301460A227E4809F0E0
:1039B00061FD0C2007F0BCFB002301460A227A4877
:1039C00009F058FD142007F0B3FB002301460A223A
:1039D000754809F04FFD152007F0AAFB0A220023C5
:1039E0000146714809F046FD0621714809F08EFA3A
:1039F0002368DB074FF001014CBF6E486E4809F0A9
:103A000085FA236898074FF001014CBF69486A485E
:103A100009F07CFA23685A074FF001014CBF654852
:103A2000654809F073FA23681B074CBF6148624878
:103A3000012109F06BFA0421604809F067FA1120AE
:103A400007F076FB002301460A22574809F012FDD1
:103A5000102007F06DFB002301460A22524809F0AE
:103A600009FD122007F064FB002301460A224E489C
:103A700009F000FD132007F05BFB0A22002301463A
:103A8000494809F0F7FC18214D4809F03FFA4D4B21
:103A900018880BF05FFF4C490BF0B0FF0BF004FBF4
:103AA000002402460B4600943F4809F02DFD1D21DD
:103AB000464809F02BFA464B18880BF04BFF424959
:103AC0000BF09CFF0BF0F0FA00940B4602463648D0
:103AD000404C09F019FD02213F4809F017FA2B78F4
:103AE000032B02D023889BB293B117213B4809F0E6
:103AF0000DFA21882C4889B209F0FCFC02213648D5
:103B000009F004FA2B78032B02D1354B1B780BB943
:103B100003B030BD0B21334809F0F8F9324B22488D
:103B2000198889B209F0E6FC1121304809F0EEF954
:103B30002F4B1D48198809F0DDFC2E4B1B78002BFC
:103B400000F097802C481D2103B0BDE8304009F0FB
:103B5000DDB90F4DFEE60621284809F0D7F9F9E650
:103B60000721274809F0D2F9F4E600BFFC4501001F
:103B70001C95FF1F08460100184601002846010059
:103B80003C4601004C460100A494FF1F98B8FF1F5B
:103B900088B8FF1F80460100B0550100C8B9FF1F5B
:103BA00068BAFF1F7494FF1FD489FF1FF4460100F9
:103BB000FC46010004470100084701000C470100D2
:103BC000144701009894FF1FCDCCCC3D3047010035
:103BD0005CBAFF1F64BAFF1F50470100B0470100E5
:103BE000E4B7FF1F544701008AB9FF1F6047010077
:103BF00048BAFF1F0895FF1F904701008C4601003F
:103C0000944601000721204809F080F9A2E6082126
:103C10001E4809F07BF99DE60B211D4809F076F955
:103C200098E607211B4809F071F993E60A211A4822
:103C300009F06CF9194B1B68012B7FF4A0AE112120
:103C4000174809F063F99AE60E21164809F05EF963
:103C50008AE6FEF773FE616A0CF08CF860B11621FB
:103C60001148124D09F052F90A21114809F04EF994
:103C700070E619210F4867E70C4D67E60A210C48EA
:103C800009F044F966E600BFA8460100B04601000D
:103C90009C460100BC460100D4460100C8B9FF1F84
:103CA000E0460100C44601005C46010088B8FF1FE1
:103CB00074460100744701002DE9F04FAB4CD4F875
:103CC0008060012E8DB000F07981032E00F0CC8051
:103CD000DFF8DC82A64FA74EE36FA748012B09BF90
:103CE0003168316801F10041316006F061FC3B68E8
:103CF000002B40F09F80A048DFF8B49206F02EFC25
:103D00003B68C8F800000546002B44D1D4F8803049
:103D1000964A012B53D0994928460CF02BF8C0B98C
:103D2000974928460CF008F898B9964A964B1268BD
:103D30000B920B9A1A60D4F8B8000BF00BFE2946D0
:103D40000BF05CFE0023C8F8000033600DB0BDE846
:103D5000F08FDFF830A28C4FDAF800300A930A981F
:103D60003B68DFF85092C01A0BF0F0FD29460BF0CB
:103D700045FE86490BF0F6FE84490BF0F3FED9F8B8
:103D800000100BF033FDDAF800300993099BC9F8F5
:103D900000003B60CFE70BF087F9022502460B4697
:103DA00000957B4809F0B0FB04217A4809F0AEF891
:103DB000D4F88030D9F800506C4A012BABD1764B47
:103DC0001B68012B00F0DA81022BB4D1D2F8A0706D
:103DD00038460BF0BFFD29460BF0AEFF40B97842E4
:103DE0000BF0B8FD29460BF0C5FF002800F0F98163
:103DF000DFF890A1644FDAF80030079307983B682A
:103E0000DFF8B091C01A0BF0A1FD29460BF0F6FDCA
:103E10005E490BF0A7FE5D490BF0A4FED9F8001037
:103E20000BF0E4FCDAF800300693069BC9F80000BA
:103E30003B6080E7504806F091FB0BF035F9022516
:103E400002460B460095524809F05EFB0321534899
:103E500009F05CF8D4F8A0104D4809F04BFB0321A1
:103E60004E4809F053F846E74D4D4B4F2B68DFF8AD
:103E70004081D3F884000F2101233B6005F004FE4C
:103E80003B683B4F012B3B6800F0BF80002B40F0AC
:103E90003D812B68DFF82091D3F88400436B1969CA
:103EA0008EB2C9F8006005F071FBB4F8A62040F6A8
:103EB000E44303FB06F1B1FBF0F0801A00B20BF013
:103EC00049FD38492B4E8246D4F898000BF096FDF8
:103ED000014650460BF046FED9F800303060632BA7
:103EE000DFF8D4A000F30681002333603B68002B89
:103EF0003FF4F2AE02212C4809F008F82B68D9F8FB
:103F00000050D3F8840040F6E44303FB05F505F0C8
:103F10003DFBB5FBF0F00BF019FD0546B4F8A6002B
:103F20000BF018FD014628460BF05EFC0BF0BCF8C8
:103F3000022502460B460095154809F0E5FA294688
:103F4000194808F0E3FF30680BF0AEF80095024620
:103F50000B460F4809F0D8FA2946144808F0D6FF56
:103F60002946114808F0D2FFB6E600BF98B8FF1FF7
:103F700078B8FF1F50BAFF1FA0B9FF1F0000FA4317
:103F80000000FAC32CBCFF1F7CB8FF1F00007A445E
:103F9000D489FF1F084801002888FF1FE84001005E
:103FA00078BAFF1F9175DD36B05501000448010055
:103FB00084B8FF1FD8B9FF1F80BAFF1FDFF808833E
:103FC000D4F8A070D8F8005038460BF0C3FC29464E
:103FD0000BF0D0FE48B178420BF0BCFC01462846FD
:103FE0000BF0C8FE002840F00381A54DA54F2A68BC
:103FF0000223D2F884003B600E2105F045FD3B68AA
:10400000A14F012B3B687FF441AF002B40F0FA80B9
:104010002B68DFF8B892D3F88400436B19691FFA54
:1040200081FBC9F800B005F0B1FAB4F8A430974E9E
:1040300040F6E44A0AFB0BFBBBFBF0F0C01A00B2EF
:104040000BF088FC92498346D4F89C000BF0D6FC18
:10405000014658460BF086FD2A68D9F800303060DA
:10406000D2F884000AFB03FA05F090FAB4F8A43001
:10407000BAFBF0F00FFA80FAC3EB0A03002BB4F896
:10408000C620B8BF5B429342BCBF002333603B688D
:10409000002B3FF421AE02217E4808F037FF2B6849
:1040A000D9F80050D3F8840040F6E44303FB05F54B
:1040B00005F06CFAB4F8A410B5FBF0F000B2411AA8
:1040C000754809F017FA0221724808F01FFF30689E
:1040D0000AF0EAFF022502460B4600956E4809F0F9
:1040E00013FA03216D4808F011FF2946694808F0CA
:1040F0000DFFF1E52B68D3F8840005F047FADAF8F4
:10410000003064389842FFF4EFAEEFE66248DFF823
:10411000BC91DFF86CA109F099F90C21604808F016
:10412000F5FE0C215F4808F0F1FE2A683B68D2F8E2
:104130008400426B11698EB2C9F80060002B3FF415
:10414000B2AE05F023FA40F6E44100230A2201FB57
:1041500006F1B1FBF0F1504809F08CF902214D480D
:1041600008F0D4FEB4F8A6104B4809F0C3F9DAF809
:104170000030D9F80060D3F8840094E64A49284614
:104180000BF0F8FD58B9494928460BF0D5FD30B978
:10419000474A484B12680592059A1A60CBE5DFF84A
:1041A00010A1444FDAF80030049304983B68DFF81C
:1041B0002091C01A0BF0CAFB29460BF01FFC3E49A8
:1041C0000BF0D0FC3C490BF0CDFCD9F800100BF003
:1041D0000DFBDAF800300393039BC9F800003B6045
:1041E000A9E5334A334B12680892089A1A60A2E58F
:1041F000234D244F2B683E60D3F884000F2105F037
:1042000043FC3DE62448DFF8C4901D4E09F01EF93A
:10421000D4F88030012B4FF00B010CBF2748284801
:1042200008F074FE0C211F4808F070FE2A683B68F5
:10423000D2F88400426B11691FFA81FBC9F800B003
:10424000002B3FF4F0AE05F0A1F940F6E441002365
:104250000A2201FB0BF1B1FBF0F10F4809F00AF95A
:104260000121184808F052FEB4F8A4100A4809F0D9
:1042700041F93368D9F800B0D3F88400D3E600BF21
:1042800078BAFF1F2888FF1F78B8FF1F50BAFF1F9A
:104290009175DD36B0550100D489FF1FF04701004C
:1042A000F4470100E04701000000FA430000FAC3B0
:1042B0002CBCFF1F7CB8FF1F00007A44C8470100D8
:1042C000D4470100E845010084B8FF1F80BAFF1FF2
:1042D000D8B9FF1F2DE9F04F9A4C236887B01BB95E
:1042E000994B1B68002B7CD0984EDFF86882984F62
:1042F000DFF8AC92D6F88830944D012B00F09B800B
:10430000D7F800A0D5F860B0EC6D924D04FB0BF42B
:104310004FF47A7000FB04F00BF01CFB8E4904464E
:1043200050460BF06BFB21460BF01CFC8B490BF04D
:1043300065FB0BF03FFD6328C8F800004CDD20460C
:1043400085490BF00FFC642338602B60D9F80030EE
:10435000002B3ED0D6F880307C4C012B00F09280B0
:10436000032B00F0E380022B00F0E78002217C4861
:1043700008F0CCFD7B4B18680AF096FE022402463A
:104380000B460094784809F0BFF82146774808F0BA
:10439000BDFD2146724808F0B9FDD8F800107248FA
:1043A00009F0A8F80621724808F0B0FD38686A499B
:1043B0000BF024FB0AF078FE009402460B466A4894
:1043C00009F0A2F803216B4808F0A0FD664809F047
:1043D0003DF807B0BDE8F08F0028BCBF00232B607C
:1043E000B4E7654D2B680393039BB3F57A6F07D948
:1043F000624E336823B96248FDF74EFD01233360F6
:104400002B680493049A514E41F294139A4200F29D
:1044100086802B680593059A41F288339A423ED8EC
:10442000D6F88830DFF82C81494FDFF87491474D7A
:10443000012B7FF465AF5248FEF780FA5149D5F859
:1044400070B0D5F874A0EC6E0BF0D8FA0BF0D8FC75
:10445000AB6F009352465B46214680B2FEF7F8FEF2
:10446000D5F860B0EC6D0BFB00F004FB00F000EB46
:10447000800040000BF06EFA37490BF073FB824668
:10448000386042E7404B1B68012B4FF00A010CBF1C
:104490003E483F4808F03AFDD4F8803060E738489D
:1044A000DFF8B080FEF74AFA3649D6F87090776F99
:1044B000F56E0BF0A3FA0BF0A3FCB36F00933A4632
:1044C0004B46294680B2FEF7C3FE326EF36DC8F844
:1044D000000002FB00F003FB00F000EB8000400056
:1044E0000BF038FADFF8B8901B49194F0BF03AFB84
:1044F000D9F80030386001222260002B3FF4FAAE78
:104500000221174808F002FD174808F09FFF5921C3
:10451000204808F0FBFC144808F098FFEAE6184829
:10452000F26C96F84810FEF715FA72E710211A4857
:1045300008F0ECFCD6F8803015E70721174808F0A2
:10454000E5FC13E71895FF1F74BAFF1F98B8FF1F0B
:10455000D8B9FF1F1088FF1FE4388E3E0000C84204
:10456000B055010084B8FF1FD489FF1F0448010023
:10457000A0480100A84801002CBCFF1FF4B7FF1F92
:104580001C95FF1F00007A442888FF1F6C4801001B
:104590007848010010480100844801009848010053
:1045A0000088FF1F30B5112083B006F0C1FD01283F
:1045B00018D0122006F0BCFD012813D000210B20DA
:1045C00006F0B0FD00210C2006F0ACFD0021152006
:1045D00006F0A8FD2649274B0120002208701A602A
:1045E00003B030BD0121152006F09CFD224A234C6A
:1045F000234B1268D4F88C1001921B68019A1D4D50
:104600000B4493424FF00201296005D901210C208F
:1046100006F088FD03B030BDD4F894000BF09AF991
:10462000184B19680BF088FB0028EFD101210B20F3
:1046300006F078FD94F8CC300324012B2C600DD0CB
:10464000122006F075FD012808BF094B4FF011003C
:1046500008BF1C7006F06CFD012802D1044B022239
:104660001A7000210C2006F05DFD03B030BD00BFC4
:1046700088B8FF1F1495FF1F2CBCFF1F98B8FF1FA1
:10468000E0B7FF1F84B8FF1FF0B56D4E6D4D346865
:104690002B689C4287B03AD014F0010156D014F038
:1046A00002014AD014F004013ED0E3070FD52B6875
:1046B000DF070CD4644F3A68002A00F09E80634BF9
:1046C0001B680193019B934200F289803468A00724
:1046D0000DD52B6899070AD45D4F3A68002A3ED061
:1046E0005A4B1B680393039B93425AD83468620762
:1046F0000DD52B685B070BD4564F3A68002A3FD084
:10470000524B1B680593059B934258D834680CB1F3
:1047100007B0F0BD2146162006F084FB2146172085
:1047200006F080FB07B0F0BD052006F07BFB2B6890
:10473000346803F0FB032B60B7E7172006F072FB29
:104740002B68346803F0FD032B60ABE7162006F0FE
:1047500069FB2B68346803F0FE032B609FE73E4B38
:104760001B68002B56D1FF21172006F05BFB374B4F
:104770003A4A19680291029912680A443A60B0E70D
:10478000354B1B68002B50D1FF21052006F04AFB5A
:104790002E4B324A19680491049912680A443A600F
:1047A000AFE72F4B1720D3F8901006F03BFB2B6898
:1047B000346843F0020300222B603A6097E7284BED
:1047C0000520D3F8901006F02DFB2B68346843F0D9
:1047D000040300222B603A60002C99D19AE7204B09
:1047E0001620D3F8901006F01DFB2B68346843F0B8
:1047F000010300222B603A6069E7FF21162006F0D2
:1048000011FB124B154A19680091009912680A446D
:104810003A6055E7134808F019FE0C21124808F0D9
:1048200075FB104808F012FE9DE70E4808F00EFEDA
:104830000C210E4808F06AFB0A4808F007FEA3E7BF
:104840001495FF1F68BAFF1F84B9FF1F2CBCFF1F00
:1048500090B9FF1F94B9FF1F0088FF1F1888FF1F22
:1048600098B8FF1FD489FF1FAC480100BC48010065
:104870002DE9F047534EDFF87081DFF87091306812
:10488000514D00220F2104F0FBFD002301222221C3
:104890004E48C8F80030C9F8002008F037FBD8F8B7
:1048A0000030132B20DC40F6E4473368B5F8A4A0B1
:1048B000D3F88400436B1C6904F068FEA4B20121A4
:1048C00007FB04F4B4FBF0F441485444A5F8A440B9
:1048D00008F01CFB642006F061FCD8F800300133BE
:1048E000132BC8F80030E0DDB5F8A430394A3A4857
:1048F000A2FB03129B1A02EB5303C3F30F131946D7
:10490000A5F8A43008F0F6FD1D21344808F0FEFAA1
:104910000221334808F0FAFA2F4808F097FD326870
:104920000023D2F88400C8F800300E2105F0ACF85E
:10493000022322212548C9F8003008F0E7FAD8F808
:104940000030132B20DC40F6E4473368B5F8A6901E
:10495000D3F88400436B1C6904F018FEA4B2012153
:1049600007FB04F4B4FBF0F419484C44A5F8A64046
:1049700008F0CCFA642006F011FCD8F800300133BE
:10498000132BC8F80030E0DDB5F8A630114A124804
:10499000A2FB03129B1A02EB5303C3F30F13194636
:1049A000A5F8A63008F0A6FD1D210E4808F0AEFAC5
:1049B00002210B4808F0AAFA0748BDE8F04708F0C2
:1049C00045BD00BF78BAFF1F98B8FF1FCC48010053
:1049D0001049010087611886D489FF1FF048010043
:1049E000B0550100144901007C94FF1F2888FF1F67
:1049F000F8B5C84BC84CC94F1B68B86D40F251316F
:104A000008222160E271002B00F0AE810AF0A2FFC3
:104A1000796A05460AF0F2FFC1490AF0EFFF0BF090
:104A2000EFF980B203126372BE4ABF4B12881B8833
:104A3000F9692072A37228461B121512E3722273C1
:104A400065730AF0DBFFB6490AF0D8FF0BF0D8F91E
:104A500083B21A12B049B548A373E27305F0E6FBBE
:104A6000B34BB44A1B681288AB49A272DDB22572FF
:104A700005EB850603EB8305760045F3D71540F279
:104A8000553E12121B122673657308260025A7488F
:104A9000C4F800E06372E272E671A573E57305F095
:104AA000C5FB40F256320723A3482260C7F8BC304A
:104AB000E671FDF74BFF9A490AF0A0FF0BF0A0F951
:104AC00020729D48FDF742FF95490AF097FF0BF0D1
:104AD00097F99A4A9A49C0F30723106863720BF05A
:104AE00041F80BF067F940FA06F203469248E27289
:104AF000A372FDF74DFF8A490AF080FF0BF05AF9C7
:104B000020738D48FDF744FF85490AF077FF0BF0CD
:104B100051F98149A57340F3072384486373E57312
:104B200005F084FB022006F039FB864A864B11789B
:104B30005078217291786072D2789878A172597801
:104B400093F800E0E2726173DA78A07340F25A33AE
:104B500071497648E67184F80CE0E273236005F051
:104B600065FB7A4B6C491A785878227260729A7891
:104B7000D878A272E0721A79987993F805E02273D6
:104B8000A073DA79694884F80DE040F25E33E2738D
:104B90002360E67105F04AFB022006F0FFFA6C4B39
:104BA0005D491A785878227260729A78D878A27221
:104BB000E0721A79987993F805E02273A073DA7994
:104BC0005A4884F80DE04FF45C73E2732360E67199
:104BD00005F02CFB022006F0E1FA40F27333564850
:104BE0002360E671FDF7AAFE5A490AF007FF0BF0B1
:104BF00007F920725048FDF7A1FE56490AF0FEFE63
:104C00000BF0FEF8C0F307234B486372FDF79CFEE0
:104C100050490AF0F3FE0BF0F3F8A0724648FDF796
:104C200093FE4C490AF0EAFE0BF0EAF8C0F30723C2
:104C30004148E372FDF706FF47490AF0D7FD0BF044
:104C4000DFF820733C48FDF7FDFE43490AF0CEFD36
:104C50000BF0D6F8C0F3072337486373FDF7F0FE77
:104C60003D490AF0C3FD0BF0CBF8A0733248FDF7C5
:104C7000E7FE39490AF0BAFD0BF0C2F82649C0F345
:104C800007232A48E37305F0D1FA022006F086FADA
:104C9000F96D3B6E022211FB03F3104640F27931AD
:104CA000C3F307272160E2712372677206F076FA78
:104CB00040F2723320482360E671FDF741FE207216
:104CC0001D48FDF73DFE254B30411B6860720B20EF
:104CD000A37206F02DFA07460C2006F029FA0646C4
:104CE000142006F025FA800040EA4606152006F05A
:104CF0001FFA3E431A4B657376B246EAC0061B782C
:104D0000E672A573E573237303490848BDE8F840CC
:104D100028E000BFA494FF1F8094FF1F98B8FF1FD6
:104D2000000020415CBAFF1F9894FF1F84BAFF1F48
:104D30001088FF1F1688FF1F1C95FF1F84B8FF1FD8
:104D40000000C84280B8FF1F6894FF1F3488FF1F0F
:104D50003C88FF1F00007A443393884368BAFF1FE2
:104D600088B8FF1F05F062BA0AF0F4FDB96905467C
:104D700050E600BF2DE9F04F7D4D7E4F83B008F027
:104D80005FF82C683860042C034600F07383092C0C
:104D900000F0ED82022C4CD1A3F13102422A52D80C
:104DA000DFE812F0B806E406C506D30656004A0648
:104DB0005906630651005100510051005100510045
:104DC000510051005100510051005100510051005B
:104DD000510051005100510051005100510051004B
:104DE000510051005100510051005100510051003B
:104DF000510051005100510051005100510051002B
:104E00005100510051005100430051005100510028
:104E1000510051005100510051005100510051000A
:104E200051005100740051000106FFF721FD2C686C
:104E30003B68082C1DD1322B00F0C483712B25D088
:104E4000312B00F0DB83732B24D003B0BDE8F08F4F
:104E500001232B6008F030F8002807DD4648474E54
:104E600008F08CFC0AF076FDC6F8980063232C68E5
:104E70003B60072C40F0A480332B01F0CC8340F33F
:104E80008583342B01F0F283712BDCD10022732354
:104E90002A603B602B68002BD7D1394E364808F08A
:104EA000D5FA0421374808F031F8334808F0CEFA33
:104EB0001021354808F02AF82F4808F0C7FA1321C6
:104EC000324808F023F8324B2B48196808F012FBDF
:104ED000294808F0BBFA14212E4808F017F8264894
:104EE00008F0B4FA1E212C4808F010F8224808F007
:104EF000ADFA1521294808F009F81F4808F0A6FA6C
:104F00001E21274808F002F81B4808F09FFA2021CC
:104F1000244807F0FBFF184808F098FA19212248A6
:104F200007F0F4FF144808F091FA12211F4807F027
:104F3000EDFF114808F08AFA19211D4807F0E6FF35
:104F40000D4808F083FA0F211A4807F0DFFF0A48DE
:104F500008F07CFA0D21184807F0D8FF064808F041
:104F600075FA0022012332602B6003B0BDE8F08F98
:104F70007CBAFF1FCCB7FF1FD489FF1F98B8FF1F53
:104F80000088FF1F604E0100684E01007C4E01004A
:104F90002488FF1F904E0100A84E0100C84E01005A
:104FA000E04E0100004F0100244F0100404F01007E
:104FB000544F0100704F0100804F01002C683B6886
:104FC000062C40F08D80A3F13102402A3FF63BAF22
:104FD00001A151F822F000BFED5D00001B5E000052
:104FE000575C0000835C0000AF5C0000C55C000003
:104FF000EB5C00001D5D00003D5D0000474E0000C1
:10500000474E0000474E0000474E0000474E00004C
:10501000474E0000474E0000474E0000474E00003C
:10502000474E0000474E0000474E0000474E00002C
:10503000474E0000474E0000474E0000474E00001C
:10504000474E0000474E0000474E0000474E00000C
:10505000474E0000474E0000474E0000474E0000FC
:10506000474E0000474E0000474E0000474E0000EC
:10507000474E0000474E0000474E0000474E0000DC
:10508000474E0000474E0000474E0000474E0000CC
:10509000474E0000474E0000495E0000A15D000041
:1050A000C75D0000474E0000474E0000474E00001D
:1050B000474E0000474E0000474E0000474E00009C
:1050C000474E0000474E0000474E0000474E00008C
:1050D000474E0000474E00008D4E00002C683B6894
:1050E000052C40F08D80A3F13102402A3FF6ABAE93
:1050F00001A151F822F000BF0D5800002D5800000A
:1051000095570000B5570000D7570000F35700002F
:1051100057560000474E0000474E0000474E000023
:10512000474E0000474E0000474E0000474E00002B
:10513000474E0000474E0000474E0000474E00001B
:10514000474E0000474E0000474E0000474E00000B
:10515000474E0000474E0000474E0000474E0000FB
:10516000474E0000474E0000474E0000474E0000EB
:10517000474E0000474E0000474E0000474E0000DB
:10518000474E0000474E0000474E0000474E0000CB
:10519000474E0000474E0000474E0000474E0000BB
:1051A000474E0000474E0000474E0000474E0000AB
:1051B000474E0000474E0000474E0000474E00009B
:1051C000474E0000474E0000474E0000474E00008B
:1051D000474E0000474E0000474E0000474E00007B
:1051E000474E0000474E0000474E0000474E00006B
:1051F000474E0000474E0000855700002C683B6872
:10520000032C40F0A480A3F13002422A3FF61BAEEB
:1052100001A151F822F000BF25530000E365000012
:10522000336300005B6300007D6300009F63000048
:10523000755E000015630000C7630000ED630000A9
:10524000474E0000474E0000474E0000474E00000A
:10525000474E0000474E0000474E0000474E0000FA
:10526000474E0000474E0000474E0000474E0000EA
:10527000474E0000474E0000474E0000474E0000DA
:10528000474E0000474E0000474E0000474E0000CA
:10529000474E0000474E0000474E0000474E0000BA
:1052A000474E0000474E0000474E0000474E0000AA
:1052B000474E0000474E0000474E0000474E00009A
:1052C000474E0000474E0000474E0000474E00008A
:1052D000474E0000474E0000474E00001564000096
:1052E00033640000516400006F6400008D640000AE
:1052F000AB6400000165000055650000474E0000EA
:105300007D6500009D650000474E0000474E00008F
:10531000474E0000474E0000474E00008D4E0000F3
:10532000C365000007F0C8FD002841F36D81D14836
:10533000D14E08F023FA0124034601466222CF48E9
:10534000F3652C603A60FDF703FB2C683B68012C89
:105350007FF479AD642B30D1DFF844B3DFF844A398
:10536000DFF84493C44EDFF84483C54C84E2C24E58
:10537000C14996F8CE20012A84BF002286F8CE20AB
:1053800096F8CD20012A02D9002281F8CD20322BB7
:1053900000F04C81712B3FF479AD312B7FF453AD8C
:1053A00096F8CD20B2FA82F27821520901240B46F8
:1053B00086F8CD2039602C60642941F39A836B2BE9
:1053C00001F0948341F3B281712B01F06181782B5C
:1053D00002D038E507F034FD07F06EFD04460028E2
:1053E000F8D1A448A44E08F031F8A24808F02EF8ED
:1053F000A04808F02BF89F4808F028F89D4808F0CE
:1054000025F815219F4807F081FD9A4808F01EF8FD
:10541000984808F01BF82C219B4807F077FD954829
:1054200008F014F82521994807F070FD234696F8F6
:10543000CD1090480A2208F01DF88E4808F006F8B2
:105440001921934807F062FD96F8CE30002B41F009
:105450002E810E218F4807F059FD864807F0F6FF90
:1054600013218D4807F052FD824807F0EFFF092312
:105470002B60EAE4A0F13002412A3FF6E4AC01A13E
:1054800051F822F04D580000355C00008B5B0000A5
:10549000AD5B0000F15B0000135C0000855A00006A
:1054A0009D5A0000C95A0000F15A0000474E000002
:1054B000474E0000474E0000474E0000474E000098
:1054C000474E0000474E0000474E0000474E000088
:1054D000474E0000474E0000474E0000474E000078
:1054E000474E0000474E0000474E0000474E000068
:1054F000474E0000474E0000474E0000474E000058
:10550000474E0000474E0000474E0000474E000047
:10551000474E0000474E0000474E0000474E000037
:10552000474E0000474E0000474E0000474E000027
:10553000474E0000474E0000474E0000474E000017
:10554000474E0000474E0000474E0000474E000007
:10555000474E0000474E0000474E0000474E0000F7
:10556000474E0000474E0000474E0000474E0000E7
:10557000474E0000474E0000474E0000474E0000D7
:10558000474E0000474E00008D4E0000312B01F0C9
:105590005680322B7FF457AC07F08EFC00287FF743
:1055A0000DAD3448344E08F0E9F80AF0D3F93B4920
:1055B0000AF024FA01246122134670643A602C60D8
:1055C000642AFAE607F078FC002841DD29482A4ED3
:1055D00008F0D4F80AF0BEF930490AF00FFA96F84C
:1055E0004810034602462548F364FDF7B3F96922E3
:1055F000012413463A602C60642ADEE607F05CFC66
:10560000002821DD1B481C4E08F0B8F8C0B286F80F
:105610004800022894BF01460021F26C174888BF59
:1056200086F84810FDF796F96922E1E796F8CE2052
:10563000B2FA82F27821520901240B4686F8CE2074
:1056400039602C606429B8E60B4E96F84800E0E714
:105650002C683B680DE4084E96F8CC30012B0CBF4B
:105660000023012386F8CC3001226B232A603B60A3
:1056700020E000BFD489FF1F98B8FF1F1C95FF1FB3
:105680006494FF1F584F01005849010088490100E8
:10569000B0490100CC490100F04901006F12833A82
:1056A00070BAFF1F78B8FF1F8CB8FF1F9C94FF1FB4
:1056B00007F0C6FB07F000FC0028F9D1BF48C04C3A
:1056C00007F0C4FEBD4807F0C1FEBC4807F0BEFEAF
:1056D000BA4807F0BBFEB94807F0B8FE2121B94827
:1056E00007F014FCB54807F0B1FE1521B64807F0E5
:1056F0000DFCD6F88C10B14807F0FCFE0221B3482F
:1057000007F004FCAD4807F0A1FE1E21B04807F0E9
:10571000FDFBD6F89410A94807F0ECFE0321AD4834
:1057200007F0F4FBA54807F091FE1E21AA4807F0F8
:10573000EDFBD6F89010A14807F0DCFE9F4807F07B
:1057400085FE1D21A54807F0E1FBD6F8B0109B4867
:1057500007F0D0FE994807F079FE1E21A04807F017
:10576000D5FBD6F8B410954807F0C4FE934807F06F
:105770006DFED6F8AC30012B00F0B28705232B600C
:10578000FFF763BB9749002373220B602B603A60DD
:10579000FFF780BB07F090FB00287FF72FAD87480D
:1057A000874E07F0EBFF01226B23C6F890002A60BA
:1057B0003B607FE707F080FB00287FF71FAD7F4845
:1057C0007F4E07F0DBFF874BC6F8B00002221A605D
:1057D000FDF704FF48E707F06FFB00287FF70EADE9
:1057E0007648774E07F0CAFF7E4BC6F8B400032216
:1057F000EDE7734E96F8D830B3FA83F35B090121D5
:105800006B2286F8D83029603A6053E707F054FBE2
:1058100000287FF7F3AC6948694E07F0AFFF01221B
:105820006B23C6F88C002A603B6043E707F044FB1B
:1058300000287FF7E3AC6148614E07F09FFF01222B
:105840006B23C6F894002A603B6033E7664ADFF8B2
:10585000DCB11378DFF8D8A1DFF8D891584EDFF823
:105860008481624C83F001031370012264232A6057
:105870003B6001E007F0E4FA07F01EFB0028F9D1D5
:105880004E4807F0E3FD4D4807F0E0FD4B4807F0B8
:10589000DDFD4A4807F0DAFD484807F0D7FD13213F
:1058A000534807F033FB454807F0D0FD0D21514820
:1058B00007F02CFB414807F0C9FD0F214E4807F0C7
:1058C00025FBDBF800103D4807F014FE3B4807F0CD
:1058D000BDFD1321494807F019FBDAF800103748DD
:1058E00007F008FE354807F0B1FD1221444807F0E3
:1058F0000DFB444B3148196807F0FCFD2F4807F0B9
:10590000A5FD1121404807F001FBD9F800102B48F4
:1059100007F0F0FD294807F099FD0E213B4807F0FC
:10592000F5FAD6F8AC10254807F0E4FD234807F057
:105930008DFD1921364807F0E9FA364B1F481968E2
:1059400007F0D8FD1D4807F081FD1121324807F00E
:10595000DDFAD8F80010194807F0CCFD174807F019
:1059600075FD10212D4807F0D1FA2168134807F082
:10597000C1FD124807F06AFD1C21294807F0C6FA4C
:10598000284B0E48196807F0B5FD0C4807F05EFD7E
:105990001321254807F0BAFA084807F057FD0423F9
:1059A0002B60FFF752BA064AD2F880300133032B3E
:1059B000C8BF0023C2F88030632219E6D489FF1FD4
:1059C00098B8FF1F1C4D0100404D0100784B0100AD
:1059D000584D0100F0470100784D0100984D01003D
:1059E000B84D01009C94FF1FE4B7FF1F6494FF1F94
:1059F000904F0100A44F0100B44F0100C44F0100BB
:105A0000D84F0100D0B9FF1FEC4F0100005001003A
:105A1000105001007494FF1F2C50010040500100F1
:105A2000545001002088FF1FF049010070BAFF1F89
:105A300078B8FF1F8CB8FF1F01232B6007F03CFADA
:105A400000287FF713AAC748C74E07F097FEA6F8AD
:105A5000C600FFF70BBAC44AD2F884300133042BD6
:105A6000C8BF0123C2F88430A6E701232B6007F0EA
:105A700023FA0028A0DDBB48BB4E07F07FFEC6F826
:105A8000A00099E70123B9482B60FBF765FDB84BEF
:105A90002C68186064233B60FFF779B9DFF8F08267
:105AA000DFF8F0B2D8F80030DFF8ECA2DFF8EC92C3
:105AB000AD4EB3FA83F35B09C8F8003001232B60C5
:105AC00064233B60AB4CD7E6AA4CDFF8C8B223682E
:105AD000DFF8C4A2DFF8C492A34EDFF8B482B3FAB1
