:1000000000800020BD010000D58C00008D8C000018
:100010008D8C00008D8C00008D8C00008D8C00007C
:100020008D8C00008D8C00008D8C0000D58C000024
:10003000D58C00008D8C000009AC00000DAD0000D7
:10004000D58C0000D58C0000D58C0000D58C00002C
:10005000D58C0000D58C0000D58C0000D58C00001C
:10006000D58C0000D58C0000D58C0000D58C00000C
:10007000D58C0000D58C0000D58C0000D58C0000FC
:10008000D58C0000D58C0000D58C0000D58C0000EC
:10009000D58C0000D58C0000D58C0000D58C0000DC
:1000A000D58C0000D58C0000D58C0000D58C0000CC
:1000B000D58C0000718800007D88000081880000D8
:1000C0008D8800009188000095880000D58C000084
:1000D000D58C0000D58C0000D58C0000D58C00009C
:1000E000D58C0000D58C0000D58C0000D58C00008C
:1000F000D58C000015B40000D58C0000719900006B
:10010000D58C0000899C0000D58C0000D58C0000A7
:10011000D58C0000D58C0000D58C0000D58C00005B
:10012000D58C0000D58C0000D58C0000D58C00004B
:10013000D58C0000D58C0000D58C0000D58C00003B
:10014000D58C0000D58C0000D58C0000D58C00002B
:10015000D58C0000D58C0000D58C0000D58C00001B
:10016000D58C0000D59E0000D58C0000D58C0000F9
:10017000D58C0000D58C0000D58C0000D58C0000FB
:10018000D58C0000D58C0000D58C0000D58C0000EB
:10019000D58C0000D58C0000D58C0000D58C0000DB
:1001A000D58C0000D58C0000D58C0000D58C0000CB
:1001B000D58C0000D58C0000D58C0000564B4CF23D
:1001C000205210B51A804DF628121A8000BF00BFC9
:1001D00008F084FD514B4FF010621A60504A9A604B
:1001E000504ADA60504A136813F4807304D14F49BF
:1001F0000B604FF4A85313604D4B1A78110703D5C9
:100200001A7842F008021A704A4B4B492A221A7097
:100210004A4A4B4B8B4204D252F8040F43F8040B6A
:10022000F8E7484B484900228B4202D243F8042B9E
:10023000FAE74649464A002352F8230041F82300D2
:1002400001336F2BF8D1434B434A802103F8011B44
:100250009342FBD1414B3D4A1A60414B8A221A70AE
:10026000A3F5805324225A70A0221A709A7992071B
:10027000FCD59A79D406FCD43A4A937903F00C035E
:10028000082B384BF9D103221A7140225A719A79FE
:100290009006FCD5334A9179324B4906FBD5324A58
:1002A000324911600221516020221A709A7902F0BD
:1002B0000C020C2AFAD12E4B2E4A1A602E4B2F4AD2
:1002C0001A6000225A60072243F8042C2C4AC3F813
:1002D0000C2D62B608F0B8FF144B1B68DA0705D581
:1002E000284808F095FD284B284A1A60284B1B78AF
:1002F0005B0609D5244C254B22689A4204D121483B
:1003000008F086FD002323600DF088FB08F0ECFC6C
:100310000AF040FFFEE700BF0E2005403080044099
:10032000823F04000100002B10D0034014D0034092
:1003300002D0074000E007403092FF1FDC3501008B
:100340002087FF1F3092FF1F40BCFF1F0082FF1F4E
:100350000000000000E400E05FE400E008ED00E0E1
:100360000050064000400640448004400000030165
:1003700004800440C010050014E000E0FF76010096
:1003800000002020E03C685C1CE00340A5C3945AB8
:1003900000F00740FFFFFFFFFFFFFFFFFFFFFFFF32
:1003A000FFFFFFFFFFFFFFFFFFFFFFFFFFFFFFFF5D
:1003B000FFFFFFFFFFFFFFFFFFFFFFFFFFFFFFFF4D
:1003C000FFFFFFFFFFFFFFFFFFFFFFFFFFFFFFFF3D
:1003D000FFFFFFFFFFFFFFFFFFFFFFFFFFFFFFFF2D
:1003E000FFFFFFFFFFFFFFFFFFFFFFFFFFFFFFFF1D
:1003F000FFFFFFFFFFFFFFFFFFFFFFFFFFFFFFFF0D
:10040000FFFFFFFFFFFFFFFFFFFFFFFFDEF9FFFF23
:1004100010B5054C237833B9044B13B10448AFF33E
:1004200000800123237010BD3092FF1F00000000E8
:10043000D8350100084B10B51BB108490848AFF387
:1004400000800848036803B910BD074B002BFBD0A0
:10045000BDE81040184700BF000000003492FF1FA5
:10046000D83501003092FF1F00000000F0B400F109
:1004700014060F4F00243146031F00F12C0243F8ED
:10048000044FB34241F8047F4FF0000542F8044F97
:10049000F5D1084B084985640022C56405654565AA
:1004A000456683650366C16580F88420F0BC7047AB
:1004B0000000A040000048430000C8C200230360C1
:1004C00043608360C3600361436183640365436584
:1004D000836570472DE9F04190F8844084B0002393
:1004E00064008DF80530E4B2012380468DF80440A5
:1004F0008DF806300327204609F062FB02210DF13A
:10050000050009F067FB8DF8044002F0C7FB30B32B
:100510000921C9480AF012FA002310222146C748CF
:100520000AF0B2FC0121C6480AF008FA00231022A2
:100530009DF80510C1480AF0A7FC0121C0480AF047
:10054000FDF9002310229DF80610BC480AF09CFC1F
:100550000121BB480AF0F2F9B8480AF085FC0220F4
:100560008DF8044008F022FE02F098FB002840F0CD
:10057000778102AE002409F043FB002800F02681B9
:10058000042C40F0158101E009F04AFB09F038FB2A
:100590000028F9D102F082FB10B1A8480AF064FCEF
:1005A00098F884406400E4B2202204238DF80440CB
:1005B0008DF805208DF806300327204609F000FB52
:1005C00002210DF1050009F005FB8DF8044002F051
:1005D00065FB30B3092198480AF0B0F900231022D6
:1005E000214696480AF050FC012195480AF0A6F9E8
:1005F000002310229DF8051090480AF045FC0121C7
:100600008F480AF09BF9002310229DF806108B48B2
:100610000AF03AFC01218A480AF090F987480AF06A
:1006200023FC02208DF8044008F0C0FD02F036FBE8
:10063000002840F00B8102AE002409F0E1FA002806
:1006400000F0A980072C40F0988001E009F0E8FA5A
:1006500009F0D6FA0028F9D102F020FB10B1774852
:100660000AF002FC98F884409DF80B209DF80C30AD
:100670009DF80D00C8F870206400E4B29DF80E10DB
:10068000C8F87430332201238DF80440C8F878008C
:10069000C8F87C108DF805208DF806300327204619
:1006A00009F08EFA02210DF1050009F093FA8DF898
:1006B000044002F0F3FA30B309215F480AF03EF932
:1006C0000023102221465D480AF0DEFB01215C4830
:1006D0000AF034F9002310229DF8051057480AF05B
:1006E000D3FB012156480AF029F9002310229DF876
:1006F000061052480AF0C8FB012151480AF01EF9C1
:100700004E480AF0B1FB02208DF8044008F04EFD7F
:1007100002F0C4FA002840F09E8002AE002409F0E6
:100720006FFAF8B1042C0FD101E009F079FA09F061
:1007300067FA0028F9D102F0B1FA10B13F480AF087
:1007400093FB04B0BDE8F08109F06AFA054606F8AB
:10075000010B02F0A3FA00285AD1013409F050FA33
:100760000028DFD1042CE2D002F098FA00285ED1F4
:10077000013FE6D09DF8044091E709F051FA0546A3
:1007800006F8010B02F08AFA60BB013409F038FA6E
:1007900000287FF457AF072C3FF45AAF02F07EFADF
:1007A00000284FD1013F3FF45DAF9DF8044004E7BE
:1007B00009F036FA054606F8010B02F06FFAE0B9C7
:1007C000013409F01DFA00287FF4DAAE042C3FF45E
:1007D000DDAE02F063FA30BB013F3FF4E1AE9DF8BD
:1007E000044088E6E9B20023102214480AF04CFBCA
:1007F000012113480AF0A2F8C7E7E9B2002310224A
:100800000E480AF041FB01210D480AF097F8D7E79E
:10081000E9B20023102209480AF036FB01210848FA
:100820000AF08CF899E705480AF01EFBD4E7034864
:100830000AF01AFB9CE700BFD81B0100D487FF1FFA
:100840000823010009480AF00FFBABE7072108481D
:100850000AF074F8EFE6072105480AF06FF85CE744
:10086000072103480AF06AF883E600BFD487FF1F18
:10087000E41B010090F87400704700BF90F870000E
:10088000704700BF90F87800704700BF90F87C0078
:10089000704700BF2DE9F04390F8848085B04FEA9F
:1008A00048085FFA88F8322200238DF804808DF81A
:1008B00005208DF8063003250DF1060748F00109E3
:1008C000484609F07DF901AE0DF10500022109F05D
:1008D00081F98DF804904A463346002050400824A0
:1008E00010F0800F4FEA400018BF80F00700013C75
:1008F000C0B2F5D1BB4202D013F8012FEEE709F0E8
:100900005FF902F0CBF900284AD102208DF804806B
:1009100008F04CFC02F0C2F9002840F081800DF193
:100920000808002409F06CF908B3042C12D101E086
:1009300009F076F909F064F90028F9D102F0AEF96E
:1009400010B13A480AF090FA022008F02FFC05B0E6
:10095000BDE8F08309F064F908F8010B064602F0DF
:100960009DF970B9013409F04BF90028DDD1042C50
:10097000E0D002F093F978B9013DE5D09DF804800C
:100980009CE7F1B20023102228480AF07DFA0121E9
:10099000274809F0D3FFE5E724480AF065FAEBE7BA
:1009A0000921244809F0CAFF2346102249461F485E
:1009B0000AF06AFA01211E4809F0C0FF23461022FE
:1009C0009DF8051019480AF05FFA0121184809F04E
:1009D000B5FF102223469DF8061014480AF054FA79
:1009E0000121134809F0AAFF21460DF1070216F86C
:1009F000014B6140C9B2082311F0800F4FEA410159
:100A000018BF81F00701013BC9B2F5D1B242EED166
:100A1000102206480AF038FA04480AF025FA74E76A
:100A20000721054809F08AFF79E700BFD487FF1F37
:100A300008230100D81B0100E41B01002DE9F04F41
:100A4000074691B097F8843002205B008DF808309B
:100A500008F0ACFB97F8843038465B008DF808301E
:100A6000FFF738FDB86FFC6F7B6F3A6F97F8841013
:100A70008DE81100C94802F017FA30223D238DF8A5
:100A800009208DF80A3003260DF10A059DF808901B
:100A900049F00108404609F093F80DF109000221E0
:100AA00009F098F88DF80880424602AB00205040CB
:100AB000082410F0800F4FEA400018BF80F00700B4
:100AC000013CC0B2F5D19D4202D013F8012FEEE7F0
:100AD00009F076F802F0E2F8002840F07D8202206A
:100AE0008DF8089008F062FB02F0D8F8002840F07A
:100AF000B9820DF10C0AD146002409F081F80028D2
:100B000043D0032C34D101E009F08AF809F078F8D9
:100B10000028F9D102F0C2F810B1A1480AF0A4F9F6
:100B2000312303268DF809308DF80A609DF808906E
:100B300049F00108404609F043F80DF1090002218F
:100B400009F048F88DF80880424602AB002050407A
:100B5000082410F0800F4FEA400018BF80F0070013
:100B6000013CC0B2F5D19D4228D013F8012FEEE729
:100B700009F056F809F8010B804602F08FF868B9C1
:100B8000013409F03DF80028BBD1032CBED002F09F
:100B900085F878B9013E7FF479AFC1E75FFA88F153
:100BA000002310227E480AF06FF901217D4809F0E8
:100BB000C5FEE5E77A480AF057F9EBE709F000F8D7
:100BC00002F06CF8002840F0C68102208DF80890F1
:100BD00008F0ECFA02F062F8002840F03E820DF1D5
:100BE0000C09002409F00CF8002844D0032C35D15E
:100BF00001E009F015F809F003F80028F9D102F036
:100C00004DF810B166480AF02FF9342201238DF80F
:100C100009208DF80A3003269DF8089049F0010854
:100C2000404608F0CDFF0DF10900022108F0D2FF87
:100C30008DF80880424602AB00205040082410F096
:100C4000800F4FEA400018BF80F00700013CC0B29F
:100C5000F5D19D4228D013F8012FEEE708F0E0FF10
:100C600009F8010B804602F019F868B9013408F060
:100C7000C7FF0028BAD1032CBDD002F00FF878B915
:100C8000013E7FF453AFC0E75FFA88F100231022E2
:100C900043480AF0F9F80121424809F04FFEE5E720
:100CA0003F480AF0E1F8EBE708F08AFF01F0F6FFB1
:100CB000002840F00F8102208DF8089008F076FAA5
:100CC00001F0ECFF002840F0D7810DF10C09002461
:100CD00008F096FF002800F08580032C73D101E016
:100CE00008F09EFF08F08CFF0028F9D101F0D6FF34
:100CF00010B12B480AF0B8F8012212238DF8092010
:100D00008DF80A304FF003089DF80840204608F09F
:100D100057FF02210DF1090008F05CFF8DF8084033
:100D200001F0BCFF30B309211F4809F007FE002382
:100D3000102221461A480AF0A7F80121194809F0A3
:100D4000FDFD002310229DF8091015480AF09CF8BB
:100D50000121144809F0F2FD002310229DF80A1029
:100D60000F480AF091F801210E4809F0E7FD0C4800
:100D70000AF07AF806208DF8084008F017FA01F01A
:100D80008DFF002840F0738103AD002608F038FF86
:100D9000002840D0162E30D10AE000BFEC1B010025
:100DA000D487FF1F08230100D81B010008F038FF7B
:100DB00008F026FF0028F9D101F070FF1626002860
:100DC0007DD1152035E008F02BFF09F8010B804696
:100DD00001F064FF00285BD1013408F011FF002806
:100DE0007FF47BAF032C3FF47DAF01F057FF002869
:100DF0006CD1013E7FF410AF7EE708F011FF05F8DB
:100E0000010B044601F04AFF00284DD1013608F0DD
:100E1000F7FE0028BED1162ECAD001F03FFF0028F1
:100E20004DD1B8F101087FF46FAF701E002840F378
:100E30002D82002303AA1C4612F8011B08254C40F2
:100E400014F0800F4FEA440418BF84F00704013DFA
:100E5000E4B2F5D101338342EEDB9DF8218089486D
:100E60004146224602F020F8162EC146A34602D182
:100E7000A04500F0138197F884108348CDF800B0A6
:100E80004B46324602F03EF8002011B0BDE8F08F2C
:100E90005FFA88F1002310227C4809F0F5FF012158
:100EA0007B4809F04BFD97E7E1B200231022774819
:100EB00009F0EAFF0121764809F040FDA6E77348F2
:100EC00009F0D2FF162EACD11520B2E76F4809F019
:100ED000CBFF8EE709216F4809F030FD2346102231
:100EE00041466A4809F0D0FF0121694809F026FD12
:100EF000234610229DF80910644809F0C5FF01211E
:100F0000634809F01BFD102223469DF80A105F4834
:100F100009F0BAFF01215E4809F010FD21460DF1EC
:100F20000B0002AA12F8014B6140C9B2082311F06C
:100F3000800F4FEA410118BF81F00701013BC9B2A0
:100F4000F5D19042EED11022504809F09DFF4F4854
:100F500009F08AFFAFE609214E4809F0EFFC23466D
:100F600010224146494809F08FFF0121484809F005
:100F7000E5FC234610229DF80910444809F084FF3F
:100F80000121434809F0DAFC102223469DF80A109B
:100F90003E4809F079FF01213D4809F0CFFC214688
:100FA0000DF10B0002AA12F8014B6140C9B20823EF
:100FB00011F0800F4FEA410118BF81F00701013B9A
:100FC000C9B2F5D19042EED11022304809F05CFF51
:100FD0002E4809F049FFF8E509212E4809F0AEFC3A
:100FE000234610224146294809F04EFF0121284896
:100FF00009F0A4FC234610229DF80910234809F0AB
:1010000043FF0121224809F099FC102223469DF854
:101010000A101E4809F038FF01211D4809F08EFC16
:1010200021460DF10B0002AA12F8014B6140C9B232
:10103000082311F0800F4FEA410118BF81F007012A
:10104000013BC9B2F5D19042EED110220F4809F010
:101050001BFF0E4809F008FF41E507210E4809F083
:101060006DFCBCE507210C4809F068FC41E507214F
:10107000094809F063FC87E60721074809F05EFC90
:1010800023E600BF201C01006C1C0100D487FF1F59
:1010900008230100D81B0100E41B01009DF80C305F
:1010A00097F88420B3EB420F7FF4EEAE9DF80D303D
:1010B000012B7FF4E9AE9DF80E30122B7FF4E4AEE5
:1010C0009DF810309DF80F0003EB00200CF02AFA79
:1010D0007A490CF07BFA796EF86404460CF032FC25
:1010E00000B17C66396E20460CF00EFC00B13C6607
:1010F0003D1FAB4607F1180807F130064FF006090F
:101100009AF806309AF8050003EB00200CF00AFA72
:101110006B490CF05BFA4BF8040FD8F8001004464A
:101120000CF0F2FB0AF1020A30B1B96E20460CF065
:10113000FFFB08B1C8F80040316820460CF002FC03
:1011400008F1040800B13460B9F1010906F10406A0
:10115000D6D10020B86407F1140455F8041F0CF030
:101160002DF9AC42F9D19DF81D209DF81E30B864D0
:1011700003EB022002300CF0D5F952490CF0DAFAF8
:10118000014651480CF0D6FA50490CF015F9504977
:101190000CF01CFA05460AF087FA044628460AF0C5
:1011A00083FA4C490AF0F2FA4B49054620460CF006
:1011B0000DFA4A490CF002F94949044628460CF058
:1011C00005FA014620460CF0F9F801464FF07E5032
:1011D0000CF0B0FA43490CF0EFF89DF81F209DF891
:1011E0002030386503EB022009300CF09BF93E49B2
:1011F0000CF0A0FA014634480CF09CFA33490CF08C
:10120000DBF833490CF0E2F905460AF04DFA0446E2
:1012100028460AF049FA2F490AF0B8FA2E4905463D
:1012200020460CF0D3F92D490CF0C8F82C4904469F
:1012300028460CF0CBF9014620460CF0BFF80146D9
:101240004FF07E500CF076FA26490CF0B5F83D6D63
:101250007865294604460CF075FBB96D30BB204615
:101260000CF052FB08B12346BB65294620460CF022
:1012700069FBA0B92946F86D0CF046FB08B12C4675
:10128000FC651A4801F010FE0120FEE59DF8219052
:10129000174849464246C34601F006FEEBE5F96DA4
:1012A00020460CF04FFB0028EAD1EAE728460CF074
:1012B0002BFB0028F3D02B46D6E700BF6B57053B2E
:1012C0002003C839001601470AD7E33FE17A64409A
:1012D00000007A4400004040A40D8F395A80473AFC
:1012E00046A6DB3333938843002C0147441C01009E
:1012F000201C0100052994BF50F8210000207047F0
:101300002DE9F0410B4E8046041F00F1140754F8FC
:10131000045F314628460CF0F7FA30B1D8F868106F
:1013200028460CF00FFB00B12E46BC42EFD13046F0
:10133000BDE8F08100002041F8B50026041F00F14F
:10134000140754F8045F314628460CF0FBFA00B14C
:101350002E46BC42F5D13046F8BD00BF2DE9F0471E
:10136000876E82464FF00009041F00F114064FF00B
:10137000000854F8045F394628460CF0E3FA0D499A
:1013800050B128460CF0C0FA30B1484629460CF05E
:1013900015F808F101088146B442EAD1CAF88880FC
:1013A00040460CF0BFF8014648460CF0C3F9BDE8D2
:1013B000F08700BF00007042D0F88800704700BF7F
:1013C00038B5456D046D294620460CF09DFA00B9EC
:1013D0002C46204638BD00BF38B5446D056D21460A
:1013E00028460CF091FA00B92C46204638BD00BFC3
:1013F00008B5D0F880301BB1133350F8230008BD76
:10140000416D006D0BF0DAFF4FF07C510CF0DEF80F
:1014100008BD00BF806C704701299ABF143150F895
:1014200021000020704700BF3E2998BF80F884103B
:10143000704700BF90F86C00704700BFC0F8801084
:10144000704700BF80F86C10704700BF816670471E
:1014500070B500F50A5506461C3500F128042046F3
:101460008C34FFF703F8AC42F9D106F1B40501243E
:1014700028460021FFF7E6FF214628460134FFF702
:10148000D3FF3F2C05F18C05F2D142F2A4240025B4
:101490000548064A064B3555002130617161B2613D
:1014A000F361304670BD00BF00007A44000048433D
:1014B0000000C8C238B500F50A551C3500F1B40467
:1014C00002E08C34AC420AD02046FFF7B3FF00287C
:1014D000F7D020468C34FEF7F1FFAC42F4D138BD92
:1014E0002DE9F04142F2A82300F50A5637460022C2
:1014F0008046C2501C36283700F1B40402E08C3418
:10150000B4420DD02046FFF795FF0028F7D02046C3
:101510003D68FFF751FF8C342844B4423860F1D164
:1015200042F2A82358F80300BDE8F0812DE9F04FFE
:1015300091B0012A00928146059100F0F68109F1EF
:10154000B40A4FF0010B5046FFF774FFC0B10025FD
:101550002C46012629465046D9F80870FFF7CAFEE6
:10156000014638460CF0D0F918B106FA05F31C43D1
:10157000E4B20135062DEDD1009B012B0AD0F4B960
:101580000BF1010BBBF13F0F0AF18C0ADBD111B05B
:10159000BDE8F08F5946B94809F0B6FC0321B848B8
:1015A00009F0CCF9214600230222B44809F06CFC72
:1015B0000321B44809F0C2F9002C00F0F7804FEA8B
:1015C0004B03DBB21946019343F001039DF814204D
:1015D00002931D46184633238DF81E208DF81D30CA
:1015E0008DF81C1008F0ECFA0DF11D00022108F036
:1015F000F1FA07AA04928DF81C502A4607AB0DF1A8
:101600001E0600205040082510F0800F4FEA4000D1
:1016100018BF80F00700013DC0B2F5D19E4202D054
:1016200013F8012FEEE708F0CBFA01F037FB0028A2
:1016300040F0E2809DF804308DF81C30022007F065
:10164000B5FD01F02BFB002840F06A8108AB039345
:101650001F46002508F0D4FA002844D01E2D35D1AD
:1016600001E008F0DDFA08F0CBFA0028F9D101F02A
:1016700015FB00283DD1009B012B40D08DF81E406A
:10168000029C9DF804208DF81C20322320468DF802
:101690001D3008F095FA0DF11D00022108F09AFAAC
:1016A0008DF81C4007AB224600205040082410F063
:1016B000800F4FEA400018BF80F00700013CC0B225
:1016C000F5D19E423BD013F8012FEEE708F0A8FABF
:1016D00007F8010B804601F0E1FA20BB013508F064
:1016E0008FFA0028BAD11E2DBDD001F0D7FA0028FC
:1016F000C1D0624809F0B8FB009B012BBED1039D0D
:1017000009AF15F8011B5D480023102209F0BCFB4E
:1017100001215D4809F012F9BD42F2D10321594877
:1017200009F00CF9AAE75FFA88F100231022534868
:1017300009F0AAFB0121554809F000F9CEE708F0AD
:101740003FFA01F0ABFA002840F0A4809DF8043085
:101750008DF81C30022007F029FD01F09FFA0028C7
:1017600040F0D980039D002408F04AFA78B31E2C7B
:1017700020D101E008F054FA08F042FA0028F9D12B
:1017800001F08CFA48BB009B012B7FF4F9AE039D5E
:1017900009AC15F8011B39480023102209F074FB2D
:1017A0000121394809F0CAF8A542F2D1334809F0BD
:1017B0005BFBE5E608F034FA05F8010B064601F09C
:1017C0006DFA70B9013408F01BFA0028CFD11E2C35
:1017D000D2D001F063FA0028D5D0284809F044FBA4
:1017E000D1E7F1B200231022244809F04DFB01217A
:1017F000264809F0A3F8E5E70921254809F09EF8F5
:101800002B46102202991D4809F03EFB01211F487A
:1018100009F094F82B4610229DF81D10174809F086
:1018200033FB0121194809F089F810222B469DF855
:101830001E10124809F028FB0121144809F07EF817
:1018400029460DF11F0007AA12F8013B5940C9B201
:10185000082311F0800F4FEA410118BF81F0070102
:10186000013BC9B2F5D19042EED11022034809F0F4
:101870000BFB024809F0F8FADCE600BFD487FF1F33
:10188000BC1C0100C01C0100C41C01000823010095
:10189000D81B01000921274809F050F823461022DF
:1018A0000299254809F0F0FA0121244809F046F888
:1018B000234610229DF81D101F4809F0E5FA01216A
:1018C0001E4809F03BF8102223469DF81E101A48C6
:1018D00009F0DAFA0121194809F030F80498214694
:1018E0000DF11F0210F8013B5940C9B2082311F055
:1018F000800F4FEA410118BF81F00701013BC9B2D7
:10190000F5D18242EED110220B4809F0BDFA0A4807
:1019100009F0AAFA1AE70721094809F00FF821E7A8
:101920000721074809F00AF890E6034809F09CFAF5
:1019300005E600BFD81B0100D487FF1F0823010064
:10194000E41B01002DE9F04F824685B04FF00009FD
:1019500001238DF800908DF801908DF802304FF042
:1019600003080024204608F02BF902210DF10100A4
:1019700008F030F98DF8004001F090F930B30921FA
:10198000B54808F0DBFF002310222146B34809F0D8
:101990007BFA0121B24808F0D1FF002310229DF804
:1019A0000110AE4809F070FA0121AD4808F0C6FFF9
:1019B000002310229DF80210A84809F065FA0121C1
:1019C000A74808F0BBFFA54809F04EFA02208DF8A1
:1019D000004007F0EBFB01F061F9002840F089803E
:1019E00001AF3E46002408F00BF9002867D0042C14
:1019F00058D101E008F014F908F002F90028F9D1F3
:101A000001F04CF910B1954809F02EFA9DF8043018
:101A1000802B40F01E819DF80530002B40F019818D
:101A20009DF80640012C40F014818E4801F03CFAEC
:101A30000AF1B406254604E001353F2D06F18C0677
:101A400086D03046FFF7F6FC83460028F4D13B22CF
:101A500065F07F0301208DF801208DF802308DF8AC
:101A600000B008F0ADF80DF10100022108F0B2F865
:101A700001228DF80020E84658466B460DF102021F
:101A80006040C0B2082410F0800F4FEA400018BF39
:101A900080F00700013CC0B2F5D193422ED013F87C
:101AA000014FEDE708F0BCF806F8010B054601F020
:101AB000F5F898B9013408F0A3F8002897D1042C60
:101AC0009AD001F0EBF810B1644809F0CDF9B8F103
:101AD000010800F0BE809DF8004043E7E9B2002312
:101AE00010225E4809F0D0F901215D4808F026FF78
:101AF000E0E707215C4808F021FF71E708F060F893
:101B000001F0CCF800285AD103208DF8009007F09E
:101B10004DFB01F0C3F8002840F09680002408F047
:101B20006FF8B0B30A2C27D101E008F079F808F07B
:101B300067F80028F9D101F0B1F800287FD19DF8AD
:101B40000430812B7FF404AF9DF805303B2B7FF4EC
:101B5000FFAE9DF806308035AB427FF4F9AE3046DB
:101B60000121FFF76FFC0AF50A5340481A6A013257
:101B70001A6201F099F9EBE608F052F807F8010B48
:101B8000804601F08BF870B9013408F039F800286C
:101B9000C8D10A2CCBD001F081F8002850D1022CFA
:101BA0007FF7D6AECBE75FFA88F1002310222B48EF
:101BB00009F06AF901212A4808F0C0FEE4E709218A
:101BC000254808F0BBFE234610220121234809F0D6
:101BD0005BF90121224808F0B1FE234610229DF84E
:101BE00001101E4809F050F901211D4808F0A6FE19
:101BF000102223469DF80210184809F045F90121EA
:101C0000174808F09BFE21460DF1030218F8014B1E
:101C10006140C9B2082311F0800F4FEA410118BF9B
:101C200081F00701013BC9B2F5D14245EED1102246
:101C30000A4809F029F9094809F016F964E70A2465
:101C4000064809F011F9AAE70721074808F076FECF
:101C500064E705B0BDE8F08FD81B0100D487FF1FF3
:101C600008230100C81C0100E41B0100D41C010072
:101C70002DE9F04742F2A02284B0002301278350CF
:101C800082468DF804308DF8053000F1B4088DF8E7
:101C900006704FEA47095FFA89F400214046FFF7D2
:101CA000D1FB20468DF8044007F08AFF02210DF198
:101CB000050007F08FFF8DF8044000F0EFFF30B310
:101CC0000921494808F03AFE0023102221464748DE
:101CD00009F0DAF80121464808F030FE002310220E
:101CE0009DF80510414809F0CFF80121404808F05F
:101CF00025FE002310229DF806103C4809F0C4F888
:101D000001213B4808F01AFE384809F0ADF81420CC
:101D10008DF8044007F04AFA00F0C0FF00285DD1BA
:101D200002AE002407F06CFF40B3082C19D101E08B
:101D300007F076FF07F064FF0028F9D100F0AEFF4E
:101D4000002846D19DF808304B4522D001370520A8
:101D500007F02CFA3F2F08F18C089AD104B0BDE8A7
:101D6000F08707F05DFF054606F8010B00F096FFCF
:101D700020BB013407F044FF0028D6D1082CD9D06D
:101D800000F08CFF30BB042CE0DD9DF808304B45A3
:101D9000DCD19DF80930002BD8D19DF80A1001291B
:101DA000D4D19DF80C30002BD0D04046FFF74AFB31
:101DB0000AF50A531A6A01321A62C7E7E9B2002328
:101DC00010220A4809F060F80121094808F0B6FD20
:101DD000CFE70824054809F047F8D4E7072105486C
:101DE00008F0ACFD9CE700BFD81B0100D487FF1FA3
:101DF00008230100E41B01002DE9F04700F50A5615
:101E0000354684B080461C36203500F1B4040027E6
:101E1000204600218C34FFF715FBB4422F60F7D128
:101E200002270DF106064FF07F093C22A5237E21F3
:101E30007F208DF805208DF806308DF8041001AD57
:101E400007F0BEFE0DF10500022107F0C3FE8DF87C
:101E500004902B467F2200205040082410F0800F71
:101E60004FEA400018BF80F00700013CC0B2F5D136
:101E7000B34202D013F8012FEEE707F0A1FE00F005
:101E80000DFF00285AD17E2364208DF8043007F01E
:101E90008DF900F003FF002840F090800DF1080A52
:101EA000002407F0ADFE20B3082C15D101E007F0A7
:101EB000B7FE07F0A5FE0028F9D100F0EFFEF0B95B
:101EC0009DF808307F2B21D0013FAED14046FFF76F
:101ED00039FD04B0BDE8F08707F0A2FE05460AF818
:101EE000010B00F0DBFEF0B9013407F089FE002899
:101EF000DAD1082CDDD000F0D1FE0028E0D0324845
:101F000008F0B2FF9DF808307F2BDDD19DF8093035
:101F10003C2BD9D19DF80A30A52BD5D19DF80B309B
:101F2000572BD1D1D2E7E9B200231022264808F07E
:101F3000ABFF0121254808F001FDD5E70921244820
:101F400008F0FCFC234610227F211F4808F09CFF6C
:101F500001211E4808F0F2FC234610229DF80510CE
:101F6000194808F091FF0121184808F0E7FC1022F9
:101F700023469DF80610144808F086FF01211348F7
:101F800008F0DCFC21460DF1070215F8014B614019
:101F9000C9B2082311F0800F4FEA410118BF81F048
:101FA0000701013BC9B2F5D1AA42EED11022064881
:101FB00008F06AFF044808F057FF64E70721054866
:101FC00008F0BCFC6AE700BFD487FF1F08230100AC
:101FD000D81B0100E41B01002DE9F04385B04FF050
:101FE0007F082022FF2381468DF804808DF805208C
:101FF0008DF8063003260DF1060548F00107384636
:1020000007F0DEFD0DF10500022107F0E3FD8DF87C
:1020100004703A4601AB00205040082410F0800FB5
:102020004FEA400018BF80F00700013CC0B2F5D174
:10203000AB4202D013F8012FEEE707F0C1FD00F02C
:102040002DFE002840F0768202208DF8048007F0F3
:10205000ADF800F023FE002840F0B2820DF1080830
:10206000002407F0CDFD002843D0042C34D101E03A
:1020700007F0D6FD07F0C4FD0028F9D100F00EFEF0
:1020800010B1C14808F0F0FE4FF07F0800238DF832
:1020900004808DF80630032648F00107384607F023
:1020A0008FFD0DF10500022107F094FD8DF80470FD
:1020B0003A4601AB00205040082410F0800F4FEA50
:1020C000400018BF80F00700013CC0B2F5D1AB4220
:1020D00028D013F8012FEEE707F0A2FD08F8010B56
:1020E000074600F0DBFD70B9013407F089FD0028D8
:1020F000BBD1042CBED000F0D1FD78B9013EC3D0D5
:102100009DF8048079E7F9B2002310229E4808F078
:10211000BBFE01219D4808F011FCE5E79A4808F054
:10212000A3FEEBE707F04CFD00F0B8FD002840F0FF
:10213000C08102208DF8048007F038F800F0AEFD71
:10214000002840F038820DF10808002407F058FDFF
:10215000002846D0042C37D101E007F061FD07F0DC
:102160004FFD0028F9D100F099FD10B1864808F024
:102170007BFE4FF07F082122FF238DF804808DF82D
:1021800005208DF80630032648F00107384607F091
:1021900017FD0DF10500022107F01CFD8DF80470FC
:1021A0003A4601AB00205040082410F0800F4FEA5F
:1021B000400018BF80F00700013CC0B2F5D19D423D
:1021C00028D013F8012FEEE707F02AFD08F8010BDD
:1021D000074600F063FD70B9013407F011FD0028D7
:1021E000B8D1042CBBD000F059FD78B9013EC0D065
:1021F0009DF8048050E7F9B200231022624808F0ED
:1022000043FE0121614808F099FBE5E75E4808F0CC
:102210002BFEEBE707F0D4FC00F040FD002840F077
:10222000078102208DF8048006F0C0FF00F036FD23
:10223000002840F0CF810DF10808002407F0E0FCF1
:10224000002843D0042C34D101E007F0E9FC07F06A
:10225000D7FC0028F9D100F021FD10B14A4808F060
:1022600003FE4FF07F0800238DF804808DF80630C0
:10227000032648F00107384607F0A2FC0DF10500DF
:10228000022107F0A7FC8DF804703A4601AB00204C
:102290005040082410F0800F4FEA400018BF80F033
:1022A0000700013CC0B2F5D19D4228D013F8012FA0
:1022B000EEE707F0B5FC08F8010B074600F0EEFC6E
:1022C00070B9013407F09CFC0028BBD1042CBED0AF
:1022D00000F0E4FC78B9013EC3D09DF8048053E7D8
:1022E000F9B200231022284808F0CEFD012127482A
:1022F00008F024FBE5E7244808F0B6FDEBE707F01B
:102300005FFC00F0CBFC002851D102208DF8048046
:1023100006F04CFF00F0C2FC002840F056810DF1A1
:102320000808002407F06CFC18B3042C14D101E059
:1023300007F076FC07F064FC0028F9D100F0AEFC51
:1023400010B1114808F090FD42F2A423002209F8D0
:10235000032005B0BDE8F08307F062FC08F8010B2C
:10236000074600F09BFC98B9013407F049FC0028AF
:10237000DBD1042CDED000F091FCA0B9013EE3D00B
:102380009DF8048075E700BFD487FF1F0823010074
:10239000F9B200231022924808F076FD01219148FD
:1023A00008F0CCFAE0E78E4808F05EFDE6E7092188
:1023B0008D4808F0C3FA234610223946884808F0B1
:1023C00063FD0121874808F0B9FA234610229DF8E1
:1023D0000510834808F058FD0121824808F0AEFA44
:1023E000102223469DF806107D4808F04DFD01217E
:1023F0007C4808F0A3FA21460DF1070001AA12F863
:10240000014B6140C9B2082311F0800F4FEA41012E
:1024100018BF81F00701013BC9B2F5D19042EED15E
:1024200010226F4808F030FD6D4808F01DFD6CE784
:1024300009216D4808F082FA23461022394668487F
:1024400008F022FD0121674808F078FA234610229F
:102450009DF80510624808F017FD0121614808F059
:102460006DFA102223469DF806105D4808F00CFD19
:1024700001215C4808F062FA21460DF1070001AA2B
:1024800012F8014B6140C9B2082311F0800F4FEAE6
:10249000410118BF81F00701013BC9B2F5D190425B
:1024A000EED110224E4808F0EFFC4D4808F0DCFC5D
:1024B000B7E609214C4808F041FA23461022394674
:1024C000474808F0E1FC0121464808F037FA234666
:1024D00010229DF80510424808F0D6FC0121414821
:1024E00008F02CFA102223469DF806103C4808F00C
:1024F000CBFC01213B4808F021FA21460DF10700F1
:1025000001AA12F8014B6140C9B2082311F0800FF3
:102510004FEA410118BF81F00701013BC9B2F5D173
:102520009042EED110222E4808F0AEFC2C4808F064
:102530009BFCFEE509212C4808F000FA23461022F6
:102540003946274808F0A0FC0121264808F0F6F992
:10255000234610229DF80510214808F095FC012122
:10256000204808F0EBF9102223469DF806101C487D
:1025700008F08AFC01211B4808F0E0F921460DF122
:10258000070001AA12F8014B6140C9B2082311F0FB
:10259000800F4FEA410118BF81F00701013BC9B22A
:1025A000F5D19042EED110220D4808F06DFC0C4898
:1025B00008F05AFC48E507210C4808F0BFF9C2E5CD
:1025C00007210A4808F0BAF948E50721074808F04A
:1025D000B5F9A4E60721054808F0B0F92BE600BFDD
:1025E000D487FF1F08230100D81B0100E41B010052
:1025F00038B500F50A551C3500F1B40402E08C34FE
:10260000AC420AD02046FEF715FF0028F7D020463E
:102610008C34FEF73FF9AC42F4D138BD2DE9F04FD0
:102620000546002345F8B43B00F50A5783B08246BF
:102630002C461C3702E08C34BC420AD02046FEF700
:10264000F9FE0028F7D020468C34FEF723F9BC426F
:10265000F4D1C82006F0AAFD2C46012604E001367C
:102660003F2E04F18C046ED02046FEF7E3FE0028D6
:10267000F5D0764800F018FC3146754800F014FC9F
:102680002046FEF7DBF92046FEF7C4FE0AF0F4FA16
:1026900002460B466F4800F007FC2046FEF730FE6E
:1026A00080462046FEF748FE834640460AF0E4FA9C
:1026B0008046584689460AF0DFFA42464B46CDE945
:1026C0000001654800F0F0FB00212046FEF7A4FE63
:1026D000012180462046FEF79FFE834640460AF0D1
:1026E000CBFA8046584689460AF0C6FA42464B461F
:1026F000CDE90001594800F0D7FB2046FEF78AFEDD
:102700000146DAF800000AF059FECAF80000204637
:10271000FEF756FEDAF818100BF0F6F800287BD119
:102720002046FEF759FEDAF81C100BF00BF90028D2
:1027300095D02046FEF750FE01363F2ECAF81C0009
:1027400004F18C0490D1DAF804000AF0EBFE0146A3
:10275000DAF800000AF0EEFFDAF81410CAF8000008
:1027600004460BF0EFF808B1CAF81440DAF810107C
:1027700020460BF0C9F808B1CAF810400B2006F04B
:10278000DFFC42F2A4231AF8033000284AD1002BC0
:1027900058D042F2A42301220AF803200023CAF8E9
:1027A0000C302C4602E08C34BC4215D02046FEF79B
:1027B00041FE0028F7D02046FEF7BEFDDAF80C10E7
:1027C0000BF0C0F80028EED02046FEF7B5FD8C34A3
:1027D000BC42CAF80C00E9D1214BCAF8083002E02B
:1027E0008C35BD4215D02846FEF724FE0028F7D0D0
:1027F0002846FEF785FDDAF808100BF085F800286A
:10280000EED02846FEF77CFD8C35BD42CAF80800A4
:10281000E9D103B0BDE8F08F2046FEF7D1FDCAF83C
:1028200018007DE72BB942F2A42300220AF8032006
:10283000B4E70C4800F050FB42F2A42300220AF84F
:102840000320ABE7084800F05DFBA2E7C81E0100CB
:10285000E81C0100241D0100381D0100641D010059
:102860000000A040B81D0100801D01008068704775
:10287000C06870470068704741607047F8B500F560
:102880000A550F4616461C3500F1B40402E08C349C
:10289000AC420FD02046FEF7CDFD0028F7D02046F1
:1028A0003946FEF7CBFD204631468C34FEF7CEFD8F
:1028B000AC42EFD1F8BD00BF2DE9F041274A284BCB
:1028C000026200F50A5507464FF0000843621C35C6
:1028D00000F1B404002602E08C34A54210D020465A
:1028E000FEF7A8FD0028F7D02046FEF781FD1D4920
:1028F0000BF028F880B98C34A54206F10106EED120
:1029000042F2A023F858801B0AF00CFE0146404614
:102910000AF010FFBDE8F0812046FEF769FD014690
:1029200040460AF04BFD80462046FEF761FD396ABD
:102930000BF008F860B92046FEF75AFD796A0AF0F4
:10294000E3FF0028C8D02046FEF752FD7862C3E7B7
:102950002046FEF74DFD3862EDE700BF0000C8C21B
:1029600000C0794400008CC2006A7047406A70471A
:10297000F8B500F50A55074600261C3500F1B404E9
:1029800002E08C34AC420FD02046FEF753FD002805
:10299000F7D02046FEF7E2FC014630460AF00EFD75
:1029A0008C34AC420646EFD142F2A023F8580AF02C
:1029B000B9FD014630460AF0BDFEF8BD2DE9F04FE5
:1029C00006468FB076488B4600F016FA744800F041
:1029D00013FA734800F010FA42F2A0233046F2587E
:1029E0000D92FEF77DFD73680C93074630680AF080
:1029F00043F9804630468946FFF7BAFF82463046A3
:102A0000B468F568FFF758FF0AF036F9CDE90A0116
:102A1000214628460AF0D0FC62490AF0D7FD0AF0A8
:102A20002BF9CDE9080128460AF026F9CDE906017F
:102A300020460AF021F9CDE9040150460AF01CF9BC
:102A40000D9A0C9BCDE90201CDE90089114656484B
:102A50003A4600F0D1F9524800F0CEF9B4360127D9
:102A60004FF0000A05E001373F2F06F18C0600F019
:102A70008E803046FEF7DEFC0028F4D03046FDF7AD
:102A8000F9FE3046FDF7FAFE3046FDF7FBFE304614
:102A9000FDF7FCFE0821454807F050FF3946444841
:102AA00008F032FA092F75DD0221424807F046FF8F
:102AB0003046FEF7AFFC0AF0DFF85FFA8BF902460A
:102AC0000B46CDF800903A4808F026FA01213A4822
:102AD00007F034FF5546002420E00621374807F070
:102AE0002DFF2946324808F00FFA0221344807F03A
:102AF00025FF21463046FEF7FDFB0AF0BDF8CDF874
:102B0000009002460B462A4808F006FA01340121DB
:102B1000294807F013FF062C09D04546092D05F179
:102B20000108DADC0121274807F008FFD5E7112169
:102B3000254807F003FF00213046FEF76DFC0AF040
:102B40009BF8022402460B460094194808F0E4F969
:102B500012211E4807F0F2FE01213046FEF75CFC10
:102B60000AF08AF8009402460B46114808F0D4F99E
:102B70000121174807F0E2FE01370D4808F074F90B
:102B80003F2F0AF1060A06F18C067FF472AF0FB0F0
:102B9000BDE8F08F01210B4807F0D0FE84E700BFAD
:102BA000C81E010000007A446020010000210100DD
:102BB000D487FF1FD02E01000C210100102101003D
:102BC000F822010008230100182101002C21010036
:102BD000402101002DE9F04100F1B40582B0012649
:102BE00004E001363F2E05F18C0549D02846FEF75A
:102BF00021FC0028F5D03146234808F085F9012151
:102C0000224807F09BFE00244FF002082146284688
:102C1000FEF770FB0AF030F8CDF8008002460B4654
:102C2000194808F079F901340121184807F086FEA7
:102C3000062C4FF00207E9D100212846FEF7ECFBF5
:102C40000AF01AF8009702460B460F4808F064F99C
:102C500001210E4807F072FE01212846FEF7DCFB39
:102C60000AF00AF8009702460B46074808F054F9A4
:102C70000136054808F0F8F83F2E05F18C05B5D16E
:102C800002B0BDE8F08100BFD487FF1F44210100DE
:102C9000014B1870704700BF2087FF1F024B187848
:102CA000B0FA80F0400970472087FF1F0278002AA1
:102CB00000F0908070B5034682B00D46252A2AD1D7
:102CC00058785C1C08B325282FD0732831D064288D
:102CD00024D0692822D066284FD07A2859D0782865
:102CE00035D058282FD062283ED0422838D06C28C2
:102CF00014D0632812D0742857D054285FD007F01E
:102D0000A1FE6278631C002AD8D1344802B0BDE825
:102D1000704008F0A9B818781C46F0E72B1D296808
:102D20002E481D4608F0F0F8EBE7104607F08AFE43
:102D3000E7E72E6830460BF063FC01463046043569
:102D400007F0FCFDDDE70221254807F0F7FD2E1D09
:102D50002968224800231022354608F095F8D0E76C
:102D60000221204807F0EAFD2E1D29681B48002398
:102D70000222354608F088F8C3E7073525F0070535
:102D80000321D5E9002315480091083508F0C4F85F
:102D9000B7E7073525F007050021D5E900230F48DF
:102DA0000091083508F0B8F8ABE7296801290EBF93
:102DB0000D480E480121043507F0C0FDA1E72B683E
:102DC000012B07BF04210A480A480521043507F0F2
:102DD000B5FD96E7014808F047B800BFD487FF1F4C
:102DE000482101004C210100502101005421010023
:102DF00058210100602101000FB400B583B004A97F
:102E000051F8040B0191FFF751FF03B05DF804EB9B
:102E100004B0704770B51B4B1B4C1B6882B00D464D
:102E20000193019B23601946044600231646174868
:102E30000A2208F029F80321154807F07FFD032C2A
:102E400007D8DFE804F01A1510020521114807F031
:102E500075FD0221104807F071FD31462846FFF745
:102E600025FF02B070BD07210C4807F067FDF0E7B1
:102E700004210B4807F062FDEBE70521094807F044
:102E80005DFDE6E748B9FF1F4C92FF1FD487FF1F87
:102E9000BC1C010080210100F82201007821010002
:102EA00070210100682101000FB400B5094B1878AA
:102EB00083B020B103B05DF804EB04B0704705ABFC
:102EC0001A4604990193FFF7A5FF03B05DF804EBE0
:102ED00004B070472087FF1F0FB4094B00B51B7863
:102EE000012B83B004D903B05DF804EB04B0704744
:102EF00005AB1A46049901930120FFF78BFFF2E717
:102F00002087FF1F0FB40B4B00B51B78032B83B03A
:102F100004D903B05DF804EB04B0704705AB1A4662
:102F2000049901930320FFF775FF03B05DF804EBEC
:102F300004B070472087FF1F30B4074D074C084985
:102F400000232B70236003654365836580F85C3044
:102F50000B6030BC704700BF5892FF1F5492FF1F98
:102F60005092FF1FF8B53C483C4C3D4D3D4EFFF79D
:102F700043FF3D4B3D493E483E4A5C6014271F706D
:102F80003D4F3E4CD960186100213D485D615E6255
:102F90003C4DDF624FF07C560C279A619C623A4AA6
:102FA0003A4C196358633A493A489D635E6440F667
:102FB0001C450A261F65384F9A64DC6402220124EE
:102FC0001962C3F8BC00002132209D66DE666425CC
:102FD0004FF49676DF61DF6341F204075A705A724C
:102FE0001C725C6583F84010C3F89C0018665E662E
:102FF000DE659D654FF05A0C1F674FF47A7E996726
:10300000DA67C3F88010C3F88800C3F8A400234F20
:10301000C3F8A010224EC3F8AC4041F28831FF241F
:10302000C3F8B020052040F2D662C3F8B450C3F80C
:1030300074C0C3F88CE0C3F89070C3F89460C3F810
:10304000A840A3F8BA00C3F88410A3F8B810A3F8F6
:103050009820A3F89A20F8BD8821010020A107003C
:1030600033338340CDCCCC3D4493FF1F666686400E
:1030700000004040CDCC4C40000020C10000824206
:10308000000020420000A0409A9979400AD7233DD1
:10309000333373409A99993ECDCC4C3E0000684240
:1030A00000C02044F0B54FF47A6085B006F07EF899
:1030B00000210F2006F052F800210E2006F04EF8F5
:1030C0000021112006F04AF80021102006F046F8F1
:1030D0000021122006F042F80021132006F03EF8ED
:1030E00001210B2006F03AF801210C2006F036F8F9
:1030F0000121142006F032F80121152006F02EF8E7
:103100000121162006F02AF80121172006F026F8E2
:103110000121052006F022F8854D864C012106206C
:1031200006F01CF801210D2006F018F828880AF096
:10313000F5F90146162005F07BFF28880AF0EEF924
:103140000146172005F074FF28880AF0E7F90146C8
:10315000052005F06DFF28880AF0E0F900250146FA
:10316000062005F065FF2B46734A744974480095A4
:1031700005F026F820684FF0FF32102104F0F8FA2D
:1031800020684FF0FF32102104F0CAFA20684FF097
:10319000FF32042104F0D8FA20684FF0FF320121F9
:1031A00004F0DCFA2A460F21206804F0EBFA0C2127
:1031B000644807F0C3FB644807F056FE10216348DB
:1031C00007F0BCFB604807F04FFE40F2836006F05A
:1031D000ABF85D4807F048FE17215D4807F0AEFBED
:1031E000594807F041FE5B4B1B789A0600F1D480EA
:1031F000584B1B781B0700F1DB80564B1B785F0791
:1032000000F1E280534B1B789E0700F1E980524B9E
:103210001B781D0600F1F0804F4B1B785C0600F117
:10322000F7804D4B1B78980600F1FE804A4B1B78C7
:10323000590700F10581484B1B781A0700F10C81F2
:10324000454B1B789B0700F113813F4807F00CFEAC
:1032500072B6424A4CF220534DF6281120241380B6
:1032600023461180013BFDD13D4D3E483E490023A0
:103270004FF480562E8003800B8032F80E3C9BB2B8
:1032800043F0D30322F80E3C62B69D2006F048FCC2
:1032900021463648364D07F051FB2B4807F0E4FD38
:1032A00005F1C4062F462C46601B05F05DFC04F8B2
:1032B000010BB442F8D13B78142B01D0FFF752FE3A
:1032C0002C482D4CFEF798FD0420FFF7E1FC2B4B1A
:1032D000284800221A60FEF7CBFC01210D2005F0E2
:1032E00029FF796D2348FFF7C7FA7A6C97F84010E9
:1032F0002048FFF7C3FA224B22491B68224A1D4887
:10330000126881FB0351DB17A3EB211313FB02F3BC
:103310002380FEF761FE1D4B1D491A680392039836
:103320001B680293029A1B4B08601A6005B0F0BD3F
:103330002887FF1FBC94FF1F3CB9FF1F20A1070077
:10334000A0B7FF1FA8210100D487FF1FB8210100EB
:10335000CC21010001F0074000F007400E2005409D
:10336000042005400620054016200540D02201001B
:103370004493FF1FF494FF1FC894FF1F7092FF1F18
:103380006087FF1F1F85EB515C87FF1F48B9FF1F38
:10339000F094FF1F1894FF1F2121394807F0CEFA3F
:1033A000384807F061FD384B1B781B077FF525AFC8
:1033B0000C21364807F0C2FA324807F055FD324B6F
:1033C0001B785F077FF51EAF0E21314807F0B6FA74
:1033D0002C4807F049FD2C4B1B789E077FF517AF53
:1033E00017212C4807F0AAFA264807F03DFD2A4B82
:1033F0001B781D067FF510AF0E21284807F09EFAB6
:10340000204807F031FD244B1B785C067FF509AF9F
:103410001221234807F092FA1A4807F025FD1E4BA7
:103420001B7898067FF502AF13211E4807F086FA35
:10343000144807F019FD184B1B7859077FF5FBAEB0
:103440001C21194807F07AFA0E4807F00DFD124BBF
:103450001B781A077FF5F4AE1921144807F06EFAAD
:10346000084807F001FD0C4B1B789B077FF5EDAE7C
:1034700018210F4807F062FA024807F0F5FCE4E66D
:10348000E4210100D487FF1F01F00740082201005A
:10349000182201002822010000F00740402201000C
:1034A00050220100642201007822010098220100CC
:1034B000B4220100F8B5464C464D4748E668002363
:1034C0002B70FFF7D5F9014630460AF01DFA08B116
:1034D00004232B704048FFF7C9F921690AF014FA58
:1034E00018B12B7843F010032B703B48FFF7E4F939
:1034F000A16A0AF027FA18B12B7843F040032B7029
:10350000002335486B70FFF7D7F9E16A314D0AF0B7
:10351000FBF908B101236B70304D2F4800232B704D
:10352000FFF7A6F9616A0646E06809F045FF014623
:1035300030460AF007FA08B104232B702648FFF73B
:1035400095F9616A0646206909F038FF0146304660
:103550000AF0DAF918B12B7843F010032B701E48EB
:10356000FFF7AAF9A16B0646A06A09F025FF0146FC
:1035700030460AF0E7F918B12B7843F040032B707E
:10358000002315486B70FFF797F9A16B134F0646A0
:10359000E06A09F013FF014630460AF0B5F908B1B8
:1035A00001237B7000230C48EB70FFF761F905469F
:1035B00009480A4EFFF75AF90146284609F0FCFE71
:1035C000E16B0AF0BFF908B10123F370F8BD00BF49
:1035D0004493FF1F4093FF1FF494FF1FB094FF1FFD
:1035E0002DE9F0417C4C2368012B82B031D0022BB5
:1035F00000F0A880032B00F0C8803BBB774B784AD3
:10360000D3F8A410D3F8A83012685B1A632B0EDD30
:10361000744803FB02F380FB0302DB17C3EB621366
:103620001944062002B0BDE8F04105F003BC6E4825
:1036300003FB022380FB0302DB17C3EB22121144BE
:10364000062002B0BDE8F04105F0F4BB02B0BDE8D1
:10365000F081664E33680A33B3F57A7F00F3B780A2
:103660001846336009F05EFF614909F0AFFF8046FC
:103670005A4DD5F8A40009F055FF0746D5F8A80023
:1036800009F050FF394609F097FE414609F09EFFC8
:1036900058490AF04FF8394609F090FE0AF072F9DD
:1036A0000146062005F0C6FB0221534807F046F903
:1036B000524807F0D9FB0621514807F03FF930681E
:1036C00009F030FF4A4909F081FF09F0D5FA0227D5
:1036D00002460B460097494807F01EFC0D21494859
:1036E00007F02CF9D5F8A40009F01CFF80463068DB
:1036F00009F018FF3E4909F069FF0646D5F8A80011
:1037000009F010FF414609F057FE0146304609F026
:103710005DFF38490AF00EF8414609F04FFE09F006
:10372000ABFA00970B460246344807F0F5FB3946E2
:10373000314807F003F9314807F096FB2368022B64
:103740007FF458AF294B254E00221A60D6F8A4000A
:1037500009F0E8FE0546D6F8A80009F0E3FE294680
:1037600009F02AFE002109F031FF224909F0E2FFA9
:10377000294609F023FE0AF005F90146062005F066
:1037800059FB2368032B7FF438AF184B134E4FF4CB
:103790007A721A60D6F8A40009F0C4FE0546D6F87D
:1037A000A80009F0BFFE294609F006FE114909F0FC
:1037B0000DFF104909F0BEFF294609F0FFFD0AF090
:1037C000E1F80146062005F035FB236815E70023E4
:1037D0004FF0000833604BE79C94FF1F4493FF1F9A
:1037E0003487FF1F1F85EB51CBF08D287492FF1F8C
:1037F000CDCCCC3D0000C842D02E0100D487FF1FA5
:10380000F4220100FC22010070B5A248A24C07F08E
:103810002BFBA04807F028FB9E4807F025FB0D2155
:103820009E4807F08BF8D4F8A030012B11D09C4CA7
:103830009848217800230A2207F026FB2378052BDD
:1038400067D8DFE813F0E900EE00F300F800FD00B0
:10385000E4000921934807F071F89348FFF706F850
:1038600021690AF051F818B10F21904807F066F865
:103870008D48FEF7FDFFE1680AF064F818B10E21EB
:103880008B4807F05BF88848FEF7F2FF054686484C
:10389000FEF7ECFF0146284609F08EFDE16B0AF0C9
:1038A00051F818B11121834807F048F87E48FFF716
:1038B00003F8A16A0AF046F818B10C217E4807F017
:1038C0003DF87948FEF7F8FFE16A0AF01DF818B1F3
:1038D0000D217A4807F032F8794B73481B68012BA9
:1038E00000F0C280FEF7C2FF21696B4D0AF02AF892
:1038F00078B16D48FEF7BCFFE9680AF005F840B101
:10390000674B1B78052B00F0C08008216D4807F03D
:1039100015F802216C4807F011F8122005F010FC90
:10392000012800F09C80112005F00AFC012800F01D
:103930009180664B1B68012B00F087800221624852
:1039400006F0FCFF624B5348196807F0DDFA514856
:1039500007F08AFA04215F4806F0F0FF0B2005F01B
:10396000EFFB002301460A224A4807F08DFA0C209B
:1039700005F0E6FB002301460A22464807F084FAD8
:10398000142005F0DDFB002301460A22414807F020
:103990007BFA152005F0D4FB002301460A223D489E
:1039A00007F072FA06214C4806F0C8FF4B4B394825
:1039B00019680222002307F067FA0421484806F03C
:1039C000BDFF112005F0BCFB002301460A2231484F
:1039D00007F05AFA102005F0B3FB002301460A2233
:1039E0002C4807F051FA122005F0AAFB00230146EB
:1039F0000A22284807F048FA132005F0A1FB00230B
:103A000001460A222348BDE8704007F03DBA07216D
:103A1000344806F093FF7CE70621334806F08EFF1A
:103A200077E70721314806F089FF72E70721304820
:103A300006F084FF6DE708212E4806F07FFF68E757
:103A40000B212D4806F07AFF63E711212B4806F081
:103A500075FF73E70A212A4806F070FF69E70E2117
:103A6000284806F06BFF5EE7FEF700FF216A09F0C9
:103A700069FF00283FF449AF1621234806F05EFF96
:103A80000A21224806F05AFF43E70A211F4806F0A0
:103A900055FF3EE7D487FF1F4493FF1F0C2301000F
:103AA000AC94FF1F1C230100F494FF1F2823010086
:103AB00038230100482301005C2301006C2301002E
:103AC0008092FF1FA0230100D02E0100C494FF1F8D
:103AD000A094FF1F142401001C2401000894FF1F60
:103AE00024240100DC230100AC230100B4230100E5
:103AF000C8230100D0230100BC23010000240100E1
:103B0000F4230100E42301007C230100942301003D
:103B10002DE9F04F934C944FE36F012B8DB000F0E3
:103B20004981032B50D0914E914DA36F9148012BA9
:103B300009BF2968296801F10041296004F006FFE6
:103B40003368002B40F0CE808A4804F0D5FEE36F46
:103B50003860012B064600F0D280874909F0F2FE5A
:103B600078B98649304609F0CFFE50B9844A854B72
:103B700012680B920B9A1A6000232B600DB0BDE8FF
:103B8000F08FDFF8FC817F4CD8F800300A930A9858
:103B900023687D4FC01A09F0C1FC314609F016FDBB
:103BA0007A4909F0C7FD794909F0C4FD396809F07F
:103BB00005FCD8F800300993099B23600023386086
:103BC0002B600DB0BDE8F08FDFF8C881704DD8F8DC
:103BD0000000664E012300220F212B6003F0D2FD6E
:103BE0002B68012B336800F00381002B40F0A68185
:103BF0000021D8F80000DFF8B891664D03F014FEFC
:103C000033681FFA80FBC9F800B0002B40F07B81BD
:103C10000021D8F80000564DDFF878A103F08AFDA6
:103C2000B4F89A3040F6E44101FB0BF1B1FBF0F03F
:103C3000C01A00B209F076FC57498346D4F89000C8
:103C400009F0C4FC0146584609F074FDD9F800306B
:103C50002860632BDFF858B100F3498100232B6003
:103C60003368002B3FF461AF02214C4806F066FE3A
:103C7000D9F80020D8F8000040F6E443002103FB07
:103C800002F803F057FDB8FBF0F009F047FC80465E
:103C9000B4F89A0009F046FC0146404609F08CFB56
:103CA00008F0EAFF4FF0020802460B46CDF800800C
:103CB0003B4807F031F94146384806F03FFE286896
:103CC00008F0DAFFCDF8008002460B46344807F0D2
:103CD00023F94146334806F031FE41462F4806F0AD
:103CE0002DFE22E7234804F007FE08F0C5FF022658
:103CF00002460B4600962A4807F00EF924E7244BAB
:103D00001B68012B00F02681022B7FF435AF26497A
:103D100009F018FE30B92549304609F0F5FD0028B4
:103D200000F04781DFF85880164CD8F80030079330
:103D300007982368144FC01A09F0F0FB314609F0C8
:103D400045FC124909F0F6FC104909F0F3FC39680A
:103D500009F034FBD8F800300693069B38602360E6
:103D60000AE700BF4493FF1F8C92FF1FE894FF1FD8
:103D70007C92FF1F1C93FF1F0000FA430000FAC350
:103D800048B9FF1F5C92FF1F9492FF1F00007A4406
:103D90005087FF1FBC94FF1F17B7D138D02E0100EA
:103DA000D487FF1F6824010000C82F4800A08CC6DC
:103DB0003C93FF1F3D689849284609F0A5FD30B1A6
:103DC0002846964909F0BEFD00287FF4FDAEDFF8D5
:103DD0005882934DD8F80000924E022300220E2103
:103DE0002B6003F0CFFC2B68012B33687FF4FDAE12
:103DF000002B40F000810021D8F80000DFF86C9221
:103E0000894D03F011FD33681FFA80FBC9F800B03B
:103E1000002B40F0D5800021D8F80000834D03F03E
:103E200089FCB4F8983040F6E44A0AFB0BFBBBFB74
:103E3000F0F0C01A00B209F075FB7D498346D4F852
:103E4000940009F0C3FB0146584609F073FCD9F809
:103E5000003028600021D8F800000AFB03FA03F0C4
:103E600069FCB4F89830BAFBF0F00FFA80FAC3EBB3
:103E70000A03002BB4F8BA20B8BF5B429342BCBF20
:103E800000232B603368002B3FF44FAE02216948BA
:103E900006F054FDD9F80020D8F8000040F6E443BD
:103EA000002103FB02F803F045FCB4F89810B8FBBE
:103EB000F0F000B2411A604807F026F802215D4890
:103EC00006F03CFD286808F0D7FE4FF002080246D5
:103ED0000B46CDF80080584807F01EF803215748DC
:103EE00006F02CFD4146534806F028FD1DE6DAF8A1
:103EF0000000002103F01EFCDBF80030643898421B
:103F0000FFF4ACAEACE60021286803F013FC40F6E9
:103F1000E44100230A2201FB0BF1B1FBF0F146481A
:103F200006F0B2FF0221434806F008FDB4F89A10EB
:103F3000414806F0E9FFD9F800B069E63E4806F0CE
:103F400093FF0C213E4806F0F9FC0C213D4806F099
:103F5000F5FC4DE63C4909F0F5FC58B93B493046C3
:103F600009F0D2FC30B93A4A3A4B12680592059AE8
:103F70001A6001E6DFF8D880364CD8F80030049398
:103F800004982368344FC01A09F0C8FA314609F082
:103F90001DFB324909F0CEFB304909F0CBFB3968F3
:103FA00009F00CFAD8F800300393039B38602360C3
:103FB000E2E5274A274B12680892089A1A60DBE567
:103FC0000021286803F0B6FB40F6E44100230A22F2
:103FD00001FB0BF1B1FBF0F1174806F055FF012191
:103FE0001F4806F0ABFCB4F89810134806F08CFF9D
:103FF000D9F800B00FE7104806F036FFE36F012B49
:104000004FF00B010CBF1748174806F097FC0C2126
:104010000C4806F093FCEEE600709446007094C6DF
:104020005087FF1FE894FF1FBC94FF1F7C92FF1F67
:1040300017B7D138D02E0100D487FF1F54240100B8
:1040400058240100442401000000FA430000FAC390
:1040500048B9FF1F5C92FF1F9492FF1F00007A4433
:10406000082301002C240100382401003C93FF1F89
:104070002DE9F043AB4D2B6883B0002B00F0878017
:10408000A94CAA4EE36FAA4FA74D012B00F0BF80A9
:10409000D4F88030DFF89082012B00F0ED80D8F862
:1040A0005850D7F80090D8F8548005FB08F54FF425
:1040B0007A7000FB05F009F035FA9E49DFF86C8252
:1040C0000546484609F082FA294609F033FB9A4929
:1040D00009F07CFA09F056FC632830604BDD284675
:1040E000944909F027FB6423C8F80030934B3860EB
:1040F0001B68002B48D0E36F8B4D012B00F0ED8047
:10410000032B00F0FD80022B00F0008102218C487F
:1041100006F014FC8B4B186808F0AEFD0224024632
:104120000B460094884806F0F7FE2146874806F0C3
:1041300005FC2146824806F001FC3168824806F001
:10414000E3FE0621824806F0F9FB3868794909F058
:104150003DFA08F091FD009402460B467A4806F0BD
:10416000DBFE03217B4806F0E9FB774803B0BDE89E
:10417000F04306F079BE0028BCBF0023C8F8003029
:104180006E4B1B68002BB6D103B0BDE8F0837248BC
:10419000654CFEF7EDFB7149A76EE66E09F016FA65
:1041A00009F016FC226F636FD21B9B1B80B29342F7
:1041B000A0EB0700C0F29D8003FB00F393FBF2F33A
:1041C00033445A4E5E483360022106F0B7FB316833
:1041D0005D48574F06F098FE0221594806F0AEFBA5
:1041E0003268A06D636D02FB00F003FB00F000EB92
:1041F0008000400009F096F94E4909F09BFA01232E
:104200002B60E36F3860012B474D7FF441AF52487C
:10421000FEF7AEFB5149D5F86890D5F86C8009F0EF
:10422000D5F909F0D5FB2A6F6B6FC9EB0202C8EB19
:10423000030380B29A42C9EB00006CDD03FB00006F
:10424000531C90FBF3F303EB0800A26D636D306029
:1042500002FB00F003FB00F000EB8000400009F0DF
:1042600061F93449DFF8C08009F064FAD4F880308D
:104270003860012B7FF413AF3748FEF779FB3749DD
:10428000D8F86890D8F86C5009F0A0F909F0A0FBB4
:10429000D8F87020D8F87430D4F85480C9EB0202F2
:1042A0005B1B80B29A42C9EB0000C6BF03FB000053
:1042B0000132584390FBF2F02844A56D00FB05F055
:1042C00008FB00F000EB8000400009F02BF91949D1
:1042D00009F030FA81463860E7E6214B1B68012B74
:1042E0004FF00A010CBF1F481F4806F027FBEB6F79
:1042F00006E703FB0000531C90FBF3F3334460E735
:1043000010211A4806F01AFBE36FFCE60721184853
:1043100006F014FBFAE603FB00F393FBF2F303EB66
:10432000080092E77892FF1F4493FF1F3487FF1F16
:104330009492FF1FE4388E3E0000C8423C87FF1F66
:10434000D02E01008C92FF1FD487FF1F682401002C
:10435000A0240100A8240100F494FF1F00007A4467
:104360005087FF1F6C240100782401008424010081
:104370009824010030B5112083B004F0E1FE01283B
:1043800018D0122004F0DCFE012813D000210B20ED
:1043900004F0D0FE00210C2004F0CCFE00211520FA
:1043A00004F0C8FE2649274B0120002208701A603D
:1043B00003B030BD0121152004F0BCFE224A234C7D
:1043C000234B1268D4F8841001921B68019A1D4D8A
:1043D0000B4493424FF00201296005D901210C20C2
:1043E00004F0A8FE03B030BDD4F88C0009F09AF8B0
:1043F000184B196809F088FA0028EFD101210B2029
:1044000004F098FE94F8C03003242C6043B10C4BA8
:1044100002221A7000210C2004F08CFE03B030BD83
:10442000122004F08DFE012808BF054B4FF011004B
:1044300008BF1C7004F084FE0128EBD1E7E700BF41
:10444000AC94FF1FE494FF1F48B9FF1F4493FF1F64
:10445000F094FF1F8C92FF1FF0B5684E684D3468D2
:104460002B689C4287B039D014F0010155D014F06C
:10447000020149D014F004013DD0E3070ED52B68AA
:10448000DF070BD45F4F3A68002A00F082805E4B52
:104490001B680193019B93426DD83468A0070DD52A
:1044A0002B6899070AD4594F3A68002A4CD0564BCA
:1044B0001B680393039B934238D8346862070DD579
:1044C0002B685B070BD4524F3A68002A7ED04E4BC4
:1044D0001B680593059B934268D834680CB107B0FC
:1044E000F0BD2146162004F0A5FC2146172004F05B
:1044F000A1FC07B0F0BD052004F09CFC2B683468DB
:1045000003F0FB032B60B8E7172004F093FC2B6843
:10451000346803F0FD032B60ACE7162004F08AFC3E
:104520002B68346803F0FE032B60A0E7394B17209B
:10453000D3F8881004F07EFC2B68346843F0020343
:1045400000222B603A60B9E7334806F08DFC0C215D
:10455000324806F0F3F9304806F086FCFF211720B8
:1045600004F068FC284B2E4A1968029102991268DF
:104570000A443A609CE7274B1620D3F8881004F0D1
:1045800059FC2B68346843F0010300222B603A6029
:1045900084E7FF21162004F04DFC1B4B204A1968CC
:1045A0000091009912680A443A6071E7194B05209E
:1045B000D3F8881004F03EFC2B68346843F0040301
:1045C00000222B603A60002C89D18AE7124806F05D
:1045D0004BFC0C21134806F0B1F90F4806F044FCDF
:1045E000FF21052004F026FC074B0D4A19680491B1
:1045F000049912680A443A606AE700BFE494FF1F16
:104600000894FF1F8094FF1F48B9FF1F8494FF1F69
:104610008894FF1F4493FF1FD487FF1FAC24010021
:104620007087FF1FBC2401002DE9F047544EDFF8CE
:104630007481DFF874913068524D00220F2103F02D
:10464000A1F80023012222214F48C8F80030C9F800
:10465000002006F073F9D8F80030132B22DC40F666
:10466000E44700213068B5F898A003F0DDF8002198
:104670000446306803F05EF8A4B2012107FB04F49D
:10468000B4FBF0F441485444A5F8984006F056F9BC
:10469000642004F08BFDD8F800300133132BC8F8E8
:1046A0000030DEDDB5F89830394A3A48A2FB0312F3
:1046B0009B1A02EB5303C3F30F131946A5F8983066
:1046C00006F022FC1D21344806F038F90221334857
:1046D00006F034F92F4806F0C7FB00231A460E21D6
:1046E0003068C8F8003003F04DF802232221264834
:1046F000C9F8003006F022F9D8F80030132B22DC7C
:1047000040F6E44700213068B5F89A9003F08CF841
:1047100000210446306803F00DF8A4B2012107FB24
:1047200004F4B4FBF0F419484C44A5F89A4006F0A0
:1047300005F9642004F03AFDD8F800300133132B5A
:10474000C8F80030DEDDB5F89A30114A1148A2FBF6
:1047500003129B1A02EB5303C3F30F131946A5F878
:104760009A3006F0D1FB1D210D4806F0E7F8022132
:104770000A4806F0E3F80748BDE8F04706F074BBC6
:10478000BC94FF1F4493FF1FCC240100102501009F
:1047900087611886D487FF1FF0240100D02E010006
:1047A00014250100A494FF1F5087FF1FF8B5874B05
:1047B000874C884F1B68386D40F2513108222160C8
:1047C000E271002B00F0FD8008F0ACFE396A05466E
:1047D00008F0FCFE804908F0F9FE09F0F9F880B213
:1047E000031263727D4A7E4B12681B68B96920729E
:1047F000A37228461B121512E3722273657308F028
:10480000E5FE754908F0E2FE09F0E2F883B21A12FB
:104810006F497448A373E27303F0CAFE724B734A84
:104820001B6812886A49A272DDB2257205EB850603
:1048300003EB8305760045F3D71540F2553E12127F
:104840001B1226736573082600256648C4F800E02D
:10485000E2726372E671A573E57303F0A9FE40F29C
:10486000563363482360E671FEF704F8614908F0A7
:10487000ADFE09F0ADF820725D48FDF7FBFF5D4924
:1048800008F0A4FE09F0A4F85B4A5A49C0F30723D4
:104890001068637208F04EFF09F074F840FA06F2EF
:1048A00003465348E272A372FEF706F84A4908F03D
:1048B0008DFE09F08DF820734D48FDF7FDFF464948
:1048C00008F084FE09F084F84149A573C0F307237A
:1048D00044486373E57303F06BFE022004F066FC4A
:1048E000464A474B11785078217291786072D2789D
:1048F0009878A172597893F800E0E2726173DA78DF
:10490000A07340F25A3332493648E67184F80CE01D
:10491000E273236003F04CFE3A4B2D491A78587825
:10492000227260729A78D878A272E0721A799879B5
:1049300093F805E02273A073DA792A4884F80DE031
:1049400040F25E33E2732360E67103F031FE022031
:1049500004F02CFC2C4B1E491A7858782272607295
:104960009A78D878A272E0721A79987993F805E06B
:104970002273A073DA791B4884F80DE04FF45C735E
:10498000E2732360E67103F013FE022004F00EFCD4
:10499000BA6DE67142FA06FE012340F25F37022645
:1049A000227399222572657284F80DE02760A67241
:1049B000E372E373A27306490A48BDE8F84003F0C6
:1049C000F7BD08F0AFFD7969054601E78092FF1F4A
:1049D000D494FF1F4493FF1F00002041B894FF1F91
:1049E0006492FF1FA0B7FF1F3487FF1F3887FF1F88
:1049F000F494FF1F0000C8428C92FF1F4093FF1FDA
:104A0000B094FF1F2C87FF1F5487FF1FF0B59C4CED
:104A10009C4D83B005F02CFF23682860042B00F028
:104A2000AC82022B4BD0082B00F09280072B40F079
:104A30005181332801F0F28300F3AD80312801F079
:104A40000084322840F0B08005F04EFF002840F38B
:104A50003F818D488D4E06F099FB08F063FD8C492F
:104A600008F0B4FD61230122F06322602B60184638
:104A7000A0F152031F2B01F2AF83DFE813F02E0BDE
:104A8000AD0BAD0BAD0BAD0BAD0BAD0BAD0BAD0B66
:104A9000AD0BAD0BAD0BAD0BAD0BAD0BB203CB0C3A
:104AA0003905A7057304AD0BAD0BAD0B2604AD0B9B
:104AB000CE0CAD0BAD0BAD0BAD0BAD0B300BA0F1B8
:104AC0003102422A70D8DFE812F0F006FC060A072D
:104AD00017072A0739076F006F006F006F006F001C
:104AE0006F006F006F006F006F006F006F006F004E
:104AF0006F006F006F006F006F006F006F006F003E
:104B00006F006F006F006F006F006F006F006F002D
:104B10006F006F006F006F006F006F006F006F001D
:104B20006F006F006F006F006F006F006F00DD0699
:104B30006F006F006F006F006F006F006F006F00FD
:104B40006F006F006F006F006F006B006F00E30677
:104B5000322800F02F83712822D0312824D105F08B
:104B6000C3FE002840F3CF854748484E06F00EFBB1
:104B7000C0B286F84000022894BF01460021726C42
:104B8000444888BF86F84010FDF778FE012369206D
:104B9000236028606CE7342801F02E83712803D14C
:104BA0000023732023602860002B08BF73280CBFEC
:104BB00001200020002860D0334806F055F9042178
:104BC000354805F0BBFE304806F04EF91021334859
:104BD00005F0B4FE2C4806F047F91321304805F0E3
:104BE000ADFE304B2848196806F08EF9264806F0CD
:104BF0003BF914212C4805F0A1FE234806F034F9B6
:104C00001E212A4805F09AFE1F4806F02DF91521AD
:104C1000274805F093FE1C4806F026F91E2125487A
:104C200005F08CFE184806F01FF92021224805F0F7
:104C300085FE154806F018F91921204805F07EFE7A
:104C4000114806F011F912211D4805F077FE0E48B3
:104C500006F00AF90F211B4805F070FE0A4806F01D
:104C600003F90D21184805F069FE074806F0FCF825
:104C7000164A002101231160236003B0F0BD00BF7C
:104C80009892FF1F8892FF1FD487FF1F4493FF1F36
:104C90006F12833AF494FF1F4C2D0100542D010034
:104CA000682D01002487FF1F7C2D0100942D010039
:104CB000B42D0100CC2D0100EC2D0100102E0100BF
:104CC0002C2E0100402E0100502E01003C87FF1FBA
:104CD00023682868062B40F08D80A0F13102402A1D
:104CE0003FF662AF01A151F822F000BF115700005A
:104CF0003D570000695700008F570000B55700006E
:104D0000D357000071580000A94B0000A94B0000C8
:104D1000A94B0000A94B0000A94B0000A94B0000C3
:104D2000A94B0000A94B0000A94B0000A94B0000B3
:104D3000A94B0000A94B0000A94B0000A94B0000A3
:104D4000A94B0000A94B0000A94B0000A94B000093
:104D5000A94B0000A94B0000A94B0000A94B000083
:104D6000A94B0000A94B0000A94B0000A94B000073
:104D7000A94B0000A94B0000A94B0000A94B000063
:104D8000A94B0000A94B0000A94B0000A94B000053
:104D9000A94B0000A94B0000A94B0000A94B000043
:104DA000A94B0000A94B0000A94B0000A94B000033
:104DB000A94B0000A94B0000A94B0000A94B000023
:104DC000A94B0000A94B0000A94B0000A94B000013
:104DD000A94B0000A94B0000A94B0000A94B000003
:104DE000A94B0000A94B0000A94B0000A14B0000FB
:104DF00023682868052B15D1332801F0498240F338
:104E00004781352801F06B82C1F2538271287FF40B
:104E1000CBAEDC4A00237320136023602860C3E616
:104E200023682868032B40F0A480A0F13002422AB6
:104E30003FF6BAAE01A151F822F000BF494F000081
:104E4000E55F0000935E0000BB5E0000DD5E0000D9
:104E5000FF5E00000D600000356000005360000040
:104E600077600000A94B0000A94B0000A94B00008F
:104E7000A94B0000A94B0000A94B0000A94B000062
:104E8000A94B0000A94B0000A94B0000A94B000052
:104E9000A94B0000A94B0000A94B0000A94B000042
:104EA000A94B0000A94B0000A94B0000A94B000032
:104EB000A94B0000A94B0000A94B0000A94B000022
:104EC000A94B0000A94B0000A94B0000A94B000012
:104ED000A94B0000A94B0000A94B0000A94B000002
:104EE000A94B0000A94B0000A94B0000A94B0000F2
:104EF000A94B0000A94B0000A94B0000A94B0000E2
:104F0000275F00003F5A00009F600000BD60000066
:104F1000875F0000A55F0000F5590000195A0000E6
:104F2000A94B0000A94B0000A94B0000A94B0000B1
:104F3000A94B0000A94B0000A94B0000A94B0000A1
:104F4000455F0000515F000005F0CEFC002841F3F2
:104F50004C818D488D4E06F019F901270346014614
:104F600062228B48736527602A60FDF785FC236801
:104F70002868012B7FF418AE7AE5A0F13102402AAF
:104F80003FF612AE01A151F822F000BF57590000C0
:104F90006F5900007359000099590000D959000059
:104FA0009D590000AF590000B3590000B7590000E7
:104FB000A94B0000A94B0000A94B0000A94B000021
:104FC000A94B0000A94B0000A94B0000A94B000011
:104FD000A94B0000A94B0000A94B0000A94B000001
:104FE000A94B0000A94B0000A94B0000A94B0000F1
:104FF000A94B0000A94B0000A94B0000A94B0000E1
:10500000A94B0000A94B0000A94B0000A94B0000D0
:10501000A94B0000A94B0000A94B0000A94B0000C0
:10502000A94B0000A94B0000A94B0000A94B0000B0
:10503000A94B0000A94B0000A94B0000A94B0000A0
:10504000A94B0000A94B0000A94B0000A94B000090
:10505000A94B0000A94B0000A94B0000A94B000080
:10506000A94B0000A94B0000A94B0000A94B000070
:10507000A94B0000A94B0000A94B0000A94B000060
:10508000A94B0000A94B0000A94B0000A14B000058
:10509000312801F0EC8032287FF486AD05F024FC45
:1050A00000287FF7BDAE3848384E06F06FF8012271
:1050B0006B23C6F88C0022602B6001E005F0D8FB62
:1050C00005F012FC0028F9D12F4805F0CDFE2E483E
:1050D00005F0CAFE2C4805F0C7FE2B4805F0C4FEBB
:1050E000294805F0C1FE21212A4805F027FC264861
:1050F00005F0BAFE1521284805F020FCD6F88410EA
:10510000214805F001FF0221244805F017FC1E4844
:1051100005F0AAFE1E21224805F010FCD6F88C10DE
:10512000194805F0F1FE03211E4805F007FC16485A
:1051300005F09AFE1E211C4805F000FCD6F88810E8
:10514000114805F0E1FE104805F08EFE1D211748BC
:1051500005F0F4FBD6F8A4100B4805F0D5FE0A487C
:1051600005F082FE1E21124805F0E8FBD6F8A810D3
:10517000054805F0C9FE044805F076FE05232360C6
:105180007BE500BF9C94FF1FD487FF1F4493FF1F44
:10519000F494FF1FC4270100E8270100D426010072
:1051A00000280100542401002028010040280100AB
:1051B0006028010005F098FB002840F3A082B24867
:1051C000B24E05F0E3FF08F0ADF9B14908F0FEF981
:1051D0000346024696F84010AE487364D4E405F0E6
:1051E00047FB05F081FB05460028F8D1A648A74EED
:1051F00005F03AFEA44805F037FEA34805F034FE5A
:10520000A14805F031FEA04805F02EFE1F21A2485E
:1052100005F094FB9C4805F027FE1C219F4805F0F3
:105220008DFB706A9E4908F0D1F907F025FD0095C5
:1052300002460B46944805F06FFE0221994805F09E
:105240007DFB914805F010FE2321974805F076FB81
:10525000F06B934908F0BAF907F00EFD009502468D
:105260000B46894805F058FE02218E4805F066FB82
:10527000854805F0F9FD19218C4805F05FFBB06BFE
:1052800007F0FAFC02250B46024600957E4805F021
:1052900043FE2946864805F051FB7B4805F0E4FDB6
:1052A0001921844805F04AFBB6F8B810764805F095
:1052B0002BFE0321804805F041FB734805F0D4FD27
:1052C00007232360D9E405F0D3FA05F00DFB05466A
:1052D0000028F8D16C486D4E05F0C6FD6A4805F00F
:1052E000C3FD694805F0C0FD674805F0BDFD66488F
:1052F00005F0BAFD1521714805F020FB624805F064
:10530000B3FD18216E4805F019FB2B460A2296F8CA
:1053100040105D4805F0B8FD5B4805F0A5FD28216B
:10532000684805F00BFB706C5D4908F04FF907F019
:10533000A3FC00950B460246534805F0EDFD022103
:10534000584805F0FBFA504805F08EFD13215E48E1
:1053500005F0F4FA4C4805F087FD082323608CE43F
:1053600005F086FA05F0C0FA05460028F8D146484F
:10537000464E05F079FD444805F076FD424805F0BB
:1053800073FD414805F070FD3F4805F06DFD1121AA
:105390004E4805F0D3FA3C4805F066FD28214C48FC
:1053A00005F0CCFA70693E4908F010F907F064FC8A
:1053B000009502460B46344805F0AEFD02213948FF
:1053C00005F0BCFA304805F04FFD1621414805F0C4
:1053D000B5FAF069324908F0F9F807F04DFC00958C
:1053E0000B460246284805F097FD02212D4805F09E
:1053F000A5FA254805F038FDD6F8B030002B32DD8F
:105400001D21354805F09AFAF06D08F08BF8334904
:1054100008F0DCF807F030FC022502460B46009548
:10542000194805F079FD01212D4805F087FA164845
:1054300005F01AFD1F212B4805F080FA306E08F0A8
:1054400071F8264908F0C2F807F016FC00950246EC
:105450000B460D4805F060FD0121214805F06EFA6C
:10546000094805F001FD11211F4805F067FAD6F83B
:10547000B030052B00F26086DFE813F095069A063F
:105480005A06A906A4069F06D487FF1F4493FF1F50
:105490006F12833AF494FF1F202701004027010078
:1054A00000007A44AC250100602701008427010038
:1054B000A0270100A4270100C0270100142E01002D
:1054C0006425010080250100B0250100B82D0100F0
:1054D000C4250100F025010008260100CDCCCC3DFB
:1054E000A42A0100282601004826010005F0C0F981
:1054F00005F0FAF90028F9D1BF48C04E05F0B4FC18
:10550000BD4805F0B1FCBC4805F0AEFCBA4805F05A
:10551000ABFCB94805F0A8FC1F21B94805F00EFA0C
:10552000B54805F0A1FC1E21B64805F007FAB248BF
:1055300005F09AFC1A21B44805F000FAF36F022B2B
:1055400000F03787032B00F02B87012B00F03A8700
:105550000921AE4805F0F2F9A74805F085FC1421B1
:10556000AB48A64F05F0EAF9B16FA34805F0CCFCB3
:10557000A14805F079FC1C21A64805F0DFF9D6F812
:1055800080109D4805F0C0FC9B4805F06DFC1C2177
:10559000A14805F0D3F9D6F8AC10974805F0B4FC53
:1055A000954805F061FCF56F25F00205012D00F02E
:1055B000B1861321994805F0C1F98F4805F054FCD4
:1055C00002232360FFF759BB05F052F905F08CF96F
:1055D0000028F9D1884805F047FC874805F044FCCD
:1055E000854805F041FC844805F03EFC824805F002
:1055F0003BFC13218A4805F0A1F97F4805F034FCF3
:105600000D21884805F09AF97B4805F02DFC0F2103
:10561000854805F093F9854B7748196805F074FCC7
:10562000754805F021FC1321814805F087F9814B6D
:105630007148196805F068FC6F4805F015FC1221E7
:105640007D4805F07BF97D4B6B48196805F05CFCE3
:10565000694805F009FC1121794805F06FF9794B8B
:105660006548196805F050FC634805F0FDFB0E2104
:10567000754805F063F9614B5F48D3F8A01005F059
:1056800043FC5D4805F0F0FB1921704805F056F920
:105690006F4B5948196805F037FC574805F0E4FB93
:1056A00011216C4805F04AF96B4B5348196805F015
:1056B0002BFC514805F0D8FB1021684805F03EF955
:1056C000674B4D48196805F01FFC4B4805F0CCFBB3
:1056D0001C21644805F032F9634B4748196805F00E
:1056E00013FC454805F0C0FB13214C4805F026F992
:1056F000414805F0B9FB04232360FFF7BEBA2368D5
:105700002868FFF793B93D4E96F84000FFF733BA8B
:1057100005F0EAF800287FF76BAB3748374E05F005
:1057200035FD07F0FFFE514908F004F8652301221A
:10573000706122602B601846FFF79AB905F0D4F823
:1057400000287FF755AB2C482C4E05F01FFD07F0C5
:10575000E9FE464907F0EEFF65230122F061226071
:105760002B601846FFF784B905F0BEF800287FF7D4
:105770003FAB2148214E05F009FD00EB80004300BE
:1057800001226520F36522602860FFF771B905F0FA
:10579000ABF800287FF72CAB1748184E05F0F6FC45
:1057A00000EB800043000122652033662260286000
:1057B000FFF75EB9114AD2F8B0300133052BC8BFEC
:1057C0000023C2F8B0300123652023602860FFF772
:1057D0004FB905F089F800287FF70AAB0648074E55
:1057E00005F0D4FC65230122C6F8B40022602B60CA
:1057F0001846FFF73DB900BFD487FF1F4493FF1F32
:105800006429010084290100A42901001C2A010047
:10581000282A0100402A0100602A0100B025010069
:105820008028010094280100A42801007C94FF1F17
:10583000B4280100E894FF1FC8280100CC94FF1F82
:10584000DC280100D094FF1FF0280100002901008E
:10585000A094FF1F1C2901009C94FF1F3029010008
:105860008492FF1F442901006487FF1F00007A44CF
:105870007A4B93F8C020002A00F03F85002283F87D
:10588000C020A0E7FEF7D0FE23682868FFF7CBB85A
:10589000724AD36F0133032BC8BF0023D3670123A0
:1058A000632023602860FFF7E3B86C4EB36FB3FA50
:1058B00083F35B0901226320B36722602860FFF74E
:1058C000D7B8664ED6F88030B3FA83F35B0901226D
:1058D0006320C6F8803022602860FFF7C9B8012332
:1058E000236005F001F80028D9DD5D485B4E05F026
:1058F0004DFCC6F8AC00D2E70123236004F0F4FFAE
:10590000002807DD5648554E05F040FC07F00AFE1A
:10591000C6F89400632028602368FFF787B8012346
:10592000236004F0E1FF0028F4DD4D484B4E05F004
:105930002DFC07F0F7FDC6F89000EBE7012323608C
:1059400004F0D2FF0028E5DD4548444E05F01EFC7A
:10595000A6F8BA00DEE7434A1368B3FA83F35B099B
:1059600001216420136021602860FFF781B83E4A5E
:10597000F2E73E4A3E4F1368002B0CBF0123002381
:105980004FF001001360206040F0F484034664226D
:105990002A606420FFF747B8364ADDE7012336481E
:1059A0002360FBF79DFD354A23681060EFE7344A1A
:1059B000D2E7344AD0E70123236004F095FF0028A2
:1059C00000F3A084304B1A68042AC4BF02221A6074
:1059D00064232B602368DCE7204ED6F8A030B3FAAE
:1059E00083F35B0901226420C6F8A030226028609E
:1059F000FFF73EB804F078FF00280DDD1848174E79
:105A000005F0C4FB07F08EFD204907F093FE01224C
:105A10006223306222602B6004F066FF00280EDDF6
:105A20000F480E4E05F0B2FB07F07CFD174907F05A
:105A300081FE01226223C6F8BC0022602B6004F0C4
:105A400053FF002840F3D1830548044E05F09EFB28
:105A500001226223B06622602B601BE04493FF1F8B
:105A6000D487FF1F7C94FF1FE894FF1FCC94FF1F77
:105A70009892FF1FD094FF1FF494FF1FA094FF1F64
:105A80009C94FF1F8492FF1F6487FF1F00007A44CD
:105A900004F0EEFE04F028FF05460028F8D1C248C5
:105AA00005F0E2F9C04805F0DFF9BF4805F0DCF980
:105AB000BD4805F0D9F9BC4805F0D6F91521BB4819
:105AC00004F03CFFB84805F0CFF91421B84804F0C1
:105AD00035FFB54805F0C8F91B21B64804F02EFF84
