:1000000000800020BD01000049850000018500003E
:1000100001850000018500000185000001850000C8
:100020000185000001850000018500004985000070
:1000300049850000018500007DA4000081A5000025
:100040004985000049850000498500004985000078
:100050004985000049850000498500004985000068
:100060004985000049850000498500004985000058
:100070004985000049850000498500004985000048
:100080004985000049850000498500004985000038
:100090004985000049850000498500004985000028
:1000A0004985000049850000498500004985000018
:1000B00049850000E5800000F1800000F580000027
:1000C00001810000058100000981000049850000D0
:1000D00049850000498500004985000049850000E8
:1000E00049850000498500004985000049850000D8
:1000F000498500008DAC000049850000E5910000B5
:1001000049850000FD9400004985000049850000F4
:1001100049850000498500004985000049850000A7
:100120004985000049850000498500004985000097
:100130004985000049850000498500004985000087
:100140004985000049850000498500004985000077
:100150004985000049850000498500004985000067
:100160004985000049970000498500004985000045
:100170004985000049850000498500004985000047
:100180004985000049850000498500004985000037
:100190004985000049850000498500004985000027
:1001A0004985000049850000498500004985000017
:1001B000498500004985000049850000564B4CF2F6
:1001C000205210B51A804DF628121A8000BF00BFC9
:1001D00008F0BEF9514B4FF010621A60504A9A6015
:1001E000504ADA60504A136813F4807304D14F49BF
:1001F0000B604FF4A85313604D4B1A78110703D5C9
:100200001A7842F008021A704A4B4B492A221A7097
:100210004A4A4B4B8B4204D252F8040F43F8040B6A
:10022000F8E7484B484900228B4202D243F8042B9E
:10023000FAE74649464A002352F8230041F82300D2
:1002400001336F2BF8D1434B434A802103F8011B44
:100250009342FBD1414B3D4A1A60414B8A221A70AE
:10026000A3F5805324225A70A0221A709A7992071B
:10027000FCD59A79D406FCD43A4A937903F00C035E
:10028000082B384BF9D103221A7140225A719A79FE
:100290009006FCD5334A9179324B4906FBD5324A58
:1002A000324911600221516020221A709A7902F0BD
:1002B0000C020C2AFAD12E4B2E4A1A602E4B2F4AD2
:1002C0001A6000225A60072243F8042C2C4AC3F813
:1002D0000C2D62B608F0F2FB144B1B68DA0705D54B
:1002E000284808F0CFF9284B284A1A60284B1B7879
:1002F0005B0609D5244C254B22689A4204D121483B
:1003000008F0C0F9002323600CF0C4FF08F026F9C0
:100310000AF07CFBFEE700BF0E2005403080044061
:10032000823F04000100002B10D0034014D0034092
:1003300002D0074000E007403092FF1FF42C01007C
:100340002087FF1F3092FF1F1CBBFF1F0082FF1F73
:100350000000000000E400E05FE400E008ED00E0E1
:100360000050064000400640448004400000030165
:1003700004800440C010050014E000E0FF76010096
:1003800000002020180C0D5C1CE00340A5C3945A0B
:1003900000F00740FFFFFFFFFFFFFFFFFFFFFFFF32
:1003A000FFFFFFFFFFFFFFFFFFFFFFFFFFFFFFFF5D
:1003B000FFFFFFFFFFFFFFFFFFFFFFFFFFFFFFFF4D
:1003C000FFFFFFFFFFFFFFFFFFFFFFFFFFFFFFFF3D
:1003D000FFFFFFFFFFFFFFFFFFFFFFFFFFFFFFFF2D
:1003E000FFFFFFFFFFFFFFFFFFFFFFFFFFFFFFFF1D
:1003F000FFFFFFFFFFFFFFFFFFFFFFFFFFFFFFFF0D
:10040000FFFFFFFFFFFFFFFFFFFFFFFFDEF9FFFF23
:1004100010B5054C237833B9044B13B10448AFF33E
:1004200000800123237010BD3092FF1F00000000E8
:10043000F02C0100084B10B51BB108490848AFF378
:1004400000800848036803B910BD074B002BFBD0A0
:10045000BDE81040184700BF000000003492FF1FA5
:10046000F02C01003092FF1F00000000F0B400F1FA
:1004700014060F4F00243146031F00F12C0243F8ED
:10048000044FB34241F8047F4FF0000542F8044F97
:10049000F5D1084B084985640022C56405650566E9
:1004A0004365C365816580F88020F0BC704700BF5C
:1004B0000000A040000048430000C8C200230360C1
:1004C00043608360C360036143618364C364036505
:1004D000436570472DE9F04190F8804084B00023D7
:1004E00064008DF80530E4B2012380468DF80440A5
:1004F0008DF806300327204608F09CFF02210DF1FD
:10050000050008F0A1FF8DF8044002F02FFB30B386
:100510000921C94809F04CFE002310222146C74892
:100520000AF0ECF80121C64809F042FE002310222F
:100530009DF80510C1480AF0E1F80121C04809F012
:1005400037FE002310229DF80610BC480AF0D6F8AA
:100550000121BB4809F02CFEB8480AF0BFF8022080
:100560008DF8044008F05CFA02F000FB002840F02F
:10057000778102AE002408F07DFF002800F026817C
:10058000042C40F0158101E008F084FF08F072FFB0
:100590000028F9D102F0EAFA10B1A8480AF09EF852
:1005A00098F880406400E4B2202204238DF80440CF
:1005B0008DF805208DF806300327204608F03AFF15
:1005C00002210DF1050008F03FFF8DF8044002F014
:1005D000CDFA30B30921984809F0EAFD0023102232
:1005E000214696480AF08AF80121954809F0E0FD75
:1005F000002310229DF8051090480AF07FF8012191
:100600008F4809F0D5FD002310229DF806108B4875
:100610000AF074F801218A4809F0CAFD87480AF0F7
:100620005DF802208DF8044008F0FAF902F09EFA15
:10063000002840F00B8102AE002408F01BFF0028C8
:1006400000F0A980072C40F0988001E008F022FF1C
:1006500008F010FF0028F9D102F088FA10B17748AD
:100660000AF03CF898F880409DF80B209DF80C307B
:100670009DF80D00C8F86C206400E4B29DF80E10DF
:10068000C8F87030332201238DF80440C8F8740094
:10069000C8F878108DF805208DF80630032720461D
:1006A00008F0C8FE02210DF1050008F0CDFE8DF81E
:1006B000044002F05BFA30B309215F4809F078FD8D
:1006C0000023102221465D480AF018F801215C48F9
:1006D00009F06EFD002310229DF8051057480AF01E
:1006E0000DF80121564809F063FD002310229DF802
:1006F000061052480AF002F80121514809F058FD4D
:100700004E4809F0EBFF02208DF8044008F088F90C
:1007100002F02CFA002840F09E8002AE002408F07F
:10072000A9FEF8B1042C0FD101E008F0B3FE08F0E7
:10073000A1FE0028F9D102F019FA10B13F4809F0E2
:10074000CDFF04B0BDE8F08108F0A4FE054606F830
:10075000010B02F00BFA00285AD1013408F08AFE8E
:100760000028DFD1042CE2D002F000FA00285ED18C
:10077000013FE6D09DF8044091E708F08BFE054666
:1007800006F8010B02F0F2F960BB013408F072FECA
:1007900000287FF457AF072C3FF45AAF02F0E6F978
:1007A00000284FD1013F3FF45DAF9DF8044004E7BE
:1007B00008F070FE054606F8010B02F0D7F9E0B923
:1007C000013408F057FE00287FF4DAAE042C3FF421
:1007D000DDAE02F0CBF930BB013F3FF4E1AE9DF856
:1007E000044088E6E9B200231022144809F086FF8D
:1007F0000121134809F0DCFCC7E7E9B2002310220D
:100800000E4809F07BFF01210D4809F0D1FCD7E724
:10081000E9B200231022094809F070FF01210848BD
:1008200009F0C6FC99E7054809F058FFD4E70348EA
:1008300009F054FF9CE700BF58140100D487FF1F44
:10084000701B0100094809F049FFABE70721084880
:1008500009F0AEFCEFE60721054809F0A9FC5CE7CA
:100860000721034809F0A4FC83E600BFD487FF1FDB
:100870006414010090F87000704700BF90F86C009D
:10088000704700BF90F87400704700BF90F8780080
:10089000704700BF2DE9F04390F8808085B04FEAA3
:1008A00048085FFA88F8322200238DF804808DF81A
:1008B00005208DF8063003250DF1060748F00109E3
:1008C000484608F0B7FD01AE0DF10500022108F021
:1008D000BBFD8DF804904A46334600205040082462
:1008E00010F0800F4FEA400018BF80F00700013C75
:1008F000C0B2F5D1BB4202D013F8012FEEE708F0E9
:1009000099FD02F033F900284AD102208DF80480C5
:1009100008F086F802F02AF9002840F081800DF1F5
:100920000808002408F0A6FD08B3042C12D101E049
:1009300008F0B0FD08F09EFD0028F9D102F016F98C
:1009400010B13A4809F0CAFE022008F069F805B073
:10095000BDE8F08308F09EFD08F8010B064602F0A2
:1009600005F970B9013408F085FD0028DDD1042CAB
:10097000E0D002F0FBF878B9013DE5D09DF80480A5
:100980009CE7F1B200231022284809F0B7FE0121AC
:10099000274809F00DFCE5E7244809F09FFEEBE746
:1009A0000921244809F004FC2346102249461F4827
:1009B00009F0A4FE01211E4809F0FAFB234610228B
:1009C0009DF80510194809F099FE0121184809F011
:1009D000EFFB102223469DF80610144809F08EFE06
:1009E0000121134809F0E4FB21460DF1070216F836
:1009F000014B6140C9B2082311F0800F4FEA410159
:100A000018BF81F00701013BC9B2F5D1B242EED166
:100A10001022064809F072FE044809F05FFE74E7F0
:100A20000721054809F0C4FB79E700BFD487FF1F01
:100A3000701B010058140100641401002DE9F04FEF
:100A4000074691B097F8803002205B008DF808309F
:100A500007F0E6FF97F8803038465B008DF80830E5
:100A6000FFF738FD786FBC6F3B6FFA6E97F8801018
:100A70008DE81100C94802F073F930223D238DF84A
:100A800009208DF80A3003260DF10A059DF808901B
:100A900049F00108404608F0CDFC0DF109000221A3
:100AA00008F0D2FC8DF80880424602AB002050408E
:100AB000082410F0800F4FEA400018BF80F00700B4
:100AC000013CC0B2F5D19D4202D013F8012FEEE7F0
:100AD00008F0B0FC02F04AF8002840F07D820220C5
:100AE0008DF8089007F09CFF02F040F8002840F0D5
:100AF000B9820DF10C0AD146002408F0BBFC002895
:100B000043D0032C34D101E008F0C4FC08F0B2FC5F
:100B10000028F9D102F02AF810B1A14809F0DEFD51
:100B2000312303268DF809308DF80A609DF808906E
:100B300049F00108404608F07DFC0DF10900022152
:100B400008F082FC8DF80880424602AB002050403D
:100B5000082410F0800F4FEA400018BF80F0070013
:100B6000013CC0B2F5D19D4228D013F8012FEEE729
:100B700008F090FC09F8010B804601F0F7FF68B916
:100B8000013408F077FC0028BBD1032CBED001F063
:100B9000EDFF78B9013E7FF479AFC1E75FFA88F1E4
:100BA000002310227E4809F0A9FD01217D4809F0AB
:100BB000FFFAE5E77A4809F091FDEBE708F03AFC27
:100BC00001F0D4FF002840F0C68102208DF8089083
:100BD00007F026FF01F0CAFF002840F03E820DF129
:100BE0000C09002408F046FC002844D0032C35D121
:100BF00001E008F04FFC08F03DFC0028F9D101F0BD
:100C0000B5FF10B1664809F069FD342201238DF863
:100C100009208DF80A3003269DF8089049F0010854
:100C2000404608F007FC0DF10900022108F00CFC19
:100C30008DF80880424602AB00205040082410F096
:100C4000800F4FEA400018BF80F00700013CC0B29F
:100C5000F5D19D4228D013F8012FEEE708F01AFCD9
:100C600009F8010B804601F081FF68B9013408F0F2
:100C700001FC0028BAD1032CBDD001F077FF78B970
:100C8000013E7FF453AFC0E75FFA88F100231022E2
:100C9000434809F033FD0121424809F089FAE5E7AC
:100CA0003F4809F01BFDEBE708F0C4FB01F05EFFD5
:100CB000002840F00F8102208DF8089007F0B0FE68
:100CC00001F054FF002840F0D7810DF10C090024F9
:100CD00008F0D0FB002800F08580032C73D101E0E0
:100CE00008F0D8FB08F0C6FB0028F9D101F03EFF60
:100CF00010B12B4809F0F2FC012212238DF80920D3
:100D00008DF80A304FF003089DF80840204608F09F
:100D100091FB02210DF1090008F096FB8DF80840C7
:100D200001F024FF30B309211F4809F041FA0023E4
:100D3000102221461A4809F0E1FC0121194809F066
:100D400037FA002310229DF80910154809F0D6FC47
:100D50000121144809F02CFA002310229DF80A10F2
:100D60000F4809F0CBFC01210E4809F021FA0C488C
:100D700009F0B4FC06208DF8084007F051FE01F0A0
:100D8000F5FE002840F0738103AD002608F072FBE9
:100D9000002840D0162E30D10AE000BF6C140100AC
:100DA000D487FF1F701B01005814010008F072FB6C
:100DB00008F060FB0028F9D101F0D8FE16260028C3
:100DC0007DD1152035E008F065FB09F8010B804660
:100DD00001F0CCFE00285BD1013408F04BFB002869
:100DE0007FF47BAF032C3FF47DAF01F0BFFE002802
:100DF0006CD1013E7FF410AF7EE708F04BFB05F8A5
:100E0000010B044601F0B2FE00284DD1013608F076
:100E100031FB0028BED1162ECAD001F0A7FE002853
:100E20004DD1B8F101087FF46FAF701E002840F378
:100E30002182002303AA1C4612F8011B08254C40FE
:100E400014F0800F4FEA440418BF84F00704013DFA
:100E5000E4B2F5D101338342EEDB9DF8218089486D
:100E60004146224601F07CFF162EC146A34602D120
:100E7000A04500F0138197F880108348CDF800B0AA
:100E80004B46324601F09AFF002011B0BDE8F08FCA
:100E90005FFA88F1002310227C4809F02FFC012121
:100EA0007B4809F085F997E7E1B2002310227748E3
:100EB00009F024FC0121764809F07AF9A6E7734885
:100EC00009F00CFC162EACD11520B2E76F4809F0E2
:100ED00005FC8EE709216F4809F06AF923461022C4
:100EE00041466A4809F00AFC0121694809F060F9A5
:100EF000234610229DF80910644809F0FFFB0121E8
:100F0000634809F055F9102223469DF80A105F48FE
:100F100009F0F4FB01215E4809F04AF921460DF180
:100F20000B0002AA12F8014B6140C9B2082311F06C
:100F3000800F4FEA410118BF81F00701013BC9B2A0
:100F4000F5D19042EED11022504809F0D7FB4F481E
:100F500009F0C4FBAFE609214E4809F029F9234600
:100F600010224146494809F0C9FB0121484809F0CF
:100F70001FF9234610229DF80910444809F0BEFBD2
:100F80000121434809F014F9102223469DF80A1064
:100F90003E4809F0B3FB01213D4809F009F921461B
:100FA0000DF10B0002AA12F8014B6140C9B20823EF
:100FB00011F0800F4FEA410118BF81F00701013B9A
:100FC000C9B2F5D19042EED11022304809F096FB1B
:100FD0002E4809F083FBF8E509212E4809F0E8F8CE
:100FE000234610224146294809F088FB0121284860
:100FF00009F0DEF8234610229DF80910234809F075
:101000007DFB0121224809F0D3F8102223469DF8E8
:101010000A101E4809F072FB01211D4809F0C8F8AA
:1010200021460DF10B0002AA12F8014B6140C9B232
:10103000082311F0800F4FEA410118BF81F007012A
:10104000013BC9B2F5D19042EED110220F4809F010
:1010500055FB0E4809F042FB41E507210E4809F017
:10106000A7F8BCE507210C4809F0A2F841E50721E3
:10107000094809F09DF887E60721074809F098F824
:1010800023E600BFA0140100EC140100D487FF1F69
:10109000701B010058140100641401009DF80C300D
:1010A00097F88020B3EB420F7FF4EEAE9DF80D3041
:1010B000012B7FF4E9AE9DF80E30122B7FF4E4AEE5
:1010C0009DF810309DF80F0003EB00200BF066FE3A
:1010D00074490BF0B7FE396EB86404460CF06EF834
:1010E00000B13C66F96D20460CF04AF800B1FC6591
:1010F000A7F1040907F1180607F130054FF00008C1
:101100009AF806309AF8050003EB00200BF046FE33
:1011100065490BF097FE49F8040F316804460CF05E
:101120002FF808F101080AF1020A28B1796E204669
:101130000CF03AF800B13460296820460CF03EF813
:10114000043600B12C60B8F1060F05F10405D7D1C3
:101150009DF81E309DF81D0003EB002002300BF0BF
:101160001DFE52490BF022FF014651480BF01EFFB5
:1011700050490BF05DFD50490BF064FE054609F047
:10118000CFFE0446284609F0CBFE4C4909F03AFF51
:101190004B49054620460BF055FE4A490BF04AFDE7
:1011A0004949044628460BF04DFE014620460BF007
:1011B00041FD01464FF07E500BF0F8FE43490BF025
:1011C00037FD9DF81F209DF82030F86403EB0220C6
:1011D00009300BF0E3FD3E490BF0E8FE01463448D0
:1011E0000BF0E4FE33490BF023FD33490BF02AFEEC
:1011F000054609F095FE0446284609F091FE2F4960
:1012000009F000FF2E49054620460BF01BFE2D4934
:101210000BF010FD2C49044628460BF013FE014646
:1012200020460BF007FD01464FF07E500BF0BEFE4E
:1012300026490BF0FDFCFD6C3865294604460BF091
:10124000BDFF796D30BB20460BF09AFF08B12346F5
:101250007B65294620460BF0B1FFA0B92946B86D41
:101260000BF08EFF08B12C46BC651A4801F078FDE2
:1012700001200AE69DF82190174849464246C34698
:1012800001F06EFDF7E5B96D20460BF097FF0028E1
:10129000EAD1EAE728460BF073FF0028F3D02B468B
:1012A000D6E700BF1357053B2003C8390016014796
:1012B0000AD7E33FE17A644000007A4400004040EE
:1012C000A40D8F395A80473A46A6DB3333938843BF
:1012D000002C0147C4140100A0140100052994BF8B
:1012E00050F82100002070472DE9F0410B4E804658
:1012F000041F00F1140754F8045F314628460BF030
:101300003FFF30B1D8F8641028460BF057FF00B10A
:101310002E46BC42EFD13046BDE8F08100002041AE
:10132000F8B50026041F00F1140754F8045F314695
:1013300028460BF043FF00B12E46BC42F5D13046A3
:10134000F8BD00BF2DE9F047476E82464FF0000917
:10135000041F00F114064FF0000854F8045F3946EA
:1013600028460BF02BFF0D4950B128460BF008FF23
:1013700030B1484629460BF05DFC08F10108814672
:10138000B442EAD1CAF8848040460BF007FD01461A
:1013900048460BF00BFEBDE8F08700BF000070422E
:1013A000D0F88400704700BF38B5056DC46C29467D
:1013B00020460BF0E5FE00B92C46204638BD00BFA4
:1013C00038B5046DC56C214628460BF0D9FE00B92E
:1013D0002C46204638BD00BF08B5C36F1BB100EBDB
:1013E0008300806C08BD016DC06C0BF023FC4FF0D6
:1013F0007C510BF027FD08BD806C704701299ABF16
:1014000000EB8101C86C0020704700BF3E2998BFE7
:1014100080F88010704700BF90F86800704700BFE8
:10142000C167704780F86810704700BF4166704719
:1014300070B500F506550646183500F12004204623
:101440008834FFF713F8AC42F9D106F1A80501245E
:1014500028460021FFF7E6FF214628460134FFF722
:10146000D5FF3F2C05F18805F2D142F2A0140025EA
:101470000548064A064B3555002130617161B2615D
:10148000F361304670BD00BF00007A44000048435D
:101490000000C8C238B500F50655183500F1A8049B
:1014A00002E08834AC420AD02046FFF7B5FF00289E
:1014B000F7D020468834FFF701F8AC42F4D138BDAC
:1014C0002DE9F04142F2A41300F5065637460022FA
:1014D0008046C2501836243700F1A80402E0883450
:1014E000B4420DD02046FFF797FF0028F7D02046E2
:1014F0003D68FFF755FF88342844B4423860F1D185
:1015000042F2A41358F80300BDE8F0812DE9F04F32
:1015100091B0012A00928146059100F0F68109F10F
:10152000A80A4FF0010B5046FFF776FFC0B1002527
:101530002C46012629465046D9F80870FFF7CEFE02
:10154000014638460BF01CFE18B106FA05F31C43A1
:10155000E4B20135062DEDD1009B012B0AD0F4B980
:101560000BF1010BBBF13F0F0AF1880ADBD111B07F
:10157000BDE8F08F5946B94809F000F90321B84891
:1015800008F016FE214600230222B44809F0B6F8FE
:101590000321B44808F00CFE002C00F0F7804FEA5D
:1015A0004B03DBB21946019343F001039DF814206D
:1015B00002931D46184633238DF81E208DF81D30EA
:1015C0008DF81C1007F036FF0DF11D00022107F009
:1015D0003BFF07AA04928DF81C502A4607AB0DF179
:1015E0001E0600205040082510F0800F4FEA4000F2
:1015F00018BF80F00700013DC0B2F5D19E4202D075
:1016000013F8012FEEE707F015FF01F0AFFA0028FD
:1016100040F0E2809DF804308DF81C30022007F085
:10162000FFF901F0A3FA002840F06A8108AB0393A8
:101630001F46002507F01EFF002844D01E2D35D17F
:1016400001E007F027FF07F015FF0028F9D101F0AE
:101650008DFA00283DD1009B012B40D08DF81E4013
:10166000029C9DF804208DF81C20322320468DF822
:101670001D3007F0DFFE0DF11D00022107F0E4FE32
:101680008DF81C4007AB224600205040082410F083
:10169000800F4FEA400018BF80F00700013CC0B245
:1016A000F5D19E423BD013F8012FEEE707F0F2FE92
:1016B00007F8010B804601F059FA20BB013507F00D
:1016C000D9FE0028BAD11E2DBDD001F04FFA002856
:1016D000C1D0624809F002F8009B012BBED1039DE6
:1016E00009AF15F8011B5D480023102209F006F828
:1016F00001215D4808F05CFDBD42F2D1032159484B
:1017000008F056FDAAE75FFA88F10023102253483B
:1017100008F0F4FF0121554808F04AFDCEE707F034
:1017200089FE01F023FA002840F0A4809DF80430DF
:101730008DF81C30022007F073F901F017FA002829
:1017400040F0D980039D002407F094FE78B31E2C4E
:1017500020D101E007F09EFE07F08CFE0028F9D1B1
:1017600001F004FA48BB009B012B7FF4F9AE039D06
:1017700009AC15F8011B39480023102208F0BEFF00
:101780000121394808F014FDA542F2D1334808F090
:10179000A5FFE5E607F07EFE05F8010B064601F021
:1017A000E5F970B9013407F065FE0028CFD11E2C91
:1017B000D2D001F0DBF90028D5D0284808F08EFF00
:1017C000D1E7F1B200231022244808F097FF01214D
:1017D000264808F0EDFCE5E70921254808F0E8FC7B
:1017E0002B46102202991D4808F088FF01211F484E
:1017F00008F0DEFC2B4610229DF81D10174808F05B
:101800007DFF0121194808F0D3FC10222B469DF8DA
:101810001E10124808F072FF0121144808F0C8FC9D
:1018200029460DF11F0007AA12F8013B5940C9B221
:10183000082311F0800F4FEA410118BF81F0070122
:10184000013BC9B2F5D19042EED11022034808F015
:1018500055FF024808F042FFDCE600BFD487FF1FB7
:101860003C1501004015010044150100701B0100EA
:10187000581401000921274808F09AFC2346102239
:101880000299254808F03AFF0121244808F090FC0D
:10189000234610229DF81D101F4808F02FFF01213C
:1018A0001E4808F085FC102223469DF81E101A4899
:1018B00008F024FF0121194808F07AFC0498214619
:1018C0000DF11F0210F8013B5940C9B2082311F075
:1018D000800F4FEA410118BF81F00701013BC9B2F7
:1018E000F5D18242EED110220B4808F007FF0A48DA
:1018F00008F0F4FE1AE70721094808F059FC21E72F
:101900000721074808F054FC90E6034808F0E6FE7B
:1019100005E600BF58140100D487FF1F701B0100AB
:10192000641401002DE9F04F824685B04FF00009A4
:1019300001238DF800908DF801908DF802304FF062
:1019400003080024204607F075FD02210DF1010077
:1019500007F07AFD8DF8004001F008F930B3092155
:10196000B54808F025FC002310222146B34808F0B2
:10197000C5FE0121B24808F01BFC002310229DF88F
:101980000110AE4808F0BAFE0121AD4808F010FC85
:10199000002310229DF80210A84808F0AFFE012194
:1019A000A74808F005FCA54808F098FE02208DF82D
:1019B000004007F035F801F0D9F8002840F08980A0
:1019C00001AF3E46002407F055FD002867D0042CE7
:1019D00058D101E007F05EFD07F04CFD0028F9D179
:1019E00001F0C4F810B1954808F078FE9DF8043075
:1019F000802B40F01E819DF80530002B40F01981AE
:101A00009DF80640012C40F014818E4801F0A8F9A1
:101A10000AF1A806254604E001353F2D06F18806A7
:101A200086D03046FFF7F8FC83460028F4D13B22ED
:101A300065F07F0301208DF801208DF802308DF8CC
:101A400000B007F0F7FC0DF10100022107F0FCFCEB
:101A500001228DF80020E84658466B460DF102023F
:101A60006040C0B2082410F0800F4FEA400018BF59
:101A700080F00700013CC0B2F5D193422ED013F89C
:101A8000014FEDE707F006FD06F8010B054601F0F2
:101A90006DF898B9013407F0EDFC002897D1042CBB
:101AA0009AD001F063F810B1644808F017FEB8F15D
:101AB000010800F0BE809DF8004043E7E9B2002332
:101AC00010225E4808F01AFE01215D4808F070FB04
:101AD000E0E707215C4808F06BFB71E707F0AAFC20
:101AE00001F044F800285AD103208DF8009006F048
:101AF00097FF01F03BF8002840F09680002407F0A3
:101B0000B9FCB0B30A2C27D101E007F0C3FC07F001
:101B1000B1FC0028F9D101F029F800287FD19DF807
:101B20000430812B7FF404AF9DF805303B2B7FF40C
:101B3000FFAE9DF806308035AB427FF4F9AE3046FB
:101B40000121FFF76FFC0AF506534048DA690132BC
:101B5000DA6101F005F9EBE607F09CFC07F8010BF0
:101B6000804601F003F870B9013407F083FC0028C7
:101B7000C8D10A2CCBD000F0F9FF002850D1022C9C
:101B80007FF7D6AECBE75FFA88F1002310222B480F
:101B900008F0B4FD01212A4808F00AFBE4E7092116
:101BA000254808F005FB234610220121234808F0B0
:101BB000A5FD0121224808F0FBFA234610229DF8DA
:101BC00001101E4808F09AFD01211D4808F0F0FAA6
:101BD000102223469DF80210184808F08FFD0121BD
:101BE000174808F0E5FA21460DF1030218F8014BF9
:101BF0006140C9B2082311F0800F4FEA410118BFBC
:101C000081F00701013BC9B2F5D14245EED1102266
:101C10000A4808F073FD094808F060FD64E70A24EB
:101C2000064808F05BFDAAE70721074808F0C0FA5C
:101C300064E705B0BDE8F08F58140100D487FF1F9A
:101C4000701B0100481501006414010054150100C7
:101C50002DE9F04742F29C1284B000230127835003
:101C600082468DF804308DF8053000F1A8088DF813
:101C700006704FEA47095FFA89F400214046FFF7F2
:101C8000D1FB20468DF8044007F0D4FB02210DF172
:101C9000050007F0D9FB8DF8044000F067FF30B372
:101CA0000921494808F084FA0023102221464748B8
:101CB00008F024FD0121464808F07AFA002310229A
:101CC0009DF80510414808F019FD0121404808F031
:101CD0006FFA002310229DF806103C4808F00EFD14
:101CE00001213B4808F064FA384808F0F7FC14205A
:101CF0008DF8044006F094FE00F038FF00285DD116
:101D000002AE002407F0B6FB40B3082C19D101E065
:101D100007F0C0FB07F0AEFB0028F9D100F026FF6A
:101D2000002846D19DF808304B4522D001370520C8
:101D300006F076FE3F2F08F188089AD104B0BDE87E
:101D4000F08707F0A7FB054606F8010B00F00EFF31
:101D500020BB013407F08EFB0028D6D1082CD9D047
:101D600000F004FF30BB042CE0DD9DF808304B454B
:101D7000DCD19DF80930002BD8D19DF80A1001293B
:101D8000D4D19DF80C30002BD0D04046FFF74AFB51
:101D90000AF50653DA690132DA61C7E7E9B20023CE
:101DA00010220A4808F0AAFC0121094808F000FAAC
:101DB000CFE70824054808F091FCD4E7072105483F
:101DC00008F0F6F99CE700BF58140100D487FF1F04
:101DD000701B0100641401002DE9F04700F5065660
:101DE000354684B0804618361C3500F1A80400271B
:101DF000204600218834FFF715FBB4422F60F7D14D
:101E000002270DF106064FF07F093C22A5237E2113
:101E10007F208DF805208DF806308DF8041001AD77
:101E200007F008FB0DF10500022107F00DFB8DF80E
:101E300004902B467F2200205040082410F0800F91
:101E40004FEA400018BF80F00700013CC0B2F5D156
:101E5000B34202D013F8012FEEE707F0EBFA00F0DF
:101E600085FE00285AD17E2364208DF8043006F0C8
:101E7000D7FD00F07BFE002840F090800DF1080AAD
:101E8000002407F0F7FA20B3082C15D101E007F081
:101E900001FB07F0EFFA0028F9D100F067FEF0B976
:101EA0009DF808307F2B21D0013FAED14046FFF78F
:101EB00039FD04B0BDE8F08707F0ECFA05460AF8F2
:101EC000010B00F053FEF0B9013407F0D3FA0028FB
:101ED000DAD1082CDDD000F049FE0028E0D03248ED
:101EE00008F0FCFB9DF808307F2BDDD19DF8093010
:101EF0003C2BD9D19DF80A30A52BD5D19DF80B30BC
:101F0000572BD1D1D2E7E9B200231022264808F09E
:101F1000F5FB0121254808F04BF9D5E709212448B4
:101F200008F046F9234610227F211F4808F0E6FBFF
:101F300001211E4808F03CF9234610229DF80510A7
:101F4000194808F0DBFB0121184808F031F910228C
:101F500023469DF80610144808F0D0FB01211348D1
:101F600008F026F921460DF1070215F8014B6140F2
:101F7000C9B2082311F0800F4FEA410118BF81F068
:101F80000701013BC9B2F5D1AA42EED110220648A1
:101F900008F0B4FB044808F0A1FB64E707210548FA
:101FA00008F006F96AE700BFD487FF1F701B010025
:101FB00058140100641401002DE9F04385B04FF07E
:101FC0007F082022FF2381468DF804808DF80520AC
:101FD0008DF8063003260DF1060548F00107384656
:101FE00007F028FA0DF10500022107F02DFA8DF80F
:101FF00004703A4601AB00205040082410F0800FD6
:102000004FEA400018BF80F00700013CC0B2F5D194
:10201000AB4202D013F8012FEEE707F00BFA00F005
:10202000A5FD002840F0768202208DF8048006F09D
:10203000F7FC00F09BFD002840F0B2820DF108088B
:10204000002407F017FA002843D0042C34D101E013
:1020500007F020FA07F00EFA0028F9D100F086FD0B
:1020600010B1C14808F03AFB4FF07F0800238DF80B
:1020700004808DF80630032648F00107384607F043
:10208000D9F90DF10500022107F0DEF98DF8047091
:102090003A4601AB00205040082410F0800F4FEA70
:1020A000400018BF80F00700013CC0B2F5D1AB4240
:1020B00028D013F8012FEEE707F0ECF908F8010B30
:1020C000074600F053FD70B9013407F0D3F900283A
:1020D000BBD1042CBED000F049FD78B9013EC3D07D
:1020E0009DF8048079E7F9B2002310229E4808F099
:1020F00005FB01219D4808F05BF8E5E79A4808F0E8
:10210000EDFAEBE707F096F900F030FD002840F01B
:10211000C08102208DF8048006F082FC00F026FDCC
:10212000002840F038820DF10808002407F0A2F9D9
:10213000002846D0042C37D101E007F0ABF907F0B6
:1021400099F90028F9D100F011FD10B1864808F086
:10215000C5FA4FF07F082122FF238DF804808DF807
:1021600005208DF80630032648F00107384607F0B1
:1021700061F90DF10500022107F066F98DF8047090
:102180003A4601AB00205040082410F0800F4FEA7F
:10219000400018BF80F00700013CC0B2F5D19D425D
:1021A00028D013F8012FEEE707F074F908F8010BB7
:1021B000074600F0DBFC70B9013407F05BF900283A
:1021C000B8D1042CBBD000F0D1FC78B9013EC0D00E
:1021D0009DF8048050E7F9B200231022624808F00D
:1021E0008DFA0121614807F0E3FFE5E75E4808F05A
:1021F00075FAEBE707F01EF900F0B8FC002840F094
:10220000078102208DF8048006F00AFC00F0AEFC85
:10221000002840F0CF810DF10808002407F02AF9CA
:10222000002843D0042C34D101E007F033F907F043
:1022300021F90028F9D100F099FC10B14A4808F0C2
:102240004DFA4FF07F0800238DF804808DF806309A
:10225000032648F00107384607F0ECF80DF10500B9
:10226000022107F0F1F88DF804703A4601AB002026
:102270005040082410F0800F4FEA400018BF80F053
:102280000700013CC0B2F5D19D4228D013F8012FC0
:10229000EEE707F0FFF808F8010B074600F066FCD0
:1022A00070B9013407F0E6F80028BBD1042CBED089
:1022B00000F05CFC78B9013EC3D09DF8048053E780
:1022C000F9B200231022284808F018FA0121274803
:1022D00007F06EFFE5E7244808F000FAEBE707F0A7
:1022E000A9F800F043FC002851D102208DF80480A9
:1022F00006F096FB00F03AFC002840F056810DF104
:102300000808002407F0B6F818B3042C14D101E033
:1023100007F0C0F807F0AEF80028F9D100F026FC6D
:1023200010B1114808F0DAF942F2A013002209F8BE
:10233000032005B0BDE8F08307F0ACF808F8010B06
:10234000074600F013FC98B9013407F093F8002811
:10235000DBD1042CDED000F009FCA0B9013EE3D0B3
:102360009DF8048075E700BFD487FF1F701B010034
:10237000F9B200231022924808F0C0F901219148D7
:1023800007F016FFE0E78E4808F0A8F9E6E7092114
:102390008D4807F00DFF234610223946884808F083
:1023A000ADF90121874807F003FF234610229DF86D
:1023B0000510834808F0A2F90121824807F0F8FED1
:1023C000102223469DF806107D4808F097F9012158
:1023D0007C4807F0EDFE21460DF1070001AA12F836
:1023E000014B6140C9B2082311F0800F4FEA41014F
:1023F00018BF81F00701013BC9B2F5D19042EED17F
:1024000010226F4808F07AF96D4808F067F96CE718
:1024100009216D4807F0CCFE234610223946684852
:1024200008F06CF90121674807F0C2FE234610222C
:102430009DF80510624808F061F90121614807F034
:10244000B7FE102223469DF806105D4808F056F9A5
:1024500001215C4807F0ACFE21460DF1070001AAFE
:1024600012F8014B6140C9B2082311F0800F4FEA06
:10247000410118BF81F00701013BC9B2F5D190427B
:10248000EED110224E4808F039F94D4808F026F9EF
:10249000B7E609214C4807F08BFE23461022394647
:1024A000474808F02BF90121464807F081FE2346F2
:1024B00010229DF80510424808F020F901214148FA
:1024C00007F076FE102223469DF806103C4808F0DF
:1024D00015F901213B4807F06BFE21460DF107007D
:1024E00001AA12F8014B6140C9B2082311F0800F14
:1024F0004FEA410118BF81F00701013BC9B2F5D194
:102500009042EED110222E4808F0F8F82C4808F03E
:10251000E5F8FEE509212C4807F04AFE2346102283
:102520003946274808F0EAF80121264807F040FE1E
:10253000234610229DF80510214808F0DFF80121FC
:10254000204807F035FE102223469DF806101C484F
:1025500008F0D4F801211B4807F02AFE21460DF1AE
:10256000070001AA12F8014B6140C9B2082311F01B
:10257000800F4FEA410118BF81F00701013BC9B24A
:10258000F5D19042EED110220D4808F0B7F80C4872
:1025900008F0A4F848E507210C4807F009FEC2E559
:1025A00007210A4807F004FE48E50721074807F01D
:1025B000FFFDA4E60721054807F0FAFD2BE600BF62
:1025C000D487FF1F701B0100581401006414010020
:1025D00038B500F50655183500F1A80402E0883436
:1025E000AC420AD02046FEF717FF0028F7D020465D
:1025F0008834FEF74FF9AC42F4D138BD2DE9F04FE5
:102600000546002345F8A83B00F5065783B08246EF
:102610002C46183702E08834BC420AD02046FEF728
:10262000FBFE0028F7D020468834FEF733F9BC4281
:10263000F4D1C82006F0F4F92C46012604E0013656
:102640003F2E04F188046ED02046FEF7E5FE0028F8
:10265000F5D0764800F084FB3146754800F080FBE9
:102660002046FEF7EBF92046FEF7C6FE09F040FFD4
:1026700002460B466F4800F073FB2046FEF734FE1F
:1026800080462046FEF74CFE8346404609F030FF68
:1026900080465846894609F02BFF42464B46CDE915
:1026A0000001654800F05CFB00212046FEF7A6FE15
:1026B000012180462046FEF7A1FE8346404609F0F0
:1026C00017FF80465846894609F012FF42464B469E
:1026D000CDE90001594800F043FB2046FEF78CFE8F
:1026E0000146DAF800000AF0A5FACAF80000204610
:1026F000FEF75AFEDAF818100AF042FD00287BD1E6
:102700002046FEF75DFEDAF81C100AF057FD00289F
:1027100095D02046FEF754FE01363F2ECAF81C0025
:1027200004F1880490D1DAF804000AF037FB01467E
:10273000DAF800000AF03AFCDAF81410CAF80000DF
:1027400004460AF03BFD08B1CAF81440DAF810104C
:1027500020460AF015FD08B1CAF810400B2006F01B
:1027600029F942F2A0131AF8033000284AD1002BAD
:1027700058D042F2A01301220AF803200023CAF81D
:102780000C302C4602E08834BC4215D02046FEF7BF
:1027900043FE0028F7D02046FEF7C2FDDAF80C1001
:1027A0000AF00CFD0028EED02046FEF7B9FD883473
:1027B000BC42CAF80C00E9D1214BCAF8083002E04B
:1027C0008835BD4215D02846FEF726FE0028F7D0F2
:1027D0002846FEF789FDDAF808100AF0D1FC002837
:1027E000EED02846FEF780FD8835BD42CAF80800C5
:1027F000E9D103B0BDE8F08F2046FEF7D5FDCAF859
:1028000018007DE72BB942F2A01300220AF803203A
:10281000B4E70C4800F0BCFA42F2A01300220AF818
:102820000320ABE7084800F0C9FAA2E74817010007
:1028300068150100A4150100B8150100E415010098
:102840000000A040381601000016010080687047A3
:10285000C06870470068704741607047F8B500F580
:1028600006550F461646183500F1A80402E08834D4
:10287000AC420FD02046FEF7CFFD0028F7D020460F
:102880003946FEF7CDFD204631468834FEF7CEFDB1
:10289000AC42EFD1F8BD00BF2DE9F04100F506557F
:1028A00080460027183500F1A804002602E088348D
:1028B000A54210D02046FEF7AFFD0028F7D02046F5
:1028C000FEF78AFD0F490AF079FC88B98834A542E1
:1028D00006F10106EED142F29C1358F80300801B6A
:1028E0000AF05CFA014638460AF060FBBDE8F08168
:1028F0002046FEF771FD014638460AF09BF907466F
:10290000D5E700BF00008CC2F8B500F506550746B4
:102910000026183500F1A80402E08834AC420FD03C
:102920002046FEF779FD0028F7D02046FEF70AFD85
:10293000014630460AF07EF98834AC420646EFD1B3
:1029400042F29C13F8580AF029FA014630460AF080
:102950002DFBF8BD2DE9F04F04468FB0744800F010
:10296000A7F9734800F0A4F9714800F0A1F942F208
:102970009C132046E2580D92FEF7A2FD0546206802
:10298000D4F804B009F0B4FDCDE90A012046FFF700
:10299000BBFF8246A06809F0ABFD8046E06889462F
:1029A00009F0A6FD064620460F46FFF775FF09F021
:1029B0009FFDCDE908015046CDE90489CDE90667C0
:1029C00009F096FDDDE90A23CDE900230D9ACDE952
:1029D00002015B46114657482A4600F069F95448FF
:1029E00000F066F9A8344FF001084FF0000A07E044
:1029F00008F10108B8F13F0F04F1880400F08F805E
:102A00002046FEF709FD0028F2D02046FDF732FFF0
:102A10002046FDF733FF2046FDF734FF2046FDF743
:102A200035FF0821444807F0C3FB4146434807F0FF
:102A3000A5FEB8F1090F75DD0221414807F0B8FB8A
:102A40002046FEF7D9FC09F053FD022502460B464D
:102A500000953A4807F09CFE01213A4807F0A8FB90
:102A6000564600251FE00621374807F0A1FB3146F6
:102A7000324807F083FE0221344807F099FB2946CB
:102A80002046FEF72BFC09F033FD009702460B466B
:102A90002A4807F07DFE013501212A4807F088FB0E
:102AA000062D0BD04E46092E4FF0020706F1010904
:102AB000D9DC0121264807F07BFBD4E7112125480A
:102AC00007F076FB00212046FEF798FC09F010FD88
:102AD000009702460B46194807F05AFE12211E487D
:102AE00007F066FB01212046FEF788FC09F000FD97
:102AF000009702460B46114807F04AFE012117488D
:102B000007F056FB08F101080C4807F0E7FDB8F1A3
:102B10003F0F0AF1060A04F188047FF471AF0FB089
:102B2000BDE8F08F01210A4807F042FB84E700BFAF
:102B300048170100E01801006C190100D487FF1F3D
:102B40003C260100781901007C190100601B01007E
:102B5000701B01008419010098190100AC190100D3
:102B6000014B1870704700BF2087FF1F024B187879
:102B7000B0FA80F0400970472087FF1F0278002AD2
:102B800000F0858070B5034682B00D4621E058788C
:102B90005C1C68B3252831D0732833D064281DD03D
:102BA00069281BD0662851D0782839D0582833D0CE
:102BB000622842D042283CD06C280FD063280DD028
:102BC00074284FD0542857D007F076FB6278631CE6
:102BD00072B1252ADBD018781C46F5E72B1D296831
:102BE0002C481D4607F0CAFD6278631C002AF0D10C
:102BF000284802B0BDE8704007F070BD104607F0ED
:102C00005BFBE3E72E6830460BF03AF901463046AD
:102C1000043507F0CDFAD9E702211F4807F0C8FABA
:102C20002E1D29681B4800231022354607F066FD3B
:102C3000CCE70221194807F0BBFA2E1D2968154878
:102C400000230222354607F059FDBFE7073525F07E
:102C500007050321D5E900230E480091083507F048
:102C600097FDB3E7296801290EBF0D480D480121E2
:102C7000043507F09DFAA9E72B68012B07BF042153
:102C800009480A480521043507F092FA9EE70148F1
:102C900007F024BDD487FF1FB0190100B41901004B
:102CA000B8190100BC190100C0190100C8190100C0
:102CB0000FB400B583B004A951F8040B0191FFF7DC
:102CC0005DFF03B05DF804EB04B0704770B51B4BBB
:102CD0001B4C1B6882B00D460193019B2360194673
:102CE00004460023164617480A2207F007FD032171
:102CF000154807F05DFA032C07D8DFE804F01A1531
:102D000010020521114807F053FA0221104807F07C
:102D10004FFA31462846FFF731FF02B070BD072158
:102D20000C4807F045FAF0E704210B4807F040FA99
:102D3000EBE70521094807F03BFAE6E724B8FF1F57
:102D40004C92FF1FD487FF1F3C150100E8190100BA
:102D5000601B0100E0190100D8190100D019010021
:102D60000FB400B5094B187883B020B103B05DF8FB
:102D700004EB04B0704705AB1A4604990193FFF7C2
:102D8000A5FF03B05DF804EB04B070472087FF1F78
:102D90000FB4094B00B51B78012B83B004D903B0E5
:102DA0005DF804EB04B0704705AB1A460499019333
:102DB0000120FFF78BFFF2E72087FF1F0FB40B4BBB
:102DC00000B51B78032B83B004D903B05DF804EB86
:102DD00004B0704705AB1A46049901930320FFF72E
:102DE00075FF03B05DF804EB04B070472087FF1F48
:102DF00030B4074D074C084900232B70236003654E
:102E00004365836580F85C300B6030BC704700BF61
:102E10005892FF1F5492FF1F5092FF1FF8B537487A
:102E2000374C384D384EFFF743FF384B3849394857
:102E3000394A5C6014271F70384F394CD9601861CB
:102E4000002138485D615E62374DDF624FF07C568D
:102E50000C279A619C62354A354C19635863354991
:102E60009D6340F61C400A255E641F6541F204061E
:102E7000314F9A64DC6402220124196298660021B1
:102E80003220DD661E6764254FF49676DF61DF63CE
:102E90005A275A705A7283F84010C3F89C0018667B
:102EA0005E66DE651C725C659D6541F2883E5F670B
:102EB000224E99674FF47A77DA67C3F88010C3F827
:102EC0008800C3F8A400C3F8A0101D48C3F8B020C0
:102ED000FF2140F2D662C3F8AC40C3F8B450C3F847
:102EE00084E0C3F88C70C3F89060C3F89400C3F812
:102EF000A810A3F89820A3F89A20F8BDF0190100B3
:102F000020A1070033338340CDCCCC3D3C93FF1F41
:102F10006666864000004040CDCC4C40000020C199
:102F200000008242000020420000A0409A997940AF
:102F30000AD7233D33337340CDCC4C3E000068426A
:102F400000C02044F0B54FF47A6085B005F068FD0C
:102F500000210F2005F03CFD00210E2005F038FD7A
:102F60000021112005F034FD0021102005F030FD76
:102F70000021122005F02CFD0021132005F028FD72
:102F800001210B2005F024FD01210C2005F020FD7E
:102F90000121142005F01CFD0121152005F018FD6C
:102FA0000121162005F014FD0121172005F010FD68
:102FB0000121052005F00CFD854D864C01210620E0
:102FC00005F006FD01210D2005F002FD288809F01D
:102FD000E1FE0146162005F065FC288809F0DAFEBE
:102FE0000146172005F05EFC288809F0D3FE014653
:102FF000052005F057FC288809F0CCFE0025014685
:10300000062005F04FFC2B46734A7449744800951E
:1030100004F010FD20684FF0FF32102103F0E2FFB2
:1030200020684FF0FF32102103F0B4FF20684FF00A
:10303000FF32042103F0C2FF20684FF0FF3201216C
:1030400003F0C6FF2A460F21206803F0D5FF0C21AC
:10305000644807F0ADF8644807F040FB102163486E
:1030600007F0A6F8604807F039FB44F6206005F049
:1030700095FD5D4807F032FB17215D4807F098F891
:10308000594807F02BFB5B4B1B789A0600F1D48064
:10309000584B1B781B0700F1DB80564B1B785F07F2
:1030A00000F1E280534B1B789E0700F1E980524B00
:1030B0001B781D0600F1F0804F4B1B785C0600F179
:1030C000F7804D4B1B78980600F1FE804A4B1B7829
:1030D000590700F10581484B1B781A0700F10C8154
:1030E000454B1B789B0700F113813F4807F0F6FA28
:1030F00072B6424A4CF220534DF628112024138018
:1031000023461180013BFDD13D4D3E483E49002301
:103110004FF480562E8003800B8032F80E3C9BB219
:1031200043F0D30322F80E3C62B69D2006F032F93C
:1031300021463648364D07F03BF82B4807F0CEFACB
:1031400005F1B8062F462C46601B05F047F904F838
:10315000010BB442F8D13B78142B01D0FFF75EFE8F
:103160002C482D4CFEF738FE0420FFF7F9FC2B4BC2
:10317000284800221A60FEF76BFD01210D2005F0A2
:1031800013FC796D2348FFF767FB7A6C97F84010C2
:103190002048FFF763FB224B22491B68224A1D4847
:1031A000126881FB0351DB17A3EB211313FB02F31E
:1031B0002380FEF701FF1D4B1D491A6803920398F7
:1031C0001B680293029A1B4B08601A6005B0F0BDA1
:1031D0002887FF1F9C94FF1F18B8FF1F20A107001E
:1031E0007CB6FF1F101A0100D487FF1F201A0100B0
:1031F000341A010001F0074000F007400E2005409E
:10320000042005400620054016200540381B01001B
:103210003C93FF1FD494FF1FA894FF1F6C92FF1FC5
:103220006087FF1F1F85EB515C87FF1F24B8FF1FBE
:10323000D094FF1FFC93FF1F2121394806F0B8FFEF
:10324000384807F04BFA384B1B781B077FF525AF42
:103250000C21364806F0ACFF324807F03FFA324BFB
:103260001B785F077FF51EAF0E21314806F0A0FFE7
:103270002C4807F033FA2C4B1B789E077FF517AFCD
:1032800017212C4806F094FF264807F027FA2A4B0E
:103290001B781D067FF510AF0E21284806F088FF29
:1032A000204807F01BFA244B1B785C067FF509AF1A
:1032B0001221234806F07CFF1A4807F00FFA1E4B34
:1032C0001B7898067FF502AF13211E4806F070FFA9
:1032D000144807F003FA184B1B7859077FF5FBAE2B
:1032E0001C21194806F064FF0E4807F0F7F9124B4D
:1032F0001B781A077FF5F4AE1921144806F058FF21
:10330000084807F0EBF90C4B1B789B077FF5EDAEF7
:1033100018210F4806F04CFF024807F0DFF9E4E6F9
:103320004C1A0100D487FF1F01F00740701A0100FA
:10333000801A0100901A010000F00740A81A01004D
:10334000B81A0100CC1A0100E01A0100001B0100AC
:103350001C1B0100F8B5464C464D4748E668002363
:103360002B70FFF775FA0146304609F009FF08B1E6
:1033700004232B704048FFF769FA216909F000FF28
:1033800018B12B7843F010032B703B48FFF784FAF9
:10339000A16A09F013FF18B12B7843F040032B709A
:1033A000002335486B70FFF777FAE16A314D09F079
:1033B000E7FE08B101236B70304D2F4800232B70BE
:1033C000FFF746FA616A0646E06809F031FC0146FB
:1033D000304609F0F3FE08B104232B702648FFF7AE
:1033E00035FA616A0646206909F024FC0146304638
:1033F00009F0C6FE18B12B7843F010032B701E485D
:10340000FFF74AFAA16B0646A06A09F011FC0146D3
:10341000304609F0D3FE18B12B7843F040032B70EF
:10342000002315486B70FFF737FAA16B134F064660
:10343000E06A09F0FFFB0146304609F0A1FE08B141
:1034400001237B7000230C48EB70FFF701FA05465F
:1034500009480A4EFFF7FAF90146284609F0E8FB49
:10346000E16B09F0ABFE08B10123F370F8BD00BFBA
:103470003C93FF1F3893FF1FD494FF1F9094FF1FAE
:10348000514B1B68002B74D0F0B5504D2B680533A1
:10349000B3F57A7F83B040F38E80002300272B6042
:1034A0004B4CD4F8A40009F079FC0646D4F8A800E7
:1034B00009F074FC314609F0BBFB394609F0C2FC47
:1034C000444909F073FD314609F0B4FB09F096FE5A
:1034D0000146062005F0E8F802213F4806F068FEA4
:1034E0003E4807F0FBF806213D4806F061FE2868DB
:1034F00009F054FC3B4909F0A5FC08F0F9FF02264D
:1035000002460B460096354807F042F90D21364831
:1035100006F04EFED4F8A40009F040FC07462868E7
:1035200009F03CFC2F4909F08DFC0546D4F8A800B1
:1035300009F034FC394609F07BFB0146284609F0C6
:1035400081FC244909F032FD394609F073FB08F08B
:10355000CFFF009602460B46204807F019F9314686
:103560001D4806F025FE1D4803B0BDE8F04007F0F9
:10357000B5B8174B1D4AD3F8A410D3F8A830126879
:103580005B1A632B0BDD1A4803FB02F380FB03027B
:10359000DB17C3EB62131944062005F085B8154804
:1035A00003FB022380FB0302DB17C3EB221211444F
:1035B000062005F079B818462B6009F0EFFB0949A1
:1035C00009F040FC07466BE78094FF1F7092FF1FD5
:1035D0003C93FF1F0000C8423C260100D487FF1F18
:1035E0005C1B0100CDCCCC3D641B01003487FF1F68
:1035F0001F85EB51CBF08D2870B5A248A24C07F087
:103600006DF8A04807F06AF89E4807F067F80D21AA
:103610009E4806F0CDFDD4F8A030012B11D09C4C73
:103620009848217800230A2207F068F82378052BB0
:1036300067D8DFE813F0E900EE00F300F800FD00C2
:10364000E4000921934806F0B3FD9348FFF7FEF824
:10365000216909F095FD18B10F21904806F0A8FDE9
:103660008D48FFF7F5F8E16809F0A8FD18B10E21C3
:103670008B4806F09DFD8848FFF7EAF80546864826
:10368000FFF7E4F80146284609F0D2FAE16B09F0A9
:1036900095FD18B11121834806F08AFD7E48FFF799
:1036A000FBF8A16A09F08AFD18B10C217E4806F0EA
:1036B0007FFD7948FFF7F0F8E16A09F061FD18B184
:1036C0000D217A4806F074FD794B73481B68012B75
:1036D00000F0C280FFF7BAF821696B4D09F06EFD6A
:1036E00078B16D48FFF7B4F8E96809F049FD40B1D9
:1036F000674B1B78052B00F0C08008216D4806F051
:1037000057FD02216C4806F053FD122005F052F9D6
:10371000012800F09C80112005F04CF9012800F0F0
:103720009180664B1B68012B00F087800221624864
:1037300006F03EFD624B5348196807F01FF85148E8
:1037400006F0CCFF04215F4806F032FD0B2005F0A7
:1037500031F9002301460A224A4806F0CFFF0C2027
:1037600005F028F9002301460A22464806F0C6FF64
:10377000142005F01FF9002301460A22414806F0F3
:10378000BDFF152005F016F9002301460A223D4829
:1037900006F0B4FF06214C4806F00AFD4B4B3948B1
:1037A00019680222002306F0A9FF0421484806F008
:1037B000FFFC112005F0FEF8002301460A223148E3
:1037C00006F09CFF102005F0F5F8002301460A22C0
:1037D0002C4806F093FF122005F0ECF80023014678
:1037E0000A22284806F08AFF132005F0E3F8002398
:1037F00001460A222348BDE8704006F07FBF07213A
:10380000344806F0D5FC7CE70621334806F0D0FCAE
:1038100077E70721314806F0CBFC72E707213048F3
:1038200006F0C6FC6DE708212E4806F0C1FC68E7EB
:103830000B212D4806F0BCFC63E711212B4806F054
:10384000B7FC73E70A212A4806F0B2FC69E70E21AB
:10385000284806F0ADFC5EE7FEF7F8FF216A09F0A4
:10386000ADFC00283FF449AF1621234806F0A0FC28
:103870000A21224806F09CFC43E70A211F4806F073
:1038800097FC3EE7D487FF1F3C93FF1F741B01008A
:103890008C94FF1F841B0100D494FF1F901B010018
:1038A000A01B0100B01B0100C41B0100D41B0100C0
:1038B0007C92FF1F081C01003C260100A494FF1FFE
:1038C0008494FF1F7C1C0100841C0100F493FF1FE3
:1038D0008C1C0100441C0100141C01001C1C010074
:1038E000301C0100381C0100241C0100681C010070
:1038F0005C1C01004C1C0100E41B0100FC1B0100CE
:103900002DE9F04F934C944FE36F012B8DB000F0F5
:103910004981032B50D0914E914DA36F9148012BBB
:1039200009BF2968296801F10041296004F048FCB9
:103930003368002B40F0CE808A4804F017FCE36F18
:103940003860012B064600F0D280874909F036FC2A
:1039500078B98649304609F013FC50B9844A854B42
:1039600012680B920B9A1A6000232B600DB0BDE811
:10397000F08FDFF8FC817F4CD8F800300A930A986A
:1039800023687D4FC01A09F005FA314609F05AFA4A
:103990007A4909F00BFB794909F008FB396809F00D
:1039A00049F9D8F800300993099B23600023386057
:1039B0002B600DB0BDE8F08FDFF8C881704DD8F8EE
:1039C0000000664E012300220F212B6003F014FB40
:1039D0002B68012B336800F00381002B40F09781A6
:1039E0000021D8F80000DFF8B891664D03F056FBCF
:1039F00033681FFA80FBC9F800B0002B40F06C81DF
:103A00000021D8F80000564DDFF878A103F0CCFA79
:103A1000B4F89A3040F6E44101FB0BF1B1FBF0F051
:103A2000C01A00B209F0BAF957498346D4F8900099
:103A300009F008FA0146584609F0B8FAD9F80030FA
:103A40002860632BDFF858B100F33A8100232B6024
:103A50003368002B3FF461AF02214C4806F0A8FB0D
:103A6000D9F80020D8F8000040F6E443002103FB19
:103A700002F803F099FAB8FBF0F009F08BF98046F0
:103A8000B4F89A0009F08AF90146404609F0D0F8E6
:103A900008F02EFD4FF0020802460B46CDF80080DC
:103AA0003B4806F075FE4146384806F081FB286821
:103AB00008F01EFDCDF8008002460B46344806F0A3
:103AC00067FE4146334806F073FB41462F4806F037
:103AD0006FFB22E7234804F049FB08F009FD0226AA
:103AE00002460B4600962A4806F052FE24E7244B75
:103AF0001B68012B00F01781022B7FF435AF26499C
:103B000009F05CFB30B92549304609F039FB002843
:103B100000F03881DFF85880164CD8F80030079351
:103B200007982368144FC01A09F034F9314609F098
:103B300089F9124909F03AFA104909F037FA396857
:103B400009F078F8D8F800300693069B38602360B7
:103B50000AE700BF3C93FF1F8492FF1FC894FF1F1A
:103B60007892FF1F1493FF1F0000FA430000FAC36E
:103B700024B8FF1F5C92FF1F8C92FF1F00007A4445
:103B80005087FF1F9C94FF1F17B7D1383C260100B8
:103B9000D487FF1FD01C010000C82F4800A08CC68E
:103BA0003493FF1F3D689749284609F0E9FA30B180
:103BB0002846954909F002FB00287FF4FDAEDFF8A6
:103BC0005482924DD8F80000914E022300220E211B
:103BD0002B6003F011FA2B68012B33687FF4FDAEE4
:103BE000002B40F0D6800021D8F80000DFF8689262
:103BF000884D03F053FA33681FFA80FBC9F800B010
:103C0000002B40F0E3800021D8F80000824DDFF85F
:103C100004A203F0C9F9B4F8983040F6E44101FB7E
:103C20000BF1B1FBF0F0C01A00B209F0B7F87B4914
:103C30008346D4F8940009F005F90146584609F086
:103C4000B5F9D9F800302860632BDFF80CB200F327
:103C5000B18000232B603368002B3FF45EAE02215D
:103C60006F4806F0A5FAD9F80020D8F8000040F611
:103C7000E443002103FB02F803F096F9B4F898102E
:103C8000B8FBF0F000B2411A664806F077FD022159
:103C9000634806F08DFA286808F02AFC4FF0020805
:103CA00002460B46CDF800805E4806F071FD032108
:103CB0005D4806F07DFA4146594806F079FA2CE64F
:103CC000DAF80000002103F06FF9DBF80030643807
:103CD0009842FFF4BBAEBBE60021286803F064F90C
:103CE00040F6E44100230A2201FB0BF1B1FBF0F1A5
:103CF0004C4806F003FD0221494806F059FAB4F891
:103D00009A10484806F03AFDD9F800B078E64548E0
:103D100006F0E4FC0C21454806F04AFA0C21444820
:103D200006F046FA5CE6434909F048FA58B94249B8
:103D3000304609F025FA30B9404A414B12680592E5
:103D4000059A1A6010E6DFF8F4803D4CD8F8003090
:103D50000493049823683B4FC01A09F01BF83146BE
:103D600009F070F8384909F021F9374909F01EF9CE
:103D7000396808F05FFFD8F800300393039B386080
:103D80002360F1E52D4A2E4B12680892089A1A60BA
:103D9000EAE5244806F0A2FCE36F012B4FF00B018B
:103DA0000CBF2A482A4806F003FA0C21204806F0E6
:103DB000FFF918E7DAF80000002103F0F5F8DBF866
:103DC000003064389842FFF444AF44E7002128688B
:103DD00003F0EAF840F6E44100230A2201FB0BF16C
:103DE000B1FBF0F10F4806F089FC0121194806F0FB
:103DF000DFF9B4F898100B4806F0C0FCD9F800B011
:103E000001E700BF00709446007094C65087FF1F02
:103E1000C894FF1F9C94FF1F7892FF1F17B7D138DB
:103E20003C260100D487FF1FBC1C0100C01C010000
:103E3000AC1C01000000FA430000FAC324B8FF1FC5
:103E40005C92FF1F8C92FF1F00007A44941C0100BB
:103E5000A01C0100701B01003493FF1F2DE9F043EB
:103E6000AB4D2B6883B0002B00F08780A94CAA4E85
:103E7000E36FAA4FA74D012B00F0BF80D4F880302C
:103E8000DFF89082012B00F0ED80D8F85850D7F879
:103E90000090D8F8548005FB08F54FF47A7000FBC9
:103EA00005F008F07BFF9E49DFF86C820546484626
:103EB00008F0C8FF294609F079F89A4908F0C2FFCE
:103EC00009F09CF9632830604BDD2846944909F0DD
:103ED0006DF86423C8F80030934B38601B68002BE2
:103EE00048D0E36F8B4D012B00F0ED80032B00F0E9
:103EF000FD80022B00F0008102218C4806F058F969
:103F00008B4B186808F0F4FA022402460B46009422
:103F1000884806F03DFC2146874806F049F92146CD
:103F2000824806F045F93168824806F027FC0621F0
:103F3000824806F03DF93868794908F083FF08F0B7
:103F4000D7FA009402460B467A4806F021FC03217A
:103F50007B4806F02DF9774803B0BDE8F04306F042
:103F6000BDBB0028BCBF0023C8F800306E4B1B68E7
:103F7000002BB6D103B0BDE8F0837248654CFEF764
:103F8000C3FC7149A76EE66E08F05CFF09F05CF9AE
:103F9000226F636FD21B9B1B80B29342A0EB070082
:103FA000C0F29D8003FB00F393FBF2F333445A4EBF
:103FB0005E483360022106F0FBF831685D48574FD8
:103FC00006F0DCFB0221594806F0F2F83268A06DD9
:103FD000636D02FB00F003FB00F000EB800040008B
:103FE00008F0DCFE4E4908F0E1FF01232B60E36F8F
:103FF0003860012B474D7FF441AF5248FEF784FCF7
:104000005149D5F86890D5F86C8008F01BFF09F08D
:104010001BF92A6F6B6FC9EB0202C8EB030380B276
:104020009A42C9EB00006CDD03FB0000531C90FBBF
:10403000F3F303EB0800A26D636D306002FB00F048
:1040400003FB00F000EB8000400008F0A7FE3449BD
:10405000DFF8C08008F0AAFFD4F880303860012B68
:104060007FF413AF3748FEF74FFC3749D8F8689014
:10407000D8F86C5008F0E6FE09F0E6F8D8F87020A1
:10408000D8F87430D4F85480C9EB02025B1B80B2BC
:104090009A42C9EB0000C6BF03FB0000013258433F
:1040A00090FBF2F02844A56D00FB05F008FB00F042
:1040B00000EB8000400008F071FE194908F076FF1F
:1040C00081463860E7E6214B1B68012B4FF00A015F
:1040D0000CBF1F481F4806F06BF8EB6F06E703FBA9
:1040E0000000531C90FBF3F3334460E710211A489F
:1040F00006F05EF8E36FFCE60721184806F058F872
:10410000FAE603FB00F393FBF2F303EB080092E7FC
:104110007492FF1F3C93FF1F3487FF1F8C92FF1F79
:10412000E4388E3E0000C8423C87FF1F3C26010059
:104130008492FF1FD487FF1FD01C0100081D0100BF
:10414000101D0100D494FF1F00007A445087FF1F08
:10415000D41C0100E01C0100EC1C0100001D01004A
:10416000F0B5112083B004F025FC012813D0002104
:104170000B2004F019FC00210C2004F015FC002198
:10418000152004F011FC1D491D4B01200022087070
:104190001A6003B0F0BD01460446152004F004FC8B
:1041A0001849194A194B09680191D2F884001B6813
:1041B0000199134D034402268B422E6017D8D2F882
:1041C0008C0008F0EBFD124B196808F0D9FF074688
:1041D00068B921460B2004F0E7FB084A032339465F
:1041E0000C2016702B6004F0DFFB03B0F0BD012142
:1041F0000C2004F0D9FB03B0F0BD00BF8C94FF1F6E
:10420000C494FF1F24B8FF1F3C93FF1FD094FF1FCF
:104210008492FF1FF0B5684E684D34682B689C424D
:1042200087B039D014F0010155D014F0020149D003
:1042300014F004013DD0E3070ED52B68DF070BD443
:104240005F4F3A68002A00F082805E4B1B68019342
:10425000019B93426DD83468A0070DD52B68990750
:104260000AD4594F3A68002A4CD0564B1B68039326
:10427000039B934238D8346862070DD52B685B07DF
:104280000BD4524F3A68002A7ED04E4B1B680593E0
:10429000059B934268D834680CB107B0F0BD214645
:1042A000162004F001FA2146172004F0FDF907B0AA
:1042B000F0BD052004F0F8F92B68346803F0FB0327
:1042C0002B60B8E7172004F0EFF92B68346803F08F
:1042D000FD032B60ACE7162004F0E6F92B68346888
:1042E00003F0FE032B60A0E7394B1720D3F88810AA
:1042F00004F0DAF92B68346843F0020300222B60E3
:104300003A60B9E7334806F0E9F90C21324805F084
:104310004FFF304806F0E2F9FF21172004F0C4F9FE
:10432000284B2E4A19680291029912680A443A6091
:104330009CE7274B1620D3F8881004F0B5F92B68BA
:10434000346843F0010300222B603A6084E7FF21C8
:10435000162004F0A9F91B4B204A19680091009916
:1043600012680A443A6071E7194B0520D3F88810A7
:1043700004F09AF92B68346843F0040300222B60A0
:104380003A60002C89D18AE7124806F0A7F90C217F
:10439000134805F00DFF0F4806F0A0F9FF21052096
:1043A00004F082F9074B0D4A1968049104991268C8
:1043B0000A443A606AE700BFC494FF1FF493FF1FEA
:1043C0006494FF1F24B8FF1F6894FF1F6C94FF1FA5
:1043D0003C93FF1FD487FF1F141D01007087FF1F30
:1043E000241D01002DE9F047544EDFF87481DFF8F9
:1043F00074913068524D00220F2102F0FDFD002320
:10440000012222214F48C8F80030C9F8002005F0E9
:10441000CFFED8F80030132B22DC40F6E447002111
:104420003068B5F898A002F039FE002104463068E3
:1044300002F0BAFDA4B2012107FB04F4B4FBF0F4CE
:1044400041485444A5F8984005F0B2FE642004F0B9
:10445000E7FAD8F800300133132BC8F80030DEDD5E
:10446000B5F89830394A3A48A2FB03129B1A02EB7E
:104470005303C3F30F131946A5F8983006F07EF9DD
:104480001D21344805F094FE0221334805F090FECA
:104490002F4806F023F900231A460E213068C8F889
:1044A000003002F0A9FD022322212648C9F800307D
:1044B00005F07EFED8F80030132B22DC40F6E447EE
:1044C00000213068B5F89A9002F0E8FD002104461A
:1044D000306802F069FDA4B2012107FB04F4B4FBCB
:1044E000F0F419484C44A5F89A4005F061FE6420A8
:1044F00004F096FAD8F800300133132BC8F80030D6
:10450000DEDDB5F89A30114A1148A2FB03129B1A5E
:1045100002EB5303C3F30F131946A5F89A3006F0C4
:104520002DF91D210D4805F043FE02210A4805F032
:104530003FFE0748BDE8F04706F0D0B89C94FF1F47
:104540003C93FF1F341D0100781D01008761188610
:10455000D487FF1F581D01003C2601007C1D01006F
:104560008894FF1F5087FF1FF8B5874B874C884FF3
:104570001B68386D40F2513108222160E271002B36
:1045800000F0FD8008F00AFC396A054608F05AFC84
:10459000804908F057FC08F057FE80B2031263729E
:1045A0007D4A7E4B12681B68B9692072A372284647
:1045B0001B121512E3722273657308F043FC7549F0
:1045C00008F040FC08F040FE83B21A126F497448AC
:1045D000A373E27303F026FC724B734A1B681288C4
:1045E0006A49A272DDB2257205EB850603EB8305ED
:1045F000760045F3D71540F2553E12121B12267372
:104600006573082600256648C4F800E0E27263720C
:10461000E671A573E57303F005FC40F25633634879
:104620002360E671FEF716F9614908F00BFC08F00B
:104630000BFE20725D48FEF70DF95D4908F002FCA3
:1046400008F002FE5B4A5A49C0F307231068637200
:1046500008F0ACFC08F0D2FD40FA06F203465348DD
:10466000E272A372FEF718F94A4908F0EBFB08F072
:10467000EBFD20734D48FEF70FF9464908F0E2FBC9
:1046800008F0E2FD4149A573C0F307234448637372
:10469000E57303F0C7FB022004F0C2F9464A474B1A
:1046A00011785078217291786072D2789878A172DE
:1046B000597893F800E0E2726173DA78A07340F2FF
:1046C0005A3332493648E67184F80CE0E2732360CD
:1046D00003F0A8FB3A4B2D491A7858782272607281
:1046E0009A78D878A272E0721A79987993F805E0EE
:1046F0002273A073DA792A4884F80DE040F25E3321
:10470000E2732360E67103F08DFB022004F088F968
:104710002C4B1E491A785878227260729A78D87891
:10472000A272E0721A79987993F805E02273A07367
:10473000DA791B4884F80DE04FF45C73E273236070
:10474000E67103F06FFB022004F06AF9BA6DE671BE
:1047500042FA06FE012340F25F37022622739922B5
:104760002572657284F80DE02760A672E372E37328
:10477000A27306490A48BDE8F84003F053BB08F0AD
:104780000DFB7969054601E77C92FF1FB494FF1F7A
:104790003C93FF1F000020419894FF1F6092FF1F71
:1047A0007CB6FF1F3487FF1F3887FF1FD494FF1F7D
:1047B0000000C8428492FF1F3893FF1F9094FF1F90
:1047C0002C87FF1F5487FF1FF0B5B24CB24D83B04A
:1047D00005F088FC23682860042B00F0E282022B9D
:1047E0007ED0082B00F00A81072B40F0838132280D
:1047F00000F0FF8340F37481332800F00F847128A8
:1048000003D10023732023602860002B08BF732886
:104810000CBF01200020002860D0A04805F05EFFFA
:1048200004219F4805F0C4FC9C4805F057FF102167
:104830009C4805F0BDFC994805F050FF13219A48AB
:1048400005F0B6FC994B9548196805F097FF934819
:1048500005F044FF1421964805F0AAFC8F4805F0A6
:104860003DFF1E21934805F0A3FC8C4805F036FF60
:104870001521914805F09CFC884805F02FFF1E216A
:104880008E4805F095FC854805F028FF20218C48CE
:1048900005F08EFC814805F021FF1921894805F0BB
:1048A00087FC7E4805F01AFF1221874805F080FC3E
:1048B0007A4805F013FF0F21844805F079FC77480A
:1048C00005F00CFF0D21824805F072FC734805F0DD
:1048D00005FF804A002101231160236003B0F0BD71
:1048E000A0F13102422A90D801A151F822F000BF74
:1048F00083510000015200001B520000995100003A
:10490000BF5100000B4800000B4800000B4800009E
:104910000B4800000B4800000B4800000B4800004B
:104920000B4800000B4800000B4800000B4800003B
:104930000B4800000B4800000B4800000B4800002B
:104940000B4800000B4800000B4800000B4800001B
:104950000B4800000B4800000B4800000B4800000B
:104960000B4800000B4800000B4800000B480000FB
:104970000B4800000B4800000B4800000B480000EB
:104980000B4800000B4800000B4800000B480000DB
:104990000B4800000B4800000B4800000B480000CB
:1049A0000B4800000B4800000B4800000B480000BB
:1049B0000B4800000B480000DD5100000B480000D0
:1049C0000B4800000B4800000B4800000B4800009B
:1049D0000B4800000B4800000B4800000B4800008B
:1049E0000B4800000B4800000B4800000B4800007B
:1049F000034800000B480000E9510000322800F095
:104A0000E38271283FF4FDAE31287FF4FEAE05F05D
:104A1000A5FB002840F3858320482F4E05F0F2FFC8
:104A2000C0B286F84000022894BF01460021726C93
:104A30002A4888BF86F84010FDF710FF012369203F
:104A400023602860A0F152031F2B01F2E381DFE80D
:104A500013F0CD09E109E109E109E109E109E10901
:104A6000E109E109E109E109E109E109E109E109F6
:104A70006E09B70A060989089B07E109E109E109FE
:104A80005307E109B40AE109E109E109E109E10992
:104A9000CF0900BF9092FF1F8092FF1FD487FF1F96
:104AA000B8240100C0240100D42401002487FF1F82
:104AB000E82401000025010020250100382501001F
:104AC000582501007C25010098250100AC25010036
:104AD000BC2501003C87FF1F3C93FF1FD494FF1FA0
:104AE00031287FF492AE05F039FB002800F3A28351
:104AF00023682868062B40F08D80A0F13102402AFF
:104B00003FF683AE01A151F822F000BFC75000006C
:104B1000F150000041500000655000008950000035
:104B2000A55000000B4800000B4800000B48000097
:104B30000B4800000B4800000B4800000B48000029
:104B40000B4800000B4800000B4800000B48000019
:104B50000B4800000B4800000B4800000B48000009
:104B60000B4800000B4800000B4800000B480000F9
:104B70000B4800000B4800000B4800000B480000E9
:104B80000B4800000B4800000B4800000B480000D9
:104B90000B4800000B4800000B4800000B480000C9
:104BA0000B4800000B4800000B4800000B480000B9
:104BB0000B4800000B4800000B4800000B480000A9
:104BC0000B4800000B4800000B4800000B48000099
:104BD0000B4800000B4800000B4800000B48000089
:104BE0000B4800000B4800000B4800000B48000079
:104BF0000B4800000B4800000B4800000B48000069
:104C00000B4800000B4800000B4800000348000060
:104C100023682868052B1AD1332801F05F8140F3FF
:104C20004B81352801F06B81BFF6E9AD05F096FAAE
:104C300000280ADDD948DA4E05F0E4FE01226B2394
:104C4000C6F8A40022602B604BE123682868032B80
:104C500040F0A380A0F13002422A3FF6D6AD01A178
:104C600051F822F0714D0000B7570000DF570000E7
:104C7000A156000045570000675700008F570000FD
:104C80000758000025580000495800000B48000054
:104C90000B4800000B4800000B4800000B480000C8
:104CA0000B4800000B4800000B4800000B480000B8
:104CB0000B4800000B4800000B4800000B480000A8
:104CC0000B4800000B4800000B4800000B48000098
:104CD0000B4800000B4800000B4800000B48000088
:104CE0000B4800000B4800000B4800000B48000078
:104CF0000B4800000B4800000B4800000B48000068
:104D00000B4800000B4800000B4800000B48000057
:104D10000B4800000B4800000B4800000B48000047
:104D20000B4800000B48000071580000A952000019
:104D3000835600008F580000AD580000C356000095
:104D4000855200000B4800000B4800000B48000093
:104D50000B4800000B4800000B4800000B48000007
:104D60000B4800000B4800001957000025570000B1
:104D700005F0F4F9002841F356808848884E05F084
:104D800041FE01270346014662228648736527607B
:104D90002A60FDF761FD23682868012B7FF435AD9B
:104DA00050E6A0F13102402A3FF62FAD01A151F8A3
:104DB00022F000BF49510000415100004551000060
:104DC0004D510000515100006B5100002B5100006B
:104DD0000B4800000B4800000B4800000B48000087
:104DE0000B4800000B4800000B4800000B48000077
:104DF0000B4800000B4800000B4800000B48000067
:104E00000B4800000B4800000B4800000B48000056
:104E10000B4800000B4800000B4800000B48000046
:104E20000B4800000B4800000B4800000B48000036
:104E30000B4800000B4800000B4800000B48000026
:104E40000B4800000B4800000B4800000B48000016
:104E50000B4800000B4800000B4800000B48000006
:104E60000B4800000B4800000B4800000B480000F6
:104E70000B4800000B4800000B4800000B480000E6
:104E80000B4800000B4800000B4800000B480000D6
:104E90000B4800000B4800000B4800000B480000C6
:104EA0000B4800000B4800000B4800000B480000B6
:104EB0000B48000003480000312800F0BB8732286F
:104EC0007FF4A3AC05F04AF900287FF7BEAE334863
:104ED000334E05F097FD01226B23C6F88C0022604B
:104EE0002B602E4805F0FAFB2C4805F0F7FB2B4809
:104EF00005F0F4FB294805F0F1FB284805F0EEFB2E
:104F00002121294805F054F9244805F0E7FB152133
:104F1000264805F04DF9D6F88410204805F02EFCFF
:104F20000221234805F044F91C4805F0D7FB1E2157
:104F3000204805F03DF9D6F88C10184805F01EFC05
:104F400003211D4805F034F9144805F0C7FB1E2164
:104F50001A4805F02DF9D6F88810104805F00EFC17
:104F60000E4805F0BBFB1D21154805F021F9D6F8C8
:104F7000A4100A4805F002FC084805F0AFFB1E210A
:104F8000104805F015F9D6F8A810044805F0F6FB0E
:104F9000024805F0A3FB052323609FE4D487FF1F8D
:104FA0003C93FF1FD494FF1FB01F0100D41F0100CA
:104FB000281F0100EC1F0100BC1C01000C20010097
:104FC0002C2001004C20010005F0C8F8002840F317
:104FD000A480A148A14E05F015FD07F0DFFEA04911
:104FE00007F030FF0346024696F840109D48736470
:104FF00022E505F0B3F800287FF77AAD9648974E82
:1050000005F000FD07F0CAFE954907F01BFF61237C
:105010000122F06322602B60184613E505F09EF82C
:1050200000287FF765AD8C488C4E05F0EBFC07F04F
:10503000B5FE61230122B06322602B60184601E5B2
:1050400005F08CF800287FF7E3AD8348834E05F028
:10505000D9FC00EB8000430001226520F36522604B
:105060002860EFE405F07AF800287FF7D1AD7A48A0
:105070007A4E05F0C7FC00EB80004300012265205A
:10508000336622602860DDE4744AD2F8B030013320
:10509000042BC8BF0023C2F8B03065200123236071
:1050A0002860CFE405F05AF800287FF7B1AD6A48D0
:1050B0006A4E05F0A7FC65230122C6F8B400226001
:1050C0002B601846BEE405F049F800287FF7A0AD34
:1050D0006148624E05F096FC07F060FE624907F0F9
:1050E00065FF65230122706122602B601846A9E4E8
:1050F00005F034F800287FF78BAD5748574E05F080
:1051000081FC07F04BFE584907F050FF6523012250
:10511000F06122602B60184694E423682868FFF74A
:1051200063BB4E4E96F840007DE4504A1368B3FAD4
:1051300083F35B090121642013602160286081E40E
:105140004B4AF3E74B4AF1E74B4AEFE74B4AEDE7AF
:10515000424ED6F8A030B3FA83F35B0901226420F3
:10516000C6F8A030226028606CE401233D4823602B
:10517000FCF7A6F9424A2368106064202860FFF714
:1051800030BB364EB36FB3FA83F35B090122632061
:10519000B3672260286055E40123236004F0DEFF3A
:1051A000002807DD2C482D4E05F02CFC07F0F6FDFD
:1051B000C6F89400632028602368FFF715BB01231D
:1051C000236004F0CBFF0028F4DD2348234E05F0D4
:1051D00019FC07F0E3FDC6F89000EBE7FFF702F9D2
:1051E00023682868FFF7FDBA1C4AD36F0133032BED
:1051F000C8BF0023D367012363202360286021E414
:10520000164ED6F88030B3FA83F35B09012263208F
:10521000C6F880302260286014E40123236004F083
:105220009DFF0028E7DD0C480C4E05F0EBFBC6F8AF
:10523000AC00E0E70848094E05F0E4FB07F0AEFDDE
:10524000074907F0FFFD61230122706222602B6095
:105250001846FFF7F7BB00BFD487FF1F3C93FF1F23
:105260006F12833AD494FF1F00007A448094FF1F8A
:10527000C894FF1FAC94FF1F6094FF1FB094FF1FE2
:105280008494FF1F04F06AFF00280DDDC148C24E60
:1052900005F0B8FB07F082FDC04907F087FE012248
:1052A0006223306222602B6004F058FF002840F334
:1052B000BA85B848B84E05F0A5FB01226223B06656
:1052C00022602B60B34805F009FAB24805F006FAEF
:1052D000B04805F003FAAF4805F000FAAD4805F014
:1052E000FDF91521AE4804F063FFAA4805F0F6F970
:1052F0001421AC4804F05CFFA64805F0EFF91B212F
:10530000A94804F055FFA34805F0E8F91321A74880
:1053100004F04EFF9F4805F0E1F99E4805F0DEF9E4
:105320009C4805F0DBF92021A14804F041FFF0681A
:105330009A4907F087FD07F0DBF8002702460B4685
:105340000097944805F024FA02219A4804F030FFAF
:105350000221994804F02CFF8E4805F0BFF9212165
:10536000964804F025FF30698C4907F06BFD07F083
:10537000BFF8009702460B46864805F009FA02215D
:105380008C4804F015FF02218B4804F011FF81487E
:1053900005F0A4F91F218A4804F00AFFB06A07F05B
:1053A000A7F8022502460B4600957A4805F0F0F969
:1053B0000121844804F0FCFE29467F4804F0F8FEF1
:1053C000744805F08BF920217F4804F0F1FEF06A63
:1053D00007F08EF8009502460B466E4805F0D8F9A6
:1053E0000121784804F0E4FE2946734804F0E0FE09
:1053F000684805F073F92321744804F0D9FEB06CB5
:10540000664907F01FFD07F073F8009702460B4648
:10541000604805F0BDF92946664804F0C9FE2946F2
:10542000654804F0C5FE5B4805F058F91F2168483F
:1054300004F0BEFEF06C594907F004FD07F058F87F
:10544000009702460B46534805F0A2F929465948F1
:1054500004F0AEFE2946584804F0AAFE4D4805F077
:105460003DF919215B4804F0A3FEB16D494805F0F0
:1054700085F92946584804F09BFE29464E4804F019
:1054800097FE444805F02AF91821544804F090FE8C
:10549000706E07F083FC524907F0D4FC07F028F83F
:1054A000009502460B463B4805F072F901214D4834
:1054B00004F07EFE2946404804F07AFE354805F0A7
:1054C0000DF92B21484804F073FEB069334907F009
:1054D000B9FC07F00DF8009702460B462D4805F081
:1054E00057F92946334804F063FE2946324804F050
:1054F0005FFE284805F0F2F81F213C4804F058FEF2
:10550000716D244805F03AF929462B4804F050FE05
:10551000204805F0E3F82021354804F049FE316DBC
:105520001C4805F02BF92946234804F041FE194890
:1055300005F0D4F810212F4804F03AFEB16E15485A
:1055400005F01CF929461B4804F032FE29461A488A
:1055500004F02EFE0F4805F0C1F81321264804F090
:1055600027FEF16E0B4805F009F90121234804F0EC
:105570001FFE2946104804F01BFE064805F0AEF851
:1055800010211F4804F014FE316F024805F0F6F8B0
:10559000294637E0D487FF1F3C93FF1F00007A4461
:1055A0008022010098220100B0220100181E010093
:1055B000CC220100141E01003C260100F022010053
:1055C00014230100AC190100342301005823010009
:1055D0007C2301009C230100B8230100BC230100AF
:1055E000CDCCCC3D5C220100D82301000424010075
:1055F00024240100482401005C24010070240100DF
:1056000074240100B14804F0D3FD2946B04804F0E9
:10561000CFFDB04805F062F81421AF4804F0C8FD92
:10562000716FAC4805F0AAF80121AC4804F0C0FD48
:105630002946A74804F0BCFDA64805F04FF81621FE
:10564000A74804F0B5FD306AA64907F0FBFB06F059
:105650004FFF00970B4602469E4805F099F82946F1
:105660009A4804F0A5FD2946994804F0A1FD9948FF
:1056700005F034F8974805F031F803232360FFF76D
:105680002DB904F06BFD002840F3CD839148964E70
:1056900005F0B8F901226223F06622602B6011E662
:1056A00004F05CFD002840F3BE838A488E4E05F06E
:1056B000A9F907F073FB01226223B06222602B601C
:1056C00000E6FDF7ABFB02218148874E04F070FD38
:1056D000804805F003F802217D4804F069FD7D480B
:1056E00004F0FCFF02217A4804F062FD794804F0DE
:1056F000F5FF17217D4804F05BFD764804F0EEFFCE
:105700000221734804F054FD724804F0E7FF0122BF
:10571000622322602B60D5E50022732322602B6078
:10572000FFF77BB8724B6A486F4E002202211A6065
:1057300004F03EFD674804F0D1FF0B216D4804F0F2
:1057400037FDDDE704F00AFD002840F36C83614873
:10575000654E05F057F907F021FB01226223F06244
:1057600022602B60AEE504F0F9FC002840F35B8377
:1057700058485D4E05F046F907F010FB594907F00F
:1057800015FC01226223B06422602B609AE504F0CC
:10579000E5FC002840F347834E48534E05F032F9AC
:1057A00007F0FCFA4F4907F001FC01226223F06484
:1057B00022602B6086E504F0D1FC002840F333839F
:1057C0004448494E05F01EF907F0E8FA454907F04C
:1057D000EDFB01226223F06022602B6072E504F091
:1057E000BDFC002840F31F833A483F4E05F00AF9FC
:1057F00007F0D4FA3B4907F0D9FB0122622330615C
:1058000022602B605EE504F0A9FC002840F30B83C6
:105810003048354E05F0F6F801226223B06522606B
:105820002B604FE504F09AFC002840F3FC822948E5
:105830002D4E05F0E7F800EB8000430001216222C5
:10584000736621602A603DE504F088FC002840F37F
:10585000EA822048244E05F0D5F807F09FFA214946
:1058600007F0A4FB01226223B06122602B6029E5CE
:1058700004F074FC002840F3D68216481A4E05F056
:10588000C1F801226223306522602B601AE504F022
:1058900065FC002840F3C7820E48134E05F0B2F8AD
:1058A00001226223306722602B600BE504F056FC76
:1058B000002840F3B88207480B4E05F0A3F80122F8
:1058C0006223706722602B60FCE400BF141E01009D
:1058D0003C260100D487FF1F8824010070240100AA
:1058E000A024010000007A443C93FF1FA81D010082
:1058F0007492FF1FC01D01008348844D04F0EEFE2A
:10590000814804F0EBFE804804F0E8FE7E4804F095
:10591000E5FE7D4804F0E2FE15217D4804F048FCD8
:10592000794804F0DBFE18217A4804F041FC00239A
:105930000A2295F84010744804F0E0FE724804F022
:10594000CDFE2821744804F033FC686C734907F0DD
:1059500079FA06F0CDFD00250B46024600956A480F
:1059600004F016FF02216E4804F022FC664804F0A1
:10597000B5FE13216B4804F01BFC634804F0AEFE37
:1059800008232360FEF7AABF5F48604E04F0A6FE1E
:105990005D4804F0A3FE5C4804F0A0FE5A4804F001
:1059A0009DFE594804F09AFE11215F4804F000FC66
:1059B000554804F093FE28215C4804F0F9FB706917
:1059C000564907F03FFA06F093FD002502460B46C4
:1059D00000954D4804F0DCFE0221514804F0E8FB3C
:1059E000494804F07BFE1621514804F0E1FBF069C0
:1059F0004A4907F027FA06F07BFD009502460B4660
:105A0000414804F0C5FE0221454804F0D1FB3E4860
:105A100004F064FE1D21474804F0CAFBF06D07F056
:105A2000BDF9454907F00EFA06F062FD022502466F
:105A30000B460095344804F0ABFE01213F4804F0CA
:105A4000B7FB314804F04AFE1F213D4804F0B0FB8B
:105A5000306E07F0A3F9384907F0F4F906F048FD75
:105A600000950B460246284804F092FE0121334877
:105A700004F09EFB244804F031FE1121314804F06B
:105A800097FBD6F8B030042B08D8DFE803F03732A4
:105A90002D2803000D212C4804F08AFB1A4804F03D
:105AA0001DFE1821294804F083FBD6F8B4101648CF
:105AB00004F064FE0221264804F07AFB124804F048
:105AC0000DFE114804F00AFE1321164804F070FB85
:105AD0000D4804F003FE06232360FEF7FFBE0D21F0
