:1000000000800020BD010000B9AB000071AB000012
:1000100071AB000071AB000071AB000071AB000070
:1000200071AB000071AB000071AB0000B9AB000018
:10003000B9AB000071AB0000D1A10000D5A2000057
:10004000B9AB0000B9AB0000B9AB0000B9AB000020
:10005000B9AB0000B9AB0000B9AB0000B9AB000010
:10006000B9AB0000B9AB0000B9AB0000B9AB000000
:10007000B9AB0000B9AB0000B9AB0000B9AB0000F0
:10008000B9AB0000B9AB0000B9AB0000B9AB0000E0
:10009000B9AB0000B9AB0000B9AB0000B9AB0000D0
:1000A000B9AB0000B9AB0000B9AB0000B9AB0000C0
:1000B000B9AB0000419F00004D9F0000519F000020
:1000C0005D9F0000619F0000659F0000B9AB0000CC
:1000D000B9AB0000B9AB0000B9AB0000B9AB000090
:1000E000B9AB0000B9AB0000B9AB0000B9AB000080
:1000F000B9AB000049CE0000B9AB0000ADB80000BC
:10010000B9AB0000C5BB0000B9AB0000B9AB000043
:10011000B9AB0000B9AB0000B9AB0000B9AB00004F
:10012000B9AB0000B9AB0000B9AB0000B9AB00003F
:10013000B9AB0000B9AB0000B9AB0000B9AB00002F
:10014000B9AB0000B9AB0000B9AB0000B9AB00001F
:10015000B9AB0000B9AB0000B9AB0000B9AB00000F
:10016000B9AB000051BE0000B9AB0000B9AB000054
:10017000B9AB0000B9AB0000B9AB0000B9AB0000EF
:10018000B9AB0000B9AB0000B9AB0000B9AB0000DF
:10019000B9AB0000B9AB0000B9AB0000B9AB0000CF
:1001A000B9AB0000B9AB0000B9AB0000B9AB0000BF
:1001B000B9AB0000B9AB0000B9AB0000564B4CF234
:1001C000205210B51A804DF628121A8000BF00BFC9
:1001D0000AF0F6FC514B4FF010621A60504A9A60D8
:1001E000504ADA60504A136813F4807304D14F49BF
:1001F0000B604FF4A85313604D4B1A78110703D5C9
:100200001A7842F008021A704A4B4B492A221A7097
:100210004A4A4B4B8B4204D252F8040F43F8040B6A
:10022000F8E7484B484900228B4202D243F8042B9E
:10023000FAE74649464A002352F8230041F82300D2
:1002400001336F2BF8D1434B434A802103F8011B44
:100250009342FBD1414B3D4A1A60414B8A221A70AE
:10026000A3F5805324225A70A0221A709A7992071B
:10027000FCD59A79D406FCD43A4A937903F00C035E
:10028000082B384BF9D103221A7140225A719A79FE
:100290009006FCD5334A9179324B4906FBD5324A58
:1002A000324911600221516020221A709A7902F0BD
:1002B0000C020C2AFAD12E4B2E4A1A602E4B2F4AD2
:1002C0001A6000225A60072243F8042C2C4AC3F813
:1002D0000C2D62B60AF054FF144B1B68DA0705D5E3
:1002E00028480AF031FD284B284A1A60284B1B7811
:1002F0005B0609D5244C254B22689A4204D121483B
:100300000AF022FD002323600FF09CF80AF05EFC47
:100310000AF08CFBFEE700BF0E2005403080044051
:10032000823F04000100002B10D0034014D0034092
:1003300002D0074000E007403092FF1FEC5201005E
:100340002087FF1F3092FF1FE4BCFF1F0082FF1FAA
:100350000000000000E400E05FE400E008ED00E0E1
:100360000050064000400640448004400000030165
:1003700004800440C010050014E000E0FF76010096
:10038000000020207A2A8E5E1CE00340A5C3945A08
:1003900000F00740FFFFFFFFFFFFFFFFFFFFFFFF32
:1003A000FFFFFFFFFFFFFFFFFFFFFFFFFFFFFFFF5D
:1003B000FFFFFFFFFFFFFFFFFFFFFFFFFFFFFFFF4D
:1003C000FFFFFFFFFFFFFFFFFFFFFFFFFFFFFFFF3D
:1003D000FFFFFFFFFFFFFFFFFFFFFFFFFFFFFFFF2D
:1003E000FFFFFFFFFFFFFFFFFFFFFFFFFFFFFFFF1D
:1003F000FFFFFFFFFFFFFFFFFFFFFFFFFFFFFFFF0D
:10040000FFFFFFFFFFFFFFFFFFFFFFFFDEF9FFFF23
:1004100010B5054C237833B9044B13B10448AFF33E
:1004200000800123237010BD3092FF1F00000000E8
:10043000E8520100084B10B51BB108490848AFF35A
:1004400000800848036803B910BD074B002BFBD0A0
:10045000BDE81040184700BF000000003492FF1FA5
:10046000E85201003092FF1F00000000F0B400F1DC
:1004700014060F4F00243146031F00F12C0243F8ED
:10048000044FB34241F8047F4FF0000542F8044F97
:10049000F5D1084B084985640022C56405654565AA
:1004A000456683650366C16580F88420F0BC7047AB
:1004B0000000A040000048430000C8C200230360C1
:1004C00043608360C3600361436183640365436584
:1004D000704700BF2DE9F04190F8844084B00023BC
:1004E00064008DF80530E4B2012380468DF80440A5
:1004F0008DF80630032720460BF000FB02210DF19A
:1005000005000BF005FB8DF8044002F0DBFC30B376
:100510000921C9480CF032FB002310222146C748AC
:1005200009F096FF0121C6480CF028FB0023102299
:100530009DF80510C14809F08BFF0121C0480CF05F
:100540001DFB002310229DF80610BC4809F080FF17
:100550000121BB480CF012FBB84809F069FF0220EA
:100560008DF804400AF0BEFD02F0ACFC002840F01B
:10057000778102AE00240BF0E1FA002800F026811A
:10058000042C40F0158101E00BF0E8FA0BF0D6FAEC
:100590000028F9D102F096FC10B1A84809F048FFF4
:1005A00098F884406400E4B2202204238DF80440CB
:1005B0008DF805208DF80630032720460BF09EFAB3
:1005C00002210DF105000BF0A3FA8DF8044002F0B2
:1005D00079FC30B3092198480CF0D0FA002310229E
:1005E0002146964809F034FF012195480CF0C6FADF
:1005F000002310229DF80510904809F029FF0121E1
:100600008F480CF0BBFA002310229DF806108B488F
:1006100009F01EFF01218A480CF0B0FA874809F062
:1006200007FF02208DF804400AF05CFD02F04AFC4E
:10063000002840F00B8102AE00240BF07FFA002866
:1006400000F0A980072C40F0988001E00BF086FABA
:100650000BF074FA0028F9D102F034FC10B177489D
:1006600009F0E6FE98F884409DF80B209DF80C30C8
:100670009DF80D00C8F870206400E4B29DF80E10DB
:10068000C8F87430332201238DF80440C8F878008C
:10069000C8F87C108DF805208DF806300327204619
:1006A0000BF02CFA02210DF105000BF031FA8DF858
:1006B000044002F007FC30B309215F480CF05EFAF9
:1006C0000023102221465D4809F0C2FE01215C484A
:1006D0000CF054FA002310229DF80510574809F039
:1006E000B7FE012156480CF049FA002310229DF86C
:1006F0000610524809F0ACFE012151480CF03EFAB8
:100700004E4809F095FE02208DF804400AF0EAFCFC
:1007100002F0D8FB002840F09E8002AE00240BF0CF
:100720000DFAF8B1042C0FD101E00BF017FA0BF021
:1007300005FA0028F9D102F0C5FB10B13F4809F0D5
:1007400077FE04B0BDE8F0810BF008FA054606F824
:10075000010B02F0B7FB00285AD101340BF0EEF97F
:100760000028DFD1042CE2D002F0ACFB00285ED1DF
:10077000013FE6D09DF8044091E70BF0EFF9054604
:1007800006F8010B02F09EFB60BB01340BF0D6F9BA
:1007900000287FF457AF072C3FF45AAF02F092FBCA
:1007A00000284FD1013F3FF45DAF9DF8044004E7BE
:1007B0000BF0D4F9054606F8010B02F083FBE0B913
:1007C00001340BF0BBF900287FF4DAAE042C3FF4BF
:1007D000DDAE02F077FB30BB013F3FF4E1AE9DF8A8
:1007E000044088E6E9B200231022144809F030FEE4
:1007F000012113480CF0C2F9C7E7E9B20023102227
:100800000E4809F025FE01210D480CF0B7F9D7E795
:10081000E9B200231022094809F01AFE0121084814
:100820000CF0ACF999E7054809F002FED4E703485B
:1008300009F0FEFD9CE700BFD8350100D087FF1FFF
:100840000C3D0100094809F0F3FDABE7072108481A
:100850000CF094F9EFE6072105480CF08FF95CE7FE
:10086000072103480CF08AF983E600BFD087FF1FF9
:10087000E435010090F87400704700BF90F87000F4
:10088000704700BF90F87800704700BF90F87C0078
:10089000704700BF2DE9F04390F8848085B04FEA9F
:1008A00048085FFA88F8322200238DF804808DF81A
:1008B00005208DF8063003250DF1060748F00109E3
:1008C00048460BF01BF901AE0DF1050002210BF0BB
:1008D0001FF98DF804904A46334600205040082402
:1008E00010F0800F4FEA400018BF80F00700013C75
:1008F000C0B2F5D1BB4202D013F8012FEEE70BF0E6
:10090000FDF802F0DFFA00284AD102208DF80480B9
:100910000AF0E8FB02F0D6FA002840F081800DF1E1
:10092000080800240BF00AF908B3042C12D101E0E6
:100930000BF014F90BF002F90028F9D102F0C2FA19
:1009400010B13A4809F074FD02200AF0CBFB05B063
:10095000BDE8F0830BF002F908F8010B064602F03F
:10096000B1FA70B901340BF0E9F80028DDD1042C9C
:10097000E0D002F0A7FA78B9013DE5D09DF80480F7
:100980009CE7F1B200231022284809F061FD012103
:1009900027480CF0F3F8E5E7244809F049FDEBE7B8
:1009A000092124480CF0EAF82346102249461F4842
:1009B00009F04EFD01211E480CF0E0F823461022FC
:1009C0009DF80510194809F043FD012118480CF065
:1009D000D5F8102223469DF80610144809F038FD7A
:1009E000012113480CF0CAF821460DF1070216F850
:1009F000014B6140C9B2082311F0800F4FEA410159
:100A000018BF81F00701013BC9B2F5D1B242EED166
:100A10001022064809F01CFD044809F009FD74E79E
:100A2000072105480CF0AAF879E700BFD087FF1F1F
:100A30000C3D0100D8350100E43501002DE9F04FEF
:100A4000074691B097F8843002205B008DF808309B
:100A50000AF048FB97F8843038465B008DF8083080
:100A6000FFF738FDB86FFC6F7B6F3A6F97F8841013
:100A70008DE81100C94802F02BFB30223D238DF890
:100A800009208DF80A3003260DF10A059DF808901B
:100A900049F0010840460BF031F80DF10900022140
:100AA0000BF036F88DF80880424602AB002050402B
:100AB000082410F0800F4FEA400018BF80F00700B4
:100AC000013CC0B2F5D1AB4202D013F8012FEEE7E2
:100AD0000BF014F802F0F6F9002840F07D820220B5
:100AE0008DF808900AF0FEFA02F0ECF9002840F0C8
:100AF000B9820DF10C0AD14600240BF01FF8002832
:100B000043D0032C34D101E00BF028F80BF016F899
:100B10000028F9D102F0D6F910B1A14809F088FCFB
:100B2000312303268DF809308DF80A609DF808906E
:100B300049F0010840460AF0E1FF0DF109000221E9
:100B40000AF0E6FF8DF80880424602AB00205040D4
:100B5000082410F0800F4FEA400018BF80F0070013
:100B6000013CC0B2F5D19D4228D013F8012FEEE729
:100B70000AF0F4FF09F8010B804602F0A3F968B906
:100B800001340AF0DBFF0028BBD1032CBED002F0F9
:100B900099F978B9013E7FF479AFC1E75FFA88F13E
:100BA000002310227E4809F053FC01217D480BF000
:100BB000E5FFE5E77A4809F03BFCEBE70AF09EFF2A
:100BC00002F080F9002840F0C68102208DF80890DC
:100BD0000AF088FA02F076F9002840F03E820DF122
:100BE0000C0900240AF0AAFF002844D0032C35D1B8
:100BF00001E00AF0B3FF0AF0A1FF0028F9D102F0EA
:100C000061F910B1664809F013FC342201238DF814
:100C100009208DF80A3003269DF8089049F0010854
:100C200040460AF06BFF0DF1090002210AF070FF47
:100C30008DF80880424602AB00205040082410F096
:100C4000800F4FEA400018BF80F00700013CC0B29F
:100C5000F5D1AB4228D013F8012FEEE70AF07EFF62
:100C600009F8010B804602F02DF968B901340AF049
:100C700065FF0028BAD1032CBDD002F023F978B962
:100C8000013E7FF453AFC0E75FFA88F100231022E2
:100C9000434809F0DDFB012142480BF06FFFE5E717
:100CA0003F4809F0C5FBEBE70AF028FF02F00AF91C
:100CB000002840F00F8102208DF808900AF012FA07
:100CC00002F000F9002840F0D7810DF10C09002452
:100CD0000AF034FF002800F08580032C73D101E076
:100CE0000AF03CFF0AF02AFF0028F9D102F0EAF8E6
:100CF00010B12B4809F09CFB012212238DF809202A
:100D00008DF80A304FF003089DF8084020460AF09D
:100D1000F5FE02210DF109000AF0FAFE8DF80840F7
:100D200002F0D0F830B309211F480BF027FF002351
:100D3000102221461A4809F08BFB012119480BF0BB
:100D40001DFF002310229DF80910154809F080FBB3
:100D5000012114480BF012FF002310229DF80A1005
:100D60000F4809F075FB01210E480BF007FF0C48F6
:100D700009F05EFB06208DF808400AF0B3F902F096
:100D8000A1F8002840F0738103AD00260AF0D6FEDA
:100D9000002840D0162E30D10AE000BFEC3501000B
:100DA000D087FF1F0C3D0100D83501000AF0D6FEA8
:100DB0000AF0C4FE0028F9D102F084F816260028B3
:100DC0007DD1152035E00AF0C9FE09F8010B8046F7
:100DD00002F078F800285BD101340AF0AFFE002859
:100DE0007FF47BAF032C3FF47DAF02F06BF800285B
:100DF0006CD1013E7FF410AF7EE70AF0AFFE05F83C
:100E0000010B044602F05EF800284DD101360AF0CD
:100E100095FE0028BED1162ECAD002F053F8002845
:100E20004DD1B8F101087FF46FAF701E002840F378
:100E30003582002303AA1C4612F8011B08254C40EA
:100E400014F0800F4FEA440418BF84F00704013DFA
:100E5000E4B2F5D101338342EEDB9DF8218089486D
:100E60004146224602F034F9162EC146A34602D16D
:100E7000A04500F0138197F884108348CDF800B0A6
:100E80004B46324602F052F9002011B0BDE8F08F17
:100E90005FFA88F1002310227C4809F0D9FA012179
:100EA0007B480BF06BFE97E7E1B2002310227748F6
:100EB00009F0CEFA012176480BF060FEA6E77348F0
:100EC00009F0B6FA162EACD11520B2E76F4809F03A
:100ED000AFFA8EE709216F480BF050FE234610222F
:100EE00041466A4809F0B4FA012169480BF046FE10
:100EF000234610229DF80910644809F0A9FA01213F
:100F000063480BF03BFE102223469DF80A105F4811
:100F100009F09EFA01215E480BF030FE21460DF1EA
:100F20000B0002AA12F8014B6140C9B2082311F06C
:100F3000800F4FEA410118BF81F00701013BC9B2A0
:100F4000F5D19042EED11022504809F081FA4F4875
:100F500009F06EFAAFE609214E480BF00FFE23466A
:100F600010224146494809F073FA012148480BF024
:100F700005FE234610229DF80910444809F068FA3E
:100F8000012143480BF0FAFD102223469DF80A1078
:100F90003E4809F05DFA01213D480BF0EFFD214686
:100FA0000DF10B0002AA12F8014B6140C9B20823EF
:100FB00011F0800F4FEA410118BF81F00701013B9A
:100FC000C9B2F5D19042EED11022304809F040FA72
:100FD0002E4809F02DFAF8E509212E480BF0CEFD38
:100FE000234610224146294809F032FA01212848B7
:100FF0000BF0C4FD234610229DF80910234809F088
:1010000027FA012122480BF0B9FD102223469DF852
:101010000A101E4809F01CFA01211D480BF0AEFD14
:1010200021460DF10B0002AA12F8014B6140C9B232
:10103000082311F0800F4FEA410118BF81F007012A
:10104000013BC9B2F5D19042EED110220F4809F010
:10105000FFF90E4809F0ECF941E507210E480BF0C5
:101060008DFDBCE507210C480BF088FD41E507210B
:1010700009480BF083FD87E6072107480BF07EFD4A
:1010800023E600BF203601006C360100D087FF1F29
:101090000C3D0100D8350100E43501009DF80C300D
:1010A00097F88420B3EB420F7FF4EEAE9DF80D303D
:1010B000012B7FF4E9AE9DF80E30122B7FF4E4AEE5
:1010C0009DF810309DF80F0003EB00200DF03EFF5F
:1010D0008B490DF08FFF796EF86404460EF046F9E7
:1010E00000B17C66396E20460EF022F900B13C66F4
:1010F0003D1FAB4607F1180807F130064FF0000915
:101100009AF806309AF8050003EB00200DF01EFF58
:101110007C490DF06FFF4BF8040FD8F8001004461F
:101120000EF006F909F101090AF1020A30B1B96EAF
:1011300020460EF011F908B1C8F800403168204689
:101140000EF014F908F1040800B13460B9F1060F8B
:1011500006F10406D4D10020B86407F1140455F850
:10116000041F0DF03FFEAC42F9D19DF81D209DF803
:101170001E30B86403EB022002300DF0E7FE624936
:101180000DF0ECFF014661480DF0E8FF60490DF0FD
:1011900027FE60490DF02EFF05460BF099FF04462F
:1011A00028460BF095FF5C490CF004F85B490546B6
:1011B00020460DF01FFF5A490DF014FE5949044610
:1011C00028460DF017FF014620460DF00BFE0146A4
:1011D0004FF07E500DF0C2FF53490DF001FE9DF817
:1011E0001F209DF82030386503EB022009300DF0F8
:1011F000ADFE4E490DF0B2FF014644480DF0AEFF82
:1012000043490DF0EDFD43490DF0F4FE05460BF0AA
:101210005FFF044628460BF05BFF3F490BF0CAFF17
:101220003E49054620460DF0E5FE3D490DF0DAFD4C
:101230003C49044628460DF0DDFE014620460DF0EF
:10124000D1FD01464FF07E500DF088FF36490DF07C
:10125000C7FDD7F8808078650446B8F1000F3BD110
:101260003D6D29462E460EF081F868B32946B86DCB
:101270000EF07CF8E0B1BD65B8F1000F17D008F1B1
:10128000130657F82640F96D20460EF06FF800B1AE
:10129000FC65274801F01CFF0120F6E59DF8219030
:1012A000244849464246C34601F012FFE3E53E6D3D
:1012B000314620460EF05AF8C8B1F96D20460EF0BE
:1012C00055F80028E4D1E4E7B96D20460EF030F877
:1012D0000028EDD02546CEE708F11306B96D57F882
:1012E000265028460EF024F80028C4D1C9E731461C
:1012F000F86D0EF01DF80028CBD03446C8E700BFCB
:101300006B57053B2003C839001601470AD7E33F56
:10131000E17A644000007A4400004040A40D8F3917
:101320005A80473A46A6DB3333938843002C014763
:101330004436010020360100052994BF50F82100F1
:10134000002070472DE9F0410B4E8046041F00F14C
:10135000140754F8045F314628460DF0E9FF30B118
:10136000D8F8681028460EF001F800B12E46BC42AD
:10137000EFD13046BDE8F08100002041F8B50026ED
:10138000041F00F1140754F8045F314628460DF09D
:10139000EDFF00B12E46BC42F5D13046F8BD00BF8E
:1013A0002DE9F047876E82464FF00009041F00F1D7
:1013B00014064FF0000854F8045F394628460DF033
:1013C000D5FF0D4950B128460DF0B2FF30B1484667
:1013D00029460DF007FD08F101088146B442EAD123
:1013E000CAF8888040460DF0B1FD014648460DF030
:1013F000B5FEBDE8F08700BF00007042D0F888005D
:10140000704700BF38B5D0F8803043B9456D046DE2
:10141000294620460DF08CFF30B1204638BD1333ED
:1014200050F82340204638BD2C46204638BD00BF2A
:1014300038B5D0F8803043B9446D056D2146284653
:101440000DF076FF30B1204638BD133350F82340FD
:10145000204638BD2C46204638BD00BF08B5D0F820
:1014600080301BB1133350F8230008BD416D006D6F
:101470000DF0B8FC4FF07C510DF0BCFD08BD00BF75
:10148000806C704701299ABF143150F82100002068
:10149000704700BF3E2998BF80F88410704700BF96
:1014A00090F86C00704700BFC0F88010704700BF14
:1014B00080F86C10704700BF8166704770B500F50A
:1014C0000A5506461C3500F1280420468C34FEF7E8
:1014D000CDFFAC42F9D106F1B40501242846002124
:1014E000FFF7E6FF214628460134FFF7D3FF3F2CE4
:1014F00005F18C05F2D142F2A42400250548064AE4
:10150000064B3555002130617161B261F36130469F
:1015100070BD00BF00007A44000048430000C8C20C
:1015200038B500F50A551C3500F1B40402E08C34DE
:10153000AC420AD02046FFF7B3FF0028F7D0204680
:101540008C34FEF7BBFFAC42F4D138BD2DE9F0413D
:1015500042F2A82300F50A56374600228046C250C0
:101560001C36283700F1B40402E08C34B4420DD0AC
:101570002046FFF795FF0028F7D020463D68FFF78B
:101580003DFF8C342844B4423860F1D142F2A823A4
:1015900058F80300BDE8F0812DE9F04F93B0814683
:1015A00042F2AC231046019201284FF0000206914E
:1015B00049F8032000F0038209F50A532C330793FE
:1015C00009F1B40A4FF0010B5046FFF769FFC0B1B3
:1015D00000263446012531465046D9F80870FFF7F9
:1015E000ABFE014638460DF0A3FE18B105FA06F32E
:1015F0001C43E4B20136062EEDD1019B012B0AD02B
:10160000F4B90BF1010BBBF13F0F0AF18C0ADBD1EE
:1016100013B0BDE8F08F5946BD4808F059FF0321CB
:10162000BC480BF0ABFA214600230222B84808F070
:101630000FFF0321B8480BF0A1FA002C00F018812D
:101640004FEA4B03DBB21946029343F001039DF8C6
:10165000182003931D46184633238DF826208DF855
:1016600025308DF824100AF049FA0DF125000221E9
:101670000AF04EFA09AA05928DF824502A4609ABC1
:101680000DF1260600205040082510F0800F4FEA8B
:10169000400018BF80F00700013DC0B2F5D19E4266
:1016A00002D013F8012FEEE70AF028FA01F00AFC45
:1016B000002840F0EC809DF808308DF8243002209E
:1016C00009F010FD01F0FEFB002840F06E810AAB2E
:1016D00004931F4600250AF031FA002844D01E2D3D
:1016E00035D101E00AF03AFA0AF028FA0028F9D1D7
:1016F00001F0E8FB00283DD1019B012B40D0039D68
:101700009DF808208DF82420322328468DF82530B6
:101710008DF826400AF0F2F90DF1250002210AF0B9
:10172000F7F98DF8245009AB2A46002050400825CF
:1017300010F0800F4FEA400018BF80F00700013D15
:10174000C0B2F5D19E423BD013F8012FEEE70AF06C
:1017500005FA07F8010B804601F0B4FB20BB013508
:101760000AF0ECF90028BAD11E2DBDD001F0AAFB79
:101770000028C1D0664808F05BFE019B012BBED15A
:10178000049D0BAF15F8011B61480023102208F0DF
:101790005FFE012161480BF0F1F9AF42F2D1032164
:1017A0005D480BF0EBF9AAE75FFA88F100231022FD
:1017B000574808F04DFE012159480BF0DFF9CEE7FC
:1017C0000AF09CF901F07EFB002840F0AD809DF806
:1017D00008308DF82430022009F084FC01F072FBFF
:1017E000002840F0E780049E00250AF0A7F900B326
:1017F0001E2D11D101E00AF0B1F90AF09FF900287D
:10180000F9D101F05FFBD0B9019B012B1DD0079AE4
:1018100013681C441460F4E60AF0A0F906F8010B02
:10182000074601F04FFB38BB01350AF087F9002865
:10183000DED11E2DE1D001F045FB0028E4D0344874
:1018400008F0F6FD019B012BE1D1049E0BAD16F8CB
:10185000011B2F480023102208F0FAFD01212F4818
:101860000BF08CF9AE42F2D1079A1368234413604F
:10187000274808F0DDFDC4E6F9B200231022244811
:1018800008F0E6FD012126480BF078F9CCE70921A4
:1018900024480BF073F92B46102203991C4808F0DA
:1018A000D7FD01211E480BF069F92B4610229DF847
:1018B0002510174808F0CCFD012119480BF05EF9FE
:1018C00010222B469DF82610114808F0C1FD012179
:1018D00013480BF053F929460DF1270009AA12F815
:1018E000013B5940C9B2082311F0800F4FEA410172
:1018F00018BF81F00701013BC9B2F5D19042EED18A
:101900001022034808F0A4FD014808F091FDD2E63A
:10191000D087FF1FBC360100C0360100C43601006D
:101920000C3D0100D8350100092127480BF026F9AC
:101930002B4610220399254808F08AFD01212448EE
:101940000BF01CF92B4610229DF825101F4808F0BB
:101950007FFD01211E480BF011F910222B469DF846
:1019600026101A4808F074FD012119480BF006F9F9
:10197000059829460DF1270210F8013B5940C9B2DC
:10198000082311F0800F4FEA410118BF81F00701D1
:10199000013BC9B2F5D18242EED110220B4808F0CA
:1019A00057FD0A4808F044FD11E7072109480BF0EC
:1019B000E5F88CE6072107480BF0E0F813E7034849
:1019C00008F036FDF8E500BFD8350100D087FF1FCD
:1019D0000C3D0100E43501002DE9F04F824685B051
:1019E0004FF0000901238DF800908DF801908DF8DB
:1019F00002304FF00308002420460AF07FF802214D
:101A00000DF101000AF084F88DF8004001F05AFA57
:101A100030B30921B5480BF0B1F80023102221465C
:101A2000B34808F015FD0121B2480BF0A7F80023D8
:101A300010229DF80110AE4808F00AFD0121AD48C2
:101A40000BF09CF8002310229DF80210A84808F023
:101A5000FFFC0121A7480BF091F8A54808F0E8FC2D
:101A600002208DF8004009F03DFB01F02BFA002820
:101A700040F0898001AF3E4600240AF05FF800285C
:101A800067D0042C58D101E00AF068F80AF056F843
:101A90000028F9D101F016FA10B1954808F0C8FCF9
:101AA0009DF80430802B40F01E819DF80530002BFE
:101AB00040F019819DF80640012C40F014818E48B9
:101AC00001F006FB0AF1B406254604E001353F2D7E
:101AD00006F18C0686D03046FFF7E2FC83460028EC
:101AE000F4D13B2265F07F0301208DF801208DF8B1
:101AF00002308DF800B00AF001F80DF1010002216A
:101B00000AF006F801228DF80020E84658466B4698
:101B10000DF102026040C0B2082410F0800F4FEABD
:101B2000400018BF80F00700013CC0B2F5D19342DD
:101B30002ED013F8014FEDE70AF010F806F8010B6C
:101B4000054601F0BFF998B9013409F0F7FF002804
:101B500097D1042C9AD001F0B5F910B1644808F07F
:101B600067FCB8F1010800F0BE809DF8004043E733
:101B7000E9B2002310225E4808F06AFC01215D48AA
:101B80000AF0FCFFE0E707215C480AF0F7FF71E785
:101B900009F0B4FF01F096F900285AD103208DF81E
:101BA000009009F09FFA01F08DF9002840F096802E
:101BB000002409F0C3FFB0B30A2C27D101E009F0DB
:101BC000CDFF09F0BBFF0028F9D101F07BF9002817
:101BD0007FD19DF80430812B7FF404AF9DF8053050
:101BE0003B2B7FF4FFAE9DF806308035AB427FF48F
:101BF000F9AE30460121FFF75BFC0AF50A53404875
:101C00001A6A01321A6201F063FAEBE609F0A6FFE4
:101C100007F8010B804601F055F970B9013409F05D
:101C20008DFF0028C8D10A2CCBD001F04BF9002839
:101C300050D1022C7FF7D6AECBE75FFA88F10023B4
:101C400010222B4808F004FC01212A480AF096FFD4
:101C5000E4E7092125480AF091FF234610220121DB
:101C6000234808F0F5FB012122480AF087FF2346AC
:101C700010229DF801101E4808F0EAFB01211D48C2
:101C80000AF07CFF102223469DF80210184808F045
:101C9000DFFB012117480AF071FF21460DF1030215
:101CA00018F8014B6140C9B2082311F0800F4FEAC8
:101CB000410118BF81F00701013BC9B2F5D142458E
:101CC000EED110220A4808F0C3FB094808F0B0FB27
:101CD00064E70A24064808F0ABFBAAE70721074897
:101CE0000AF04CFF64E705B0BDE8F08FD83501007D
:101CF000D087FF1F0C3D0100C8360100E43501000C
:101D0000D43601002DE9F04742F2A02284B000232E
:101D10000127835082468DF804308DF8053000F19C
:101D2000B4088DF806704FEA47095FFA89F400217C
:101D30004046FFF7BDFB20468DF8044009F0DEFE6B
:101D400002210DF1050009F0E3FE8DF8044001F0D9
:101D5000B9F830B3092149480AF010FF00231022D6
:101D60002146474808F074FB012146480AF006FF67
:101D7000002310229DF80510414808F069FB01215D
:101D800040480AF0FBFE002310229DF806103C4854
:101D900008F05EFB01213B480AF0F0FE384808F0ED
:101DA00047FB14208DF8044009F09CF901F08AF8F3
:101DB00000285DD102AE002409F0C0FE40B3082C1B
:101DC00019D101E009F0CAFE09F0B8FE0028F9D1E6
:101DD00001F078F8002846D19DF808304B4522D014
:101DE0000137052009F07EF93F2F08F18C089AD1C0
:101DF00004B0BDE8F08709F0B1FE054606F8010B16
:101E000001F060F820BB013409F098FE0028D6D11B
:101E1000082CD9D001F056F830BB042CE0DD9DF839
:101E200008304B45DCD19DF80930002BD8D19DF806
:101E30000A100129D4D19DF80C30002BD0D0404697
:101E4000FFF736FB0AF50A531A6A01321A62C7E72E
:101E5000E9B2002310220A4808F0FAFA01210948E1
:101E60000AF08CFECFE70824054808F0E1FAD4E731
:101E7000072105480AF082FE9CE700BFD835010023
:101E8000D087FF1F0C3D0100E43501002DE9F0472C
:101E900000F50A56354684B080461C36203500F1E0
:101EA000B4040027204600218C34FFF701FBB44224
:101EB0002F60F7D102270DF106064FF07F093C2273
:101EC000A5237E217F208DF805208DF806308DF822
:101ED000041001AD09F012FE0DF10500022109F018
:101EE00017FE8DF804902B467F22002050400824D6
:101EF00010F0800F4FEA400018BF80F00700013C4F
:101F0000C0B2F5D1B34202D013F8012FEEE709F0C9
:101F1000F5FD00F0D7FF00285AD17E2364208DF80C
:101F2000043009F0DFF800F0CDFF002840F0908089
:101F30000DF1080A002409F001FE20B3082C15D188
:101F400001E009F00BFE09F0F9FD0028F9D100F0DD
:101F5000B9FFF0B99DF808307F2B21D0013FAED1F9
:101F60004046FFF739FD04B0BDE8F08709F0F6FD03
:101F700005460AF8010B00F0A5FFF0B9013409F09D
:101F8000DDFD0028DAD1082CDDD000F09BFF002811
:101F9000E0D0324808F04CFA9DF808307F2BDDD1B4
:101FA0009DF809303C2BD9D19DF80A30A52BD5D10D
:101FB0009DF80B30572BD1D1D2E7E9B20023102284
:101FC000264808F045FA012125480AF0D7FDD5E753
:101FD000092124480AF0D2FD234610227F211F4800
:101FE00008F036FA01211E480AF0C8FD23461022E7
:101FF0009DF80510194808F02BFA012118480AF03D
:10200000BDFD102223469DF80610144808F020FA62
:10201000012113480AF0B2FD21460DF1070215F81F
:10202000014B6140C9B2082311F0800F4FEA410112
:1020300018BF81F00701013BC9B2F5D1AA42EED128
:102040001022064808F004FA044808F0F1F964E7A1
:10205000072105480AF092FD6AE700BFD087FF1FFD
:102060000C3D0100D8350100E43501002DE9F043B5
:1020700085B04FF07F082022FF2381468DF8048031
:102080008DF805208DF8063003260DF1060548F081
:102090000107384609F032FD0DF10500022109F073
:1020A00037FD8DF804703A4601AB002050400824FB
:1020B00010F0800F4FEA400018BF80F00700013C8D
:1020C000C0B2F5D1AB4202D013F8012FEEE709F010
:1020D00015FD00F0F7FE002840F0768202208DF812
:1020E000048008F0FFFF00F0EDFE002840F0B2820F
:1020F0000DF10808002409F021FD002843D0042C2C
:1021000034D101E009F02AFD09F018FD0028F9D1C9
:1021100000F0D8FE10B1C14808F08AF94FF07F08EE
:1021200000238DF804808DF80630032648F001075F
:10213000384609F0E3FC0DF10500022109F0E8FC46
:102140008DF804703A4601AB00205040082410F08E
:10215000800F4FEA400018BF80F00700013CC0B27A
:10216000F5D1AB4228D013F8012FEEE709F0F6FCC9
:1021700008F8010B074600F0A5FE70B9013409F01C
:10218000DDFC0028BBD1042CBED000F09BFE78B94A
:10219000013EC3D09DF8048079E7F9B200231022F4
:1021A0009E4808F055F901219D480AF0E7FCE5E753
:1021B0009A4808F03DF9EBE709F0A0FC00F082FE38
:1021C000002840F0C08102208DF8048008F08AFFCA
:1021D00000F078FE002840F038820DF10808002455
:1021E00009F0ACFC002846D0042C37D101E009F0FE
:1021F000B5FC09F0A3FC0028F9D100F063FE10B192
:10220000864808F015F94FF07F082122FF238DF84A
:1022100004808DF805208DF80630032648F001076C
:10222000384609F06BFC0DF10500022109F070FC45
:102230008DF804703A4601AB00205040082410F09D
:10224000800F4FEA400018BF80F00700013CC0B289
:10225000F5D19D4228D013F8012FEEE709F07EFC5E
:1022600008F8010B074600F02DFE70B9013409F0A3
:1022700065FC0028B8D1042CBBD000F023FE78B94F
:10228000013EC0D09DF8048050E7F9B2002310222F
:10229000624808F0DDF8012161480AF06FFCE5E7CB
:1022A0005E4808F0C5F8EBE709F028FC00F00AFEEC
:1022B000002840F0078102208DF8048008F012FF0A
:1022C00000F000FE002840F0CF810DF10808002446
:1022D00009F034FC002843D0042C34D101E009F08B
:1022E0003DFC09F02BFC0028F9D100F0EBFD10B10A
:1022F0004A4808F09DF84FF07F0800238DF80480CD
:102300008DF80630032648F00107384609F0F6FB41
:102310000DF10500022109F0FBFB8DF804703A462F
:1023200001AB00205040082410F0800F4FEA40001D
:1023300018BF80F00700013CC0B2F5D19D4228D003
:1023400013F8012FEEE709F009FC08F8010B074626
:1023500000F0B8FD70B9013409F0F0FB0028BBD1E2
:10236000042CBED000F0AEFD78B9013EC3D09DF87C
:10237000048053E7F9B200231022284808F068F8D7
:10238000012127480AF0FAFBE5E7244808F050F855
:10239000EBE709F0B3FB00F095FD002851D10220D6
:1023A0008DF8048008F09EFE00F08CFD002840F0BF
:1023B00056810DF10808002409F0C0FB18B3042C65
:1023C00014D101E009F0CAFB09F0B8FB0028F9D1EB
:1023D00000F078FD10B1114808F02AF842F2A42369
:1023E000002209F8032005B0BDE8F08309F0B6FB30
:1023F00008F8010B074600F065FD98B9013409F0B3
:102400009DFB0028DBD1042CDED000F05BFDA0B9E1
:10241000013EE3D09DF8048075E700BFD087FF1F21
:102420000C3D0100F9B200231022924808F010F888
:10243000012191480AF0A2FBE0E78E4807F0F8FF7F
:10244000E6E709218D480AF099FB23461022394618
:10245000884807F0FDFF012187480AF08FFB2346DB
:1024600010229DF80510834807F0F2FF01218248F1
:102470000AF084FB102223469DF806107D4807F0E1
:10248000E7FF01217C480AF079FB21460DF10700A6
:1024900001AA12F8014B6140C9B2082311F0800F64
:1024A0004FEA410118BF81F00701013BC9B2F5D1E4
:1024B0009042EED110226F4807F0CAFF6D4807F036
:1024C000B7FF6CE709216D480AF058FB234610223C
:1024D0003946684807F0BCFF012167480AF04EFB07
:1024E000234610229DF80510624807F0B1FF012134
:1024F00061480AF043FB102223469DF806105D4810
:1025000007F0A6FF01215C480AF038FB21460DF1D7
:10251000070001AA12F8014B6140C9B2082311F06B
:10252000800F4FEA410118BF81F00701013BC9B29A
:10253000F5D19042EED110224E4807F089FF4D4868
:1025400007F076FFB7E609214C480AF017FB23464F
:1025500010223946474807F07BFF012146480AF020
:102560000DFB234610229DF80510424807F070FF2E
:10257000012141480AF002FB102223469DF8061073
:102580003C4807F065FF01213B480AF0F7FA214675
:102590000DF1070001AA12F8014B6140C9B20823EE
:1025A00011F0800F4FEA410118BF81F00701013B94
:1025B000C9B2F5D19042EED110222E4807F048FF63
:1025C0002C4807F035FFFEE509212C480AF0D6FA21
:1025D000234610223946274807F03AFF01212648B2
:1025E0000AF0CCFA234610229DF80510214807F086
:1025F0002FFF012120480AF0C1FA102223469DF83E
:1026000006101C4807F024FF01211B480AF0B6FA07
:1026100021460DF1070001AA12F8014B6140C9B231
:10262000082311F0800F4FEA410118BF81F0070124
:10263000013BC9B2F5D19042EED110220D4807F00E
:1026400007FF0C4807F0F4FE48E507210C480AF0A4
:1026500095FAC2E507210A480AF090FA48E50721F1
:1026600007480AF08BFAA4E6072105480AF086FA23
:102670002BE600BFD087FF1F0C3D0100D8350100BD
:10268000E435010038B500F50A551C3500F1B404F5
:1026900002E08C34AC420AD02046FEF701FF00284D
:1026A000F7D020468C34FEF7F5F8AC42F4D138BDB3
:1026B0002DE9F04F00218C4A8C4B016000F1B405EC
:1026C00000F50A5783B08246426203622C461C37EB
:1026D00002E08C34BC420AD02046FEF7E1FE00281E
:1026E000F7D020468C34FEF7D5F8BC42F4D1C82090
:1026F00008F0F8FC2C46012604E001363F2E04F1D8
:102700008C046ED02046FEF7CBFE0028F5D078482A
:1027100000F0DEFC3146774800F0DAFC2046FEF798
:102720008DF92046FEF7ACFE0BF0BAFF02460B46D1
:10273000714800F0CDFC2046FEF704FE804620469E
:10274000FEF71CFE834640460BF0AAFF8046584623
:1027500089460BF0A5FF42464B46CDE9000167488C
:1027600000F0B6FC00212046FEF78CFE01218046D9
:102770002046FEF787FE834640460BF091FF8046D9
:10278000584689460BF08CFF42464B46CDE9000186
:102790005B4800F09DFC2046FEF772FE0146DAF829
:1027A00000000CF01FFBCAF800002046FEF72AFECE
:1027B000DAF818100CF0BCFD00287BD12046FEF79B
:1027C00037FEDAF81C100CF0D1FD002895D0204619
:1027D000FEF72EFE01363F2ECAF81C0004F18C04D1
:1027E00090D1DAF804000CF0B1FB0146DAF80000F1
:1027F0000CF0B4FCDAF81410CAF8000004460CF02F
:10280000B5FD08B1CAF81440DAF8101020460CF0F3
:102810008FFD08B1CAF810400B2008F02DFC42F2E1
:10282000A4231AF8033000284AD1002B58D042F2D2
:10283000A42301220AF803200023CAF80C302C46F6
:1028400002E08C34BC4215D02046FEF729FE002859
:10285000F7D02046FEF792FDDAF80C100CF086FD5A
:102860000028EED02046FEF789FD8C34BC42CAF821
:102870000C00E9D1234BCAF8083002E08C35BD4288
:1028800015D02846FEF70CFE0028F7D02846FEF7A4
:1028900059FDDAF808100CF04BFD0028EED0284660
:1028A000FEF750FD8C35BD42CAF80800E9D103B0EF
:1028B000BDE8F08F2046FEF7A5FDCAF818007DE7B9
:1028C0002BB942F2A42300220AF80320B4E70E48F1
:1028D00000F016FC42F2A42300220AF80320ABE722
:1028E0000A4800F023FCA2E700C0794400C079C484
:1028F000F83E0100E83601002437010038370100B6
:10290000643701000000A040B837010080370100A3
:1029100042F2AC23C058704780687047C068704767
:102920000068704741607047F8B500F50A550F46DA
:1029300016461C3500F1B40402E08C34AC420FD0D2
:102940002046FEF7ADFD0028F7D020463946FEF7B9
:10295000ABFD204631468C34FEF7AEFDAC42EFD1E4
:10296000F8BD00BF2DE9F041274A284B426200F52F
:102970000A5507464FF0000803621C3500F1B40405
:10298000002602E08C34A54210D02046FEF788FDD8
:102990000028F7D02046FEF761FD1D490CF0E6FC4B
:1029A00080B98C34A54206F10106EED142F2A02393
:1029B000F858801B0CF0CAFA014640460CF0CEFBDA
:1029C000BDE8F0812046FEF749FD014640460CF087
:1029D00009FA80462046FEF72BFD396A0CF0C6FC4A
:1029E00060B92046FEF70EFD796A0CF0A1FC0028C4
:1029F000C8D02046FEF706FD7862C3E72046FEF702
:102A000017FD3862EDE700BF00C0794400C079C40B
:102A100000008CC2006A7047406A7047F8B500F544
:102A20000A55074600261C3500F1B40402E08C3438
:102A3000AC420FD02046FEF733FD0028F7D02046E9
:102A4000FEF7AEFC014630460CF0CCF98C34AC42BB
:102A50000646EFD142F2A023F8580CF077FA01466F
:102A600030460CF07BFBF8BD2DE9F04F06468FB0E9
:102A700076488B4600F0D4FA744800F0D1FA7348D7
:102A800000F0CEFA42F2A0233046F2580D92FEF743
:102A90005DFD73680C93074630680BF001FE8046BD
:102AA00030468946FFF7BAFF82463046B468F5687B
:102AB000FFF758FF0BF0F4FDCDE90A012146284647
:102AC0000CF08EF962490CF095FA0BF0E9FDCDE9B6
:102AD000080128460BF0E4FDCDE9060120460BF085
:102AE000DFFDCDE9040150460BF0DAFD0D9A0C9B99
:102AF000CDE90201CDE90089114656483A4600F079
:102B00008FFA524800F08CFAB43601274FF0000AD1
:102B100005E001373F2F06F18C0600F08E8030462D
:102B2000FEF7BEFC0028F4D03046FDF7A3FE304689
:102B3000FDF7A4FE3046FDF7A5FE3046FDF7A6FEE4
:102B4000082145480AF01AF83946444807F0C0FC05
:102B5000092F75DD022142480AF010F83046FEF7D1
:102B60008FFC0BF09DFD5FFA8BF902460B46CDF80A
:102B700000903A4807F0B4FC01213A4809F0FEFF02
:102B80005546002420E00621374809F0F7FF294682
:102B9000324807F09DFC0221344809F0EFFF21463E
:102BA0003046FEF7C9FB0BF07BFDCDF800900246E6
:102BB0000B462A4807F094FC01340121294809F00A
:102BC000DDFF062C09D04546092D05F10108DADCA8
:102BD0000121274809F0D2FFD5E71121254809F046
:102BE000CDFF00213046FEF74DFC0BF059FD0224CD
:102BF00002460B460094194807F072FC12211E4849
:102C000009F0BCFF01213046FEF73CFC0BF048FD0B
:102C1000009402460B46114807F062FC0121174858
:102C200009F0ACFF01370D4807F002FC3F2F0AF115
:102C3000060A06F18C067FF472AF0FB0BDE8F08F84
:102C400001210B4809F09AFF84E700BFF83E01001C
:102C500000007A44603A0100003B0100D087FF1F6A
:102C6000004C01000C3B0100103B0100FC3C01004A
:102C70000C3D0100183B01002C3B0100403B0100D2
:102C80002DE9F04F85B000F1B4058A4603929B46CA
:102C90002E464FF0010806E008F10108B8F13F0F99
:102CA00006F18C067BD03046FEF7FAFB0028F3D005
:102CB00000230A2251467D4807F0CAFB01217C48C7
:102CC00009F05CFF03980BF0EBFC00230246009335
:102CD00076480B4607F004FC0121754809F04EFFC9
:102CE0005946724807F0F4FB0121714809F046FF8C
:102CF00041466E4807F0ECFB01216D4809F03EFFAC
:102D000000244FF0020921463046FEF715FB0BF078
:102D1000C7FCCDF8009002460B46644807F0E0FB84
:102D200001340121624809F029FF082C4FF0020705
:102D3000E9D100213046FEF7A5FB0BF0B1FC00976E
:102D400002460B46594807F0CBFB0121584809F0D1
:102D500015FF01213046FEF795FB0BF0A1FC009713
:102D600002460B46514807F0BBFB0121504809F0D1
:102D700005FF39463046FEF785FB0BF091FC0097C6
:102D800002460B46494807F0ABFB08F101084748EB
:102D900007F04EFBB8F13F0F06F18C0683D10127F7
:102DA0004FF0000904E001373F2F05F18C0579D081
:102DB0002846FEF775FB0028F5D000230A2251466D
:102DC0003C4807F045FB0121394808F06BFC0398AB
:102DD0000BF066FCCDF8009002460B46354807F034
:102DE0007FFB0121324808F05DFC5946314807F06D
:102DF0006FFB01212E4808F055FC39462D4807F09D
:102E000067FB01212A4808F04DFC00244FF002081E
:102E100021462846FEF790FA0BF042FCCDF80080E0
:102E200002460B46234807F05BFB01340121204892
:102E300008F038FC082C4FF00206E9D100212846A2
:102E4000FEF720FB0BF02CFC009602460B461948BF
:102E500007F046FB0121164808F024FC0121284612
:102E6000FEF710FB0BF01CFC009602460B461148C7
:102E700007F036FB01210E4808F014FC31462846C5
:102E8000FEF700FB0BF00CFC009602460B460948CF
:102E900007F026FB0137074807F0CAFA3F2F05F174
:102EA0008C0585D105B0BDE8F08F00BFD087FF1F2E
:102EB000443B0100B487FF1F014B1870704700BFEF
:102EC0002087FF1F024B1878B0FA80F04009704746
:102ED0002087FF1F0278002A00F0908070B503461B
:102EE00082B00D46252A2AD158785C1C08B32528C3
:102EF0002FD0732831D0642824D0692822D06628A6
:102F00004FD07A2859D0782835D058282FD0622829
:102F10003ED0422838D06C2814D0632812D07428B0
:102F200057D054285FD009F0ADFE6278631C002AA8
:102F3000D8D1344802B0BDE8704007F079BA1878AB
:102F40001C46F0E72B1D29682E481D4607F0C0FAE5
:102F5000EBE7104609F096FEE7E72E6830460DF0E5
:102F60004FF801463046043509F008FEDDE702213E
:102F7000254809F003FE2E1D29682248002310224F
:102F8000354607F065FAD0E70221204809F0F6FD42
:102F90002E1D29681B4800230222354607F058FAE7
:102FA000C3E7073525F007050321D5E900231548B8
:102FB0000091083507F094FAB7E7073525F00705C3
:102FC0000021D5E900230F480091083507F088FA61
:102FD000ABE7296801290EBF0D480E4801210435D1
:102FE00009F0CCFDA1E72B68012B07BF04210A489B
:102FF0000A480521043509F0C1FD96E7014807F0AC
:1030000017BA00BFD087FF1F483B01004C3B0100AF
:10301000503B0100543B0100583B0100603B010064
:103020000FB400B583B004A951F8040B0191FFF768
:1030300051FF03B05DF804EB04B0704770B51B4B53
:103040001B4C1B6882B00D460193019B23601946FF
:1030500004460023164617480A2207F0F9F903210F
:10306000154809F08BFD032C07D8DFE804F01A158A
:1030700010020521114809F081FD0221104809F0D4
:103080007DFD31462846FFF725FF02B070BD0721C0
:103090000C4809F073FDF0E704210B4809F06EFDC0
:1030A000EBE70521094809F069FDE6E70CBAFF1FC7
:1030B0004C92FF1FD087FF1FBC360100803B0100F0
:1030C000FC3C0100783B0100703B0100683B0100C3
:1030D0000FB400B5094B187883B020B103B05DF888
:1030E00004EB04B0704705AB1A4604990193FFF74F
:1030F000A5FF03B05DF804EB04B070472087FF1F05
:103100000FB4094B00B51B78012B83B004D903B071
:103110005DF804EB04B0704705AB1A4604990193BF
:103120000120FFF78BFFF2E72087FF1F0FB40B4B47
:1031300000B51B78032B83B004D903B05DF804EB12
:1031400004B0704705AB1A46049901930320FFF7BA
:1031500075FF03B05DF804EB04B070472087FF1FD4
:1031600030B4074D074C084900232B7023600365DA
:103170004365836580F85C300B6030BC704700BFEE
:103180005892FF1F5492FF1F5092FF1F0A4A0B498B
:10319000106ED36D03FB00F34FF47A7000FB03F065
:1031A000642310B50B600BF0D1FE0549054C0BF004
:1031B000D5FF206010BD00BF5C93FF1F3887FF1F45
:1031C000E4388E3EA892FF1F10B5074C204607F04A
:1031D0002FF9064B2046196807F07AF903210448B5
:1031E000BDE8104009F0CABCD087FF1FF094FF1F54
:1031F000883B010038B5044608460D460CF000FF38
:103200002368024629465B682046984705462046C3
:1032100007F00EF9284438BD2DE9F0414D484E4CD9
:103220004E4E4F4FFFF7FCFE4E4B4F494F4A504812
:10323000596014254F491D70DA604F4D1C61002202
:103240004FF4FA749E619F624C4E4D4FD861D96223
:103250004FF07C504B491D639A634B4D9C860C226A
:103260004A4CDE631F644A4ED864962702201965D3
:103270005D650121474D9A655C6200223224C3F8E6
:10328000C860A3F8667064264FF496775870587239
:103290001972D9651D625D615D6483F84820C3F8C9
:1032A000A8401E66A3F86A70A3F864700A25A3F804
:1032B0006840C3F88000C3F89040C3F8B040C3F83A
:1032C000BC0041F204045A2040F61C48DA67C3F8F7
:1032D0008410C3F88820C3F8AC20C3F8B810C3F832
:1032E000C0604FF47A7C83F8CD2083F8CE20DFF8DD
:1032F000ACE083F8D81041F2883240F2D661264F14
:103300001D6744F62066FF255C67986705244FF427
:103310001670C3F86C80C3F894C0C3F898E0C3F883
:103320009C70C3F8A060C3F8B450A3F8C640A3F8DB
:10333000D000A3F8D400A3F8D220A3F8D620C3F875
:103340008C20A3F8C420A3F8A410A3F8A610BDE80D
:10335000F08100BF8C3B01000000404033338340CC
:10336000CDCCCC3D5C93FF1F20A107006666864054
:10337000CDCC4C4000008242000020C10000204221
:103380000000A0409A9979400AD7233D3333734017
:103390009A99993ECDCC4C3E00F0C84500001144AE
:1033A000F0B59D2087B008F059FB4FF4FA6007F0A4
:1033B00099FE00210F2007F06DFE00210E2007F07E
:1033C00069FE0021112007F065FE0021102007F0A2
:1033D00061FE0021122007F05DFE0021132007F09E
:1033E00059FE01210B2007F055FE01210C2007F0AA
:1033F00051FE0121142007F04DFE0121152007F098
:1034000049FE0121162007F045FE0121172007F093
:1034100041FE01210520B14CB14D07F03BFE0121D9
:10342000062007F037FE01210D2007F033FE20882B
:103430000BF088FD0146162007F096FD20880BF062
:1034400081FD0146172007F08FFD20880BF07AFDE3
:103450000146052007F088FD20880BF073FD01462A
:10346000062007F081FD05F1DC062F462C46601B87
:1034700007F04AFA04F8010BA642F8D13B78142B66
:1034800001D0FFF7C9FE002423467968954A0094CD
:10349000954806F0FDF99DF81430049443F00103BB
:1034A00064F341038DF814300424E2B204A901341A
:1034B0008D4806F0B3F9102CF7D18C4D4FF0FF3248
:1034C0002868214605F082FC28684FF0FF3221462B
:1034D00005F054FC28684FF0FF32042105F062FC2F
:1034E00028684FF0FF32012105F066FC00220F2111
:1034F000286805F075FC0C217D4809F03FFB7D48EC
:1035000006F096FF21467C4809F038FB794806F022
:103510008FFF40F2836007F0A3FE764806F088FF35
:103520001721764809F02AFB724806F081FF744B98
:103530001B78990600F11681714B1B781A0700F170
:10354000C4806F4B1B785B0700F1B7806C4B1B7816
:103550009E0700F19E806B4B1B781D0600F1A58035
:10356000684B1B785C0600F18C80664B1B789806D4
:103570007FD4644B1B78590773D4624B1B781A07AE
:1035800067D4604B1B789B0706D518215E4809F06D
:10359000F5FA584806F04CFF564806F049FF72B657
:1035A0005A4A4CF220534DF62810202113800B4626
:1035B0001080013BFDD1564D5648574B00244FF427
:1035C00080562E8004801C8032F80E3C9BB243F063
:1035D000D30322F80E3C62B6504809F0CFFA4548B2
:1035E00006F026FF4E48FEF751FC0420FFF764FC6E
:1035F0004C4B4B481C60FEF785FB01210D2007F06A
:1036000035FDF96D4648484CFFF78CF9FA6C97F890
:1036100048104348FFF788F9444B45491B68454A21
:103620003F48126881FB0351DB17A3EB211313FB07
:1036300002F32380FEF71AFD3F4B40491A680392BC
:1036400003981B680293029A3D4B08601A6007B00A
:10365000F0BD19213B4809F091FA264806F0E8FE32
:103660008FE71C21384809F089FA224806F0E0FE6D
:1036700083E71321354809F081FA1E4806F0D8FE89
:1036800077E71221324809F079FA1A4806F0D0FE9D
:103690006BE717212F4809F071FA164806F0C8FEAB
:1036A000184B1B781D067FF55BAF0E212A4809F0E9
:1036B00065FA104806F0BCFE52E70E21274809F0D3
:1036C0005DFA0C4806F0B4FE40E70C21244809F0EE
:1036D00055FA084806F0ACFE33E700BF2887FF1F05
:1036E0005C93FF1FE4B9FF1F48B8FF1FF894FF1F4A
:1036F000AC3B0100D087FF1FBC3B0100D03B010069
:1037000001F0074000F00740B83C01000E200540E2
:10371000042005400620054016200540D43C010049
:103720009895FF1F7092FF1F0495FF1F6487FF1F6E
:103730001F85EB516087FF1F0CBAFF1F3095FF1FDD
:10374000A894FF1F9C3C01007C3C0100683C0100E8
:10375000543C01002C3C0100443C01001C3C010095
:103760000C3C01002121034809F008FA024806F048
:103770005FFEE1E6E83B0100D087FF1F70B5464CD5
:10378000464D4748E66800232B70FFF7C7F801460F
:1037900030460BF0CDFD08B104232B704048FFF7F5
:1037A000BBF821690BF0C4FD18B12B7843F010036E
:1037B0002B703B48FFF72EF9E16A0BF0D7FD18B1EB
:1037C0002B7843F040032B70002335486B70FFF7D4
:1037D00023F9216B314E0BF0ABFD08B1012373705F
:1037E00000232F48EB70FFF799F805462C482B4E25
:1037F000FFF792F8014628460BF0F2FA616C0BF0E5
:10380000B5FD08B10123F370264D254800232B7028
:10381000FFF784F8A16A0646E0680BF0E1FA01467A
:1038200030460BF0A3FD08B104232B701C48FFF7B2
:1038300073F8A16A064620690BF0D4FA01463046B7
:103840000BF076FD18B12B7843F010032B70144861
:10385000FFF7E0F8216C0646E06A0BF0C1FA01467A
:1038600030460BF083FD18B12B7843F040032B70EA
:1038700000230B486B70FFF7CFF8216C0546206BD7
:10388000084C0BF0AFFA014628460BF051FD08B189
:103890000123637070BD00BF5C93FF1F5893FF1F2F
:1038A0009895FF1FEC94FF1F2DE9F0417C4C236895
:1038B000012B82B02FD0022B5ED0032B7ED03BBBDE
:1038C000784B794AD3F8B010D3F8B43012685B1A49
:1038D000632B0EDD754803FB02F380FB0302DB174D
:1038E000C3EB62131944062002B0BDE8F04107F0B3
:1038F0003DBA6F4803FB022380FB0302DB17C3EBD7
:1039000022121144062002B0BDE8F04107F02EBAA1
:1039100002B0BDE8F081674E33680A33B3F57A7FB1
:103920006EDC184633600BF011FB63490BF062FB51
:1039300080465C4DD5F8B0000BF008FB0746D5F883
:10394000B4000BF003FB39460BF04AFA41460BF08A
:1039500051FB5A490BF002FC39460BF043FA0BF0CD
:1039600025FD0146062007F001FA554B1B68002B88
:103970004BD12368022BA0D14E4B4A4E00221A6035
:10398000D6F8B0000BF0E2FA0546D6F8B4000BF01A
:10399000DDFA29460BF024FA00210BF02BFB4749F6
:1039A0000BF0DCFB29460BF01DFA0BF0FFFC014687
:1039B000062007F0DBF92368032B80D13D4B394EFD
:1039C0004FF47A721A60D6F8B0000BF0BFFA0546D1
:1039D000D6F8B4000BF0BAFA29460BF001FA3749D1
:1039E0000BF008FB35490BF0B9FB29460BF0FAF94F
:1039F0000BF0DCFC0146062007F0B8F923685EE70F
:103A000000234FF00008336093E702212D4809F0AE
:103A1000B5F82D4806F00CFD06212C4809F0AEF84B
:103A200030680BF093FA24490BF0E4FA0AF038FE00
:103A3000022702460B460097234806F051FD0D2150
:103A4000234809F09BF8D5F8B0000BF07FFA8046C8
:103A500030680BF07BFA18490BF0CCFA0646D5F823
:103A6000B4000BF073FA41460BF0BAF90146304648
:103A70000BF0C0FA11490BF071FB41460BF0B2F9A3
:103A80000AF00EFE009702460B460F4806F028FD8E
:103A900039460C4809F072F80B4806F0C9FC68E793
:103AA000D494FF1F5C93FF1F3887FF1F1F85EB51C6
:103AB000CBF08D287492FF1FCDCCCC3D0000C842C6
:103AC0004087FF1F004C0100D087FF1FF83C01001A
:103AD000003D010030B5B648B64C83B006F0A8FCF6
:103AE000B34806F0A5FCB24806F0A2FC0D21B2488E
:103AF00009F044F8D4F8AC30012B11D0AF4DAC48EC
:103B0000297800230A2206F0A3FC2B78052B69D81C
:103B1000DFE813F03E0143014801900195019A014D
:103B20000921A74809F02AF8A648FEF7F5FE216901
:103B30000BF0FEFB18B10F21A34809F01FF8A148B4
:103B4000FEF7ECFEE1680BF011FC18B10E219F4866
:103B500009F014F89B48FEF7E1FE05469948FEF788
:103B6000DBFE014628460BF03BF9616C0BF0FEFBD7
:103B700018B11121964809F001F89248FEF7F2FEBB
:103B8000E16A0BF0F3FB18B10C21924808F0F6FF44
:103B90008C48FEF7E7FE216B0BF0CAFB18B10D2134
:103BA0008D4808F0EBFF8D4B86481B68012B00F019
:103BB0006F81FEF7B1FE21697E4D0BF0D7FB002827
:103BC00000F0E4807F48FEF7A9FEE9687B4D0BF02A
:103BD000AFFB38B12B78052B00F06C8108218048B1
:103BE00008F0CCFF02217F4808F0C8FF122007F040
:103BF00043FA012800F03481112007F03DFA012832
:103C000000F03881784B1B68012B00F03C810221C9
:103C10007448764C08F0B2FF754B6548196806F099
:103C200057FC634806F004FC0421724808F0A6FF24
:103C30000B2007F021FA002301460A225C4806F017
:103C400007FC0C2007F018FA002301460A22584806
:103C500006F0FEFB142007F00FFA002301460A22AB
:103C6000534806F0F5FB152007F006FA0A22002358
:103C700001464F4806F0ECFB06215F4808F07EFF46
:103C80002368DB074FF001014CBF5C485C4808F03B
:103C900075FF236898074FF001014CBF57485848FB
:103CA00008F06CFF23685A074FF001014CBF5348DE
:103CB000534808F063FF23681B074CBF4F48504828
:103CC000012108F05BFF04214E4808F057FF112046
:103CD00007F0D2F9002301460A22354806F0B8FB66
:103CE000102007F0C9F9002301460A22304806F0E7
:103CF000AFFB122007F0C0F9002301460A222C482E
:103D000006F0A6FB132007F0B7F90A2200230146AC
:103D1000274806F09DFB18213B4808F02FFF3B4B3E
:103D200018880BF013F93A490BF064F90AF0B8FC63
:103D3000002402460B4600941D4806F0D1FB1D21CD
:103D4000344808F01BFF344B18880BF0FFF830495B
:103D50000BF050F90AF0A4FC00940B4602461448FC
:103D600006F0BEFB02212D4808F008FF2B78032B3C
:103D700001D003B030BD2A4B1B78002B69D02948F5
:103D80001D2103B0BDE8304008F0F8BE0B4D29E717
:103D90000621254808F0F2FE24E70721234808F011
:103DA000EDFE1FE70721224808F0E8FE1AE700BFF2
:103DB000D087FF1F5C93FF1F103D0100E894FF1F99
:103DC000203D01009895FF1F2C3D01003C3D010066
:103DD0004C3D0100603D0100703D01008892FF1FD5
:103DE000A43D0100004C01000095FF1F3894FF1F07
:103DF000D894FF1F183E0100203E0100283E01001C
:103E00002C3E0100303E0100383E01006492FF1F4D
:103E1000CDCCCC3D543E0100F494FF1F743E010014
:103E20003093FF1F943E0100B03D0100B83D0100FA
:103E3000CC3D01000821224808F0A0FED2E60B216B
:103E4000204808F09BFECDE607211F4808F096FEAB
:103E5000C8E61E48192103B0BDE8304008F08EBE08
:103E60000E211B4808F08AFE112007F005F90128F1
:103E70007FF4C8AE0A21174808F080FE164B1B6875
:103E8000012B7FF4C4AE1121144808F077FEBEE682
:103E9000FEF742FD616A0BF069FA48B1162110483D
:103EA000104D08F06BFE0A210F4808F067FE99E6F6
:103EB0000C4D93E60A210C4808F060FE92E600BF24
:103EC000D43D0100C03D0100E03D0100783E01000D
:103ED000E83D0100F83D01000095FF1F043E010090
:103EE000803D0100E894FF1F983D01002DE9F04F4F
:103EF000AF4CD4F88030012B8DB000F08181032BC2
:103F0000DFF8F08262D0AB4EAB4FE36FAB48012BD2
:103F100009BF3968396801F10041396006F07EF85F
:103F20003368002B40F02981A448DFF8C89206F0DE
:103F30004BF83368C8F800000546002B40F0CC80F1
:103F4000D4F880309A4A012B00F0DB809C49284647
:103F50000BF00CFAC0B99B4928460BF0E9F998B967
:103F6000994A9A4B12680B920B9A1A60D4F8B800CF
:103F70000AF0ECFF29460BF03DF80023C8F80000DA
:103F80003B600DB0BDE8F08FDFF83CA28F4EDAF851
:103F900000300A930A983368DFF85C92C01A0AF07E
:103FA000D1FF29460BF026F889490BF0D7F888494C
:103FB0000BF0D4F8D9F800100AF014FFDAF800304A
:103FC0000993099BC9F800003360CFE7814D824E09
:103FD0002868012300220F21336004F001FF3368B9
:103FE000744E012B336800F03181002B40F0CE81FC
:103FF00000212868DFF80492764F04F043FF33680D
:104000001FFA80FBC9F800B0002B40F0A48100210A
:104010002868694FDFF8BCA104F0BAFEB4F8A630F6
:1040200040F6E44101FB0BF1B1FBF0F0C01A00B225
:104030000AF08CFF69498346D4F898000AF0DAFF49
:10404000014658460BF08AF8D9F800303860632BE7
:10405000DFF8A8B100F3738100233B603368002BC5
:104060003FF453AF02215E4808F088FDD9F80020E4
:10407000286840F6E443002103FB02F504F088FEC3
:10408000B5FBF0F00AF05EFF0546B4F8A6000AF0B2
:104090005DFF014628460AF0A3FE0AF001FB022557
:1040A00002460B4600954F4806F01AFA29464C483E
:1040B00008F064FD38680AF0F3FA009502460B46F2
:1040C000484806F00DFA2946474808F057FD2946AA
:1040D000434808F053FD18E70AF0E2FA02250246C9
:1040E0000B4600953F4806F0FBF904213F4808F0D5
:1040F00045FDD4F88030D9F800502D4A012B7FF4CB
:1041000025AF354B1B68012B00F04C81022B7FF44F
:104110002DAFD2F8A06030460AF018FF29460BF008
:1041200007F940B970420AF011FF29460BF01EF959
:10413000002800F06A81DFF890A0244EDAF8003001
:10414000079307983368DFF8B090C01A0AF0FAFEB8
:1041500029460AF04FFF1E490BF000F81C490AF0EF
:10416000FDFFD9F800100AF03DFEDAF800300693A2
:10417000069BC9F800003360F8E6104805F024FFFC
:104180000AF08EFA022502460B460095154806F005
:10419000A7F90321164808F0F1FCD4F8A010114843
:1041A00006F096F90321124808F0E8FCBCE600BFCF
:1041B0005C93FF1F2495FF1F8492FF1F3493FF1F02
:1041C0000000FA430000FAC30CBAFF1F5C92FF1F05
:1041D00000007A44F894FF1F5487FF1F9175DD3665
:1041E000004C0100D087FF1FF03E0100F43E0100AB
:1041F000C03601009492FF1FA892FF1F5493FF1F27
:10420000DFF8B882D4F8A060D8F8005030460AF041
:104210009DFE29460BF0AAF848B170420AF096FEBE
:10422000014628460BF0A2F800287FF4CFAE914D4E
:10423000914E2868022300220E21336004F0D0FD45
:1042400033688E4E012B33687FF4CFAE002B40F0E5
:10425000FE8000212868DFF86892864F04F012FE85
:1042600033681FFA80FBC9F800B0002B40F0D480FF
:1042700000212868824F04F08BFDB4F8A43040F68A
:10428000E44A0AFB0BFBBBFBF0F0C01A00B20AF0D9
:104290005DFE7C498346D4F89C000AF0ABFE0146E3
:1042A00058460AF05BFFD9F80030386000212868D2
:1042B0000AFB03FA04F06CFDB4F8A430BAFBF0F08A
:1042C0000FFA80FAC3EB0A03002BB4F8C620B8BF7C
:1042D0005B429342BCBF00233B603368002B3FF43A
:1042E00014AE0221684808F049FCD9F8002028687B
:1042F00040F6E443002103FB02F504F049FDB4F865
:10430000A410B5FBF0F000B2411A604806F0E0F8E6
:1043100002215D4808F032FC38680AF0C1F9022534
:1043200002460B460095594806F0DAF80321584832
:1043300008F024FC2946544808F020FCE5E5DAF8AA
:104340000000002104F024FDDBF8003064389842BE
:10435000FFF482AE82E60021386804F019FD40F6D1
:10436000E44100230A2201FB0BF1B1FBF0F14748C5
:1043700006F06EF80221444808F000FCB4F8A610DC
:10438000424806F0A5F8D9F800B040E63F4806F0EC
:104390004FF80C213F4808F0F1FB0C213E4808F093
:1043A000EDFB25E63D4928460AF0E0FF58B93C49B7
:1043B00028460AF0BDFF30B93A4A3B4B12680592D5
:1043C000059A1A60D2E5DFF8DCA0374EDAF8003043
:1043D000049304983368DFF8EC90C01A0AF0B2FD39
:1043E00029460AF007FE31490AF0B8FE2F490AF0C3
:1043F000B5FED9F800100AF0F5FCDAF800300393A6
:10440000039BC9F800003360B0E5264A264B1268CA
:104410000892089A1A60A9E50021386804F0B8FCEF
:1044200040F6E44100230A2201FB0BF1B1FBF0F15D
:10443000164806F00DF801211D4808F09FFBB4F85E
:10444000A410124806F044F8D9F800B010E70F485D
:1044500005F0EEFFD4F88030012B4FF00B010CBFBC
:104460001448154808F08AFB0C210B4808F086FB1D
:10447000EFE600BFF894FF1F5487FF1F2495FF1F2E
:104480008492FF1F9175DD36004C0100D087FF1F1D
:10449000DC3E0100E03E0100CC3E01000000FA439A
:1044A0000000FAC30CBAFF1F5C92FF1F00007A44A1
:1044B0000C3D0100B43E0100C03E01009492FF1F7C
:1044C0005493FF1FA892FF1F2DE9F04F9A4C2368C9
:1044D00085B0002B7CD0994DDFF86882984FDFF8CB
:1044E000AC92D5F88830954E012B00F08C80D7F82F
:1044F00000A0D6F860B0F46D924E04FB0BF44FF4BC
:104500007A7000FB04F00AF021FD8F490446504602
:104510000AF070FD21460AF021FE8C490AF06AFD7E
:104520000AF044FF6328C8F800004CDD20468649A5
:104530000AF014FE642338603360D9F80030002B91
:104540003ED0D5F880307D4C012B00F08A80032BC3
:1045500000F0E080022B00F0E48002217C4808F0AB
:104560000DFB7C4B18680AF09BF8022402460B46B0
:104570000094794805F0B4FF2146784808F0FEFA27
:104580002146734808F0FAFAD8F80010724805F08E
:104590009FFF0621724808F0F1FA38686A490AF06C
:1045A00029FD0AF07DF8009402460B466A4805F0A2
:1045B00097FF03216B4808F0E1FA674805F038FFE0
:1045C00005B0BDE8F08F0028BCBF00233360B4E71E
:1045D000654E5A4D33680293029A42F228339A424A
:1045E0004CD833680393039A41F288339A424CD8EB
:1045F000D5F88830DFF84C81514FDFF890914F4E5D
:10460000012B7FF474AF5948FEF708FA5849D6F8E1
:104610006CA0346F0AF0EEFC0AF0EEFE726FB36F1E
:10462000D5F860B0CAEB02021B1B80B29A42CAEBFB
:104630000000C6BF03FB00000132584390FBF2F0BC
:104640002044EC6D00FB0BF004FB00F000EB80005D
:1046500040000AF07BFC3C490AF080FD824638604D
:104660004AE7444B1B68012B4FF00A010CBF42483C
:10467000424808F083FAD4F8803068E73B48EA6C97
:1046800095F84810FEF750F9ABE73848FEF7C6F941
:104690003749EF6E2E6F0AF0ADFC0AF0ADFE6A6F7F
:1046A000AB6FD21B9B1B80B29A42A0EB07003DDD93
:1046B00003FB0000531C90FBF3F31E44286EEB6DCC
:1046C000DFF88080DFF8C490C8F8006000FB06F0D7
:1046D00003FB00F000EB800040000AF037FC1A49B1
:1046E000174F0AF03BFDD9F80030386001222260F4
:1046F000002B3FF4F6AE0221154808F03FFA1648A9
:1047000005F096FE59211E4808F038FA124805F0C7
:104710008FFEE6E610211B4808F030FAD5F880300D
:1047200018E70721184808F029FA16E703FB00F3F9
:1047300093FBF2F31E44C1E78092FF1F5C93FF1FBF
:10474000A892FF1F3887FF1FE4388E3E0000C84242
:10475000004C01009492FF1FD087FF1FF03E010024
:104760008C3F0100943F01000CBAFF1F9895FF1F7A
:1047700000007A445487FF1F583F0100643F010046
:10478000FC3E0100703F0100843F01004087FF1F95
:1047900030B5112083B006F06FFC012818D012202C
:1047A00006F06AFC012813D000210B2006F05EFC05
:1047B00000210C2006F05AFC0021152006F056FCC2
:1047C0002649274B0120002208701A6003B030BD33
:1047D0000121152006F04AFC224A234C234B126883
:1047E000D4F88C1001921B68019A1D4D0B44934222
:1047F0004FF00201296005D901210C2006F036FC9A
:1048000003B030BDD4F894000AF0A0FB184B19682F
:104810000AF08EFD0028EFD101210B2006F026FCC6
:1048200094F8CC300324012B2C600DD0122006F01C
:1048300023FC012808BF094B4FF0110008BF1C7072
:1048400006F01AFC012802D1044B02221A70002142
:104850000C2006F00BFC03B030BD00BFE894FF1F36
:104860002095FF1F0CBAFF1F5C93FF1F3095FF1FA1
:104870009492FF1FF0B56D4E6D4D34682B689C42CD
:1048800087B03AD014F0010156D014F002014AD09A
:1048900014F004013ED0E3070FD52B68DF070CD4DA
:1048A000644F3A68002A00F09E80634B1B680193B6
:1048B000019B934200F289803468A0070DD52B68D4
:1048C00099070AD45D4F3A68002A3ED05A4B1B68BC
:1048D0000393039B93425AD8346862070DD52B6823
:1048E0005B070BD4564F3A68002A3FD0524B1B68E7
:1048F0000593059B934258D834680CB107B0F0BDBE
:104900002146162006F032FA2146172006F02EFA2C
:1049100007B0F0BD052006F029FA2B68346803F0D3
:10492000FB032B60B7E7172006F020FA2B683468EA
:1049300003F0FD032B60ABE7162006F017FA2B6897
:10494000346803F0FE032B609FE73E4B1B68002B8F
:1049500056D1FF21172006F009FA374B3A4A196859
:104960000291029912680A443A60B0E7354B1B681D
:10497000002B50D1FF21052006F0F8F92E4B324ACA
:1049800019680491049912680A443A60AFE72F4B02
:104990001720D3F8901006F0E9F92B68346843F03B
:1049A000020300222B603A6097E7284B0520D3F8DA
:1049B000901006F0DBF92B68346843F00403002202
:1049C0002B603A60002C99D19AE7204B1620D3F83F
:1049D000901006F0CBF92B68346843F001030022F5
:1049E0002B603A6069E7FF21162006F0BFF9124BF1
:1049F000154A19680091009912680A443A6055E70F
:104A0000134805F015FD0C21124808F0B7F81048BE
:104A100005F00EFD9DE70E4805F00AFD0C210E483D
:104A200008F0ACF80A4805F003FDA3E72095FF1F46
:104A30003894FF1FB494FF1F0CBAFF1FB894FF1FD8
:104A4000BC94FF1F4087FF1F7087FF1F5C93FF1FF1
:104A5000D087FF1F983F0100A83F01002DE9F047D4
:104A6000544EDFF87481DFF874913068524D0022A3
:104A70000F2104F0B5F90023012222214F48C8F884
:104A80000030C9F8002008F079F8D8F80030132B6E
:104A900022DC40F6E44700213068B5F8A4A004F019
:104AA000F1F900210446306804F072F9A4B2012142
:104AB00007FB04F4B4FBF0F441485444A5F8A440C7
:104AC00008F05CF8642006F00DFBD8F800300133E4
:104AD000132BC8F80030DEDDB5F8A430394A3A4867
:104AE000A2FB03129B1A02EB5303C3F30F131946E5
:104AF000A5F8A43005F0ECFC1D21344808F03EF880
:104B00000221334808F03AF82F4805F091FC0023C1
:104B10001A460E213068C8F8003004F061F902230B
:104B200022212648C9F8003008F028F8D8F80030CB
:104B3000132B22DC40F6E44700213068B5F8A6903C
:104B400004F0A0F900210446306804F021F9A4B271
:104B5000012107FB04F4B4FBF0F419484C44A5F818
:104B6000A64008F00BF8642006F0BCFAD8F8003034
:104B70000133132BC8F80030DEDDB5F8A630114A3A
:104B80001148A2FB03129B1A02EB5303C3F30F134A
:104B90001946A5F8A63005F09BFC1D210D4807F02D
:104BA000EDFF02210A4807F0E9FF0748BDE8F0479A
:104BB00005F03EBCF894FF1F5C93FF1FB83F010057
:104BC000FC3F010087611886D087FF1FDC3F010092
:104BD000004C010000400100DC94FF1F5487FF1FC0
:104BE0002DE9F843C04BC14CC14E1B68B06D40F27B
:104BF000513108222160E271002B40F06F810AF0F0
:104C0000A5F9B16905460AF0F5F9BA49B84F0AF0B5
:104C1000F1F90AF0F1FB80B203126372B64AB74BA6
:104C200012881B882072A37228461B121512E37289
:104C30002273F16965730AF0DDF9AE49AB4D0AF0F4
:104C4000D9F90AF0D9FB83B21A122946AC48A373EA
:104C5000E27305F015F8AB4AAB4B12681988A172E4
:104C6000D3B2237203EB83035B00237302EB820353
:104C700043F3D7134FEA212E12124FF008084FF0DA
:104C80000009294663739E4884F80BE040F25533CF
:104C90006272236084F8078084F80E9084F80F9085
:104CA00004F0EEFF40F256339848236084F8078002
:104CB000FDF736FE96490AF09DF90AF09DFB207239
:104CC0009248FDF72DFE92490AF094F90AF094FB00
:104CD000904A8F49C0F30723637210680AF03EFAC6
:104CE0000AF064FB40FA08F3A0728848E372FDF70B
:104CF00039FE80490AF07EF90AF058FB2073834898
:104D0000FDF730FE7B490AF075F90AF04FFB40F3DE
:104D10000720294660737A4884F80E9084F80F9033
:104D200004F0AEFF022006F0DDF97B4A7B4B1178E0
:104D30002172517890786172D178A0721A7898783F
:104D4000E172597822736173DA78A07340F25A33B2
:104D500029466B48E273236084F8078004F090FFD3
:104D60006F4B67481A7822725A7862729A78A272E8
:104D7000DA78E2721A7922735A7962739A79DB7956
:104D8000E373294640F25E33A273236084F8078000
:104D900004F076FF022006F0A5F9624B58481A7815
:104DA00022725A7862729A78A272DA78E2721A796A
:104DB00022735A7962739A79DB79E37329464FF447
:104DC0005C73236084F80780A27304F059FF564B8C
:104DD0001B68012B00F0AE80022006F083F9336ED1
:104DE0002373022500221B12284640F2733808273D
:104DF00063732272012362729922A273E372E373D6
:104E0000A572C4F80080E77106F06CF93F48C4F859
:104E10000080E771FDF780FD44490AF0EBF80AF0E5
:104E2000EBFA20723948FDF777FD40490AF0E2F8C5
:104E30000AF0E2FAC0F3072334486372FDF76EFD0F
:104E40003A490AF0D7F80AF0D7FAA0722F48FDF7CE
:104E500065FD36490AF0CEF80AF0CEFAC0F3072312
:104E60002A48E372FDF7D8FD314909F0BBFF0AF08B
:104E7000C3FA20732548FDF7CFFD2D4909F0B2FF95
:104E80000AF0BAFAC0F3072320486373FDF7C2FDA6
:104E9000274909F0A7FF0AF0AFFAA0731B48FDF7F6
:104EA000B9FD234909F09EFF0AF0A6FA0F49C0F3A5
:104EB00007231348E37304F0E3FE284606F012F9D3
:104EC000F26D336EE57112FB03F3C3F3072140F279
:104ED0007932237261722260BDE8F8830AF036F8F5
:104EE000716A05468FE600BF8892FF1F1095FF1F6D
:104EF0005C93FF1F00002041F494FF1F6492FF1F8A
:104F000048B8FF1F3887FF1F3C87FF1F9895FF1F7A
:104F10000000C8429492FF1F5893FF1FEC94FF1F9C
:104F20002C87FF1F5887FF1F0095FF1F00007A4442
:104F3000339388432648FDF7EFFC796D09F052FF63
:104F400081462348FDF7EAFC014648460AF0F0F99D
:104F500000283FF441AF40F2C3331D4885F8078075
:104F60002B60FDF7D9FC3F6D39460AF0E1F9C8B175
:104F7000184938460AF03EF80AF03EFA80B240FA84
:104F800008F368722B7200230127042503221249BB
:104F90001248A772E57222736373A373E37304F07C
:104FA0006FFE19E70A48FDF7B7FC0A490AF022F834
:104FB0000AF022FAC0F3072305482B72FDF7ACFC78
:104FC00004490AF017F80AF017FA6872DBE700BF25
:104FD0009895FF1F00007A441095FF1F48B8FF1FE7
:104FE000F0B57C4C7C4E83B007F062FD23683060E6
:104FF000042B00F05F83092B00F0E182022B4CD1DF
:10500000A0F13103422B52D8DFE813F03A094609E8
:105010005409550066097709860990095100510025
:1050200051005100510051005100510051005100F8
:1050300051005100510051005100510051005100E8
:1050400051005100510051005100510051005100D8
:1050500051005100510051005100510051005100C8
:1050600051005100510051005100510051005100B8
:1050700043005100510051005100510051005100B6
:105080005100510051005100510051007300510076
:105090009D09FFF7E3FC23683068082B1CD13228F8
:1050A00000F0AD83712824D0312800F0EC867328FD
:1050B00023D003B0F0BD0123236007F035FD0028A5
:1050C00007DD4648464D05F045FB09F03FFFC5F8B2
:1050D0009C00632023683060072B40F0A3803328B6
:1050E00001F0498640F37083342801F01D86712851
:1050F000DDD100227323226033602368002BD8D1D6
:10510000384D364805F094F90421374807F036FD4C
:10511000324805F08DF91021344807F02FFD2F4853
:1051200005F086F91321324807F028FD314B2B4852
:10513000196805F0CDF9294805F07AF914212E48AF
:1051400007F01CFD254805F073F91E212B4807F0D8
:1051500015FD224805F06CF91521294807F00EFDD0
:105160001E4805F065F91E21264807F007FD1B487B
:1051700005F05EF92021244807F000FD174805F0EE
:1051800057F91921214807F0F9FC144805F050F9A6
:1051900012211F4807F0F2FC104805F049F91921C7
:1051A0001C4807F0EBFC0D4805F042F90F211A48A6
:1051B00007F0E4FC094805F03BF90D21174807F01A
:1051C000DDFC064805F034F9002201232A60236043
:1051D00003B0F0BDAC92FF1F6092FF1FD087FF1F8E
:1051E0005C93FF1F4087FF1FBC440100C4440100C3
:1051F000D84401002487FF1FEC440100044501004E
:10520000244501003C4501005C450100804501004A
:105210009C450100B0450100CC450100DC45010082
:1052200023683068062B40F08D80A0F13103402BBD
:105230003FF63DAF01A252F823F000BF9D61000090
:1052400081630000AD630000C9610000F1610000EE
:105250000F62000033620000656200005B630000C3
:10526000AF500000AF500000AF500000AF50000042
:10527000AF500000AF500000AF500000AF50000032
:10528000AF500000AF500000AF500000AF50000022
:10529000AF500000AF500000AF500000AF50000012
:1052A000AF500000AF500000AF500000AF50000002
:1052B000AF500000AF500000AF500000AF500000F2
:1052C000AF500000AF500000AF500000AF500000E2
:1052D000AF500000AF500000AF500000AF500000D2
:1052E000AF500000AF500000AF500000AF500000C2
:1052F000AF500000AF500000AF50000075610000DB
:10530000AF500000AF500000AF500000AF500000A1
:10531000AF500000AF500000AF500000AF50000091
:10532000AF500000AF500000AF500000AF50000081
:10533000AF500000AF500000AF500000F35000002D
:1053400023683068052B40F08D80A0F13103402B9D
:105350003FF6ADAE01A252F823F000BFCB5E0000D5
:105360004F600000CF5F0000EF5F00001960000099
:1053700035600000AF500000AF500000AF5000009B
:10538000AF500000AF500000AF500000AF50000021
:10539000AF500000AF500000AF500000AF50000011
:1053A000AF500000AF500000AF500000AF50000001
:1053B000AF500000AF500000AF500000AF500000F1
:1053C000AF500000AF500000AF500000AF500000E1
:1053D000AF500000AF500000AF500000AF500000D1
:1053E000AF500000AF500000AF500000AF500000C1
:1053F000AF500000AF500000AF500000AF500000B1
:10540000AF500000AF500000AF500000AF500000A0
:10541000AF500000AF500000AF500000AF50000090
:10542000AF500000AF500000AF500000AF50000080
:10543000AF500000AF500000AF500000AF50000070
:10544000AF500000AF500000AF500000AF50000060
:10545000AF500000AF500000AF500000BF5F000031
:1054600023683068032B40F0A480A0F13003422B66
:105470003FF61DAE01A252F823F000BF895500008F
:10548000E36900000B6A0000536A0000756A0000BF
:10549000CD6A0000F56A00001D6B00003B6B000048
:1054A000616B0000AF500000AF500000AF50000033
:1054B000AF500000AF500000AF500000AF500000F0
:1054C000AF500000AF500000AF500000AF500000E0
:1054D000AF500000AF500000AF500000AF500000D0
:1054E000AF500000AF500000AF500000AF500000C0
:1054F000AF500000AF500000AF500000AF500000B0
:10550000AF500000AF500000AF500000AF5000009F
:10551000AF500000AF500000AF500000AF5000008F
:10552000AF500000AF500000AF500000AF5000007F
:10553000AF500000AF500000AF500000AF5000006F
:10554000896B0000A1680000BF680000DD680000F2
:10555000FB680000196900006F690000976900008E
:10556000AF500000C1690000D5630000AF500000DB
:10557000AF500000AF500000AF500000AF5000002F
:10558000F3500000336A000007F0CEFA002841F320
:10559000C483A848A84D05F0DDF80127034601465D
:1055A0006222A648EB6527603260FDF7BBF92368ED
:1055B0003068012B27D073287FF47BAD9DE59E4D8D
:1055C0009D4A95F8CE30012B84BF002385F8CE305C
:1055D00095F8CD30012B02D9002382F8CD30322846
:1055E00000F0668471283FF484AD31287FF45FAD0C
:1055F00095F8CD30B3FA83F35B090122782085F862
:10560000CD3022603060A0F15203262B3FF64FAD23
:1056100001A252F823F000BF116D0000AF5000004E
:10562000AF500000AF500000AF500000AF5000007E
:10563000AF500000AF500000AF500000AF5000006E
:10564000AF500000AF500000AF500000AF5000005E
:10565000AF50000049580000F96F0000A55D000040
:10566000EF5B0000C15A0000AF500000AF500000D7
:10567000AF500000D3590000AF500000F36F00009E
:10568000AF500000AF500000AF500000AF5000001E
:10569000AF500000F16C0000AF500000AF500000B0
:1056A000AF500000AF500000AF500000AF500000FE
:1056B00031590000A0F13103402B3FF6F8AC01A2B4
:1056C00052F823F0FD600000156100001961000030
:1056D0003B6100003F6100005B6100006D61000004
:1056E000716100007F600000AF500000AF5000000B
:1056F000AF500000AF500000AF500000AF500000AE
:10570000AF500000AF500000AF500000AF5000009D
:10571000AF500000AF500000AF500000AF5000008D
:10572000AF500000AF500000AF500000AF5000007D
:10573000AF500000AF500000AF500000AF5000006D
:10574000AF500000AF500000AF500000AF5000005D
:10575000AF500000AF500000AF500000AF5000004D
:10576000AF500000AF500000AF500000AF5000003D
:10577000AF500000AF500000AF500000AF5000002D
:10578000AF500000AF500000AF500000AF5000001D
:10579000AF500000AF500000AF500000AF5000000D
:1057A000AF500000AF500000AF500000AF500000FD
:1057B000AF500000AF500000AF500000AF500000ED
:1057C000AF500000F3500000312801F0BE823228B3
:1057D0007FF46DAC07F0A8F900287FF721AD1548DC
:1057E000154D04F0B7FF09F0B1FB154909F002FCB3
:1057F00061230122686422603360184603E707F0E2
:1058000093F9002840F337840A480B4D04F0A2FFB7
:1058100009F09CFB0A4909F0EDFB95F84810034696
:1058200002460648EB64FDF77FF8012369202360F8
:105830003060E8E6D087FF1F5C93FF1F9895FF1F3D
:105840006F12833A07F034F907F06EF90546002825
:10585000F8D18648864E04F0EBFD844804F0E8FD5C
:10586000824804F0E5FD814804F0E2FD7F4804F041
:10587000DFFD1F217F4807F081F97C4804F0D8FD47
:105880001C217D4807F07AF9B06A7C4909F0B2FB27
:1058900008F006FF009502460B46744804F020FE0F
:1058A0000221774807F06AF9704804F0C1FD23210E
:1058B000744807F063F9706C704909F09BFB08F0BD
:1058C000EFFE009502460B46684804F009FE0221EF
:1058D0006B4807F053F9654804F0AAFD19216A489E
:1058E00007F04CF9306C08F0DBFE02250B4602464F
:1058F00000955E4804F0F4FD2946644807F03EF93F
:105900005A4804F095FD2221614807F037F9B18E1D
:10591000564804F0DDFD03215E4807F02FF9534897
:1059200004F086FD07232360FFF7C3BB07F0C0F830
:1059300007F0FAF805460028F8D14C484C4E04F020
:1059400077FD4A4804F074FD484804F071FD47486B
:1059500004F06EFD454804F06BFD15214E4807F03C
:105960000DF9424804F064FD404804F061FD2C212B
:105970004A4807F003F93D4804F05AFD25214848FC
:1059800007F0FCF82B4696F8CD1038480A2204F0B0
:105990005FFD364804F04CFD1921424807F0EEF84F
:1059A00096F8CE30002B41F001820E213E4807F0E0
:1059B000E5F82E4804F03CFD13213C4807F0DEF8E2
:1059C0002A4804F035FD09232360FFF772BB07F076
:1059D0006FF807F0A9F805460028F8D12348244EAF
:1059E00004F026FD214804F023FD204804F020FDAA
:1059F0001E4804F01DFD1D4804F01AFD15212C4819
:105A000007F0BCF8194804F013FD1821294807F0E5
:105A1000B5F82B460A2296F84810144804F018FDF1
:105A2000124804F005FD2821234807F0A7F8F06C80
:105A3000124909F0DFFA08F033FE00950B460246E2
:105A40000A4804F04DFD02210D4807F097F8074879
:105A500004F0EEFC1321154807F090F8034804F019
:105A6000E7FC08232360FFF724BB00BFD087FF1F9C
:105A70005C93FF1F084301002843010000007A44A3
:105A800038410100484301006C430100DC42010041
:105A900088430100AC430100B445010044400100CB
:105AA000744001009C400100B8400100DC4001004E
:105AB00084450100F04001000C41010006F0F8FFB0
:105AC00007F032F806460028F8D19548954D04F0C5
:105AD000AFFC934804F0ACFC914804F0A9FC90485A
