:1000000000800020BD010000A98900006189000076
:100010006189000061890000618900006189000038
:10002000618900006189000061890000A9890000E0
:10003000A989000061890000DDA80000E1A9000095
:10004000A9890000A9890000A9890000A9890000E8
:10005000A9890000A9890000A9890000A9890000D8
:10006000A9890000A9890000A9890000A9890000C8
:10007000A9890000A9890000A9890000A9890000B8
:10008000A9890000A9890000A9890000A9890000A8
:10009000A9890000A9890000A9890000A989000098
:1000A000A9890000A9890000A9890000A989000088
:1000B000A989000045850000518500005585000094
:1000C000618500006585000069850000A989000040
:1000D000A9890000A9890000A9890000A989000058
:1000E000A9890000A9890000A9890000A989000048
:1000F000A9890000EDB00000A98900004596000024
:10010000A98900005D990000A9890000A989000063
:10011000A9890000A9890000A9890000A989000017
:10012000A9890000A9890000A9890000A989000007
:10013000A9890000A9890000A9890000A9890000F7
:10014000A9890000A9890000A9890000A9890000E7
:10015000A9890000A9890000A9890000A9890000D7
:10016000A9890000A99B0000A9890000A9890000B5
:10017000A9890000A9890000A9890000A9890000B7
:10018000A9890000A9890000A9890000A9890000A7
:10019000A9890000A9890000A9890000A989000097
:1001A000A9890000A9890000A9890000A989000087
:1001B000A9890000A9890000A9890000564B4CF2CA
:1001C000205210B51A804DF628121A8000BF00BFC9
:1001D00008F0EEFB514B4FF010621A60504A9A60E3
:1001E000504ADA60504A136813F4807304D14F49BF
:1001F0000B604FF4A85313604D4B1A78110703D5C9
:100200001A7842F008021A704A4B4B492A221A7097
:100210004A4A4B4B8B4204D252F8040F43F8040B6A
:10022000F8E7484B484900228B4202D243F8042B9E
:10023000FAE74649464A002352F8230041F82300D2
:1002400001336F2BF8D1434B434A802103F8011B44
:100250009342FBD1414B3D4A1A60414B8A221A70AE
:10026000A3F5805324225A70A0221A709A7992071B
:10027000FCD59A79D406FCD43A4A937903F00C035E
:10028000082B384BF9D103221A7140225A719A79FE
:100290009006FCD5334A9179324B4906FBD5324A58
:1002A000324911600221516020221A709A7902F0BD
:1002B0000C020C2AFAD12E4B2E4A1A602E4B2F4AD2
:1002C0001A6000225A60072243F8042C2C4AC3F813
:1002D0000C2D62B608F022FE144B1B68DA0705D518
:1002E000284808F0FFFB284B284A1A60284B1B7847
:1002F0005B0609D5244C254B22689A4204D121483B
:1003000008F0F0FB002323600DF0F4F908F056FB31
:100310000AF0ACFDFEE700BF0E200540308004402F
:10032000823F04000100002B10D0034014D0034092
:1003300002D0074000E007403892FF1FEC31010077
:100340002087FF1F3892FF1F30BCFF1F0082FF1F56
:100350000000000000E400E05FE400E008ED00E0E1
:100360000050064000400640448004400000030165
:1003700004800440C010050014E000E0FF76010096
:100380000000202004953B5C1CE00340A5C3945A68
:1003900000F00740FFFFFFFFFFFFFFFFFFFFFFFF32
:1003A000FFFFFFFFFFFFFFFFFFFFFFFFFFFFFFFF5D
:1003B000FFFFFFFFFFFFFFFFFFFFFFFFFFFFFFFF4D
:1003C000FFFFFFFFFFFFFFFFFFFFFFFFFFFFFFFF3D
:1003D000FFFFFFFFFFFFFFFFFFFFFFFFFFFFFFFF2D
:1003E000FFFFFFFFFFFFFFFFFFFFFFFFFFFFFFFF1D
:1003F000FFFFFFFFFFFFFFFFFFFFFFFFFFFFFFFF0D
:10040000FFFFFFFFFFFFFFFFFFFFFFFFDEF9FFFF23
:1004100010B5054C237833B9044B13B10448AFF33E
:1004200000800123237010BD3892FF1F00000000E0
:10043000E8310100084B10B51BB108490848AFF37B
:1004400000800848036803B910BD074B002BFBD0A0
:10045000BDE81040184700BF000000003C92FF1F9D
:10046000E83101003892FF1F00000000F0B400F1F5
:1004700014060F4F00243146031F00F12C0243F8ED
:10048000044FB34241F8047F4FF0000542F8044F97
:10049000F5D1084B084985640022C56405654565AA
:1004A000456683650366C16580F88420F0BC7047AB
:1004B0000000A040000048430000C8C200230360C1
:1004C00043608360C3600361436183640365436584
:1004D000836570472DE9F04190F8844084B0002393
:1004E00064008DF80530E4B2012380468DF80440A5
:1004F0008DF806300327204609F0CCF902210DF1D2
:10050000050009F0D1F98DF8044002F0A3FB30B3E7
:100510000921C9480AF07CF8002310222146C74867
:100520000AF01CFB0121C6480AF072F800231022D1
:100530009DF80510C1480AF011FB0121C0480AF0DE
:1005400067F8002310229DF80610BC480AF006FB4D
:100550000121BB480AF05CF8B8480AF0EFFA022023
:100560008DF8044008F08CFC02F074FB002840F089
:10057000778102AE002409F0ADF9002800F0268151
:10058000042C40F0158101E009F0B4F909F0A2F95A
:100590000028F9D102F05EFB10B1A8480AF0CEFAAB
:1005A00098F884406400E4B2202204238DF80440CB
:1005B0008DF805208DF806300327204609F06AF9EA
:1005C00002210DF1050009F06FF98DF8044002F0E9
:1005D00041FB30B3092198480AF01AF80023102291
:1005E000214696480AF0BAFA012195480AF010F817
:1005F000002310229DF8051090480AF0AFFA01215F
:100600008F480AF005F8002310229DF806108B4849
:100610000AF0A4FA01218A4809F0FAFF87480AF093
:100620008DFA02208DF8044008F02AFC02F012FB3B
:10063000002840F00B8102AE002409F04BF900289D
:1006400000F0A980072C40F0988001E009F052F9F1
:1006500009F040F90028F9D102F0FCFA10B177480E
:100660000AF06CFA98F884409DF80B209DF80C3045
:100670009DF80D00C8F870206400E4B29DF80E10DB
:10068000C8F87430332201238DF80440C8F878008C
:10069000C8F87C108DF805208DF806300327204619
:1006A00009F0F8F802210DF1050009F0FDF88DF8C8
:1006B000044002F0CFFA30B309215F4809F0A8FFE7
:1006C0000023102221465D480AF048FA01215C48C7
:1006D00009F09EFF002310229DF8051057480AF0EC
:1006E0003DFA0121564809F093FF002310229DF89E
:1006F000061052480AF032FA0121514809F088FFE9
:100700004E480AF01BFA02208DF8044008F0B8FBAE
:1007100002F0A0FA002840F09E8002AE002409F00A
:10072000D9F8F8B1042C0FD101E009F0E3F809F091
:10073000D1F80028F9D102F08DFA10B13F480AF043
:10074000FDF904B0BDE8F08109F0D4F8054606F8DB
:10075000010B02F07FFA00285AD1013409F0BAF8EF
:100760000028DFD1042CE2D002F074FA00285ED118
:10077000013FE6D09DF8044091E709F0BBF805463B
:1007800006F8010B02F066FA60BB013409F0A2F82A
:1007900000287FF457AF072C3FF45AAF02F05AFA03
:1007A00000284FD1013F3FF45DAF9DF8044004E7BE
:1007B00009F0A0F8054606F8010B02F04BFAE0B983
:1007C000013409F087F800287FF4DAAE042C3FF4F6
:1007D000DDAE02F03FFA30BB013F3FF4E1AE9DF8E1
:1007E000044088E6E9B20023102214480AF0B6F962
:1007F0000121134809F00CFFC7E7E9B200231022DA
:100800000E480AF0ABF901210D4809F001FFD7E7C6
:10081000E9B20023102209480AF0A0F90121084892
:1008200009F0F6FE99E705480AF088F9D4E703488D
:100830000AF084F99CE700BF98180100D887FF1FD1
:10084000C81F010009480AF079F9ABE707210848F9
:1008500009F0DEFEEFE60721054809F0D9FE5CE766
:100860000721034809F0D4FE83E600BFD887FF1FA5
:10087000A418010090F87400704700BF90F8700051
:10088000704700BF90F87800704700BF90F87C0078
:10089000704700BF2DE9F04390F8848085B04FEA9F
:1008A00048085FFA88F8322200238DF804808DF81A
:1008B00005208DF8063003250DF1060748F00109E3
:1008C000484608F0E7FF01AE0DF10500022108F0EF
:1008D000EBFF8DF804904A46334600205040082430
:1008E00010F0800F4FEA400018BF80F00700013C75
:1008F000C0B2F5D1BB4202D013F8012FEEE708F0E9
:10090000C9FF02F0A7F900284AD102208DF804801F
:1009100008F0B6FA02F09EF9002840F081800DF14F
:100920000808002408F0D6FF08B3042C12D101E017
:1009300008F0E0FF08F0CEFF0028F9D102F08AF9B4
:1009400010B13A480AF0FAF8022008F099FA05B016
:10095000BDE8F08308F0CEFF08F8010B064602F070
:1009600079F970B9013408F0B5FF0028DDD1042C05
:10097000E0D002F06FF978B9013DE5D09DF8048030
:100980009CE7F1B20023102228480AF0E7F8012181
:10099000274809F03DFEE5E724480AF0CFF8EBE7E9
:1009A0000921244809F034FE2346102249461F48F5
:1009B0000AF0D4F801211E4809F02AFE234610222D
:1009C0009DF8051019480AF0C9F80121184809F0E6
:1009D0001FFE102223469DF8061014480AF0BEF8A8
:1009E0000121134809F014FE21460DF1070216F803
:1009F000014B6140C9B2082311F0800F4FEA410159
:100A000018BF81F00701013BC9B2F5D1B242EED166
:100A1000102206480AF0A2F804480AF08FF874E79A
:100A20000721054809F0F4FD79E700BFD887FF1FCB
:100A3000C81F010098180100A41801002DE9F04F0B
:100A4000074691B097F8843002205B008DF808309B
:100A500008F016FA97F8843038465B008DF80830B5
:100A6000FFF738FDB86FFC6F7B6F3A6F97F8841013
:100A70008DE81100C94802F0F3F930223D238DF8CA
:100A800009208DF80A3003260DF10A059DF808901B
:100A900049F00108404608F0FDFE0DF10900022171
:100AA00008F002FF8DF80880424602AB002050405B
:100AB000082410F0800F4FEA400018BF80F00700B4
:100AC000013CC0B2F5D19D4202D013F8012FEEE7F0
:100AD00008F0E0FE02F0BEF8002840F07D8202201F
:100AE0008DF8089008F0CCF902F0B4F8002840F036
:100AF000B9820DF10C0AD146002408F0EBFE002863
:100B000043D0032C34D101E008F0F4FE08F0E2FEFB
:100B10000028F9D102F09EF810B1A1480AF00EF8B1
:100B2000312303268DF809308DF80A609DF808906E
:100B300049F00108404608F0ADFE0DF10900022120
:100B400008F0B2FE8DF80880424602AB002050400B
:100B5000082410F0800F4FEA400018BF80F0070013
:100B6000013CC0B2F5D19D4228D013F8012FEEE729
:100B700008F0C0FE09F8010B804602F06BF868B976
:100B8000013408F0A7FE0028BBD1032CBED002F030
:100B900061F878B9013E7FF479AFC1E75FFA88F177
:100BA000002310227E4809F0D9FF01217D4809F079
:100BB0002FFDE5E77A4809F0C1FFEBE708F06AFE90
:100BC00002F048F8002840F0C68102208DF8089015
:100BD00008F056F902F03EF8002840F03E820DF190
:100BE0000C09002408F076FE002844D0032C35D1EF
:100BF00001E008F07FFE08F06DFE0028F9D102F058
:100C000029F810B1664809F099FF342201238DF8C4
:100C100009208DF80A3003269DF8089049F0010854
:100C2000404608F037FE0DF10900022108F03CFEB5
:100C30008DF80880424602AB00205040082410F096
:100C4000800F4FEA400018BF80F00700013CC0B29F
:100C5000F5D19D4228D013F8012FEEE708F04AFEA7
:100C600009F8010B804601F0F5FF68B9013408F07E
:100C700031FE0028BAD1032CBDD001F0EBFF78B9CA
:100C8000013E7FF453AFC0E75FFA88F100231022E2
:100C9000434809F063FF0121424809F0B9FCE5E748
:100CA0003F4809F04BFFEBE708F0F4FD01F0D2FFFD
:100CB000002840F00F8102208DF8089008F0E0F83D
:100CC00001F0C8FF002840F0D7810DF10C09002485
:100CD00008F000FE002800F08580032C73D101E0AD
:100CE00008F008FE08F0F6FD0028F9D101F0B2FF87
:100CF00010B12B4809F022FF012212238DF80920A0
:100D00008DF80A304FF003089DF80840204608F09F
:100D1000C1FD02210DF1090008F0C6FD8DF8084063
:100D200001F098FF30B309211F4809F071FC00233E
:100D3000102221461A4809F011FF0121194809F033
:100D400067FC002310229DF80910154809F006FFE2
:100D50000121144809F05CFC002310229DF80A10C0
:100D60000F4809F0FBFE01210E4809F051FC0C4828
:100D700009F0E4FE06208DF8084008F081F801F043
:100D800069FF002840F0738103AD002608F0A2FD42
:100D9000002840D0162E30D10AE000BFAC18010068
:100DA000D887FF1FC81F01009818010008F0A2FD96
:100DB00008F090FD0028F9D101F04CFF162600281C
:100DC0007DD1152035E008F095FD09F8010B80462E
:100DD00001F040FF00285BD1013408F07BFD0028C2
:100DE0007FF47BAF032C3FF47DAF01F033FF00288D
:100DF0006CD1013E7FF410AF7EE708F07BFD05F873
:100E0000010B044601F026FF00284DD1013608F001
:100E100061FD0028BED1162ECAD001F01BFF0028AC
:100E20004DD1B8F101087FF46FAF701E002840F378
:100E30002D82002303AA1C4612F8011B08254C40F2
:100E400014F0800F4FEA440418BF84F00704013DFA
:100E5000E4B2F5D101338342EEDB9DF8218089486D
:100E60004146224601F0FCFF162EC146A34602D1A0
:100E7000A04500F0138197F884108348CDF800B0A6
:100E80004B46324602F01AF8002011B0BDE8F08F50
:100E90005FFA88F1002310227C4809F05FFE0121EF
:100EA0007B4809F0B5FB97E7E1B2002310227748B1
:100EB00009F054FE0121764809F0AAFBA6E7734821
:100EC00009F03CFE162EACD11520B2E76F4809F0B0
:100ED00035FE8EE709216F4809F09AFB2346102260
:100EE00041466A4809F03AFE0121694809F090FB41
:100EF000234610229DF80910644809F02FFE0121B5
:100F0000634809F085FB102223469DF80A105F48CC
:100F100009F024FE01215E4809F07AFB21460DF11B
:100F20000B0002AA12F8014B6140C9B2082311F06C
:100F3000800F4FEA410118BF81F00701013BC9B2A0
:100F4000F5D19042EED11022504809F007FE4F48EB
:100F500009F0F4FDAFE609214E4809F059FB23469C
:100F600010224146494809F0F9FD0121484809F09D
:100F70004FFB234610229DF80910444809F0EEFD6E
:100F80000121434809F044FB102223469DF80A1032
:100F90003E4809F0E3FD01213D4809F039FB2146B7
:100FA0000DF10B0002AA12F8014B6140C9B20823EF
:100FB00011F0800F4FEA410118BF81F00701013B9A
:100FC000C9B2F5D19042EED11022304809F0C6FDE9
:100FD0002E4809F0B3FDF8E509212E4809F018FB69
:100FE000234610224146294809F0B8FD012128482E
:100FF00009F00EFB234610229DF80910234809F042
:10100000ADFD0121224809F003FB102223469DF883
:101010000A101E4809F0A2FD01211D4809F0F8FA46
:1010200021460DF10B0002AA12F8014B6140C9B232
:10103000082311F0800F4FEA410118BF81F007012A
:10104000013BC9B2F5D19042EED110220F4809F010
:1010500085FD0E4809F072FD41E507210E4809F0B3
:10106000D7FABCE507210C4809F0D2FA41E507217F
:10107000094809F0CDFA87E60721074809F0C8FAC0
:1010800023E600BFE01801002C190100D887FF1FDC
:10109000C81F010098180100A41801009DF80C3029
:1010A00097F88420B3EB420F7FF4EEAE9DF80D303D
:1010B000012B7FF4E9AE9DF80E30122B7FF4E4AEE5
:1010C0009DF810309DF80F0003EB00200CF096F80F
:1010D0007A490CF0E7F8796EF86404460CF09EFA51
:1010E00000B17C66396E20460CF07AFA00B13C669D
:1010F0003D1FAB4607F1180807F130064FF006090F
:101100009AF806309AF8050003EB00200CF076F808
:101110006B490CF0C7F84BF8040FD8F800100446E0
:101120000CF05EFA0AF1020A30B1B96E20460CF0FA
:101130006BFA08B1C8F80040316820460CF06EFA2E
:1011400008F1040800B13460B9F1010906F10406A0
:10115000D6D10020B86407F1140455F8041F0BF031
:1011600099FFAC42F9D19DF81D209DF81E30B8645E
:1011700003EB022002300CF041F852490CF046F922
:10118000014651480CF042F950490BF081FF50499B
:101190000CF088F805460AF0F3F8044628460AF0F1
:1011A000EFF84C490AF05EF94B49054620460CF031
:1011B00079F84A490BF06EFF4949044628460CF07D
:1011C00071F8014620460BF065FF01464FF07E5056
:1011D0000CF01CF943490BF05BFF9DF81F209DF8B4
:1011E0002030386503EB022009300CF007F83E4947
:1011F0000CF00CF9014634480CF008F933490BF0B7
:1012000047FF33490CF04EF805460AF0B9F804469A
:1012100028460AF0B5F82F490AF024F92E49054668
:1012200020460CF03FF82D490BF034FF2C490446C2
:1012300028460CF037F8014620460BF02BFF0146FC
:101240004FF07E500CF0E2F826490BF021FF3D6D87
:101250007865294604460CF0E1F9B96D30BB2046AB
:101260000CF0BEF908B12346BB65294620460CF0B8
:10127000D5F9A0B92946F86D0CF0B2F908B12C46A1
:10128000FC651A4801F0ECFD0120FEE59DF8219077
:10129000174849464246C34601F0E2FDEBE5F96DC9
:1012A00020460CF0BBF90028EAD1EAE728460CF00A
:1012B00097F90028F3D02B46D6E700BF6B57053BC4
:1012C0002003C839001601470AD7E33FE17A64409A
:1012D00000007A4400004040A40D8F395A80473AFC
:1012E00046A6DB3333938843002C014704190100E1
:1012F000E0180100052994BF50F821000020704734
:101300002DE9F0410B4E8046041F00F1140754F8FC
:10131000045F314628460CF063F930B1D8F8681004
:1013200028460CF07BF900B12E46BC42EFD1304686
:10133000BDE8F08100002041F8B50026041F00F14F
:10134000140754F8045F314628460CF067F900B1E1
:101350002E46BC42F5D13046F8BD00BF2DE9F0471E
:10136000876E82464FF00009041F00F114064FF00B
:10137000000854F8045F394628460CF04FF90D492F
:1013800050B128460CF02CF930B1484629460BF0F4
:1013900081FE08F101088146B442EAD1CAF888808A
:1013A00040460BF02BFF014648460CF02FF8BDE8F5
:1013B000F08700BF00007042D0F88800704700BF7F
:1013C00038B5456D046D294620460CF009F900B981
:1013D0002C46204638BD00BF38B5446D056D21460A
:1013E00028460CF0FDF800B92C46204638BD00BF59
:1013F00008B5D0F880301BB1133350F8230008BD76
:10140000416D006D0BF046FE4FF07C510BF04AFF32
:1014100008BD00BF806C704701299ABF143150F895
:1014200021000020704700BF3E2998BF80F884103B
:10143000704700BF90F86C00704700BFC0F8801084
:10144000704700BF80F86C10704700BF816670471E
:1014500070B500F50A550646143500F12004204603
:101460008C34FFF703F8AC42F9D106F1AC05012446
:1014700028460021FFF7E6FF214628460134FFF702
:10148000D3FF3F2C05F18C05F2D142F29C240025BC
:101490000548064A064B3555002130617161B2613D
:1014A000F361304670BD00BF00007A44000048433D
:1014B0000000C8C238B500F50A55143500F1AC0477
:1014C00002E08C34AC420AD02046FFF7B3FF00287C
:1014D000F7D020468C34FEF7F1FFAC42F4D138BD92
:1014E0002DE9F04142F2A02300F50A5637460022CA
:1014F0008046C2501436203700F1AC0402E08C3430
:10150000B4420DD02046FFF795FF0028F7D02046C3
:101510003D68FFF751FF8C342844B4423860F1D164
:1015200042F2A02358F80300BDE8F0812DE9F04F06
:1015300091B0012A00928146059100F0F68109F1EF
:10154000AC0A4FF0010B5046FFF774FFC0B1002505
:101550002C46012629465046D9F80870FFF7CAFEE6
:10156000014638460CF03CF818B106FA05F31C4366
:10157000E4B20135062DEDD1009B012B0AD0F4B960
:101580000BF1010BBBF13F0F0AF18C0ADBD111B05B
:10159000BDE8F08F5946B94809F020FB0321B8484F
:1015A00009F036F8214600230222B44809F0D6FAA1
:1015B0000321B44809F02CF8002C00F0F7804FEA22
:1015C0004B03DBB21946019343F001039DF814204D
:1015D00002931D46184633238DF81E208DF81D30CA
:1015E0008DF81C1008F056F90DF11D00022108F0CD
:1015F0005BF907AA04928DF81C502A4607AB0DF13F
:101600001E0600205040082510F0800F4FEA4000D1
:1016100018BF80F00700013DC0B2F5D19E4202D054
:1016200013F8012FEEE708F035F901F013FB00285D
:1016300040F0E2809DF804308DF81C30022007F065
:101640001FFC01F007FB002840F06A8108AB039300
:101650001F46002508F03EF9002844D01E2D35D144
:1016600001E008F047F908F035F90028F9D101F058
:10167000F1FA00283DD1009B012B40D08DF81E408F
:10168000029C9DF804208DF81C20322320468DF802
:101690001D3008F0FFF80DF11D00022108F004F9DB
:1016A0008DF81C4007AB224600205040082410F063
:1016B000800F4FEA400018BF80F00700013CC0B225
:1016C000F5D19E423BD013F8012FEEE708F012F956
:1016D00007F8010B804601F0BDFA20BB013508F088
:1016E000F9F80028BAD11E2DBDD001F0B3FA0028B8
:1016F000C1D0624809F022FA009B012BBED1039DA4
:1017000009AF15F8011B5D480023102209F026FAE5
:1017100001215D4808F07CFFBD42F2D10321594808
:1017200008F076FFAAE75FFA88F1002310225348F9
:1017300009F014FA0121554808F06AFFCEE708F0D5
:10174000A9F801F087FA002840F0A4809DF8043041
:101750008DF81C30022007F093FB01F07BFA002883
:1017600040F0D980039D002408F0B4F878B31E2C13
:1017700020D101E008F0BEF808F0ACF80028F9D15B
:1017800001F068FA48BB009B012B7FF4F9AE039D82
:1017900009AC15F8011B39480023102209F0DEF9C5
:1017A0000121394808F034FFA542F2D1334809F04D
:1017B000C5F9E5E608F09EF805F8010B064601F0CC
:1017C00049FA70B9013408F085F80028CFD11E2CF1
:1017D000D2D001F03FFA0028D5D0284809F0AEF960
:1017E000D1E7F1B200231022244809F0B7F9012112
:1017F000264808F00DFFE5E70921254808F008FF15
:101800002B46102202991D4809F0A8F901211F4812
:1018100008F0FEFE2B4610229DF81D10174809F017
:101820009DF90121194808F0F3FE10222B469DF87E
:101830001E10124809F092F90121144808F0E8FE40
:1018400029460DF11F0007AA12F8013B5940C9B201
:10185000082311F0800F4FEA410118BF81F0070102
:10186000013BC9B2F5D19042EED11022034809F0F4
:1018700075F9024809F062F9DCE600BFD887FF1F5E
:101880007C1901008019010084190100C81F0100A2
:10189000981801000921274808F0BAFE23461022B3
:1018A0000299254809F05AF90121244808F0B0FEB0
:1018B000234610229DF81D101F4809F04FF9012101
:1018C0001E4808F0A5FE102223469DF81E101A4857
:1018D00009F044F90121194808F09AFE04982146BC
:1018E0000DF11F0210F8013B5940C9B2082311F055
:1018F000800F4FEA410118BF81F00701013BC9B2D7
:10190000F5D18242EED110220B4809F027F90A489E
:1019100009F014F91AE70721094808F079FE21E7D0
:101920000721074808F074FE90E6034809F006F91D
:1019300005E600BF98180100D887FF1FC81F0100E7
:10194000A41801002DE9F04F824685B04FF0000940
:1019500001238DF800908DF801908DF802304FF042
:1019600003080024204607F095FF02210DF1010035
:1019700007F09AFF8DF8004001F06CF930B30921AF
:10198000B54808F045FE002310222146B34809F06F
:10199000E5F80121B24808F03BFE002310229DF833
:1019A0000110AE4809F0DAF80121AD4808F030FE28
:1019B000002310229DF80210A84809F0CFF8012159
:1019C000A74808F025FEA54809F0B8F802208DF8D0
:1019D000004007F055FA01F03DF9002840F08980F9
:1019E00001AF3E46002407F075FF002867D0042CA5
:1019F00058D101E007F07EFF07F06CFF0028F9D115
:101A000001F028F910B1954809F098F89DF80430D4
:101A1000802B40F01E819DF80530002B40F019818D
:101A20009DF80640012C40F014818E4801F018FA10
:101A30000AF1AC06254604E001353F2D06F18C067F
:101A400086D03046FFF7F6FC83460028F4D13B22CF
:101A500065F07F0301208DF801208DF802308DF8AC
:101A600000B007F017FF0DF10100022107F01CFF85
:101A700001228DF80020E84658466B460DF102021F
:101A80006040C0B2082410F0800F4FEA400018BF39
:101A900080F00700013CC0B2F5D193422ED013F87C
:101AA000014FEDE707F026FF06F8010B054601F0B0
:101AB000D1F898B9013407F00DFF002897D1042C14
:101AC0009AD001F0C7F810B1644809F037F8B8F1BE
:101AD000010800F0BE809DF8004043E7E9B2002312
:101AE00010225E4809F03AF801215D4808F090FDA7
:101AF000E0E707215C4808F08BFD71E707F0CAFEBC
:101B000001F0A8F800285AD103208DF8009007F0C2
:101B1000B7F901F09FF8002840F09680002407F004
:101B2000D9FEB0B30A2C27D101E007F0E3FE07F09D
:101B3000D1FE0028F9D101F08DF800287FD19DF861
:101B40000430812B7FF404AF9DF805303B2B7FF4EC
:101B5000FFAE9DF806308035AB427FF4F9AE3046DB
:101B60000121FFF76FFC0AF50A5340489A690132D8
:101B70009A6101F075F9EBE607F0BCFE07F8010B7E
:101B8000804601F067F870B9013407F0A3FE002821
:101B9000C8D10A2CCBD001F05DF8002850D1022C1E
:101BA0007FF7D6AECBE75FFA88F1002310222B48EF
:101BB00008F0D4FF01212A4808F02AFDE4E70921B2
:101BC000254808F025FD234610220121234808F06E
:101BD000C5FF0121224808F01BFD234610229DF875
:101BE00001101E4808F0BAFF01211D4808F010FD41
:101BF000102223469DF80210184808F0AFFF01217B
:101C0000174808F005FD21460DF1030218F8014BB5
:101C10006140C9B2082311F0800F4FEA410118BF9B
:101C200081F00701013BC9B2F5D14245EED1102246
:101C30000A4808F093FF094808F080FF64E70A2487
:101C4000064808F07BFFAAE70721074808F0E0FCF8
:101C500064E705B0BDE8F08F98180100D887FF1F32
:101C6000C81F010088190100A4180100941901007F
:101C70002DE9F04742F2982284B0002301278350D7
:101C800082468DF804308DF8053000F1AC088DF8EF
:101C900006704FEA47095FFA89F400214046FFF7D2
:101CA000D1FB20468DF8044007F0F4FD02210DF130
:101CB000050007F0F9FD8DF8044000F0CBFF30B3CC
:101CC0000921494808F0A4FC002310222146474876
:101CD00008F044FF0121464808F09AFC0023102236
:101CE0009DF80510414808F039FF0121404808F0EF
:101CF0008FFC002310229DF806103C4808F02EFFB0
:101D000001213B4808F084FC384808F017FF1420F4
:101D10008DF8044007F0B4F800F09CFF00285DD176
:101D200002AE002407F0D6FD40B3082C19D101E023
:101D300007F0E0FD07F0CEFD0028F9D100F08AFFA2
:101D4000002846D19DF808304B4522D001370520A8
:101D500007F096F83F2F08F18C089AD104B0BDE83F
:101D6000F08707F0C7FD054606F8010B00F072FF8B
:101D700020BB013407F0AEFD0028D6D1082CD9D005
:101D800000F068FF30BB042CE0DD9DF808304B45C7
:101D9000DCD19DF80930002BD8D19DF80A1001291B
:101DA000D4D19DF80C30002BD0D04046FFF74AFB31
:101DB0000AF50A539A6901329A61C7E7E9B200232A
:101DC00010220A4808F0CAFE0121094808F020FC48
:101DD000CFE70824054808F0B1FED4E707210548FD
:101DE00008F016FC9CE700BF98180100D887FF1F79
:101DF000C81F0100A41801002DE9F04700F50A569C
:101E0000354684B080461436183500F1AC040027FE
:101E1000204600218C34FFF715FBB4422F60F7D128
:101E200002270DF106064FF07F093C22A5237E21F3
:101E30007F208DF805208DF806308DF8041001AD57
:101E400007F028FD0DF10500022107F02DFD8DF8AA
:101E500004902B467F2200205040082410F0800F71
:101E60004FEA400018BF80F00700013CC0B2F5D136
:101E7000B34202D013F8012FEEE707F00BFD00F09C
:101E8000E9FE00285AD17E2364208DF8043006F044
:101E9000F7FF00F0DFFE002840F090800DF1080A07
:101EA000002407F017FD20B3082C15D101E007F03E
:101EB00021FD07F00FFD0028F9D100F0CBFEF0B9AD
:101EC0009DF808307F2B21D0013FAED14046FFF76F
:101ED00039FD04B0BDE8F08707F00CFD05460AF8AF
:101EE000010B00F0B7FEF0B9013407F0F3FC002855
:101EF000DAD1082CDDD000F0ADFE0028E0D0324869
:101F000008F01CFE9DF808307F2BDDD19DF80930CC
:101F10003C2BD9D19DF80A30A52BD5D19DF80B309B
:101F2000572BD1D1D2E7E9B200231022264808F07E
:101F300015FE0121254808F06BFBD5E7092124484F
:101F400008F066FB234610227F211F4808F006FE9A
:101F500001211E4808F05CFB234610229DF8051065
:101F6000194808F0FBFD0121184808F051FB102228
:101F700023469DF80610144808F0F0FD012113488F
:101F800008F046FB21460DF1070215F8014B6140B0
:101F9000C9B2082311F0800F4FEA410118BF81F048
:101FA0000701013BC9B2F5D1AA42EED11022064881
:101FB00008F0D4FD044808F0C1FD64E70721054896
:101FC00008F026FB6AE700BFD887FF1FC81F010083
:101FD00098180100A41801002DE9F04385B04FF0D6
:101FE0007F082022FF2381468DF804808DF805208C
:101FF0008DF8063003260DF1060548F00107384636
:1020000007F048FC0DF10500022107F04DFC8DF8AA
:1020100004703A4601AB00205040082410F0800FB5
:102020004FEA400018BF80F00700013CC0B2F5D174
:10203000AB4202D013F8012FEEE707F02BFC00F0C3
:1020400009FE002840F0768202208DF8048006F018
:1020500017FF00F0FFFD002840F0B2820DF10808E4
:10206000002407F037FC002843D0042C34D101E0D1
:1020700007F040FC07F02EFC0028F9D100F0EAFD43
:1020800010B1C14808F05AFD4FF07F0800238DF8C9
:1020900004808DF80630032648F00107384607F023
:1020A000F9FB0DF10500022107F0FEFB8DF804702D
:1020B0003A4601AB00205040082410F0800F4FEA50
:1020C000400018BF80F00700013CC0B2F5D1AB4220
:1020D00028D013F8012FEEE707F00CFC08F8010BED
:1020E000074600F0B7FD70B9013407F0F3FB002894
:1020F000BBD1042CBED000F0ADFD78B9013EC3D0F9
:102100009DF8048079E7F9B2002310229E4808F078
:1021100025FD01219D4808F07BFAE5E79A4808F083
:102120000DFDEBE707F0B6FB00F094FD002840F052
:10213000C08102208DF8048006F0A2FE00F08AFD26
:10214000002840F038820DF10808002407F0C2FB97
:10215000002846D0042C37D101E007F0CBFB07F074
:10216000B9FB0028F9D100F075FD10B1864808F0E0
:10217000E5FC4FF07F082122FF238DF804808DF8C5
:1021800005208DF80630032648F00107384607F091
:1021900081FB0DF10500022107F086FB8DF804702C
:1021A0003A4601AB00205040082410F0800F4FEA5F
:1021B000400018BF80F00700013CC0B2F5D19D423D
:1021C00028D013F8012FEEE707F094FB08F8010B75
:1021D000074600F03FFD70B9013407F07BFB002893
:1021E000B8D1042CBBD000F035FD78B9013EC0D089
:1021F0009DF8048050E7F9B200231022624808F0ED
:10220000ADFC0121614808F003FAE5E75E4808F0FB
:1022100095FCEBE707F03EFB00F01CFD002840F0CA
:10222000078102208DF8048006F02AFE00F012FDDE
:10223000002840F0CF810DF10808002407F04AFB88
:10224000002843D0042C34D101E007F053FB07F001
:1022500041FB0028F9D100F0FDFC10B14A4808F01C
:102260006DFC4FF07F0800238DF804808DF8063058
:10227000032648F00107384607F00CFB0DF1050076
:10228000022107F011FB8DF804703A4601AB0020E3
:102290005040082410F0800F4FEA400018BF80F033
:1022A0000700013CC0B2F5D19D4228D013F8012FA0
:1022B000EEE707F01FFB08F8010B074600F0CAFC29
:1022C00070B9013407F006FB0028BBD1042CBED046
:1022D00000F0C0FC78B9013EC3D09DF8048053E7FC
:1022E000F9B200231022284808F038FC01212748C1
:1022F00008F08EF9E5E7244808F020FCEBE707F04A
:10230000C9FA00F0A7FC002851D102208DF8048002
:1023100006F0B6FD00F09EFC002840F056810DF15D
:102320000808002407F0D6FA18B3042C14D101E0F1
:1023300007F0E0FA07F0CEFA0028F9D100F08AFCA5
:1023400010B1114808F0FAFB42F29C23002209F870
:10235000032005B0BDE8F08307F0CCFA08F8010BC4
:10236000074600F077FC98B9013407F0B3FA00286B
:10237000DBD1042CDED000F06DFCA0B9013EE3D02F
:102380009DF8048075E700BFD887FF1FC81F0100B4
:10239000F9B200231022924808F0E0FB0121914895
:1023A00008F036F9E0E78E4808F0C8FBE6E70921B7
:1023B0008D4808F02DF9234610223946884808F048
:1023C000CDFB0121874808F023F9234610229DF810
:1023D0000510834808F0C2FB0121824808F018F973
:1023E000102223469DF806107D4808F0B7FB012116
:1023F0007C4808F00DF921460DF1070001AA12F8FA
:10240000014B6140C9B2082311F0800F4FEA41012E
:1024100018BF81F00701013BC9B2F5D19042EED15E
:1024200010226F4808F09AFB6D4808F087FB6CE7B4
:1024300009216D4808F0ECF8234610223946684817
:1024400008F08CFB0121674808F0E2F823461022CF
:102450009DF80510624808F081FB0121614808F0F1
:10246000D7F8102223469DF806105D4808F076FB49
:1024700001215C4808F0CCF821460DF1070001AAC3
:1024800012F8014B6140C9B2082311F0800F4FEAE6
:10249000410118BF81F00701013BC9B2F5D190425B
:1024A000EED110224E4808F059FB4D4808F046FB8B
:1024B000B7E609214C4808F0ABF82346102239460C
:1024C000474808F04BFB0121464808F0A1F8234695
:1024D00010229DF80510424808F040FB01214148B8
:1024E00008F096F8102223469DF806103C4808F0A4
:1024F00035FB01213B4808F08BF821460DF1070020
:1025000001AA12F8014B6140C9B2082311F0800FF3
:102510004FEA410118BF81F00701013BC9B2F5D173
:102520009042EED110222E4808F018FB2C4808F0FB
:1025300005FBFEE509212C4808F06AF82346102225
:102540003946274808F00AFB0121264808F060F8C0
:10255000234610229DF80510214808F0FFFA0121BA
:10256000204808F055F8102223469DF806101C4814
:1025700008F0F4FA01211B4808F04AF821460DF151
:10258000070001AA12F8014B6140C9B2082311F0FB
:10259000800F4FEA410118BF81F00701013BC9B22A
:1025A000F5D19042EED110220D4808F0D7FA0C4830
:1025B00008F0C4FA48E507210C4808F029F8C2E5FC
:1025C00007210A4808F024F848E50721074808F0E1
:1025D0001FF8A4E60721054808F01AF82BE600BF0B
:1025E000D887FF1FC81F010098180100A418010018
:1025F00038B500F50A55143500F1AC0402E08C340E
:10260000AC420AD02046FEF715FF0028F7D020463E
:102610008C34FEF73FF9AC42F4D138BD2DE9F04FD0
:102620000546002345F8AC3B00F50A5783B08246C7
:102630002C46143702E08C34BC420AD02046FEF708
:10264000F9FE0028F7D020468C34FEF723F9BC426F
:10265000F4D1C82006F014FC2C46012604E0013613
:102660003F2E04F18C046ED02046FEF7E3FE0028D6
:10267000F5D0764800F0F4FB3146754800F0F0FBE9
:102680002046FEF7DBF92046FEF7C4FE0AF060F9AB
:1026900002460B466F4800F0E3FB2046FEF730FE93
:1026A00080462046FEF748FE834640460AF050F931
:1026B0008046584689460AF04BF942464B46CDE9DA
:1026C0000001654800F0CCFB00212046FEF7A4FE87
:1026D000012180462046FEF79FFE834640460AF0D1
:1026E00037F98046584689460AF032F942464B4649
:1026F000CDE90001594800F0B3FB2046FEF78AFE01
:102700000146DAF800000AF0C5FCCAF800002046CD
:10271000FEF756FEDAF818100AF062FF00287BD1A7
:102720002046FEF759FEDAF81C100AF077FF002861
:1027300095D02046FEF750FE01363F2ECAF81C0009
:1027400004F18C0490D1DAF804000AF057FD014638
:10275000DAF800000AF05AFEDAF81410CAF800009D
:1027600004460AF05BFF08B1CAF81440DAF810100A
:1027700020460AF035FF08B1CAF810400B2006F0D9
:1027800049FB42F29C231AF8033000284AD1002B5F
:1027900058D042F29C2301220AF803200023CAF8F1
:1027A0000C302C4602E08C34BC4215D02046FEF79B
:1027B00041FE0028F7D02046FEF7BEFDDAF80C10E7
:1027C0000AF02CFF0028EED02046FEF7B5FD8C3431
:1027D000BC42CAF80C00E9D1214BCAF8083002E02B
:1027E0008C35BD4215D02846FEF724FE0028F7D0D0
:1027F0002846FEF785FDDAF808100AF0F1FE0028F9
:10280000EED02846FEF77CFD8C35BD42CAF80800A4
:10281000E9D103B0BDE8F08F2046FEF7D1FDCAF83C
:1028200018007DE72BB942F29C2300220AF803200E
:10283000B4E70C4800F02CFB42F29C2300220AF87B
:102840000320ABE7084800F039FBA2E7881B010032
:10285000A8190100E4190100F8190100241A010067
:102860000000A040781A0100401A010080687047FB
:10287000C06870470068704741607047F8B500F560
:102880000A550F461646143500F1AC0402E08C34AC
:10289000AC420FD02046FEF7CDFD0028F7D02046F1
:1028A0003946FEF7CBFD204631468C34FEF7CEFD8F
:1028B000AC42EFD1F8BD00BF2DE9F04100F50A555B
:1028C00080460027143500F1AC04002602E08C3469
:1028D000A54210D02046FEF7ADFD0028F7D02046D7
:1028E000FEF786FD0F490AF099FE88B98C34A5429F
:1028F00006F10106EED142F2982358F80300801B3E
:102900000AF07CFC014638460AF080FDBDE8F08103
:102910002046FEF76DFD014638460AF0BBFB074630
:10292000D5E700BF00008CC2F8B500F50A55074690
:102930000026143500F1AC0402E08C34AC420FD018
:102940002046FEF777FD0028F7D02046FEF706FD6B
:10295000014630460AF09EFB8C34AC420646EFD16D
:1029600042F29823F8580AF049FC014630460AF032
:102970004DFDF8BD2DE9F04F06468FB076488B46E9
:1029800000F016FA744800F013FA734800F010FAD9
:1029900042F298233046F2580D92FEF7A1FD73687B
:1029A0000C930746306809F0D3FF804630468946CD
:1029B000FFF7BAFF82463046B468F568FFF77CFF40
:1029C00009F0C6FFCDE90A01214628460AF060FB5E
:1029D00062490AF067FC09F0BBFFCDE9080128460F
:1029E00009F0B6FFCDE90601204609F0B1FFCDE9B7
:1029F0000401504609F0ACFF0D9A0C9BCDE9020191
:102A0000CDE90089114656483A4600F0D1F95248BE
:102A100000F0CEF9AC3601274FF0000A05E001378F
:102A20003F2F06F18C0600F08E803046FEF702FD47
:102A30000028F4D03046FDF71DFF3046FDF71EFF9D
:102A40003046FDF71FFF3046FDF720FF08214548BF
:102A500007F0DEFD3946444808F0C0F8092F75DD5F
:102A60000221424807F0D4FD3046FEF7D3FC09F0BE
:102A70006FFF5FFA8BF902460B46CDF800903A489B
:102A800008F0B6F801213A4807F0C2FD5546002487
:102A900020E00621374807F0BBFD2946324808F000
:102AA0009DF80221344807F0B3FD21463046FEF779
:102AB00021FC09F04DFFCDF8009002460B462A4854
:102AC00008F096F801340121294807F0A1FD062CF1
:102AD00009D04546092D05F10108DADC0121274816
:102AE00007F096FDD5E71121254807F091FD00215B
:102AF0003046FEF791FC09F02BFF022402460B46FC
:102B00000094194808F074F812211E4807F080FD5F
:102B100001213046FEF780FC09F01AFF00940246BE
:102B20000B46114808F064F80121174807F070FDC2
:102B300001370D4808F002F83F2F0AF1060A06F1A6
:102B40008C067FF472AF0FB0BDE8F08F01210B4807
:102B500007F05EFD84E700BF881B010000007A4497
:102B6000201D0100C01D0100D887FF1F342B01006C
:102B7000CC1D0100D01D0100B81F0100C81F0100BD
:102B8000D81D0100EC1D0100001E01002DE9F041DF
:102B900000F1AC0582B0012604E001363F2E05F1BC
:102BA0008C0549D02846FEF745FC0028F5D0314673
:102BB000234808F013F80121224807F029FD0024DA
:102BC0004FF0020821462846FEF794FB09F0C0FEAC
:102BD000CDF8008002460B46194808F009F8013488
:102BE0000121184807F014FD062C4FF00207E9D127
:102BF00000212846FEF710FC09F0AAFE00970246C5
:102C00000B460F4807F0F4FF01210E4807F000FDC6
:102C100001212846FEF700FC09F09AFE00970246C3
:102C20000B46074807F0E4FF0136054807F086FF2A
:102C30003F2E05F18C05B5D102B0BDE8F08100BF93
:102C4000D887FF1F041E0100014B1870704700BF9A
:102C50002087FF1F024B1878B0FA80F040097047B8
:102C60002087FF1F0278002A00F0908070B503468D
:102C700082B00D46252A2AD158785C1C08B3252835
:102C80002FD0732831D0642824D0692822D0662818
:102C90004FD07A2859D0782835D058282FD062289C
:102CA0003ED0422838D06C2814D0632812D0742823
:102CB00057D054285FD007F02FFD6278631C002A9C
:102CC000D8D1344802B0BDE8704007F037BF18785B
:102CD0001C46F0E72B1D29682E481D4607F07EFF95
:102CE000EBE7104607F018FDE7E72E6830460BF0DB
:102CF000E7FA01463046043507F08AFCDDE7022199
:102D0000254807F085FC2E1D296822480023102243
:102D1000354607F023FFD0E70221204807F078FC72
:102D20002E1D29681B4800230222354607F016FF96
:102D3000C3E7073525F007050321D5E9002315482A
:102D40000091083507F054FFB7E7073525F0070570
:102D50000021D5E900230F480091083507F048FF0E
:102D6000ABE7296801290EBF0D480E480121043543
:102D700007F04EFCA1E72B68012B07BF04210A488E
:102D80000A480521043507F043FC96E7014807F09F
:102D9000D5BE00BFD887FF1F081E01000C1E010012
:102DA000101E0100141E0100181E0100201E01004B
:102DB0000FB400B583B004A951F8040B0191FFF7DB
:102DC00051FF03B05DF804EB04B0704770B51B4BC6
:102DD0001B4C1B6882B00D460193019B2360194672
:102DE00004460023164617480A2207F0B7FE0321BF
:102DF000154807F00DFC032C07D8DFE804F01A157E
:102E000010020521114807F003FC0221104807F0C9
:102E1000FFFB31462846FFF725FF02B070BD0721B2
:102E20000C4807F0F5FBF0E704210B4807F0F0FB36
:102E3000EBE70521094807F0EBFBE6E738B9FF1F90
:102E40005492FF1FD887FF1F7C190100401E01000C
:102E5000B81F0100381E0100301E0100281E0100AD
:102E60000FB400B5094B187883B020B103B05DF8FA
:102E700004EB04B0704705AB1A4604990193FFF7C1
:102E8000A5FF03B05DF804EB04B070472087FF1F77
:102E90000FB4094B00B51B78012B83B004D903B0E4
:102EA0005DF804EB04B0704705AB1A460499019332
:102EB0000120FFF78BFFF2E72087FF1F0FB40B4BBA
:102EC00000B51B78032B83B004D903B05DF804EB85
:102ED00004B0704705AB1A46049901930320FFF72D
:102EE00075FF03B05DF804EB04B070472087FF1F47
:102EF00030B4074D074C084900232B70236003654D
:102F00004365836580F85C300B6030BC704700BF60
:102F10006092FF1F5C92FF1F5892FF1FF8B53A485E
:102F20003A4C3B4D3B4EFFF743FF3B4B3B493C4844
:102F30003C4A5C6014271F703B4F3C4CD9601861C1
:102F400000213B485D615E623A4DDF624FF07C5686
:102F50000C279A619C62384A384C19635863384987
:102F60009D6340F61C400A255E641F6541F204061D
:102F7000344F9A64DC6402220124196298660021AD
:102F80003220DD661E6764254FF49676DF61DF63CD
:102F90005A275A705A7283F84010C3F89C0018667A
:102FA0005E66DE651C725C659D654FF47A7C5F67CA
:102FB000DFF898E09967DA67C3F88010C3F88800F3
:102FC000C3F8A400204FC3F8A010FF2641F28831B7
:102FD0000520C3F8B02040F2D662C3F8AC40C3F875
:102FE000B450C3F88CC0C3F890E0C3F89470C3F831
:102FF000A860A3F8BA00C3F88410A3F8B810A3F827
:103000009820A3F89A20F8BD481E010020A10700CF
:1030100033338340CDCCCC3D4C93FF1F6666864056
:1030200000004040CDCC4C40000020C10000824256
:10303000000020420000A0409A9979400AD7233D21
:1030400033337340CDCC4C3E00C020440000684276
:10305000F0B54FF47A6085B005F012FF00210F2023
:1030600005F0E6FE00210E2005F0E2FE0021112011
:1030700005F0DEFE0021102005F0DAFE002112200E
:1030800005F0D6FE0021132005F0D2FE01210B2011
:1030900005F0CEFE01210C2005F0CAFE012114200E
:1030A00005F0C6FE0121152005F0C2FE0121162003
:1030B00005F0BEFE0121172005F0BAFE0121052012
:1030C00005F0B6FE854D864C0121062005F0B0FEC8
:1030D00001210D2005F0ACFE28880AF08BF801468E
:1030E000162005F00FFE28880AF084F80146172004
:1030F00005F008FE28880AF07DF80146052005F055
:1031000001FE28880AF076F800250146062005F021
:10311000F9FD2B46734A74497448009504F0BAFED1
:1031200020684FF0FF32102104F08CF920684FF036
:10313000FF32102104F05EF920684FF0FF320421C5
:1031400004F06CF920684FF0FF32012104F070F9AF
:103150002A460F21206804F07FF90C21644807F00B
:1031600057FA644807F0EAFC1021634807F050FA68
:10317000604807F0E3FC44F6206005F03FFF5D483F
:1031800007F0DCFC17215D4807F042FA594807F0C8
:10319000D5FC5B4B1B789A0600F1D480584B1B780A
:1031A0001B0700F1DB80564B1B785F0700F1E280C4
:1031B000534B1B789E0700F1E980524B1B781D068C
:1031C00000F1F0804F4B1B785C0600F1F7804D4B0F
:1031D0001B78980600F1FE804A4B1B78590700F1D6
:1031E0000581484B1B781A0700F10C81454B1B7871
:1031F0009B0700F113813F4807F0A0FC72B6424ADA
:103200004CF220534DF628112024138023461180C0
:10321000013BFDD13D4D3E483E4900234FF48056D1
:103220002E8003800B8032F80E3C9BB243F0D30318
:1032300022F80E3C62B69D2006F0DCFA21463648A4
:10324000364D07F0E5F92B4807F078FC05F1BC0690
:103250002F462C46601B05F0F1FA04F8010BB4422E
:10326000F8D13B78142B01D0FFF758FE2C482D4C99
:10327000FEF7C2FD0420FFF7E7FC2B4B2848002295
:103280001A60FEF7F5FC01210D2005F0BDFD796DFA
:103290002348FFF7F1FA7A6C97F840102048FFF7BF
:1032A000EDFA224B22491B68224A1D48126881FB15
:1032B0000351DB17A3EB211313FB02F32380FEF76B
:1032C0008BFE1D4B1D491A68039203981B680293DD
:1032D000029A1B4B08601A6005B0F0BD2887FF1FDB
:1032E000B494FF1F2CB9FF1F20A1070090B7FF1F48
:1032F000681E0100D887FF1F781E01008C1E010088
:1033000001F0074000F007400E2005400420054072
:103310000620054016200540901F01004C93FF1F1A
:10332000EC94FF1FC094FF1F7892FF1F6087FF1F60
:103330001F85EB515C87FF1F38B9FF1FE894FF1F03
:103340001094FF1F2121394807F062F9384807F02F
:10335000F5FB384B1B781B077FF525AF0C21364852
:1033600007F056F9324807F0E9FB324B1B785F074C
:103370007FF51EAF0E21314807F04AF92C4807F0BF
:10338000DDFB2C4B1B789E077FF517AF17212C48D0
:1033900007F03EF9264807F0D1FB2A4B1B781D06A3
:1033A0007FF510AF0E21284807F032F9204807F0CA
:1033B000C5FB244B1B785C067FF509AF122123481F
:1033C00007F026F91A4807F0B9FB1E4B1B78980640
:1033D0007FF502AF13211E4807F01AF9144807F0D1
:1033E000ADFB184B1B7859077FF5FBAE1C21194824
:1033F00007F00EF90E4807F0A1FB124B1B781A07D5
:103400007FF5F4AE1921144807F002F9084807F0D7
:1034100095FB0C4B1B789B077FF5EDAE18210F48F1
:1034200007F0F6F8024807F089FBE4E6A41E010065
:10343000D887FF1F01F00740C81E0100D81E0100F9
:10344000E81E010000F00740001F0100101F0100EE
:10345000241F0100381F0100581F0100741F0100C4
:10346000F8B5464C464D4748E66800232B70FFF7F9
:10347000FFF9014630460AF0B3F808B104232B7077
:103480004048FFF7F3F921690AF0AAF818B12B7840
:1034900043F010032B703B48FFF70EFAA16A0AF0C5
:1034A000BDF818B12B7843F040032B70002335484A
:1034B0006B70FFF701FAE16A314D0AF091F808B13B
:1034C00001236B70304D2F4800232B70FFF7D0F98C
:1034D000616A0646E06809F0DBFD014630460AF005
:1034E0009DF808B104232B702648FFF7BFF9616AE5
:1034F0000646206909F0CEFD014630460AF070F814
:1035000018B12B7843F010032B701E48FFF7D4F945
:10351000A16B0646A06A09F0BBFD014630460AF0E1
:103520007DF818B12B7843F040032B700023154829
:103530006B70FFF7C1F9A16B134F0646E06A09F003
:10354000A9FD014630460AF04BF808B101237B7013
:1035500000230C48EB70FFF78BF9054609480A4E2B
:10356000FFF784F90146284609F092FDE16B0AF065
:1035700055F808B10123F370F8BD00BF4C93FF1F4D
:103580004893FF1FEC94FF1FA894FF1F2DE9F04103
:103590007C4C2368012B82B031D0022B00F0A88034
:1035A000032B00F0C8803BBB774B784AD3F8A410BC
:1035B000D3F8A83012685B1A632B0EDD744803FB46
:1035C00002F380FB0302DB17C3EB621319440620EE
:1035D00002B0BDE8F04105F097BA6E4803FB022344
:1035E00080FB0302DB17C3EB22121144062002B05A
:1035F000BDE8F04105F088BA02B0BDE8F081664E42
:1036000033680A33B3F57A7F00F3B7801846336026
:1036100009F0F4FD614909F045FE80465A4DD5F8A0
:10362000A40009F0EBFD0746D5F8A80009F0E6FD77
:10363000394609F02DFD414609F034FE584909F09C
:10364000E5FE394609F026FD0AF008F80146062095
:1036500005F05AFA0221534806F0DAFF524807F003
:103660006DFA0621514806F0D3FF306809F0C6FD17
:103670004A4909F017FE09F06BF9022702460B468A
:103680000097494807F0B4FA0D21494806F0C0FFF9
:10369000D5F8A40009F0B2FD8046306809F0AEFD0F
:1036A0003E4909F0FFFD0646D5F8A80009F0A6FD41
:1036B000414609F0EDFC0146304609F0F3FD38497A
:1036C00009F0A4FE414609F0E5FC09F041F9009734
:1036D0000B460246344807F08BFA3946314806F06B
:1036E00097FF314807F02AFA2368022B7FF458AF7E
:1036F000294B254E00221A60D6F8A40009F07EFD61
:103700000546D6F8A80009F079FD294609F0C0FC65
:10371000002109F0C7FD224909F078FE294609F089
:10372000B9FC09F09BFF0146062005F0EDF923687E
:10373000032B7FF438AF184B134E4FF47A721A6094
:10374000D6F8A40009F05AFD0546D6F8A80009F0FD
:1037500055FD294609F09CFC114909F0A3FD1049CB
:1037600009F054FE294609F095FC09F077FF01465F
:10377000062005F0C9F9236815E700234FF000087B
:1037800033604BE79494FF1F4C93FF1F3487FF1F58
:103790001F85EB51CBF08D287C92FF1FCDCCCC3D0B
:1037A0000000C842342B0100D887FF1FB41F01005E
:1037B000BC1F010070B5A248A24C07F0BFF9A04899
:1037C00007F0BCF99E4807F0B9F90D219E4806F0B4
:1037D0001FFFD4F8A030012B11D09C4C98482178C1
:1037E00000230A2207F0BAF92378052B67D8DFE80F
:1037F00013F0E900EE00F300F800FD00E4000921F9
:10380000934806F005FF9348FFF730F8216909F067
:10381000E7FE18B10F21904806F0FAFE8D48FFF739
:1038200027F8E16809F0FAFE18B10E218B4806F07E
:10383000EFFE8848FFF71CF805468648FFF716F8A4
:103840000146284609F024FCE16B09F0E7FE18B1B7
:103850001121834806F0DCFE7E48FFF72DF8A16AAF
:1038600009F0DCFE18B10C217E4806F0D1FE794843
:10387000FFF722F8E16A09F0B3FE18B10D217A488A
:1038800006F0C6FE794B73481B68012B00F0C2801E
:10389000FEF7ECFF21696B4D09F0C0FE78B16D4871
:1038A000FEF7E6FFE96809F09BFE40B1674B1B7825
:1038B000052B00F0C08008216D4806F0A9FE02210A
:1038C0006C4806F0A5FE122005F0A4FA012800F0CD
:1038D0009C80112005F09EFA012800F09180664B33
:1038E0001B68012B00F087800221624806F090FEE1
:1038F000624B5348196807F071F9514807F01EF9F7
:1039000004215F4806F084FE0B2005F083FA0023B3
:1039100001460A224A4807F021F90C2005F07AFAFC
:10392000002301460A22464807F018F9142005F042
:1039300071FA002301460A22414807F00FF91520C9
:1039400005F068FA002301460A223D4807F006F90F
:1039500006214C4806F05CFE4B4B394819680222A0
:10396000002307F0FBF80421484806F051FE11201F
:1039700005F050FA002301460A22314807F0EEF81C
:10398000102005F047FA002301460A222C4807F0D0
:10399000E5F8122005F03EFA002301460A222848E5
:1039A00007F0DCF8132005F035FA002301460A225F
:1039B0002348BDE8704007F0D1B80721344806F02D
:1039C00027FE7CE70621334806F022FE77E7072131
:1039D000314806F01DFE72E70721304806F018FE58
:1039E0006DE708212E4806F013FE68E70B212D48ED
:1039F00006F00EFE63E711212B4806F009FE73E77F
:103A00000A212A4806F004FE69E70E21284806F03C
:103A1000FFFD5EE7FEF72AFF216A09F0FFFD00289F
:103A20003FF449AF1621234806F0F2FD0A2122484F
:103A300006F0EEFD43E70A211F4806F0E9FD3EE7E8
:103A4000D887FF1F4C93FF1FCC1F0100A494FF1FBA
:103A5000DC1F0100EC94FF1FE81F0100F81F0100AC
:103A6000082001001C2001002C2001008892FF1F6B
:103A700060200100342B0100BC94FF1F9894FF1FAD
:103A8000D4200100DC2001000894FF1FE420010085
:103A90009C2001006C20010074200100882001009E
:103AA000902001007C200100C0200100B420010012
:103AB000A42001003C200100542001002DE9F04F1A
:103AC000934C944FE36F012B8DB000F04981032B91
:103AD00050D0914E914DA36F9148012B09BF296899
:103AE000296801F10041296004F09AFD3368002B38
:103AF00040F0CE808A4804F069FDE36F3860012B06
:103B0000064600F0D280874909F088FD78B98649D9
:103B1000304609F065FD50B9844A854B12680B9216
:103B20000B9A1A6000232B600DB0BDE8F08FDFF810
:103B3000FC817F4CD8F800300A930A9823687D4FA7
:103B4000C01A09F057FB314609F0ACFB7A4909F07D
:103B50005DFC794909F05AFC396809F09BFAD8F8FC
:103B600000300993099B2360002338602B600DB05F
:103B7000BDE8F08FDFF8C881704DD8F80000664EC0
:103B8000012300220F212B6003F066FC2B68012B20
:103B9000336800F00381002B40F0A6810021D8F8A3
:103BA0000000DFF8B891664D03F0A8FC33681FFAF7
:103BB00080FBC9F800B0002B40F07B810021D8F8D1
:103BC0000000564DDFF878A103F01EFCB4F89A30DF
:103BD00040F6E44101FB0BF1B1FBF0F0C01A00B27A
:103BE00009F00CFB57498346D4F8900009F05AFBC2
:103BF0000146584609F00AFCD9F800302860632BCA
:103C0000DFF858B100F3498100232B603368002BA3
:103C10003FF461AF02214C4806F0FAFCD9F80020CD
:103C2000D8F8000040F6E443002103FB02F803F05B
:103C3000EBFBB8FBF0F009F0DDFA8046B4F89A002F
:103C400009F0DCFA0146404609F022FA08F080FE4D
:103C50004FF0020802460B46CDF800803B4806F0C4
:103C6000C7FF4146384806F0D3FC286808F070FECC
:103C7000CDF8008002460B46344806F0B9FF4146B5
:103C8000334806F0C5FC41462F4806F0C1FC22E748
:103C9000234804F09BFC08F05BFE022602460B461C
:103CA00000962A4806F0A4FF24E7244B1B68012B4A
:103CB00000F02681022B7FF435AF264909F0AEFCD7
:103CC00030B92549304609F08BFC002800F04781C7
:103CD000DFF85880164CD8F800300793079823680F
:103CE000144FC01A09F086FA314609F0DBFA12497E
:103CF00009F08CFB104909F089FB396809F0CAF911
:103D0000D8F800300693069B386023600AE700BFAE
:103D10004C93FF1F9492FF1FE094FF1F8492FF1F9C
:103D20002493FF1F0000FA430000FAC338B9FF1FB5
:103D30006492FF1F9C92FF1F00007A445087FF1F70
:103D4000B494FF1F17B7D138342B0100D887FF1F59
:103D50002821010000C82F4800A08CC64493FF1FF3
:103D60003D689849284609F03BFC30B12846964901
:103D700009F054FC00287FF4FDAEDFF85882934D23
:103D8000D8F80000924E022300220E212B6003F08F
:103D900063FB2B68012B33687FF4FDAE002B40F0F2
:103DA00000810021D8F80000DFF86C92894D03F003
:103DB000A5FB33681FFA80FBC9F800B0002B40F068
:103DC000D5800021D8F80000834D03F01DFBB4F826
:103DD000983040F6E44A0AFB0BFBBBFBF0F0C01A3C
:103DE00000B209F00BFA7D498346D4F8940009F03B
:103DF00059FA0146584609F009FBD9F80030286005
:103E00000021D8F800000AFB03FA03F0FDFAB4F829
:103E10009830BAFBF0F00FFA80FAC3EB0A03002BDC
:103E2000B4F8BA20B8BF5B429342BCBF00232B60FA
:103E30003368002B3FF44FAE0221694806F0E8FBDF
:103E4000D9F80020D8F8000040F6E443002103FB35
:103E500002F803F0D9FAB4F89810B8FBF0F000B209
:103E6000411A604806F0BAFE02215D4806F0D0FB18
:103E7000286808F06DFD4FF0020802460B46CDF8A9
:103E80000080584806F0B4FE0321574806F0C0FBF6
:103E90004146534806F0BCFB1DE6DAF8000000215D
:103EA00003F0B2FADBF8003064389842FFF4ACAEAD
:103EB000ACE60021286803F0A7FA40F6E4410023AD
:103EC0000A2201FB0BF1B1FBF0F1464806F046FE79
:103ED0000221434806F09CFBB4F89A10414806F0D2
:103EE0007DFED9F800B069E63E4806F027FE0C21B9
:103EF0003E4806F08DFB0C213D4806F089FB4DE65F
:103F00003C4909F08BFB58B93B49304609F068FB46
:103F100030B93A4A3A4B12680592059A1A6001E69E
:103F2000DFF8D880364CD8F8003004930498236822
:103F3000344FC01A09F05EF9314609F0B3F932493D
:103F400009F064FA304909F061FA396809F0A2F819
:103F5000D8F800300393039B38602360E2E5274ADA
:103F6000274B12680892089A1A60DBE5002128683E
:103F700003F04AFA40F6E44100230A2201FB0BF168
:103F8000B1FBF0F1174806F0E9FD01211F4806F0EA
:103F90003FFBB4F89810134806F020FED9F800B0A3
:103FA0000FE7104806F0CAFDE36F012B4FF00B013D
:103FB0000CBF1748174806F02BFB0C210C4806F0E5
:103FC00027FBEEE600709446007094C65087FF1FF2
:103FD000E094FF1FB494FF1F8492FF1F17B7D138DE
:103FE000342B0100D887FF1F142101001821010084
:103FF000042101000000FA430000FAC338B9FF1F92
:104000006492FF1F9C92FF1F00007A44C81F0100AA
:10401000EC200100F82001004493FF1F2DE9F0433C
:10402000AB4D2B6883B0002B00F08780A94CAA4EC3
:10403000E36FAA4FA74D012B00F0BF80D4F880306A
:10404000DFF89082012B00F0ED80D8F85850D7F8B7
:104050000090D8F8548005FB08F54FF47A7000FB07
:1040600005F009F0CBF89E49DFF86C82054648461A
:1040700009F018F9294609F0C9F99A4909F012F925
:1040800009F0ECFA632830604BDD2846944909F0CA
:10409000BDF96423C8F80030934B38601B68002BCF
:1040A00048D0E36F8B4D012B00F0ED80032B00F027
:1040B000FD80022B00F0008102218C4806F0A8FA56
:1040C0008B4B186808F044FC022402460B4600940F
:1040D000884806F08DFD2146874806F099FA21466A
:1040E000824806F095FA3168824806F077FD06218D
:1040F000824806F08DFA3868794909F0D3F808F05B
:1041000027FC009402460B467A4806F071FD032115
:104110007B4806F07DFA774803B0BDE8F04306F02F
:104120000DBD0028BCBF0023C8F800306E4B1B68D3
:10413000002BB6D103B0BDE8F0837248654CFEF7A2
:10414000F3FB7149A76EE66E09F0ACF809F0ACFA22
:10415000226F636FD21B9B1B80B29342A0EB0700C0
:10416000C0F29D8003FB00F393FBF2F333445A4EFD
:104170005E483360022106F04BFA31685D48574FC4
:1041800006F02CFD0221594806F042FA3268A06D73
:10419000636D02FB00F003FB00F000EB80004000C9
:1041A00009F02CF84E4909F031F901232B60E36F37
:1041B0003860012B474D7FF441AF5248FEF7B4FB06
:1041C0005149D5F86890D5F86C8009F06BF809F082
:1041D0006BFA2A6F6B6FC9EB0202C8EB030380B264
:1041E0009A42C9EB00006CDD03FB0000531C90FBFE
:1041F000F3F303EB0800A26D636D306002FB00F087
:1042000003FB00F000EB8000400008F0F7FF3449AA
:10421000DFF8C08009F0FAF8D4F880303860012B5C
:104220007FF413AF3748FEF77FFB3749D8F8689023
:10423000D8F86C5009F036F809F036FAD8F8702042
:10424000D8F87430D4F85480C9EB02025B1B80B2FA
:104250009A42C9EB0000C6BF03FB0000013258437D
:1042600090FBF2F02844A56D00FB05F008FB00F080
:1042700000EB8000400008F0C1FF194909F0C6F8C2
:1042800081463860E7E6214B1B68012B4FF00A019D
:104290000CBF1F481F4806F0BBF9EB6F06E703FB96
:1042A0000000531C90FBF3F3334460E710211A48DD
:1042B00006F0AEF9E36FFCE60721184806F0A8F90E
:1042C000FAE603FB00F393FBF2F303EB080092E73B
:1042D0008092FF1F4C93FF1F3487FF1F9C92FF1F8C
:1042E000E4388E3E0000C8423C87FF1F342B01009B
:1042F0009492FF1FD887FF1F282101006021010031
:1043000068210100EC94FF1F00007A445087FF1FD2
:104310002C21010038210100442101005821010015
:10432000F0B5112083B004F075FD012813D00021F1
:104330000B2004F069FD00210C2004F065FD002134
:10434000152004F061FD1D491D4B0120002208705D
:104350001A6003B0F0BD01460446152004F054FD78
:104360001849194A194B09680191D2F884001B6851
:104370000199134D034402268B422E6017D8D2F8C0
:104380008C0008F03BFF124B196809F029F9074629
:1043900068B921460B2004F037FD084A032339464B
:1043A0000C2016702B6004F02FFD03B0F0BD01212E
:1043B0000C2004F029FD03B0F0BD00BFA494FF1F42
:1043C000DC94FF1F38B9FF1F4C93FF1FE894FF1FB9
:1043D0009492FF1FF0B56E4E6E4D34682B689C4270
:1043E00087B03AD014F0010156D014F002014AD03F
:1043F00014F004013ED0E3070ED52B68DF070BD481
:10440000654F664C3B68002B00F082802268019269
:10441000019A9A426ED83468A0070DD52B68990787
:104420000AD45F4F3B68002B4DD05C4C226803924E
:10443000039A9A4239D8346862070ED52B685B0715
:104440000CD4584F3B68002B00F08A80534C2268F4
:104450000592059A9A4272D834680CB107B0F0BD43
:104460002146162004F050FB2146172004F04CFB97
:1044700007B0F0BD052004F047FB2B68346803F05B
:10448000FB032B60B7E7172004F03EFB2B68346872
:1044900003F0FD032B60ABE7162004F035FB2B681F
:1044A000346803F0FE032B609FE73F4B1720D3F8DF
:1044B000881004F029FB2B68346843F002030022C3
:1044C0002B603A60B8E73948344C06F037FB0C21D2
:1044D000374806F09DF8354806F030FBFF211720DD
:1044E00004F012FB2268334B0292029A1B681344B9
:1044F0003B609BE72C4B1620D3F8881004F004FB9C
:104500002B68346843F0010300222B603A6083E794
:10451000FF21162004F0F8FA2368264A0093126857
:10452000009B224813443B6006F008FB0C21224804
:1045300006F06EF81D4806F001FB3B6866E71A4B73
:104540000520D3F8881004F0DFFA2B68346843F0B4
:10455000040300222B603A60002C7FF47FAF7FE7DA
:1045600012480E4C06F0EAFA0C21144806F050F8F6
:104570000E4806F0E3FAFF21052004F0C5FA226890
:104580000C4B0492049A1B6813443B605FE700BF26
:10459000DC94FF1F0894FF1F7894FF1F38B9FF1F9A
:1045A0007C94FF1F8094FF1F4C93FF1FD887FF1F31
:1045B0007C2101007487FF1F6C2101008C21010008
:1045C0002DE9F047544EDFF87481DFF874913068BC
:1045D000524D00220F2102F03FFF00230122222131
:1045E0004F48C8F80030C9F8002006F011F8D8F894
:1045F0000030132B22DC40F6E44700213068B5F888
:1046000098A002F07BFF00210446306802F0FCFE17
:10461000A4B2012107FB04F4B4FBF0F44148544474
:10462000A5F8984005F0F4FF642004F029FCD8F8C0
:1046300000300133132BC8F80030DEDDB5F89830B8
:10464000394A3A48A2FB03129B1A02EB5303C3F305
:104650000F131946A5F8983006F0C0FA1D2134480A
:1046600005F0D6FF0221334805F0D2FF2F4806F0AF
:1046700065FA00231A460E213068C8F8003002F0AF
:10468000EBFE022322212648C9F8003005F0C0FFC6
:10469000D8F80030132B22DC40F6E44700213068C4
:1046A000B5F89A9002F02AFF00210446306802F023
:1046B000ABFEA4B2012107FB04F4B4FBF0F41948EB
:1046C0004C44A5F89A4005F0A3FF642004F0D8FB01
:1046D000D8F800300133132BC8F80030DEDDB5F810
:1046E0009A30114A1148A2FB03129B1A02EB5303A2
:1046F000C3F30F131946A5F89A3006F06FFA1D217F
:104700000D4805F085FF02210A4805F081FF0748A2
:10471000BDE8F04706F012BAB494FF1F4C93FF1F98
:104720009C210100E021010087611886D887FF1FC6
:10473000C0210100342B0100E42101009C94FF1FE3
:104740005087FF1FF8B5874B874C884F1B68386D23
:1047500040F2513108222160E271002B00F0FD800F
:1047600008F04CFD396A054608F09CFD804908F0C8
:1047700099FD08F099FF80B2031263727D4A7E4B67
:1047800012681B68B9692072A37228461B121512A1
:10479000E3722273657308F085FD754908F082FDA8
:1047A00008F082FF83B21A126F497448A373E27350
:1047B00003F068FD724B734A1B6812886A49A27243
:1047C000DDB2257205EB850603EB8305760045F324
:1047D000D71540F2553E12121B1226736573082638
:1047E00000256648C4F800E0E2726372E671A573C2
:1047F000E57303F047FD40F2563363482360E671EA
:10480000FEF738F8614908F04DFD08F04DFF2072C1
:104810005D48FEF72FF85D4908F044FD08F044FFBD
:104820005B4A5A49C0F307231068637208F0EEFD33
:1048300008F014FF40FA06F203465348E272A372EE
:10484000FEF73AF84A4908F02DFD08F02DFF2073D5
:104850004D48FEF731F8464908F024FD08F024FFE2
:104860004149A573C0F3072344486373E57303F01C
:1048700009FD022004F004FB464A474B11785078AA
:10488000217291786072D2789878A172597893F8F1
:1048900000E0E2726173DA78A07340F25A33324971
:1048A0003648E67184F80CE0E273236003F0EAFC1A
:1048B0003A4B2D491A785878227260729A78D878D3
:1048C000A272E0721A79987993F805E02273A073C6
:1048D000DA792A4884F80DE040F25E33E27323600F
:1048E000E67103F0CFFC022004F0CAFA2C4B1E49FB
:1048F0001A785878227260729A78D878A272E07228
:104900001A79987993F805E02273A073DA791B4835
:1049100084F80DE04FF45C73E2732360E67103F0FA
:10492000B1FC022004F0ACFABA6DE67142FA06FE60
:10493000012340F25F3702262273992225726572A5
:1049400084F80DE02760A672E372E373A273064950
:104950000A48BDE8F84003F095BC08F04FFC7969BF
:10496000054601E78892FF1FCC94FF1F4C93FF1F61
:1049700000002041B094FF1F6C92FF1F90B7FF1FF3
:104980003487FF1F3887FF1FEC94FF1F0000C842C9
:104990009492FF1F4893FF1FA894FF1F2C87FF1FAF
:1049A0005487FF1FF0B5984C984D83B005F0CAFDB1
:1049B00023682860042B00F0A482022B4BD0082B24
:1049C00000F09280072B40F04981332801F0A58345
:1049D00000F3A680312801F0B383322840F0A9808B
:1049E00005F0ECFD002840F337818948894E06F038
:1049F00039FA08F003FC884908F054FC61230122CD
:104A0000F06322602B601846A0F152031F2B01F2C5
:104A10006283DFE813F0060B600B600B600B600B2A
:104A2000600B600B600B600B600B600B600B600B2E
:104A3000600B600BB003790C3705A5057104600BA2
:104A4000600B600B2404600B7C0C600B600B600B34
:104A5000600B600BF40AA0F13102422A69D8DFE84A
:104A600012F0EB062C07D106F7060A0719076800B3
:104A700068006800680068006800680068006800F6
:104A800068006800680068006800680068006800E6
:104A900068006800680068006800680068006800D6
:104AA00068006800680068006800680068006800C6
:104AB00068006800680068006800680068006800B6
:104AC00068006800680026076800680068006800E1
:104AD0006800680068006800680068006800680096
:104AE000680064006800E306322800F0278371281C
:104AF0001BD031281DD105F061FD002840F3408610
:104B00004348444E06F0AEF9C0B286F84000022891
:104B10008ABF0021014686F84010726C3F4821E3AD
:104B2000342801F0E882712803D100237320236028
:104B30002860002B08BF73280CBF0120002000282C
:104B400060D0334805F0FAFF0421354805F060FDD8
:104B50002F4805F0F3FF1021324805F059FD2C488D
:104B600005F0ECFF1321304805F052FD2F4B28488B
:104B7000196806F033F8264805F0E0FF14212C48A8
:104B800005F046FD224805F0D9FF1E21294805F011
:104B90003FFD1F4805F0D2FF1521274805F038FDDD
:104BA0001B4805F0CBFF1E21244805F031FD1848B5
:104BB00005F0C4FF2021224805F02AFD144805F025
:104BC000BDFF19211F4805F023FD114805F0B6FF70
:104BD00012211D4805F01CFD0D4805F0AFFF0F2107
:104BE0001A4805F015FD0A4805F0A8FF0D211848E0
:104BF00005F00EFD064805F0A1FF164A002101232D
:104C00001160236003B0F0BDA092FF1F9092FF1FC0
:104C1000D887FF1F4C93FF1F6F12833AEC94FF1F3E
:104C2000B0290100B8290100CC2901002487FF1F09
:104C3000E0290100F8290100182A0100302A0100AA
:104C4000502A0100742A0100902A0100A42A0100C0
:104C5000B42A01003C87FF1F23682868062B40F018
:104C60008D80A0F13102402A3FF663AF01A151F8D7
:104C700022F000BF93560000BF560000EB56000024
:104C8000115700003757000055570000334B000004
:104C9000334B0000334B0000334B0000334B00001C
:104CA000334B0000334B0000334B0000334B00000C
:104CB000334B0000334B0000334B0000334B0000FC
:104CC000334B0000334B0000334B0000334B0000EC
:104CD000334B0000334B0000334B0000334B0000DC
:104CE000334B0000334B0000334B0000334B0000CC
:104CF000334B0000334B0000334B0000334B0000BC
:104D0000334B0000334B0000334B0000334B0000AB
:104D1000334B0000334B0000334B0000334B00009B
:104D2000334B0000334B0000334B0000334B00008B
:104D3000334B0000334B0000334B0000334B00007B
:104D4000334B0000334B0000334B0000334B00006B
:104D5000334B0000334B0000334B0000334B00005B
:104D6000334B0000334B0000334B0000334B00004B
:104D7000334B00002B4B000023682868052B15D10E
:104D8000332801F0F38140F34781352801F0158283
:104D9000C1F2FD8171287FF4CCAEDC4A0023732080
:104DA000136023602860C4E623682868032B40F062
:104DB000A480A0F13002422A3FF6BBAE01A151F817
:104DC00022F000BFD14E0000B75D0000DF5D0000A3
:104DD000075E0000295E00004B5E0000735E00006D
:104DE0009B5E0000B95E0000DD5E0000334B0000FA
:104DF000334B0000334B0000334B0000334B0000BB
:104E0000334B0000334B0000334B0000334B0000AA
:104E1000334B0000334B0000334B0000334B00009A
:104E2000334B0000334B0000334B0000334B00008A
:104E3000334B0000334B0000334B0000334B00007A
:104E4000334B0000334B0000334B0000334B00006A
:104E5000334B0000334B0000334B0000334B00005A
:104E6000334B0000334B0000334B0000334B00004A
:104E7000334B0000334B0000334B0000334B00003A
:104E8000334B0000334B0000055F000099590000D0
:104E90005F5F0000235F0000415F00007D5F000056
:104EA00075590000334B0000334B0000334B0000BA
:104EB000334B0000334B0000334B0000334B0000FA
:104EC000334B0000334B0000D35F0000DF5F000076
:104ED00005F074FB002841F307818D488D4E05F0E5
:104EE000C1FF01270346014662228B487365276094
:104EF0002A60FDF7C1FC23682868012B7FF419AEF6
:104F000082E5A0F13102402A3FF613AE01A151F82B
:104F100022F000BF715900001559000053590000DC
:104F2000195900001D590000395900004F5900005F
:104F3000D7580000EF580000334B0000334B0000FF
:104F4000334B0000334B0000334B0000334B000069
:104F5000334B0000334B0000334B0000334B000059
:104F6000334B0000334B0000334B0000334B000049
:104F7000334B0000334B0000334B0000334B000039
:104F8000334B0000334B0000334B0000334B000029
:104F9000334B0000334B0000334B0000334B000019
:104FA000334B0000334B0000334B0000334B000009
:104FB000334B0000334B0000334B0000334B0000F9
:104FC000334B0000334B0000334B0000334B0000E9
:104FD000334B0000334B0000334B0000334B0000D9
:104FE000334B0000334B0000334B0000334B0000C9
:104FF000334B0000334B0000334B0000334B0000B9
:10500000334B0000334B0000334B0000334B0000A8
:10501000334B00002B4B0000312801F0DC8032289C
:105020007FF487AD05F0CAFA00287FF7BDAE384897
:10503000384E05F017FF01226B23C6F88C00226062
:105040002B6001E005F07EFA05F0B8FA0028F9D1EE
:105050002F4805F073FD2E4805F070FD2C4805F033
:105060006DFD2B4805F06AFD294805F067FD2121FB
:105070002A4805F0CDFA264805F060FD152128489C
:1050800005F0C6FAD6F88410214805F0A7FD0221E4
:10509000244805F0BDFA1E4805F050FD1E212248A7
:1050A00005F0B6FAD6F88C10194805F097FD0321E3
:1050B0001E4805F0ADFA164805F040FD1E211C48BB
:1050C00005F0A6FAD6F88810114805F087FD1048BB
:1050D00005F034FD1D21174805F09AFAD6F8A41002
:1050E0000B4805F07BFD0A4805F028FD1E211248FB
:1050F00005F08EFAD6F8A810054805F06FFD0448B3
:1051000005F01CFD052323607CE500BF9494FF1F80
:10511000D887FF1F4C93FF1FEC94FF1F5024010002
:1051200074240100A82301008C2401001421010033
:10513000AC240100CC240100EC24010005F03EFA6F
:10514000002840F31983B548B54E05F08BFE08F0F2
:1051500055F8B44908F0A6F896F840100346024600
:10516000B1487364FDF78AFB01236920236028603E
:105170004AE405F0E7F905F021FA05460028F8D1E0
:10518000A648A74E05F0DAFCA44805F0D7FCA348D2
:1051900005F0D4FCA14805F0D1FCA04805F0CEFCF8
:1051A0001F21A24805F034FA9C4805F0C7FC1C21D9
:1051B0009F4805F02DFA706A9E4908F073F807F0D1
:1051C000C7FB009502460B46944805F011FD0221ED
:1051D000994805F01DFA914805F0B0FC2321974845
:1051E00005F016FAF06B934908F05CF807F0B0FB95
:1051F000009502460B46894805F0FAFC02218E48CC
:1052000005F006FA854805F099FC19218C4805F04F
:10521000FFF9B06B07F09CFB02250B460246009598
:105220007E4805F0E5FC2946864805F0F1F97B4803
:1052300005F084FC1921844805F0EAF9B6F8B810A5
:10524000764805F0CBFC0321804805F0E1F973486E
:1052500005F074FC07232360D4E405F073F905F02E
:10526000ADF905460028F8D16C486D4E05F066FC96
:105270006A4805F063FC694805F060FC674805F082
:105280005DFC664805F05AFC1521714805F0C0F92F
:10529000624805F053FC18216E4805F0B9F92B4619
:1052A0000A2296F840105D4805F058FC5B4805F06E
:1052B00045FC2821684805F0ABF9706C5D4907F0A2
:1052C000F1FF07F045FB00950B460246534805F0F9
:1052D0008FFC0221584805F09BF9504805F02EFC40
:1052E00013215E4805F094F94C4805F027FC08238B
:1052F000236087E405F026F905F060F905460028EB
:10530000F8D14648464E05F019FC444805F016FC15
:10531000424805F013FC414805F010FC3F4805F0F9
:105320000DFC11214E4805F073F93C4805F006FCD0
:1053300028214C4805F06CF970693E4907F0B2FF2E
:1053400007F006FB009502460B46344805F050FC7A
:105350000221394805F05CF9304805F0EFFB1621D1
:10536000414805F055F9F069324907F09BFF07F015
:10537000EFFA00950B460246284805F039FC022159
:105380002D4805F045F9254805F0D8FBD6F8B03092
:10539000002B32DD1D21354805F03AF9F06D07F09C
:1053A0002DFF334907F07EFF07F0D2FA02250246AF
:1053B0000B460095194805F01BFC01212D4805F00E
:1053C00027F9164805F0BAFB1F212B4805F020F9F4
:1053D000306E07F013FF264907F064FF07F0B8FAB4
:1053E000009502460B460D4805F002FC01212148BC
:1053F00005F00EF9094805F0A1FB11211F4805F041
:1054000007F9D6F8B030052B00F22686DFE813F056
:1054100059065E0654064F064A062006D887FF1F27
:105420004C93FF1F6F12833AEC94FF1FAC230100D3
:10543000CC23010000007A447C220100EC2301000F
:10544000102401002C240100302401004C24010010
:10545000782A01003422010050220100802201003C
:105460001C2A010094220100C0220100D822010060
:10547000CDCCCC3D30270100F822010018230100DB
:1054800005F060F805F09AF80028F9D1BF48C04E41
:1054900005F054FBBD4805F051FBBC4805F04EFB40
:1054A000BA4805F04BFBB94805F048FB1F21B94845
:1054B00005F0AEF8B54805F041FB1E21B64805F0F1
:1054C000A7F8B24805F03AFB1A21B44805F0A0F855
:1054D000F36F022B00F0E786032B00F0DB86012B35
:1054E00000F0EA860921AE4805F092F8A74805F0D9
:1054F00025FB1421AB48A64F05F08AF8B16FA348ED
:1055000005F06CFBA14805F019FB1C21A64805F02D
:105510007FF8D6F880109D4805F060FB9B4805F0A9
:105520000DFB1C21A14805F073F8D6F8AC10974884
:1055300005F054FB954805F001FBF56F25F00205D9
:10554000012D00F061861321994805F061F88F481C
:1055500005F0F4FA02232360FFF754BB04F0F2FFD6
:1055600005F02CF80028F9D1884805F0E7FA8748BB
:1055700005F0E4FA854805F0E1FA844805F0DEFA22
:10558000824805F0DBFA13218A4805F041F87F488C
:1055900005F0D4FA0D21884805F03AF87B4805F06B
:1055A000CDFA0F21854805F033F8854B7748196807
:1055B00005F014FB754805F0C1FA1321814805F088
:1055C00027F8814B7148196805F008FB6F4805F012
:1055D000B5FA12217D4805F01BF87D4B6B48196820
:1055E00005F0FCFA694805F0A9FA1121794805F09F
:1055F0000FF8794B6548196805F0F0FA634805F033
:105600009DFA0E21754805F003F8614B5F48D3F809
:10561000A01005F0E3FA5D4805F090FA19217048F2
:1056200004F0F6FF6F4B5948196805F0D7FA574850
:1056300005F084FA11216C4804F0EAFF6B4B5348E3
:10564000196805F0CBFA514805F078FA102168483E
:1056500004F0DEFF674B4D48196805F0BFFA4B4870
:1056600005F06CFA1C21644804F0D2FF634B4748F4
:10567000196805F0B3FA454805F060FA13214C4863
:1056800004F0C6FF414805F059FA04232360FFF7F0
:10569000B9BA04F093FF00287FF76EAB3B483C4E4D
:1056A00005F0E0FB07F0AAFD554907F0AFFE6523C2
:1056B0000122706122602B601846FFF7A5B904F043
:1056C0007DFF00287FF758AB3048314E05F0CAFB0C
:1056D00007F094FD4A4907F099FE65230122F06125
:1056E00022602B601846FFF78FB904F067FF00288F
:1056F0007FF742AB2548264E05F0B4FB00EB800057
:10570000430001226520F36522602860FFF77CB921
:1057100004F054FF00287FF72FAB1C481C4E05F007
:10572000A1FB00EB8000430001226520336622606C
:105730002860FFF769B9164AD2F8B0300133052B5B
:10574000C8BF0023C2F8B030652001232360286061
:10575000FFF75AB904F032FF00287FF70DAB0B4872
:105760000B4E05F07FFB65230122C6F8B4002260D2
:105770002B601846FFF748B923682868FFF722B95D
:10578000034E96F84000FFF7C2B900BFD887FF1F4D
:105790004C93FF1FF0250100102601003026010068
:1057A000A8260100B4260100CC260100EC26010049
:1057B000802201000C250100202501003025010078
:1057C0007494FF1F40250100E094FF1F5425010041
:1057D000C494FF1F68250100C894FF1F7C250100A9
:1057E0008C2501009894FF1FA82501009494FF1FA9
:1057F000BC2501008C92FF1FD02501006887FF1F88
:1058000000007A440123236004F0D8FE002805DD5F
:1058100069486A4E05F026FBC6F8AC0001236320F8
:1058200023602860FFF7F0B8644AD36F0133032B7D
:10583000C8BF0023D367F1E7604EB36FB3FA83F3B9
:105840005B0901226320B36722602860FFF7DCB8A0
:105850000123236004F0B2FE002807DD5648574EAE
:1058600005F000FB07F0CAFCC6F89400632028602E
:105870002368FFF7A7B80123236004F09FFE0028E8
:10588000F4DD4D484D4E05F0EDFA07F0B7FCC6F8D3
:105890009000EBE70123236004F090FE0028E5DD93
:1058A0004548464E05F0DEFAA6F8BA00DEE7FEF7F8
:1058B00087FE23682868FFF782B8404ED6F880300C
:1058C000B3FA83F35B0901226320C6F880302260BB
:1058D0002860FFF799B83A4A1368B3FA83F35B0973
:1058E00001216420136021602860FFF78DB8012337
:1058F000236004F063FE002800F37E84314B1A68B5
:10590000042AC4BF02221A6064232B602368642027
:10591000FFF755B82C4ADFE72C4ADDE7274ED6F8CB
:10592000A030B3FA83F35B0901226420C6F8A030EB
:1059300022602860FFF768B8012325482360FBF741
:10594000CFFD244A2368106064222A60DFE7224AE0
:10595000C2E7224A224F1368002B0CBF0123002309
:105960004FF001001360206040F07E840346EBE7B7
:105970001C4AB1E704F022FE00280DDD0E480F4E50
:1059800005F070FA07F03AFC174907F03FFD0122D5
:105990006223306222602B6004F010FE002840F386
:1059A000A3830548054E05F05DFA01226223B06627
:1059B00022602B601CE000BFD887FF1F4C93FF1FA5
:1059C0008C92FF1F6887FF1FE094FF1FC894FF1F82
:1059D000EC94FF1F9894FF1F9494FF1FC494FF1F23
:1059E000A092FF1F7494FF1F00007A4404F0AAFDE8
:1059F00004F0E4FD05460028F8D1C24805F09EF801
:105A0000C04805F09BF8BF4805F098F8BD4805F080
:105A100095F8BC4805F092F81521BB4804F0F8FD54
:105A2000B84805F08BF81421B84804F0F1FDB548EA
:105A300005F084F81B21B64804F0EAFDB14805F0F2
:105A40007DF81321B34804F0E3FDAE4805F076F885
:105A5000AC4805F073F8AB4805F070F82021AE486B
:105A600004F0D6FDF068AD4907F01CFC06F070FFAD
:105A7000009502460B46A34805F0BAF80221A84853
:105A800004F0C6FD0221A74804F0C2FD9D4805F0C0
:105A900055F82121A44804F0BBFD30699F4907F067
:105AA00001FC06F055FF009502460B46954805F0AF
:105AB0009FF802219A4804F0ABFD0221994804F0B6
:105AC000A7FD904805F03AF81F21984804F0A0FD82
:105AD000B06A06F03DFF022702460B460097894850
